:020000040000FA
:10000000B00C0020D7000000E3000000E500000075
:1000100000000000000000000000000000000000E0
:10002000000000000000000000000000E7000000E9
:100030000000000000000000E9000000F1030000E3
:10004000ED000000ED000000ED000000ED000000FC
:10005000ED000000ED000000ED000000ED000000EC
:10006000ED000000ED000000ED000000ED000000DC
:10007000ED000000ED000000ED000000ED000000CC
:10008000ED000000ED000000ED000000ED000000BC
:10009000ED000000ED000000592F00009534000035
:1000A000ED000000ED000000ED000000ED0000009C
:1000B000ED000000ED000000ED000000ED0000008C
:1000C0000348854600F008FD00480047A16800008D
:1000D000B00C002070470648804706488047064815
:1000E0000047FEE7FEE7FEE7FEE7FEE7FEE700006B
:1000F0002D370000D5000000C100000030B50B46D0
:10010000014600202022012409E00D46D5409D42F1
:1001100005D31D469540491B254695404019154677
:10012000521E002DF1DC30BD70B50024254600289C
:1001300001DA01244042002901DA01254942FFF792
:10014000DDFFAC4200D04042002C00D0494270BDDF
:1001500003460B439B0703D009E008C9121F08C0E0
:10016000042AFAD203E00B780370401C491C521E8B
:10017000F9D27047D2B201E00270401C491EFBD296
:1001800070470022F6E710B513460A4604461946A2
:10019000FFF7F0FF204610BDF8B502464A40D40FE5
:1001A00042004B0052085B089A4202D202460846BF
:1001B00011464A0023D0C30D4A00DDB2120EAD1A1B
:1001C000202D35DA49020126490AF6058A19002C44
:1001D00000D0524220214F1B1146B9402A4110182D
:1001E000C20D9A4221D0002C17D0012D08DCDA056F
:1001F000801AD20F8019D207DBB200F04EFBF8BD97
:10020000DA05801A012340001B06C01880185A42E4
:100210008018CA0F1043490007E04908C20711437C
:10022000DA05801A80194008801800F02EFBF8BD0E
:1002300061000122511A001BF7E70122D207514049
:10024000AAE70122D2075040A6E7024670B54A400D
:10025000D30FDB0740002DD04A002AD0010E140E28
:10026000000212020919400A520A8418E5010446E4
:100270005443000A120A2E045043A4194219200CB8
:10028000C543AA18120C0125AD03521C52191204C1
:100290007F39240400D0521C104301D44000491E71
:1002A000C2B20C06C0092018401C4008802A02D0A7
:1002B00003E0002070BD40084000002900DA002063
:1002C000184370BD70B502464A40D50F40004A0041
:1002D000ED0740085208002814D0002A12D0C40D9F
:1002E000D30D41020120C0055202490A520AE41A04
:1002F000091812187D34914201D3641C00E04900B2
:10030000002C01DA002070BD0023914201D3891A2C
:100310000343400849000028F7D100290AD0914240
:1003200002D10121C90705E0914201D2012101E07A
:100330000121C943E005C018401900F0A6FA70BDBC
:10034000C217C10F504010B54018CA0796230021AC
:1003500000F0A3FA10BD10B500229623114600F05C
:100360009CFA10BD0EB5C217C10F5040CA07401805
:100370000021054B0293019200910A460B4600F0C2
:10038000D2FA03B000BD0000330400000EB50549E9
:100390000291002100910A460B46019100F0C3FA38
:1003A00003B000BD33040000C20F4100400201232E
:1003B000400ADB05D207090EC0187F2901DA0020A8
:1003C0007047962903DC9623591AC84001E09639F4
:1003D0008840002AF4D04042704700000122D20732
:1003E000002800DB101A002900DB511A81427047F7
:1003F000704710B5012200F0E8FA10BD7047000008
:10040000FFFFFFFFFFFFFFFFFFFFFFFFFFFFFEFEFE
:10041000F0B507460846584087B0C00F0490480022
:100420000E46590040084908BC1A884105D2384692
:1004300031461E4617460B460246580040081043F8
:100440004CD0300D039040055900400D490D0590EA
:10045000401A0290402872DA18030121000B0905A6
:100460000843019004980092002805D00199524257
:100470000020884100920190029840210A1A0199B7
:10048000009800F0DFF905460C466B4607CB00F0FC
:10049000E9F9C0197141039A0E0D0023D717564090
:1004A0001A467A40164344D0049A002A2DD0029A64
:1004B000012A039A15DC1205C01A9141012636055E
:1004C000001C7141D20F059ED20700930192029643
:1004D0002A46234600F027FA07B0F0BD38463146D9
:1004E000FAE71605224A0F46B218C01AB741012191
:1004F0000905001C4F4100187F4111461818794129
:10050000E20F10436D19644113E0E2076D081543D3
:100510006408C2071443039A01261205C01A9141C8
:100520003605001C7141CE07400830434908C01809
:1005300051412A46234600F0E9F9CDE7FFE7049848
:1005400001224000C117121A00238B410498314642
:10055000C417381AA141EEE730B40124E407634020
:1005600030BC55E730B40124E407614030BC4FE7AC
:100570000000E0FFF0B51FB488B00B990998002483
:1005800048400999C00F490049080991C0070B99D3
:100590000090490049080B9109990898A64608431C
:1005A0001CD00B990A98084318D0099801244000E0
:1005B000420D4800410D099824050003000B20431B
:1005C00009900B980003000B20430B9050181C4916
:1005D0004018002201901446104605E00020014614
:1005E0000DB0F0BD032801DA034600E003239C466A
:1005F000C11A0AAE0AE05F0008ADED5B4F00F75B81
:100600007D430027AA187C41491C5B1E6145F2DD31
:10061000410004AB5A522104120C0A43240C401C22
:100620000828DFDB01980290009970460191009044
:10063000059B049A0799069800F075F9D0E7000029
:100640000DFCFFFFF0B50C465C4085B0E40FE407FD
:1006500003944C0000266408590094464908024659
:100660000296224321D062460A431ED06200570DF3
:100670004A000E032303550D012402462C4924058C
:10068000781B1B0B360B4018234326436146009012
:100690001C46501AB44103D30098401C009002E05D
:1006A000921800985B41002803DA0020014605B04B
:1006B000F0BD0020012109050746864611E0644689
:1006C0001D46141BB54106D36546521BB341744603
:1006D00007430C43A646CD07400849082843921813
:1006E0005B4105460D43EAD11046184313D06046DE
:1006F000194650407140084306D06046101AB34175
:1007000006D20122002306E000220123DB0702E0DB
:100710000122D2435310009874460105381C6141F0
:10072000029C039D0019694100F0F0F8BFE700004A
:10073000FD030000410040020122400AD205090EDB
:1007400080187F2901DA00207047962903DC962261
:10075000511AC8407047963988407047C20FD20777
:10076000400040080BD0C10D0723DB01C91840022F
:100770000905400A1143C208400711437047002091
:100780000146704710B5002904DB0124E40740420C
:100790008C412146002B04DB1C460123DB0752421F
:1007A000A341994200D1904210BD0000CB0FDB075E
:1007B000490010B5490802460A4307D00A0D07242C
:1007C0000903E401090B121B002A01DC002010BD03
:1007D000C900440F0C43C100E018D205801800F096
:1007E00054F810BDF0B51FB40646002082B005468F
:1007F0004024019100901BE0019922460F463046AB
:1008000000F07CF9049A059B801A994110D3104698
:100810001946224600F016F8361A8F4101972246F3
:1008200001200021009F00F00DF838184D41009084
:100830002046641E0028DFDC019B009829463246D2
:1008400007B0F0BD10B5202A04DB0146203A9140E4
:10085000002010BD914020239C1A0346E340194319
:10086000904010BD10B5202A06DBCB170846203A71
:100870001041C1170B4306E00B461341D040202422
:10088000A21A91400843194610BD002904DA401C01
:10089000490001D140084000704770B40024050CA5
:1008A00005D11024000402D1002921D01124050E05
:1008B00001D100020834050F01D10001241D850F6C
:1008C00001D18000A41C002801DB4000641C002929
:1008D00008D020252E1B0D46F540A14000D0012157
:1008E0002943084301061B1B000ADB1D02D500201B
:1008F00070BC7047DB05181880180029F8DA401C16
:100900004900F5D170BC40084000704710B5002B7D
:1009100008DA0024401C614192185B411A4301D15E
:100920004008400010BDF0B51FB482B005460C0071
:1009300003D0084604F076FD02E004F073FD203099
:100940000246009021462846FFF77CFF049B059A4B
:1009500004460F4618431143084314D01846104369
:100960001BD0009840210A1A1846059900F0C6F8D5
:1009700005460E46009A05990498FFF763FF084361
:1009800005D0012004E02046394607B0F0BD002024
:10099000C11705430E432C43374300990E98630556
:1009A000401A7905E40A00220C43FD0A0A3002D5F8
:1009B00000200146E9E70105101969410C9C0D9DD5
:1009C00000196941FFF7A2FFDFE770B54B005B0834
:1009D00003430BD04B005C0D002633466542B34108
:1009E000D417AD1AA34102DB0020014670BD1205E9
:1009F0003018514170BDFEB500231A461B1A8A41BA
:100A000003DB0020014603B0F0BD4A000D030121C5
:100A10002D0B0905520D0D43D10702D100186D4170
:100A2000521E5110FF31FF310131002704463E466E
:100A3000384600970191024601210020090500F087
:100A40005DF8C3197141F818324684468E464A4112
:100A500061462846611A904104D36046241A9541A4
:100A600076461F46241900986D41401C009034289A
:100A7000E1DDF91930467041091BA84103D200227B
:100A8000D243134601E00022134601980105381CA9
:100A90007141FFF73BFFB6E74A0009030123090B49
:100AA0001B0519430A4B10B5520D9A4202DA002079
:100AB000014610BD064B34339A4203DC9A1A00F00B
:100AC0001DF810BD034BD218FFF7BCFE10BD00008F
:100AD000FF030000CDFBFFFF064C0125064E05E09D
:100AE000E36807CC2B430C3C98471034B442F7D34F
:100AF000FFF7EAFA384C0100584C010010B5202AE3
:100B000004DB0846203AD040002110BD0B46D340FC
:100B1000D0402024A21A91400843194610BD70B558
:100B20008C180578401C6B075B0F01D10378401CC3
:100B30002A1106D10278401C03E006780E70401C92
:100B4000491C5B1EF9D12B0705D40023521E0DD47E
:100B50000B70491CFAE70378401CCB1A921C03E087
:100B60001D780D70491C5B1C521EF9D5A142D8D3CB
:100B7000002070BDF3B581B00C460025002704E0CD
:100B8000019800F05FF845197F1CA742F8DB214669
:100B90002846FFF7C9FA0090FFF7D2FB0646304619
:100BA000FFF7C8FD80B2FEBD154949690122520711
:100BB0001143134A516113498968124A91601146E1
:100BC00049685160002111601146096820221143D3
:100BD0000C4A11601146096840221143094A11600C
:100BE000114689690122824092B21143054A9161FE
:100BF0001146896808221143024A9160704700003B
:100C00000080044000B00340014600200C4A1268F6
:100C100052095201CB06DB0E1A43094B1A6000BF82
:100C2000074A126880231A40002AF9D0044A126940
:100C300090B2034A12689A43014B1A607047000051
:100C400000B00340F1B50098FFF7DEFF04460098BE
:100C5000FFF7DAFF05460098FFF7D6FF0646AC42DD
:100C600002DD27462C463D46AE4201DD2F4604E01C
:100C7000A64201DD374600E027463846F8BD10B5EC
:100C80000020FFF791FF0120FFF78EFF0E20FFF7F6
:100C90008BFF0D20FFF788FF0C20FFF785FF10BDAD
:100CA00010B500F073F800F0B9FB00F017FB00F08E
:100CB0005DF8322000F024FB2748806801214902BA
:100CC0000843254988604B21C901012002F05EFDDF
:100CD00001F004FC01F092FE01F028FE01F066FD37
:100CE00000220A21104602F0DFFB00F04BFB01F06E
:100CF00055FBFFF7C4FF194A0021194805F0C0FD54
:100D000018481749C86018480861144A0021144857
:100D10001C3005F0B5FD1349114881621249C162CA
:100D20000A2000F0EDFA00F0F9FD00BF01F0A6FC8A
:100D30000028FBD100F01AF8642000F0E1FA064820
:100D400080680121490208430349886001F0D8FD09
:100D500001F0FAFD10BD000000F00F40000020413E
:100D600040FAFF1FFAED6B3A0AD7233C0548408A48
:100D7000012806D10448406801214902084302497C
:100D80004860704730FCFF1F00F00F400648406984
:100D90000121490208430449486108468068491511
:100DA000084301498860704700F00F40F0B58BB0F0
:100DB00005460F461646307844B2681EC10F091822
:100DC000C905090E039100BFA1B204A801F0F6F80D
:100DD00000200090E81B401C0D225043C1B20C23A0
:100DE00004AA6C2001F0CCFF0020029000F038FC37
:100DF000012806D0022807D0032808D0042830D1C3
:100E00002AE0601C44B22CE0601E44B229E00120BC
:100E100002902846C7302749088030880988490051
:100E2000254A5052002009E04100FF225202891851
:100E300009884200204B9952411C88B2FF28F3DDFB
:100E40003480FF2000F0D2FA0023012252021A4916
:100E5000FF2000F0FDFA04E0307844B20120029057
:100E600000BF00BF012C01DD002000E02046044649
:100E7000002C01DA012000E02046044602980128F7
:100E800012D1A1B204A801F099F801200090E81B4A
:100E9000401C0D225043C1B20C2304AA6C2001F067
:100EA0006FFF01F073FE02E001F070FE8CE700BFFF
:100EB0000BB0F0BD50F1FF1FB0FAFF1FF0B589B0C5
:100EC00006460F46154600242C5F6248844200DD2A
:100ED00000E020460446012C01DA012000E0204613
:100EE000044600BF22465CA102A804F087FA002055
:100EF0000090F01B401C0D225043C1B20C2302AAEB
:100F0000662001F03DFF0020019000F0A9FB0300E6
:100F100004F09FFA0681040D16323781601C04B27A
:100F20004C48844200DD00E02046044673E0012C7A
:100F300001DA012000E020460446601E04B26AE0A7
:100F400001200190002009E04100FF22520289188F
:100F500009884200424B9952411C88B2FF28F3DDB8
:100F60002C80FF2000F042FA0023012252023C496B
:100F7000FF2000F06DFA4EE00120019000242C5F6C
:100F800049E000BF37480088201804B23148844245
:100F900000DD00E020460446012C01DA012000E0DB
:100FA0002046044600F05CFB032804D004281CD132
:100FB00000242C5F2EE0002009E04100FF225202B5
:100FC000891809884200264B9952411C88B2FF2893
:100FD000F3DD2C80FF2000F009FA002301225202E9
:100FE0001F49FF2000F034FA14E000BF22461EA182
:100FF00002A804F003FA00200090F01B401C0D2210
:101000005043C1B20C2302AA662001F0B9FE01F0E0
:10101000BDFDB7E700BF00BF0198012813D12246EC
:101020000DA102A804F0EAF901200090F01B401C79
:101030000D225043C1B20C2302AA662001F0A0FE8B
:1010400001F0A4FD02E001F0A1FD4BE700BF09B0F3
:10105000F0BD00000F2700002534642000000000D0
:10106000B0FAFF1F78F0FF1F253464230000000052
:1010700070B5054601F044FCECB223E0FFF776FEC4
:10108000322000F03DF918488068012149020843E8
:101090001549886020463030C2B201230021282043
:1010A00001F018FE01F072FD012C04D1192040015D
:1010B00000F026F904E01920400100F021F900BFFA
:1010C000601EC4B2002CD9D1FFF750FEC82000F03A
:1010D00017F90548806801214902084302498860E0
:1010E00001F054FD70BD000000F00F40F0B585B078
:1010F00000250026002700200490039002906C49F0
:10110000085E6C4908606A490220085E6A49086006
:1011100067490420085E694908606949485F694970
:10112000086067490220085E674908606449042036
:10113000085E6649086000240DE0A0005D4908587B
:101140004519A0005C4908588619A0005B49085859
:10115000C719601CC4B2022CEFDB002413E0A0000E
:1011600058490958049808180490A000564909588D
:10117000039808180390A0005449095802980818C9
:101180000290601CC4B2022CE9DBE90F4919481037
:101190000195FFF7D5F88D21C9050090FFF792F86A
:1011A0004B490860F10F891948100196FFF7C8F8FC
:1011B0008D21C9050090FFF785F845494860F90F72
:1011C000C91948100197FFF7BBF88D21C905009098
:1011D000FFF778F83E4988600498C20F1118019013
:1011E0004810FFF7ADF83B490090FFF76BF83A491C
:1011F00008600398C20F111801904810FFF7A0F87B
:1012000034490090FFF75EF8334948600298C20FF6
:10121000111801904810FFF793F82E490090FFF73E
:1012200051F82D49886000241CE06042800021496B
:1012300008580121091B89001E4A50506042800055
:101240001D4908580121091B89001B4A5050604262
:1012500080001A4908580121091B8900174A50507B
:10126000601CC4B2012CE0DB00241CE06042800062
:10127000144908580121091B8900124A5050604244
:101280008000114908580121091B89000E4A50505D
:10129000604280000D4908580121091B89000B4A52
:1012A0005050601CC4B2012CE0DB05B0F0BD000062
:1012B000D8F0FF1F20F1FF1F28F1FF1F30F1FF1FA3
:1012C000CCF0FF1F38F1FF1F40F1FF1F48F1FF1F57
:1012D00010FAFF1F3333834104FAFF1F002009E097
:1012E0004100FF225202891809884200034B99529B
:1012F000411C88B2FF28F3DD70470000B0FAFF1FE1
:1013000010B5034600240DE0084800F011F800BFB6
:1013100000BF00BF00BF00BF00BF00BF00BF00BFD5
:10132000601C84B29C42EFD310BD0000E7030000B4
:10133000002123E000BF00BF00BF00BF00BF00BF0F
:1013400000BF00BF00BF00BF00BF00BF00BF00BFA5
:1013500000BF00BF00BF00BF00BF00BF00BF00BF95
:1013600000BF00BF00BF00BF00BF00BF00BF00BF85
:1013700000BF00BF00BF00BF4A1C91B242008A42BA
:10138000D8D8704710B5002005F07AF8012005F094
:1013900077F81448806901218902884311498861DE
:1013A00008464069091588430E4948610E4880681F
:1013B000091508430C4988600A484030806920219B
:1013C00088430849403188610846406920218843A4
:1013D0000449403148610448C0682021084302495B
:1013E000C86010BD00F00F400090044070B5054685
:1013F0006C020020084948700A2048722002000E42
:101400000872012048702004000E48720C7200F02F
:1014100063F8002070BD0000000002400A494969DD
:10142000012212031143084A516100BF074949795B
:10143000802211400029F9D0272001464031034A7B
:10144000D17030215171704700800440000002408B
:10145000FFB581B007460C46790204980D180426A2
:101460000020009023E000201449487006204872B4
:101470002802000E0872012048702804000E4872ED
:10148000FC2028400872022048702078087260789A
:10149000487203204870A0780872E0784872A41956
:1014A000AD1900F019F80098801980B200900399E6
:1014B00000988842D7D3002005B0F0BD000002405C
:1014C00010B58300034CE3580C33CC001B195A6051
:1014D00010BD0000304B010010B572B630200A4933
:1014E00048710A480A4908600748401D096888474A
:1014F00062B60548407933210840002801D0012018
:1015000010BD0020FCE700000000024053F1FF1F67
:1015100060F1FF1F70B5044600222146682005F0E7
:10152000BBFA0546601CC1B20022682005F0B4FA7F
:1015300006462802304300B270BD0000F0B589B005
:101540002D4988688D21C905FEF77FFE2A4907903D
:1015500048688D21C905FEF778FE2749069008687E
:101560008D21C905FEF771FE244905908868FFF7B3
:10157000F5F80646224A234BFEF7FCFF03225207EA
:10158000214B01910090FEF7F5FF0446FFF70EF99D
:101590001A4904904868FFF7E1F80446184A194BC5
:1015A000FEF7E8FF064603225207174BFEF7E2FF5D
:1015B00001910090FFF7FAF8104903900868FFF7CF
:1015C000CDF804460E4A0F4BFEF7D4FF0322520714
:1015D0000D4B01910090FEF7CDFF0646FFF7E6F8B0
:1015E0000290079906980191009002A80FC800F098
:1015F0003DFA09B0F0BD000010FAFF1F04FAFF1F0A
:101600002877442A3174513F6666304010B504464D
:101610000C2C1ED004DC002C07D0012C1ED109E0BC
:101620000D2C11D00E2C19D109E003210020FFF759
:10163000A1FA10BD03210120FFF79CFAF9E703216D
:101640000E20FFF797FAF4E703210D20FFF792FA37
:10165000EFE7C8210C20FFF78DFAEAE700BFE8E7C3
:1016600008B5002000907F480069802108400028CC
:101670003ED17D480078FFF743FE7A48006980211B
:101680000840002831D179480088401C77490880FB
:1016900008460088322803DD01207349087016E0EF
:1016A000724800880C2803DD0A206F4908700EE09C
:1016B0006E480088062803DD1E206B49087006E08E
:1016C0006A480088032802DD32206749087001203B
:1016D0000090FFF74BFB0220FFF712FE6148806885
:1016E0000121490208435F4988606846007808BDC7
:1016F0005C4800694021084000283ED15A480078E3
:10170000FFF7FEFD5748006940210840002831D10D
:1017100056480088401C55490880084600883228F1
:1017200003DD01205049087016E0504800880C285D
:1017300003DD0A204C4908700EE04C48008806285A
:1017400003DD1E204849087006E048480088032849
:1017500002DD32204449087002200090FFF706FBAA
:101760000220FFF7CDFD3F48806801214902084370
:101770003C49886068460078B9E73A4840300069DB
:101780001021084000281BD137480078FFF7B8FD2A
:101790003448403000691021084000280DD1FFF77F
:1017A000E5FA0220FFF7ACFD2E48806801214902CE
:1017B00008432C498860032000906846007896E72B
:1017C00028484030006901218902084000281CD1C6
:1017D00025480078FFF794FD224840300069012138
:1017E0008902084000280DD1FFF7C0FA0220FFF758
:1017F00087FD1C4880680121490208431949886017
:10180000042000906846007871E71648403000696F
:1018100001214902084000281CD113480078FFF735
:101820006FFD10484030006901214902084000283E
:101830000DD1FFF79BFA0120FFF762FD0948806890
:101840000121490208430749886005200090684645
:1018500000784CE73C2004490870002003490880C8
:1018600000BF44E700F00F4002F0FF1F00F0FF1F31
:1018700010B50446284840690821084326494861B4
:101880000846806808210843234988600846406963
:101890000421084320494861084640680421084360
:1018A0001D494860002C0CD00846406904210843BB
:1018B0001949486108468068042108431649886030
:1018C0000BE0154840690421084313494861084664
:1018D000406804210843104948600120FFF728FDB3
:1018E0000D484069082108430B4948610846406893
:1018F00008210843084948600120FFF719FD064800
:101900004069082108430449486108468068082165
:1019100008430149886010BD00F00F400C48406941
:10192000082108430A4948610846406808210843DD
:101930000749486008464069042108430449486152
:101940000846406804210843014948607047000088
:1019500000F00F4010B521484069042108431F4999
:10196000486108464068042108431C49486008460D
:101970004069042108431949486108464068042128
:10198000084316494860084640690821084313493E
:101990004861084640680821084310494860022011
:1019A000FFF7C6FC0D484069042108430B49486114
:1019B0000846806804210843084988600220FFF730
:1019C000B7FC0648406908210843044948610846B5
:1019D0008068082108430149886010BD00F00F406D
:1019E00010B521484069042108431F494861084651
:1019F0004068042108431C494860084640690821A2
:101A00000843194948610846806808210843164977
:101A10008860084640690421084313494861084624
:101A2000806804210843104988600220FFF780FC89
:101A30000D484069082108430B4948610846406841
:101A400008210843084948600846406904210843C2
:101A50000549486108464068042108430249486036
:101A60000220FFF765FC10BD00F00F400FB59DB0E0
:101A7000FE4801680068FEF7E8FB1590FC48016825
:101A8000FA480068FEF7E1FB1490FA480168F7484D
:101A90000068FEF7DAFB1390F54801680068FEF76E
:101AA000D4FB1290F4480168F1480068FEF7CDFBC2
:101AB0001190F04801680068FEF7C7FB1090EE48EF
:101AC0000168EC480068FEF7C0FB0F90EA48016827
:101AD0000068FEF7BAFB0E9023990846FEF7B5FBA7
:101AE000089022990846FEF7B0FB06902099084618
:101AF000FEF7ABFB05900699FEF74EFB07900899A1
:101B0000FEF74AFB0990FEF729FE0B910A9004F0BC
:101B1000F7FF0D910C90FEF749FE1C901C99209840
:101B2000FEF7D0FB20901C992298FEF7CBFB229069
:101B30001C992398FEF7C6FB239013991198FEF782
:101B40007CFB012189070D90FEF77FFB1B900F990D
:101B50001498FEF721FB012189070D90FEF775FB14
:101B60001A9012991598FEF768FB0C901099FEF7E1
:101B700064FB0D900E99FEF70FFB19901A992398AC
:101B8000FEF763FB0D9019992298FEF75EFB0C900F
:101B90000D99FEF752FB189019992098FEF755FB06
:101BA0000D901B992398FEF750FB0C900D99FEF7B2
:101BB00044FB17901B992298FEF747FB0D901A994A
:101BC0002098FEF742FB0C900D99FEF736FB16901D
:101BD000AA491898FEF739FB0D90A94801680D989D
:101BE000FEF7DAFAA6490860A4491798FEF72DFB1C
:101BF0000D90A44801680D98FEF7CEFAA14908603F
:101C00009E491698FEF721FB0D909F4801680D989C
:101C1000FEF7C2FA9C4908609C481899FEF715FB2C
:101C20000C901D99FEF7B8FA0D90954801680D9833
:101C3000FEF7B2FA1D9095481799FEF706FB0C9037
:101C40001E99FEF7A9FA0D908E4801680D98FEF7CF
:101C5000A3FA1E908D481699FEF7F7FA0C901F997B
:101C6000FEF79AFA0D90884801680D98FEF794FAED
:101C70001F9081481F990068FEF7E7FA0B907D4896
:101C80001E990068FEF7E1FA099079480068012181
:101C9000C907484007901D99FEF7D7FA089009999F
:101CA000FEF7CBFA0A900B99FEF7C7FA78490C9029
:101CB000FEF7CBFA0D906D4801680D98FEF76CFAAF
:101CC0006A4908606C481E990068FEF7BEFA0B90DE
:101CD00068481F990068FEF7B8FA099063480168E0
:101CE0001D98FEF7B2FA08900999FEF755FA0A9086
:101CF0000B99FEF7A2FA66490C90FEF7A6FA0D9032
:101D00005B4801680D98FEF747FA594908605A4840
:101D100001681D98FEF799FA0B9055481F990068C5
:101D2000FEF793FA099051481E990068FEF78DFA64
:101D300008900999FEF781FA0A900B99FEF72CFAA0
:101D400053490C90FEF781FA0D904A4801680D98AE
:101D5000FEF722FA47490860084601681D98FEF719
:101D600074FA0B9042481E990068FEF76EFA0990CB
:101D70003E481F990068FEF768FA08900999FEF737
:101D80000BFA0A900B99FEF758FA41490C90FEF7AE
:101D90005CFA0D90384801680D98FEF7FDF9364958
:101DA0000860084601680068FEF74FFA089031485D
:101DB00001680068FEF749FA06902D48016800683E
:101DC000FEF743FA0490294801680068FEF73DFADF
:101DD00003900499FEF7E0F905900699FEF7DCF907
:101DE00007900899FEF7D8F90990FEF7B7FC0B9118
:101DF0000A9004F085FE0D910C90FEF7D7FC1C9024
:101E00001A481C990068FEF75DFA184908601848DE
:101E10001C990068FEF756FA1549086015481C9988
:101E20000068FEF74FFA1349086013481C990068D0
:101E3000FEF748FA104908600C4801680120800745
:101E4000FEF703FA04900B4801680498FEF7FDF9C9
:101E500006900748016803208007FEF7F6F9049012
:101E6000054801680498FEF7F0F913E004F1FF1F3C
:101E700008F1FF1F0CF1FF1F10F1FF1F6F12833AD3
:101E800014F1FF1F18F1FF1F1CF1FF1FCDCCCC3F39
:101E90000AD7A33B05900699FEF77EF90790FEF757
:101EA0005DFC0991089003F0D5FF3B4A3B4B0B9139
:101EB0000A90FEF75FFB0D910C90FEF777FC384916
:101EC00008603848016801208007FEF7BEF90190DC
:101ED000344801680198FEF7B8F903903248016868
:101EE00003208007FEF7B1F901902F48016801989F
:101EF000FEF7ABF902900399FEF79FF97F21C90520
:101F00000490FEF749F90590FEF728FC0991089026
:101F10002648016801208007FEF797F902902148C2
:101F200001680298FEF791F90490214801680120A8
:101F30008007FEF78AF902901B4801680298FEF7B5
:101F400084F903900499FEF727F90590FEF706FC43
:101F500007910690099B089A04F0C4F90E4A0F4BAA
:101F60000B910A90FEF706FB0D910C90FEF71EFCFC
:101F70001049086000210F480068FEF72FFA05D2CB
:101F80000C4801680C48FEF707F901E009480068B1
:101F90000849086021B000BD6666666666A64C40CA
:101FA000C0F0FF1F10F1FF1F0CF1FF1F04F1FF1F16
:101FB00008F1FF1FC8F0FF1F0000B44370B50546CD
:101FC0000C46002C02D0012C0AD104E008A12846BE
:101FD00003F014FA09E007A1284603F00FFA04E021
:101FE00005A1284603F00AFA00BF00BF70BD00003B
:101FF0004F4646004F4E20003F3F3F00F0B587B0B0
:1020000000F07EFCCB4840680121C9070843C9495C
:10201000486008464068012149040843C5494860B2
:102020000120C54908700020C4490860C4490860FF
:10203000002500F07BFCC348408C401E282148430B
:1020400084B26000C049085AC0490880601C400042
:10205000BD49085ABE490880A01C4000BA49085A28
:10206000BC490880E01C4000B749085ABA490880BA
:10207000201D4000B449085AB8490880601D40003E
:10208000B149085AB6490880A01D4000AE49085A17
:10209000B4490880E01D4000AB49085AB2490880A5
:1020A000204608304000A849085AB04908803FE15E
:1020B000072D01D1002000E0284605462B0003F043
:1020C000C8F9070520333E4A566A7D0099484030DA
:1020D00040680221084397494031486008464068FB
:1020E000012149040843934940314860084640684B
:1020F0000121090408438F494031486000F01AFA71
:102100005CE08C48403040680221084389494031F6
:102110004860084640680121490408438549403128
:10212000486000F033FA49E08248403040680221BC
:10213000084380494031486000F0A8F93EE07D48FE
:10214000403040680121490408437A4940314860E1
:1021500000F08CF932E077484030406801210904F2
:10216000084374494031486000F0A0F926E0714806
:10217000403040680121490408436E4940314860BD
:10218000084640680121090408436A494031486013
:1021900000F0E6F912E06748403040680221084349
:1021A00064494031486008464068012109040843F9
:1021B00060494031486000F0F9F900BF00BF681C79
:1021C000C5B200265F48C08C012813D16849885FDA
:1021D000FF215F3188420CDC6549885F6549884290
:1021E00007DB65480088FA2803DB64480088FA2882
:1021F00000DA01265348008D002805D05148008D93
:102200004E49096888421DD34E48408D002823D08E
:102210004C49488DFEF79FF80746FEF79FFA584A4B
:10222000584B01910090FEF7A5F9059104904448A0
:102230000068FEF7ABF803910290059B049AFEF745
:10224000A1FA09D201205049087000203A490870CB
:10225000C820FFF755F80126FFF702FA002801D140
:10226000002E01D0012000E00020002800D130E045
:102270000020314908702F4880680121C9070843B0
:102280002C4988600846806801214904084329498F
:10229000886000203C490870264840304068022190
:1022A00008432449403148600846406801214904F8
:1022B000084320494031486008464068012109042C
:1022C00008431C494031486000F03EFB002007B045
:1022D000F0BD00BF26490020085EFEF731F82B490B
:1022E00008602B490020085EFEF72AF8274948605D
:1022F00028480068886020480088FEF72CF82349A9
:10230000C8601E480088FEF726F8204908611B496E
:102310000988194A1288881AFEF712F81B49486181
:102320001D480068886101F051F901F05BF900BFB8
:10233000BEE6000000F00F4099F0FF1F9CF0FF1F69
:10234000A0F0FF1F30FCFF1FB0FAFF1FA6F0FF1F19
:10235000A8F0FF1FAAF0FF1FACF0FF1FAEF0FF1F99
:10236000B0F0FF1FB2F0FF1FB4F0FF1FB6F0FF1F69
:1023700078F0FF1FA2FEFFFF6CF0FF1F6EF0FF1F43
:10238000CDCCCCCCCCCC4C40A4F0FF1F80F9FF1FAF
:102390007AF0FF1FC0F0FF1FC8F0FF1F31488069AF
:1023A000802188432F4988610846406980218843FD
:1023B0002C4948612C488068802108432A4988605C
:1023C0002848806940218843264988610846406939
:1023D00040218843234948612348806840210843BD
:1023E000214988601F4840308069102188431D4979
:1023F00040318861084640691021884319494031BD
:1024000048611948C068102108431749C860154839
:102410004030806909158843124940318861084677
:102420004069091588430F49403148610E48C0682A
:10243000091508430C49C8600A48403080694915AD
:1024400088430849403188610846406949158843F6
:102450000449403148610448C068491508430249AD
:10246000C860704700F00F40009004400548008AA3
:10247000012806D104488068012109040843024963
:102480008860704730FCFF1F40F00F400548008A0D
:10249000012806D104488068012149040843024903
:1024A0008860704730FCFF1F40F00F400948008AE9
:1024B00001280DD1084880680121490408430649D4
:1024C0008860084680680121090408430249886041
:1024D0007047000030FCFF1F40F00F401448406977
:1024E0000221084312494861084640680221084316
:1024F0000F494860084640690121490408430C49D6
:102500004861084640680121490408430849486079
:102510000846406901210904084305494861084605
:1025200040680121090408430149486070470000E0
:1025300040F00F400848008A01280CD10748806805
:102540000221084305498860084680680121490442
:10255000084302498860704730FCFF1F40F00F407D
:102560000848008A01280CD10748806802210843E6
:10257000054988600846806801210904084302492A
:102580008860704730FCFF1F40F00F400548008A0C
:10259000012805D104488068022108430249886067
:1025A0007047000030FCFF1F40F00F400C48008ACD
:1025B000012813D10B48806802210843094988602B
:1025C0000846806801214904084306498860084696
:1025D00080680121090408430249886070470000AF
:1025E00030FCFF1F40F00F4070B504460D462148F7
:1025F0000078002824D03B20FEF78CFF28803D2067
:10260000FEF788FF68803F20FEF784FFA880432004
:10261000FEF780FF18490988401A00B22080452043
:10262000FEF778FF14494988401A00B260804720BD
:10263000FEF770FF10498988401A00B2A08017E0A9
:102640003B20FEF767FF28803D20FEF763FF688090
:102650003F20FEF75FFFA8804320FEF75BFF20804E
:102660004520FEF757FF60804720FEF753FFA0800C
:1026700070BD000000F1FF1FD2F0FF1F10B50A204F
:10268000FEF73EFE80226B21682004F025FA0A2026
:10269000FEF736FE00226B21682004F01DFA0A20A6
:1026A000FEF72EFE01226B21682004F015FA0A20A5
:1026B000FEF726FE18221B21682004F00DFA0A20DE
:1026C000FEF71EFE00221C21682004F005FA0A20F5
:1026D000FEF716FE00221921682004F0FDF90A20F9
:1026E000FEF70EFE01221A21682004F0F5F964209D
:1026F000FEF706FE00227521682004F0CDF9682857
:1027000009D10A20FEF7FCFD00F008F80A20FEF7C8
:10271000F7FD002010BD0120FCE700003EB5642558
:1027200000200090019002901C4908804880888019
:10273000002418E01A491B48FFF756FF0220FEF755
:10274000DFFD184900228A5E00988018009002225E
:102750008A5E01988018019004228A5E029880188F
:102760000290601CC4B2AC42E4DB29460098FDF73D
:10277000DBFC00B20949088029460198FDF7D4FC2A
:1027800000B20649488029460298FDF7CDFC00B208
:10279000024988800120044908703EBDD2F0FF1F25
:1027A000D8F0FF1FCCF0FF1F00F1FF1F10B5002372
:1027B000194A0321022003F0F5FE0023164A0221E4
:1027C000084603F0EFFE154840690121C907084398
:1027D0001249486108468068C90408430F49886067
:1027E00000230D4A1946022003F0DCFE00230A4AAA
:1027F0000521022003F0D6FE084840690121490462
:102800000843064948610846806801214904084395
:102810000249886010BD0000D430000000F00F4075
:1028200010B50446224603210220FEF749FE01228C
:1028300002210846FEF744FE10BD10B504460122F1
:1028400003210220FEF73CFE224602210846FEF745
:1028500037FE10BD10B50446224600210220FEF7C7
:102860002FFE012205210220FEF72AFE10BD10B521
:102870000446012200210220FEF722FE2246052105
:102880000220FEF71DFE10BD10B5002819DA1A4A05
:1028900003071B0F083B9B089B00D2588307DC0EE5
:1028A000FF23A3409A438B071B0E8407E40EA3402B
:1028B0001A43114B0407240F083CA408A4001A5122
:1028C00018E00E4A03231B02D21883089B00D2583B
:1028D0008307DC0EFF23A3409A438B071B0E84075C
:1028E000E40EA3401A43054B032424021B19840859
:1028F000A4001A5110BD00001CED00E000E100E052
:1029000010B500200CE0002106E00022CB00064CB0
:102910001B191A544A1CD1B28029F6DB411CC8B2DB
:102920000828F0DB10BD000068F1FF1F00B5002192
:102930008D2000F0C7FA0021102000F0C3FA00211A
:10294000AE2000F0BFFA00BD00B500218D2000F0E0
:10295000B9FA0021142000F0B5FA0021AF2000F0F0
:10296000B1FA00BDF7B57F2801DC3F2900DDFEBDCF
:102970000C46CE17760F3619F6100727BE1BF2B29B
:10298000CE17760F3619F610F6008E1BF5B2072417
:10299000661B0124B440E3B2029C002C09D0C400A1
:1029A000094EA419A45C1C43C600074FF619B45481
:1029B00008E0C400044EA419A45C9C43C600024F66
:1029C000F619B45400BFD2E768F1FF1FFFB5064601
:1029D0000F4634460DE03D4606E029462046099A5A
:1029E000FFF7C0FF681CC5B203988542F5DD601C87
:1029F000C4B202988442EEDDFFBD000000B562481B
:102A000040690121C90608435F494861084640689A
:102A10000121C90608435C49486008464069012114
:102A200089060843584948610846406801218906DB
:102A30000843554948605448403040698915084367
:102A400051494031486108464068891508434E495C
:102A5000403148604C484069890508434A4948610B
:102A6000084640680121090708434749486008466D
:102A70004068012109070843434948604248403003
:102A80008068891508434049403188607D204001B5
:102A900007E0642101E04A1E91B20029FBDC411EDF
:102AA00088B20028F5DC384840304068FF21013109
:102AB00008433549403148600021AE2000F002FA59
:102AC0000021D52000F0FEF90021802000F0FAF965
:102AD0000021A82000F0F6F900213F2000F0F2F9D3
:102AE0000021D32000F0EEF90021084600F0EAF9B9
:102AF0000021402000F0E6F900218D2000F0E2F9ED
:102B00000021142000F0DEF90021202000F0DAF985
:102B10000021022000F0D6F90021A12000F0D2F916
:102B20000021C02000F0CEF90021DA2000F0CAF91F
:102B30000021122000F0C6F90021812000F0C2F926
:102B40000021EF2000F0BEF90021D92000F0BAF9F1
:102B50000021F12000F0B6F90021DB2000F0B2F9ED
:102B60000021302000F0AEF90021A42000F0AAF9E5
:102B70000021A62000F0A6F90021AF2000F0A2F964
:102B8000FFF7BEFE00BD000000F00F4030B500248E
:102B90001CE02146B031C8B2002100F093F90021B9
:102BA000084600F08FF90021102000F08BF9002575
:102BB00008E0E900074A8918085D012100F082F960
:102BC000681CC5B2802DF4DB601CC4B2082CE0DBAD
:102BD00030BD000068F1FF1FFFB584B00E461546FA
:102BE0001C4602962046E3175B0F1B18DB1022469B
:102BF000E7177F0FBF18FF10FF00E71B01D0012769
:102C000000E00027DB192146E70F7F187F107B4388
:102C1000DBB2019328462038C5B200274FE00C2CC8
:102C200004D0102C09D0182C14D10CE00C206843CF
:102C300025494018C05D03900DE028012349401844
:102C4000C05D039007E02420684321494018C05D1F
:102C5000039000E000BF00BF0020009029E0802129
:102C600003980840002805D031460D9A0498FFF7D4
:102C700079FE0AE00D98002801D1012000E0002033
:102C8000024631460498FFF76DFE03984006000E99
:102C90000390701CC6B20298301AA04205D1029E61
:102CA0000498401CC0B2049006E00098401CC0B2DA
:102CB000009000980828D2DB00BF781CC7B20198AA
:102CC0008742ACDB08B0F0BD30320100A436010011
:102CD000943C0100FFB581B00646002407E025487A
:102CE000015D0398814200D103E0601CC4B2092C4D
:102CF000F5DB00BF0394002438E000272BE0FF2120
:102D00008131039848431C49411806206043C0198B
:102D1000085C009000251AE01848405D00990840C2
:102D2000002805D03046049A0299FFF71BFE0AE0FE
:102D30000498002801D1012000E00020024630461E
:102D40000299FFF70FFE701CC6B2681CC5B2082DB1
:102D5000E2DB781CC7B2062FD1DB0298401CC0B260
:102D6000029030463038C6B2601CC4B2402CC4DB7E
:102D700005B0F0BD486B0000C4010100F04901003E
:102D8000FFB581B0064614461D460A9F0DE0009728
:102D900022782B4630460299FFF71EFF2846E90F9E
:102DA000091849108919CEB2641C20787E2802DCEB
:102DB00020782028EBDA05B0F0BDF8B505460F46BF
:102DC00014461E461FE02078002800D11CE0207821
:102DD0007E280DDC207820280ADB009622780C2340
:102DE00039462846FFF7F8FEA81DC5B2641C0AE064
:102DF0000096637822783946284600F007F828467E
:102E00000C30C5B2A41CDEE700BFF8BDFFB581B031
:102E1000064600240DE02848015D0398814206D152
:102E20002549601C095C0498814200D103E0A01C84
:102E3000C4B2642CEFDB00BF0394002437E000270A
:102E40002AE0FF218131039848431C494018610062
:102E5000C919405C009000251AE01948405D0099AE
:102E60000840002805D030460A9A0299FFF77AFDFB
:102E70000AE00A98002801D1012000E00020024663
:102E800030460299FFF76EFD701CC6B2681CC5B2D1
:102E9000082DE2DB781CC7B2022FD2DB0298401C5F
:102EA000C0B2029030461038C6B2601CC4B20C2CBE
:102EB000C5DB05B0F0BD0000606B0000C46B000016
:102EC000F049010010B5002902D0012910D107E016
:102ED000204A926801231B071A431E4B9A6007E0A1
:102EE0001C4A526801231B071A431A4B5A6000BF41
:102EF00000BF002224E0174B9B680124E406234313
:102F0000144CA36080230340002B07D023465B684A
:102F10000124A40623430F4C636006E00D4B9B681D
:102F20000124A40623430B4CA3600A4B5B680124D5
:102F3000E4062343074C63604306180E531CDAB2C1
:102F4000082AD8DB034A526801231B071A43014BA6
:102F50005A6010BD00F00F40F0B595B0FE48C06853
:102F600001210843FC49C860FC49FD48FFF73CFBD0
:102F7000FEF7BCF8FEF7E2FA0A21FA480088FDF7EE
:102F8000D3F81290FDF7DCF90746F7484168384658
:102F9000FDF75BF90646F5480088FDF7DCF911906E
:102FA000F34801681198FDF7F7F80746F1480088E3
:102FB000FDF7D1F939461290FDF747F931461390E4
:102FC000FDF7EAF80546FDF7EFF9EB490860EB4835
:102FD0000069012189020840002803D103F046FA64
:102FE000404202E0002003F041FA00B2E4490880C8
:102FF000E2484030006920210840002803D1012028
:1030000003F034FA03E0012003F030FA404200B24A
:10301000DC490880DA4A0021515EDA4A0023D35E97
:10302000C818C10F091849100CB2D74800780028F9
:1030300009D0D6480068401CD4490860D4480068CC
:103040000019D3490860D3480088001B00B2D24958
:1030500008800020D149086000BF10E0411C4900F1
:10306000CF4A515A4200CE4B995241001A46515E06
:10307000CA4A12688918C94A1160411CC8B213288B
:10308000ECDBC5490020085EC549C8842620085EDF
:10309000C24909684018C14908600968C14A1288D4
:1030A000514308466421FDF73FF8BB4900228A5E80
:1030B0005142BD4A128851434018BC490860002063
:1030C00003F0CCF9012003F0C9F90E20FEF79EFAB7
:1030D0000746FDF740F906463146B54803F084FB44
:1030E0000546FDF727FBB34908800D20FEF78EFA51
:1030F0000746FDF730F906463146AD481C3803F067
:1031000073FB0546FDF716FBAB4908809B488068BA
:1031100001214902084399498860A848007800289D
:1031200004D0A7480088401CA5490880A248008810
:10313000A449884223DDA4498D480068FDF74EF973
:103140001DD29C4800889F49884218DD9C48008811
:10315000502814DA0120994908709C4800689C495D
:103160000860FDF703FE934909889A4A1288514383
:1031700008460A21FCF7D8FF8E49088008E09048ED
:103180000088C82804DD00208C4908708C4908801C
:1031900091490020085E9149088087480088854948
:1031A0000988401A00B28C4908800020085EFDF7AB
:1031B000C7F80746FDF7D2FA0546894A894BFDF75D
:1031C000D9F90F910E9084490020085EFDF7CAF8E6
:1031D0000791069080490020085EFDF7B1F8074688
:1031E000FDF7BCFA0546804A804BFDF7C3F905910F
:1031F0000490079B069AFDF7BDF90B910A9076495A
:103200000020085EFDF7AEF8079106907249002095
:10321000085EFDF795F80546FDF7A0FA03910290C8
:103220006D490020085EFDF78BF80746FDF796FA1A
:1032300005466F4A6F4BFDF79DF901910090039B86
:10324000029AFDF797F905910490079B069AFDF7FE
:1032500091F9099108900B9B0A9AFDF7D9F80D9105
:103260000C900F9B0E9AFDF7D3F8634A634B1191B4
:103270001090FDF771F913911290FDF797FA6049DC
:103280000860554A0021515E544A0023D35EC91A92
:103290005C4A128851430846FDF752F807465A48DF
:1032A0000088FDF758F81390554801681398FCF70B
:1032B000CCFF06463946FCF76FFF0546FDF774F86C
:1032C000524908602C4800683849096840184F493D
:1032D0000968401A4E490860274800683349096860
:1032E00040184A49096840184A4908604A48007825
:1032F000012808D17D20C000FFF79FFA7D20C00083
:10330000FFF7B5FAA9E042480068002811DA404802
:10331000006840423E490860084600683F498842CC
:1033200002DB08463A49086039480068FFF785FA29
:103330000BE0374800683949884202DB08463449C7
:10334000086033480068FFF76BFA324800680028CD
:1033500077DA3048006864E000710340D8F0FF1F5E
:10336000CCF0FF1FACF0FF1F04FAFF1FA6F0FF1FF9
:10337000C0F0FF1FAAF0FF1F58F0FF1F00F00F4022
:1033800078F0FF1F7AF0FF1F99F0FF1F9CF0FF1FDE
:10339000A0F0FF1FA8F0FF1F7CF0FF1F88F0FF1FA9
:1033A00068F9FF1FB0F0FF1FAEF0FF1F5CF0FF1FBA
:1033B0005CFAFF1F6CF0FF1F6EF0FF1F91F0FF1F04
:1033C00092F0FF1F1A040000000090C1C8F0FF1F18
:1033D00094F0FF1FB6F0FF1F74F0FF1F76F0FF1F81
:1033E000D4B7CCE9B298883F1C0CD01154E8C7BEC2
:1033F0009FB7BB4ED6A8353EB115342DB1327A3FBA
:103400008CF0FF1FB4F0FF1FB2F0FF1F60F0FF1F32
:1034100064F0FF1F68F0FF1FA4F0FF1F4E0C0000B8
:103420000FE0404218490860084600681749884282
:1034300002DB08461449086013480068FFF717FAD2
:103440000BE0114800681149884202DB08460E492A
:1034500008600D480068FFF7FDF90D48406802213B
:1034600008430B4948600846406801214904084365
:103470000749486008464068012109040843044997
:10348000486015B0F0BD000068F0FF1F4E0C000052
:1034900040F00F400348C169012001430148C16168
:1034A000704700000071034070B504460D46164693
:1034B0001F484069022108431D4948611D480068B2
:1034C000022188431B49086020461630C206D20EEE
:1034D00001219140184A116000BF184868431849FB
:1034E00022018850084621014018806802210843C3
:1034F0001349220189188860114821014018816808
:10350000012001430E4822018018816021461631B6
:1035100048B23146FFF7B8F920461630C206D20E3F
:1035200001219140044A803A116000BF70BD000043
:10353000008004400070034080E100E0409C0000F7
:103540000071034010B500241E488069042188439F
:103550001C4988610846406904218843194948612B
:103560001948806804210843174988601548406954
:103570000821084313494861084640680821084368
:10358000104948600020FDF7D3FE07E0601CC4B27C
:10359000FA2C03DDFEF724FA012010BD094800696A
:1035A000042108400028F1D1064840690821084359
:1035B0000449486108468068082108430149886039
:1035C0000020EAE700F00F400090044010B55520BD
:1035D00003F0A3F9AA2003F0A0F9AE2003F09DF9AF
:1035E00010BD0000F8B50026002000900A255520E7
:1035F00003F093F9AA2003F090F9AD2003F08DF9C0
:10360000284603F08AF9002419E0A0000F49085861
:10361000009068460678304603F07FF968464678A1
:10362000304603F07AF968468678304603F075F93B
:103630006846C678304603F070F9601CC4B2AC42EC
:10364000E3DB0D2003F069F9F8BD000080F9FF1FEE
:1036500010B51748408C030001F0FBFE0627040B51
:1036600012192027012313A213210020FFF7A5FB25
:103670001CE0012315A213210020FFF79EFB15E09B
:10368000012318A213210020FFF797FB0EE001236E
:103690001AA213210020FFF790FB07E001231DA2CF
:1036A00013210020FFF789FB00E000BF00BF10BD21
:1036B00030FCFF1F2020202020202020B0B820D266
:1036C000BB2020202020202020200000202020209F
:1036D00020202020B0B820B6FE202020202020204E
:1036E000202000002020202020202020B0B820C84A
:1036F000FD2020202020202020200000202020202D
:1037000020202020B0B820CBC42020202020202042
:10371000202000002020202020202020B0B820CE13
:10372000E5202020202020202020000012481349DE
:10373000888001204870232008701120000510495E
:103740004862104840780007000F0E4948709420E6
:103750000D4908701A200B49087000BF094800790C
:10376000102108400028F9D100BF064800790C213B
:1037700008400028F9D1704703E800000020054008
:10378000008004400040064000500640F3B581B080
:103790000646B00049490C58002E04D0012E22D014
:1037A000022E62D140E04648C068802188434449E7
:1037B000C86008464069012109050843404948613D
:1037C0004048C078082108433E49C8700846C07880
:1037D000042108433B49C8700846C07820210843AB
:1037E0003849C87000BF3648006901210903884381
:1037F00033490861084640690121490508433049B9
:1038000048613148C078082108432F49C8700846EC
:10381000C078042108432C49C8700846C07820218C
:1038200008432949C87021E025480069012149035E
:1038300088432349086108464069012189050843F6
:103840001F4948612148C078082108431F49C870B2
:103850000846C078042108431C49C8700846C0784F
:10386000202108431949C87000E000BF00BFE0787C
:103870000C218843E0700020A07015480299FCF7E5
:103880003DFC471D0A213846FCF738FC85B211483B
:10389000854200DD054620784009400120702078EF
:1038A000E904C90E0843207065700020A070A07163
:1038B0006071E0780C210843E070FEBD244B0100EC
:1038C0000080044000A0064000B0064000C0064052
:1038D00040787D01FF1F000030B502460B46900086
:1038E0000B4D2C58002108E0207980252840002825
:1038F00001D0E37104E0481CC1B206488142F3DB09
:1039000000BF0448814201DB012030BD0020FCE7FC
:10391000244B0100BBFB0000F0B5CDB00125002613
:1039200001240027FEF7ECFFFF222D32774902A881
:10393000FCF70EFC012302AA00210846FFF73DFA1E
:103940001E20604302A9421801230D210020FFF729
:1039500034FA601C1E21484302A9421801231A218F
:103960000020FFF72AFAA01C1E21484302A9421892
:10397000012327210020FFF720FAE01C1E214843E5
:1039800002A94218012334210020FFF716FA00BFD4
:103990002E462746FDF764FE012806D0022807D0F0
:1039A00003280BD004281CD105E0681EC5B218E01E
:1039B000681CC5B215E000204DB0F0BD012D06D049
:1039C000022D06D0032D06D0042D08D105E01F20BE
:1039D000F2E72020F0E72120EEE72220ECE70020AC
:1039E000EAE700BF012D01DA092000E0284605467C
:1039F000092D01DD012000E028460546A54201DA37
:103A0000284600E020460446E81EA04200DD00E013
:103A10002046C4B2AE421FD001200C2320221946FA
:103A200000901846FFF7D8F801200C232022192116
:103A300000901846FFF7D0F801200C232022262101
:103A400000901846FFF7C8F801200C2320223221ED
:103A500000901846FFF7C0F8A74226D01E2060430A
:103A600002A9421801230D210020FFF7A6F9601CCE
:103A70001E21484302A9421801231A210020FFF702
:103A80009CF9A01C1E21484302A9421801232721AA
:103A90000020FFF792F9E01C1E21484302A94218BA
:103AA000012334210020FFF788F9A54208D1012025
:103AB0000C234022194600901846FFF78DF822E0AB
:103AC000601C854208D101200C234022192100905E
:103AD0001846FFF781F816E0A01C854208D10120A6
:103AE0000C234022262100901846FFF775F80AE0C3
:103AF000E01C854207D101200C2340223221009096
:103B00001846FFF769F8FFF741F841E7F849010067
:103B1000F0B58DB001200C90FEF7F2FE00BF6D48AD
:103B20000068FCF718FC6C490290FCF7CBFB039093
:103B3000FCF714FE04460D4668480068FCF70BFCD1
:103B400067490290FCF7BEFB0390FCF707FE0646B0
:103B500032460B4663A104A80195009401F04EFC87
:103B600001200C2304AA282100900020FFF708F967
:103B700058480068FCF7EFFB029058480068FCF7D3
:103B8000EAFB01900299FCF79DFB0390FCF7E6FD30
:103B90000646594A594BFCF755FD044622460B464A
:103BA00057A104A801F02AFC01200C2304AA352106
:103BB00000900020FFF7E4F801200C2352A200211E
:103BC00000900620FFF7DCF85048808C3030C2B2FD
:103BD000012300212820FFF77DF8FDF741FD0300B8
:103BE00001F037FC06730434646B72734748808CB1
:103BF000401C81B245488184808C052801DB05206A
:103C000001E04248808C414988840846808C4049C4
:103C10000880002009E04100FF225202891809882B
:103C200042003C4B9952411C88B2FF28F3DD3848D2
:103C3000018836488184FF20FDF7D8FB002301224C
:103C400052023449FF20FDF703FC3EE02F48808CF0
:103C5000002801D1012001E02C48808C2B49888468
:103C60000846808C401E81B228488184808C284977
:103C70000880002009E04100FF22520289180988CB
:103C80004200244B9952411C88B2FF28F3DD2048A2
:103C900001881E488184FF20FDF7A8FB0023012234
:103CA00052021C49FF20FDF7D3FB0EE01749888C18
:103CB000FDF7DEF9FEF7A2F907E0002005490860EC
:103CC000064908600DB0F0BD00BF00BFFEF75EFF03
:103CD00025E700009CF0FF1F0000C842A0F0FF1F76
:103CE0000000B445252E33662020202020202020EF
:103CF000202020252E336600CDCCCCCCCCCC4C4023
:103D0000252E3366000000003C00000030FCFF1F41
:103D100004F0FF1FB0FAFF1F70B58AB00026FEF74F
:103D2000EFFD012322A200210846FFF746F800BF5D
:103D3000FDF796FC042802D103200AB070BD22488A
:103D40000068FCF70BFD044622460B461FA102A8A3
:103D500001F054FB01200C2302AA14210090002042
:103D6000FFF70EF81E480222825E1EA102A801F093
:103D700045FB01200C2302AA212100900020FEF720
:103D8000FFFF1C480068FCF7E9FC044622460B468E
:103D900019A102A801F032FB01200C2302AA2E2156
:103DA00000900020FEF7ECFFFEF7F0FEC0E70000F9
:103DB000203C20202020CDD32020C2DD2020D2C7CF
:103DC0002020202020200000C0F0FF1F5049544335
:103DD000483A2025332E32662020202000000000A3
:103DE000CCF0FF1F475F593A202535642020202062
:103DF00000000000C8F0FF1F5961773A20256420B9
:103E00002020200038B501240025FEF779FD01238C
:103E100089A203210020FEF7D0FF8D48408C0128A5
:103E200001DA052001E08A48408C89494884084627
:103E3000408C052801DD012001E08548408C844943
:103E40004884FFF705FC012382A223210020FEF70E
:103E5000B4FF012385A233210020FEF7AEFF00BF8F
:103E60002546FDF7FDFB030001F0F3FA0691040D72
:103E700016295D91601EC4B2012C01DA042000E015
:103E80002046044684E0601CC4B2042C01DD0120FD
:103E900000E0204604467BE0012C06D0022C06D030
:103EA000032C06D0042C08D105E0012038BD0220E7
:103EB000FCE70320FAE70420F8E70020F6E7022CED
:103EC00030D16348408C401E81B261484184408CAF
:103ED000012801DA052001E05D48408C5C494884F6
:103EE0000846408C67490880002009E04100FF2215
:103EF0005202891809884200634B9952411C88B2CA
:103F0000FF28F3DD5F48018851484184FF20FDF719
:103F10006DFA0023012252025B49FF20FDF798FA57
:103F2000FFF796FB34E0022C30D14948408C401C0E
:103F300081B247484184408C052801DD012001E021
:103F40004348408C424948840846408C4D4908808B
:103F5000002009E04100FF2252028918098842002E
:103F6000494B9952411C88B2FF28F3DD454801882E
:103F700037484184FF20FDF739FA0023012252021D
:103F80004149FF20FDF764FAFFF762FB00E000BF44
:103F900000BFA5421FD001200C2320220321009046
:103FA0001046FEF719FE01200C2320221321009059
:103FB0001046FEF711FE01200C2320222321009041
:103FC0001046FEF709FE01200C2320223321009029
:103FD0001046FEF701FE012C06D0022C0DD0032C5A
:103FE00014D0042C24D11AE001200C2340220321F8
:103FF00000902020FEF7F0FD1AE001200C23402263
:10400000132100902020FEF7E7FD11E001200C2392
:104010004022232100902020FEF7DEFD08E0012051
:104020000C234022332100902020FEF7D5FD00BF55
:1040300000BFFEF7ABFD13E720202020202020202A
:10404000B7A220B3B520202020202020202000006F
:1040500030FCFF1F2020202020202020CDE220C97E
:10406000E8202020202020202020000020202020C8
:1040700020202020C9E820D6C32020202020202076
:104080002020000004F0FF1FB0FAFF1FF0B5F74B2F
:104090009D4401240021F648684481610125416165
:1040A0000161F448408C401E2821484386B200BF7D
:1040B000FEF726FCF048684400F098FF0123EE4A22
:1040C0006A4400210846FEF778FE1E206843EA494C
:1040D0006944421801230D210020FEF76EFE681C82
:1040E0001E214843E4496944421801231A21002053
:1040F000FEF763FEA81C1E214843DF4969444218AD
:10410000012327210020FEF758FEE81C1E2148430A
:10411000D94969444218012334210020FEF74DFE9D
:1041200000BFD348684484614561FDF799FA0300F4
:1041300001F08FF9060C040DFB161B0C601EC4B2B7
:10414000012C01DA102000E02046044695E3601CB3
:10415000C4B2102C01DD012000E0204604468CE3AF
:104160000020C34B1C339D44F0BD002010E0002113
:104170000AE0C200C14BD218525CC300FFAF3C370B
:10418000DB195A544A1CD1B20829F2DB411CC8B2CF
:104190008028ECDB0121FFA8816300214163E2E27A
:1041A000012038234722172100901E20FEF70EFC25
:1041B000FFA8806B012802D002283AD11CE001231D
:1041C000AFA21A212120FEF7F8FD00201923442276
:1041D000194600902120FEF7F9FB002026234422F7
:1041E000194600902120FEF7F1FB0023A6A2292109
:1041F0002120FEF7E2FD1CE00023A1A21A212120CC
:10420000FEF7DBFD0123A0A229212120FEF7D5FD29
:10421000002028234422194600902120FEF7D6FBD7
:10422000002035234422194600902120FEF7CEFBC2
:1042300000BF00BFFDF714FA030001F00AF90607FA
:1042400004080CFD0D070121FFA8816388E202210B
:10425000FFA8816384E200BF00200A9013E00020E1
:104260000BE00A99C900854A89180A5C0A99C900B5
:104270000CABCB181A54411CC8B20828F1DB0A98C1
:10428000401CC1B20A910A988028E8DB012700216E
:104290000B9142E2FFA8806B012847D12F236E22A9
:1042A0000E2100904520FEF791FB012F02D0022F36
:1042B0003AD11CE0012376A211214820FEF77DFDB2
:1042C000002010236B22194600904820FEF77EFB49
:1042D00000201D236B22194600904820FEF776FB34
:1042E00000236DA220214820FEF767FD1CE000237B
:1042F00067A211214820FEF760FD012366A220215C
:104300004820FEF75AFD00201F236B22194600901B
:104310004820FEF75BFB00202C236B2219460090FF
:104320004820FEF753FB00BF39E137E2FFA8806B5E
:104330000228F9D101203F237A220146009045202E
:10434000FEF744FB4B48408C030001F082F80668FE
:1043500004182C40546852A102A801F04FF853A150
:1043600004A8013001F04AF853A106A8023001F078
:1043700045F854A108A8033001F040F84FE054A1DB
:1043800002A801F03BF849A104A8013001F036F879
:1043900049A106A8023001F031F84AA108A803306B
:1043A00001F02CF83BE04AA102A801F027F83CA15B
:1043B00004A8013001F022F83FA106A8023001F064
:1043C0001DF840A108A8033001F018F827E040A12B
:1043D00002A801F013F832A104A8013001F00EF890
:1043E00032A106A8023001F009F836A108A803306E
:1043F00001F004F813E036A102A800F0FFFF28A1A5
:1044000004A8013000F0FAFF28A106A8023000F04D
:10441000F5FF29A108A8033000F0F0FF00BF00BF9E
:10442000002302AA04214820FEF7C7FC002304AAA7
:1044300001321321482000E08EE1FEF7BEFC00238C
:1044400006AA023222214820FEF7B7FC002308AA60
:10445000033231214820FEF7B0FC012F3ED0022F5D
:1044600053D0032F69D0042F4ED17EE064F5FFFFB7
:10447000800A000030FCFF1F3808000068F1FF1FB1
:1044800020C7E5BFD520000020B8B4D6C620000064
:1044900020B5B1C7B020000020CBF9D3D020000058
:1044A00020B7BDB0B8B6FE200000000020B7BDB0F8
:1044B000B8C8FD200000000020B7BDB0B8CBC420B4
:1044C0000000000020B7BDB0B8CEE520000000001D
:1044D00020B7BDB0B8D2BB2000000000012302AA63
:1044E00004214820FEF769FC0020032377221946A7
:1044F00000904820FEF76AFA002010237722194620
:1045000000904820FEF762FA47E0012304AA013236
:1045100013214820FEF751FC002012237722194670
:1045200000904820FEF752FA00201F2377221946F8
:1045300000904820FEF74AFA2FE0012306AA023233
:1045400022214820FEF739FC00202123772219463A
:1045500000904820FEF73AFA00202E2377221946D1
:1045600000904820FEF732FA17E0012308AA033230
:1045700031214820FEF721FC002030237722194604
:1045800000904820FEF722FA00203D2377221946AA
:1045900000904820FEF71AFA00BF00BF00BFFDF7E9
:1045A0005FF8030000F055FF06B604132522B5B6E8
:1045B000FFA8806B012801D1012707E0781EC7B250
:1045C000012F01DA012000E038460746A2E0FFA8EB
:1045D000806B012801D1022707E0781CC7B2042FA5
:1045E00001DD042000E03846074693E001200B90EF
:1045F00090E0F148408CB84201DD0A9702E0781C57
:10460000C1B20A91FFA8806B0A214843C01916283D
:1046100050D006DC0B2809D00C2826D0152876D1DE
:1046200047E0172847D0182871D145E0002009E05D
:104630004100FF225202891809884200DF4B99523B
:10464000411C88B2FF28F3DD0021601E8019400064
:10465000DA4A1152FF20FCF7C9FE00230122520260
:10466000D649FF20FCF7F4FE51E0002009E04100AC
:10467000FF225202891809884200D04B9952411CEE
:1046800088B2FF28F3DD002006E000213218520036
:10469000CA4B9952411CC8B22828F6DBFF20FCF710
:1046A000A5FE002301225202C449FF20FCF7D0FEE0
:1046B0002DE000BF00BF00BF002009E04100FF2245
:1046C0005202891809884200BC4B9952411C88B299
:1046D000FF28F3DD00200DE00A99491E28225143EE
:1046E00009184900B54A515A32185200B34B995231
:1046F000411CC8B22828EFDBFF20FCF777FE00231F
:1047000001225202AD49FF20FCF7A2FE00BF00BF0C
:10471000CEE400BF00BFFEF739FA0B98012800D0A5
:10472000B8E500200A9013E000200BE00A99C900C8
:104730000CAA89180A5C0A99C900A14BCB181A5413
:10474000411CC8B20828F1DB0A98401CC1B20A918A
:104750000A988028E8DB03E00120FFA9486300BF36
:1047600000BFFEF713FAFFA8406B012800D017E541
:10477000002010E000210AE0C200FFAB3C33D21859
:10478000525CC3008E4FDB195A544A1CD1B208291F
:10479000F2DB411CC8B28028ECDB6EE0230000F0A5
:1047A00058FE0B6A07101A242E38424C56616A00D4
:1047B000700082494218012329462046FCF77EFBFF
:1047C00059E0701C40007D494218012329462046CB
:1047D000FCF774FB4FE0B01C4000784942180123FD
:1047E00029462046FCF76AFB45E0F01C400073496F
:1047F0004218012329462046FCF760FB3BE0301DB0
:1048000040006E494218012329462046FCF756FB1A
:1048100031E0701D400069494218012329462046B5
:10482000FCF74CFB27E0B01D40006449421801230F
:1048300029462046FCF742FB1DE0F01D40005F4981
:104840004218012329462046FCF738FB13E0304686
:104850000830400059494218012329462046FCF7F8
:104860002DFB08E0700055494218012329462046D7
:10487000FCF724FB00BF00BF00BF00BFAC4201DA61
:10488000204600E028460546E01EA84200DD00E084
:104890002846C5B24B4868448069A04204D14948C3
:1048A00068440069012824D101200C2320221946E4
:1048B00000900620FEF790F901200C2320221921F8
:1048C00000900620FEF788F901200C2320222621E3
:1048D00000900620FEF780F901200C2320223221CF
:1048E00000900620FEF778F93748684400F07EFB18
:1048F00000BF344868444069A8422AD01E2068435B
:1049000031496944421801230D210020FEF755FA70
:10491000681C1E2148432C496944421801231A216E
:104920000020FEF74AFAA81C1E2148432649694484
:104930004218012327210020FEF73FFAE81C1E2120
:104940004843214969444218012334210020FEF7DD
:1049500034FAAC4208D101200C23402219460090C1
:104960000620FEF739F922E0681C844208D10120B4
:104970000C234022192100900620FEF72DF916E0A5
:10498000A81C844208D101200C234022262100903B
:104990000620FEF721F90AE0E81C844207D1012035
:1049A0000C234022322100900620FEF715F9FEF775
:1049B000EDF8FFF7B6FB000030FCFF1FB0FAFF1F59
:1049C00068F1FF1F800A00003808000000B585B0BC
:1049D00014216846FBF7D5FBFDF792FF012315A2D2
:1049E00000210846FEF7E9F900BFFCF739FE04286C
:1049F00002D1032005B000BD14480022825E14A13C
:104A0000684600F0FBFC01236A461A210020FEF7ED
:104A1000D4F913480022825E12A1684600F0EEFC31
:104A200001236A4627210020FEF7C7F9FEF7AEF8FA
:104A3000DBE70000203C20202020B1E020C2EB205A
:104A4000C6F720D6B52020202020200078F0FF1FB8
:104A50004C5FB1E0C2EBC6F73A2535642000000098
:104A60007AF0FF1F525FB1E0C2EBC6F73A2535641A
:104A700020000000F0B59FB000201E901D901C90FB
:104A80001B90142116A8FBF77CFB142111A8FBF73F
:104A900078FB0020109014210BA8FBF772FB00207C
:104AA0000A90FDF72DFF012328A200210846FEF7FA
:104AB00084F900BFFCF7D4FD042802D103201FB005
:104AC000F0BD284803882848028828A102A800F0E1
:104AD00095FC01200C2302AA194600900020FEF745
:104AE0004FF90D20FCF792FD04460E20FCF78EFDD9
:104AF000054623462A4622A102A800F07FFC012099
:104B00000C2302AA192100900020FEF739F9214850
:104B10000068FBF723FE04460D461F480068FBF7BC
:104B20001DFE064632460B461CA102A801950094C4
:104B300000F064FC01200C2302AA2D21009000202B
:104B4000FEF71EF9FEF722F8B4E70000203C202013
:104B50002020B5E72020B8D02020D6B52020202066
:104B6000202000006EF0FF1F6CF0FF1F41445F4CDF
:104B70003A253464202041445F523A2534640000D1
:104B800041445F333A253464202041445F343A2560
:104B9000346400008CF0FF1FC0F0FF1F50495443E5
:104BA000483A2025332E3266202020783A25662088
:104BB00000000000F0B5CDB001250026012400273B
:104BC00000204C90FDF79CFE01A800F02FF9012376
:104BD00001AA00210846FEF7F0F81E20604301A953
:104BE000421801230D210020FEF7E7F8601C1E216A
:104BF000484301A9421801231A210020FEF7DDF8DD
:104C0000A01C1E21484301A942180123272100208E
:104C1000FEF7D3F8E01C1E21484301A942180123E6
:104C200034210020FEF7C9F800BF2E462746FCF7C6
:104C300017FD012806D0022807D003280BD004282E
:104C400055D105E0681EC5B251E0681CC5B24EE002
:104C500000204DB0F0BD2B0000F0FBFB0A46060C17
:104C6000131A212830383F466F4A21462846FCF760
:104C70009DF83BE06C4A921C21462846FCF796F8CA
:104C800034E0694A121D21462846FCF78FF82DE0D2
:104C9000654A921D21462846FCF788F826E0624ABC
:104CA000163221462846FCF781F81FE001235E4AB0
:104CB000183221462846FCF701F917E001235A4A29
:104CC0001A3221462846FCF7F9F80FE0564A0E3210
:104CD00021462846FCF76AF808E0534A103221467C
:104CE0002846FCF763F801E00020B2E700BF00BFF0
:104CF000012D01DA092000E028460546092D01DDD5
:104D0000012000E028460546A54201DA284600E0D9
:104D100020460446E81EA04200DD00E02046C4B262
:104D2000AE4202D14C98012823D101200C2320222D
:104D3000194600900620FDF74FFF01200C2320228A
:104D4000192100900620FDF747FF01200C232022A7
:104D5000262100900620FDF73FFF01200C23202292
:104D6000322100900620FDF737FF01A800F05EF821
:104D700000BFA74226D01E20604301A9421801238C
:104D80000D210020FEF719F8601C1E21484301A9DF
:104D9000421801231A210020FEF70FF8A01C1E2143
:104DA000484301A94218012327210020FEF705F8F6
:104DB000E01C1E21484301A9421801233421002090
:104DC000FDF7FBFFA54208D101200C234022194624
:104DD00000900620FDF700FF22E0601C854208D10C
:104DE00001200C234022192100900620FDF7F4FE3B
:104DF00016E0A01C854208D101200C234022262168
:104E000000900620FDF7E8FE0AE0E01C854207D18D
:104E100001200C234022322100900620FDF7DCFE09
:104E2000FDF7B4FE01E7000040FCFF1F38B5044663
:104E3000002000904D2530A1204600F0DFFA3448D4
:104E4000018A6846FDF7BAF86A4632A120461E304C
:104E500000F0D4FA2E48418A6846FDF7AFF86A465A
:104E600032A120463C3000F0C9FA2948818A6846C0
:104E7000FDF7A4F86A4633A120465A3000F0BEFA86
:104E80002348C18A6846FDF799F86A4633A120464F
:104E9000783000F0B3FA1E48C18C6846FDF78EF8F2
:104EA0006A4634A12046963000F0A8FA1848028DD0
:104EB00036A12046B43000F0A1FA1548428D39A140
:104EC0002046D23000F09AFA1148C18B6846FDF7AF
:104ED00075F86A4639A12046F03000F08FFA0C4888
:104EE000018C6846FDF76AF86A463AA12046FF3011
:104EF0000F3000F083FA38BD20203C2020202020F5
:104F0000C9E82020D6C32020202020202000000037
:104F100030FCFF1F202020312E20204C2045204433
:104F20002020202020202573000000002020203297
:104F30002E2020B7E420C3F920C6F72020202573B7
:104F400000000000202020332E2020C0B62020D1D9
:104F5000C0202020202025730000000020202034C5
:104F60002E2020522055204E202020202020257346
:104F700000000000202020352E202050726F746524
:104F8000637420202020257300000000202020369C
:104F90002E202054696D6553746F70202025346471
:104FA00020200000202020372E2020446973205329
:104FB000746F7020202534642020000020202038C9
:104FC0002E202058205820342020202020202573F7
:104FD00000000000202020392E20205820582035A5
:104FE00020202020202025730000000010B504465A
:104FF0008248408C030000F02CFA061D04090E13B1
:10500000181D7FA1204600F0F9F914E082A1204686
:1050100000F0F4F90FE086A1204600F0EFF90AE075
:1050200089A1204600F0EAF905E08DA1204600F0B4
:10503000E5F900E000BF00BF7048408C401E282109
:10504000484340008C490A5A8CA120461E3000F08B
:10505000D5F96A48408C401E28214843401C400036
:1050600085490A5A8BA120463C3000F0C7F96348B5
:10507000408C401E28214843801C40007E490A5A2B
:105080008AA120465A3000F0B9F95C48408C401E95
:1050900028214843C01C400077490A5A89A120466C
:1050A000783000F0ABF95548408C401E2821484329
:1050B000001D400070490A5A88A12046963000F031
:1050C0009DF94E48408C401E28214843401D400019
:1050D00069490A5A87A12046B43000F08FF9474841
:1050E000408C401E28214843801D400062490A5AD6
:1050F00086A12046D23000F081F94048408C401E05
:1051000028214843C01D40005B490A5A85A120461A
:10511000F03000F073F93948408C401E2821484394
:105120000830400054490A5A84A12046FF300F300D
:1051300000F064F93148408C401E2821484340006B
:105140004D490A5A83A12046FF302D3000F056F910
:105150002A48408C401E28214843400046490A5AAC
:1051600082A12046FF304B3000F048F92348408CA4
:10517000401E2821484340003F490A5A81A1204649
:10518000FF30693000F03AF91C48408C401E28215D
:105190004843400038490A5A80A12046FF308730F2
:1051A00000F02CF91548408C401E2821484340004F
:1051B00031490A5A7FA12046FF30A53000F01EF980
:1051C0000E48408C401E2821484340002A490A5A74
:1051D0007EA12046FF30C33000F010F90748408C14
:1051E000401E28214843400023490A5A7DA12046F9
:1051F000FF30E13000F002F910BD000030FCFF1F6D
:1052000020203C20202020B7BD2020B0B82020D274
:10521000BB2020202020000020203C20202020B780
:10522000BD2020B0B82020B6FE2020202020000085
:1052300020203C20202020B7BD2020B0B82020C84E
:10524000FD2020202020000020203C20202020B70E
:10525000BD2020B0B82020CBC4202020202000007A
:1052600020203C20202020B7BD2020B0B82020CE18
:10527000E520202020200000B0FAFF1F2020203150
:105280002E2020C4BFB1EABDC7B6C8202025346493
:1052900020200000202020322E2020C4BFB1EACBE5
:1052A000D9B6C820202534642020000020202033D7
:1052B0002E2020BDC720B6C82050202020253464D1
:1052C00020200000202020342E2020BDC720B6C87A
:1052D0002044202020253464202000002020203578
:1052E0002E2020CBD920B6C8205020202025346481
:1052F00020200000202020362E2020CBD920B6C828
:105300002049202020253464202000002020203740
:105310002E2020D7AA20CFF2205020202025346430
:1053200020200000202020382E2020D7AA20CFF2D5
:105330002044202020253464202000002020203913
:105340002E20204875616E4164642020202534643D
:105350002020000020202031302E207464202020C6
:10536000202020202025346420200000202020310F
:10537000312E205858585858585820202025346429
:105380002020000020202031322E20585858585814
:10539000585820202025346420200000202020316F
:1053A000332E2058585858585858202020253464F7
:1053B0002020000020202031342E205858585858E2
:1053C000585820202025346420200000202020313F
:1053D000352E2058585858585858202020253464C5
:1053E0002020000020202031362E205858585858B0
:1053F0005858202020253464202000000FB410B518
:1054000004A9074B02AA039800F082F9044602A9F6
:10541000002000F019FD204610BC08BC04B018475D
:10542000495E00002021020C01D010211046020A22
:1054300001D010460839020901D01046091F820820
:1054400001D01046891E420801D0881E7047081AF4
:10545000704730B47446641E2578641CAB4204D394
:10546000635D5B00E31830BC18471D46F8E7000099
:105470004900CA020243100000D004204A0D01D0A6
:1054800001221043044A490D914201D102210843EF
:10549000012800D105207047FF070000F8B5044639
:1054A0004F1EC8000838211815461E46086849686E
:1054B0003A4606239A4310D02A463346FBF75AF859
:1054C0003A46D200083AA3181A687F1E5B68FAF7BA
:1054D0009FFF06223B469343EED1022F23D0042F99
:1054E00011D0062F2FD12A463346FBF743F8E36A43
:1054F000A26AFAF78DFF2A463346FBF73BF8636A48
:10550000226AFAF785FF2A463346FBF733F8E36948
:10551000A269FAF77DFF2A463346FBF72BF8636949
:105520002269FAF775FF2A463346FBF723F8E3684A
:10553000A268FAF76DFF2A463346FBF71BF863684B
:105540002268FAF765FFF8BD10B5FAF761FF10BDE4
:10555000002210B5134610461146FBF773F810BD34
:10556000034A10B500201107FBF72FFA10BD000009
:1055700001FDFFFF02E008C8121F08C1002AFAD18E
:105580007047002001E001C1121F002AFBD17047C3
:10559000014908607047000064F1FF1FF0B51FB4B7
:1055A00086B00998089A030D0021024314D051488F
:1055B000514A1818504305141198012810981AD010
:1055C000281A401C00264D4F4D4900960191049029
:1055D000002812DA444211E01198012449A301285D
:1055E00001D11098C1430698119A84600360C2608B
:1055F00041600BB0F0BD4042E4E7044621050020C5
:105600003F4A001C51410391029012E0E00707D08D
:1056100032463B4601990098FAF7ACFF01910090A1
:1056200032463B4610461946FAF7A4FF06460F4697
:105630006410002CEAD10498039B0028029A09996F
:10564000089806DAFAF796FF019B009AFAF792FF9C
:1056500005E0FAF7F7FF019B009AFAF7F3FF04461B
:105660000E460022284BFBF78DF803D80020C043DC
:10567000014607E00022254B20463146FAF7C8FED6
:10568000FBF70AFA102409E0002C0ADB0A220023A7
:10569000FBF7A8F8079B30321A55641E02460A43EE
:1056A000F2D11122641C079B121B1C19119B012BA8
:1056B00003D0012308430ED10AE0084304D011208F
:1056C00010900020119077E71098151A6D1E0BE0CE
:1056D0001098824202DD00236D1C03E0824201DA51
:1056E00000236D1E002BEED0069811998260C160D8
:1056F00030C07EE701FCFFFF104D000000001440A9
:105700000000F03F300000000000F0430000E03FE8
:10571000FFB597B00646002518E2252877D100246A
:105720002746FD49049400E00443761C32780120AA
:10573000203A90400842F7D130782A280ED0022231
:10574000307801463039092916D804990A2359437B
:10575000303940181443761C0490F1E7189802C8B9
:1057600004911890002904DA0120400304434842C0
:10577000049002200443761C30782E2814D1042093
:1057800004437078761C2A2809D11898761C80C8A2
:10579000189009E00A214F43303FC719761C307832
:1057A000014630390929F5D930786C2810D006DC4B
:1057B0004C281AD068280ED06A2817D104E0742823
:1057C00013D07A2812D110E00120400504430CE0E8
:1057D0000121090501E0032109050C43717881428B
:1057E00003D1012000052418761C761C3078119016
:1057F00066280BD013DC58287DD009DC00287BD02C
:105800004528F6D04628F4D047281AD1A5E118E05B
:10581000632835D0642870D0652812D19DE17028A6
:105820006CD008DC6728F1D069287BD06E280DD0B9
:105830006F2806D1BAE073282ED0752871D0782849
:1058400059D01A9A199990476D1C7EE16002400F59
:10585000022809D003280DD00428189801680DD01B
:105860000D60001D189070E11898EA1701680D602E
:105870004A60F6E7189801680D80F2E70D70F0E7CE
:1058800018986A4601781172001D18900020507215
:1058900002A80090012005E0189802C81890002086
:1058A0000091C04361070DD5002101E00199491C19
:1058B0000191B94212DA8142F8DB009A515C002969
:1058C000F4D10BE0002101E00199491C01918142D2
:1058D000FADB019A0099895C0029F5D101990498B5
:1058E0001A9B471A21463846199A00F097FA0199EF
:1058F000401945180BE04FE02CE113E04EE0009812
:1059000000990078491C00911A9A199990470198BA
:10591000401E0190401CF2D1214638461A9B199A2C
:1059200010E137E00A200021009001916002410F50
:10593000022907D0189A01CA1892C217944603295F
:1059400008D00AE01898C01DC108C90005C91891FF
:10595000944607E000B2C2179446042902D140B22F
:10596000C1178C4600226146944506DA0A4600219A
:10597000404291418C462D2102E0210504D52B2186
:105980006A461173012103E0E10701D02021F7E706
:10599000029155E00A200AE0102008E01020009053
:1059A0000021042004430191082703E0082000217E
:1059B000019100906002410F022907D0189A01CA94
:1059C000189200229446032908D008E01898C01DB8
:1059D000C108C90005C91891944603E080B20429A2
:1059E00000D1C0B200210291210729D51199702957
:1059F00006D0009A1021019B4A401A4305D00EE0C0
:105A000040216A461173012108E06146014306D036
:105A100030216A4611731199517302210291009A43
:105A20000821019B4A401A430AD16146014301D132
:105A3000610705D530216A46117301217F1E02914D
:105A40001199582904D035A10E910DA90D910DE0A1
:105A500037A1F9E76146019B009AFAF7C3FE0E9B56
:105A60008C469B5C0D9A521E0D9213706146014349
:105A7000F0D10D9805A9081A20300190600703D5D0
:105A800001200004844300E001270198874201DDE2
:105A9000381A00E000200199009041180298091876
:105AA0000498401A0490E00306D421461A9B199AE0
:105AB000049800F0B3F94519002706E003A81A9AE4
:105AC000C05D199990476D1C7F1C02988742F5DBD9
:105AD000E0030CD521461A9B199A049800F09EF910
