:020000040000FA
:1000000028060020D7000000E3000000E500000003
:1000100000000000000000000000000000000000E0
:10002000000000000000000000000000E7000000E9
:100030000000000000000000E9000000F1030000E3
:10004000ED000000ED000000ED000000ED000000FC
:10005000ED000000ED000000ED000000ED000000EC
:10006000ED000000ED000000ED000000ED000000DC
:10007000ED000000ED000000ED000000ED000000CC
:10008000ED000000ED000000ED000000ED000000BC
:10009000ED000000ED00000029280000D12C000038
:1000A000ED000000ED000000ED000000ED0000009C
:1000B000ED000000ED000000ED000000ED0000008C
:1000C0000348854600F042FD00480047E15100002A
:1000D00028060020704706488047064880470648A3
:1000E0000047FEE7FEE7FEE7FEE7FEE7FEE700006B
:1000F0008D2E0000D5000000C100000030B50B4679
:10010000014600202022012409E00D46D5409D42F1
:1001100005D31D469540491B254695404019154677
:10012000521E002DF1DC30BD70B50024254600289C
:1001300001DA01244042002901DA01254942FFF792
:10014000DDFFAC4200D04042002C00D0494270BDDF
:1001500003460B439B0703D009E008C9121F08C0E0
:10016000042AFAD203E00B780370401C491C521E8B
:10017000F9D27047D2B201E00270401C491EFBD296
:1001800070470022F6E710B513460A4604461946A2
:10019000FFF7F0FF204610BDF8B502464A40D40FE5
:1001A00042004B0052085B089A4202D202460846BF
:1001B00011464A0023D0C30D4A00DDB2120EAD1A1B
:1001C000202D35DA49020126490AF6058A19002C44
:1001D00000D0524220214F1B1146B9402A4110182D
:1001E000C20D9A4221D0002C17D0012D08DCDA056F
:1001F000801AD20F8019D207DBB200F0FBFAF8BDEB
:10020000DA05801A012340001B06C01880185A42E4
:100210008018CA0F1043490007E04908C20711437C
:10022000DA05801A80194008801800F0DBFAF8BD62
:1002300061000122511A001BF7E70122D207514049
:10024000AAE70122D2075040A6E7024670B54A400D
:10025000D30FDB0740002DD04A002AD0010E140E28
:10026000000212020919400A520A8418E5010446E4
:100270005443000A120A2E045043A4194219200CB8
:10028000C543AA18120C0125AD03521C52191204C1
:100290007F39240400D0521C104301D44000491E71
:1002A000C2B20C06C0092018401C4008802A02D0A7
:1002B00003E0002070BD40084000002900DA002063
:1002C000184370BD70B502464A40D50F40004A0041
:1002D000ED0740085208002814D0002A12D0C40D9F
:1002E000D30D41020120C0055202490A520AE41A04
:1002F000091812187D34914201D3641C00E04900B2
:10030000002C01DA002070BD0023914201D3891A2C
:100310000343400849000028F7D100290AD0914240
:1003200002D10121C90705E0914201D2012101E07A
:100330000121C943E005C018401900F053FA70BD0F
:10034000C217C10F504010B54018CA0796230021AC
:1003500000F050FA10BD10B500229623114600F0AF
:1003600049FA10BD0EB5C217C10F5040CA07401858
:100370000021054B0293019200910A460B4600F0C2
:100380007FFA03B000BD0000330400000EB505493C
:100390000291002100910A460B46019100F070FA8B
:1003A00003B000BD33040000C20F4100400201232E
:1003B000400ADB05D207090EC0187F2901DA0020A8
:1003C0007047962903DC9623591AC84001E09639F4
:1003D0008840002AF4D04042704700000122D20732
:1003E000002800DB101A002900DB511A81427047F7
:1003F000704710B5012200F00DFB10BD70470000E2
:10040000FFFFFFFFFFFFFFFFFFFFFFFFFFFFFEFEFE
:10041000F0B507460846584087B0C00F0490480022
:100420000E46590040084908BC1A884105D2384692
:1004300031461E4617460B460246580040081043F8
:100440004CD0300D039040055900400D490D0590EA
:10045000401A0290402872DA18030121000B0905A6
:100460000843019004980092002805D00199524257
:100470000020884100920190029840210A1A0199B7
:10048000009800F07BF905460C466B4607CB00F060
:1004900096F9C0197141039A0E0D0023D7175640E3
:1004A0001A467A40164344D0049A002A2DD0029A64
:1004B000012A039A15DC1205C01A9141012636055E
:1004C000001C7141D20F059ED20700930192029643
:1004D0002A46234600F0D4F907B0F0BD384631462D
:1004E000FAE71605224A0F46B218C01AB741012191
:1004F0000905001C4F4100187F4111461818794129
:10050000E20F10436D19644113E0E2076D081543D3
:100510006408C2071443039A01261205C01A9141C8
:100520003605001C7141CE07400830434908C01809
:1005300051412A46234600F096F9CDE7FFE704989B
:1005400001224000C117121A00238B410498314642
:10055000C417381AA141EEE730B40124E407634020
:1005600030BC55E730B40124E407614030BC4FE7AC
:100570000000E0FFF0B51FB488B00B990998002483
:1005800048400999C00F490049080991C0070B99D3
:100590000090490049080B9109990898A64608431C
:1005A0001CD00B990A98084318D0099801244000E0
:1005B000420D4800410D099824050003000B20431B
:1005C00009900B980003000B20430B9050181C4916
:1005D0004018002201901446104605E00020014614
:1005E0000DB0F0BD032801DA034600E003239C466A
:1005F000C11A0AAE0AE05F0008ADED5B4F00F75B81
:100600007D430027AA187C41491C5B1E6145F2DD31
:10061000410004AB5A522104120C0A43240C401C22
:100620000828DFDB01980290009970460191009044
:10063000059B049A0799069800F022F9D0E700007C
:100640000DFCFFFF410040020122400AD205090EC5
:1006500080187F2901DA00207047962903DC962252
:10066000511AC84070479639884070474A000903BC
:100670000123090B1B051943094B10B5520D9A4272
:1006800001DA002010BD064B34339A4203DC9A1A7B
:1006900000F084F810BD03495118884010BD0000D7
:1006A000FF030000CDFBFFFFC20FD2074000400850
:1006B0000BD0C10D0723DB01C91840020905400A10
:1006C0001143C2084007114370470020014670479C
:1006D000CB0FDB07490010B5490802460A4307D093
:1006E0000A0D07240903E401090B121B002A01DC8F
:1006F000002010BDC900440F0C43C100E018D20512
:10070000801800F06FF810BD0122D207002800DB2E
:10071000101A002900DB511A88427047F0B51FB447
:100720000646002082B005464024019100901BE05F
:10073000019922460F46304600F030F8049A059B96
:10074000801A994110D310461946224600F016F837
:10075000361A8F410197224601200021009F00F0A8
:100760000DF838184D4100902046641E0028DFDC4B
:10077000019B00982946324607B0F0BD10B5202AEB
:1007800004DB0146203A9140002010BD9140202317
:100790009C1A0346E3401943904010BD10B5202A2F
:1007A00004DB0846203AD040002110BD0B46D34060
:1007B000D0402024A21A91400843194610BD10B51C
:1007C000202A06DBCB170846203A1041C1170B43FD
:1007D00006E00B461341D0402024A21A9140084362
:1007E000194610BD002904DA401C490001D1400817
:1007F0004000704770B40024050C05D1102400049B
:1008000002D1002921D01124050E01D100020834A3
:10081000050F01D10001241D850F01D18000A41C0A
:10082000002801DB4000641C002908D020252E1B75
:100830000D46F540A14000D001212943084301069F
:100840001B1B000ADB1D02D5002070BC7047DB05B6
:10085000181880180029F8DA401C4900F5D170BC3E
:1008600040084000704710B5002B08DA0024401CF7
:10087000614192185B411A4301D14008400010BD0C
:10088000F0B51FB482B005460C0003D0084603F053
:1008900037FC02E003F034FC203002460090214691
:1008A0002846FFF76BFF049B059A04460F46184342
:1008B0001143084314D0184610431BD00098402120
:1008C0000A1A18460599FFF769FF05460E46009A71
:1008D00005990498FFF752FF084305D0012004E072
:1008E0002046394607B0F0BD0020C11705430E432E
:1008F0002C43374300990E986305401A7905E40AA2
:1009000000220C43FD0A0A3002D500200146E9E727
:100910000105101969410C9C0D9D00196941FFF7F3
:10092000A2FFDFE7F0B50C465C4085B0E40FE407BA
:1009300003944C0000266408590094464908024676
:100940000296224321D062460A431ED06200570D10
:100950004A000E032303550D012402462C492405A9
:10096000781B1B0B360B401823432643614600902F
:100970001C46501AB44103D30098401C009002E07A
:10098000921800985B41002803DA0020014605B068
:10099000F0BD0020012109050746864611E06446A6
:1009A0001D46141BB54106D36546521BB341744620
:1009B00007430C43A646CD07400849082843921830
:1009C0005B4105460D43EAD11046184313D06046FB
:1009D000194650407140084306D06046101AB34192
:1009E00006D20122002306E000220123DB0702E0F9
:1009F0000122D2435310009874460105381C61410E
:100A0000029C039D00196941FFF72DFFBFE700001D
:100A1000FD03000070B54B005B0803430BD04B0097
:100A20005C0D002633466542B341D417AD1AA3418D
:100A300002DB0020014670BD12053018514170BD27
:100A4000FEB500231A461B1A8A4103DB002001462B
:100A500003B0F0BD4A000D0301212D0B0905520D15
:100A60000D43D10702D100186D41521E5110FF31C4
:100A7000FF310131002704463E4638460097019178
:100A80000246012100200905FFF788FEC3197141C4
:100A9000F818324684468E464A4161462846611A15
:100AA000904104D36046241A954176461F46241986
:100AB00000986D41401C00903428E1DDF919304662
:100AC0007041091BA84103D20022D243134601E022
:100AD0000022134601980105381C7141FFF7C3FE3F
:100AE000B6E700004A0009030123090B1B0519435F
:100AF0000A4B10B5520D9A4202DA0020014610BD91
:100B0000064B34339A4203DC9A1AFFF747FE10BDB6
:100B1000034BD218FFF732FE10BD0000FF030000A8
:100B2000CDFBFFFF10B5002904DB0124E4074042A0
:100B30008C412146002B04DB1C460123DB0752427B
:100B4000A341994200D1904210BD0000064C0125FE
:100B5000064E05E0E36807CC2B430C3C9847103465
:100B6000B442F7D3FFF7B0FAA0350100C035010059
:100B7000F3B581B00C460025002704E0019800F091
:100B80005FF845197F1CA742F8DB21462846FFF78E
:100B9000CBFA0090FFF7D4FB06463046FFF752FD34
:100BA00080B2FEBD15494969012252071143134A1B
:100BB000516113498968124A916011464968516030
:100BC0000021116011460968202211430C4A11606E
:100BD0001146096840221143094A1160114689698A
:100BE0000122824092B21143054A916111468968FF
:100BF00008221143024A91607047000000800440BF
:100C000000B00340014600200C4A1268520952010C
:100C1000CB06DB0E1A43094B1A6000BF074A126865
:100C200080231A40002AF9D0044A126990B2034A7C
:100C300012689A43014B1A607047000000B00340ED
:100C4000F1B50098FFF7DEFF04460098FFF7DAFFE2
:100C500005460098FFF7D6FF0646AC4202DD274660
:100C60002C463D46AE4201DD2F4604E0A64201DDA2
:100C7000374600E027463846F8BD10B50020FFF79C
:100C800091FF0120FFF78EFF0E20FFF78BFF0D2055
:100C9000FFF788FF0C20FFF785FF10BD064840696D
:100CA0000121490208430449486108468068491502
:100CB000084301498860704700F00F40F0B589B0E3
:100CC00005460E461746387844B200BFE1B202A886
:100CD00000F0CEFF00200090A81B401C0D225043C6
:100CE000C1B20C2302AA6C2001F0B2FC00200190DA
:100CF00000F05CFB012806D0022807D0032808D0AA
:100D000004280DD109E0601C44B209E0601E44B221
:100D100006E0012001903C7002E00120019000BF3C
:100D200000BF012C01DD002000E020460446002C1D
:100D300001DA012000E0204604460198012812D182
:100D4000E1B202A800F094FF01200090A81B401C13
:100D50000D225043C1B20C2302AA6C2001F078FC92
:100D600001F07CFB02E001F079FBAFE700BF09B0C6
:100D7000F0BD0000FFB58FB005460E461F460024AB
:100D80001198045F00BF012F13D1224652A107A87A
:100D900003F0A2F900200090A81B401C0D2148433D
:100DA000C0B20C2307AA01460590662001F050FC52
:100DB00023E03846FFF7CFFA02902046FFF7C0FA4B
:100DC00001900299FFF77EFA0390FFF76DFC02464F
:100DD0000B460591049041A107A803F07DF900207E
:100DE0000090A81B401C0D214843C0B20C2307AA49
:100DF00001460590662001F02BFC0020069000F0D3
:100E0000D5FA012806D0022807D0032808D00428E4
:100E10000ED10AE0601C04B20AE0601E04B207E0D2
:100E2000012006901198048002E00120069000BF86
:100E300000BF2C48844200DD00E0204604462948DB
:100E40004042844200DA00E0204604460698012829
:100E50003CD1012F13D122461FA107A803F03CF972
:100E600001200090A81B401C0D214843C0B20C2358
:100E700007AA01460590662001F0EAFB23E0384608
:100E8000FFF769FA02902046FFF75AFA019002999B
:100E9000FFF718FA0390FFF707FC02460B4605918F
:100EA00004900EA107A803F017F901200090A81BD9
:100EB000401C0D214843C0B20C2307AA01460590EF
:100EC000662001F0C5FB01F0C9FA02E001F0C6FAA4
:100ED00059E700BF13B0F0BD2534640025312E3230
:100EE00066000000E703000070B5054601F0A4F9B4
:100EF0002C4627E023484068012149020843214944
:100F00004860322000F02AF91E4880680121490219
:100F100008431C49886020463030C2B201230021BA
:100F2000282001F03FFB01F099FA012C04D119208F
:100F3000400100F013F903E0134800F00FF900BF7F
:100F4000601EC4B2002CD5D10E4840680121490270
:100F500008430C494860FF202D3000F0FFF8094895
:100F600080680121490208430649886001F076FA49
:100F700004484030C0680121084302494031C8603C
:100F800070BD000000F00F40B6030000F0B585B062
:100F9000002500260027002003900290019064495C
:100FA000085E6449086062490220085E6249086080
:100FB0005F490420085E614908606149485F6149F2
:100FC00008605F490220085E5F4908605C490420B0
:100FD000085E5E49086000240DE0A00055490858ED
:100FE0004519A000544908588619A00053490858CB
:100FF000C719601CC4B2012CEFDB002413E0A00071
:1010000050490958039808180390A0004E49095800
:10101000029808180290A0004C4909580198081835
:101020000190601CC4B2012CE9DB2846FFF788F967
:101030008D21C9050090FFF745F945490860304604
:10104000FFF77EF98D21C9050090FFF73BF9404974
:1010500048603846FFF774F98D21C9050090FFF705
:1010600031F93B4988600398FFF76AF939490090E4
:10107000FFF728F9384908600298FFF761F9354908
:101080000090FFF71FF9344948600198FFF758F9BD
:1010900030490090FFF716F92F49886000241FE0BF
:1010A0000020C043001B800022490858614289008B
:1010B000204A50500020C043001B80001E490858A1
:1010C000614289001C4A50500020C043001B800030
:1010D0001A49085861428900184A5050601CC4B22D
:1010E000002CDDDB00241FE00020C043001B80003B
:1010F0001449085861428900124A50500020C043E8
:10110000001B800010490858614289000E4A505067
:101110000020C043001B80000C4908586142890030
:101120000A4A5050601CC4B2002CDDDB05B0F0BD93
:10113000ACF0FF1FF4F0FF1FF8F0FF1FFCF0FF1FE3
:10114000A0F0FF1F00F1FF1F04F1FF1F08F1FF1FB8
:1011500084F5FF1F3333834178F5FF1F10B5034635
:1011600000240DE0084800F011F800BF00BF00BFE8
:1011700000BF00BF00BF00BF00BF00BF601C84B243
:101180009C42EFD310BD0000E7030000002123E0E4
:1011900000BF00BF00BF00BF00BF00BF00BF00BF57
:1011A00000BF00BF00BF00BF00BF00BF00BF00BF47
:1011B00000BF00BF00BF00BF00BF00BF00BF00BF37
:1011C00000BF00BF00BF00BF00BF00BF00BF00BF27
:1011D00000BF00BF4A1C91B242008A42D8D8704773
:1011E00010B5002003F0ECFD012003F0E9FD1448E8
:1011F0008069012189028843114988610846406954
:10120000091588430E4948610E488068091508434E
:101210000C4988600A484030806920218843084989
:1012200040318861084640692021884304494031A3
:1012300048610448C068202108430249C86010BDC5
:1012400000F00F400090044010B58300034CE358B9
:101250000C33CC001B195A6010BD0000343501005E
:1012600070B5044600222146682004F017F90546AF
:10127000601CC1B20022682004F010F90646280262
:10128000304300B270BD0000F0B589B02D498868C8
:101290008D21C905FEF7D9FF2A49079048688D219D
:1012A000C905FEF7D2FF2749069008688D21C905B8
:1012B000FEF7CBFF244905908868FFF7F5F906464D
:1012C000224A234BFFF756F903225207214B019183
:1012D0000090FFF74FF90446FFF7FAF91A49049016
:1012E0004868FFF7E1F90446184A194BFFF742F93D
:1012F000064603225207174BFFF73CF90191009075
:10130000FFF7E6F9104903900868FFF7CDF90446A6
:101310000E4A0F4BFFF72EF9032252070D4B019196
:101320000090FFF727F90646FFF7D2F902900799D8
:1013300006980191009002A80FC800F061FA09B068
:10134000F0BD000084F5FF1F78F5FF1F2877442AC1
:101350003174513F6666304010B504460C2C1ED0E7
:1013600004DC002C07D0012C1ED109E00D2C11D07B
:101370000E2C19D109E003210020FFF7F9FB10BD65
:1013800003210120FFF7F4FBF9E703210E20FFF70B
:10139000EFFBF4E703210D20FFF7EAFBEFE7C8219D
:1013A0000C20FFF7E5FBEAE700BFE8E7FEB5002009
:1013B00001908F48006980210840002843D18D4862
:1013C0000078FFF7CBFE8A4800698021084000289A
:1013D00036D189480088401C874908800846008823
:1013E000322803DD01208349087016E08248008816
:1013F0000C2803DD0A207F4908700EE07E48008833
:10140000062803DD1E207B49087006E07A48008824
:10141000032802DD322077490870012001907448CA
:101420004068012149020843714948600220FFF7E2
:1014300095FE6F4880680121490208436C49886025
:1014400068460079FEBD6A480069402108400028CE
:1014500043D168480078FFF781FE65480069402164
:101460000840002836D164480088401C6249088042
:1014700008460088322803DD01205E49087016E026
:101480005D4800880C2803DD0A205A4908700EE0E8
:1014900059480088062803DD1E205649087006E0DA
:1014A00055480088032802DD322052490870022086
:1014B00001904F4840680121490208434C49486067
:1014C0000220FFF74BFE4A48806801214902084389
:1014D0004749886068460079B4E74548403000696C
:1014E0001021084000282AD142480078FEF74EFF1C
:1014F0000446424A424BFFF73DF80646FFF7B6F86E
:101500000090FFF72BFE3A48403000691021084058
:10151000002811D1364840684901084334494860E1
:101520000220FFF71BFE3248806801214902084370
:101530002F498860032001906846007982E72C4893
:1015400040300069012189020840002820D1294843
:101550000078FFF703FE2648403000690121890228
:101560000840002811D1224840684910084320490A
:1015700048600220FFF7F2FD1D4880680121490202
:1015800008431B498860042001906846007959E7A8
:1015900017484030006901214902084000281FD146
:1015A00014480078FFF7DAFD114840300069012146
:1015B00049020840002810D10D48406808430C49F2
:1015C00048600220FFF7CAFD0948806801214902EE
:1015D000084307498860052001906846007931E793
:1015E00046200449087000200349088000BF29E70D
:1015F00000F00F4002F0FF1F00F0FF1F9A99999929
:101600009999F13F10B504462848406908210843DC
:1016100026494861084680680821084323498860B4
:10162000084640690421084320494861084640684B
:10163000042108431D494860002C0CD0084640692D
:101640000421084319494861084680680421084379
:10165000164988600BE01548406904210843134986
:101660004861084640680421084310494860012049
:10167000FFF78CFD0D484069082108430B4948617C
:101680000846406808210843084948600120FFF7E0
:101690007DFD064840690821084304494861084621
:1016A0008068082108430149886010BD00F00F40A0
:1016B0000C484069082108430A49486108464068C7
:1016C0000821084307494860084640690421084347
:1016D00004494861084640680421084301494860BC
:1016E0007047000000F00F4010B521484069042108
:1016F00008431F49486108464068042108431C49C3
:101700004860084640690421084319494861084671
:10171000406804210843164948600846406908218A
:1017200008431349486108464068082108431049A6
:1017300048600220FFF72AFD0D4840690421084354
:101740000B494861084680680421084308498860BD
:101750000220FFF71BFD06484069082108430449A1
:10176000486108468068082108430149886010BD27
:1017700000F00F4010B521484069042108431F497B
:10178000486108464068042108431C4948600846EF
:1017900040690821084319494861084680680821C2
:1017A00008431649886008464069042108431349E4
:1017B0004861084680680421084310498860022077
:1017C000FFF7E4FC0D484069082108430B494861D4
:1017D00008464068082108430849486008464069AF
:1017E000042108430549486108464068042108432C
:1017F000024948600220FFF7C9FC10BD00F00F400D
:10180000FFB59BB0054616461C46249FFE4801685E
:101810000068FEF71AFD1390FC480168FA4800685A
:10182000FEF713FD1290FA480168F7480068FEF7CA
:101830000CFD1190F54801680068FEF706FD109058
:10184000F4480168F1480068FEF7FFFC0F90F0488B
:1018500001680068FEF7F9FC0E90EE480168EC485C
:101860000068FEF7F2FC0D90EA4801680068FEF798
:10187000ECFC0C9025990846FEF7E7FC39460690EB
:101880003846FEF7E2FC214604902046FEF7DDFCD8
:1018900003900499FEF780FC05900699FEF77CFC06
:1018A0000790FEF701FF0991089003F02BFE0B91C2
:1018B0000A90FEF70DFF1A9020461A99FEF702FDD6
:1018C000044638461A99FEF7FDFC07461A992598F2
:1018D000FEF7F8FC259011990F98FEF7AEFC012158
:1018E00089070B90FEF7B1FC19900D991298FEF73D
:1018F00053FC012189070B90FEF7A7FC1890109963
:101900001398FEF79AFC0A900E99FEF796FC0B903E
:101910000C99FEF741FC179018992598FEF795FC55
:101920000B9038461799FEF790FC0A900B99FEF73A
:1019300084FC169020461799FEF787FC0B901999A6
:101940002598FEF782FC0A900B99FEF776FC15901D
:1019500038461999FEF779FC0B9020461899FEF746
:1019600074FC0A900B99FEF768FC1490AA4916982B
:10197000FEF76BFC0B90A94801680B98FEF70CFC76
:10198000A6490860A4491598FEF75FFC0B90A4488F
:1019900001680B98FEF700FCA14908609E49149865
:1019A000FEF753FC0B909F4801680B98FEF7F4FB81
:1019B0009C4908609C481699FEF747FC29460A9006
:1019C000FEF7EAFB0B90954801680B98FEF7E4FBE5
:1019D000054695481599FEF738FC0A901C99FEF7C4
:1019E000DBFB0B908E4801680B98FEF7D5FB1C9033
:1019F0008D481499FEF729FC31460A90FEF7CCFB7E
:101A00000B90884801680B98FEF7C6FB06463146E6
:101A100080480068FEF719FC09907D481C99006811
:101A2000FEF713FC0790794800680121C907484078
:101A300029460590FEF709FC06900799FEF7FDFB85
:101A400008900999FEF7F9FB78490A90FEF7FDFB2B
:101A50000B906D4801680B98FEF79EFB6A49086081
:101A60006C481C990068FEF7F0FB31460990684805
:101A70000068FEF7EAFB0790634801682846FEF716
:101A8000E4FB06900799FEF787FB08900999FEF79B
:101A9000D4FB66490A90FEF7D8FB0B905B480168BF
:101AA0000B98FEF779FB594908605A4801682846A7
:101AB000FEF7CBFB3146099054480068FEF7C5FBA2
:101AC000079051481C990068FEF7BFFB06900799E4
:101AD000FEF7B3FB08900999FEF75EFB53490A90A5
:101AE000FEF7B3FB0B904A4801680B98FEF754FBD6
:101AF00047490860084601682846FEF7A6FB09909A
:101B000042481C990068FEF7A0FB314607903E480A
:101B10000068FEF79AFB06900799FEF73DFB0890D8
:101B20000999FEF78AFB41490A90FEF78EFB0B905C
:101B3000384801680B98FEF72FFB364908600846C5
:101B400001680068FEF781FB069031480168006873
:101B5000FEF77BFB04902D4801680068FEF775FBDB
:101B60000290294801680068FEF76FFB0190029916
:101B7000FEF712FB03900499FEF70EFB0590069901
:101B8000FEF70AFB0790FEF78FFD0991089003F01E
:101B9000B9FC0B910A90FEF79BFD1A901A481A990E
:101BA0000068FEF78FFB1849086018481A9900680A
:101BB000FEF788FB1549086015481A990068FEF77A
:101BC00081FB1349086013481A990068FEF77AFBF5
:101BD000104908600C48016801208007FEF735FBBA
:101BE00002900B4801680298FEF72FFB049007480B
:101BF000016803208007FEF728FB02900548016872
:101C00000298FEF722FB13E0D8F0FF1FDCF0FF1F65
:101C1000E0F0FF1FE4F0FF1F6F12833AE8F0FF1FB0
:101C2000ECF0FF1FF0F0FF1FCDCCCC3F0AD7A33B59
:101C300003900499FEF7B0FA0590FEF735FD079181
:101C4000069002F071FF074A074B09910890FEF7D2
:101C500091FC0B910A90FEF73BFD044908601FB010
:101C6000F0BD00006666666666A64C4094F0FF1FF5
:101C700070B505460C46002C02D0012C0AD104E0B8
:101C800008A1284602F028FA09E007A1284602F038
:101C900023FA04E005A1284602F01EFA00BF00BFA7
:101CA00070BD00004F4646004F4E20003F3F3F00B2
:101CB00010B5162001218140464A116000BF00F096
:101CC000BBFA454840680121C907084342494860BA
:101CD000084640680121490408433F49486077E0CD
:101CE0003D48403080680121090408433A494031A9
:101CF0008860FFF75BFB394A0021515EFF22C33247
:101D0000914201DD012100E000210843334A002116
:101D1000515E334A914201DA012100E0002108437B
:101D2000002800D129E0002211460220FFF78CFA9A
:101D3000002205210220FFF787FA0022022108462F
:101D4000FFF782FA002203210220FFF77DFA2248E2
:101D500080680121C90708431F49886008468068D8
:101D60000121490408431C4988601E48C0680121BC
:101D700008431C49C860002010BD00BF174900205F
:101D8000085EFEF7DDFA1849086018490020085E71
:101D9000FEF7D6FA1449486015480068886015486F
:101DA0000088FEF7D8FA1049C86013480088FEF78B
:101DB000D2FA0D4908610F4909880F4A1288881A1A
:101DC000FEF7BEFA0849486101F01EF801F028F854
:101DD00086E7000000E100E000F00F4074F0FF1F14
:101DE0003EFEFFFF0071034028F5FF1F76F0FF1F46
:101DF00094F0FF1F68F0FF1F6AF0FF1F31488069F1
:101E0000802188432F4988610846406980218843A2
:101E10002C4948612C488068802108432A49886001
:101E200028488069402188432649886108464069DE
:101E30004021884323494861234880684021084362
:101E4000214988601F4840308069102188431D491E
:101E50004031886108464069102188431949403162
:101E600048611948C068102108431749C8601548DF
:101E7000403080690915884312494031886108461D
:101E80004069091588430F49403148610E48C068D0
:101E9000091508430C49C8600A4840308069491553
:101EA000884308494031886108464069491588439C
:101EB0000449403148610448C06849150843024953
:101EC000C860704700F00F4000900440134840691C
:101ED000012108431149486108464068012108432F
:101EE0000E494860084640690121090408430B492E
:101EF00048610846406801210904084307494860D1
:101F00000846406902210843044948610846406880
:101F100002210843014948607047000040F00F402B
:101F200070B504460D4621480078002824D03B2097
:101F3000FFF796F928803D20FFF792F968803F204F
:101F4000FFF78EF9A8804320FFF78AF9184909881E
:101F5000401A00B220804520FFF782F914494988D1
:101F6000401A00B260804720FFF77AF9104989884B
:101F7000401A00B2A08017E03B20FFF771F92880DB
:101F80003D20FFF76DF968803F20FFF769F9A880D1
:101F90004320FFF765F920804520FFF761F9608055
:101FA0004720FFF75DF9A08070BD0000D4F0FF1F4F
:101FB000A6F0FF1F10B50A20FFF7D0F880226B2192
:101FC000682003F08BFA0A20FFF7C8F800226B2183
:101FD000682003F083FA0A20FFF7C0F801226B2182
:101FE000682003F07BFA0A20FFF7B8F818221B21BB
:101FF000682003F073FA0A20FFF7B0F800221C21D2
:10200000682003F06BFA0A20FFF7A8F800221921D4
:10201000682003F063FA0A20FFF7A0F801221A21D2
:10202000682003F05BFA6420FFF798F8002275211E
:10203000682003F033FA682809D10A20FFF78EF8E8
:1020400000F008F80A20FFF789F8002010BD0120F1
:10205000FCE700003EB53225002000900190029080
:102060001C49088048808880002418E01A491B48D1
:10207000FFF756FF0120FFF771F8184900228A5E2A
:1020800000988018009002228A5E019880180190C2
:1020900004228A5E029880180290601CC4B2AC428E
:1020A000E4DB29460098FEF73FF800B209490880B2
:1020B00029460198FEF738F800B2064948802946BB
:1020C0000298FEF731F800B20249888001200449E5
:1020D00008703EBDA6F0FF1FACF0FF1FA0F0FF1F71
:1020E000D4F0FF1F10B50023194A0321022002F08B
:1020F000F9FE0023164A0221084602F0F3FE1548B5
:1021000040690121C90708431249486108468068AF
:10211000C90408430F49886000230D4A194602206C
:1021200002F0E0FE00230A4A0521022002F0DAFE56
:1021300008484069012149040843064948610846A6
:1021400080680121490408430249886010BD0000ED
:10215000D430000000F00F4010B5044622460321A1
:102160000220FFF771F8012202210846FFF76CF800
:1021700010BD10B50446012203210220FFF764F8C8
:10218000224602210846FFF75FF810BD10B504464D
:10219000224600210220FFF757F8012205210220E4
:1021A000FFF752F810BD10B50446012200210220AD
:1021B000FFF74AF8224605210220FFF745F810BD37
:1021C00010B5002819DA1A4A03071B0F083B9B08B1
:1021D0009B00D2588307DC0EFF23A3409A438B0752
:1021E0001B0E8407E40EA3401A43114B0407240F6F
:1021F000083CA408A4001A5118E00E4A03231B024D
:10220000D21883089B00D2588307DC0EFF23A3401B
:102210009A438B071B0E8407E40EA3401A43054B19
:10222000032424021B198408A4001A5110BD0000C5
:102230001CED00E000E100E010B500200CE0002102
:1022400006E00022CB00064C1B191A544A1CD1B2DE
:102250008029F6DB411CC8B20828F0DB10BD000065
:1022600010F1FF1FF7B57F2801DC3F2900DDFEBD1F
:102270000C46CE17760F3619F6100727BE1BF2B2A2
:10228000CE17760F3619F610F6008E1BF5B207241E
:10229000661B0124B440E3B2029C002C09D0C400A8
:1022A000094EA419A45C1C43C600074FF619B45488
:1022B00008E0C400044EA419A45C9C43C600024F6D
:1022C000F619B45400BFD2E710F1FF1F00B5624801
:1022D00040690121C90608435F49486108464068D2
:1022E0000121C90608435C4948600846406901214C
:1022F0008906084358494861084640680121890613
:10230000084355494860544840304069891508439E
:1023100051494031486108464068891508434E4993
:10232000403148604C484069890508434A49486142
:1023300008464068012109070843474948600846A4
:10234000406801210907084343494860424840303A
:102350008068891508434049403188607D204001EC
:1023600007E0642101E04A1E91B20029FBDC411E16
:1023700088B20028F5DC384840304068FF21013140
:1023800008433549403148600021AE2000F002FA90
:102390000021D52000F0FEF90021802000F0FAF99C
:1023A0000021A82000F0F6F900213F2000F0F2F90A
:1023B0000021D32000F0EEF90021084600F0EAF9F0
:1023C0000021402000F0E6F900218D2000F0E2F924
:1023D0000021142000F0DEF90021202000F0DAF9BD
:1023E0000021022000F0D6F90021A12000F0D2F94E
:1023F0000021C02000F0CEF90021DA2000F0CAF957
:102400000021122000F0C6F90021812000F0C2F95D
:102410000021EF2000F0BEF90021D92000F0BAF928
:102420000021F12000F0B6F90021DB2000F0B2F924
:102430000021302000F0AEF90021A42000F0AAF91C
:102440000021A62000F0A6F90021AF2000F0A2F99B
:10245000FFF7F2FE00BD000000F00F4030B5002491
:102460001CE02146B031C8B2002100F093F90021F0
:10247000084600F08FF90021102000F08BF90025AC
:1024800008E0E900074A8918085D012100F082F997
:10249000681CC5B2802DF4DB601CC4B2082CE0DBE4
:1024A00030BD000010F1FF1FFFB584B00E46154689
:1024B0001C4602962046E3175B0F1B18DB102246D2
:1024C000E7177F0FBF18FF10FF00E71B01D00127A0
:1024D00000E00027DB192146E70F7F187F107B43C0
:1024E000DBB2019328462038C5B200274FE00C2C00
:1024F00004D0102C09D0182C14D10CE00C20684307
:1025000025494018C05D03900DE02801234940187B
:10251000C05D039007E02420684321494018C05D56
:10252000039000E000BF00BF0020009029E0802160
:1025300003980840002805D031460D9A0498FFF70B
:1025400091FE0AE00D98002801D1012000E0002052
:10255000024631460498FFF785FE03984006000EB8
:102560000390701CC6B20298301AA04205D1029E98
:102570000498401CC0B2049006E00098401CC0B211
:10258000009000980828D2DB00BF781CC7B20198E1
:102590008742ACDB08B0F0BD341C0100A82001006C
:1025A00098260100FFB581B00646002407E02548C3
:1025B000015D0398814200D103E0601CC4B2092C84
:1025C000F5DB00BF0394002438E000272BE0FF2157
:1025D0008131039848431C49411806206043C019C3
:1025E000085C009000251AE01848405D00990840FA
:1025F000002805D03046049A0299FFF733FE0AE01E
:102600000498002801D1012000E000200246304655
:102610000299FFF727FE701CC6B2681CC5B2082DD0
:10262000E2DB781CC7B2062FD1DB0298401CC0B297
:10263000029030463038C6B2601CC4B2402CC4DBB5
:1026400005B0F0BD4C550000C8EB0000F4330100AC
:10265000FFB581B0064614461D460A9F0DE000975F
:1026600022782B4630460299FFF71EFF2846E90FD5
:10267000091849108919CEB2641C20787E2802DC22
:1026800020782028EBDA05B0F0BDF8B505460F46F6
:1026900014461E461FE02078002800D11CE0207858
:1026A0007E280DDC207820280ADB009622780C2377
:1026B00039462846FFF7F8FEA81DC5B2641C0AE09B
:1026C0000096637822783946284600F007F82846B5
:1026D0000C30C5B2A41CDEE700BFF8BDFFB581B069
:1026E000064600240DE02848015D0398814206D18A
:1026F0002549601C095C0498814200D103E0A01CBC
:10270000C4B2642CEFDB00BF0394002437E0002741
:102710002AE0FF218131039848431C494018610099
:10272000C919405C009000251AE01948405D0099E5
:102730000840002805D030460A9A0299FFF792FD1A
:102740000AE00A98002801D1012000E0002002469A
:1027500030460299FFF786FD701CC6B2681CC5B2F0
:10276000082DE2DB781CC7B2022FD2DB0298401C96
:10277000C0B2029030461038C6B2601CC4B20C2CF5
:10278000C5DB05B0F0BD000064550000C855000071
:10279000F433010010B5002902D0012910D107E05F
:1027A000204A926801231B071A431E4B9A6007E0D8
:1027B0001C4A526801231B071A431A4B5A6000BF78
:1027C00000BF002224E0174B9B680124E40623434A
:1027D000144CA36080230340002B07D023465B6882
:1027E0000124A40623430F4C636006E00D4B9B6855
:1027F0000124A40623430B4CA3600A4B5B6801240D
:10280000E4062343074C63604306180E531CDAB2F8
:10281000082AD8DB034A526801231B071A43014BDD
:102820005A6010BD00F00F40F0B593B0F748C06893
:1028300001210843F549C860F549F648FFF770FBE8
:10284000FEF7A4FBFEF720FDF3490420085E0A21F1
:10285000FDF76AFC1190FDF773FD0746EF484168EC
:102860003846FDF7F2FC0546EB491E20085EFDF7F1
:1028700067FD1090EA4801681098FDF7E2FC0746F2
:10288000E5490020085EFDF75BFD39461190FDF734
:10289000DCFC06462946FDF77FFC0446FDF784FD77
:1028A000E0490860E04800690121890208400028E9
:1028B00003D102F07BFA404202E0002002F076FAF7
:1028C00000B2DA490880D848403000692021084029
:1028D000002803D1012002F069FA03E0012002F090
:1028E00065FA404200B2D2490880D04A0021515EC8
:1028F000CF4A0023D35EC818C10F09184A10C64931
:10290000098C891A09B2CB4A11800020CA49086093
:10291000CA48C088C949088108468088C8800846D6
:102920004088888008460088488011460020085E5C
:10293000C24908800020085E02228A5E80180422B4
:102940008A5E801806228A5E801808228A5E8018B5
:10295000BB490860B0490C228A5EB94909684A43FC
:1029600010466421FDF7E0FBAB4A0A21515EB14AF3
:102970000023D35E5A4251434018B24908600020F8
:1029800002F00CFA012002F009FAA34A1E21515E5E
:10299000C81CFDF7D5FC0446A14801682046FDF798
:1029A0001DFD0FD29C4A1E21515EC81EFDF7C8FCBA
:1029B00004469B4801682046FDF7A6FE02D200208F
:1029C000A04908600020FEF7C7FC0646FDF7C3FCDF
:1029D000054629469C4802F0A7FB0446FDF732FE57
:1029E0009A4908800120FEF7B7FC0646FDF7B3FCC4
:1029F0000546294694481C3002F096FB0446FDF734
:102A000021FE9349088093490020085E924908807E
:102A10008F4800888D490988401A00B28D49088086
:102A20000020085EFDF79EFC04468C4A8C4BFDF7A7
:102A3000A1FD0D910C9087490020085EFDF792FCE6
:102A400004460D4683490020085EFDF78BFC0646D0
:102A5000844A854BFDF78EFD22462B460591049056
:102A6000FDF788FD099108907A490020085EFDF77E
:102A700079FC0591049077490020085EFDF772FC0F
:102A800004460D4673490020085EFDF76BFC0646C0
:102A9000764A774BFDF76EFD22462B46019100905A
:102AA000FDF768FD03910290059B049AFDF762FD16
:102AB00007910690099B089AFDF7AAFC0B910A90D2
:102AC0000D9B0C9AFDF7A4FC6A4A6B4B0F910E907C
:102AD000FDF742FD11911090FDF7FAFD674908607E
:102AE0005B480088FA280CDA584800887321C9002E
:102AF000884206DA55480088FA2802DD60485F49B6
:102B0000086053480088FF21913188420EDD50480B
:102B100000887321C900884208DA4C480088FF21E8
:102B20009131884202DA574854490860494A0021E5
:102B3000515E494A0023D35EC91A374A1823D35E2F
:102B400059430846FDF7FCFB064633491420085E4E
:102B5000FDF7F6FB0746494801683846FDF775FB67
:102B600005463146FDF718FB0446FDF71DFC4649B6
:102B700008602C48006833490968401842490968D0
:102B8000401A42490860274800682E4909684018E1
:102B90003D49096840183E4908603C4800680028E3
:102BA00011DA3A480068404238490860084600682F
:102BB0003849884202DB08463449086033480068D7
:102BC000FFF7D7FA0BE0314800683249884202DB50
:102BD00008462E4908602D480068FFF7BDFA2C48CA
:102BE0000068002858DA2A480068404228490860EE
:102BF000084600682749884202DB084624490860E5
:102C000023480068FFF7CFFA52E00000007103404C
:102C1000ACF0FF1FA0F0FF1F04F0FF1F78F5FF1FAF
:102C200094F0FF1F54F0FF1F00F00F4074F0FF1FDF
:102C300076F0FF1F78F0FF1F84F0FF1F10F5FF1FD5
:102C40007CF0FF1F58F0FF1FB4F5FF1F6AF0FF1F55
:102C500068F0FF1F70F0FF1F72F0FF1FD4B7CCE9C0
:102C6000B298883F1C0CD01154E8C7BE9FB7BB4E2A
:102C7000D6A8353EB115342DB1327A3F88F0FF1F0A
:102C8000000050C1000050415CF0FF1F60F0FF1FCA
:102C900064F0FF1F4E0C00000A4800680A49884291
:102CA00002DB08460749086006480068FFF76EFA2D
:102CB000064840680121090408430449486013B0EC
:102CC000F0BD000064F0FF1F4E0C000040F00F400C
:102CD0000348C169012001430148C16170470000F8
:102CE0000071034070B504460D4616461F48406902
:102CF000022108431D4948611D480068022188439C
:102D00001B49086020461630C206D20E01219140B0
:102D1000184A116000BF18486843184922018850BA
:102D20000846210140188068022108431349220106
:102D300089188860114821014018816801200143E9
:102D40000E482201801881602146163148B2314672
:102D5000FFF736FA20461630C206D20E0121914006
:102D6000044A803A116000BF70BD0000008004403A
:102D70000070034080E100E0409C000000710340CF
:102D800010B500241E488069042188431C498861CD
:102D900008464069042188431949486119488068F8
:102DA00004210843174988601548406908210843F1
:102DB00013494861084640680821084310494860A3
:102DC0000020FEF7E3F907E0601CC4B2FA2C03DD33
:102DD000FEF7D0FC012010BD09480069042108401D
:102DE0000028F1D106484069082108430449486198
:102DF0000846806808210843014988600020EAE706
:102E000000F00F400090044010B5552002F086FA03
:102E1000AA2002F083FAAE2002F080FA10BD000072
:102E2000F8B50026002000900625552002F076FA1D
:102E3000AA2002F073FAAD2002F070FA284602F0E0
:102E40006DFA002419E0A0000F4908580090684668
:102E50000678304602F062FA68464678304602F05C
:102E60005DFA68468678304602F058FA6846C678B9
:102E7000304602F053FA601CC4B2AC42E3DB0D20D2
:102E800002F04CFAF8BD000028F5FF1F1349144A60
:102E900091800121517023211170112000050146FC
:102EA000104A5162104949780907090F0E4A5170BA
:102EB00094210E4A11701A210B4A117000BF0A4961
:102EC0000979102211400029F9D100BF064909797A
:102ED0000C2211400029F9D17047000003E80000DE
:102EE000002005400080044000400640005006409D
:102EF000F3B581B00646B00049490C58002E04D005
:102F0000012E22D0022E62D140E04648C0688021C6
:102F100088434449C86008464069012109050843BF
:102F2000404948614048C078082108433E49C8707C
:102F30000846C078042108433B49C8700846C07859
:102F4000202108433849C87000BF36480069012174
:102F5000090388433349086108464069012149054E
:102F60000843304948613148C078082108432F4957
:102F7000C8700846C078042108432C49C870084628
:102F8000C078202108432949C87021E025480069FC
:102F9000012149038843234908610846406901210A
:102FA000890508431F4948612148C0780821084322
:102FB0001F49C8700846C078042108431C49C870DE
:102FC0000846C078202108431949C87000E000BFB6
:102FD00000BFE0780C218843E0700020A070154805
:102FE0000299FDF78BF8471D0A213846FDF786F850
:102FF00085B21148854200DD054620784009400130
:1030000020702078E904C90E084320706570002004
:10301000A070A0716071E0780C210843E070FEBDE3
:10302000283501000080044000A0064000B00640A2
:1030300000C0064040787D01FF1F000030B5024609
:103040000B4690000B4D2C58002108E0207980257C
:103050002840002801D0E37104E0481CC1B20648B2
:103060008142F3DB00BF0448814201DB012030BD17
:103070000020FCE728350100BBFB0000F0B5CDB017
:103080000125002601240027FFF7D6F8FF222D3264
:10309000774902A8FDF75CF8012302AA002108463F
:1030A000FFF7F3FA1E20604302A9421801230D2105
:1030B0000020FFF7EAFA601C1E21484302A94218CB
:1030C00001231A210020FFF7E0FAA01C1E2148432B
:1030D00002A94218012327210020FFF7D6FAE01C9D
:1030E0001E21484302A94218012334210020FFF782
:1030F000CCFA00BF2E462746FEF758F9012806D025
:10310000022807D003280BD004281CD105E0681E34
:10311000C5B218E0681CC5B215E000204DB0F0BD86
:10312000012D06D0022D06D0032D06D0042D08D186
:1031300005E01F20F2E72020F0E72120EEE7222023
:10314000ECE70020EAE700BF012D01DA092000E0EA
:1031500028460546092D01DD012000E028460546E8
:10316000A54201DA284600E020460446E81EA042B7
:1031700000DD00E02046C4B2AE421FD001200C2387
:103180002022194600901846FFF78EF901200C23E3
:103190002022192100901846FFF786F901200C2300
:1031A0002022262100901846FFF77EF901200C23EB
:1031B0002022322100901846FFF776F9A74226D048
:1031C0001E20604302A9421801230D210020FFF7B1
:1031D0005CFA601C1E21484302A9421801231A21EF
:1031E0000020FFF752FAA01C1E21484302A94218F2
:1031F000012327210020FFF748FAE01C1E21484345
:1032000002A94218012334210020FFF73EFAA5420B
:1032100008D101200C234022194600901846FFF7E0
:1032200043F922E0601C854208D101200C23402292
:10323000192100901846FFF737F916E0A01C8542C7
:1032400008D101200C234022262100901846FFF7C8
:103250002BF90AE0E01C854207D101200C23402213
:10326000322100901846FFF71FF9FFF7F7F841E702
:10327000FC33010038B50124FEF7DEFF00BF01205A
:103280000C231BA2002100900620FFF7E1F9204645
:103290003030C2B2012300212820FFF783F9FEF766
:1032A00085F8030000F043FF061304070A10121309
:1032B000601C44B20BE0601E44B208E0E0B2FDF7CF
:1032C00013FEFEF7F5FC00BF002038BD00BF00BFB5
:1032D000052C01DB052000E020460446002C01DC23
:1032E000002000E020460446FFF7B8F8C7E70000DA
:1032F0003C00000070B58AB00026FEF79DFF012358
:1033000018A200210846FFF7C0F900BFFEF74EF8EB
:10331000042802D103200AB070BD18480068FDF7E8
:10332000C3F9044622460B4615A102A800F0D4FEBC
:1033300001200C2302AA142100900020FFF788F935
:1033400014480222825E14A102A800F0C5FE0120EA
:103350000C2302AA212100900020FFF779F9FFF742
:103360007DF8D3E7203C20202020CDD32020C2DDD3
:103370002020D2C7202020202020000094F0FF1F12
:1033800050495443483A2025332E326620202020CD
:1033900000000000A0F0FF1F475F593A2025356468
:1033A00020202020000000001CB5012001900024F6
:1033B000FEF742FF01235AA200210846FFF765F9F4
:1033C00001235DA20D210020FFF75FF9012360A218
:1033D0001A210020FFF759F9012363A227210020B9
:1033E000FFF753F9012366A234210020FFF74DF9BE
:1033F00000BF68460479FDF7D9FF012804D00228F0
:1034000008D0032821D10BE068460079401EC1B2E4
:1034100001911BE068460079401CC1B2019115E0A2
:1034200068460079012806D0022806D0032806D075
:10343000042808D105E001201CBD0220FCE7032080
:10344000FAE70420F8E70020F6E700BF00BF68466F
:103450000079012801DA042101E06846017901912F
:1034600068460079042801DD012101E06846017900
:1034700001916846007984421FD001200C2320224C
:10348000194600901046FFF70FF801200C23202268
:10349000192100901046FFF707F801200C23202285
:1034A000262100901046FEF7FFFF01200C2320226A
:1034B000322100901046FEF7F7FF68460079012898
:1034C00006D002280DD0032814D0042824D11AE0F5
:1034D00001200C234022194600902020FEF7E4FF33
:1034E0001AE001200C234022192100902020FEF731
:1034F000DBFF11E001200C23402226210090202038
:10350000FEF7D2FF08E001200C2340223221009078
:103510002020FEF7C9FF00BF00BFFEF79FFF68E74E
:10352000202020202020D6F72020B2CB2020B5A5B7
:1035300020202020202000002020202020202020CB
:10354000B7A220B3B520202020202020202000007A
:103550002020202020202020B7BD20B0B82020200F
:10356000202020202020000020202020202020209B
:10357000CDE220C9E82020202020202020200000AB
:103580002020202020202020C9E820D6C320202071
:103590002020202020200000F0B5FFB09AB00125A7
:1035A00000260124002700209890FEF745FE02A87F
:1035B00000F020FC012302AA00210846FFF765F86D
:1035C0001E20604302A9421801230D210020FFF7AD
:1035D0005CF8601C1E21484302A9421801231A21ED
:1035E0000020FFF752F8A01C1E21484302A94218F0
:1035F000012327210020FFF748F8E01C1E21484343
:1036000002A94218012334210020FFF73EF800BF31
:103610002E462746FDF7CAFE012806D0022807D00D
:1036200003280CD0042864D105E0681EC5B260E010
:10363000681CC5B25DE000207FB01AB0F0BD2B0061
:1036400000F075FD0B56070E161E262E363E464E12
:1036500056000123754A21462846FDF78BFB47E0BB
:103660000123724A921C21462846FDF783FB3FE066
:1036700001236E4A1E3A21462846FDF77BFB37E0C0
:103680000A236A4A1A3A21462846FDF773FB2FE0BF
:103690000123664A143A21462846FDF76BFB27E0D2
:1036A0006423624A123A21462846FDF763FB1FE075
:1036B00001235E4A0A3A21462846FDF75BFB17E0E4
:1036C00001235A4A921F21462846FDF753FB0FE07B
:1036D0000123564A121F21462846FDF74BFB07E0FF
:1036E0000123524A921E21462846FDF743FB00BFA4
:1036F00000BF00BF012D01DA102000E0284605467A
:10370000102D01DD012000E028460546A54201DA22
:10371000284600E020460446E81EA04200DD00E006
:103720002046C4B2AE4202D19898012823D101208C
:103730000C232022194600900620FEF7B5FE01203A
:103740000C232022192100900620FEF7ADFE012057
:103750000C232022262100900620FEF7A5FE012042
:103760000C232022322100900620FEF79DFE02A8A5
:1037700000F040FB00BFA74226D01E20604302A9F4
:10378000421801230D210020FEF77FFF601C1E213F
:10379000484302A9421801231A210020FEF775FFB1
:1037A000A01C1E21484302A9421801232721002002
:1037B000FEF76BFFE01C1E21484302A942180123BB
:1037C00034210020FEF761FFA54208D101200C231F
:1037D0004022194600900620FEF766FE22E0601C9B
:1037E000854208D101200C23402219210090062097
:1037F000FEF75AFE16E0A01C854208D101200C23DA
:103800004022262100900620FEF74EFE0AE0E01C32
:10381000854207D101200C2340223221009006204E
:10382000FEF742FEFEF71AFEF2E6000022F0FF1F4E
:1038300000B585B014216846FCF7A3FCFEF7FCFC3C
:10384000012315A200210846FEF71FFF00BFFDF768
:10385000ADFD042802D1032005B000BD14480022AC
:10386000825E14A1684600F037FC01236A461A21E3
:103870000020FEF70AFF13480022825E12A168466C
:1038800000F02AFC01236A4627210020FEF7FDFEF6
:10389000FEF7E4FDDBE70000203C20202020B1E023
:1038A00020C2EB20C6F720D6B52020202020200003
:1038B00074F0FF1F4C5FB1E0C2EBC6F73A253564E8
:1038C0002000000076F0FF1F525FB1E0C2EBC6F7A8
:1038D0003A25356420000000F0B59FB000201E900E
:1038E0001D901C901B90142116A8FCF74AFC142173
:1038F00011A8FCF746FC0020109014210BA8FCF73F
:1039000040FC00200A90FEF797FC012325A200212D
:103910000846FEF7BAFE00BFFDF748FD042802D1B5
:1039200003201FB0F0BD254803882548028825A143
:1039300002A800F0D1FB01200C2302AA1946009036
:103940000020FEF785FE244B24480022825E1DA144
:1039500002A800F0C1FB01200C2302AA192100904B
:103960000020FEF775FE1E480068FCF79DFE044629
:103970000D461C480068FCF797FE064632460B468B
:1039800019A102A80195009400F0A6FB01200C23C8
:1039900002AA2D2100900020FEF75AFEFEF75EFDE0
:1039A000BAE70000203C20202020B5E72020B8D036
:1039B0002020D6B520202020202000006AF0FF1F04
:1039C00068F0FF1F41445F313A25346420204144B0
:1039D0005F323A25346400005704000070F0FF1F86
:1039E00088F0FF1F94F0FF1F50495443483A2025A8
:1039F000332E3266202020783A2566200000000011
:103A0000F0B5CDB0012500260124002700204C9000
:103A1000FEF712FC01A800F007F9012301AA00211A
:103A20000846FEF732FE1E20604301A9421801231A
:103A30000D210020FEF729FE601C1E21484301A92C
:103A4000421801231A210020FEF71FFEA01C1E2190
:103A5000484301A94218012327210020FEF715FE43
:103A6000E01C1E21484301A94218012334210020F3
:103A7000FEF70BFE00BF2E462746FDF797FC0128F8
:103A800006D0022807D003280BD0042829D105E04E
:103A9000681EC5B225E0681CC5B222E000204DB00A
:103AA000F0BD012D06D0022D0AD0032D0ED0042D1D
:103AB00014D111E0594A21462846FDF7FFF80FE0DE
:103AC000574A21462846FDF7F9F809E0554A2146AC
:103AD0002846FDF7F3F803E00020E0E70020DEE7EA
:103AE00000BF00BF012D01DA092000E0284605468D
:103AF000092D01DD012000E028460546A54201DA36
:103B0000284600E020460446E81EA04200DD00E012
:103B10002046C4B2AE4202D14C98012823D10120E4
:103B20000C232022194600900620FEF7BDFC012040
:103B30000C232022192100900620FEF7B5FC01205D
:103B40000C232022262100900620FEF7ADFC012048
:103B50000C232022322100900620FEF7A5FC01A8AC
:103B600000F062F800BFA74226D01E20604301A9E2
:103B7000421801230D210020FEF787FD601C1E2145
:103B8000484301A9421801231A210020FEF77DFDB8
:103B9000A01C1E21484301A942180123272100200F
:103BA000FEF773FDE01C1E21484301A942180123C2
:103BB00034210020FEF769FDA54208D101200C2325
:103BC0004022194600900620FEF76EFC22E0601CA1
:103BD000854208D101200C234022192100900620A3
:103BE000FEF762FC16E0A01C854208D101200C23E0
:103BF0004022262100900620FEF756FC0AE0E01C39
:103C0000854207D101200C2340223221009006205A
:103C1000FEF74AFCFEF722FC2DE700004EF0FF1FE6
:103C20004FF0FF1F50F0FF1F38B5044600200090F2
:103C30004D2531A1204600F04FFA354801786846FD
:103C4000FEF716F86A4633A120461E3000F044FA0B
:103C5000364801786846FEF70BF86A4634A12046DC
:103C60003C3000F039FA384801786846FEF700F831
:103C70006A4636A120465A3000F02EFA2946684698
:103C8000FDF7F6FF6A4637A12046783000F024FAA7
:103C900029466846FDF7ECFF6A4638A12046963073
:103CA00000F01AFA29466846FDF7E2FF6A4639A194
:103CB0002046B43000F010FA29466846FDF7D8FFD8
:103CC0006A463AA12046D23000F006FA29466846F4
:103CD000FDF7CEFF6A463BA12046F03000F0FCF92C
:103CE00029466846FDF7C4FF6A463CA12046FF30DE
:103CF0000F3000F0F1F938BD20203C20202020209A
:103D0000C9E82020D6C32020202020202000000049
:103D10004EF0FF1F202020312E20204C2045204433
:103D20002020202020202573000000004FF0FF1FDE
:103D3000202020322E2020B7E420C3F920C6F7200F
:103D4000202025730000000050F0FF1F20202033AA
:103D50002E2020C0B62020D1C02020202020257376
:103D600000000000202020342E2020585858585899
:103D700058582020202025730000000020202035E6
:103D80002E20205858585858585820202020257345
:103D900000000000202020362E2020585858585867
:103DA00058582020202025730000000020202037B4
:103DB0002E20205858585858585820202020257315
:103DC00000000000202020382E2020585858585835
:103DD0005858202020202573000000002020203982
:103DE0002E202058585858585858202020202573E5
:103DF00000000000F8B504464CA1204600F06CF924
:103E000050481E22825E50A120461E3000F064F908
:103E10004C482022825E52A120463C3000F05CF9E2
:103E200048480022825E54A120465A3000F054F9DE
:103E300044490420085EFCF783FA55490090FCF7DA
:103E400041FA0746FCF730FC05462A460B4651A1CD
:103E50002046783000F040F93A480A22825E54A1A8
:103E60002046963000F038F936490C20085EFCF701
:103E700067FA55490090FCF725FA0746FCF714FC51
:103E800005462A460B4651A12046B43000F024F9DD
:103E90002C481422825E54A12046D23000F01CF936
:103EA00028481822825E56A12046F03000F014F90E
:103EB00024481A22825E58A12046FF300F3000F0BD
:103EC0000BF920481C22825E59A12046FF302D307C
:103ED00000F002F900225CA12046FF304B3000F0D8
:103EE000FBF800225EA12046FF30693000F0F4F8B4
:103EF000002261A12046FF30873000F0EDF800225B
:103F000063A12046FF30A53000F0E6F8002266A14C
:103F10002046FF30C33000F0DFF8002268A12046C1
:103F2000FF30E13000F0D8F8F8BD000020203C2040
:103F300020202020B7BD2020B0B820202020202025
:103F40002000000004F0FF1F202020312E2020C47C
:103F5000BFB1EABDC7B6C8202025346420200000C8
:103F6000202020322E2020C4BFB1EACBD9B6C820F1
:103F70002025346420200000202020332E2020BD66
:103F8000C720B6C8205020202025346420200000FF
:103F900000002041202020342E2020BDC720B6C89C
:103FA000204420202025322E3166202000000000F1
:103FB000202020352E2020CBD920B6C8205020200C
:103FC00020253464202000000000C8422020203634
:103FD0002E2020CBD920B6C8204920202025322EE3
:103FE0003166202000000000202020372E2020D71E
:103FF000AA20CFF220502020202534642020000069
:10400000202020382E2020D7AA20CFF220442020A4
:104010002025346420200000202020392E20207408
:104020007020202020202020202534642020000023
:1040300020202031302E20746420202020202020B9
:10404000202534642020000020202031312E2058EB
:1040500058585858585820202025346420200000F3
:1040600020202031322E2058585858585858202097
:10407000202534642020000020202031332E2058B9
:1040800058585858585820202025346420200000C3
:1040900020202031342E2058585858585858202065
:1040A000202534642020000020202031352E205887
:1040B0005858585858582020202534642020000093
:1040C00020202031362E2058585858585858202033
:1040D00020253464202000000FB410B504A9074B3C
:1040E00002AA039800F07EF9044602A9002000F01D
:1040F00015FD204610BC08BC04B018471D4B00003D
:104100002021020C01D010211046020A01D01046D5
:104110000839020901D01046091F820801D0104653
:10412000891E420801D0881E7047081A704730B4B3
:104130007446641E2578641CAB4204D3635D5B0047
:10414000E31830BC18471D46F8E700004900CA02D2
:104150000243100000D004204A0D01D00122104378
:10416000044A490D914201D102210843012800D19E
:1041700005207047FF070000F8B504464F1EC80031
:104180000838211815461E46086849683A4606232D
:104190009A4310D02A463346FCF7ECF93A46D2004F
:1041A000083AA3181A687F1E5B68FCF731F90622EB
:1041B0003B469343EED1022F23D0042F11D0062F7C
:1041C0002FD12A463346FCF7D5F9E36AA26AFCF7F9
:1041D0001FF92A463346FCF7CDF9636A226AFCF7D9
:1041E00017F92A463346FCF7C5F9E369A269FCF7DB
:1041F0000FF92A463346FCF7BDF963692269FCF7DB
:1042000007F92A463346FCF7B5F9E368A268FCF7DC
:10421000FFF82A463346FCF7ADF963682268FCF7DD
:10422000F7F8F8BD002210B5134610461146FCF70A
:1042300079FB10BD034A10B500201107FCF7EAFB1B
:1042400010BD000001FDFFFF02E008C8121F08C1F9
:10425000002AFAD17047002001E001C1121F002A94
:10426000FBD1704701490860704700000CF1FF1F47
:10427000F0B51FB486B00998089A030D00210243D7
:1042800014D05148514A1818504305141198012868
:1042900010981AD0281A401C00264D4F4D49009600
:1042A00001910490002812DA444211E0119801248F
:1042B00049A3012801D11098C1430698119A84603E
:1042C0000360C26041600BB0F0BD4042E4E70446C9
:1042D000210500203F4A001C51410391029012E049
:1042E000E00707D032463B4601990098FCF742F9B7
:1042F0000191009032463B4610461946FCF73AF9C8
:1043000006460F466410002CEAD10498039B00284F
:10431000029A0999089806DAFCF72CF9019B009A91
:10432000FCF728F905E0FCF7FDFA019B009AFCF781
:10433000F9FA04460E460022284BFCF7F3FB03D89B
:104340000020C043014607E00022254B20463146AD
:10435000FCF75EF8FCF7C6FB102409E0002C0ADB32
:104360000A220023FCF7DAF9079B30321A55641E43
:1043700002460A43F2D11122641C079B121B1C192E
:10438000119B012B03D0012308430ED10AE00843FF
:1043900004D0112010900020119077E71098151A82
:1043A0006D1E0BE01098824202DD00236D1C03E0BD
:1043B000824201DA00236D1E002BEED0069811997F
:1043C0008260C16030C07EE701FCFFFF104D00003D
:1043D000000014400000F03F300000000000F043F7
:1043E0000000E03FFFB597B00646002518E22528FB
:1043F00077D100242746FD49049400E00443761C4D
:1044000032780120203A90400842F7D130782A28AB
:104410000ED00222307801463039092916D8049985
:104420000A235943303940181443761C0490F1E7AD
:10443000189802C804911890002904DA012040035A
:1044400004434842049002200443761C30782E280E
:1044500014D1042004437078761C2A2809D11898B6
:10446000761C80C8189009E00A214F43303FC719D5
:10447000761C3078014630390929F5D930786C2816
:1044800010D006DC4C281AD068280ED06A2817D124
:1044900004E0742813D07A2812D110E001204005DE
:1044A00004430CE00121090501E0032109050C4347
:1044B0007178814203D1012000052418761C761CF6
:1044C0003078119066280BD013DC58287DD009DC99
:1044D00000287BD04528F6D04628F4D047281AD1AA
:1044E000A5E118E0632835D0642870D0652812D182
:1044F0009DE170286CD008DC6728F1D069287BD05A
:104500006E280DD06F2806D1BAE073282ED07528FA
:1045100071D0782859D01A9A199990476D1C7EE16C
:104520006002400F022809D003280DD004281898F3
:1045300001680DD00D60001D189070E11898EA1701
:1045400001680D604A60F6E7189801680D80F2E78F
:104550000D70F0E718986A4601781172001D1890E6
:104560000020507202A80090012005E0189802C8AF
:10457000189000200091C04361070DD5002101E093
:104580000199491C0191B94212DA8142F8DB009A83
:10459000515C0029F4D10BE0002101E00199491C94
:1045A00001918142FADB019A0099895C0029F5D1D9
:1045B000019904981A9B471A21463846199A00F027
:1045C00097FA0199401945180BE04FE02CE113E0F0
:1045D0004EE0009800990078491C00911A9A1999A8
:1045E00090470198401E0190401CF2D12146384668
:1045F0001A9B199A10E137E00A20002100900191DE
:104600006002410F022907D0189A01CA1892C217F6
:104610009446032908D00AE01898C01DC108C900B3
:1046200005C91891944607E000B2C21794460429C0
:1046300002D140B2C1178C4600226146944506DA89
:104640000A460021404291418C462D2102E021057D
:1046500004D52B216A461173012103E0E10701D043
:104660002021F7E7029155E00A200AE0102008E037
:10467000102000900021042004430191082703E04A
:1046800008200021019100906002410F022907D00B
:10469000189A01CA189200229446032908D008E00B
:1046A0001898C01DC108C90005C91891944603E0B7
:1046B00080B2042900D1C0B200210291210729D57E
:1046C0001199702906D0009A1021019B4A401A4383
:1046D00005D00EE040216A461173012108E06146D1
:1046E000014306D030216A4611731199517302219A
:1046F0000291009A0821019B4A401A430AD161465F
:10470000014301D1610705D530216A4611730121AA
:104710007F1E02911199582904D035A10E910DA93F
:104720000D910DE037A1F9E76146019B009AFBF777
:10473000F5FF0E9B8C469B5C0D9A521E0D921370DA
:1047400061460143F0D10D9805A9081A2030019067
:10475000600703D501200004844300E0012701988D
:10476000874201DD381A00E00020019900904118CD
:10477000029809180498401A0490E00306D42146D0
:104780001A9B199A049800F0B3F94519002706E01E
:1047900003A81A9AC05D199990476D1C7F1C029856
:1047A0008742F5DBE0030CD521461A9B199A049841
:1047B00000F09EF9451904E01A9A302019999047A3
:1047C0006D1C0099481E00900029F5DC08E00D984A
:1047D0000D990078491C0D911A9A199990476D1CF2
:1047E0000199481E01900029F1DC63E109280100CC
:1047F0003031323334353637383961626364656657
:104800000000000030313233343536373839414218
:10481000434445460000000000F05AF94519761C53
:104820003078002800D0E2E528461BB0F0BD6007D4
:1048300000D406271898C01DC108C90048680A6836
:104840000831C30FDB071891190001D09CA108E0C3
:10485000210501D59BA104E0E10701D09AA100E068
:104860009AA1430011985B08109165280CD006DCD2
:10487000452809D046281DD0472841D141E0662867
:1048800018D067283CD13CE00021112F01DB11201A
:1048900000E0781C0191009008A911A8FFF7E8FC3E
:1048A000139905910021119A15927F1C1298019776
:1048B000009150E00120C00703900120019008A959
:1048C000009711A8FFF7D4FC139A149905920022BF
:1048D000119B009212981593059A0192002901D01C
:1048E000104602E0791C40180190381A01D5019851
:1048F00004E04042401E0090781C0190C01B0290D2
:1049000043E0012F00DA01270021112F01DD1120E2
:1049100000E038460191009008A911A8FFF7A8FC13
:1049200013990591119A00211298159200910197FF
:1049300021070CD40599B94201DB019900E00191EE
:10494000012904DD159A491E515C302906D0B84270
:1049500001DA011D05DA0121029115E00199491ED4
:10496000EDE7002805DC0099411800910199091A2A
:1049700003E0019A411C914200DD01910099401A27
:10498000401C02900120C0070390200706D4029922
:104990000198814202DB0020C0430290002069465A
:1049A000C87707AF012103980337C907884224D08D
:1049B000022011902B201290039800280CDA40421C
:1049C00003902D20129007E00A210398FBF796FB35
:1049D00030317F1E039039701199481E11900029C3
:1049E000F2DC03980028EFD1791E12980870307815
:1049F000202108404530BF1E387006A8C01BC01DCE
:104A0000039010980078002800D0012001994118E7
:104A10000298C0170918039809180498401A401EF4
:104A20000490E00306D421461A9B199A049800F0DA
:104A30005FF8451910980078002803D01A9A199940
:104A400090476D1CE00324D521461A9B199A0498BF
:104A500000F04EF845191CE00098002807DB00998B
:104A60000598884203DD1598405C199901E0199971
:104A700030201A9A904700986D1C401C00900298B4
:104A8000401E0290002804D11A9A2E2019999047AE
:104A90006D1C0199481E01900029DDDC05E0387885
:104AA0001A9A7F1C199990476D1C0399481E039010
:104AB0000029F4DC21461A9B199A0498ACE6000000
:104AC0002D0000002B00000020000000000000006E
:104AD000F8B5044600251E461746880404D405E0B0
:104AE00039462020B0476D1C641EF9D52846F8BD14
:104AF000FFB50446002581B01E46C80301D5302706
:104B000000E02027880404D505E038460399B04723
:104B10006D1C641EF9D5284605B0F0BD0A68531C0B
:104B20000B60107070470000F0B504464F008E48CF
:104B30008FB07F080D460D91874228DB4042381820
:104B400020430CD08948874203DC874218D1002CCF
:104B500016D020462946FBF74CFC0FB0F0BD844A26
:104B6000844B20462946FBF705FD07460E46824A40
:104B7000824B20462946FBF7FDFC3A46334649E086
:104B80000120FFF76FFBFFF74DFB0FB0F0BD7C4836
:104B9000874243DAF920800587420BDA204629460E
:104BA000FFF7D4FA042801D1FFF744FB2046294639
:104BB0000FB0F0BD22462B4610462946FBF7DAFC23
:104BC000064602466F480F460B4606217844FFF71B
:104BD000D3FA32463B46FBF7CDFC06906A48079174
:104BE00032463B4604217844FFF7C6FA32463B463C
:104BF000FBF7C0FC00225C4BFBF70AFC02460B46AD
:104C000007990698FBF78EFE22462B46FBF7B2FC6F
:104C100022462B46FBF7FCFB0FB0F0BD2046524C62
:104C20006900490800222346FBF79CFC0022D2437E
:104C3000FBF7F0FE0546024654480E460B46062199
:104C40007844FFF799FA2A463346FBF793FC06901F
:104C50004F4807912A46334604217844FFF78CFADF
:104C60002A463346FBF786FC00222346FBF7D0FB9F
:104C7000059104902846314600F044FC08904548D0
:104C80000C46874219DB059B049A07990698FBF7A7
:104C900049FE02460B4621460898FBF76BFC23466B
:104CA000089AFBF7B5FB0122FBF7B4FE304A314B03
:104CB000FBF752FC304A314B4AE000273A460B469C
:104CC0000898FBF7A5FB3A4623460A910E9010463A
:104CD0001946FBF74FFC2A463346FBF743FC0A9B79
:104CE0000E9AFBF71FFE05460E46059B049A079990
:104CF0000698FBF717FE00910490012228463146E2
:104D0000FBF788FE1A4A1B4BFBF72CFC0E460546A8
:104D1000012221460898FBF77DFE009B049AFBF7D1
:104D200029FC2A463346FBF717FC05460E460122AE
:104D300038462146FBF76EFE0F4C174F22463B4686
:104D4000FBF710FC2A463346FBF70CFC22463B4699
:104D5000FBF708FC0D9A002A00DD5DE70122D2076F
:104D600051400FB0F0BD00000000F03F0000F07FA8
:104D7000075C143326A6913C182D4454FB21F93FBF
:104D80000000E03F80E9000096E900000CE9000027
:104D900022E900003333EF3FFB21E93F002182008D
:104DA000014B9A5851607047343501000146880024
:104DB000024A1058406880B2704700003435010044
:104DC00000B50346184600F019F898000A4908583B
:104DD00000689900084A5158086098001146085820
:104DE0000068182108439900515808600020990074
:104DF0005158486000BD000034350100002804D03F
:104E0000012823D0022865D140E033494969202296
:104E10001143314A51611146C96803221206914378
:104E20002D4AD1602D494969012211432B4A516114
:104E30001146496801221143284A51602649C96830
:104E4000012212061143244AD16043E022494969F4
:104E500040221143204A51611146C968032292063B
:104E600091431D4AD1601D494969802211431B4A63
:104E700051611146496880221143184A5160164910
:104E8000C96852051143144AD16023E012494969A7
:104E900080221143104A51611146C968032212074A
:104EA00091430D4AD16000210D4AD1600B49403930
:104EB000496920221143094A403A51611146496823
:104EC00020221143054A403A51600349C968024A09
:104ED000D16000BF00BF70470080044040F00F4029
:104EE00040A00340FFB583B004460D461F46294647
:104EF000204600F08BF8414802900299080C059971
:104F0000FBF7FCF806460020019003E00198401CE6
:104F1000C0B201903146019801410129F6DA0198A9
:104F2000072801DD07B0F0BD019A0299D14008467B
:104F30000599FBF7E3F886B2600031490E52002C68
:104F400004D0012C0DD0022C21D115E03146491C92
:104F5000794308467D21C900FBF7D0F880B2009064
:104F600016E03146491C794308467D21C900FBF70C
:104F7000C5F880B200900BE03146491C79430846E1
:104F80007D21C900FBF7BAF880B2009000E000BFB5
:104F900000BF1C48A1001C4A51588860A00011465F
:104FA00008580C30E900415804208143A0001058F3
:104FB0000C30EA0081502821A000134A10580C3010
:104FC000EA0081500820A1000F4A51580860022CC5
:104FD00003D10020A1005158C86419218901A00003
:104FE000094A10580C30EA00801841600020A100E6
:104FF000054A5158486000BF94E70000005A620219
:105000008EF0FF1F7F0C00003435010000B5002832
:1050100004D001281FD002281CD139E0414A52692E
:1050200020231A433F4B5A61002902D0012910D195
:1050300007E03C4AD268FF2301339A43394BDA60D8
:1050400007E0384AD26801235B029A43354BDA60A5
:1050500000BF00BF63E0334A526940231A43314B1B
:105060005A61002902D0012910D107E02D4AD268E7
:1050700001239B021A432B4BDA6007E0294AD268CE
:105080000123DB029A43274BDA6000BF00BF46E0F2
:10509000244A526980231A43224B5A610B00FFF7BE
:1050A00046F806040E18222C343C1E4A1269920857
:1050B00092001C4B1A611A4612691A612DE0194AB6
:1050C00012690C239A43174B1A611A4612691A6126
:1050D00023E0144A126930239A43124B1A611A468C
:1050E00012691A6119E00F4A1269C0239A430D4BE5
:1050F0001A611A4612691A610FE00A4A1269FF23FF
:1051000001331A43074B1A6107E0064A126901236B
:105110005B029A43034B1A6100BF00BF00BF00BF90
:1051200000BD000000800440FEB504460D46216825
:105130006068FBF78AF8206061680846FBF785F82D
:1051400007466169FBF781F80646E168FBF724F83A
:105150006061A1686069FBF778F80090A168FBF7CF
:1051600074F807462169FBF717F80646A1686069DD
:10517000FBF76BF831460190FBF7A4F8A0612168BA
:10518000A068FBF762F829460190FBF75AF807463A
:10519000A169FBF75AF806462168FAF7FDFF20607F
:1051A000A168A069FBF751F807467F21C905FBF705
:1051B00048F806466169FBF748F860612068FEBD63
:1051C000016042617F23DB0543608360024BC36063
:1051D000024B03617047000082A87B380AD7233C4A
:1051E000FBF75CFD4B21C9010120FDF781FEFCF7B7
:1051F0006DFEFDF76BF8FCF775FFFBF7F1FFFCF7B1
:10520000FDFDFBF73AFD404A00214048FFF7D8FF7B
:105210003F483E49C8603F4808613B4A00213B483F
:105220001C30FFF7CDFF3A49384881623949C162E5
:105230000A20FBF793FFFCF73BFA00BFFCF7BAFE2E
:105240000028FBD1FCF734FA00BFFCF7B3FE0028BE
:10525000FBD1FCF72DFA00BFFCF7ACFE0028FBD118
:105260002D4840680121490208432B4948606420C9
:10527000FBF774FF2848806801214902084326494A
:105280008860002400220A211046FDF72BFDFCF760
:10529000D3FF37E0042C20D008DC002C0DD0012CEB
:1052A0000FD0022C11D0032C27D112E01F2C18D0C4
:1052B000202C1AD0212C20D11BE0FEF775F80446D3
:1052C0001FE0FDF7D7FF04461BE0FEF765F9044633
:1052D00017E0FDF7D3FE044613E0FEF791FB04460A
:1052E0000FE0FEF707F8C4B20BE0FEF7F5FAC4B220
:1052F00007E0FEF79DFAC4B203E0FEF755F8044656
:1053000000BF00BFC6E7000000002041B4F5FF1F4A
:10531000FAED6B3A0AD7233C00F00F4010B5044673
:1053200021460120FDF78AFE10BD000070B505463C
:105330000024254880690421884323498861084660
:10534000406904218843204948612048806804213D
:1053500008431E498860002629E01B48406908214F
:1053600008431949486108468068082108431649DE
:1053700088600120FBF70AFF1348406908210843B1
:105380001149486108464068082108430E494860B1
:105390006006040E0846006904210840002801D078
:1053A000601CC4B20020FBF7F1FE701CC6B2082ED0
:1053B000D3DB002D03D10020FCF724F902E001200B
:1053C000FCF720F9204670BD00F00F40009004402B
:1053D00070B50446082530484069042108432E4929
:1053E000486108464068042108432B494860084644
:1053F0004069082108432849486108468068082117
:105400000843254988603FE08020204000280CD0D8
:1054100021484069042108431F4948610846406803
:10542000042108431C4948600BE01B4840690421E3
:105430000843194948610846806804210843164911
:1054400088606006040E0120FBF7A0FE1248406948
:10545000082108431049486108464068082108436C
:105460000D4948600120FBF791FE0B484069082177
:1054700008430949486108468068082108430649ED
:1054800088600120FBF782FE2846691ECDB2002805
:10549000BAD1FDF775FC70BD00F00F40F8B50446B9
:1054A0000D461646FCF720F96106080EFFF790FF3F
:1054B0002846FFF78DFF012E01D1FCF75BF9FCF7C1
:1054C00013F96100491CC8B2FFF782FF0020FFF703
:1054D0002DFF0746FCF74EF93846F8BD70B5044677
:1054E0000D461646FCF700F96106080EFFF770FF3F
:1054F0002846FFF76DFF3046FFF76AFFFCF73AF9E1
:1055000070BD0000F8B506460C46FBF799FA051E7B
:105510000F4600D00120014349000B484908411AB9
:10552000C90F0DD0002E01D0012100E000210C4355
:1055300061004908401AC00F02D10120FEF792FE17
:1055400028463946F8BD00000000F07F3031323384
:105550003435476F21303132333435363738392ED0
:105560002B2D3A20A1A3D6F7B2CBB5A5B7A2B3B5E0
:10557000B7BDB0B8CDE2C9E8D6C3C0B6D1C0CDD3AF
:10558000C2DDD2C7B1E0C2EBC6F7B5E7B8D0A1B66D
:10559000C4BFB1EACBD9B6C8BDC7D7AACFF2D6B57A
:1055A000B7E4C3F9000000000000000000000000A4
:1055B00000000000000000000000000000000000EB
:1055C00000000000000000000000000000000000DB
:1055D00000000000000000000000000000000000CB
:1055E00000000000000000000000000000000000BB
:1058C00000000000000000000800040000007FC08D
:1058D0000400040004007FC0040004000400FFE092
:1058E00000000000000000000000000000000000B8
:1058F00000000000000000000000000000000000A8
:105900000000000000000000000000000000000097
:105910000000000000000000000000000000000087
:105BC00000000000000000001100FFE0110001C013
:105BD000FE00488025000400FFE015002480C4601A
:105BE00000000000000000000000000000000000B5
:105BF00000000000000000000000000000000000A5
:105C00000000000000000000000000000000000094
:105C10000000000000000000000000000000000084
:105EC0000000000000000000208011007FC044405E
:105ED0007FC044407FC00400FFE0040004000400D1
:105EE00000000000000000000000000000000000B2
:105EF00000000000000000000000000000000000A2
:105F00000000000000000000000000000000000091
:105F10000000000000000000000000000000000081
:1061C0000000000000000000090088808800FFE057
:1061D000100010001F802880250042008D80306054
:1061E00000000000000000000000000000000000AF
:1061F000000000000000000000000000000000009F
:10620000000000000000000000000000000000008E
:10621000000000000000000000000000000000007E
:1064C000000000000000000008000800FFE01000CD
:1064D000240044007FC004000400FFE00400040026
:1064E00000000000000000000000000000000000AC
:1064F000000000000000000000000000000000009C
:10650000000000000000000000000000000000008B
:10651000000000000000000000000000000000007B
:1067C000000000000000000008000400FFE01000CE
:1067D00010001FC0104010402040204040408380E7
:1067E00000000000000000000000000000000000A9
:1067F0000000000000000000000000000000000099
:106800000000000000000000000000000000000088
:106810000000000000000000000000000000000078
:106AC00000000000000000000400FFE088207FC0FC
:106AD00011000E00F1C00400FFE015002480C46026
:106AE00000000000000000000000000000000000A6
:106AF0000000000000000000000000000000000096
:106B00000000000000000000000000000000000085
:106B10000000000000000000000000000000000075
:106DC0000000000000000000210021002100390027
:106DD00049804940A9201120110021004100810073
:106DE00000000000000000000000000000000000A3
:106DF0000000000000000000000000000000000093
:106E00000000000000000000000000000000000082
:106E10000000000000000000000000000000000072
:1070C000000000000000000047802480048004804D
:1070D000E86020002FC024402280310022800C6014
:1070E00000000000000000000000000000000000A0
:1070F0000000000000000000000000000000000090
:10710000000000000000000000000000000000007F
:10711000000000000000000000000000000000006F
:1073C00000000000000000007FC04A407FC00400B1
:1073D000FFE004003F802080208024802480FFE0A4
:1073E000000000000000000000000000000000009D
:1073F000000000000000000000000000000000008D
:10740000000000000000000000000000000000007C
:10741000000000000000000000000000000000006C
:1076C00000000000000000002080FFE02080120089
:1076D00053E05480504000007FC04A404A40FFE0E1
:1076E000000000000000000000000000000000009A
:1076F000000000000000000000000000000000008A
:107700000000000000000000000000000000000079
:107710000000000000000000000000000000000069
:1079C000000000000000000000007FC00100210056
:1079D00041007FE00300050009003100C1000700FD
:1079E0000000000000000000000000000000000097
:1079F0000000000000000000000000000000000087
:107A00000000000000000000000000000000000076
:107A10000000000000000000000000000000000066
:107CC00000000000000000000100F08097E0942018
:107CD000A000A220924092809300E220822081E0C6
:107CE0000000000000000000000000000000000094
:107CF0000000000000000000000000000000000084
:107D00000000000000000000000000000000000073
:107D10000000000000000000000000000000000063
:107FC000000000000000000023E022A023E0FAA04F
