:020000040000FA
:1000000030060020D7000000E3000000E5000000FB
:1000100000000000000000000000000000000000E0
:10002000000000000000000000000000E7000000E9
:100030000000000000000000E9000000F1030000E3
:10004000ED000000ED000000ED000000ED000000FC
:10005000ED000000ED000000ED000000ED000000EC
:10006000ED000000ED000000ED000000ED000000DC
:10007000ED000000ED000000ED000000ED000000CC
:10008000ED000000ED000000ED000000ED000000BC
:10009000ED000000ED000000B52A0000393000003E
:1000A000ED000000ED000000ED000000ED0000009C
:1000B000ED000000ED000000ED000000ED0000008C
:1000C0000348854600F042FD0048004739590000CA
:1000D000300600207047064880470648804706489B
:1000E0000047FEE7FEE7FEE7FEE7FEE7FEE700006B
:1000F000F5310000D5000000C100000030B50B460E
:10010000014600202022012409E00D46D5409D42F1
:1001100005D31D469540491B254695404019154677
:10012000521E002DF1DC30BD70B50024254600289C
:1001300001DA01244042002901DA01254942FFF792
:10014000DDFFAC4200D04042002C00D0494270BDDF
:1001500003460B439B0703D009E008C9121F08C0E0
:10016000042AFAD203E00B780370401C491C521E8B
:10017000F9D27047D2B201E00270401C491EFBD296
:1001800070470022F6E710B513460A4604461946A2
:10019000FFF7F0FF204610BDF8B502464A40D40FE5
:1001A00042004B0052085B089A4202D202460846BF
:1001B00011464A0023D0C30D4A00DDB2120EAD1A1B
:1001C000202D35DA49020126490AF6058A19002C44
:1001D00000D0524220214F1B1146B9402A4110182D
:1001E000C20D9A4221D0002C17D0012D08DCDA056F
:1001F000801AD20F8019D207DBB200F0FBFAF8BDEB
:10020000DA05801A012340001B06C01880185A42E4
:100210008018CA0F1043490007E04908C20711437C
:10022000DA05801A80194008801800F0DBFAF8BD62
:1002300061000122511A001BF7E70122D207514049
:10024000AAE70122D2075040A6E7024670B54A400D
:10025000D30FDB0740002DD04A002AD0010E140E28
:10026000000212020919400A520A8418E5010446E4
:100270005443000A120A2E045043A4194219200CB8
:10028000C543AA18120C0125AD03521C52191204C1
:100290007F39240400D0521C104301D44000491E71
:1002A000C2B20C06C0092018401C4008802A02D0A7
:1002B00003E0002070BD40084000002900DA002063
:1002C000184370BD70B502464A40D50F40004A0041
:1002D000ED0740085208002814D0002A12D0C40D9F
:1002E000D30D41020120C0055202490A520AE41A04
:1002F000091812187D34914201D3641C00E04900B2
:10030000002C01DA002070BD0023914201D3891A2C
:100310000343400849000028F7D100290AD0914240
:1003200002D10121C90705E0914201D2012101E07A
:100330000121C943E005C018401900F053FA70BD0F
:10034000C217C10F504010B54018CA0796230021AC
:1003500000F050FA10BD10B500229623114600F0AF
:1003600049FA10BD0EB5C217C10F5040CA07401858
:100370000021054B0293019200910A460B4600F0C2
:100380007FFA03B000BD0000330400000EB505493C
:100390000291002100910A460B46019100F070FA8B
:1003A00003B000BD33040000C20F4100400201232E
:1003B000400ADB05D207090EC0187F2901DA0020A8
:1003C0007047962903DC9623591AC84001E09639F4
:1003D0008840002AF4D04042704700000122D20732
:1003E000002800DB101A002900DB511A81427047F7
:1003F000704710B5012200F00DFB10BD70470000E2
:10040000FFFFFFFFFFFFFFFFFFFFFFFFFFFFFEFEFE
:10041000F0B507460846584087B0C00F0490480022
:100420000E46590040084908BC1A884105D2384692
:1004300031461E4617460B460246580040081043F8
:100440004CD0300D039040055900400D490D0590EA
:10045000401A0290402872DA18030121000B0905A6
:100460000843019004980092002805D00199524257
:100470000020884100920190029840210A1A0199B7
:10048000009800F07BF905460C466B4607CB00F060
:1004900096F9C0197141039A0E0D0023D7175640E3
:1004A0001A467A40164344D0049A002A2DD0029A64
:1004B000012A039A15DC1205C01A9141012636055E
:1004C000001C7141D20F059ED20700930192029643
:1004D0002A46234600F0D4F907B0F0BD384631462D
:1004E000FAE71605224A0F46B218C01AB741012191
:1004F0000905001C4F4100187F4111461818794129
:10050000E20F10436D19644113E0E2076D081543D3
:100510006408C2071443039A01261205C01A9141C8
:100520003605001C7141CE07400830434908C01809
:1005300051412A46234600F096F9CDE7FFE704989B
:1005400001224000C117121A00238B410498314642
:10055000C417381AA141EEE730B40124E407634020
:1005600030BC55E730B40124E407614030BC4FE7AC
:100570000000E0FFF0B51FB488B00B990998002483
:1005800048400999C00F490049080991C0070B99D3
:100590000090490049080B9109990898A64608431C
:1005A0001CD00B990A98084318D0099801244000E0
:1005B000420D4800410D099824050003000B20431B
:1005C00009900B980003000B20430B9050181C4916
:1005D0004018002201901446104605E00020014614
:1005E0000DB0F0BD032801DA034600E003239C466A
:1005F000C11A0AAE0AE05F0008ADED5B4F00F75B81
:100600007D430027AA187C41491C5B1E6145F2DD31
:10061000410004AB5A522104120C0A43240C401C22
:100620000828DFDB01980290009970460191009044
:10063000059B049A0799069800F022F9D0E700007C
:100640000DFCFFFF410040020122400AD205090EC5
:1006500080187F2901DA00207047962903DC962252
:10066000511AC84070479639884070474A000903BC
:100670000123090B1B051943094B10B5520D9A4272
:1006800001DA002010BD064B34339A4203DC9A1A7B
:1006900000F084F810BD03495118884010BD0000D7
:1006A000FF030000CDFBFFFFC20FD2074000400850
:1006B0000BD0C10D0723DB01C91840020905400A10
:1006C0001143C2084007114370470020014670479C
:1006D000CB0FDB07490010B5490802460A4307D093
:1006E0000A0D07240903E401090B121B002A01DC8F
:1006F000002010BDC900440F0C43C100E018D20512
:10070000801800F06FF810BD0122D207002800DB2E
:10071000101A002900DB511A88427047F0B51FB447
:100720000646002082B005464024019100901BE05F
:10073000019922460F46304600F030F8049A059B96
:10074000801A994110D310461946224600F016F837
:10075000361A8F410197224601200021009F00F0A8
:100760000DF838184D4100902046641E0028DFDC4B
:10077000019B00982946324607B0F0BD10B5202AEB
:1007800004DB0146203A9140002010BD9140202317
:100790009C1A0346E3401943904010BD10B5202A2F
:1007A00004DB0846203AD040002110BD0B46D34060
:1007B000D0402024A21A91400843194610BD10B51C
:1007C000202A06DBCB170846203A1041C1170B43FD
:1007D00006E00B461341D0402024A21A9140084362
:1007E000194610BD002904DA401C490001D1400817
:1007F0004000704770B40024050C05D1102400049B
:1008000002D1002921D01124050E01D100020834A3
:10081000050F01D10001241D850F01D18000A41C0A
:10082000002801DB4000641C002908D020252E1B75
:100830000D46F540A14000D001212943084301069F
:100840001B1B000ADB1D02D5002070BC7047DB05B6
:10085000181880180029F8DA401C4900F5D170BC3E
:1008600040084000704710B5002B08DA0024401CF7
:10087000614192185B411A4301D14008400010BD0C
:10088000F0B51FB482B005460C0003D0084603F053
:1008900015FE02E003F012FE2030024600902146D1
:1008A0002846FFF76BFF049B059A04460F46184342
:1008B0001143084314D0184610431BD00098402120
:1008C0000A1A18460599FFF769FF05460E46009A71
:1008D00005990498FFF752FF084305D0012004E072
:1008E0002046394607B0F0BD0020C11705430E432E
:1008F0002C43374300990E986305401A7905E40AA2
:1009000000220C43FD0A0A3002D500200146E9E727
:100910000105101969410C9C0D9D00196941FFF7F3
:10092000A2FFDFE7F0B50C465C4085B0E40FE407BA
:1009300003944C0000266408590094464908024676
:100940000296224321D062460A431ED06200570D10
:100950004A000E032303550D012402462C492405A9
:10096000781B1B0B360B401823432643614600902F
:100970001C46501AB44103D30098401C009002E07A
:10098000921800985B41002803DA0020014605B068
:10099000F0BD0020012109050746864611E06446A6
:1009A0001D46141BB54106D36546521BB341744620
:1009B00007430C43A646CD07400849082843921830
:1009C0005B4105460D43EAD11046184313D06046FB
:1009D000194650407140084306D06046101AB34192
:1009E00006D20122002306E000220123DB0702E0F9
:1009F0000122D2435310009874460105381C61410E
:100A0000029C039D00196941FFF72DFFBFE700001D
:100A1000FD03000070B54B005B0803430BD04B0097
:100A20005C0D002633466542B341D417AD1AA3418D
:100A300002DB0020014670BD12053018514170BD27
:100A4000FEB500231A461B1A8A4103DB002001462B
:100A500003B0F0BD4A000D0301212D0B0905520D15
:100A60000D43D10702D100186D41521E5110FF31C4
:100A7000FF310131002704463E4638460097019178
:100A80000246012100200905FFF788FEC3197141C4
:100A9000F818324684468E464A4161462846611A15
:100AA000904104D36046241A954176461F46241986
:100AB00000986D41401C00903428E1DDF919304662
:100AC0007041091BA84103D20022D243134601E022
:100AD0000022134601980105381C7141FFF7C3FE3F
:100AE000B6E700004A0009030123090B1B0519435F
:100AF0000A4B10B5520D9A4202DA0020014610BD91
:100B0000064B34339A4203DC9A1AFFF747FE10BDB6
:100B1000034BD218FFF732FE10BD0000FF030000A8
:100B2000CDFBFFFF10B5002904DB0124E4074042A0
:100B30008C412146002B04DB1C460123DB0752427B
:100B4000A341994200D1904210BD0000064C0125FE
:100B5000064E05E0E36807CC2B430C3C9847103465
:100B6000B442F7D3FFF7B0FA983D0100B83D010059
:100B7000F3B581B00C460025002704E0019800F091
:100B80005FF845197F1CA742F8DB21462846FFF78E
:100B9000CBFA0090FFF7D4FB06463046FFF752FD34
:100BA00080B2FEBD15494969012252071143134A1B
:100BB000516113498968124A916011464968516030
:100BC0000021116011460968202211430C4A11606E
:100BD0001146096840221143094A1160114689698A
:100BE0000122824092B21143054A916111468968FF
:100BF00008221143024A91607047000000800440BF
:100C000000B00340014600200C4A1268520952010C
:100C1000CB06DB0E1A43094B1A6000BF074A126865
:100C200080231A40002AF9D0044A126990B2034A7C
:100C300012689A43014B1A607047000000B00340ED
:100C4000F1B50098FFF7DEFF04460098FFF7DAFFE2
:100C500005460098FFF7D6FF0646AC4202DD274660
:100C60002C463D46AE4201DD2F4604E0A64201DDA2
:100C7000374600E027463846F8BD10B50020FFF79C
:100C800091FF0120FFF78EFF0E20FFF78BFF0D2055
:100C9000FFF788FF0C20FFF785FF10BD064840696D
:100CA0000121490208430449486108468068491502
:100CB000084301498860704700F00F40F0B589B0E3
:100CC00005460E461746387844B200BFE1B202A886
:100CD00001F03EF800200090A81B401C0D2250435C
:100CE000C1B20C2302AA6C2001F0F8FD0020019093
:100CF00000F05CFB012806D0022807D0032808D0AA
:100D000004280DD109E0601C44B209E0601E44B221
:100D100006E0012001903C7002E00120019000BF3C
:100D200000BF012C01DD002000E020460446002C1D
:100D300001DA012000E0204604460198012812D182
:100D4000E1B202A801F004F801200090A81B401CA9
:100D50000D225043C1B20C2302AA6C2001F0BEFD4B
:100D600001F0C2FC02E001F0BFFCAFE700BF09B038
:100D7000F0BD0000FFB58FB005460E461F460024AB
:100D80001198045F00BF012F13D1224652A107A87A
:100D900003F080FB00200090A81B401C0D2148435D
:100DA000C0B20C2307AA01460590662001F096FD0B
:100DB00023E03846FFF7CFFA02902046FFF7C0FA4B
:100DC00001900299FFF77EFA0390FFF76DFC02464F
:100DD0000B460591049041A107A803F05BFB00209E
:100DE0000090A81B401C0D214843C0B20C2307AA49
:100DF00001460590662001F071FD0020069000F08C
:100E0000D5FA012806D0022807D0032808D00428E4
:100E10000ED10AE0601C04B20AE0601E04B207E0D2
:100E2000012006901198048002E00120069000BF86
:100E300000BF2C48844200DD00E0204604462948DB
:100E40004042844200DA00E0204604460698012829
:100E50003CD1012F13D122461FA107A803F01AFB92
:100E600001200090A81B401C0D214843C0B20C2358
:100E700007AA01460590662001F030FD23E03846C0
:100E8000FFF769FA02902046FFF75AFA019002999B
:100E9000FFF718FA0390FFF707FC02460B4605918F
:100EA00004900EA107A803F0F5FA01200090A81BFA
:100EB000401C0D214843C0B20C2307AA01460590EF
:100EC000662001F00BFD01F00FFC02E001F00CFCCC
:100ED00059E700BF13B0F0BD2534640025312E3230
:100EE00066000000E703000070B5054601F0CEFA89
:100EF0002C4627E023484068012149020843214944
:100F00004860322000F02AF91E4880680121490219
:100F100008431C49886020463030C2B201230021BA
:100F2000282001F085FC01F0DFFB012C04D1192001
:100F3000400100F013F903E0134800F00FF900BF7F
:100F4000601EC4B2002CD5D10E4840680121490270
:100F500008430C494860FF202D3000F0FFF8094895
:100F600080680121490208430649886001F0BCFB02
:100F700004484030C0680121084302494031C8603C
:100F800070BD000000F00F40B6030000F0B585B062
:100F9000002500260027002003900290019064495C
:100FA000085E6449086062490220085E6249086080
:100FB0005F490420085E614908606149485F6149F2
:100FC00008605F490220085E5F4908605C490420B0
:100FD000085E5E49086000240DE0A00055490858ED
:100FE0004519A000544908588619A00053490858CB
:100FF000C719601CC4B2012CEFDB002413E0A00071
:1010000050490958039808180390A0004E49095800
:10101000029808180290A0004C4909580198081835
:101020000190601CC4B2012CE9DB2846FFF788F967
:101030008D21C9050090FFF745F945490860304604
:10104000FFF77EF98D21C9050090FFF73BF9404974
:1010500048603846FFF774F98D21C9050090FFF705
:1010600031F93B4988600398FFF76AF939490090E4
:10107000FFF728F9384908600298FFF761F9354908
:101080000090FFF71FF9344948600198FFF758F9BD
:1010900030490090FFF716F92F49886000241FE0BF
:1010A0000020C043001B800022490858614289008B
:1010B000204A50500020C043001B80001E490858A1
:1010C000614289001C4A50500020C043001B800030
:1010D0001A49085861428900184A5050601CC4B22D
:1010E000002CDDDB00241FE00020C043001B80003B
:1010F0001449085861428900124A50500020C043E8
:10110000001B800010490858614289000E4A505067
:101110000020C043001B80000C4908586142890030
:101120000A4A5050601CC4B2002CDDDB05B0F0BD93
:10113000B4F0FF1FFCF0FF1F00F1FF1F04F1FF1FC1
:10114000A8F0FF1F08F1FF1F0CF1FF1F10F1FF1F98
:101150008CF5FF1F3333834180F5FF1F10B5034625
:1011600000240DE0084800F011F800BF00BF00BFE8
:1011700000BF00BF00BF00BF00BF00BF601C84B243
:101180009C42EFD310BD0000E7030000002123E0E4
:1011900000BF00BF00BF00BF00BF00BF00BF00BF57
:1011A00000BF00BF00BF00BF00BF00BF00BF00BF47
:1011B00000BF00BF00BF00BF00BF00BF00BF00BF37
:1011C00000BF00BF00BF00BF00BF00BF00BF00BF27
:1011D00000BF00BF4A1C91B242008A42D8D8704773
:1011E00010B5002004F098F9012004F095F9144896
:1011F0008069012189028843114988610846406954
:10120000091588430E4948610E488068091508434E
:101210000C4988600A484030806920218843084989
:1012200040318861084640692021884304494031A3
:1012300048610448C068202108430249C86010BDC5
:1012400000F00F400090044010B58300034CE358B9
:101250000C33CC001B195A6010BD00008C3C0100FF
:1012600070B5044600222146682004F0C3FC054600
:10127000601CC1B20022682004F0BCFC06462802B3
:10128000304300B270BD0000F0B589B02D498868C8
:101290008D21C905FEF7D9FF2A49079048688D219D
:1012A000C905FEF7D2FF2749069008688D21C905B8
:1012B000FEF7CBFF244905908868FFF7F5F906464D
:1012C000224A234BFFF756F903225207214B019183
:1012D0000090FFF74FF90446FFF7FAF91A49049016
:1012E0004868FFF7E1F90446184A194BFFF742F93D
:1012F000064603225207174BFFF73CF90191009075
:10130000FFF7E6F9104903900868FFF7CDF90446A6
:101310000E4A0F4BFFF72EF9032252070D4B019196
:101320000090FFF727F90646FFF7D2F902900799D8
:1013300006980191009002A80FC800F061FA09B068
:10134000F0BD00008CF5FF1F80F5FF1F2877442AB1
:101350003174513F6666304010B504460C2C1ED0E7
:1013600004DC002C07D0012C1ED109E00D2C11D07B
:101370000E2C19D109E003210020FFF7F9FB10BD65
:1013800003210120FFF7F4FBF9E703210E20FFF70B
:10139000EFFBF4E703210D20FFF7EAFBEFE7C8219D
:1013A0000C20FFF7E5FBEAE700BFE8E7FEB5002009
:1013B00001908F48006980210840002843D18D4862
:1013C0000078FFF7CBFE8A4800698021084000289A
:1013D00036D189480088401C874908800846008823
:1013E000322803DD01208349087016E08248008816
:1013F0000C2803DD0A207F4908700EE07E48008833
:10140000062803DD1E207B49087006E07A48008824
:10141000032802DD322077490870012001907448CA
:101420004068012149020843714948600220FFF7E2
:1014300095FE6F4880680121490208436C49886025
:1014400068460079FEBD6A480069402108400028CE
:1014500043D168480078FFF781FE65480069402164
:101460000840002836D164480088401C6249088042
:1014700008460088322803DD01205E49087016E026
:101480005D4800880C2803DD0A205A4908700EE0E8
:1014900059480088062803DD1E205649087006E0DA
:1014A00055480088032802DD322052490870022086
:1014B00001904F4840680121490208434C49486067
:1014C0000220FFF74BFE4A48806801214902084389
:1014D0004749886068460079B4E74548403000696C
:1014E0001021084000282AD142480078FEF74EFF1C
:1014F0000446424A424BFFF73DF80646FFF7B6F86E
:101500000090FFF72BFE3A48403000691021084058
:10151000002811D1364840684901084334494860E1
:101520000220FFF71BFE3248806801214902084370
:101530002F498860032001906846007982E72C4893
:1015400040300069012189020840002820D1294843
:101550000078FFF703FE2648403000690121890228
:101560000840002811D1224840684910084320490A
:1015700048600220FFF7F2FD1D4880680121490202
:1015800008431B498860042001906846007959E7A8
:1015900017484030006901214902084000281FD146
:1015A00014480078FFF7DAFD114840300069012146
:1015B00049020840002810D10D48406808430C49F2
:1015C00048600220FFF7CAFD0948806801214902EE
:1015D000084307498860052001906846007931E793
:1015E00046200449087000200349088000BF29E70D
:1015F00000F00F4002F0FF1F00F0FF1F9A99999929
:101600009999F13F10B504462848406908210843DC
:1016100026494861084680680821084323498860B4
:10162000084640690421084320494861084640684B
:10163000042108431D494860002C0CD0084640692D
:101640000421084319494861084680680421084379
:10165000164988600BE01548406904210843134986
:101660004861084640680421084310494860012049
:10167000FFF78CFD0D484069082108430B4948617C
:101680000846406808210843084948600120FFF7E0
:101690007DFD064840690821084304494861084621
:1016A0008068082108430149886010BD00F00F40A0
:1016B0000C484069082108430A49486108464068C7
:1016C0000821084307494860084640690421084347
:1016D00004494861084640680421084301494860BC
:1016E0007047000000F00F4010B521484069042108
:1016F00008431F49486108464068042108431C49C3
:101700004860084640690421084319494861084671
:10171000406804210843164948600846406908218A
:1017200008431349486108464068082108431049A6
:1017300048600220FFF72AFD0D4840690421084354
:101740000B494861084680680421084308498860BD
:101750000220FFF71BFD06484069082108430449A1
:10176000486108468068082108430149886010BD27
:1017700000F00F4010B521484069042108431F497B
:10178000486108464068042108431C4948600846EF
:1017900040690821084319494861084680680821C2
:1017A00008431649886008464069042108431349E4
:1017B0004861084680680421084310498860022077
:1017C000FFF7E4FC0D484069082108430B494861D4
:1017D00008464068082108430849486008464069AF
:1017E000042108430549486108464068042108432C
:1017F000024948600220FFF7C9FC10BD00F00F400D
:101800000FB59DB0FE4801680068FEF71EFD1590FB
:10181000FC480168FA480068FEF717FD1490FA4882
:101820000168F7480068FEF710FD1390F54801685D
:101830000068FEF70AFD1290F4480168F14800685C
:10184000FEF703FD1190F04801680068FEF7FDFC0B
:101850001090EE480168EC480068FEF7F6FC0F9027
:10186000EA4801680068FEF7F0FC0E9023990846EC
:10187000FEF7EBFC089022990846FEF7E6FC06907E
:1018800020990846FEF7E1FC05900699FEF784FCD6
:1018900007900899FEF780FC0990FEF705FF0B9171
:1018A0000A9004F0DBF90D910C90FEF711FF1C90EB
:1018B0001C992098FEF706FD20901C992298FEF7AF
:1018C00001FD22901C992398FEF7FCFC23901399AC
:1018D0001198FEF7B2FC012189070D90FEF7B5FCC7
:1018E0001B900F991498FEF757FC012189070D9062
:1018F000FEF7ABFC1A9012991598FEF79EFC0C901F
:101900001099FEF79AFC0D900E99FEF745FC199080
:101910001A992398FEF799FC0D9019992298FEF7D1
:1019200094FC0C900D99FEF788FC1890199920985A
:10193000FEF78BFC0D901B992398FEF786FC0C900C
:101940000D99FEF77AFC17901B992298FEF77DFC03
:101950000D901A992098FEF778FC0C900D99FEF7DF
:101960006CFC1690AA491898FEF76FFC0D90A948D8
:1019700001680D98FEF710FCA6490860A449179865
:10198000FEF763FC0D90A44801680D98FEF704FC77
:10199000A14908609E491698FEF757FC0D909F4894
:1019A00001680D98FEF7F8FB9C4908609C4818995F
:1019B000FEF74BFC0C901D99FEF7EEFB0D90954841
:1019C00001680D98FEF7E8FB1D9095481799FEF702
:1019D0003CFC0C901E99FEF7DFFB0D908E480168D1
:1019E0000D98FEF7D9FB1E908D481699FEF72DFC39
:1019F0000C901F99FEF7D0FB0D90884801680D9858
:101A0000FEF7CAFB1F9081481F990068FEF71DFC76
:101A10000B907D481E990068FEF717FC09907948E5
:101A200000680121C907484007901D99FEF70DFC89
:101A300008900999FEF701FC0A900B99FEF7FDFB4F
:101A400078490C90FEF701FC0D906D4801680D98E7
:101A5000FEF7A2FB6A4908606C481E990068FEF711
:101A6000F4FB0B9068481F990068FEF7EEFB0990A5
:101A7000634801681D98FEF7E8FB08900999FEF796
:101A80008BFB0A900B99FEF7D8FB66490C90FEF78A
:101A9000DCFB0D905B4801680D98FEF77DFB594912
:101AA00008605A4801681D98FEF7CFFB0B90554817
:101AB0001F990068FEF7C9FB099051481E990068FC
:101AC000FEF7C3FB08900999FEF7B7FB0A900B9944
:101AD000FEF762FB53490C90FEF7B7FB0D904A48A6
:101AE00001680D98FEF758FB4749086008460168F1
:101AF0001D98FEF7AAFB0B9042481E990068FEF75E
:101B0000A4FB09903E481F990068FEF79EFB0890D1
:101B10000999FEF741FB0A900B99FEF78EFB4149AC
:101B20000C90FEF792FB0D90384801680D98FEF777
:101B300033FB36490860084601680068FEF785FBFC
:101B40000890314801680068FEF77FFB06902D4839
:101B500001680068FEF779FB049029480168006875
:101B6000FEF773FB03900499FEF716FB05900699A8
:101B7000FEF712FB07900899FEF70EFB0990FEF79F
:101B800093FD0B910A9004F069F80D910C90FEF70B
:101B90009FFD1C901A481C990068FEF793FB18499A
:101BA000086018481C990068FEF78CFB154908600E
:101BB00015481C990068FEF785FB13490860134817
:101BC0001C990068FEF77EFB104908600C4801680C
:101BD00001208007FEF739FB04900B480168049848
:101BE000FEF733FB06900748016803208007FEF7E5
:101BF0002CFB0490054801680498FEF726FB13E0CF
:101C0000E0F0FF1FE4F0FF1FE8F0FF1FECF0FF1F04
:101C10006F12833AF0F0FF1FF4F0FF1FF8F0FF1F80
:101C2000CDCCCC3F0AD7A33B05900699FEF7B4FA7A
:101C30000790FEF739FD0991089003F057F93B4AE8
:101C40003B4B0B910A90FEF795FC0D910C90FEF723
:101C50003FFD384908603848016801208007FEF7D9
:101C6000F4FA0190344801680198FEF7EEFA039007
:101C70003248016803208007FEF7E7FA01902F48F9
:101C800001680198FEF7E1FA02900399FEF7D5FA90
:101C90007F21C9050490FEF77FFA0590FEF704FD49
:101CA000099108902648016801208007FEF7CDFAC7
:101CB0000290214801680298FEF7C7FA0490214873
:101CC000016801208007FEF7C0FA02901B480168F6
:101CD0000298FEF7BAFA03900499FEF75DFA0590B0
:101CE000FEF7E2FC07910690099B089A03F046FB79
:101CF0000E4A0F4B0B910A90FEF73CFC0D910C9095
:101D0000FEF7E6FC1049086000210F480068FEF766
:101D100065FB05D20C4801680C48FEF73DFA01E06E
:101D2000094800680849086021B000BD666666661B
:101D300066A64C409CF0FF1FECF0FF1FE8F0FF1F71
:101D4000E0F0FF1FE4F0FF1FA4F0FF1F0000B4430A
:101D500070B505460C46002C02D0012C0AD104E0D7
:101D600008A1284602F096FB09E007A1284602F0E8
:101D700091FB04E005A1284602F08CFB00BF00BFE8
:101D800070BD00004F4646004F4E20003F3F3F00D1
:101D900010B500F07BFBA44840680121C907084347
:101DA000A1494860084640680121490408439E490A
:101DB0004860002400F080FB34E1072C01D10020B2
:101DC00000E020460446230002F08FFB07052D4566
:101DD000566882A3CB0094484030406802210843F3
:101DE0009149403148600846406801214904084350
:101DF0008D49403148600846406801210904084384
:101E00008949403148600846806802210843864974
:101E100040318860084680680121490408438249AE
:101E2000403188609DE0804840304068022108438E
:101E30007D49403148600846406801214904084313
:101E40007949403148600846806802210843764954
:101E50004031886085E07448403040680221084382
:101E600071494031486008468068012149040843AF
:101E70006D494031886074E06B4840304068012112
:101E80004904084368494031486008468068012198
:101E90000904084364494031886062E06248403088
:101EA00040680121090408435F4940314860084601
:101EB00080680121490408435B4940318860084635
:101EC000806801210904084357494031886048E08F
:101ED0005548403040680121490408435249403187
:101EE0004860084640680121090408434E494031D2
:101EF000486008468068022108434B4940318860A9
:101F00000846806801210904084347494031886038
:101F100027E04548403040680221084342494031AB
:101F20004860084640680121090408433E494031A1
:101F3000486008468068022108433B494031886078
:101F400008468068012149040843374940318860C8
:101F500008468068012109040843334940318860FC
:101F600000BF00BF601CC4B2FFF720FA002813D1E5
:101F70002E49085EFF215F3188420DDC2B4900208D
:101F8000085E2B49884207DB2A480088C82803DB03
:101F900029480088C82801DA012000E00020002834
:101FA00000D111E0204880680121C90708431E497B
:101FB0008860084680680121490408431A498860FE
:101FC00000F088FA002010BD00BF18490020085E0C
:101FD000FEF7B6F91949086019490020085EFEF7B6
:101FE000AFF91649486017480068886011480088B2
:101FF000FEF7B1F91149C8600F480088FEF7ABF948
:102000000E4908610C4909880A4A1288881AFEF7A5
:1020100097F90A4948610C480068886101F0A8F8FE
:1020200001F0B2F8C9E6000000F00F4074F0FF1FA5
:10203000A2FEFFFF68F0FF1F6AF0FF1F30F5FF1FD1
:1020400076F0FF1F9CF0FF1FA4F0FF1F314880694E
:10205000802188432F498861084640698021884350
:102060002C4948612C488068802108432A498860AF
:10207000284880694021884326498861084640698C
:102080004021884323494861234880684021084310
:10209000214988601F4840308069102188431D49CC
:1020A0004031886108464069102188431949403110
:1020B00048611948C068102108431749C86015488D
:1020C00040308069091588431249403188610846CB
:1020D0004069091588430F49403148610E48C0687E
:1020E000091508430C49C8600A4840308069491501
:1020F000884308494031886108464069491588434A
:102100000449403148610448C06849150843024900
:10211000C860704700F00F400090044014484069C8
:1021200002210843124948610846406802210843D9
:102130000F494860084640690121490408430C4999
:10214000486108464068012149040843084948603D
:1021500008464069012109040843054948610846C9
:1021600040680121090408430149486070470000A4
:1021700040F00F4070B504460D4621480078002815
:1021800024D03B20FFF76CF828803D20FFF768F84B
:1021900068803F20FFF764F8A8804320FFF760F8CD
:1021A00018490988401A00B220804520FFF758F8E6
:1021B00014494988401A00B260804720FFF750F860
:1021C00010498988401A00B2A08017E03B20FFF731
:1021D00047F828803D20FFF743F868803F20FFF74D
:1021E0003FF8A8804320FFF73BF820804520FFF709
:1021F00037F860804720FFF733F8A08070BD0000FB
:10220000DCF0FF1FAEF0FF1F10B50A20FEF7A6FF9F
:1022100080226B21682003F00DFD0A20FEF79EFF4F
:1022200000226B21682003F005FD0A20FEF796FFCF
:1022300001226B21682003F0FDFC0A20FEF78EFFCF
:1022400018221B21682003F0F5FC0A20FEF786FF08
:1022500000221C21682003F0EDFC0A20FEF77EFF1F
:1022600000221921682003F0E5FC0A20FEF776FF22
:1022700001221A21682003F0DDFC6420FEF76EFFC6
:1022800000227521682003F0B5FC682809D10A20D6
:10229000FEF764FF00F008F80A20FEF75FFF002059
:1022A00010BD0120FCE700003EB5FA25002000909B
:1022B000019002901C49088048808880002418E022
:1022C0001A491B48FFF756FF0120FEF747FF184940
:1022D00000228A5E00988018009002228A5E01988F
:1022E0008018019004228A5E029880180290601C77
:1022F000C4B2AC42E4DB29460098FDF715FF00B2FA
:102300000949088029460198FDF70EFF00B20649E9
:10231000488029460298FDF707FF00B202498880ED
:102320000120044908703EBDAEF0FF1FB4F0FF1F4E
:10233000A8F0FF1FDCF0FF1F10B50023194A03218E
:10234000022003F07BF90023164A0221084603F01D
:1023500075F9154840690121C907084312494861C8
:1023600008468068C90408430F49886000230D4A65
:102370001946022003F062F900230A4A05210220CF
:1023800003F05CF908484069012149040843064903
:102390004861084680680121490408430249886071
:1023A00010BD0000D430000000F00F4010B504460E
:1023B000224603210220FEF747FF012202210846A0
:1023C000FEF742FF10BD10B5044601220321022092
:1023D000FEF73AFF224602210846FEF735FF10BD00
:1023E00010B50446224600210220FEF72DFF0122EF
:1023F00005210220FEF728FF10BD10B5044601227A
:1024000000210220FEF720FF224605210220FEF7D0
:102410001BFF10BD10B5002819DA1A4A03071B0F5D
:10242000083B9B089B00D2588307DC0EFF23A34088
:102430009A438B071B0E8407E40EA3401A43114BEB
:102440000407240F083CA408A4001A5118E00E4AFF
:1024500003231B02D21883089B00D2588307DC0E8B
:10246000FF23A3409A438B071B0E8407E40EA3406F
:102470001A43054B032424021B198408A4001A5193
:1024800010BD00001CED00E000E100E010B50020F0
:102490000CE0002106E00022CB00064C1B191A5468
:1024A0004A1CD1B28029F6DB411CC8B20828F0DBF7
:1024B00010BD000018F1FF1F00B500218D2000F0B5
:1024C000AFFA0021102000F0ABFA0021AE2000F09E
:1024D000A7FA00BD00B500218D2000F0A1FA00216F
:1024E000142000F09DFA0021AF2000F099FA00BD01
:1024F000F7B57F2801DC3F2900DDFEBD0C46CE1775
:10250000760F3619F6100727BE1BF2B2CE17760FDC
:102510003619F610F6008E1BF5B20724661B01244F
:10252000B440E3B2029C002C09D0C400094EA419A7
:10253000A45C1C43C600074FF619B45408E0C4005D
:10254000044EA419A45C9C43C600024FF619B4546F
:1025500000BFD2E718F1FF1F00B5624840690121B2
:10256000C90608435F494861084640680121C90619
:1025700008435C49486008464069012189060843D0
:102580005849486108464068012189060843554971
:1025900048605448403040698915084351494031EA
:1025A000486108464068891508434E4940314860F3
:1025B0004C484069890508434A49486108464068D3
:1025C000012109070843474948600846406801213E
:1025D00009070843434948604248403080688915EC
:1025E00008434049403188607D20400107E0642174
:1025F00001E04A1E91B20029FBDC411E88B200288E
:10260000F5DC384840304068FF2101310843354946
:10261000403148600021AE2000F002FA0021D520B0
:1026200000F0FEF90021802000F0FAF90021A82036
:1026300000F0F6F900213F2000F0F2F90021D3204C
:1026400000F0EEF90021084600F0EAF900214020F0
:1026500000F0E6F900218D2000F0E2F900211420BD
:1026600000F0DEF90021202000F0DAF9002102203C
:1026700000F0D6F90021A12000F0D2F90021C020FD
:1026800000F0CEF90021DA2000F0CAF90021122072
:1026900000F0C6F90021812000F0C2F90021EF20EE
:1026A00000F0BEF90021D92000F0BAF90021F12094
:1026B00000F0B6F90021DB2000F0B2F90021302053
:1026C00000F0AEF90021A42000F0AAF90021A62014
:1026D00000F0A6F90021AF2000F0A2F9FFF7D6FE26
:1026E00000BD000000F00F4030B500241CE0214682
:1026F000B031C8B2002100F093F90021084600F083
:102700008FF90021102000F08BF9002508E0E90086
:10271000074A8918085D012100F082F9681CC5B2DA
:10272000802DF4DB601CC4B2082CE0DB30BD00005F
:1027300018F1FF1FFFB584B00E4615461C460296E1
:102740002046E3175B0F1B18DB102246E7177F0FAD
:10275000BF18FF10FF00E71B01D0012700E0002792
:10276000DB192146E70F7F187F107B43DBB2019313
:1027700028462038C5B200274FE00C2C04D0102C7E
:1027800009D0182C14D10CE00C20684325494018BE
:10279000C05D03900DE0280123494018C05D0390FF
:1027A00007E02420684321494018C05D039000E001
:1027B00000BF00BF0020009029E08021039808405E
:1027C000002805D031460D9A0498FFF791FE0AE0E3
:1027D0000D98002801D1012000E00020024631467A
:1027E0000498FFF785FE03984006000E0390701CC6
:1027F000C6B20298301AA04205D1029E0498401C2D
:10280000C0B2049006E00098401CC0B2009000984E
:102810000828D2DB00BF781CC7B201988742ACDB26
:1028200008B0F0BD8C23010000280100F02D01004C
:10283000FFB581B00646002407E02548015D0398F6
:10284000814200D103E0601CC4B2092CF5DB00BF5B
:102850000394002438E000272BE0FF218131039806
:1028600048431C49411806206043C019085C009089
:1028700000251AE01848405D00990840002805D05E
:102880003046049A0299FFF733FE0AE004980028C4
:1028900001D1012000E00020024630460299FFF7F6
:1028A00027FE701CC6B2681CC5B2082DE2DB781C7E
:1028B000C7B2062FD1DB0298401CC0B2029030464E
:1028C0003038C6B2601CC4B2402CC4DB05B0F0BDC9
:1028D000A45C000020F300004C3B0100FFB581B078
:1028E000064614461D460A9F0DE0009722782B46A7
:1028F00030460299FFF71EFF2846E90F09184910D4
:102900008919CEB2641C20787E2802DC2078202829
:10291000EBDA05B0F0BDF8B505460F4614461E4685
:102920001FE02078002800D11CE020787E280DDCF4
:10293000207820280ADB009622780C233946284686
:10294000FFF7F8FEA81DC5B2641C0AE00096637884
:1029500022783946284600F007F828460C30C5B2E0
:10296000A41CDEE700BFF8BDFFB581B00646002419
:102970000DE02848015D0398814206D12549601C7D
:10298000095C0498814200D103E0A01CC4B2642C0D
:10299000EFDB00BF0394002437E000272AE0FF218B
:1029A0008131039848431C4940186100C919405CB3
:1029B000009000251AE01948405D00990840002861
:1029C00005D030460A9A0299FFF792FD0AE00A986C
:1029D000002801D1012000E0002002463046029983
:1029E000FFF786FD701CC6B2681CC5B2082DE2DB7D
:1029F000781CC7B2022FD2DB0298401CC0B20290F2
:102A000030461038C6B2601CC4B20C2CC5DB05B011
:102A1000F0BD0000BC5C0000205D00004C3B0100EC
:102A200010B5002902D0012910D107E0204A926890
:102A300001231B071A431E4B9A6007E01C4A526889
:102A400001231B071A431A4B5A6000BF00BF002224
:102A500024E0174B9B680124E4062343144CA36035
:102A600080230340002B07D023465B680124A40683
:102A700023430F4C636006E00D4B9B680124A406C2
:102A800023430B4CA3600A4B5B680124E4062343F9
:102A9000074C63604306180E531CDAB2082AD8DBD1
:102AA000034A526801231B071A43014B5A6010BDA9
:102AB00000F00F40F0B595B0FE48C0680121084312
:102AC000FC49C860FC49FD48FFF754FBFEF75EFA7D
:102AD000FEF7DAFBFA490420085E0A21FDF724FB21
:102AE0001390FDF72DFC0746F64841683846FDF780
:102AF000ACFB0546F2491E20085EFDF721FC129052
:102B0000F14801681298FDF79CFB0746EC4900204C
:102B1000085EFDF715FC39461390FDF796FB064657
:102B20002946FDF739FB0446FDF73EFCE7490860FE
:102B3000E7480069012189020840002803D102F01A
:102B4000E1FC404202E0002002F0DCFC00B2E1497E
:102B50000880DF484030006920210840002803D168
:102B6000012002F0CFFC03E0012002F0CBFC404248
:102B700000B2D9490880D74A0021515ED64A0023C5
:102B8000D35EC818C10F09184A10CD49098C891A9B
:102B900009B2D24A11800020D1490860D148C088CA
:102BA000D049088108468088C880084640888880C7
:102BB00008460088488011460020085EC949088000
:102BC0000020085E02228A5E801804228A5E801835
:102BD00006228A5E801808228A5E8018C249086030
:102BE000B7490C228A5EC04909684A4310466421ED
:102BF000FDF79AFAB24A0A21515EB84A0023D35E21
:102C00005A4251434018B9490860002002F072FC52
:102C1000012002F06FFCAA4A1E21515EC81CFDF77C
:102C20008FFB0446A84801682046FDF7D7FB0FD26A
:102C3000A34A1E21515EC81EFDF782FB0446A2482E
:102C400001682046FDF760FD02D20020A749086018
:102C50000E20FEF781FB0646FDF77DFB0546294663
:102C6000A34802F00DFE0446FDF7ECFCA1490880E4
:102C70000D20FEF771FB0646FDF76DFB0546294664
:102C80009B481C3802F0FCFD0446FDF7DBFC9A492A
:102C900008808F4880680121490208438C49886078
:102CA00096480078002804D095480088401C944934
:102CB0000880914800889349884229DD92498248DA
:102CC0000068FDF78BFB23D28A4800888D49884233
:102CD0001EDD8B48008850281ADA012087490870C9
:102CE0008A4800688A490860794840680121490299
:102CF00008437749486072491A228A5E7D490988EB
:102D00004A4310460A21FDF70FFA7A49088008E085
:102D10007B480088C82804DD00207849087078497D
:102D200008807C490020085E7B4908807248008842
:102D300070490988401A00B2764908800020085E70
:102D4000FDF7FEFA0646FDF7AFFC0446734A744BE6
:102D5000FDF710FC0F910E906E490020085EFDF704
:102D600001FB04460D466B490020085EFDF7E8FABA
:102D70000590FDF799FC06466A4A6B4BFDF7FAFB96
:102D800022462B4607910690FDF7F4FB0B910A9023
:102D900060490020085EFDF7E5FA079106905D495D
:102DA0000020085EFDF7CCFA0646FDF77DFC039196
:102DB000029058490020085EFDF7C2FA0190FDF725
:102DC00073FC0646594A5A4BFDF7D4FB0446039B55
:102DD000029AFDF7CFFB05910490079B069AFDF739
:102DE000C9FB099108900B9B0A9AFDF711FB0D9105
:102DF0000C900F9B0E9AFDF70BFB4E4A4E4B119118
:102E00001090FDF7A9FB13911290FDF761FC4B495F
:102E1000086038480088FA280CDA3748008873219F
:102E2000C900884206DA34480088FA2802DD44489E
:102E3000424908602F480088FF21913188420EDD09
:102E40002C4800887321C900884208DA2A48008883
:102E5000FF219131884202DA3A48384908602D4A08
:102E60000021515E2C4A0023D35EC91A144A18234C
:102E7000D35E59430846FDF763FA0646104914200D
:102E8000085EFDF75DFA07462C4801683846FDF7F5
:102E9000DCF904463146FDF77FF90546FDF784FA73
:102EA00029490860094800681049096840182649FE
:102EB00009684BE000710340B4F0FF1FA8F0FF1F4A
:102EC00004F0FF1F80F5FF1F9CF0FF1F54F0FF1F51
:102ED00000F00F4074F0FF1F76F0FF1F78F0FF1F27
:102EE00084F0FF1F18F5FF1F7CF0FF1F58F0FF1F35
:102EF000D8F5FF1F68F0FF1F6AF0FF1F8DF0FF1F5E
:102F00008EF0FF1F1A040000000090C1A4F0FF1F04
:102F100090F0FF1F70F0FF1F72F0FF1FD4B7CCE9D5
:102F2000B298883F1C0CD01154E8C7BE9FB7BB4E67
:102F3000D6A8353EB115342DB1327A3F88F0FF1F47
:102F4000000050C1000050415CF0FF1F401A33499F
:102F500008603348006833490968401832490968F5
:102F60004018324908602D480068002811DA2B48C3
:102F70000068404229490860084600682C49884298
:102F800002DB08462549086024480068FFF71BFA61
:102F90000BE0224800682649884202DB08461F49A8
:102FA00008601E480068FFF701FA20480068002802
:102FB00011DA1E48006840421C4908600846006853
:102FC0001B49884202DB0846184908601748006818
:102FD000FFF713FA0BE0154800681549884202DB39
:102FE00008461249086011480068FFF7F9F91148CE
:102FF0004068022108430F494860084640680121A3
:10300000490408430B494860084640680121090407
:1030100008430849486015B0F0BD000060F0FF1F8C
:1030200054F0FF1F58F0FF1F5CF0FF1F64F0FF1FFC
:103030004E0C000040F00F400348C16901200143DD
:103040000148C161704700000071034070B504463B
:103050000D4616461F484069022108431D49486134
:103060001D480068022188431B490860204616302D
:10307000C206D20E01219140184A116000BF1848C3
:103080006843184922018850084621014018806889
:10309000022108431349220189188860114821013F
:1030A00040188168012001430E4822018018816088
:1030B0002146163148B23146FFF7ACF920461630AA
:1030C000C206D20E01219140044A803A116000BF2D
:1030D00070BD0000008004400070034080E100E00B
:1030E000409C00000071034010B500241E48806918
:1030F000042188431C4988610846406904218843AB
:1031000019494861194880680421084317498860B3
:10311000154840690821084313494861084640683A
:1031200008210843104948600020FEF72FF807E007
:10313000601CC4B2FA2C03DDFEF71CFB012010BD9D
:1031400009480069042108400028F1D10648406977
:10315000082108430449486108468068082108435B
:10316000014988600020EAE700F00F400090044029
:1031700010B5552002F07EFCAA2002F07BFCAE20A8
:1031800002F078FC10BD0000F8B500260020009089
:103190000A25552002F06EFCAA2002F06BFCAD203F
:1031A00002F068FC284602F065FC002419E0A0004B
:1031B0000F490858009068460678304602F05AFCDD
:1031C00068464678304602F055FC684686783046B8
:1031D00002F050FC6846C678304602F04BFC601C9A
:1031E000C4B2AC42E3DB0D2002F044FCF8BD0000A9
:1031F00030F5FF1F1349144A91800121517023219A
:103200001170112000050146104A51621049497899
:103210000907090F0E4A517094210E4A11701A21A4
:103220000B4A117000BF0A49097910221140002988
:10323000F9D100BF064909790C2211400029F9D1C2
:103240007047000003E800000020054000800440B3
:103250000040064000500640F3B581B00646B0007D
:1032600049490C58002E04D0012E22D0022E62D1E2
:1032700040E04648C068802188434449C860084609
:103280004069012109050843404948614048C07828
:10329000082108433E49C8700846C0780421084305
:1032A0003B49C8700846C078202108433849C87097
:1032B00000BF36480069012109038843334908618A
:1032C00008464069012149050843304948613148B1
:1032D000C078082108432F49C8700846C0780421E7
:1032E00008432C49C8700846C07820210843294962
:1032F000C87021E02548006901214903884323491A
:103300000861084640690121890508431F49486151
:103310002148C078082108431F49C8700846C07872
:10332000042108431C49C8700846C078202108437E
:103330001949C87000E000BF00BFE0780C21884345
:10334000E0700020A07015480299FCF7D7FE471DD9
:103350000A213846FCF7D2FE85B21148854200DDCD
:10336000054620784009400120702078E904C90E04
:103370000843207065700020A070A0716071E07833
:103380000C210843E070FEBD803C01000080044039
:1033900000A0064000B0064000C0064040787D0115
:1033A000FF1F000030B502460B4690000B4D2C5815
:1033B000002108E0207980252840002801D0E37111
:1033C00004E0481CC1B206488142F3DB00BF044858
:1033D000814201DB012030BD0020FCE7803C010080
:1033E000BBFB0000F0B5CDB001250026012400276D
:1033F000FFF74CF8FF222D32774902A8FCF7A8FE10
:10340000012302AA00210846FFF785FA1E20604327
:1034100002A9421801230D210020FFF77CFA601C4D
:103420001E21484302A9421801231A210020FFF758
:1034300072FAA01C1E21484302A942180123272129
:103440000020FFF768FAE01C1E21484302A9421839
:10345000012334210020FFF75EFA00BF2E462746E5
:10346000FDF7A4FF012806D0022807D003280BD0BF
:1034700004281CD105E0681EC5B218E0681CC5B25E
:1034800015E000204DB0F0BD012D06D0022D06D074
:10349000032D06D0042D08D105E01F20F2E72020DF
:1034A000F0E72120EEE72220ECE70020EAE700BF6A
:1034B000012D01DA092000E028460546092D01DD2D
:1034C000012000E028460546A54201DA284600E032
:1034D00020460446E81EA04200DD00E02046C4B2BB
:1034E000AE421FD001200C2320221946009018461E
:1034F000FFF720F901200C23202219210090184603
:10350000FFF718F901200C232022262100901846ED
:10351000FFF710F901200C232022322100901846D9
:10352000FFF708F9A74226D01E20604302A94218DF
:1035300001230D210020FFF7EEF9601C1E214843F6
:1035400002A9421801231A210020FFF7E4F9A01C68
:103550001E21484302A94218012327210020FFF71A
:10356000DAF9E01C1E21484302A942180123342144
:103570000020FFF7D0F9A54208D101200C234022FA
:10358000194600901846FFF7D5F822E0601C8542E6
:1035900008D101200C234022192100901846FFF782
:1035A000C9F816E0A01C854208D101200C23402256
:1035B000262100901846FFF7BDF80AE0E01C85427E
:1035C00007D101200C234022322100901846FFF73A
:1035D000B1F8FFF789F841E7543B010038B5012401
:1035E000FEF754FF00BF01200C231BA20021009016
:1035F0000620FFF773F920463030C2B201230021C4
:103600002820FFF715F9FDF7D1FE030000F06DFF4C
:10361000061304070A101213601C44B20BE0601E6C
:1036200044B208E0E0B2FDF75FFCFEF7B1FB00BF7B
:10363000002038BD00BF00BF052C01DB052000E0E5
:1036400020460446002C01DC002000E02046044611
:10365000FFF74AF8C7E700003C00000070B58AB0E9
:103660000026FEF713FF012322A200210846FFF7E0
:1036700052F900BFFDF79AFE042802D103200AB0D8
:1036800070BD22480068FDF70FF8044622460B463D
:103690001FA102A800F0FEFE01200C2302AA1421A3
:1036A00000900020FFF71AF91E480222825E1EA138
:1036B00002A800F0EFFE01200C2302AA21210090B5
:1036C0000020FFF70BF91C480068FCF7EDFF0446EB
:1036D00022460B4619A102A800F0DCFE01200C23B3
:1036E00002AA2E2100900020FFF7F8F8FEF7FCFF59
:1036F000C0E70000203C20202020CDD32020C2DDC8
:103700002020D2C720202020202000009CF0FF1F76
:1037100050495443483A2025332E32662020202039
:1037200000000000A8F0FF1F475F593A20253564CC
:103730002020202000000000A4F0FF1F5961773AEC
:103740002025332E32662020202000001CB50120C9
:1037500001900024FEF79AFE01235AA20021084698
:10376000FFF7D9F801235DA20D210020FFF7D3F860
:10377000012360A21A210020FFF7CDF8012363A2E4
:1037800027210020FFF7C7F8012366A2342100207B
:10379000FFF7C1F800BF68460479FDF707FE01286E
:1037A00004D0022808D0032821D10BE06846007914
:1037B000401EC1B201911BE068460079401CC1B2B5
:1037C000019115E068460079012806D0022806D04C
:1037D000032806D0042808D105E001201CBD0220E2
:1037E000FCE70320FAE70420F8E70020F6E700BF33
:1037F00000BF68460079012801DA042101E068462B
:103800000179019168460079042801DD012101E078
:103810006846017901916846007984421FD00120F1
:103820000C232022194600901046FEF783FF01204A
:103830000C232022192100901046FEF77BFF012067
:103840000C232022262100901046FEF773FF012052
:103850000C232022322100901046FEF76BFF6846B1
:103860000079012806D002280DD0032814D004289E
:1038700024D11AE001200C23402219460090202078
:10388000FEF758FF1AE001200C2340221921009076
:103890002020FEF74FFF11E001200C2340222621BB
:1038A00000902020FEF746FF08E001200C23402274
:1038B000322100902020FEF73DFF00BF00BFFEF741
:1038C00013FF68E7202020202020D6F72020B2CB4D
:1038D0002020B5A52020202020200000202020200E
:1038E00020202020B7A220B3B52020202020202097
:1038F000202000002020202020202020B7BD20B044
:10390000B82020202020202020200000202020205F
:1039100020202020CDE220C9E820202020202020C7
:10392000202000002020202020202020C9E820D6B0
:10393000C32020202020202020200000F0B5FFB050
:103940009AB0012500260124002700209890FEF758
:103950009DFD02A800F02CFC012302AA00210846CC
:10396000FEF7D9FF1E20604302A9421801230D2152
:103970000020FEF7D0FF601C1E21484302A9421818
:1039800001231A210020FEF7C6FFA01C1E21484378
:1039900002A94218012327210020FEF7BCFFE01CEA
:1039A0001E21484302A94218012334210020FEF7BA
:1039B000B2FF00BF2E462746FDF7F8FC012806D0CF
:1039C000022807D003280CD0042864D105E0681E23
:1039D000C5B260E0681CC5B25DE000207FB01AB0DF
:1039E000F0BD2B0000F081FD0B56070E161E262E93
:1039F000363E464E56000123754A21462846FDF7BD
:103A0000B9F947E00123724A921C21462846FDF786
:103A1000B1F93FE001236E4A1E3A21462846FDF7E0
:103A2000A9F937E00A236A4A1A3A21462846FDF7DF
:103A3000A1F92FE00123664A143A21462846FDF7F2
:103A400099F927E06423624A123A21462846FDF795
:103A500091F91FE001235E4A0A3A21462846FDF704
:103A600089F917E001235A4A921F21462846FDF79B
:103A700081F90FE00123564A121F21462846FDF71F
:103A800079F907E00123524A921E21462846FDF7A4
:103A900071F900BF00BF00BF012D01DA102000E066
:103AA00028460546102D01DD012000E02846054688
:103AB000A54201DA284600E020460446E81EA0425E
:103AC00000DD00E02046C4B2AE4202D19898012841
:103AD00023D101200C232022194600900620FEF756
:103AE00029FE01200C232022192100900620FEF738
:103AF00021FE01200C232022262100900620FEF723
:103B000019FE01200C232022322100900620FEF70E
:103B100011FE02A800F04CFB00BFA74226D01E20D9
:103B2000604302A9421801230D210020FEF7F3FE95
:103B3000601C1E21484302A9421801231A210020BB
:103B4000FEF7E9FEA01C1E21484302A942180123EA
:103B500027210020FEF7DFFEE01C1E21484302A9BA
:103B60004218012334210020FEF7D5FEA54208D1DA
:103B700001200C234022194600900620FEF7DAFDB2
:103B800022E0601C854208D101200C23402219212B
:103B900000900620FEF7CEFD16E0A01C854208D15D
:103BA00001200C234022262100900620FEF7C2FDB2
:103BB0000AE0E01C854207D101200C23402232217B
:103BC00000900620FEF7B6FDFEF78EFDF2E600003F
:103BD00022F0FF1F00B585B014216846FCF7D1FA2A
:103BE000FEF754FC012315A200210846FEF793FEC0
:103BF00000BFFDF7DBFB042802D1032005B000BDA8
:103C000014480022825E14A1684600F043FC0123A0
:103C10006A461A210020FEF77EFE13480022825ECB
:103C200012A1684600F036FC01236A4627210020D5
:103C3000FEF771FEFEF758FDDBE70000203C202078
:103C40002020B1E020C2EB20C6F720D6B5202020EE
:103C50002020200074F0FF1F4C5FB1E0C2EBC6F7DC
:103C60003A2535642000000076F0FF1F525FB1E076
:103C7000C2EBC6F73A25356420000000F0B59FB0CE
:103C800000201E901D901C901B90142116A8FCF77C
:103C900078FA142111A8FCF774FA0020109014216E
:103CA0000BA8FCF76EFA00200A90FEF7EFFB012349
:103CB00028A200210846FEF72EFE00BFFDF776FB86
:103CC000042802D103201FB0F0BD284803882848EB
:103CD000028828A102A800F0DDFB01200C2302AA23
:103CE000194600900020FEF7F9FD0D20FDF734FB8A
:103CF00004460E20FDF730FB054623462A4622A146
:103D000002A800F0C7FB01200C2302AA1921009091
:103D10000020FEF7E3FD21480068FCF7C5FC0446DF
:103D20000D461F480068FCF7BFFC064632460B46AE
:103D30001CA102A80195009400F0ACFB01200C230B
:103D400002AA2D2100900020FEF7C8FDFEF7CCFC52
:103D5000B4E70000203C20202020B5E72020B8D088
:103D60002020D6B520202020202000006AF0FF1F50
:103D700068F0FF1F41445F4C3A25346420204144E1
:103D80005F523A253464000041445F333A2534647D
:103D9000202041445F343A253464000088F0FF1F3E
:103DA0009CF0FF1F50495443483A2025332E326679
:103DB000202020783A25662000000000F0B5CDB024
:103DC000012500260124002700204C90FEF75EFB11
:103DD00001A800F007F9012301AA00210846FEF717
:103DE0009AFD1E20604301A9421801230D210020E5
:103DF000FEF791FD601C1E21484301A942180123D2
:103E00001A210020FEF787FDA01C1E21484301A9AE
:103E10004218012327210020FEF77DFDE01C1E2112
:103E2000484301A94218012334210020FEF773FD05
:103E300000BF2E462746FDF7B9FA012806D0022812
:103E400007D003280BD0042829D105E0681EC5B28D
:103E500025E0681CC5B222E000204DB0F0BD012D68
:103E600006D0022D0AD0032D0ED0042D14D111E05E
:103E7000594A21462846FCF721FF0FE0574A2146C0
:103E80002846FCF71BFF09E0554A21462846FCF767
:103E900015FF03E00020E0E70020DEE700BF00BFE1
:103EA000012D01DA092000E028460546092D01DD33
:103EB000012000E028460546A54201DA284600E038
:103EC00020460446E81EA04200DD00E02046C4B2C1
:103ED000AE4202D14C98012823D101200C2320228C
:103EE000194600900620FEF725FC01200C23202215
:103EF000192100900620FEF71DFC01200C23202232
:103F0000262100900620FEF715FC01200C2320221C
:103F1000322100900620FEF70DFC01A800F062F8A7
:103F200000BFA74226D01E20604301A942180123EA
:103F30000D210020FEF7EFFC601C1E21484301A963
:103F4000421801231A210020FEF7E5FCA01C1E21C7
:103F5000484301A94218012327210020FEF7DBFC7A
:103F6000E01C1E21484301A94218012334210020EE
:103F7000FEF7D1FCA54208D101200C2340221946AE
:103F800000900620FEF7D6FB22E0601C854208D197
:103F900001200C234022192100900620FEF7CAFBC5
:103FA00016E0A01C854208D101200C2340222621C6
:103FB00000900620FEF7BEFB0AE0E01C854207D118
:103FC00001200C234022322100900620FEF7B2FB94
:103FD000FEF78AFB2DE700004EF0FF1F4FF0FF1F9A
:103FE00050F0FF1F38B50446002000904D2531A148
:103FF000204600F04FFA354801786846FDF7A8FEE4
:104000006A4633A120461E3000F044FA3648017853
:104010006846FDF79DFE6A4634A120463C3000F01C
:1040200039FA384801786846FDF792FE6A4636A1AB
:1040300020465A3000F02EFA29466846FDF788FEE1
:104040006A4637A12046783000F024FA29466846AF
:10405000FDF77EFE6A4638A12046963000F01AFA37
:1040600029466846FDF774FE6A4639A12046B430F9
:1040700000F010FA29466846FDF76AFE6A463AA142
:104080002046D23000F006FA29466846FDF760FE69
:104090006A463BA12046F03000F0FCF9294668460C
:1040A000FDF756FE6A463CA12046FF300F3000F077
:1040B000F1F938BD20203C2020202020C9E8202014
:1040C000D6C3202020202020200000004EF0FF1F1B
:1040D000202020312E20204C20452044202020204C
:1040E00020202573000000004FF0FF1F2020203209
:1040F0002E2020B7E420C3F920C6F7202020257306
:104100000000000050F0FF1F202020332E2020C090
:10411000B62020D1C02020202020257300000000E0
:10412000202020342E2020585858585858582020E5
:104130002020257300000000202020352E2020584C
:104140005858585858582020202025730000000047
:10415000202020362E2020585858585858582020B3
:104160002020257300000000202020372E2020581A
:104170005858585858582020202025730000000017
:10418000202020382E202058585858585858202081
:104190002020257300000000202020392E202058E8
:1041A00058585858585820202020257300000000E7
:1041B000F8B504464CA1204600F06CF950481E2288
:1041C000825E50A120461E3000F064F94C48202247
:1041D000825E52A120463C3000F05CF94848002243
:1041E000825E54A120465A3000F054F9444904201C
:1041F000085EFCF7A5F855490090FCF763F8074600
:10420000FCF752FA05462A460B4651A12046783063
:1042100000F040F93A480A22825E54A120469630C6
:1042200000F038F936490C20085EFCF789F855494A
:104230000090FCF747F80746FCF736FA05462A4691
:104240000B4651A12046B43000F024F92C4814222A
:10425000825E54A12046D23000F01CF92848182272
:10426000825E56A12046F03000F014F924481A224C
:10427000825E58A12046FF300F3000F00BF9204835
:104280001C22825E59A12046FF302D3000F002F939
:1042900000225CA12046FF304B3000F0FBF80022EA
:1042A0005EA12046FF30693000F0F4F8002261A1E1
:1042B0002046FF30873000F0EDF8002263A1204651
:1042C000FF30A53000F0E6F8002266A12046FF305E
:1042D000C33000F0DFF8002268A12046FF30E13053
:1042E00000F0D8F8F8BD000020203C20202020203D
:1042F000B7BD2020B0B820202020202020000000C2
:1043000004F0FF1F202020312E2020C4BFB1EABDC1
:10431000C7B6C82020253464202000002020203289
:104320002E2020C4BFB1EACBD9B6C82020253464E2
:1043300020200000202020332E2020BDC720B6C81A
:10434000205020202025346420200000000020413F
:10435000202020342E2020BDC720B6C82044202095
:104360002025322E3166202000000000202020353C
:104370002E2020CBD920B6C8205020202025346400
:10438000202000000000C842202020362E2020CB14
:10439000D920B6C8204920202025322E3166202081
:1043A00000000000202020372E2020D7AA20CFF2A6
:1043B0002050202020253464202000002020203898
:1043C0002E2020D7AA20CFF220442020202534649C
:1043D00020200000202020392E2020747020202052
:1043E000202020202025346420200000202020319F
:1043F000302E2074642020202020202020253464AA
:104400002020000020202031312E205858585858A4
:1044100058582020202534642020000020202031FE
:10442000322E205858585858585820202025346487
:104430002020000020202031332E20585858585872
:1044400058582020202534642020000020202031CE
:10445000342E205858585858585820202025346455
:104460002020000020202031352E20585858585840
:10447000585820202025346420200000202020319E
:10448000362E205858585858585820202025346423
:10449000202000000FB410B504A9074B02AA03980E
:1044A00000F082F9044602A9002000F019FD204620
:1044B00010BC08BC04B01847E14E00002021020CDB
:1044C00001D010211046020A01D010460839020915
:1044D00001D01046091F820801D01046891E4208EB
:1044E00001D0881E7047081A704730B47446641EA5
:1044F0002578641CAB4204D3635D5B00E31830BCD9
:1045000018471D46F8E700004900CA0202431000A0
:1045100000D004204A0D01D001221043044A490D65
:10452000914201D102210843012800D105207047A2
:10453000FF070000F8B504464F1EC80008382118D0
:1045400015461E46086849683A4606239A4310D025
:104550002A463346FCF70EF83A46D200083AA3182A
:104560001A687F1E5B68FBF753FF06223B469343A6
:10457000EED1022F23D0042F11D0062F2FD12A469F
:104580003346FBF7F7FFE36AA26AFBF741FF2A46CF
:104590003346FBF7EFFF636A226AFBF739FF2A46CF
:1045A0003346FBF7E7FFE369A269FBF731FF2A46D1
:1045B0003346FBF7DFFF63692269FBF729FF2A46D1
:1045C0003346FBF7D7FFE368A268FBF721FF2A46D3
:1045D0003346FBF7CFFF63682268FBF719FFF8BD8E
:1045E00010B5FBF715FF10BD002210B5134610469D
:1045F0001146FCF797F910BD034A10B500201107CA
:10460000FCF708FA10BD000001FDFFFF02E008C83A
:10461000121F08C1002AFAD17047002001E001C131
:10462000121F002AFBD17047014908607047000043
:1046300014F1FF1FF0B51FB486B00998089A030D56
:104640000021024314D05148514A18185043051410
:104650001198012810981AD0281A401C00264D4F96
:104660004D49009601910490002812DA444211E06D
:104670001198012449A3012801D11098C14306983B
:10468000119A84600360C26041600BB0F0BD40428B
:10469000E4E70446210500203F4A001C51410391F4
:1046A000029012E0E00707D032463B46019900989D
:1046B000FBF760FF0191009032463B4610461946D9
:1046C000FBF758FF06460F466410002CEAD1049809
:1046D000039B0028029A0999089806DAFBF74AFF1B
:1046E000019B009AFBF746FF05E0FCF71BF9019BD5
:1046F000009AFCF717F904460E460022284BFCF7F7
:1047000011FA03D80020C043014607E00022254BE0
:1047100020463146FBF77CFEFCF7E4F9102409E063
:10472000002C0ADB0A220023FBF7F8FF079B30323C
:104730001A55641E02460A43F2D11122641C079BDB
:10474000121B1C19119B012B03D0012308430ED10E
:104750000AE0084304D0112010900020119077E760
:104760001098151A6D1E0BE01098824202DD00238E
:104770006D1C03E0824201DA00236D1E002BEED097
:10478000069811998260C16030C07EE701FCFFFF8E
:10479000104D0000000014400000F03F3000000009
:1047A0000000F0430000E03FFFB597B0064600254B
:1047B00018E2252877D100242746FD49049400E01B
:1047C0000443761C32780120203A90400842F7D109
:1047D00030782A280ED00222307801463039092953
:1047E00016D804990A235943303940181443761CCB
:1047F0000490F1E7189802C804911890002904DA8F
:104800000120400304434842049002200443761CE4
:1048100030782E2814D1042004437078761C2A287E
:1048200009D11898761C80C8189009E00A214F43D6
:10483000303FC719761C3078014630390929F5D93F
:1048400030786C2810D006DC4C281AD068280ED09E
:104850006A2817D104E0742813D07A2812D110E006
:104860000120400504430CE00121090501E003217A
:1048700009050C437178814203D1012000052418F9
:10488000761C761C3078119066280BD013DC5828E3
:104890007DD009DC00287BD04528F6D04628F4D00E
:1048A00047281AD1A5E118E0632835D0642870D0D4
:1048B000652812D19DE170286CD008DC6728F1D002
:1048C00069287BD06E280DD06F2806D1BAE07328F6
:1048D0002ED0752871D0782859D01A9A19999047F6
:1048E0006D1C7EE16002400F022809D003280DD024
:1048F0000428189801680DD00D60001D189070E113
:104900001898EA1701680D604A60F6E71898016880
:104910000D80F2E70D70F0E718986A460178117281
:10492000001D18900020507202A80090012005E0A0
:10493000189802C8189000200091C04361070DD557
:10494000002101E00199491C0191B94212DA81422A
:10495000F8DB009A515C0029F4D10BE0002101E062
:104960000199491C01918142FADB019A0099895C05
:104970000029F5D1019904981A9B471A2146384617
:10498000199A00F097FA0199401945180BE04FE089
:104990002CE113E04EE0009800990078491C00914A
:1049A0001A9A199990470198401E0190401CF2D123
:1049B000214638461A9B199A10E137E00A20002157
:1049C000009001916002410F022907D0189A01CA94
:1049D0001892C2179446032908D00AE01898C01DFF
:1049E000C108C90005C91891944607E000B2C21772
:1049F0009446042902D140B2C1178C460022614678
:104A0000944506DA0A460021404291418C462D2108
:104A100002E0210504D52B216A461173012103E030
:104A2000E10701D02021F7E7029155E00A200AE0D2
:104A3000102008E010200090002104200443019180
:104A4000082703E008200021019100906002410F37
:104A5000022907D0189A01CA189200229446032905
:104A600008D008E01898C01DC108C90005C91891F0
:104A7000944603E080B2042900D1C0B20021029123
:104A8000210729D51199702906D0009A1021019B80
:104A90004A401A4305D00EE040216A4611730121B5
:104AA00008E06146014306D030216A46117311992E
:104AB000517302210291009A0821019B4A401A4336
:104AC0000AD16146014301D1610705D530216A460B
:104AD000117301217F1E02911199582904D035A12B
:104AE0000E910DA90D910DE037A1F9E76146019BEB
:104AF000009AFBF713FE0E9B8C469B5C0D9A521E90
:104B00000D92137061460143F0D10D9805A9081A62
:104B100020300190600703D501200004844300E0A9
:104B200001270198874201DD381A00E00020019931
:104B300000904118029809180498401A0490E00364
:104B400006D421461A9B199A049800F0B3F9451926
:104B5000002706E003A81A9AC05D199990476D1CBA
:104B60007F1C02988742F5DBE0030CD521461A9B97
:104B7000199A049800F09EF9451904E01A9A302019
:104B8000199990476D1C0099481E00900029F5DC8A
:104B900008E00D980D990078491C0D911A9A199901
:104BA00090476D1C0199481E01900029F1DC63E1DA
:104BB00009280100303132333435363738396162F3
:104BC00063646566000000003031323334353637B7
:104BD00038394142434445460000000000F05AF98C
:104BE0004519761C3078002800D0E2E528461BB035
:104BF000F0BD600700D406271898C01DC108C90081
:104C000048680A680831C30FDB071891190001D002
:104C10009CA108E0210501D59BA104E0E10701D09A
:104C20009AA100E09AA1430011985B0810916528B1
:104C30000CD006DC452809D046281DD0472841D194
:104C400041E0662818D067283CD13CE00021112FB4
:104C500001DB112000E0781C0191009008A911A847
:104C6000FFF7E8FC139905910021119A15927F1C1A
:104C700012980197009150E00120C0070390012095
:104C8000019008A9009711A8FFF7D4FC139A149972
:104C900005920022119B009212981593059A019299
:104CA000002901D0104602E0791C40180190381A02
:104CB00001D5019804E04042401E0090781C01900C
:104CC000C01B029043E0012F00DA01270021112FC1
:104CD00001DD112000E038460191009008A911A8DB
:104CE000FFF7A8FC13990591119A002112981592CB
:104CF0000091019721070CD40599B94201DB019974
:104D000000E00191012904DD159A491E515C30290A
:104D100006D0B84201DA011D05DA0121029115E041
:104D20000199491EEDE7002805DC00994118009122
:104D30000199091A03E0019A411C914200DD019199
:104D40000099401A401C02900120C00703902007E0
:104D500006D402990198814202DB0020C0430290F0
:104D600000206946C87707AF012103980337C907B8
:104D7000884224D0022011902B2012900398002802
:104D80000CDA404203902D20129007E00A2103988C
:104D9000FBF7B4F930317F1E039039701199481E2A
:104DA00011900029F2DC03980028EFD1791E1298A7
:104DB00008703078202108404530BF1E387006A8A2
:104DC000C01BC01D039010980078002800D001205F
:104DD000019941180298C0170918039809180498F6
:104DE000401A401E0490E00306D421461A9B199AEB
:104DF000049800F05FF8451910980078002803D057
:104E00001A9A199990476D1CE00324D521461A9BE4
:104E1000199A049800F04EF845191CE000980028F3
:104E200007DB00990598884203DD1598405C1999C5
:104E300001E0199930201A9A904700986D1C401C87
:104E400000900298401E0290002804D11A9A2E2049
:104E5000199990476D1C0199481E01900029DDDCCD
:104E600005E038781A9A7F1C199990476D1C0399B0
:104E7000481E03900029F4DC21461A9B199A0498D5
:104E8000ACE600002D0000002B0000002000000018
:104E900000000000F8B5044600251E4617468804A9
:104EA00004D405E039462020B0476D1C641EF9D5B6
:104EB0002846F8BDFFB50446002581B01E46C8034C
:104EC00001D5302700E02027880404D505E03846C6
:104ED0000399B0476D1C641EF9D5284605B0F0BD96
:104EE0000A68531C0B60107070470000F0B5044650
:104EF0004F008E488FB07F080D460D91874228DB0A
:104F00004042381820430CD08948874203DC87424E
:104F100018D1002C16D020462946FBF76AFA0FB0AC
:104F2000F0BD844A844B20462946FBF723FB074605
:104F30000E46824A824B20462946FBF71BFB3A4627
:104F4000334649E00120FFF76FFBFFF74DFB0FB041
:104F5000F0BD7C48874243DAF920800587420BDAAE
:104F600020462946FFF7D0FA042801D1FFF744FB79
:104F7000204629460FB0F0BD22462B461046294652
:104F8000FBF7F8FA064602466F480F460B46062125
:104F90007844FFF7CFFA32463B46FBF7EBFA069030
:104FA0006A48079132463B4604217844FFF7C2FA2B
:104FB00032463B46FBF7DEFA00225C4BFBF728FA51
:104FC00002460B4607990698FBF7ACFC22462B4697
:104FD000FBF7D0FA22462B46FBF71AFA0FB0F0BDCA
:104FE0002046524C6900490800222346FBF7BAFAD2
:104FF0000022D243FBF70EFD0546024654480E46FA
:105000000B4606217844FFF795FA2A463346FBF70C
:10501000B1FA06904F4807912A4633460421784456
:10502000FFF788FA2A463346FBF7A4FA0022234604
:10503000FBF7EEF9059104902846314600F00EFE8C
:10504000089045480C46874219DB059B049A07994E
:105050000698FBF767FC02460B4621460898FBF7CB
:1050600089FA2346089AFBF7D3F90122FBF7D2FC11
:10507000304A314BFBF770FA304A314B4AE0002797
:105080003A460B460898FBF7C3F93A4623460A917D
:105090000E9010461946FBF76DFA2A463346FBF789
:1050A00061FA0A9B0E9AFBF73DFC05460E46059BEE
:1050B000049A07990698FBF735FC009104900122A9
:1050C00028463146FBF7A6FC1A4A1B4BFBF74AFA67
:1050D0000E460546012221460898FBF79BFC009BE3
:1050E000049AFBF747FA2A463346FBF735FA05469A
:1050F0000E46012238462146FBF78CFC0F4C174F19
:1051000022463B46FBF72EFA2A463346FBF72AFA9D
:1051100022463B46FBF726FA0D9A002A00DD5DE7A2
:105120000122D20751400FB0F0BD00000000F03F57
:105130000000F07F075C143326A6913C182D4454E0
:10514000FB21F93F0000E03F14ED00002AED0000D4
:10515000A0EC0000B6EC00003333EF3FFB21E93F49
:10516000F0B589B004460D464800069172494008E2
:10517000884215DB7149884203DC884207D1002C44
:1051800005D020462946FBF734F909B0F0BD6C483C
:10519000002D02DD6B4909B0F0BD6B4909B0F0BDCF
:1051A0006A49884211DA6A4988420BDA2046294660
:1051B000FFF7AAF9042801D1FFF71EFA2046294675
:1051C00009B0F0BD0026F6435DE06D0061496D0851
:1051D000884232DA6049884219DA002601233246D1
:1051E0009B0720462946FBF713F907460191012248
:1051F00020462946FBF70EFC0022584BFBF7ACF982
:105200003A46019BFBF78EFB04460D463BE0012628
:105210000022524B20462946FBF7FAF80746009138
:1052200000224E4B20462946FBF796F93A46009B52
:10523000FBF778FB04460D4625E04949884219DA18
:1052400002260022474B20462946FBF793F900220D
:10525000424BFBF7DDF8074602910022414B204606
:105260002946FBF779F93A46029BFBF75BFB0446BC
:105270000D4608E0032622462B4600203A49FBF75C
:1052800051FB04460D4622462B4610461946FBF7B5
:1052900071F907460B4602460191FBF76BF902468E
:1052A000029032480B46039106217844FFF742F9F9
:1052B0003A46019BFBF75EF900902D4801910521CC
:1052C0007844039B029AFFF735F9039B029AFBF798
:1052D00051F902460B4601990098002E0BDAFBF7B4
:1052E00097F822462B46FBF745F922462B46FBF75B
:1052F00039F909B0F0BDFBF78BF822462B46FBF7D6
:1053000039F91C4AF6007A4493191A685B68FBF76E
:1053100023F922462B46FBF71FF9174A7A449319C3
:105320001A685B68FBF71EF9069A002AE1DA012287
:10533000D207514009B0F0BD000010440000F07FDA
:10534000182D4454FB21F93FFB21F9BF0000DC3F3D
:105350000000203E0000F33F0000E63F0000F03F69
:10536000008003400000F83F0000F0BFB2EA0000F8
:1053700074EA00000EEA0000D8E90000F0B51FB49E
:10538000039B54425D00164626439C46F40F6D086D
:105390004B004E4E5B082C438E46B44205D8474224
:1053A0000743FC0F1C43B44204D96346FFF718F9C6
:1053B00005B0F0BD464E6644164309D0CC0F664694
:1053C000B61702273E40264304461C4304D00BE098
:1053D000FFF7C6FE05B0F0BD002EFBD0012EF9D0C0
:1053E000022E32D0032E34D014462C430BD0374C2F
:1053F000A54216D1A3420AD1012189078D438B43CF
:10540000194603950DE0704600280FDB25E0314F6B
:105410007F44002E0ED0012E10D0022E15D0032E68
:1054200017D0A3421DD17046002816DA2A482B490E
:1054300005B0F0BD7968386805B0F0BD0122796823
:10544000D2073868514005B0F0BD2348244905B063
:10545000F0BD2148234905B0F0BD1F48224905B0E1
:10546000F0BD5B1B1B153C2B02DD1B481E490FE0EA
:105470006446002C05DA3C24E34202DA00200146AF
:1054800006E0039BFBF74EFA49004908FFF768FE68
:10549000002EE4D0012E0BD0144A154B022E0CD056
:1054A000FBF75AF80C4A0E4BFBF756F805B0F0BD67
:1054B0000122D207514005B0F0BDFBF74DF8064A76
:1054C000074BFBF74FF805B0F0BD00000000F07F80
:1054D000000010C07CE90000182D4454FB21F9BFE6
:1054E000FB210940FB2109C0FB21F93F075C143374
:1054F00026A6A13C00218200014B9A5851607047BA
:105500008C3C010001468800024A1058406880B275
:10551000704700008C3C010000B50346184600F0BF
:1055200019F898000A49085800689900084A515823
:10553000086098001146085800681821084399002F
:1055400051580860002099005158486000BD000083
:105550008C3C0100002804D0012823D0022865D10A
:1055600040E03349496920221143314A51611146D3
:10557000C9680322120691432D4AD1602D49496919
:10558000012211432B4A51611146496801221143FE
:10559000284A51602649C968012212061143244A4B
:1055A000D16043E02249496940221143204A5161B8
:1055B0001146C9680322920691431D4AD1601D49D4
:1055C0004969802211431B4A516111464968802272
:1055D0001143184A51601649C96852051143144ACB
:1055E000D16023E01249496980221143104A516178
:1055F0001146C9680322120791430D4AD160002168
:105600000D4AD1600B494039496920221143094AAA
:10561000403A51611146496820221143054A403AF7
:1056200051600349C968024AD16000BF00BF70479A
:105630000080044040F00F4040A00340FFB583B01D
:1056400004460D461F462946204600F08BF8414887
:1056500002900299080C0599FAF750FD06460020C1
:10566000019003E00198401CC0B2019031460198BE
:1056700001410129F6DA0198072801DD07B0F0BDE4
:10568000019A0299D14008460599FAF737FD86B28A
:10569000600031490E52002C04D0012C0DD0022C98
:1056A00021D115E03146491C794308467D21C900C6
:1056B000FAF724FD80B2009016E03146491C794388
:1056C00008467D21C900FAF719FD80B200900BE071
:1056D0003146491C794308467D21C900FAF70EFD81
:1056E00080B2009000E000BF00BF1C48A1001C4A2F
:1056F00051588860A000114608580C30E900415804
:1057000004208143A00010580C30EA008150282169
:10571000A000134A10580C30EA0081500820A10064
:105720000F4A51580860022C03D10020A1005158A3
:10573000C86419218901A000094A10580C30EA00F8
:10574000801841600020A100054A5158486000BF00
:1057500094E70000005A620296F0FF1F7F0C0000E1
:105760008C3C010000B5002804D001281FD002287D
:105770001CD139E0414A526920231A433F4B5A61F8
:10578000002902D0012910D107E03C4AD268FF234A
:1057900001339A43394BDA6007E0384AD268012373
:1057A0005B029A43354BDA6000BF00BF63E0334AC7
:1057B000526940231A43314B5A61002902D0012912
:1057C00010D107E02D4AD26801239B021A432B4BCC
:1057D000DA6007E0294AD2680123DB029A43274BAB
:1057E000DA6000BF00BF46E0244A526980231A43B2
:1057F000224B5A610B00FEF778FE06040E18222C8D
:10580000343C1E4A1269920892001C4B1A611A46D7
:1058100012691A612DE0194A12690C239A43174B39
:105820001A611A4612691A6123E0144A1269302378
:105830009A43124B1A611A4612691A6119E00F4A0B
:105840001269C0239A430D4B1A611A4612691A61F4
:105850000FE00A4A1269FF2301331A43074B1A610A
:1058600007E0064A126901235B029A43034B1A615F
:1058700000BF00BF00BF00BF00BD000000800440AB
:10588000FEB504460D4621686068FAF7DEFC20602C
:1058900061680846FAF7D9FC07466169FAF7D5FC52
:1058A0000646E168FAF778FC6061A1686069FAF77A
:1058B000CCFC0090A168FAF7C8FC07462169FAF70A
:1058C0006BFC0646A1686069FAF7BFFC314601909F
:1058D000FAF7F8FCA0612168A068FAF7B6FC29463F
:1058E0000190FAF7AEFC0746A169FAF7AEFC06464E
:1058F0002168FAF751FC2060A168A069FAF7A5FCBD
:1059000007467F21C905FAF79CFC06466169FAF74C
:105910009CFC60612068FEBD016042617F23DB0565
:1059200043608360024BC360024B03617047000019
:1059300082A87B380AD7233CFBF7B0F94B21C90179
:105940000120FDF789FCFCF7E9FBFCF705FEFCF7FD
:10595000F3FCFBF745FCFCF779FBFBF78EF9404ABB
:1059600000214048FFF7D8FF3F483E49C8603F4804
:1059700008613B4A00213B481C30FFF7CDFF3A4904
:10598000384881623949C1620A20FBF7E7FBFBF71F
:105990008FFE00BFFCF738FC0028FBD1FBF788FE28
:1059A00000BFFCF731FC0028FBD1FBF781FE00BFF4
:1059B000FCF72AFC0028FBD12D4840680121490250
:1059C00008432B4948606420FBF7C8FB28488068DF
:1059D0000121490208432649886000240022082149
:1059E0001046FDF733FBFCF751FD37E0042C20D0C7
:1059F00008DC002C0DD0012C0FD0022C11D0032C70
:105A000027D112E01F2C18D0202C1AD0212C20D105
:105A10001BE0FDF79BFE04461FE0FDF7DFFD04469B
:105A20001BE0FDF78BFF044617E0FDF7DBFC0446A7
:105A300013E0FEF7C3F904460FE0FDF70FFEC4B212
:105A40000BE0FEF71BF9C4B207E0FEF7C3F8C4B2DF
:105A500003E0FDF77BFE044600BF00BFC6E7000081
:105A600000002041BCF5FF1FFAED6B3A0AD7233C3A
:105A700000F00F4010B5044621460120FDF792FCCE
:105A800010BD000070B5054600242548806904213A
:105A90008843234988610846406904218843204996
:105AA000486120488068042108431E498860002618
:105AB00029E01B4840690821084319494861084604
:105AC000806808210843164988600120FBF75EFBC7
:105AD0001348406908210843114948610846406855
