:020000040000FA
:10000000280A0020D7000000E3000000E5000000FF
:1000100000000000000000000000000000000000E0
:10002000000000000000000000000000E7000000E9
:100030000000000000000000E9000000F1030000E3
:10004000ED000000ED000000ED000000ED000000FC
:10005000ED000000ED000000ED000000ED000000EC
:10006000ED000000ED000000ED000000ED000000DC
:10007000ED000000ED000000ED000000ED000000CC
:10008000ED000000ED000000ED000000ED000000BC
:10009000ED000000ED000000F9270000BD2C00007D
:1000A000ED000000ED000000ED000000ED0000009C
:1000B000ED000000ED000000ED000000ED0000008C
:1000C0000348854600F042FD004800478952000081
:1000D000280A00207047064880470648804706489F
:1000E0000047FEE7FEE7FEE7FEE7FEE7FEE700006B
:1000F000C92E0000D5000000C100000030B50B463D
:10010000014600202022012409E00D46D5409D42F1
:1001100005D31D469540491B254695404019154677
:10012000521E002DF1DC30BD70B50024254600289C
:1001300001DA01244042002901DA01254942FFF792
:10014000DDFFAC4200D04042002C00D0494270BDDF
:1001500003460B439B0703D009E008C9121F08C0E0
:10016000042AFAD203E00B780370401C491C521E8B
:10017000F9D27047D2B201E00270401C491EFBD296
:1001800070470022F6E710B513460A4604461946A2
:10019000FFF7F0FF204610BDF8B502464A40D40FE5
:1001A00042004B0052085B089A4202D202460846BF
:1001B00011464A0023D0C30D4A00DDB2120EAD1A1B
:1001C000202D35DA49020126490AF6058A19002C44
:1001D00000D0524220214F1B1146B9402A4110182D
:1001E000C20D9A4221D0002C17D0012D08DCDA056F
:1001F000801AD20F8019D207DBB200F0FBFAF8BDEB
:10020000DA05801A012340001B06C01880185A42E4
:100210008018CA0F1043490007E04908C20711437C
:10022000DA05801A80194008801800F0DBFAF8BD62
:1002300061000122511A001BF7E70122D207514049
:10024000AAE70122D2075040A6E7024670B54A400D
:10025000D30FDB0740002DD04A002AD0010E140E28
:10026000000212020919400A520A8418E5010446E4
:100270005443000A120A2E045043A4194219200CB8
:10028000C543AA18120C0125AD03521C52191204C1
:100290007F39240400D0521C104301D44000491E71
:1002A000C2B20C06C0092018401C4008802A02D0A7
:1002B00003E0002070BD40084000002900DA002063
:1002C000184370BD70B502464A40D50F40004A0041
:1002D000ED0740085208002814D0002A12D0C40D9F
:1002E000D30D41020120C0055202490A520AE41A04
:1002F000091812187D34914201D3641C00E04900B2
:10030000002C01DA002070BD0023914201D3891A2C
:100310000343400849000028F7D100290AD0914240
:1003200002D10121C90705E0914201D2012101E07A
:100330000121C943E005C018401900F053FA70BD0F
:10034000C217C10F504010B54018CA0796230021AC
:1003500000F050FA10BD10B500229623114600F0AF
:1003600049FA10BD0EB5C217C10F5040CA07401858
:100370000021054B0293019200910A460B4600F0C2
:100380007FFA03B000BD0000330400000EB505493C
:100390000291002100910A460B46019100F070FA8B
:1003A00003B000BD33040000C20F4100400201232E
:1003B000400ADB05D207090EC0187F2901DA0020A8
:1003C0007047962903DC9623591AC84001E09639F4
:1003D0008840002AF4D04042704700000122D20732
:1003E000002800DB101A002900DB511A81427047F7
:1003F000704710B5012200F00DFB10BD70470000E2
:10040000FFFFFFFFFFFFFFFFFFFFFFFFFFFFFEFEFE
:10041000F0B507460846584087B0C00F0490480022
:100420000E46590040084908BC1A884105D2384692
:1004300031461E4617460B460246580040081043F8
:100440004CD0300D039040055900400D490D0590EA
:10045000401A0290402872DA18030121000B0905A6
:100460000843019004980092002805D00199524257
:100470000020884100920190029840210A1A0199B7
:10048000009800F07BF905460C466B4607CB00F060
:1004900096F9C0197141039A0E0D0023D7175640E3
:1004A0001A467A40164344D0049A002A2DD0029A64
:1004B000012A039A15DC1205C01A9141012636055E
:1004C000001C7141D20F059ED20700930192029643
:1004D0002A46234600F0D4F907B0F0BD384631462D
:1004E000FAE71605224A0F46B218C01AB741012191
:1004F0000905001C4F4100187F4111461818794129
:10050000E20F10436D19644113E0E2076D081543D3
:100510006408C2071443039A01261205C01A9141C8
:100520003605001C7141CE07400830434908C01809
:1005300051412A46234600F096F9CDE7FFE704989B
:1005400001224000C117121A00238B410498314642
:10055000C417381AA141EEE730B40124E407634020
:1005600030BC55E730B40124E407614030BC4FE7AC
:100570000000E0FFF0B51FB488B00B990998002483
:1005800048400999C00F490049080991C0070B99D3
:100590000090490049080B9109990898A64608431C
:1005A0001CD00B990A98084318D0099801244000E0
:1005B000420D4800410D099824050003000B20431B
:1005C00009900B980003000B20430B9050181C4916
:1005D0004018002201901446104605E00020014614
:1005E0000DB0F0BD032801DA034600E003239C466A
:1005F000C11A0AAE0AE05F0008ADED5B4F00F75B81
:100600007D430027AA187C41491C5B1E6145F2DD31
:10061000410004AB5A522104120C0A43240C401C22
:100620000828DFDB01980290009970460191009044
:10063000059B049A0799069800F022F9D0E700007C
:100640000DFCFFFF410040020122400AD205090EC5
:1006500080187F2901DA00207047962903DC962252
:10066000511AC84070479639884070474A000903BC
:100670000123090B1B051943094B10B5520D9A4272
:1006800001DA002010BD064B34339A4203DC9A1A7B
:1006900000F084F810BD03495118884010BD0000D7
:1006A000FF030000CDFBFFFFC20FD2074000400850
:1006B0000BD0C10D0723DB01C91840020905400A10
:1006C0001143C2084007114370470020014670479C
:1006D000CB0FDB07490010B5490802460A4307D093
:1006E0000A0D07240903E401090B121B002A01DC8F
:1006F000002010BDC900440F0C43C100E018D20512
:10070000801800F06FF810BD0122D207002800DB2E
:10071000101A002900DB511A88427047F0B51FB447
:100720000646002082B005464024019100901BE05F
:10073000019922460F46304600F030F8049A059B96
:10074000801A994110D310461946224600F016F837
:10075000361A8F410197224601200021009F00F0A8
:100760000DF838184D4100902046641E0028DFDC4B
:10077000019B00982946324607B0F0BD10B5202AEB
:1007800004DB0146203A9140002010BD9140202317
:100790009C1A0346E3401943904010BD10B5202A2F
:1007A00004DB0846203AD040002110BD0B46D34060
:1007B000D0402024A21A91400843194610BD10B51C
:1007C000202A06DBCB170846203A1041C1170B43FD
:1007D00006E00B461341D0402024A21A9140084362
:1007E000194610BD002904DA401C490001D1400817
:1007F0004000704770B40024050C05D1102400049B
:1008000002D1002921D01124050E01D100020834A3
:10081000050F01D10001241D850F01D18000A41C0A
:10082000002801DB4000641C002908D020252E1B75
:100830000D46F540A14000D001212943084301069F
:100840001B1B000ADB1D02D5002070BC7047DB05B6
:10085000181880180029F8DA401C4900F5D170BC3E
:1008600040084000704710B5002B08DA0024401CF7
:10087000614192185B411A4301D14008400010BD0C
:10088000F0B51FB482B005460C0003D0084603F053
:1008900089FC02E003F086FC2030024600902146ED
:1008A0002846FFF76BFF049B059A04460F46184342
:1008B0001143084314D0184610431BD00098402120
:1008C0000A1A18460599FFF769FF05460E46009A71
:1008D00005990498FFF752FF084305D0012004E072
:1008E0002046394607B0F0BD0020C11705430E432E
:1008F0002C43374300990E986305401A7905E40AA2
:1009000000220C43FD0A0A3002D500200146E9E727
:100910000105101969410C9C0D9D00196941FFF7F3
:10092000A2FFDFE7F0B50C465C4085B0E40FE407BA
:1009300003944C0000266408590094464908024676
:100940000296224321D062460A431ED06200570D10
:100950004A000E032303550D012402462C492405A9
:10096000781B1B0B360B401823432643614600902F
:100970001C46501AB44103D30098401C009002E07A
:10098000921800985B41002803DA0020014605B068
:10099000F0BD0020012109050746864611E06446A6
:1009A0001D46141BB54106D36546521BB341744620
:1009B00007430C43A646CD07400849082843921830
:1009C0005B4105460D43EAD11046184313D06046FB
:1009D000194650407140084306D06046101AB34192
:1009E00006D20122002306E000220123DB0702E0F9
:1009F0000122D2435310009874460105381C61410E
:100A0000029C039D00196941FFF72DFFBFE700001D
:100A1000FD03000070B54B005B0803430BD04B0097
:100A20005C0D002633466542B341D417AD1AA3418D
:100A300002DB0020014670BD12053018514170BD27
:100A4000FEB500231A461B1A8A4103DB002001462B
:100A500003B0F0BD4A000D0301212D0B0905520D15
:100A60000D43D10702D100186D41521E5110FF31C4
:100A7000FF310131002704463E4638460097019178
:100A80000246012100200905FFF788FEC3197141C4
:100A9000F818324684468E464A4161462846611A15
:100AA000904104D36046241A954176461F46241986
:100AB00000986D41401C00903428E1DDF919304662
:100AC0007041091BA84103D20022D243134601E022
:100AD0000022134601980105381C7141FFF7C3FE3F
:100AE000B6E700004A0009030123090B1B0519435F
:100AF0000A4B10B5520D9A4202DA0020014610BD91
:100B0000064B34339A4203DC9A1AFFF747FE10BDB6
:100B1000034BD218FFF732FE10BD0000FF030000A8
:100B2000CDFBFFFF10B5002904DB0124E4074042A0
:100B30008C412146002B04DB1C460123DB0752427B
:100B4000A341994200D1904210BD0000064C0125FE
:100B5000064E05E0E36807CC2B430C3C9847103465
:100B6000B442F7D3FFF7B0FA5036010070360100F7
:100B7000F3B581B00C460025002704E0019800F091
:100B800061F845197F1CA742F8DB21462846FFF78C
:100B9000CBFA0090FFF7D4FB06463046FFF752FD34
:100BA00080B2FEBD16494969012252071143144A19
:100BB0005161144989690F221143124A916111460A
:100BC000896889088900916011468968602291438B
:100BD0000C4A91601146896808221143094A9160C4
:100BE000002151601146096820221143054A116015
:100BF00011460968C206D20E1143024A11607047BD
:100C00000080044000B00340014600200C4A1268F6
:100C100052095201CB06DB0E1A43094B1A6000BF82
:100C2000074A126880231A40002AF9D0044A126940
:100C300090B2034A12689A43014B1A607047000051
:100C400000B00340F1B50098FFF7DEFF04460098BE
:100C5000FFF7DAFF05460098FFF7D6FF0646AC42DD
:100C600002DD27462C463D46AE4201DD2F4604E01C
:100C7000A64201DD374600E027463846F8BD10B5EC
:100C80000020FFF78FFF0120FFF78CFF0F20FFF7F9
:100C900089FF0E20FFF786FF0920FFF783FF10BDB5
:100CA0000648406920210843044948610846806895
:100CB00020210843014988607047000040F00F4040
:100CC000F0B589B005460E461746387844B200BFE5
:100CD000E1B202A800F0F8FF00200090A81B401C21
:100CE0000D225043C1B20C2302AA6C2001F092FCE9
:100CF0000020019000F054FB012806D0022807D004
:100D0000032808D004280DD109E0601C44B209E092
:100D1000601E44B206E0012001903C7002E0012018
:100D2000019000BF00BF012C01DD002000E0204643
:100D30000446002C01DA012000E020460446019818
:100D4000012812D1E1B202A800F0BEFF01200090FC
:100D5000A81B401C0D225043C1B20C2302AA6C20D8
:100D600001F058FC01F05AFB02E001F057FBAFE73D
:100D700000BF09B0F0BD0000FFB58FB005460E46BC
:100D80001F4600241198045F00BF012F13D1224693
:100D900052A107A803F0F2F900200090A81B401C04
:100DA0000D214843C0B20C2307AA014605906620D6
:100DB00001F030FC23E03846FFF7CDFA02902046E0
:100DC000FFF7BEFA01900299FFF77CFA0390FFF754
:100DD0006BFC02460B460591049041A107A803F065
:100DE000CDF900200090A81B401C0D214843C0B243
:100DF0000C2307AA01460590662001F00BFC002099
:100E0000069000F0CDFA012806D0022807D003286A
:100E100008D004280ED10AE0601C04B20AE0601E6B
:100E200004B207E0012006901198048002E001203E
:100E3000069000BF00BF2C48844200DD00E0204641
:100E4000044629484042844200DA00E02046044635
:100E5000069801283CD1012F13D122461FA107A8D3
:100E600003F08CF901200090A81B401C0D21484381
:100E7000C0B20C2307AA01460590662001F0CAFB08
:100E800023E03846FFF767FA02902046FFF758FA4A
:100E900001900299FFF716FA0390FFF705FC02464E
:100EA0000B46059104900EA107A803F067F90120F5
:100EB0000090A81B401C0D214843C0B20C2307AA78
:100EC00001460590662001F0A5FB01F0A7FA02E0BB
:100ED00001F0A4FA59E700BF13B0F0BD2534640057
:100EE00025312E3266000000E703000070B505468C
:100EF00001F082F92C4625E0204840682021084373
:100F00001E494860322000F025F91C4880682021E5
:100F100008431A49886020463030C2B201230021BC
:100F2000282001F021FB01F079FA012C04D11920CD
:100F3000400100F00FF903E0114800F00BF900BF89
:100F4000601EC4B2002CD7D10C4840682021084351
:100F50000A494860FF202D3000F0FCF807488068FF
:100F6000202108430549886001F058FA0348C06809
:100F7000012108430149C86070BD000040F00F40E6
:100F8000B6030000F0B585B000250026002700203C
:100F90000390029001906449085E644908606249C8
:100FA0000220085E624908605F490420085E6149CA
:100FB00008606149485F614908605F490220085E36
:100FC0005F4908605C490420085E5E4908600024AF
:100FD0000DE0A000554908584519A000544908588B
:100FE0008619A00053490858C719601CC4B2012CC7
:100FF000EFDB002413E0A0005049095803980818BB
:101000000390A0004E490958029808180290A000C9
:101010004C490958019808180190601CC4B2012C71
:10102000E9DB2846FFF78CF98D21C9050090FFF711
:1010300049F9454908603046FFF782F98D21C90515
:101040000090FFF73FF9404948603846FFF778F9CC
:101050008D21C9050090FFF735F93B498860039859
:10106000FFF76EF939490090FFF72CF9384908600D
:101070000298FFF765F935490090FFF723F93449E5
:1010800048600198FFF75CF930490090FFF71AF9C2
:101090002F49886000241FE00020C043001B80000F
:1010A0002249085861428900204A50500020C0431C
:1010B000001B80001E490858614289001C4A50509C
:1010C0000020C043001B80001A4908586142890073
:1010D000184A5050601CC4B2002CDDDB00241FE015
:1010E0000020C043001B8000144908586142890059
:1010F000124A50500020C043001B8000104908587D
:10110000614289000E4A50500020C043001B8000FD
:101110000C490858614289000A4A5050601CC4B208
:10112000002CDDDB05B0F0BDACF0FF1FF4F0FF1FBD
:10113000F8F0FF1FFCF0FF1FA0F0FF1F00F1FF1FE2
:1011400004F1FF1F08F1FF1F84F9FF1F33338341B0
:1011500078F9FF1F10B5034600240DE0084800F0A1
:1011600011F800BF00BF00BF00BF00BF00BF00BF3D
:1011700000BF00BF601C84B29C42EFD310BD0000D2
:10118000E7030000002123E000BF00BF00BF00BF55
:1011900000BF00BF00BF00BF00BF00BF00BF00BF57
:1011A00000BF00BF00BF00BF00BF00BF00BF00BF47
:1011B00000BF00BF00BF00BF00BF00BF00BF00BF37
:1011C00000BF00BF00BF00BF00BF00BF4A1C91B2FC
:1011D00042008A42D8D8704710B5002003F042FE82
:1011E000012003F03FFE0C488069402188430A49F2
:1011F00088610A48C068402108430849C860064819
:10120000806908218843044988610448C06808212E
:1012100008430249C86010BD40F00F4000900440F0
:101220000146002902D001290AD104E005480069DD
:101230004022104070470348006908221040F9E737
:1012400000BFF7E740F00F4010B58300034CE358B0
:101250000C33CC001B195A6010BD0000E4350100AE
:1012600070B5044600222146682004F06FF9054657
:10127000601CC1B20022682004F068F9064628020A
:10128000304300B270BD0000F0B589B02D498868C8
:101290008D21C905FEF7D9FF2A49079048688D219D
:1012A000C905FEF7D2FF2749069008688D21C905B8
:1012B000FEF7CBFF244905908868FFF7F5F906464D
:1012C000224A234BFFF756F903225207214B019183
:1012D0000090FFF74FF90446FFF7FAF91A49049016
:1012E0004868FFF7E1F90446184A194BFFF742F93D
:1012F000064603225207174BFFF73CF90191009075
:10130000FFF7E6F9104903900868FFF7CDF90446A6
:101310000E4A0F4BFFF72EF9032252070D4B019196
:101320000090FFF727F90646FFF7D2F902900799D8
:1013300006980191009002A80FC800F08DFA09B03C
:10134000F0BD000084F9FF1F78F9FF1F2877442AB9
:101350003174513F6666304010B50446230002F0F8
:1013600038FF061D04090E13181D03210020FFF786
:10137000FFFB10BD03210120FFF7FAFBF9E7032172
:101380000F20FFF7F5FBF4E703210E20FFF7F0FB3A
:10139000EFE7C8210920FFF7EBFBEAE700BFE8E72A
:1013A000FEB500200190984800690121C906084057
:1013B000002846D195480078FFF7CCFE9248006996
:1013C0000121C9060840002838D191480088401CF6
:1013D0008F49088008460088322803DD01208B49A8
:1013E000087016E08A4800880C2803DD0A20874927
:1013F00008700EE086480088062803DD1E20834919
:10140000087006E082480088032802DD32207F4908
:101410000870012001907C4840304068202108433A
:101420007949403148600220FFF794FE7648403009
:1014300080682021084374494031886068460079FB
:10144000FEBD71484030006910210840002846D197
:101450006E480078FFF77EFE6B484030006910212F
:101460000840002838D16A480088401C6849088034
:1014700008460088322803DD01206449087016E020
:10148000634800880C2803DD0A20604908700EE0DC
:101490005F480088062803DD1E205C49087006E0CE
:1014A0005B480088032802DD32205849087002207A
:1014B000019055484030406820210843524940314E
:1014C00048600220FFF746FE4F48403080682021E8
:1014D00008434D494031886068460079B0E74A4882
:1014E0004030006901214902084000282ED14748B8
:1014F0000078FEF74BFF0446464A474BFFF73AF8A1
:101500000646FFF7B3F80090FFF724FE3E48403050
:101510000069012149020840002814D13A484030AE
:101520004068202108433849403148600220FFF7D5
:1015300011FE35484030806820210843324940314F
:101540008860032001906846007979E72E48006999
:10155000012109070840002822D12C480078FFF714
:10156000F9FD29480069012109070840002814D124
:1015700025484030406820210843234940314860D5
:101580000220FFF7E7FD2048403080682021084313
:101590001D494031886004200190684600794FE77A
:1015A000194840300069FF2101310840002823D14B
:1015B00016480078FFF7CEFD134840300069FF2140
:1015C00001310840002814D10F48403040682021E4
:1015D00008430D49403148600220FFF7BBFD0A482F
:1015E0004030806820210843074940318860052049
:1015F00001906846007923E74620044908700020DE
:101600000349088000BF1BE700F00F4002F0FF1FF6
:1016100000F0FF1FCDCCCCCCCCCCF43F0146C807AA
:10162000000E8A07D20F920110434A07D20F5201CF
:1016300010430A07D20F12011043CA06D20FD2007C
:1016400010438A06D20F920010434A06D20F52006E
:1016500010430A06D20F10437047000010B504462D
:10166000284840690821084326494861084680689F
:10167000082108432349886008464069042108433B
:101680002049486108464068042108431D494860D4
:10169000002C0CD0084640690421084319494861D0
:1016A0000846806804210843164988600BE0154805
:1016B00040690421084313494861084640680421F1
:1016C0000843104948600120FFF75CFD0D48406960
:1016D000082108430B49486108464068082108432F
:1016E000084948600120FFF74DFD06484069082180
:1016F00008430449486108468068082108430149B5
:10170000886010BD00F00F400C4840690821084374
:101710000A4948610846406808210843074948606B
:101720000846406904210843044948610846406866
:1017300004210843014948607047000000F00F4051
:1017400010B521484069042108431F4948610846F3
:101750004068042108431C49486008464069042148
:10176000084319494861084640680421084316495E
:101770004860084640690821084313494861084603
:10178000406808210843104948600220FFF7FAFC2E
:101790000D484069042108430B49486108468068A8
:1017A00004210843084988600220FFF7EBFC064843
:1017B00040690821084304494861084680680821B7
:1017C00008430149886010BD00F00F4010B5214862
:1017D0004069042108431F494861084640680421C4
:1017E00008431C49486008464069082108431949D4
:1017F0004861084680680821084316498860084601
:10180000406904210843134948610846806804215F
:101810000843104988600220FFF7B4FC0D48406976
:10182000082108430B4948610846406808210843DD
:101830000849486008464069042108430549486151
:101840000846406804210843024948600220FFF727
:1018500099FC10BD00F00F40FFB59BB00546164641
:101860001C46249FFE4801680068FEF7EEFC1390BA
:10187000FC480168FA480068FEF7E7FC1290FA4855
:101880000168F7480068FEF7E0FC1190F548016830
:101890000068FEF7DAFC1090F4480168F14800682F
:1018A000FEF7D3FC0F90F04801680068FEF7CDFC0E
:1018B0000E90EE480168EC480068FEF7C6FC0D90FB
:1018C000EA4801680068FEF7C0FC0C9025990846BC
:1018D000FEF7BBFC394606903846FEF7B6FC2146BB
:1018E00004902046FEF7B1FC03900499FEF754FCE7
:1018F00005900699FEF750FC0790FEF7D5FE09917A
:10190000089003F057FE0B910A90FEF7E1FE1A9043
:1019100020461A99FEF7D6FC044638461A99FEF777
:10192000D1FC07461A992598FEF7CCFC2590119911
:101930000F98FEF782FC012189070B90FEF785FCCA
:1019400019900D991298FEF727FC012189070B9039
:10195000FEF77BFC189010991398FEF76EFC0A9026
:101960000E99FEF76AFC0B900C99FEF715FC179088
:1019700018992598FEF769FC0B9038461799FEF7E1
:1019800064FC0A900B99FEF758FC169020461799B4
:10199000FEF75BFC0B9019992598FEF756FC0A9010
:1019A0000B99FEF74AFC159038461999FEF74DFC45
:1019B0000B9020461899FEF748FC0A900B99FEF709
:1019C0003CFC1490AA491698FEF73FFC0B90A948DE
:1019D00001680B98FEF7E0FBA6490860A44915983A
:1019E000FEF733FC0B90A44801680B98FEF7D4FB7C
:1019F000A14908609E491498FEF727FC0B909F4868
:101A000001680B98FEF7C8FB9C4908609C48169932
:101A1000FEF71BFC29460A90FEF7BEFB0B9095488B
:101A200001680B98FEF7B8FB054695481599FEF737
:101A30000CFC0A901C99FEF7AFFB0B908E480168D6
:101A40000B98FEF7A9FB1C908D481499FEF7FDFB3F
:101A500031460A90FEF7A0FB0B90884801680B986E
:101A6000FEF79AFB0646314680480068FEF7EDFB1C
:101A700009907D481C990068FEF7E7FB07907948BC
:101A800000680121C907484029460590FEF7DDFBA3
:101A900006900799FEF7D1FB08900999FEF7CDFB58
:101AA00078490A90FEF7D1FB0B906D4801680B98BE
:101AB000FEF772FB6A4908606C481C990068FEF7E3
:101AC000C4FB3146099068480068FEF7BEFB0790EA
:101AD000634801682846FEF7B8FB06900799FEF7B1
:101AE0005BFB08900999FEF7A8FB66490A90FEF790
:101AF000ACFB0B905B4801680B98FEF74DFB594916
:101B000008605A4801682846FEF79FFB3146099055
:101B100054480068FEF799FB079051481C990068EB
:101B2000FEF793FB06900799FEF787FB089009994B
:101B3000FEF732FB53490A90FEF787FB0B904A48A9
:101B400001680B98FEF728FB4749086008460168C2
:101B50002846FEF77AFB099042481C990068FEF778
:101B600074FB314607903E480068FEF76EFB069016
:101B70000799FEF711FB08900999FEF75EFB4149B2
:101B80000A90FEF762FB0B90384801680B98FEF74D
:101B900003FB36490860084601680068FEF755FBFC
:101BA0000690314801680068FEF74FFB04902D480D
:101BB00001680068FEF749FB029029480168006847
:101BC000FEF743FB01900299FEF7E6FA03900499B1
:101BD000FEF7E2FA05900699FEF7DEFA0790FEF7A7
:101BE00063FD0991089003F0E5FC0B910A90FEF764
:101BF0006FFD1A901A481A990068FEF763FB18499E
:101C0000086018481A990068FEF75CFB15490860DF
:101C100015481A990068FEF755FB134908601348E8
:101C20001A990068FEF74EFB104908600C480168DD
:101C300001208007FEF709FB02900B48016802981B
:101C4000FEF703FB04900748016803208007FEF7B6
:101C5000FCFA0290054801680298FEF7F6FA13E0D4
:101C6000D8F0FF1FDCF0FF1FE0F0FF1FE4F0FF1FC4
:101C70006F12833AE8F0FF1FECF0FF1FF0F0FF1F38
:101C8000CDCCCC3F0AD7A33B03900499FEF784FA4E
:101C90000590FEF709FD0791069002F097FF074AAD
:101CA000074B09910890FEF765FC0B910A90FEF72F
:101CB0000FFD044908601FB0F0BD0000666666664F
:101CC00066A64C4094F0FF1F70B505460C46002CEC
:101CD00002D0012C0AD104E008A1284602F04EFAF5
:101CE00009E007A1284602F049FA04E005A12846C8
:101CF00002F044FA00BF00BF70BD00004F4646002E
:101D00004F4E20003F3F3F0010B51620012181407B
:101D10003A4A116000BF00F06FFA0120384908709C
:101D20006AE03848806801214904084335498860E1
:101D3000FFF736FB344A0021515EFF22C332914245
:101D400001DD012100E0002108432F4A0021515EFE
:101D50002E4A914201DA012100E0002108430028C7
:101D600000D11EE0002211460220FFF76DFA00228A
:101D700005210220FFF768FA002202210846FFF73A
:101D800063FA002203210220FFF75EFA00201C49BB
:101D900008701F48C068012108431D49C860002021
:101DA00010BD00BF18490020085EFEF7C9FA1949A6
:101DB000086019490020085EFEF7C2FA154948601C
:101DC00016480068886016480088FEF7C4FA114972
:101DD000C86014480088FEF7BEFA0E490861104931
:101DE0000988104A1288881AFEF7AAFA0949486138
:101DF00001F028F801F032F893E7000000E100E07C
:101E00008CF0FF1F40F00F4074F0FF1F3EFEFFFFFD
:101E10000071034028F9FF1F76F0FF1F94F0FF1FA9
:101E200068F0FF1F6AF0FF1F234880690121C9067F
:101E3000884321498861214880680121C9060843F7
:101E40001E4988601C4840308069102188431A4927
:101E5000403188611948C068102108431749C8609B
:101E600015484030806949158843134940318861DD
:101E70001248C068491508431049C8600E48806977
:101E80000121090788430C4988610C4880680121B9
:101E90000907084309498860074840308069891567
:101EA00088430549403188610448C0688915084362
:101EB0000249C8607047000000F00F4000900440E5
:101EC00015484069012189040843134948610846BF
:101ED00040680121890408430F4948600846406969
:101EE0000121490408430C49486108464068012122
:101EF000490408430849486008464069012109042B
:101F0000084305494861084640680121090408431F
:101F1000014948607047000040F00F4070B504462A
:101F20000D4621480078002824D03B20FFF798F97F
:101F300028803D20FFF794F968803F20FFF790F953
:101F4000A8804320FFF78CF918490988401A00B28D
:101F500020804520FFF784F914494988401A00B2CF
:101F600060804720FFF77CF910498988401A00B249
:101F7000A08017E03B20FFF773F928803D20FFF792
:101F80006FF968803F20FFF76BF9A8804320FFF7C7
:101F900067F920804520FFF763F960804720FFF74D
:101FA0005FF9A08070BD0000D4F0FF1FA6F0FF1FF6
:101FB00010B50A20FFF7CEF880226B21682003F0CD
:101FC000E5FA0A20FFF7C6F800226B21682003F02B
:101FD000DDFA0A20FFF7BEF801226B21682003F02A
:101FE000D5FA0A20FFF7B6F818221B21682003F063
:101FF000CDFA0A20FFF7AEF800221C21682003F07A
:10200000C5FA0A20FFF7A6F800221921682003F07C
:10201000BDFA0A20FFF79EF801221A21682003F07A
:10202000B5FA6420FFF796F800227521682003F0C6
:102030008DFA682809D10A20FFF78CF800F008F81B
:102040000A20FFF787F8002010BD0120FCE7000000
:102050003EB5322500200090019002901C49088076
:1020600048808880002418E01A491B48FFF756FF73
:102070000120FFF76FF8184900228A5E0098801847
:10208000009002228A5E01988018019004228A5EE4
:10209000029880180290601CC4B2AC42E4DB29466E
:1020A0000098FEF741F800B20949088029460198D6
:1020B000FEF73AF800B20649488029460298FEF732
:1020C00033F800B2024988800120044908703EBDFF
:1020D000A6F0FF1FACF0FF1FA0F0FF1FD4F0FF1F02
:1020E00010B500230B4A1946022002F04DFF0023D1
:1020F000084A0521022002F047FF0023054A022179
:10210000084602F041FF0023024A0321022002F0A8
:102110003BFF10BDD430000010B504460122002161
:102120000220FFF791F8224605210220FFF78CF8E4
:1021300010BD10B50446224600210220FFF784F8A6
:10214000012205210220FFF77FF810BD10B50446DB
:10215000012202210846FFF777F8224603210220D8
:10216000FFF772F810BD10B504462246022108465A
:10217000FFF76AF8012203210220FFF765F810BD7E
:1021800010B5002819DA1A4A03071B0F083B9B08F1
:102190009B00D2588307DC0EFF23A3409A438B0792
:1021A0001B0E8407E40EA3401A43114B0407240FAF
:1021B000083CA408A4001A5118E00E4A03231B028D
:1021C000D21883089B00D2588307DC0EFF23A3405C
:1021D0009A438B071B0E8407E40EA3401A43054B5A
:1021E000032424021B198408A4001A5110BD000006
:1021F0001CED00E000E100E010B500200CE0002143
:1022000006E00022CB00064C1B191A544A1CD1B21E
:102210008029F6DB411CC8B20828F0DB10BD0000A5
:1022200010F1FF1FF7B57F2801DC3F2900DDFEBD5F
:102230000C46CE17760F3619F6100727BE1BF2B2E2
:10224000CE17760F3619F610F6008E1BF5B207245E
:10225000661B0124B440E3B2029C002C09D0C400E8
:10226000094EA419A45C1C43C600074FF619B454C8
:1022700008E0C400044EA419A45C9C43C600024FAD
:10228000F619B45400BFD2E710F1FF1F00B5624841
:102290004069FF21013108435F49486108464068B1
:1022A000891508435C494860084640694915084358
:1022B00059494861084640684915084356494860ED
:1022C0005548403040690915084353494031486139
:1022D00008464068091508434F49403148600846A0
:1022E00040690121C90208434B4940314861084611
:1022F00040680121C9020843474940314860084607
:1023000040680121C90208434349403148600846FA
:102310008068091508434049403188607D204001AC
:1023200007E0642101E04A1E91B20029FBDC411E56
:1023300088B20028F5DC3848403040680121890225
:1023400008433549403148600021AE2000F004FACE
:102350000021D52000F000FA0021802000F0FCF9D7
:102360000021A82000F0F8F900213F2000F0F4F946
:102370000021D32000F0F0F90021084600F0ECF92C
:102380000021402000F0E8F900218D2000F0E4F960
:102390000021142000F0E0F90021202000F0DCF9F9
:1023A0000021022000F0D8F90021A12000F0D4F98A
:1023B0000021C02000F0D0F90021DA2000F0CCF993
:1023C0000021122000F0C8F90021812000F0C4F99A
:1023D0000021EF2000F0C0F90021D92000F0BCF965
:1023E0000021F12000F0B8F90021DB2000F0B4F961
:1023F0000021302000F0B0F90021A42000F0ACF959
:102400000021A62000F0A8F90021AF2000F0A4F9D7
:10241000FFF7F2FE00BD000000F00F4030B500F005
:10242000B3FC00241CE02146B031C8B2002100F00A
:1024300093F90021084600F08FF90021102000F0E8
:102440008BF9002508E0E900074A8918085D012199
:1024500000F082F9681CC5B2802DF4DB601CC4B2A8
:10246000082CE0DB30BD000010F5FF1FFFB584B085
:102470000E4615461C4602962046E3175B0F1B18B6
:10248000DB102246E7177F0FBF18FF10FF00E71B86
:1024900001D0012700E00027DB192146E70F7F1854
:1024A0007F107B43DBB2019328462038C5B200275A
:1024B0004FE00C2C04D0102C09D0182C14D10CE0B7
:1024C0000C20684325494018C05D03900DE02801A9
:1024D00023494018C05D039007E024206843214948
:1024E0004018C05D039000E000BF00BF00200090D6
:1024F00029E0802103980840002805D031460D9A34
:102500000498FFF78FFE0AE00D98002801D1012002
:1025100000E00020024631460498FFF783FE03984E
:102520004006000E0390701CC6B20298301AA042FA
:1025300005D1029E0498401CC0B2049006E00098A9
:10254000401CC0B2009000980828D2DB00BF781C65
:10255000C7B201988742ACDB08B0F0BDE41C0100B3
:102560005821010048270100FFB581B0064600242C
:1025700007E02548015D0398814200D103E0601C1B
:10258000C4B2092CF5DB00BF0394002438E0002717
:102590002BE0FF218131039848431C494118062054
:1025A0006043C019085C009000251AE01848405D9F
:1025B00000990840002805D03046049A0299FFF798
:1025C00031FE0AE00498002801D1012000E000203B
:1025D000024630460299FFF725FE701CC6B2681C01
:1025E000C5B2082DE2DB781CC7B2062FD1DB0298FA
:1025F000401CC0B2029030463038C6B2601CC4B233
:10260000402CC4DB05B0F0BDFC55000078EC0000A8
:10261000A4340100FFB581B0064614461D460A9F4A
:102620000DE0009722782B4630460299FFF71EFFF7
:102630002846E90F091849108919CEB2641C207880
:102640007E2802DC20782028EBDA05B0F0BDF8B552
:1026500005460F4614461E461FE02078002800D18C
:102660001CE020787E280DDC207820280ADB0096EC
:1026700022780C2339462846FFF7F8FEA81DC5B27C
:10268000641C0AE00096637822783946284600F0F8
:1026900007F828460C30C5B2A41CDEE700BFF8BD21
:1026A000FFB581B0064600240DE02848015D03987F
:1026B000814206D12549601C095C0498814200D101
:1026C00003E0A01CC4B2642CEFDB00BF0394002421
:1026D00037E000272AE0FF218131039848431C4955
:1026E00040186100C919405C009000251AE01948A3
:1026F000405D00990840002805D030460A9A0299AA
:10270000FFF790FD0AE00A98002801D1012000E0BF
:102710000020024630460299FFF784FD701CC6B2C5
:10272000681CC5B2082DE2DB781CC7B2022FD2DBD1
:102730000298401CC0B2029030461038C6B2601CED
:10274000C4B20C2CC5DB05B0F0BD0000145600006F
:1027500078560000A434010010B5002902D00129E8
:1027600010D107E0234A92680123DB021A43214B70
:102770009A6007E01F4A52680123DB021A431D4B8F
:102780005A6000BF00BF00222AE01A4B403B9B6802
:10279000FF2401342343174C403CA36080230340B3
:1027A000002B07D023465B6864152343114C403C43
:1027B000636008E00F4B403B9B68012464022343A5
:1027C0000C4C403CA3600B4B403B5B68FF24013446
:1027D0002343084C403C63604306180E531CDAB296
:1027E000082AD2DB034A52680123DB021A43014B59
:1027F0005A6010BD40F00F40F0B593B0FE48C0687D
:1028000001210843FC49C860FC49FD48FFF786FBED
:10281000FEF7B8FBFEF738FDFA490420085E0A21EE
:10282000FDF782FC1190FDF78BFD0746F6484168E5
:102830003846FDF70AFD0546F2491E20085EFDF701
:102840007FFD1090F14801681098FDF7FAFC0746EB
:10285000EC490020085EFDF773FD39461190FDF745
:10286000F4FC06462946FDF797FC0446FDF79CFD5F
:10287000E74908600020FEF7D3FC002803D102F0EE
:10288000E7FA404202E0002002F0E2FA00B2E14939
:1028900008800120FEF7C4FC002803D1012002F0CB
:1028A000D7FA03E0012002F0D3FA404200B2DA493D
:1028B0000880D84A0021515ED74A0023D35EC81849
:1028C000C10F09184A10CF49098C891A09B2D34A95
:1028D00011800020D2490860D248C088D1490881BF
:1028E00008468088C8800846408888800846008856
:1028F000488011460020085ECA4908800020085E12
:1029000002228A5E801804228A5E801806228A5E6D
:10291000801808228A5E8018C3490860B9490C22D1
:102920008A5EC14909684A4310466421FDF7FCFBF1
:10293000B44A0A21515EB94A0023D35E5A42514338
:102940004018BA490860002002F07AFA012002F02B
:1029500077FAAC4A1E21515EC81CFDF7F1FC044613
:10296000AA4801682046FDF739FD0FD2A54A1E216D
:10297000515EC81EFDF7E4FC0446A44801682046E9
:10298000FDF7C2FE02D20020A84908600120FEF730
:10299000E3FC0646FDF7DFFC05462946A44802F0A5
:1029A00017FC0446FDF74EFEA24908800220FEF700
:1029B000D3FC0646FDF7CFFC054629469C481C3053
:1029C00002F006FC0446FDF73DFE9B4908809B494A
:1029D0000020085E9A490880974800889549098830
:1029E000401A00B2954908800020085EFDF7BAFC45
:1029F0000446944A944BFDF7BDFD0D910C908F4910
:102A00000020085EFDF7AEFC04460D468B49002011
:102A1000085EFDF7A7FC06468C4A8D4BFDF7AAFD24
:102A200022462B4605910490FDF7A4FD09910890DC
:102A300082490020085EFDF795FC059104907F49CE
:102A40000020085EFDF78EFC04460D467B49002001
:102A5000085EFDF787FC06467E4A7F4BFDF78AFD40
:102A600022462B4601910090FDF784FD03910290D0
:102A7000059B049AFDF77EFD07910690099B089A35
:102A8000FDF7C6FC0B910A900D9B0C9AFDF7C0FC5C
:102A9000724A734B0F910E90FDF75EFD11911090ED
:102AA000FDF716FE6F49086063480088FA280CDAC3
:102AB000604800887321C900884206DA5D480088B2
:102AC000FA2802DD6848674908605B480088FF21F2
:102AD000913188420EDD584800887321C900884230
:102AE00008DA54480088FF219131884202DA5F48B1
:102AF0005C490860514A0021515E514A0023D35E6F
:102B0000C91A404A1823D35E59430846FDF718FCFA
:102B100006463C491420085EFDF712FC0746514862
:102B200001683846FDF791FB05463146FDF734FB59
:102B30000446FDF739FC4E490860354800683B49BA
:102B4000096840184A490968401A4A4908603048EB
:102B500000683649096840184549096840184649DF
:102B6000086046480078002800D101E0414800682C
:102B70004049086041480078002800D101E03E4803
:102B800000683D4908603B480068002811DA394870
:102B90000068404237490860084600683849884262
:102BA00002DB08463349086032480068FFF7C1FA83
:102BB0000BE0304800683249884202DB08462D4964
:102BC00008602C480068FFF7A7FA2B480068002827
:102BD00058DA2948006840422749086008460068DA
:102BE0002749884202DB08462349086022480068DA
:102BF000FFF7B9FA52E0000000710340ACF0FF1F8C
:102C0000A0F0FF1F04F0FF1F78F9FF1F94F0FF1FD3
:102C100054F0FF1F74F0FF1F76F0FF1F78F0FF1FC6
:102C200084F0FF1F10F9FF1F7CF0FF1F58F0FF1FFB
:102C3000B4F9FF1F6AF0FF1F68F0FF1F70F0FF1F5D
:102C400072F0FF1FD4B7CCE9B298883F1C0CD011AA
:102C500054E8C7BE9FB7BB4ED6A8353EB115342D3C
:102C6000B1327A3F88F0FF1F000050C10000504190
:102C70005CF0FF1F60F0FF1F64F0FF1F8CF0FF1F70
:102C80004E0C00000A4800680A49884202DB0846E8
:102C90000749086006480068FFF758FA0648406888
:102CA0000121490408430449486013B0F0BD000005
:102CB00064F0FF1F4E0C000040F00F400948C1694E
:102CC000012001430748C1610748C0680121490448
:102CD00008430549C8600846C06801210843024905
:102CE000C86070470071034040F00F4070B5044663
:102CF0000D4616461F484069022108431D49486198
:102D00001D480068022188431B4908602046163090
:102D1000C206D20E01219140184A116000BF184826
:102D200068431849220188500846210140188068EC
:102D300002210843134922018918886011482101A2
:102D400040188168012001430E48220180188160EB
:102D50002146163148B23146FFF712FA20461630A6
:102D6000C206D20E01219140044A803A116000BF90
:102D700070BD0000008004400070034080E100E06E
:102D8000409C00000071034010B5002314E00024B3
:102D90000FE08021C91A491EC900094A8918072273
:102DA000121B885CFEF73AFCD900064A89180855C0
:102DB000641C082CEDDB5B1C802BE8DB10BD0000E5
:102DC00010F1FF1F10F5FF1F10B500241B4880698C
:102DD00004218843194988611948806804210843FF
:102DE000174988601548406908210843134948611C
:102DF0000846406808210843104948600020FEF753
:102E0000C1F907E0601CC4B2FA2C03DDFEF7DEFC5A
:102E1000012010BD09480069042108400028F1D1B3
:102E2000064840690821084304494861084680680B
:102E300008210843014988600020EAE700F00F40BC
:102E40000090044010B5552002F0C6FAAA2002F006
:102E5000C3FAAE2002F0C0FA10BD0000F8B500269B
:102E6000002000900625552002F0B6FAAA2002F0B4
:102E7000B3FAAD2002F0B0FA284602F0ADFA002411
:102E800019E0A0000F4908580090684606783046BF
:102E900002F0A2FA68464678304602F09DFA68468B
:102EA0008678304602F098FA6846C678304602F0D6
:102EB00093FA601CC4B2AC42E3DB0D2002F08CFA42
:102EC000F8BD000028F9FF1F1349144A9180012121
:102ED000517023211170112000050146104A5162E2
:102EE000104949780907090F0E4A517094210E4A7A
:102EF00011701A210B4A117000BF0A49097910227A
:102F000011400029F9D100BF064909790C2211406E
:102F10000029F9D17047000003E8000000200540B7
:102F2000008004400040064000500640F3B581B0E8
:102F30000646B00049490C58002E04D0012E22D07C
:102F4000022E62D140E04648C0688021884344494F
:102F5000C8600846406901210905084340494861A5
:102F60004048C078082108433E49C8700846C078E8
:102F7000042108433B49C8700846C0782021084313
:102F80003849C87000BF36480069012109038843E9
:102F90003349086108464069012149050843304921
:102FA00048613148C078082108432F49C870084655
:102FB000C078042108432C49C8700846C0782021F5
:102FC00008432949C87021E02548006901214903C7
:102FD000884323490861084640690121890508435F
:102FE0001F4948612148C078082108431F49C8701B
:102FF0000846C078042108431C49C8700846C078B8
:10300000202108431949C87000E000BF00BFE078E4
:103010000C218843E0700020A07015480299FDF74C
:103020006DF8471D0A213846FDF768F885B211484A
:10303000854200DD05462078400940012070207857
:10304000E904C90E0843207065700020A070A071CB
:103050006071E0780C210843E070FEBDD8350100B6
:103060000080044000A0064000B0064000C00640BA
:1030700040787D01FF1F000030B502460B469000EE
:103080000B4D2C58002108E020798025284000288D
:1030900001D0E37104E0481CC1B206488142F3DB71
:1030A00000BF0448814201DB012030BD0020FCE765
:1030B000D8350100BBFB0000F0B5CDB001250026DE
:1030C00001240027FFF798F8FF222D32774902A844
:1030D000FDF73EF8012302AA00210846FFF7B7FAE0
:1030E0001E20604302A9421801230D210020FFF792
:1030F000AEFA601C1E21484302A9421801231A217E
:103100000020FFF7A4FAA01C1E21484302A9421880
:10311000012327210020FFF79AFAE01C1E214843D3
:1031200002A94218012334210020FFF790FA00BFC2
:103130002E462746FEF734F9012806D0022807D08C
:1031400003280BD004281CD105E0681EC5B218E086
:10315000681CC5B215E000204DB0F0BD012D06D0B1
:10316000022D06D0032D06D0042D08D105E01F2026
:10317000F2E72020F0E72120EEE72220ECE7002014
:10318000EAE700BF012D01DA092000E028460546E4
:10319000092D01DD012000E028460546A54201DA9F
:1031A000284600E020460446E81EA04200DD00E07C
:1031B0002046C4B2AE421FD001200C232022194663
:1031C00000901846FFF752F901200C232022192104
:1031D00000901846FFF74AF901200C2320222621EF
:1031E00000901846FFF742F901200C2320223221DB
:1031F00000901846FFF73AF9A74226D01E206043F8
:1032000002A9421801230D210020FFF720FA601CBB
:103210001E21484302A9421801231A210020FFF76A
:1032200016FAA01C1E21484302A942180123272197
:103230000020FFF70CFAE01C1E21484302A94218A7
:10324000012334210020FFF702FAA54208D1012012
:103250000C234022194600901846FFF707F922E098
:10326000601C854208D101200C23402219210090C6
:103270001846FFF7FBF816E0A01C854208D1012094
:103280000C234022262100901846FFF7EFF80AE0B1
:10329000E01C854207D101200C23402232210090FE
:1032A0001846FFF7E3F8FFF7B9F841E7AC3401003F
:1032B00038B50124FEF7A0FF00BF01200C231BA29C
:1032C000002100900620FFF7A5F920463030C2B259
:1032D000012300212820FFF747F9FEF761F80300DA
:1032E00000F077FF061304070A101213601C44B2A3
:1032F0000BE0601E44B208E0E0B2FDF7F7FDFEF718
:1033000003FD00BF002038BD00BF00BF052C01DB5E
:10331000052000E020460446002C01DC002000E0EF
:1033200020460446FFF77AF8C7E700003C0000009B
:1033300070B58AB00026FEF75FFF012318A20021B6
:103340000846FFF784F900BFFEF72AF8042802D1E7
:1033500003200AB070BD18480068FDF7A5F90446BF
:1033600022460B4615A102A800F008FF01200C23FD
:1033700002AA142100900020FFF74CF91448022201
:10338000825E14A102A800F0F9FE01200C2302AA1B
:10339000212100900020FFF73DF9FFF73FF8D3E728
:1033A000203C20202020CDD32020C2DD2020D2C7E9
:1033B000202020202020000094F0FF1F504954437B
:1033C000483A2025332E32662020202000000000BD
:1033D000A0F0FF1F475F593A2025356420202020A8
:1033E000000000001CB5012001900024FEF704FF3E
:1033F00001235AA200210846FFF729F901235DA203
:103400000D210020FFF723F9012360A21A210020DB
:10341000FFF71DF9012363A227210020FFF717F909
:10342000012366A234210020FFF711F900BF68468E
:103430000479FDF7B5FF012804D0022808D003283D
:1034400021D10BE068460079401EC1B201911BE01A
:1034500068460079401CC1B2019115E068460079C8
:10346000012806D0022806D0032806D0042808D157
:1034700005E001201CBD0220FCE70320FAE7042040
:10348000F8E70020F6E700BF00BF68460079012892
:1034900001DA042101E0684601790191684600796A
:1034A000042801DD012101E06846017901916846A7
:1034B000007984421FD001200C232022194600905D
:1034C0001046FEF7D3FF01200C2320221921009083
:1034D0001046FEF7CBFF01200C232022262100906E
:1034E0001046FEF7C3FF01200C232022322100905A
:1034F0001046FEF7BBFF68460079012806D0022877
:103500000DD0032814D0042824D11AE001200C2364
:103510004022194600902020FEF7A8FF1AE0012063
:103520000C234022192100902020FEF79FFF11E07C
:1035300001200C234022262100902020FEF796FF38
:1035400008E001200C234022322100902020FEF7C9
:103550008DFF00BF00BFFEF761FF68E7202020203D
:103560002020D6F72020B2CB2020B5A52020202077
:10357000202000002020202020202020B7A220B3DF
:10358000B5202020202020202020000020202020E6
:1035900020202020B7BD20B0B820202020202020CF
:1035A000202000002020202020202020CDE220C943
:1035B000E820202020202020202000002020202083
:1035C00020202020C9E820D6C32020202020202031
:1035D00020200000F0B5FFB09AB00125002601249C
:1035E000002700209890FEF707FE02A800F054FC88
:1035F000012302AA00210846FFF729F81E20604394
:1036000002A9421801230D210020FFF720F8601CB9
:103610001E21484302A9421801231A210020FFF766
:1036200016F8A01C1E21484302A942180123272195
:103630000020FFF70CF8E01C1E21484302A94218A5
:10364000012334210020FFF702F800BF2E46274651
:10365000FDF7A6FE012806D0022807D003280CD0CB
:10366000042864D105E0681EC5B260E0681CC5B2DC
:103670005DE000207FB01AB0F0BD2B0000F0A9FD86
:103680000B56070E161E262E363E464E56000123BA
:10369000754A21462846FDF76FFB47E00123724A31
:1036A000921C21462846FDF767FB3FE001236E4A46
:1036B0001E3A21462846FDF75FFB37E00A236A4A97
:1036C0001A3A21462846FDF757FB2FE00123664AA8
:1036D000143A21462846FDF74FFB27E06423624A4F
:1036E000123A21462846FDF747FB1FE001235E4AB8
:1036F0000A3A21462846FDF73FFB17E001235A4AC4
:10370000921F21462846FDF737FB0FE00123564A5A
:10371000121F21462846FDF72FFB07E00123524ADE
:10372000921E21462846FDF727FB00BF00BF00BFC1
:10373000012D01DA102000E028460546102D01DD9C
:10374000012000E028460546A54201DA284600E0AF
:1037500020460446E81EA04200DD00E02046C4B238
:10376000AE4202D19898012823D101200C232022B7
:10377000194600900620FEF779FE01200C23202236
:10378000192100900620FEF771FE01200C23202253
:10379000262100900620FEF769FE01200C2320223E
:1037A000322100900620FEF761FE02A800F074FBB3
:1037B00000BFA74226D01E20604302A94218012361
:1037C0000D210020FEF743FF601C1E21484302A983
:1037D000421801231A210020FEF739FFA01C1E21E8
:1037E000484302A94218012327210020FEF72FFF9A
:1037F000E01C1E21484302A9421801233421002065
:10380000FEF725FFA54208D101200C2340221946CE
:1038100000900620FEF72AFE22E0601C854208D1B7
:1038200001200C234022192100900620FEF71EFEE5
:1038300016E0A01C854208D101200C23402226213D
:1038400000900620FEF712FE0AE0E01C854207D138
:1038500001200C234022322100900620FEF706FEB4
:10386000FEF7DCFDF2E6000022F0FF1F30B585B068
:1038700014216846FCF785FCFEF7BEFC012318A264
:1038800000210846FEF7E3FE0024002500BFFDF7F7
:1038900087FD042802D1032005B030BD224616A1C1
:1038A000684600F06BFC01236A461A210020FEF7EF
:1038B000CEFE2A4614A1684600F060FC01236A4649
:1038C00027210020FEF7C3FE002001F0B9FA0120F5
:1038D00001F0B6FAFEF7A2FD0720FDF73BFCD6E7A4
:1038E000203C20202020B1E020C2EB20C6F720D6CB
:1038F000B5202020202020004C5FB1E0C2EBC6F7AD
:103900003A25356420000000525FB1E0C2EBC6F7F3
:103910003A25356420000000F0B5A1B000202090C9
:103920001F901E901D90142118A8FCF72AFC14214A
:1039300013A8FCF726FC0020129014210DA8FCF718
:1039400020FC00200C90FEF757FC012336A200213A
:103950000846FEF77CFE00BFFDF722FD042802D1D9
:10396000032021B0F0BD364803883648028836A1CE
:1039700004A800F003FC01200C2304AA19460090BF
:103980000020FEF747FE2F4800882D490988421A7B
:1039900032A104A800F0F2FB01200C2304AA192193
:1039A00000900020FEF736FE30480068FCF77CFEF1
:1039B00004460D462E480068FCF776FE0646324661
:1039C0000B462CA104A80195009400F0D7FB012020
:1039D0000C2304AA2D2100900020FEF71BFE0520D9
:1039E000FDF7BAFC0190FCF7B6FC28490290FCF701
:1039F00069FC0390FCF758FE0446254A254BFCF76A
:103A0000B9FD064632460B4623A104A800F0B6FBDA
:103A100001200C2304AA3C2100900020FEF7FAFDAF
:103A2000FEF7FCFC98E70000203C20202020B5E7B2
:103A30002020B8D02020D6B5202020202020000033
:103A40006AF0FF1F68F0FF1F41445F313A2534647C
:103A5000202041445F323A25346400004144312D36
:103A60003220203A253464200000000088F0FF1F37
:103A700094F0FF1F50495443483A2025332E3266B4
:103A8000202020783A256620000000000000CD4369
:103A90007B14AE47E17AFC3F4241543A25322E3244
:103AA00066000000F0B5CDB00125002601240027F6
:103AB00000204C90FEF7A0FB01A800F007F90123BD
:103AC00001AA00210846FEF7C2FD1E20604301A99D
:103AD000421801230D210020FEF7B9FD601C1E21B4
:103AE000484301A9421801231A210020FEF7AFFD27
:103AF000A01C1E21484301A94218012327210020B0
:103B0000FEF7A5FDE01C1E21484301A94218012330
:103B100034210020FEF79BFD00BF2E462746FDF70F
:103B20003FFC012806D0022807D003280BD0042828
:103B300029D105E0681EC5B225E0681CC5B222E0A7
:103B400000204DB0F0BD012D06D0022D0AD0032D6E
:103B50000ED0042D14D111E0594A21462846FDF714
:103B6000AFF80FE0574A21462846FDF7A9F809E0CB
:103B7000554A21462846FDF7A3F803E00020E0E778
:103B80000020DEE700BF00BF012D01DA092000E0C0
:103B900028460546092D01DD012000E0284605469E
:103BA000A54201DA284600E020460446E81EA0426D
:103BB00000DD00E02046C4B2AE4202D14C9801289C
:103BC00023D101200C232022194600900620FEF765
:103BD0004DFC01200C232022192100900620FEF725
:103BE00045FC01200C232022262100900620FEF710
:103BF0003DFC01200C232022322100900620FEF7FC
:103C000035FC01A800F062F800BFA74226D01E20B4
:103C1000604301A9421801230D210020FEF717FD82
:103C2000601C1E21484301A9421801231A210020CB
:103C3000FEF70DFDA01C1E21484301A942180123D7
:103C400027210020FEF703FDE01C1E21484301A9A7
:103C50004218012334210020FEF7F9FCA54208D1C7
:103C600001200C234022194600900620FEF7FEFB9F
:103C700022E0601C854208D101200C23402219213A
:103C800000900620FEF7F2FB16E0A01C854208D14A
:103C900001200C234022262100900620FEF7E6FB9F
:103CA0000AE0E01C854207D101200C23402232218A
:103CB00000900620FEF7DAFBFEF7B0FB2DE70000D0
:103CC0004EF0FF1F4FF0FF1F50F0FF1F38B50446A6
:103CD000002000904D2531A1204600F04FFA3548D4
:103CE00001786846FDF7F0FF6A4633A120461E3092
:103CF00000F044FA364801786846FDF7E5FF6A4669
:103D000034A120463C3000F039FA38480178684642
:103D1000FDF7DAFF6A4636A120465A3000F02EFA47
:103D200029466846FDF7D0FF6A4637A1204678301D
:103D300000F024FA29466846FDF7C6FF6A4638A116
:103D40002046963000F01AFA29466846FDF7BCFF77
:103D50006A4639A12046B43000F010FA2946684678
:103D6000FDF7B2FF6A463AA12046D23000F006FACB
:103D700029466846FDF7A8FF6A463BA12046F03079
:103D800000F0FCF929466846FDF79EFF6A463CA113
:103D90002046FF300F3000F0F1F938BD20203C20E4
:103DA00020202020C9E82020D6C320202020202049
:103DB000200000004EF0FF1F202020312E20204C3C
:103DC00020452044202020202020257300000000D2
:103DD0004FF0FF1F202020322E2020B7E420C3F90F
:103DE00020C6F720202025730000000050F0FF1FA0
:103DF000202020332E2020C0B62020D1C02020201B
:103E00002020257300000000202020342E20205880
:103E1000585858585858202020202573000000007A
:103E2000202020352E2020585858585858582020E7
:103E30002020257300000000202020362E2020584E
:103E4000585858585858202020202573000000004A
:103E5000202020372E2020585858585858582020B5
:103E60002020257300000000202020382E2020581C
:103E7000585858585858202020202573000000001A
:103E8000202020392E202058585858585858202083
:103E90002020257300000000F8B504464CA1204600
:103EA00000F06CF950481E22825E50A120461E3060
:103EB00000F064F94C482022825E52A120463C303A
:103EC00000F05CF948480022825E54A120465A3036
:103ED00000F054F944490420085EFCF731FA5549D2
:103EE0000090FCF7EFF90746FCF7DEFB05462A4693
:103EF0000B4651A12046783000F040F93A480A229A
:103F0000825E54A12046963000F038F936490C20E4
:103F1000085EFCF715FA55490090FCF7D3F90746FF
:103F2000FCF7C2FB05462A460B4651A12046B43099
:103F300000F024F92C481422825E54A12046D2308D
:103F400000F01CF928481822825E56A12046F03065
:103F500000F014F924481A22825E58A12046FF304E
:103F60000F3000F00BF920481C22825E59A1204638
:103F7000FF302D3000F002F900225CA12046FF3016
:103F80004B3000F0FBF800225EA12046FF30693084
:103F900000F0F4F8002261A12046FF30873000F0E5
:103FA000EDF8002263A12046FF30A53000F0E6F8CE
:103FB000002266A12046FF30C33000F0DFF8002267
:103FC00068A12046FF30E13000F0D8F8F8BD0000CD
:103FD00020203C2020202020B7BD2020B0B8202069
:103FE000202020202000000004F0FF1F202020318E
:103FF0002E2020C4BFB1EABDC7B6C8202025346436
:1040000020200000202020322E2020C4BFB1EACB87
:10401000D9B6C82020253464202000002020203379
:104020002E2020BDC720B6C8205020202025346473
:104030002020000000002041202020342E2020BD20
:10404000C720B6C8204420202025322E31662020EB
:1040500000000000202020352E2020CBD920B6C81B
:104060002050202020253464202000000000C84279
:10407000202020362E2020CBD920B6C82049202051
:104080002025322E3166202000000000202020371D
:104090002E2020D7AA20CFF22050202020253464C3
:1040A00020200000202020382E2020D7AA20CFF268
:1040B00020442020202534642020000020202039A6
:1040C0002E202074702020202020202020253464E1
:1040D0002020000020202031302E20746420202059
:1040E00020202020202534642020000020202031A2
:1040F000312E2058585858585858202020253464BC
:104100002020000020202031322E205858585858A6
:104110005858202020253464202000002020203101
:10412000332E205858585858585820202025346489
:104130002020000020202031342E20585858585874
:1041400058582020202534642020000020202031D1
:10415000352E205858585858585820202025346457
:104160002020000020202031362E20585858585842
:104170005858202020253464202000000FB410B5AA
:1041800004A9074B02AA039800F07EF9044602A98D
:10419000002000F015FD204610BC08BC04B01847F4
:1041A000C14B00002021020C01D010211046020A50
:1041B00001D010460839020901D01046091F8208B3
:1041C00001D01046891E420801D0881E7047081A87
:1041D000704730B47446641E2578641CAB4204D327
:1041E000635D5B00E31830BC18471D46F8E700002C
:1041F0004900CA020243100000D004204A0D01D039
:1042000001221043044A490D914201D10221084381
:10421000012800D105207047FF070000F8B50446CB
:104220004F1EC8000838211815461E460868496800
:104230003A4606239A4310D02A463346FCF79AF9A9
:104240003A46D200083AA3181A687F1E5B68FCF74A
:10425000DFF806223B469343EED1022F23D0042FF2
:1042600011D0062F2FD12A463346FCF783F9E36A93
:10427000A26AFCF7CDF82A463346FCF77BF9636A5D
:10428000226AFCF7C5F82A463346FCF773F9E3695E
:10429000A269FCF7BDF82A463346FCF76BF963695F
:1042A0002269FCF7B5F82A463346FCF763F9E36860
:1042B000A268FCF7ADF82A463346FCF75BF9636861
:1042C0002268FCF7A5F8F8BD002210B51346104689
:1042D0001146FCF727FB10BD034A10B5002011075B
:1042E000FCF798FB10BD000001FDFFFF02E008C8CD
:1042F000121F08C1002AFAD17047002001E001C155
:10430000121F002AFBD17047014908607047000066
:104310000CF1FF1FF0B51FB486B00998089A030D81
:104320000021024314D05148514A18185043051433
:104330001198012810981AD0281A401C00264D4FB9
:104340004D49009601910490002812DA444211E090
:104350001198012449A3012801D11098C14306985E
:10436000119A84600360C26041600BB0F0BD4042AE
:10437000E4E70446210500203F4A001C5141039117
:10438000029012E0E00707D032463B4601990098C0
:10439000FCF7F0F80191009032463B461046194672
:1043A000FCF7E8F806460F466410002CEAD10498A2
:1043B000039B0028029A0999089806DAFCF7DAF8B4
:1043C000019B009AFCF7D6F805E0FCF7ABFA019BDD
:1043D000009AFCF7A7FA04460E460022284BFCF789
:1043E000A1FB03D80020C043014607E00022254B73
:1043F00020463146FCF70CF8FCF774FB102409E06A
:10440000002C0ADB0A220023FCF788F9079B3032D4
:104410001A55641E02460A43F2D11122641C079BFE
:10442000121B1C19119B012B03D0012308430ED131
:104430000AE0084304D0112010900020119077E783
:104440001098151A6D1E0BE01098824202DD0023B1
:104450006D1C03E0824201DA00236D1E002BEED0BA
:10446000069811998260C16030C07EE701FCFFFFB1
:10447000104D0000000014400000F03F300000002C
:104480000000F0430000E03FFFB597B0064600256E
:1044900018E2252877D100242746FD49049400E03E
:1044A0000443761C32780120203A90400842F7D12C
:1044B00030782A280ED00222307801463039092976
:1044C00016D804990A235943303940181443761CEE
:1044D0000490F1E7189802C804911890002904DAB2
:1044E0000120400304434842049002200443761C08
:1044F00030782E2814D1042004437078761C2A28A2
:1045000009D11898761C80C8189009E00A214F43F9
:10451000303FC719761C3078014630390929F5D962
:1045200030786C2810D006DC4C281AD068280ED0C1
:104530006A2817D104E0742813D07A2812D110E029
:104540000120400504430CE00121090501E003219D
:1045500009050C437178814203D10120000524181C
:10456000761C761C3078119066280BD013DC582806
:104570007DD009DC00287BD04528F6D04628F4D031
:1045800047281AD1A5E118E0632835D0642870D0F7
:10459000652812D19DE170286CD008DC6728F1D025
:1045A00069287BD06E280DD06F2806D1BAE0732819
:1045B0002ED0752871D0782859D01A9A1999904719
:1045C0006D1C7EE16002400F022809D003280DD047
:1045D0000428189801680DD00D60001D189070E136
:1045E0001898EA1701680D604A60F6E718980168A4
:1045F0000D80F2E70D70F0E718986A4601781172A5
:10460000001D18900020507202A80090012005E0C3
:10461000189802C8189000200091C04361070DD57A
:10462000002101E00199491C0191B94212DA81424D
:10463000F8DB009A515C0029F4D10BE0002101E085
:104640000199491C01918142FADB019A0099895C28
:104650000029F5D1019904981A9B471A214638463A
:10466000199A00F097FA0199401945180BE04FE0AC
:104670002CE113E04EE0009800990078491C00916D
:104680001A9A199990470198401E0190401CF2D146
:10469000214638461A9B199A10E137E00A2000217A
:1046A000009001916002410F022907D0189A01CAB7
:1046B0001892C2179446032908D00AE01898C01D22
:1046C000C108C90005C91891944607E000B2C21795
:1046D0009446042902D140B2C1178C46002261469B
:1046E000944506DA0A460021404291418C462D212C
:1046F00002E0210504D52B216A461173012103E054
:10470000E10701D02021F7E7029155E00A200AE0F5
:10471000102008E0102000900021042004430191A3
:10472000082703E008200021019100906002410F5A
:10473000022907D0189A01CA189200229446032928
:1047400008D008E01898C01DC108C90005C9189113
:10475000944603E080B2042900D1C0B20021029146
:10476000210729D51199702906D0009A1021019BA3
:104770004A401A4305D00EE040216A4611730121D8
:1047800008E06146014306D030216A461173119951
:10479000517302210291009A0821019B4A401A4359
:1047A0000AD16146014301D1610705D530216A462E
:1047B000117301217F1E02911199582904D035A14E
:1047C0000E910DA90D910DE037A1F9E76146019B0E
:1047D000009AFBF7A3FF0E9B8C469B5C0D9A521E22
:1047E0000D92137061460143F0D10D9805A9081A86
:1047F00020300190600703D501200004844300E0CD
:1048000001270198874201DD381A00E00020019954
:1048100000904118029809180498401A0490E00387
:1048200006D421461A9B199A049800F0B3F9451949
:10483000002706E003A81A9AC05D199990476D1CDD
:104840007F1C02988742F5DBE0030CD521461A9BBA
:10485000199A049800F09EF9451904E01A9A30203C
:10486000199990476D1C0099481E00900029F5DCAD
:1048700008E00D980D990078491C0D911A9A199924
:1048800090476D1C0199481E01900029F1DC63E1FD
:104890000928010030313233343536373839616216
:1048A00063646566000000003031323334353637DA
:1048B00038394142434445460000000000F05AF9AF
:1048C0004519761C3078002800D0E2E528461BB058
:1048D000F0BD600700D406271898C01DC108C900A4
:1048E00048680A680831C30FDB071891190001D026
:1048F0009CA108E0210501D59BA104E0E10701D0BE
:104900009AA100E09AA1430011985B0810916528D4
:104910000CD006DC452809D046281DD0472841D1B7
:1049200041E0662818D067283CD13CE00021112FD7
:1049300001DB112000E0781C0191009008A911A86A
:10494000FFF7E8FC139905910021119A15927F1C3D
:1049500012980197009150E00120C00703900120B8
:10496000019008A9009711A8FFF7D4FC139A149995
:1049700005920022119B009212981593059A0192BC
:10498000002901D0104602E0791C40180190381A25
:1049900001D5019804E04042401E0090781C01902F
:1049A000C01B029043E0012F00DA01270021112FE4
:1049B00001DD112000E038460191009008A911A8FE
:1049C000FFF7A8FC13990591119A002112981592EE
:1049D0000091019721070CD40599B94201DB019997
:1049E00000E00191012904DD159A491E515C30292E
:1049F00006D0B84201DA011D05DA0121029115E065
:104A00000199491EEDE7002805DC00994118009145
:104A10000199091A03E0019A411C914200DD0191BC
:104A20000099401A401C02900120C0070390200703
:104A300006D402990198814202DB0020C043029013
:104A400000206946C87707AF012103980337C907DB
:104A5000884224D0022011902B2012900398002825
:104A60000CDA404203902D20129007E00A210398AF
:104A7000FBF744FB30317F1E039039701199481EBB
:104A800011900029F2DC03980028EFD1791E1298CA
:104A900008703078202108404530BF1E387006A8C5
:104AA000C01BC01D039010980078002800D0012082
:104AB000019941180298C017091803980918049819
:104AC000401A401E0490E00306D421461A9B199A0E
:104AD000049800F05FF8451910980078002803D07A
:104AE0001A9A199990476D1CE00324D521461A9B08
:104AF000199A049800F04EF845191CE00098002817
:104B000007DB00990598884203DD1598405C1999E8
:104B100001E0199930201A9A904700986D1C401CAA
:104B200000900298401E0290002804D11A9A2E206C
:104B3000199990476D1C0199481E01900029DDDCF0
:104B400005E038781A9A7F1C199990476D1C0399D3
:104B5000481E03900029F4DC21461A9B199A0498F8
:104B6000ACE600002D0000002B000000200000003B
:104B700000000000F8B5044600251E4617468804CC
:104B800004D405E039462020B0476D1C641EF9D5D9
:104B90002846F8BDFFB50446002581B01E46C8036F
:104BA00001D5302700E02027880404D505E03846E9
:104BB0000399B0476D1C641EF9D5284605B0F0BDB9
:104BC0000A68531C0B60107070470000F0B5044673
:104BD0004F008E488FB07F080D460D91874228DB2D
:104BE0004042381820430CD08948874203DC874272
:104BF00018D1002C16D020462946FBF7FAFB0FB03F
:104C0000F0BD844A844B20462946FBF7B3FC074697
:104C10000E46824A824B20462946FBF7ABFC3A46B9
:104C2000334649E00120FFF76FFBFFF74DFB0FB064
:104C3000F0BD7C48874243DAF920800587420BDAD1
:104C400020462946FFF7D4FA042801D1FFF744FB98
:104C5000204629460FB0F0BD22462B461046294675
:104C6000FBF788FC064602466F480F460B460621B6
:104C70007844FFF7D3FA32463B46FBF77BFC0690BD
:104C80006A48079132463B4604217844FFF7C6FA4A
:104C900032463B46FBF76EFC00225C4BFBF7B8FB51
:104CA00002460B4607990698FBF73CFE22462B4628
:104CB000FBF760FC22462B46FBF7AAFB0FB0F0BDCA
:104CC0002046524C6900490800222346FBF74AFC63
:104CD0000022D243FBF79EFE0546024654480E468C
:104CE0000B4606217844FFF799FA2A463346FBF72C
:104CF00041FC06904F4807912A46334604217844E8
:104D0000FFF78CFA2A463346FBF734FC0022234691
:104D1000FBF77EFB059104902846314600F04AFCE3
:104D2000089045480C46874219DB059B049A079971
:104D30000698FBF7F7FD02460B4621460898FBF75D
:104D400019FC2346089AFBF763FB0122FBF762FE7E
:104D5000304A314BFBF700FC304A314B4AE0002728
:104D60003A460B460898FBF753FB3A4623460A910E
:104D70000E9010461946FBF7FDFB2A463346FBF71B
:104D8000F1FB0A9B0E9AFBF7CDFD05460E46059BEF
:104D9000049A07990698FBF7C5FD0091049001223B
:104DA00028463146FBF736FE1A4A1B4BFBF7DAFB67
:104DB0000E460546012221460898FBF72BFE009B74
:104DC000049AFBF7D7FB2A463346FBF7C5FB05469B
:104DD0000E46012238462146FBF71CFE0F4C174FAA
:104DE00022463B46FBF7BEFB2A463346FBF7BAFB9F
:104DF00022463B46FBF7B6FB0D9A002A00DD5DE735
:104E00000122D20751400FB0F0BD00000000F03F7A
:104E10000000F07F075C143326A6913C182D445403
:104E2000FB21F93F0000E03F8CE90000A2E900000F
:104E300018E900002EE900003333EF3FFB21E93F82
:104E400000218200014B9A5851607047E4350100FF
:104E500001468800024A1058406880B2704700003E
:104E6000E435010000B50346184600F019F8980033
:104E70000A49085800689900084A51580860980083
:104E800011460858006818210843990051580860D5
:104E9000002099005158486000BD0000E435010031
:104EA000002804D0012823D0022865D140E03349EE
:104EB000496920221143314A51611146C9680322D0
:104EC000120691432D4AD1602D49496901221143AF
:104ED0002B4A51611146496801221143284A516009
:104EE0002649C968012212061143244AD16043E0D1
:104EF0002249496940221143204A51611146C9683B
:104F00000322920691431D4AD1601D4949698022BE
:104F100011431B4A51611146496880221143184AC6
:104F200051601649C96852051143144AD16023E003
:104F30001249496980221143104A51611146C968DA
:104F40000322120791430D4AD16000210D4AD1601E
:104F50000B494039496920221143094A403A5161BD
:104F60001146496820221143054A403A51600349DD
:104F7000C968024AD16000BF00BF7047008004408A
:104F800040F00F4040A00340FFB583B004460D46FB
:104F90001F462946204600F08BF8414802900299AE
:104FA000080C0599FBF7AAF806460020019003E0DB
:104FB0000198401CC0B2019031460198014101297D
:104FC000F6DA0198072801DD07B0F0BD019A0299D1
:104FD000D14008460599FBF791F886B26000314947
:104FE0000E52002C04D0012C0DD0022C21D115E042
:104FF0003146491C794308467D21C900FBF77EF8FC
:1050000080B2009016E03146491C794308467D2164
:10501000C900FBF773F880B200900BE03146491CE1
:10502000794308467D21C900FBF768F880B20090FB
:1050300000E000BF00BF1C48A1001C4A5158886016
:10504000A000114608580C30E90041580420814363
:10505000A00010580C30EA0081502821A000134A0B
:1050600010580C30EA0081500820A1000F4A515816
:105070000860022C03D10020A1005158C8641921F6
:105080008901A000094A10580C30EA0080184160DC
:105090000020A100054A5158486000BF94E7000075
:1050A000005A62028EF0FF1F7F0C0000E435010001
:1050B00000B5002804D001281FD002281CD139E0F7
:1050C000424A526920231A43404B5A61002902D0B8
:1050D000012910D107E03D4AD268FF2301339A43EA
:1050E0003A4BDA6007E0394AD26801235B029A43FF
:1050F000364BDA6000BF00BF66E0344A5269402395
:105100001A43324B5A61002902D0012910D107E01D
:105110002E4AD26801239B021A432C4BDA6007E027
:105120002A4AD2680123DB029A43284BDA6000BF87
:1051300000BF49E0254A526980231A43234B5A6134
:105140000B00FFF746F806040E1B252F373F1F4ABA
:105150001269920892001D4B1A611A4612691A616F
:1051600030E01A4A12690C239A43184B1A611A4606
:10517000126904231A43154B1A6123E0134A12697A
:1051800030239A43114B1A611A4612691A6119E0C9
:105190000E4A1269C0239A430C4B1A611A461269CF
:1051A0001A610FE0094A1269FF2301331A43074BC2
:1051B0001A6107E0054A126901235B029A43034B17
:1051C0001A6100BF00BF00BF00BF00BD00800440E7
:1051D000FEB504460D4621686068FBF736F820608E
:1051E00061680846FBF731F807466169FBF72DF85F
:1051F0000646E168FAF7D0FF6061A1686069FBF7D5
:1052000024F80090A168FBF720F807462169FAF717
:10521000C3FF0646A1686069FBF717F831460190A5
:10522000FBF750F8A0612168A068FBF70EF829464B
:105230000190FBF706F80746A169FBF706F806465A
:105240002168FAF7A9FF2060A168A069FAF7FDFFBD
:1052500007467F21C905FAF7F4FF06466169FAF7A8
:10526000F4FF60612068FEBD016042617F23DB05C1
:1052700043608360024BC360024B036170470000D0
:1052800082A87B380AD7233CFBF70AFD4B21C901D2
:105290000120FDF74BFEFCF713FEFCF7C5FDFCF704
:1052A000F5FFFCF71DFFFBF797FFFBF7E8FC454A0E
:1052B00000214548FFF7D8FF44484349C8604448A7
:1052C0000861404A002140481C30FFF7CDFF3F49AC
:1052D0003D4881623E49C1620A20FBF73BFFFCF773
:1052E00013FA00BFFCF764FE0028FBD1FCF70CFAB0
:1052F00000BFFCF75DFE0028FBD1FCF705FA00BFFC
:10530000FCF756FE0028FBD13248406820210843B4
:10531000304948606420FBF71DFF2E48806820213B
:1053200008432C498860002400220A211046FDF71A
:10533000DDFC2848406901210843264948610846A8
:1053400040680121084323494860FCF755FF37E0D6
:10535000042C20D008DC002C0DD0012C0FD0022C06
:1053600011D0032C27D112E01F2C18D0202C1AD0DA
:10537000212C20D11BE0FEF735F804461FE0FDF795
:1053800097FF04461BE0FEF725F9044617E0FDF7FA
:1053900093FE044613E0FEF785FB04460FE0FDF79D
:1053A000C7FFC4B20BE0FEF7B7FAC4B207E0FEF7DE
:1053B0005DFAC4B203E0FEF715F8044600BF00BF73
:1053C000C6E7000000002041B4F9FF1FFAED6B3A78
:1053D0000AD7233C40F00F4010B504462146012077
:1053E000FDF74AFE10BD000070B5054600242248B6
:1053F000806904218843204988612048806804210D
:1054000008431E498860002629E01B48406908219E
:10541000084319494861084680680821084316492D
:1054200088600120FBF7AEFE13484069082108435D
:105430001149486108464068082108430E49486000
:105440006006040E0846006904210840002801D0C7
:10545000601CC4B20020FBF795FE701CC6B2082E7B
:10546000D3DB002D03D10020FCF7F8F802E0012087
:10547000FCF7F4F8204670BD00F00F4000900440A7
:1054800070B50446082530484069042108432E4978
:10549000486108464068042108432B494860084693
:1054A0004069082108432849486108468068082166
:1054B0000843254988603FE08020204000280CD028
:1054C00021484069042108431F4948610846406853
:1054D000042108431C4948600BE01B484069042133
:1054E0000843194948610846806804210843164961
:1054F00088606006040E0120FBF744FE12484069F4
:1055000008210843104948610846406808210843BB
:105510000D4948600120FBF735FE0B484069082122
:10552000084309494861084680680821084306493C
:1055300088600120FBF726FE2846691ECDB20028B0
:10554000BAD1FDF741FC70BD00F00F40F8B504463C
:105550000D461646FCF7F4F86106080EFFF790FFBB
:105560002846FFF78DFF012E01D1FCF72FF9FCF73C
:10557000E7F86100491CC8B2FFF782FF0020FFF77F
:1055800033FF0746FCF722F93846F8BD70B50446EC
:105590000D461646FCF7D4F86106080EFFF770FFBB
:1055A0002846FFF76DFF3046FFF76AFFFCF70EF95C
:1055B00070BD0000F8B506460C46FBF741FA051E23
:1055C0000F4600D00120014349000B484908411A09
:1055D000C90F0DD0002E01D0012100E000210C43A5
:1055E00061004908401AC00F02D10120FEF78CFE6D
:1055F00028463946F8BD00000000F07F30313233D4
:105600003435476F21303132333435363738392E1F
:105610002B2D3A20A1A3D6F7B2CBB5A5B7A2B3B52F
:10562000B7BDB0B8CDE2C9E8D6C3C0B6D1C0CDD3FE
:10563000C2DDD2C7B1E0C2EBC6F7B5E7B8D0A1B6BC
:10564000C4BFB1EACBD9B6C8BDC7D7AACFF2D6B5C9
:10565000B7E4C3F9000000000000000000000000F3
:10566000000000000000000000000000000000003A
:10567000000000000000000000000000000000002A
:10568000000000000000000000000000000000001A
:10569000000000000000000000000000000000000A
:1059700000000000000000000800040000007FC0DC
:105980000400040004007FC0040004000400FFE0E1
:105990000000000000000000000000000000000007
:1059A00000000000000000000000000000000000F7
:1059B00000000000000000000000000000000000E7
:1059C00000000000000000000000000000000000D7
:105C700000000000000000001100FFE0110001C062
:105C8000FE00488025000400FFE015002480C46069
:105C90000000000000000000000000000000000004
:105CA00000000000000000000000000000000000F4
:105CB00000000000000000000000000000000000E4
:105CC00000000000000000000000000000000000D4
:105F70000000000000000000208011007FC04440AD
:105F80007FC044407FC00400FFE004000400040020
:105F90000000000000000000000000000000000001
:105FA00000000000000000000000000000000000F1
:105FB00000000000000000000000000000000000E1
:105FC00000000000000000000000000000000000D1
:106270000000000000000000090088808800FFE0A6
:10628000100010001F802880250042008D803060A3
:1062900000000000000000000000000000000000FE
:1062A00000000000000000000000000000000000EE
:1062B00000000000000000000000000000000000DE
:1062C00000000000000000000000000000000000CE
:10657000000000000000000008000800FFE010001C
:10658000240044007FC004000400FFE00400040075
:1065900000000000000000000000000000000000FB
:1065A00000000000000000000000000000000000EB
:1065B00000000000000000000000000000000000DB
:1065C00000000000000000000000000000000000CB
:10687000000000000000000008000400FFE010001D
:1068800010001FC010401040204020404040838036
:1068900000000000000000000000000000000000F8
:1068A00000000000000000000000000000000000E8
:1068B00000000000000000000000000000000000D8
:1068C00000000000000000000000000000000000C8
:106B700000000000000000000400FFE088207FC04B
:106B800011000E00F1C00400FFE015002480C46075
:106B900000000000000000000000000000000000F5
:106BA00000000000000000000000000000000000E5
:106BB00000000000000000000000000000000000D5
:106BC00000000000000000000000000000000000C5
:106E70000000000000000000210021002100390076
:106E800049804940A92011201100210041008100C2
:106E900000000000000000000000000000000000F2
:106EA00000000000000000000000000000000000E2
:106EB00000000000000000000000000000000000D2
:106EC00000000000000000000000000000000000C2
:10717000000000000000000047802480048004809C
:10718000E86020002FC024402280310022800C6063
:1071900000000000000000000000000000000000EF
:1071A00000000000000000000000000000000000DF
:1071B00000000000000000000000000000000000CF
:1071C00000000000000000000000000000000000BF
:1074700000000000000000007FC04A407FC0040000
:10748000FFE004003F802080208024802480FFE0F3
:1074900000000000000000000000000000000000EC
:1074A00000000000000000000000000000000000DC
:1074B00000000000000000000000000000000000CC
:1074C00000000000000000000000000000000000BC
:1077700000000000000000002080FFE020801200D8
:1077800053E05480504000007FC04A404A40FFE030
:1077900000000000000000000000000000000000E9
:1077A00000000000000000000000000000000000D9
:1077B00000000000000000000000000000000000C9
:1077C00000000000000000000000000000000000B9
:107A7000000000000000000000007FC001002100A5
:107A800041007FE00300050009003100C10007004C
