:020000040000FA
:10000000700C0020D7000000E3000000E5000000B5
:1000100000000000000000000000000000000000E0
:10002000000000000000000000000000E7000000E9
:100030000000000000000000E9000000EB000000EC
:10004000ED000000ED000000ED000000ED000000FC
:10005000ED000000ED000000ED000000ED000000EC
:10006000ED000000ED000000ED000000ED000000DC
:10007000ED000000ED000000ED000000ED000000CC
:10008000ED000000ED000000ED000000ED000000BC
:10009000ED000000ED00000005240000552A0000DE
:1000A000ED000000ED000000ED000000ED0000009C
:1000B000ED000000ED000000ED000000ED0000008C
:1000C0000348854600F0C0FC004800470D5700007B
:1000D000700C002070470648804706488047064855
:1000E0000047FEE7FEE7FEE7FEE7FEE7FEE700006B
:1000F000C92B0000D5000000C100000030B50B4640
:10010000014600202022012409E00D46D5409D42F1
:1001100005D31D469540491B254695404019154677
:10012000521E002DF1DC30BD70B50024254600289C
:1001300001DA01244042002901DA01254942FFF792
:10014000DDFFAC4200D04042002C00D0494270BDDF
:1001500003460B439B0703D009E008C9121F08C0E0
:10016000042AFAD203E00B780370401C491C521E8B
:10017000F9D27047D2B201E00270401C491EFBD296
:1001800070470022F6E710B513460A4604461946A2
:10019000FFF7F0FF204610BDF8B502464A40D40FE5
:1001A00042004B0052085B089A4202D202460846BF
:1001B00011464A0023D0C30D4A00DDB2120EAD1A1B
:1001C000202D35DA49020126490AF6058A19002C44
:1001D00000D0524220214F1B1146B9402A4110182D
:1001E000C20D9A4221D0002C17D0012D08DCDA056F
:1001F000801AD20F8019D207DBB200F06CFBF8BD79
:10020000DA05801A012340001B06C01880185A42E4
:100210008018CA0F1043490007E04908C20711437C
:10022000DA05801A80194008801800F04CFBF8BDF0
:1002300061000122511A001BF7E70122D207514049
:10024000AAE70122D2075040A6E7024670B54A400D
:10025000D30FDB0740002DD04A002AD0010E140E28
:10026000000212020919400A520A8418E5010446E4
:100270005443000A120A2E045043A4194219200CB8
:10028000C543AA18120C0125AD03521C52191204C1
:100290007F39240400D0521C104301D44000491E71
:1002A000C2B20C06C0092018401C4008802A02D0A7
:1002B00003E0002070BD40084000002900DA002063
:1002C000184370BD70B502464A40D50F40004A0041
:1002D000ED0740085208002814D0002A12D0C40D9F
:1002E000D30D41020120C0055202490A520AE41A04
:1002F000091812187D34914201D3641C00E04900B2
:10030000002C01DA002070BD0023914201D3891A2C
:100310000343400849000028F7D100290AD0914240
:1003200002D10121C90705E0914201D2012101E07A
:100330000121C943E005C018401900F0C4FA70BD9E
:10034000C217C10F504010B54018CA0796230021AC
:1003500000F0C1FA10BD10B500229623114600F03E
:10036000BAFA10BD0EB5C217C10F5040CA074018E7
:100370000021054B0293019200910A460B4600F0C2
:10038000F0FA03B000BD0000330400000EB50549CB
:100390000291002100910A460B46019100F0E1FA1A
:1003A00003B000BD33040000C20F4100400201232E
:1003B000400ADB05D207090EC0187F2901DA0020A8
:1003C0007047962903DC9623591AC84001E09639F4
:1003D0008840002AF4D04042704700000122D20732
:1003E000002800DB101A002900DB511A81427047F7
:1003F00010B5022000F0F8FD10BD704700000000AD
:10040000FFFFFFFFFFFFFFFFFFFFFFFFFFFFFEFEFE
:10041000F0B507460846584087B0C00F0490480022
:100420000E46590040084908BC1A884105D2384692
:1004300031461E4617460B460246580040081043F8
:100440004CD0300D039040055900400D490D0590EA
:10045000401A0290402872DA18030121000B0905A6
:100460000843019004980092002805D00199524257
:100470000020884100920190029840210A1A0199B7
:10048000009800F0FDF905460C466B4607CB00F0DE
:1004900007FAC0197141039A0E0D0023D717564071
:1004A0001A467A40164344D0049A002A2DD0029A64
:1004B000012A039A15DC1205C01A9141012636055E
:1004C000001C7141D20F059ED20700930192029643
:1004D0002A46234600F045FA07B0F0BD38463146BB
:1004E000FAE71605224A0F46B218C01AB741012191
:1004F0000905001C4F4100187F4111461818794129
:10050000E20F10436D19644113E0E2076D081543D3
:100510006408C2071443039A01261205C01A9141C8
:100520003605001C7141CE07400830434908C01809
:1005300051412A46234600F007FACDE7FFE7049829
:1005400001224000C117121A00238B410498314642
:10055000C417381AA141EEE730B40124E407634020
:1005600030BC55E730B40124E407614030BC4FE7AC
:100570000000E0FFF0B51FB488B00B990998002483
:1005800048400999C00F490049080991C0070B99D3
:100590000090490049080B9109990898A64608431C
:1005A0001CD00B990A98084318D0099801244000E0
:1005B000420D4800410D099824050003000B20431B
:1005C00009900B980003000B20430B9050181C4916
:1005D0004018002201901446104605E00020014614
:1005E0000DB0F0BD032801DA034600E003239C466A
:1005F000C11A0AAE0AE05F0008ADED5B4F00F75B81
:100600007D430027AA187C41491C5B1E6145F2DD31
:10061000410004AB5A522104120C0A43240C401C22
:100620000828DFDB01980290009970460191009044
:10063000059B049A0799069800F093F9D0E700000B
:100640000DFCFFFFF0B50C465C4085B0E40FE407FD
:1006500003944C0000266408590094464908024659
:100660000296224321D062460A431ED06200570DF3
:100670004A000E032303550D012402462C4924058C
:10068000781B1B0B360B4018234326436146009012
:100690001C46501AB44103D30098401C009002E05D
:1006A000921800985B41002803DA0020014605B04B
:1006B000F0BD0020012109050746864611E0644689
:1006C0001D46141BB54106D36546521BB341744603
:1006D00007430C43A646CD07400849082843921813
:1006E0005B4105460D43EAD11046184313D06046DE
:1006F000194650407140084306D06046101AB34175
:1007000006D20122002306E000220123DB0702E0DB
:100710000122D2435310009874460105381C6141F0
:10072000029C039D0019694100F00EF9BFE700002B
:10073000FD030000410040020122400AD205090EDB
:1007400080187F2901DA00207047962903DC962261
:10075000511AC8407047963988407047C20FD20777
:10076000400040080BD0C10D0723DB01C91840022F
:100770000905400A1143C208400711437047002091
:100780000146704710B5002904DB0124E40740420C
:100790008C412146002B04DB1C460123DB0752421F
:1007A000A3418B4200D1824210BD000010B5002948
:1007B00004DB0124E40740428C412146002B04DB8A
:1007C0001C460123DB075242A341994200D19042CB
:1007D00010BD0000CB0FDB07490010B549080246E9
:1007E0000A4307D00A0D07240903E401090B121B71
:1007F000002A01DC002010BDC900440F0C43C100D9
:10080000E018D205801800F05EF810BD0122D20772
:10081000002800DB101A002900DB511A88427047BB
:10082000F0B51FB40646002082B005464024019171
:1008300000901BE0019922460F46304600F016F961
:10084000049A059B801A994110D3104619462246F6
:1008500000F016F8361A8F41019722460120002138
:10086000009F00F00DF838184D4100902046641E9E
:100870000028DFDC019B00982946324607B0F0BD16
:1008800010B5202A04DB0146203A9140002010BD1B
:10089000914020239C1A0346E3401943904010BD29
:1008A00010B5202A06DBCB170846203A1041C117A5
:1008B0000B4306E00B461341D0402024A21A91407E
:1008C0000843194610BD002904DA401C490001D133
:1008D00040084000704770B40024050C05D1102476
:1008E000000402D1002921D01124050E01D10002FB
:1008F0000834050F01D10001241D850F01D18000AE
:10090000A41C002801DB4000641C002908D020251D
:100910002E1B0D46F540A14000D00121294308437C
:1009200001061B1B000ADB1D02D5002070BC7047AE
:10093000DB05181880180029F8DA401C4900F5D1A9
:1009400070BC40084000704710B5002B08DA002446
:10095000401C614192185B411A4301D1400840009C
:1009600010BDF0B51FB482B005460C0003D0084698
:1009700003F094FF02E003F091FF20300246009064
:1009800021462846FFF77CFF049B059A04460F4644
:1009900018431143084314D0184610431BD0009845
:1009A00040210A1A1846059900F060F805460E46DF
:1009B000009A05990498FFF763FF084305D00120CA
:1009C00004E02046394607B0F0BD0020C1170543BA
:1009D0000E432C43374300990E986305401A79055E
:1009E000E40A00220C43FD0A0A3002D50020014629
:1009F000E9E70105101969410C9C0D9D0019694139
:100A0000FFF7A2FFDFE700004A0009030123090BFB
:100A10001B0519430A4B10B5520D9A4202DA002009
:100A2000014610BD064B34339A4203DC9A1A00F09B
:100A30001DF810BD034BD218FFF722FF10BD0000B8
:100A4000FF030000CDFBFFFF064C0125064E05E02D
:100A5000E36807CC2B430C3C98471034B442F7D3DF
:100A6000FFF732FB485601006856010010B5202AF6
:100A700004DB0846203AD040002110BD0B46D3408D
:100A8000D0402024A21A91400843194610BD70B5E9
:100A90004B005B0803430BD04B005C0D0026334634
:100AA0006542B341D417AD1AA34102DB00200146D1
:100AB00070BD12053018514170BDF3B581B00C46C0
:100AC0000025002704E0019800F030F845197F1C4C
:100AD000A742F8DB21462846FFF726FB0090FFF7E8
:100AE0002FFC06463046FFF725FE80B2FEBD000013
:100AF000014600200C4A126852095201CB06DB0E57
:100B00001A43094B1A6000BF074A126880231A4033
:100B1000002AF9D0044A126990B2034A12689A4333
:100B2000014B1A607047000000B00340F1B5009817
:100B3000FFF7DEFF04460098FFF7DAFF054600984E
:100B4000FFF7D6FF0646AC4202DD27462C463D465F
:100B5000AE4201DD2F4604E0A64201DD374600E04B
:100B600027463846F8BD000000F066F800F07EFA2F
:100B7000002009E04100FF22520289180988420042
:100B8000224B9952411C88B2FF28F3DD01212048F5
:100B90008184C18241820182FF2000F04FFA00234C
:100BA000012252021949FF2000F07AFA00F0F2F90E
:100BB0004B21C901012002F037F800F003FE15486F
:100BC0004069012109060843124948610846406806
:100BD0000121090608430F49486015E00D48806867
:100BE0000121090608430B4988607D20C00000F000
:100BF000E3F90848406801210906084305494860AF
:100C00007D20C00000F0D8F9E8E700006CFAFF1F73
:100C1000ECFBFF1F00F00F400548408A012806D179
:100C2000044840680121490208430249486070476E
:100C3000ECFBFF1F00F00F4010B50D48406901218B
:100C4000490208430A494861084680684915084333
:100C500007498860FFF7E0FF322000F0ADF9044853
:100C600080680121490208430149886010BD0000E5
:100C700000F00F40F0B589B006460F4615462878BB
:100C800044B200BFA1B202A800F0E0FB0020009037
:100C9000F01B401C0D225043C1B20C2302AA6C2051
:100CA00001F0C4FA0020019000F086FA012806D075
:100CB000022807D0032808D0042830D12AE0601C7D
:100CC00044B22CE0601E44B229E00120019030467D
:100CD000C73027490880288809884900254A50528A
:100CE000002009E04100FF225202891809884200D1
:100CF000204B9952411C88B2FF28F3DD2C80FF2045
:100D000000F09CF90023012252021A49FF2000F052
:100D1000C7F904E0287844B20120019000BF00BF69
:100D2000012C01DD002000E020460446002C01DA01
:100D3000012000E0204604460198012812D1A1B20A
:100D400002A800F083FB01200090F01B401C0D2244
:100D50005043C1B20C2302AA6C2001F067FA01F0E3
:100D60006BF902E001F068F98CE700BF09B0F0BD53
:100D7000F4F0FF1F6CFAFF1FF0B58BB006460F466C
:100D80001546288804B26748844200DD00E020460A
:100D90000446012C01DA012000E02046044600BF91
:100DA000224661A104A803F065FD00200090F01B1D
:100DB000401C0D225043C1B20C2304AA662001F04E
:100DC00035FA0020039000F0F7F9030003F07DFDF1
:100DD000068B040D1632378B601C04B251488442D6
:100DE00000DD00E0204604467DE0012C01DA012010
:100DF00000E020460446601E04B274E00120039027
:100E0000002009E04100FF225202891809884200AF
:100E1000474B9952411C88B2FF28F3DD2C80FF20FC
:100E200000F00CF90023012252024149FF2000F09A
:100E300037F958E001200390288804B253E00020DD
:100E4000029000BF3B480088201804B23548844215
:100E500000DD00E020460446002C01DA002000E01E
:100E60002046044600F0A8F9032806D0042820D123
:100E7000288804B2012002901BE0002009E0410014
:100E8000FF225202891809884200294B9952411CBD
:100E900088B2FF28F3DD2C80FF2000F0CFF800237C
:100EA000012252022249FF2000F0FAF801200290AC
:100EB00000BF00BF224620A104A803F0DBFC0020F5
:100EC0000090F01B401C0D225043C1B20C2304AA19
:100ED000662001F0ABF901F0AFF802980028B1D01C
:100EE00000BF00BF00BF00BF0398012813D12246F6
:100EF0000DA104A803F0BEFC01200090F01B401CD3
:100F00000D225043C1B20C2304AA662001F08EF9D1
:100F100001F092F802E001F08FF841E700BF0BB05A
:100F2000F0BD00000F270000253464200000000001
:100F30006CFAFF1F94F0FF1F2534642300000000AB
:100F400070B5054600F032FFECB21AE0642010499B
:100F5000088020463030C2B201230021282001F051
:100F60000FF901F069F8012C04D14B20C00000F00A
:100F700023F804E0AF20800000F01EF800BF601EE0
:100F8000C4B2002CE2D1FF202D300149088070BD91
:100F900000F0FF1F002009E04100FF2252028918E3
:100FA00009884200034B9952411C88B2FF28F3DDA7
:100FB000704700006CFAFF1F10B5034600240DE0D7
:100FC000084800F011F800BF00BF00BF00BF00BF1D
:100FD00000BF00BF00BF00BF601C84B29C42EFD3C3
:100FE00010BD0000E7030000002123E000BF00BFA8
:100FF00000BF00BF00BF00BF00BF00BF00BF00BFF9
:1010000000BF00BF00BF00BF00BF00BF00BF00BFE8
:1010100000BF00BF00BF00BF00BF00BF00BF00BFD8
:1010200000BF00BF00BF00BF00BF00BF00BF00BFC8
:101030004A1C91B242008A42D8D8704770B5054622
:101040006C020020084948700A2048722002000EF5
:101050000872012048702004000E48720C7200F0E3
:1010600063F8002070BD0000000002400A49496991
:10107000012212031143084A516100BF074949790F
:10108000802211400029F9D0272001464031034A2F
:10109000D17030215171704700800440000002403F
:1010A000FFB581B007460C46790204980D18042656
:1010B0000020009023E00020144948700620487268
:1010C0002802000E0872012048702804000E4872A1
:1010D000FC2028400872022048702078087260784E
:1010E000487203204870A0780872E0784872A4190A
:1010F000AD1900F019F80098801980B2009003999A
:1011000000988842D7D3002005B0F0BD000002400F
:1011100010B58300034CE3580C33CC001B195A6004
:1011200010BD00009055010010B572B630200A497C
:1011300048710A480A4908600748401D09688847FD
:1011400062B60548407933210840002801D00120CB
:1011500010BD0020FCE7000000000240F7F0FF1F78
:1011600004F1FF1F10B504460C2C1ED004DC002C2B
:1011700007D0012C1ED109E00D2C11D00E2C19D155
:1011800009E001210020FFF798FC10BD012108466D
:10119000FFF793FCF9E701210E20FFF78EFCF4E73F
:1011A00001210D20FFF789FCEFE7C8210C20FFF794
:1011B00084FCEAE70020E8E708B5002000906848D2
:1011C000006980210840002835D166480078FFF783
:1011D000F3FE6348006980210840002828D1624856
:1011E0000088401C6049088008460088142803DDF8
:1011F00001205C49087016E05B4800880A2803DD7E
:101200000A20584908700EE057480088052803DD79
:101210001E205449087006E053480088032802DD68
:101220002820504908700120009005204F4908806F
:101230006846007808BD4A480069402108400028F7
:1012400035D148480078FFF7B7FE4548006940218E
:101250000840002828D144480088401C42490880A2
:1012600008460088142803DD01203E49087016E076
:101270003D4800880A2803DD0A203A4908700EE03C
:1012800039480088052803DD1E203649087006E02D
:1012900035480088032802DD2820324908700220E2
:1012A000009005203149088068460078C2E72C4844
:1012B0004030006910210840002812D129480078E8
:1012C000FFF77AFE264840300069102108400028C8
:1012D00004D1052025490880032000906846007845
:1012E000A8E71F4840300069012189020840002812
:1012F00013D11C480078FFF75FFE194840300069A1
:10130000012189020840002804D1052017490880DE
:1013100004200090684600788CE71148403000694E
:10132000012149020840002812D10E480078FFF739
:1013300043FE0B4840300069012149020840002863
:1013400003D105200949088000906846007871E7BC
:101350003C200449087000200349088000BF69E769
:1013600000F00F4004F0FF1F02F0FF1F00F0FF1F0E
:10137000F0B595B004460D4616461F460020385E6F
:10138000FEF7DEFF0190FFF7E9F9274A274B0391AB
:101390000290FFF757F90022254B05910490FFF7C3
:1013A000E9F80022234B07910690FFF74BF90B91C8
:1013B0000A902068FFF7D2F9099108900B9B0A9ACE
:1013C000FFF7CAF81C4A1D4B0D910C90FFF7D2F89D
:1013D000119110900020305EFEF7C4FF0991089033
:1013E0000020285EFEF7BEFF07910690099B089A31
:1013F00004F072F80C4A124B0B910A90FFF7BAF8FE
:10140000104A114B0D910C90FFF7B4F80F910E900C
:10141000119B109AFEF7FCFF13911290FFF7DAF977
:10142000206015B0F0BD00006666666666663040F6
:101430000000144000408F402B8716D9CEF7EF3FB5
:1014400066A64C40FCA9F1D24D62503F70B50546EE
:101450000C46002C02D0012C0AD104E008A1284639
:1014600003F008FA09E007A1284603F003FA04E0B4
:1014700005A1284603F0FEF900BF00BF70BD0000C3
:101480004F4646004F4E20003F3F3F00FEB500F064
:101490008DFCA54840680121C9070843A24948605E
:1014A000084640680121490408439F4948600120DB
:1014B0009E49087000209E4908609E49086001907E
:1014C00000F08AFC9C48408C401E2821484384B28E
:1014D00060009A49085A9A490880601C4000974960
:1014E000085A98490880A01C40009449085A964917
:1014F0000880E01C40009149085A94490880201D4A
:1015000040008E49085A92490880601D40008B496E
:10151000085A90490880A01D40008849085A8E4901
:101520000880E01D40008549085A8C490880204603
:10153000083040008149085A89490880F3E00025B5
:101540007D48C08C012819D18649485FFF212D3183
:10155000884212DC8349485F834988420DDB834916
:1015600083480068FEF73AFF07D382480088642862
:1015700003DB81480088642800DA01256E48008D6D
:10158000002809D06A480068810041186A48008D27
:101590000A225043814219D86748408D00281FD045
:1015A0006549488DFEF7D7FE74490090FEF78AFE24
:1015B000064673495F480068FEF7A0FD0090FEF7FD
:1015C000CAFE07463146FFF721F909D201206D49CD
:1015D0000870002055490870C820FFF7EDFC012570
:1015E000FFF7EAFD002801D1002D01D0012000E025
:1015F0000020002800D131E000204C4908704A4802
:1016000080680121C9070843474988600846806807
:101610000121490408434449886000205949087061
:10162000414840304068022108433F49403148600A
:10163000084640680121490408433B49403148605D
:101640000846406801210904084337494031486091
:1016500000F0D0FB00F028FC0020FEBD00BF4A498E
:101660000020085EFEF76CFE4849086048490020EB
:10167000085EFEF765FE4549486046490020085E61
:10168000FEF75EFE4149886043490020085EFEF790
:1016900057FE3E49C86041490020085EFEF750FEF3
:1016A0003A4908613E490020085EFEF749FE374985
:1016B00048612F48006888613A480068C8613A4824
:1016C0000068086239480068FEF73AFE2F49486210
:1016D00037480068FEF734FE2C49886235480068B8
:1016E000FEF72EFE2949C86233480068FEF728FE3F
:1016F0002649086331480068FEF722FE2349486303
:1017000018490020085EFEF71BFE204988632C491B
:101710000020085EFEF714FE1C49C86301F0A4F91E
:1017200001F0AEF900BF0AE700F00F40B5F0FF1F6F
:10173000B8F0FF1FBCF0FF1FECFBFF1F6CFAFF1F90
:10174000C2F0FF1FC4F0FF1FC6F0FF1FC8F0FF1F4D
:10175000CAF0FF1FCCF0FF1FCEF0FF1FD0F0FF1F1D
:10176000D2F0FF1F94F0FF1FD4FEFFFF000020C245
:1017700068F0FF1F88F0FF1F8AF0FF1F0000C842BB
:10178000F4150000C0F0FF1F60F0FF1F78F9FF1F85
:1017900062F0FF1F64F0FF1F5AF0FF1F5CF0FF1F95
:1017A0005EF0FF1F6CF0FF1F70F0FF1F74F0FF1F53
:1017B00078F0FF1F7CF0FF1F80F0FF1F84F0FF1FF9
:1017C00096F0FF1F144840690221084312494861FE
:1017D00008464068022108430F49486008464069AE
:1017E0000121490408430C49486108464068012129
:1017F0004904084308494860084640690121090432
:101800000843054948610846406801210904084326
:10181000014948607047000040F00F40FEB50446A3
:101820000D4616466B4606223B21682000F054FA0E
:101830000746002F17D168460078010268464078B5
:10184000014308B220806846807801026846C0786B
:10185000014308B228806846007900026946497948
:10186000084300B230803846FEBDFEB504460D4642
:1018700016466B4606224321682000F02DFA0746E3
:10188000002F17D16846007801026846407801436E
:1018900008B220806846807801026846C07801431B
:1018A00008B22880684600790002694649790843F1
:1018B00000B230803846FEBD10B52048406908218E
:1018C00008431E49486108468068082108431B49AF
:1018D0008860084640690421084318494861084661
:1018E00040680421084315494860084640690421BE
:1018F00008431249486108468068042108430F499B
:101900008860FEF775FD0D484069082108430B49C2
:101910004861084640680821084308494860FEF7C6
:1019200067FD0648406908210843044948610846A4
:101930008068082108430149886010BD00F00F400D
:1019400010B520484069082108431E4948610846EF
:101950008068082108431B498860084640690421C3
:10196000084318494861084640680421084315495E
:101970004860084640690421084312494861084606
:101980004068042108430F494860FEF731FD0D48C7
:101990004069082108430B4948610846406808210E
:1019A000084308494860FEF723FD064840690821BE
:1019B00008430449486108468068082108430149F2
:1019C000886010BD00F00F4070B505460024234824
:1019D00080690421884321498861084640690421BF
:1019E00088431E4948611E488068042108431C49F9
:1019F0008860002627E019484069082108431749F4
:101A00004861084680680821084314498860FEF749
:101A1000EFFC124840690821084310494861084614
:101A20004068082108430D4948606006040E0846D6
:101A3000006904210840002801D0601CC4B2FEF7F0
:101A4000D7FC701CC6B2082ED5DB002D02D1FFF7E3
:101A500077FF01E0FFF730FF204670BD00F00F4038
:101A60000090044070B504462D48406904210843A5
:101A70002B494861084640680421084328494860CA
:101A8000084640690821084325494861084680689E
:101A9000082108432249886000253DE0802020403D
:101AA000C01100280CD11E484069042108431C497C
:101AB00048610846806804210843194988600BE0A2
:101AC00017484069042108431549486108464068A1
:101AD00004210843124948606006040E104840691A
:101AE000082108430E494861084640680821084318
:101AF0000B494860FEF77CFC09484069082108430F
:101B000007494861084680680821084304498860FD
:101B1000FEF76EFC681CC5B2082DBFDB70BD00006F
:101B200000F00F4010B520484069042108431E49C9
:101B3000486108464068042108431B49486008463C
:101B40004069042108431849486108464068042157
:101B5000084315494860084640690821084312496E
:101B6000486108464068082108430F494860FEF76D
:101B70003FFC0D484069042108430B494861084671
:101B800080680421084308498860FEF731FC064854
:101B900040690821084304494861084680680821D3
:101BA00008430149886010BD00F00F4010B520487F
:101BB0004069042108431E494861084640680421E1
:101BC00008431B49486008464069082108431849F2
:101BD000486108468068082108431549886008461E
:101BE000406904210843124948610846806804217D
:101BF00008430F498860FEF7FBFB0D484069082148
:101C000008430B49486108464068082108430849D1
:101C10004860084640690421084305494861084670
:101C200040680421084302494860FEF7E1FB10BD0B
:101C300000F00F4010B50024254880690421884336
:101C40002349886108464069042188432049486146
:101C500020488068042108431E4988601C48406968
:101C6000042108431A494861084640680421084392
:101C700017494860FEF7BCFB154840690821084336
:101C800013494861084640680821084310494860E4
:101C9000FEF7AEFB07E0601CC4B2FA2C03DDFFF7D1
:101CA00085FF012010BD0A48006904210840002872
:101CB000F1D10748406908210843054948610846B1
:101CC000806808210843024988600020EAE7000094
:101CD00000F00F4000900440F8B506460F46144649
:101CE0001D46FFF71FFF7106080EFFF7BBFEFFF74B
:101CF000A1FF002803D0FFF759FF0120F8BD3846A7
:101D0000FFF7B0FEFFF796FFFFF70CFF7100491CCD
:101D1000C8B2FFF7A7FEFFF78DFF0DE0012C04D13D
:101D20000020FFF751FE287003E00120FFF74CFE72
:101D30002870601EC4B26D1C002CEFD1FFF736FF77
:101D40000020DBE710B50446224603210220FFF7FE
:101D5000DFF9012202210846FFF7DAF910BD10B5BC
:101D60000446012203210220FFF7D2F92246022174
:101D70000846FFF7CDF910BD10B5044622460021F4
:101D80000220FFF7C5F9012205210220FFF7C0F963
:101D900010BD10B50446012200210220FFF7B8F95A
:101DA000224605210220FFF7B3F910BD10B500202F
:101DB0000CE0002106E00022CB00064C1B191A544F
:101DC0004A1CD1B28029F6DB411CC8B20828F0DBDE
:101DD00010BD000008F1FF1F00B500218D2000F0AC
:101DE000C7FA0021102000F0C3FA0021AE2000F055
:101DF000BFFA00BD00B500218D2000F0B9FA002126
:101E0000142000F0B5FA0021AF2000F0B1FA00BDB7
:101E1000F7B57F2801DC3F2900DDFEBD0C46CE175B
:101E2000760F3619F6100727BE1BF2B2CE17760FC3
:101E30003619F610F6008E1BF5B20724661B012436
:101E4000B440E3B2029C002C09D0C400094EA4198E
:101E5000A45C1C43C600074FF619B45408E0C40044
:101E6000044EA419A45C9C43C600024FF619B45456
:101E700000BFD2E708F1FF1FFFB506460F46344604
:101E80000DE03D4606E029462046099AFFF7C0FFCF
:101E9000681CC5B203988542F5DD601CC4B2029887
:101EA0008442EEDDFFBD000000B5624840690121BB
:101EB000C90608435F494861084640680121C906D0
:101EC00008435C4948600846406901218906084387
:101ED0005849486108464068012189060843554928
:101EE00048605448403040698915084351494031A1
:101EF000486108464068891508434E4940314860AA
:101F00004C484069890508434A4948610846406889
:101F100001210907084347494860084640680121F4
:101F200009070843434948604248403080688915A2
:101F300008434049403188607D20400107E064212A
:101F400001E04A1E91B20029FBDC411E88B2002844
:101F5000F5DC384840304068FF21013108433549FD
:101F6000403148600021AE2000F002FA0021D52067
:101F700000F0FEF90021802000F0FAF90021A820ED
:101F800000F0F6F900213F2000F0F2F90021D32003
:101F900000F0EEF90021084600F0EAF900214020A7
:101FA00000F0E6F900218D2000F0E2F90021142074
:101FB00000F0DEF90021202000F0DAF900210220F3
:101FC00000F0D6F90021A12000F0D2F90021C020B4
:101FD00000F0CEF90021DA2000F0CAF90021122029
:101FE00000F0C6F90021812000F0C2F90021EF20A5
:101FF00000F0BEF90021D92000F0BAF90021F1204B
:1020000000F0B6F90021DB2000F0B2F90021302009
:1020100000F0AEF90021A42000F0AAF90021A620CA
:1020200000F0A6F90021AF2000F0A2F9FFF7BEFEF4
:1020300000BD000000F00F4030B500241CE0214638
:10204000B031C8B2002100F093F90021084600F039
:102050008FF90021102000F08BF9002508E0E9003D
:10206000074A8918085D012100F082F9681CC5B291
:10207000802DF4DB601CC4B2082CE0DB30BD000016
:1020800008F1FF1FFFB584B00E4615461C460296A8
:102090002046E3175B0F1B18DB102246E7177F0F64
:1020A000BF18FF10FF00E71B01D0012700E0002749
:1020B000DB192146E70F7F187F107B43DBB20193CA
:1020C00028462038C5B200274FE00C2C04D0102C35
:1020D00009D0182C14D10CE00C2068432549401875
:1020E000C05D03900DE0280123494018C05D0390B6
:1020F00007E02420684321494018C05D039000E0B8
:1021000000BF00BF0020009029E080210398084014
:10211000002805D031460D9A0498FFF779FE0AE0B1
:102120000D98002801D1012000E000200246314630
:102130000498FFF76DFE03984006000E0390701C94
:10214000C6B20298301AA04205D1029E0498401CE3
:10215000C0B2049006E00098401CC0B20090009805
:102160000828D2DB00BF781CC7B201988742ACDBDD
:1021700008B0F0BD903C010004410100F4460100AC
:10218000FFB581B00646002407E02548015D0398AD
:10219000814200D103E0601CC4B2092CF5DB00BF12
:1021A0000394002438E000272BE0FF2181310398BD
:1021B00048431C49411806206043C019085C009040
:1021C00000251AE01848405D00990840002805D015
:1021D0003046049A0299FFF71BFE0AE00498002893
:1021E00001D1012000E00020024630460299FFF7AD
:1021F0000FFE701CC6B2681CC5B2082DE2DB781C4D
:10220000C7B2062FD1DB0298401CC0B20290304604
:102210003038C6B2601CC4B2402CC4DB05B0F0BD7F
:1022200094570000240C010050540100FFB581B008
:10223000064614461D460A9F0DE0009722782B465D
:1022400030460299FFF71EFF2846E90F091849108A
:102250008919CEB2641C20787E2802DC20782028E0
:10226000EBDA05B0F0BDF8B505460F4614461E463C
:102270001FE02078002800D11CE020787E280DDCAB
:10228000207820280ADB009622780C23394628463D
:10229000FFF7F8FEA81DC5B2641C0AE0009663783B
:1022A00022783946284600F007F828460C30C5B297
:1022B000A41CDEE700BFF8BDFFB581B006460024D0
:1022C0000DE02848015D0398814206D12549601C34
:1022D000095C0498814200D103E0A01CC4B2782CB0
:1022E000EFDB00BF0394002437E000272AE0FF2142
:1022F0008131039848431C4940186100C919405C6A
:10230000009000251AE01948405D00990840002817
:1023100005D030460A9A0299FFF77AFD0AE00A983A
:10232000002801D1012000E0002002463046029939
:10233000FFF76EFD701CC6B2681CC5B2082DE2DB4B
:10234000781CC7B2022FD2DB0298401CC0B20290A8
:1023500030461038C6B2601CC4B20C2CC5DB05B0C8
:10236000F0BD0000AC57000024580000505401009C
:1023700010B5002902D0012910D107E0204A926847
:1023800001231B071A431E4B9A6007E01C4A526840
:1023900001231B071A431A4B5A6000BF00BF0022DB
:1023A00024E0174B9B680124E4062343144CA360EC
:1023B00080230340002B07D023465B680124A4063A
:1023C00023430F4C636006E00D4B9B680124A40679
:1023D00023430B4CA3600A4B5B680124E4062343B0
:1023E000074C63604306180E531CDAB2082AD8DB88
:1023F000034A526801231B071A43014B5A6010BD60
:1024000000F00F40F0B595B0FE48C06801210843C8
:10241000FC49C860FC4AFD49FD48FFF7FFF9FD4A49
:10242000FD49FE48FFF721FAFB4BF74AF849FC4803
:10243000FEF79EFFF94BF44AF449FA48FEF798FF7D
:10244000F5490020085EFDF77BFF1190F6480088F3
:10245000FDF781FF0746F549FDF734FF0546119961
:10246000FDF7F3FE1290F2480088FDF774FF10901C
:10247000EB4800680121C907484007461099FDF75D
:102480008BFE0546EB480088FDF765FF2946119055
:10249000FDF7DBFE04461299FDF77EFE1390FDF773
:1024A00083FFE5490860E548006901218902084089
:1024B000002803D103F0D4F8404202E0002003F0EA
:1024C000CFF800B2DE490880DC48403000692021A6
:1024D0000840002803D1012003F0C2F803E00120E6
:1024E00003F0BEF8404200B2D6490880D44A002129
:1024F000515ED44A0023D35EC818C10F0918491091
:102500000EB2D1480078002809D0D0480068401C9D
:10251000CE490860CE4800688019CD490860CD4892
:102520000088301A00B2CC4908800020CB490860EE
:1025300000BF10E0411C4900C94A515A4200C84B33
:10254000995241001A46515EC44A12688918C34A1A
:102550001160411CC8B21328ECDBBF490020085EA3
:10256000BF49C8842620085EBC4909684018BB4999
:1025700008600968BB4A1288514308466421FDF788
:10258000D3FDB54A0021515EB74A12885143401825
:10259000B6490860002003F05BF8012003F058F80A
:1025A0000E20FEF7DFFD0746FDF7D5FE054629465E
:1025B000AF4803F05FF80446FEF7BCF8AD49088069
:1025C0000D20FEF7CFFD0746FDF7C5FE054629465F
:1025D000A7481C3803F04EF80446FEF7ABF8A649AE
:1025E0000880084600887D21C90088420EDDA14888
:1025F000008888420ADDA1480078002806D1012021
:102600009E490870914800689D4908609C48006890
:10261000002874D099480078002870D0894900209B
:10262000085EFDF79FFE04460022964BFEF70AF86F
:10263000002213460F910E90FDF794FF1391129014
:10264000824909688E4A1268891A8A008818FDF73B
:102650009DFE11911090139B129AFEF7A7F84ED28F
:1026600078490020085EFDF77DFE0022854B0F9122
:102670000E90FDF7E7FF04460022834BFDF772FF43
:1026800013911290714909687D4A1268891A8A006B
:102690008818FDF77BFE11911090139B129AFEF79C
:1026A00071F82CD273480088734909884018E121D9
:1026B000C900884223DD0520744908807448808D54
:1026C00000280BD16B490988724A12885143084689
:1026D0000A21FDF729FD6749088027E06C48808DB5
:1026E000012823D1644909886A4A1288514308465F
:1026F0000A21FDF719FD6049088017E0FFE76048EF
:102700000068002812D0514800685D490968401AE5
:10271000810040187D214901884207D964205B4926
:102720000880002056490860544908705A49002022
:10273000085E5A490880504800884E490988401A66
:1027400000B2554908800020085EFDF7F9FD0746F4
:10275000FEF704F80446524A524BFDF70BFF0F9167
:102760000E904D490020085EFDF7FCFD04460D4625
:1027700049490020085EFDF7E3FD0746FDF7EEFF3F
:10278000494A4A4B05910490FDF7F4FE22462B4638
:1027900007910690FDF7EEFE0B910A903E4900204E
:1027A000085EFDF7DFFD079106903B490020085EBB
:1027B000FDF7C6FD0446FDF7D1FF039102903649AF
:1027C0000020085EFDF7BCFD0746FDF7C7FF044685
:1027D000374A384BFDF7CEFE01910090039B029AD9
:1027E000FDF7C8FE05910490079B069AFDF7C2FE0F
:1027F000099108900B9B0A9AFDF70AFE0D910C9027
:102800000F9B59E0007103405EF0FF1F5CF0FF1F5B
:102810005AF0FF1F64F0FF1F62F0FF1F60F0FF1F00
:1028200068F0FF1F6CF0FF1FC8F0FF1F0000C842D8
:10283000C2F0FF1FC6F0FF1F74F0FF1F00F00F4033
:1028400094F0FF1F96F0FF1FB5F0FF1FB8F0FF1FB9
:10285000BCF0FF1FC4F0FF1F98F0FF1FA4F0FF1F84
:1028600008F9FF1FCCF0FF1FCAF0FF1F78F0FF1F11
:1028700018FAFF1F88F0FF1F8AF0FF1FB4F0FF1F38
:10288000D4F0FF1F0000044000C0724000F0FF1FA2
:10289000ECFBFF1FD2F0FF1F90F0FF1F92F0FF1F15
:1028A000D4B7CCE9B298883F1C0CD01154E8C7BE0D
:1028B0009FB7BB4ED6A8353E0E9AFDF7A9FD554AE7
:1028C000554B11911090FDF747FE13911290FDF7B3
:1028D00081FF52490860524A0021515E514A00234B
:1028E000D35EC91A504A128851430846FDF728FDA5
:1028F00013904E480088FDF72EFD074647480168B3
:102900003846FDF7A2FC04461399FDF745FC054641
:10291000FDF74AFD4649086046480068464909688F
:10292000401843490968401A444908604148006812
:102930004149096840183E49096840184049086003
:1029400040480078012808D17D20C000FFF707FA31
:102950007D20C000FFF71DFA47E0384800680028D6
:1029600012DA364800684042344908600846006878
:102970003549884202DB0846304908602F490988FA
:1029800088B2FFF7ECF90CE02C4800682E49884229
:1029900002DB0846294908602849098888B2FFF700
:1029A000D1F927480068002812DA2548006840421B
:1029B00023490860084600682349884202DB08462C
:1029C0001F4908601E49098888B2FFF7E2F90CE048
:1029D0001B4800681C49884202DB08461849086009
:1029E0001749098888B2FFF7C7F9184800880528F1
:1029F00007DB16480088401F14490880FEF70CF9D1
:102A000006E01348806801214902084310498860A4
:102A100015B0F0BDB115342DB1327A3FA8F0FF1FCB
:102A200090F0FF1F92F0FF1FD0F0FF1FCEF0FF1FAE
:102A30007CF0FF1F74F0FF1F78F0FF1F80F0FF1F76
:102A400084F0FF1FC0F0FF1F4E0C000000F0FF1FBE
:102A500000F00F400348C169012001430148C161F2
:102A6000704700000071034010B5552002F08BFE46
:102A7000AA2002F088FEAE2002F085FE10BD000004
:102A8000F8B50026002000901025552002F07BFEAE
:102A9000AA2002F078FEAD2002F075FE284602F072
:102AA00072FE002419E0A0000F4908580090684603
:102AB0000678304602F067FE68464678304602F0F7
:102AC00062FE68468678304602F05DFE6846C6784B
:102AD000304602F058FE601CC4B2AC42E3DB0D206D
:102AE00002F051FEF8BD000078F9FF1F10B517483D
:102AF000408C030001F0E9FE0627040B1219202781
:102B0000012313A213210020FFF7ADFB1CE00123DA
:102B100015A213210020FFF7A6FB15E0012318A240
:102B200013210020FFF79FFB0EE001231AA21321BF
:102B30000020FFF798FB07E001231DA213210020CE
:102B4000FFF791FB00E000BF00BF10BDECFBFF1FD3
:102B50002020202020202020B0B820D2BB20202000
:102B600020202020202000002020202020202020A5
:102B7000B0B820B6FE2020202020202020200000F9
:102B80002020202020202020B0B820C8FD20202098
:102B90002020202020200000202020202020202075
:102BA000B0B820CBC42020202020202020200000EE
:102BB0002020202020202020B0B820CEE52020207A
:102BC0002020202020200000124813498880012066
:102BD00048702320087011200005104948621048F1
:102BE00040780007000F0E49487094200D49087086
:102BF0001A200B49087000BF0948007910210840CD
:102C00000028F9D100BF064800790C2108400028AF
:102C1000F9D1704703E8000000200540008004401F
:102C20000040064000500640F3B581B00646B000B3
:102C300049490C58002E04D0012E22D0022E62D118
:102C400040E04648C068802188434449C86008463F
:102C50004069012109050843404948614048C0785E
:102C6000082108433E49C8700846C078042108433B
:102C70003B49C8700846C078202108433849C870CD
:102C800000BF3648006901210903884333490861C0
:102C900008464069012149050843304948613148E7
:102CA000C078082108432F49C8700846C07804211D
:102CB00008432C49C8700846C07820210843294998
:102CC000C87021E025480069012149038843234950
:102CD0000861084640690121890508431F49486188
:102CE0002148C078082108431F49C8700846C078A9
:102CF000042108431C49C8700846C07820210843B5
:102D00001949C87000E000BF00BFE0780C2188437B
:102D1000E0700020A07015480299FDF7EFF9471DFB
:102D20000A213846FDF7EAF985B21148854200DDEF
:102D3000054620784009400120702078E904C90E3A
:102D40000843207065700020A070A0716071E07869
:102D50000C210843E070FEBD845501000080044052
:102D600000A0064000B0064000C0064040787D014B
:102D7000FF1F000030B502460B4690000B4D2C584B
:102D8000002108E0207980252840002801D0E37147
:102D900004E0481CC1B206488142F3DB00BF04488E
:102DA000814201DB012030BD0020FCE78455010099
:102DB000BBFB0000F0B5CDB00125002601240027A3
:102DC000FEF7F4FFFF222D32774902A8FDF7C0F984
:102DD000012302AA00210846FFF745FA1E2060439E
:102DE00002A9421801230D210020FFF73CFA601CC4
:102DF0001E21484302A9421801231A210020FFF78F
:102E000032FAA01C1E21484302A94218012327219F
:102E10000020FFF728FAE01C1E21484302A94218AF
:102E2000012334210020FFF71EFA00BF2E4627465B
:102E3000FEF7C2F9012806D0022807D003280BD0DC
:102E400004281CD105E0681EC5B218E0681CC5B294
:102E500015E000204DB0F0BD012D06D0022D06D0AA
:102E6000032D06D0042D08D105E01F20F2E7202015
:102E7000F0E72120EEE72220ECE70020EAE700BFA0
:102E8000012D01DA092000E028460546092D01DD63
:102E9000012000E028460546A54201DA284600E068
:102EA00020460446E81EA04200DD00E02046C4B2F1
:102EB000AE421FD001200C23202219460090184654
:102EC000FFF7E0F801200C2320221921009018467A
:102ED000FFF7D8F801200C23202226210090184665
:102EE000FFF7D0F801200C23202232210090184651
:102EF000FFF7C8F8A74226D01E20604302A9421857
:102F000001230D210020FFF7AEF9601C1E2148436C
:102F100002A9421801231A210020FFF7A4F9A01CDE
:102F20001E21484302A94218012327210020FFF750
:102F30009AF9E01C1E21484302A9421801233421BA
:102F40000020FFF790F9A54208D101200C23402270
:102F5000194600901846FFF795F822E0601C85425C
:102F600008D101200C234022192100901846FFF7B8
:102F700089F816E0A01C854208D101200C234022CC
:102F8000262100901846FFF77DF80AE0E01C8542F4
:102F900007D101200C234022322100901846FFF770
:102FA00071F8FFF749F841E758540100F0B58DB0CA
:102FB000FEF7FCFE00BF78480068FDF7CCF97749C2
:102FC0000190FDF742F907467549FDF77BF9044684
:102FD000FDF7C4FB05460E4672480068FDF7BBF9D5
:102FE00007467149FDF76EF90446FDF7B7FB024647
:102FF0000B4601960095039102906CA104A801F084
:1030000039FC01200C2304AA282100900020FFF79E
:103010000DF961480068FDF79EF960490190FDF7E0
:1030200014F95F490290FDF74DF907465D480068C5
:10303000FDF791F95C490290FDF744F93946039098
:10304000FDF740F90446FDF789FB05462A460B4685
:103050005BA104A801F00EFC01200C2304AA352179
:1030600000900020FFF7E2F801200C2356A2002177
:1030700000900620FFF7DAF85448808C3030C2B256
:10308000012300212820FFF77BF85048808C052879
:1030900001DB052001E04D48808C4C498884FEF717
:1030A0008BF8030001F011FC06730434646B727337
:1030B0004648808C401C81B244488184808C05281D
:1030C00001DB052001E04148808C404988840846A6
:1030D000808C3F490880002009E04100FF22520215
:1030E0008918098842003B4B9952411C88B2FF283D
:1030F000F3DD3748018835488184FF20FDF79EFFC6
:103100000023012252023349FF20FDF7C9FF3EE0B0
:103110002E48808C002801D1012001E02B48808CB2
:103120002A4988840846808C401E81B227488184C1
:10313000808C27490880002009E04100FF225202CC
:10314000891809884200234B9952411C88B2FF28F4
:10315000F3DD1F4801881D488184FF20FDF76EFFC5
:103160000023012252021B49FF20FDF799FF0EE0C8
:103170001649888CFDF7E4FEFEF788F907E0002089
:1031800005490860074908600DB0F0BD00BF00BFE9
:10319000FEF752FF0FE70000B8F0FF1F0000A0404D
:1031A00000007A44BCF0FF1F00A0AF45252E336617
:1031B0002020202020202020202020252E336600C3
:1031C000252E3366000000003C000000ECFBFF1FD2
:1031D00008F0FF1F6CFAFF1FF0B58BB0FEF7E6FD9D
:1031E00001231EA200210846FFF73DF800BFFDF7AE
:1031F000E3FF042802D103200BB0F0BD1D48006896
:10320000FDF7ACFA04460D461B480068FDF7A6FA28
:10321000064632460B4619A103A80195009401F019
:1032200029FB01200C2303AA142100900020FEF7A3
:10323000FDFF17480023C35E16480022825E16A1D8
:1032400003A801F017FB01200C2303AA2121009001
:103250000020FEF7EBFFFEF7EFFEC8E7203C202042
:103260002020CDD32020C2DD2020D2C72020202046
:103270002020000070F0FF1F68F0FF1F503A253338
:103280002E326620202020593A25332E3266000047
:103290005CF0FF1F5AF0FF1F4720583A2025356485
:1032A0002020593A202535642000000038B501243B
:1032B0000025FEF77BFD012389A203210020FEF7F4
:1032C000D2FF8D48408C012801DA052001E08A48B0
:1032D000408C894948840846408C052801DD01203E
:1032E00001E08548408C84494884FFF7FFFB0123B7
:1032F00082A223210020FEF7B6FF012385A23321FD
:103300000020FEF7B0FF00BF2546FDF755FF030084
:1033100001F0DBFA0691040D16295D91601EC4B21E
:10332000012C01DA042000E02046044684E0601C01
:10333000C4B2042C01DD012000E0204604467BE0FD
:10334000012C06D0022C06D0032C06D0042C08D168
:1033500005E0012038BD0220FCE70320FAE7042045
:10336000F8E70020F6E7022C30D16348408C401E7D
:1033700081B261484184408C012801DA052001E0D6
:103380005D48408C5C4948840846408C6749088009
:10339000002009E04100FF225202891809884200FA
:1033A000634B9952411C88B2FF28F3DD5F480188C6
:1033B00051484184FF20FDF741FE002301225202C3
:1033C0005B49FF20FDF76CFEFFF790FB34E0022C19
:1033D00030D14948408C401C81B247484184408CE0
:1033E000052801DD012001E04348408C4249488422
:1033F0000846408C4D490880002009E04100FF222A
:103400005202891809884200494B9952411C88B2DE
:10341000FF28F3DD4548018837484184FF20FDF748
:103420000DFE0023012252024149FF20FDF738FE24
:10343000FFF75CFB00E000BF00BFA5421FD00120EA
:103440000C232022032100901046FEF71BFE0120D2
:103450000C232022132100901046FEF713FE0120BA
:103460000C232022232100901046FEF70BFE0120A2
:103470000C232022332100901046FEF703FE012C7E
:1034800006D0022C0DD0032C14D0042C24D11AE029
:1034900001200C234022032100902020FEF7F2FDA2
:1034A0001AE001200C234022132100902020FEF777
:1034B000E9FD11E001200C2340222321009020206F
:1034C000FEF7E0FD08E001200C23402233210090AC
:1034D0002020FEF7D7FD00BF00BFFEF7ADFD13E7CC
:1034E0002020202020202020B7A220B3B52020209B
:1034F0002020202020200000ECFBFF1F2020202087
:1035000020202020CDE220C9E820202020202020DB
:10351000202000002020202020202020C9E820D6C4
:10352000C3202020202020202020000008F0FF1FA2
:103530006CFAFF1FF0B5F74B9D4401240021F648BB
:1035400068448161012541610161F448408C401E5D
:103550002821484386B2FEF729FCF148684400F070
:1035600081FF0123EE4A6A4400210846FEF77BFEF4
:103570001E206843EA496944421801230D210020B6
:10358000FEF771FE681C1E214843E5496944421854
:1035900001231A210020FEF766FEA81C1E214843C5
:1035A000DF4969444218012327210020FEF75BFE12
:1035B000E81C1E214843DA4969444218012334219A
:1035C0000020FEF750FE00BFD34868448461456187
:1035D000FDF7F2FD030001F078F9060C040DFB166F
:1035E0001B0C601EC4B2012C01DA102000E0204642
:1035F000044697E3601CC4B2102C01DD012000E0FA
:10360000204604468EE30020C34B1C339D44F0BD8E
:10361000002010E000210AE0C200C24BD218525C28
:10362000C300FFAF3C37DB195A544A1CD1B20829FA
:10363000F2DB411CC8B28028ECDB0121FFA88163CA
:1036400000214163E4E20120382347221721009042
:103650001E20FEF711FCFFA8806B012802D0022873
:103660003AD11CE00123B0A21A212120FEF7FBFD74
:10367000002019234422194600902120FEF7FCFB6C
:10368000002026234422194600902120FEF7F4FB57
:103690000023A7A229212120FEF7E5FD1CE000233D
:1036A000A1A21A212120FEF7DEFD0123A0A22921DB
:1036B0002120FEF7D8FD002028234422194600903F
:1036C0002120FEF7D9FB0020352344221946009023
:1036D0002120FEF7D1FB00BF00BFFDF76DFD030009
:1036E00001F0F3F8060704080CFD0D070121FFA8FF
:1036F00081638AE20221FFA8816386E200BF002085
:103700000A9013E000200BE00A99C900854A891845
:103710000A5C0A99C9000CABCB181A54411CC8B2F8
:103720000828F1DB0A98401CC1B20A910A98802847
:10373000E8DB012700210B9144E2FFA8806B012800
:1037400047D12F236E220E2100904520FEF794FBD7
:10375000012F02D0022F3AD11CE0012376A21121C1
:103760004820FEF780FD002010236B2219460090B0
:103770004820FEF781FB00201D236B221946009094
:103780004820FEF779FB00236DA220214820FEF798
:103790006AFD1CE0002368A211214820FEF763FDAA
:1037A000012367A220214820FEF75DFD00201F2392
:1037B0006B22194600904820FEF75EFB00202C2368
:1037C0006B22194600904820FEF756FB00BF3AE1F5
:1037D00039E2FFA8806B0228F9D101203F237A2229
:1037E000014600904520FEF747FB4C48408C030003
:1037F00001F06BF8066804182C40546852A102A826
:1038000001F038F853A104A8013001F033F854A1B5
:1038100006A8023001F02EF854A108A8033001F0E8
:1038200029F84FE054A102A801F024F849A104A806
:10383000013001F01FF84AA106A8023001F01AF881
:103840004AA108A8033001F015F83BE04AA102A8FC
:1038500001F010F83CA104A8013001F00BF840A1E0
:1038600006A8023001F006F840A108A8033001F0D4
:1038700001F827E040A102A800F0FCFF32A104A853
:10388000013000F0F7FF33A106A8023000F0F2FF8C
:1038900036A108A8033000F0EDFF13E036A102A81E
:1038A00000F0E8FF28A104A8013000F0E3FF29A1FF
:1038B00006A8023000F0DEFF29A108A8033000F0BE
:1038C000D9FF00BF00BF002302AA04214820FEF751
:1038D000CAFC002304AA01321321482000E090E131
:1038E000FEF7C1FC002306AA023222214820FEF77F
:1038F000BAFC002308AA033231214820FEF7B3FCAA
:10390000012F3FD0022F54D0032F6AD0042F4FD164
:103910007FE0000064F5FFFF800A0000ECFBFF1F62
:103920003808000008F1FF1F20C7E5BFD5200000C0
:1039300020B8B4D6C620000020B5B1C7B020000022
:1039400020CBF9D3D020000020B7BDB0B8B6FE2000
:103950000000000020B7BDB0B8C8FD200000000086
:1039600020B7BDB0B8CBC4200000000020B7BDB068
:10397000B8CEE5200000000020B7BDB0B8D2BB2013
:1039800000000000012302AA04214820FEF76BFC7E
:10399000002003237722194600904820FEF76CFA96
:1039A000002010237722194600904820FEF764FA81
:1039B00047E0012304AA013213214820FEF753FCFB
:1039C000002012237722194600904820FEF754FA6F
:1039D00000201F237722194600904820FEF74CFA5A
:1039E0002FE0012306AA023222214820FEF73BFCE9
:1039F000002021237722194600904820FEF73CFA48
:103A000000202E237722194600904820FEF734FA32
:103A100017E0012308AA033231214820FEF723FCD6
:103A2000002030237722194600904820FEF724FA20
:103A300000203D237722194600904820FEF71CFA0B
:103A400000BF00BF00BFFDF7B7FB030000F03DFF64
:103A500006B704132522B6B7FFA8806B012801D151
:103A6000012707E0781EC7B2012F01DA012000E02C
:103A700038460746A3E0FFA8806B012801D1022742
:103A800007E0781CC7B2042F01DD042000E03846AF
:103A9000074694E001200B9091E0F348408CB84237
:103AA00001DD0A9702E0781CC1B20A91FFA8806B81
:103AB0000A214843C019162850D006DC0B2809D02B
:103AC0000C2826D0152876D147E0172847D018288B
:103AD00071D145E0002009E04100FF22520289181F
:103AE00009884200E14B9952411C88B2FF28F3DD5E
:103AF0000021601E80194000DC4A1152FF20FDF7B2
:103B00009DFA002301225202D849FF20FDF7C8FA8E
:103B100051E0002009E04100FF2252028918098883
:103B20004200D24B9952411C88B2FF28F3DD00209D
:103B300006E0002132185200CC4B9952411CC8B209
:103B40002828F6DBFF20FDF779FA00230122520234
:103B5000C649FF20FDF7A4FA2DE000BF00BF00BF5B
:103B6000002009E04100FF22520289180988420022
:103B7000BE4B9952411C88B2FF28F3DD00200DE0B6
:103B80000A99491E2822514309184900B74A515A37
:103B900032185200B54B9952411CC8B22828EFDBAD
:103BA000FF20FDF74BFA002301225202AF49FF200C
:103BB000FDF776FA00BF00BF022025E500BF00BF79
:103BC000FEF73AFA0B98012800D0B6E500200A90DB
:103BD00013E000200BE00A99C9000CAA89180A5CBE
:103BE0000A99C900A24BCB181A54411CC8B2082824
:103BF000F1DB0A98401CC1B20A910A988028E8DBE0
:103C000003E00120FFA9486300BF00BFFEF714FADC
:103C1000FFA8406B012800D015E5002010E000212E
:103C20000AE0C200FFAB3C33D218525CC300904F95
:103C3000DB195A544A1CD1B20829F2DB411CC8B224
:103C40008028ECDB6EE0230000F03FFE0B6A0710DB
:103C50001A242E38424C56616A007000834942187B
:103C6000012329462046FDF787F859E0701C4000E3
:103C70007E494218012329462046FDF77DF84FE092
:103C8000B01C400079494218012329462046FDF71F
:103C900073F845E0F01C400074494218012329469E
:103CA0002046FDF769F83BE0301D40006F4942189F
:103CB000012329462046FDF75FF831E0701D4000E2
:103CC0006A494218012329462046FDF755F827E0A6
:103CD000B01D400065494218012329462046FDF7E2
:103CE0004BF81DE0F01D40006049421801232946B1
:103CF0002046FDF741F813E03046083040005B49AC
:103D00004218012329462046FDF736F808E07000E6
:103D100056494218012329462046FDF72DF800BFD9
:103D200000BF00BF00BFAC4201DA204600E02846D9
:103D30000546E01EA84200DD00E02846C5B24D4819
:103D400068448069A04204D14A4868440069012857
:103D500027D101200C232022194600900620FEF7CF
:103D600091F901200C232022192100900620FEF752
:103D700089F901200C232022262100900620FEF73D
:103D800081F901200C232022322100900620FEF729
:103D900079F93948684400F065FB002035496944E9
:103DA0000861344868444069A8422AD01E2068430C
:103DB00031496944421801230D210020FEF753FACE
:103DC000681C1E2148432C496944421801231A21CA
:103DD0000020FEF748FAA81C1E21484326496944E2
:103DE0004218012327210020FEF73DFAE81C1E217E
:103DF0004843214969444218012334210020FEF739
:103E000032FAAC4208D101200C234022194600901E
:103E10000620FEF737F922E0681C844208D1012011
:103E20000C234022192100900620FEF72BF916E002
:103E3000A81C844208D101200C2340222621009096
:103E40000620FEF71FF90AE0E81C844207D1012092
:103E50000C234022322100900620FEF713F9FEF7D2
:103E6000EBF8FFF7B1FB0000ECFBFF1F6CFAFF1F44
:103E700008F1FF1F800A00003808000000B585B077
:103E800014216846FCF77DF9FDF790FF012315A288
:103E900000210846FEF7E7F900BFFDF78DF9042879
:103EA00002D1032005B000BD14480022825E14A197
:103EB000684600F0DFFC01236A461A210020FEF765
:103EC000D2F913480022825E12A1684600F0D2FCAB
:103ED00001236A4627210020FEF7C5F9FEF7ACF85A
:103EE000DBE70000203C20202020B1E020C2EB20B6
:103EF000C6F720D6B52020202020200094F0FF1FF8
:103F00004C5FB1E0C2EBC6F73A25356420000000F3
:103F100096F0FF1F525FB1E0C2EBC6F73A25356459
:103F200020000000F0B58BB0FDF740FF012326A272
:103F300000210846FEF797F900BFFDF73DF9042878
:103F400002D103200BB0F0BD254803882548028824
:103F500025A103A800F08EFC01200C2303AA19461A
:103F600000900020FEF762F91E4800881C4909886D
:103F7000421A22A103A800F07DFC01200C2303AA11
:103F8000192100900020FEF751F920480068FCF745
:103F9000E5FB04460D461E480068FCF7DFFB0646BD
:103FA00032460B461BA103A80195009400F062FC69
:103FB00001200C2303AA2D2100900020FEF736F9E2
:103FC000FEF73AF8B9E70000203C20202020B5E7B2
:103FD0002020B8D02020D6B520202020202000008E
:103FE0008AF0FF1F88F0FF1F41445F4C3A2534647C
:103FF000202041445F523A25346400004C2D523A4F
:10400000253464202020202020000000A8F0FF1F7D
:1040100068F0FF1F503A2025332E3266202020788A
:104020003A25322E31662000F0B5CDB001250026AC
:104030000124002700204C90FDF7B8FE01A800F0F5
:1040400031F9012301AA00210846FEF70CF91E20D0
:10405000604301A9421801230D210020FEF703F956
:10406000601C1E21484301A9421801231A21002087
:10407000FEF7F9F8A01C1E21484301A942180123AC
:1040800027210020FEF7EFF8E01C1E21484301A97C
:104090004218012334210020FEF7E5F800BF2E4628
:1040A0002746FDF789F8012806D002280DD00328FD
:1040B00017D0042862D111E0681EC5B2012D01DAC3
:1040C000092000E02846054658E0681CC5B2092DC5
:1040D00001DD012000E0284605464FE000204DB0FC
:1040E000F0BD2B0000F0F1FB0A46060D151C232A3B
:1040F00031383F4601236A4A21462846FCF73CFEF8
:104100003AE00123664A921C21462846FCF734FE19
:1041100032E0634A921E21462846FCF7ABFD2BE0B5
:104120005F4A123A21462846FCF7A4FD24E05C4A87
:10413000183A21462846FCF79DFD1DE0584A163ADC
:1041400021462846FCF796FD16E0554A143A2146CA
:104150002846FCF78FFD0FE0514A121D21462846E4
:10416000FCF788FD08E04E4A083A21462846FCF74D
:1041700081FD01E00020B2E700BF00BF00BFA54203
:1041800001DA284600E020460446E81EA04200DD91
:1041900000E02046C4B2AE4202D14C98012824D19E
:1041A00001200C232022194600900620FDF76AFF0B
:1041B00001200C232022192100900620FDF762FF28
:1041C00001200C232022262100900620FDF75AFF13
:1041D00001200C232022322100900620FDF752FFFF
:1041E00001A800F05FF800204C90A74226D01E20C6
:1041F000604301A9421801230D210020FEF733F886
:10420000601C1E21484301A9421801231A210020E5
:10421000FEF729F8A01C1E21484301A942180123DA
:1042200027210020FEF71FF8E01C1E21484301A9AA
:104230004218012334210020FEF715F8A54208D1C9
:1042400001200C234022194600900620FDF71AFF9A
:1042500022E0601C854208D101200C234022192154
:1042600000900620FDF70EFF16E0A01C854208D145
:1042700001200C234022262100900620FDF702FF9A
:104280000AE0E01C854207D101200C2340223221A4
:1042900000900620FDF7F6FEFDF7CEFEFFE60000DB
:1042A00014FCFF1F38B504460020009030A12046C2
:1042B00000F0E0FA3448028D34A120461E3000F0B0
:1042C000D9FA3148428D37A120463C3000F0D2FA6D
:1042D0002D48C18C6846FDF7B9F86A4637A12046DB
:1042E0005A3000F0C7FA2848C18A6846FDF7AEF890
:1042F0006A4638A12046783000F0BCFA2248018A8C
:104300006846FDF7A3F86A4638A12046963000F0CB
:10431000B1FA1D48418A6846FDF798F86A4639A106
:104320002046B43000F0A6FA1748818A6846FDF7A7
:104330008DF86A4639A12046D23000F09BFA124827
:10434000818D6846FDF782F86A463AA12046F03032
:1043500000F090FA0C48018C6846FDF777F86A4641
:104360003AA12046FF300F3000F084FA38BD00003B
:1043700020203C2020202020C9E82020D6C3202057
:104380002020202020000000ECFBFF1F20202031F7
:104390002E2020CAB1BCE4CDA3B3B52020253464BF
:1043A00020200000202020322E2020BEE0C0EBCDB7
:1043B000A3B3B52020253464202000002020203322
:1043C0002E2020B1A32020BBA42020202020257354
:1043D00000000000202020342E2020B5F72020CA25
:1043E000D42020202020257300000000202020352C
:1043F0002E20204C204520442020202020202573E2
:1044000000000000202020362E2020B7E420C3F931
:1044100020C6F72020202573000000002020203730
:104420002E2020C0B62020D1C0202020202025739F
:1044300000000000202020382E20204875616E5F8B
:104440004C5220202020257300000000202020391D
:104450002E20205820582035202020202020257371
:104460000000000010B504468248408C030000F0B4
:104470002CFA061D04090E13181D7FA1204600F01A
:10448000F9F914E082A1204600F0F4F90FE086A1CA
:10449000204600F0EFF90AE089A1204600F0EAF991
:1044A00005E08DA1204600F0E5F900E000BF00BF67
:1044B0007048408C401E2821484340008C490A5ACD
:1044C0008CA120461E3000F0D5F96A48408C401E71
:1044D00028214843401C400085490A5A8BA12046A8
:1044E0003C3000F0C7F96348408C401E2821484307
:1044F000801C40007E490A5A8AA120465A3000F0AA
:10450000B9F95C48408C401E28214843C01C40003B
:1045100077490A5A89A12046783000F0ABF955480E
:10452000408C401E28214843001D400070490A5A13
:1045300088A12046963000F09DF94E48408C401EE0
:1045400028214843401D400069490A5A87A1204656
:10455000B43000F08FF94748408C401E2821484372
:10456000801D400062490A5A86A12046D23000F0E0
:1045700081F94048408C401E28214843C01D40001E
:104580005B490A5A85A12046F03000F073F939489A
:10459000408C401E282148430830400054490A5AA4
:1045A00084A12046FF300F3000F064F93148408C80
:1045B000401E2821484340004D490A5A83A1204605
:1045C000FF302D3000F056F92A48408C401E28213B
:1045D0004843400046490A5A82A12046FF304B30EA
:1045E00000F048F92348408C401E282148434000F1
:1045F0003F490A5A81A12046FF30693000F03AF95C
:104600001C48408C401E28214843400038490A5A23
:1046100080A12046FF30873000F02CF91548408CEF
:10462000401E28214843400031490A5A7FA12046B4
:10463000FF30A53000F01EF90E48408C401E2821A6
:10464000484340002A490A5A7EA12046FF30C33021
:1046500000F010F90748408C401E282148434000D4
:1046600023490A5A7DA12046FF30E13000F002F9CB
:1046700010BD0000ECFBFF1F20203C20202020B7B5
:10468000BD2020B0B82020D2BB2020202020000058
:1046900020203C20202020B7BD2020B0B82020B60C
:1046A000FE2020202020000020203C20202020B7B9
:1046B000BD2020B0B82020C8FD20202020200000F0
:1046C00020203C20202020B7BD2020B0B82020CBC7
:1046D000C42020202020000020203C20202020B7C3
:1046E000BD2020B0B82020CEE520202020200000D2
:1046F0006CFAFF1F202020312E2020C4BFB1EABD5C
:10470000C7B6C82020253464202000002020203295
:104710002E2020C4BFB1EACBD9B6C82020253464EE
:1047200020200000202020332E2020BDC720B6C826
:104730002050202020253464202000002020203418
:104740002E2020BDC720B6C8204420202025346458
:1047500020200000202020352E2020CBD920B6C8D4
:1047600020502020202534642020000020202036E6
:104770002E2020CBD920B6C8204920202025346403
:1047800020200000202020372E2020D7AA20CFF282
:1047900020502020202534642020000020202038B4
:1047A0002E2020D7AA20CFF22044202020253464B8
:1047B00020200000202020392E20204875616E41E5
:1047C0006464202020253464202000002020203133
:1047D000302E2074642020202020202020253464C6
:1047E0002020000020202031312E205858585858C1
:1047F000585820202025346420200000202020311B
:10480000322E2058585858585858202020253464A3
:104810002020000020202031332E2058585858588E
:1048200058582020202534642020000020202031EA
:10483000342E205858585858585820202025346471
:104840002020000020202031352E2058585858585C
:1048500058582020202534642020000020202031BA
:10486000362E20585858585858582020202534643F
:10487000202000000FB410B504A9074B02AA03982A
:1048800000F07AF9044602A9002000F011FD20464C
:1048900010BC08BC04B01847B15200002021020C23
:1048A00001D010211046020A01D010460839020931
:1048B00001D01046091F820801D01046891E420807
:1048C00001D0881E7047081A704730B47446641EC1
:1048D0002578641CAB4204D3635D5B00E31830BCF5
:1048E00018471D46F8E700004900CA0202431000BD
:1048F00000D004204A0D01D001221043044A490D82
:10490000914201D102210843012800D105207047BE
:10491000FF070000F8B504464F1EC80008382118EC
:1049200015461E46086849683A4606239A4310D041
:104930002A463346FBF71EFE3A46D200083AA31831
:104940001A687F1E5B68FBF763FD06223B469343B4
:10495000EED1022F23D0042F11D0062F2FD12A46BB
:104960003346FBF707FEE36AA26AFBF751FD2A46CE
:104970003346FBF7FFFD636A226AFBF749FD2A46CF
:104980003346FBF7F7FDE369A269FBF741FD2A46D1
:104990003346FBF7EFFD63692269FBF739FD2A46D1
:1049A0003346FBF7E7FDE368A268FBF731FD2A46D3
:1049B0003346FBF7DFFD63682268FBF729FDF8BD8E
:1049C00010B50122FCF763F810BD10B5FBF720FD10
:1049D00010BD0000034A10B500201107FCF757F87E
:1049E00010BD000001FDFFFF02E008C8121F08C152
:1049F000002AFAD17047002001E001C1121F002AED
:104A0000FBD17047F0B51FB486B00998089A030D22
:104A10000021024314D05148514A1818504305143C
:104A20001198012810981AD0281A401C00264D4FC2
:104A30004D49009601910490002812DA444211E099
:104A40001198012449A3012801D11098C143069867
:104A5000119A84600360C26041600BB0F0BD4042B7
:104A6000E4E70446210500203F4A001C5141039120
:104A7000029012E0E00707D032463B4601990098C9
:104A8000FBF778FD0191009032463B4610461946EF
:104A9000FBF770FD06460F466410002CEAD104981F
:104AA000039B0028029A0999089806DAFBF762FD31
:104AB000019B009AFBF75EFD05E0FBF7C3FD019B40
:104AC000009AFBF7BFFD04460E460022284BFBF779
:104AD0006DFE03D80020C043014607E00022254BAD
:104AE00020463146FBF794FCFBF78EFF102409E0CB
:104AF000002C0ADB0A220023FBF792FE079B3032D0
:104B00001A55641E02460A43F2D11122641C079B07
:104B1000121B1C19119B012B03D0012308430ED13A
:104B20000AE0084304D0112010900020119077E78C
:104B30001098151A6D1E0BE01098824202DD0023BA
:104B40006D1C03E0824201DA00236D1E002BEED0C3
:104B5000069811998260C16030C07EE701FCFFFFBA
:104B6000104D0000000014400000F03F3000000035
:104B70000000F0430000E03FFFB597B00646002577
:104B800018E2252877D100242746FD49049400E047
:104B90000443761C32780120203A90400842F7D135
:104BA00030782A280ED0022230780146303909297F
:104BB00016D804990A235943303940181443761CF7
:104BC0000490F1E7189802C804911890002904DABB
:104BD0000120400304434842049002200443761C11
:104BE00030782E2814D1042004437078761C2A28AB
:104BF00009D11898761C80C8189009E00A214F4303
:104C0000303FC719761C3078014630390929F5D96B
:104C100030786C2810D006DC4C281AD068280ED0CA
:104C20006A2817D104E0742813D07A2812D110E032
:104C30000120400504430CE00121090501E00321A6
:104C400009050C437178814203D101200005241825
:104C5000761C761C3078119066280BD013DC58280F
:104C60007DD009DC00287BD04528F6D04628F4D03A
:104C700047281AD1A5E118E0632835D0642870D000
:104C8000652812D19DE170286CD008DC6728F1D02E
:104C900069287BD06E280DD06F2806D1BAE0732822
:104CA0002ED0752871D0782859D01A9A1999904722
:104CB0006D1C7EE16002400F022809D003280DD050
:104CC0000428189801680DD00D60001D189070E13F
:104CD0001898EA1701680D604A60F6E718980168AD
:104CE0000D80F2E70D70F0E718986A4601781172AE
:104CF000001D18900020507202A80090012005E0CD
:104D0000189802C8189000200091C04361070DD583
:104D1000002101E00199491C0191B94212DA814256
:104D2000F8DB009A515C0029F4D10BE0002101E08E
:104D30000199491C01918142FADB019A0099895C31
:104D40000029F5D1019904981A9B471A2146384643
:104D5000199A00F097FA0199401945180BE04FE0B5
:104D60002CE113E04EE0009800990078491C009176
:104D70001A9A199990470198401E0190401CF2D14F
:104D8000214638461A9B199A10E137E00A20002183
:104D9000009001916002410F022907D0189A01CAC0
:104DA0001892C2179446032908D00AE01898C01D2B
:104DB000C108C90005C91891944607E000B2C2179E
:104DC0009446042902D140B2C1178C4600226146A4
:104DD000944506DA0A460021404291418C462D2135
:104DE00002E0210504D52B216A461173012103E05D
:104DF000E10701D02021F7E7029155E00A200AE0FF
:104E0000102008E0102000900021042004430191AC
:104E1000082703E008200021019100906002410F63
:104E2000022907D0189A01CA189200229446032931
:104E300008D008E01898C01DC108C90005C918911C
:104E4000944603E080B2042900D1C0B2002102914F
:104E5000210729D51199702906D0009A1021019BAC
:104E60004A401A4305D00EE040216A4611730121E1
:104E700008E06146014306D030216A46117311995A
:104E8000517302210291009A0821019B4A401A4362
:104E90000AD16146014301D1610705D530216A4637
:104EA000117301217F1E02911199582904D035A157
:104EB0000E910DA90D910DE037A1F9E76146019B17
:104EC000009AFBF7ADFC0E9B8C469B5C0D9A521E24
:104ED0000D92137061460143F0D10D9805A9081A8F
:104EE00020300190600703D501200004844300E0D6
:104EF00001270198874201DD381A00E0002001995E
:104F000000904118029809180498401A0490E00390
:104F100006D421461A9B199A049800F0B3F9451952
:104F2000002706E003A81A9AC05D199990476D1CE6
:104F30007F1C02988742F5DBE0030CD521461A9BC3
:104F4000199A049800F09EF9451904E01A9A302045
:104F5000199990476D1C0099481E00900029F5DCB6
:104F600008E00D980D990078491C0D911A9A19992D
:104F700090476D1C0199481E01900029F1DC63E106
:104F8000092801003031323334353637383961621F
:104F900063646566000000003031323334353637E3
:104FA00038394142434445460000000000F05AF9B8
:104FB0004519761C3078002800D0E2E528461BB061
:104FC000F0BD600700D406271898C01DC108C900AD
:104FD00048680A680831C30FDB071891190001D02F
:104FE0009CA108E0210501D59BA104E0E10701D0C7
:104FF0009AA100E09AA1430011985B0810916528DE
:105000000CD006DC452809D046281DD0472841D1C0
:1050100041E0662818D067283CD13CE00021112FE0
:1050200001DB112000E0781C0191009008A911A873
:10503000FFF7E8FC139905910021119A15927F1C46
:1050400012980197009150E00120C00703900120C1
:10505000019008A9009711A8FFF7D4FC139A14999E
:1050600005920022119B009212981593059A0192C5
:10507000002901D0104602E0791C40180190381A2E
:1050800001D5019804E04042401E0090781C019038
:10509000C01B029043E0012F00DA01270021112FED
:1050A00001DD112000E038460191009008A911A807
:1050B000FFF7A8FC13990591119A002112981592F7
:1050C0000091019721070CD40599B94201DB0199A0
:1050D00000E00191012904DD159A491E515C302937
:1050E00006D0B84201DA011D05DA0121029115E06E
:1050F0000199491EEDE7002805DC0099411800914F
:105100000199091A03E0019A411C914200DD0191C5
:105110000099401A401C02900120C007039020070C
:1051200006D402990198814202DB0020C04302901C
:1051300000206946C87707AF012103980337C907E4
:10514000884224D0022011902B201290039800282E
:105150000CDA404203902D20129007E00A210398B8
:10516000FAF7CCFF30317F1E039039701199481E39
:1051700011900029F2DC03980028EFD1791E1298D3
:1051800008703078202108404530BF1E387006A8CE
:10519000C01BC01D039010980078002800D001208B
:1051A000019941180298C017091803980918049822
:1051B000401A401E0490E00306D421461A9B199A17
:1051C000049800F05FF8451910980078002803D083
:1051D0001A9A199990476D1CE00324D521461A9B11
:1051E000199A049800F04EF845191CE00098002820
:1051F00007DB00990598884203DD1598405C1999F2
:1052000001E0199930201A9A904700986D1C401CB3
:1052100000900298401E0290002804D11A9A2E2075
:10522000199990476D1C0199481E01900029DDDCF9
:1052300005E038781A9A7F1C199990476D1C0399DC
:10524000481E03900029F4DC21461A9B199A049801
:10525000ACE600002D0000002B0000002000000044
:1052600000000000F8B5044600251E4617468804D5
:1052700004D405E039462020B0476D1C641EF9D5E2
:105280002846F8BDFFB50446002581B01E46C80378
:1052900001D5302700E02027880404D505E03846F2
:1052A0000399B0476D1C641EF9D5284605B0F0BDC2
:1052B0000A68531C0B60107070470000F0B589B08D
:1052C00004460D464800069172494008884215DBA5
:1052D0007149884203DC884207D1002C05D0204662
:1052E0002946FFF76DFB09B0F0BD6C48002D02DDCB
:1052F0006B4909B0F0BD6B4909B0F0BD6A498842FD
:1053000011DA6A4988420BDA20462946FFF7ECFA9F
:10531000042801D1FFF75EFB2046294609B0F0BD05
:105320000026F6435DE06D0061496D08884232DA7F
:105330006049884219DA0026012332469B0720463D
:105340002946FBF765F807460191012220462946C8
:10535000FBF79DFB0022584BFBF7FEF83A46019BFA
:10536000FBF770F904460D463BE001260022524B44
:1053700020462946FBF74CF80746009100224E4B89
:1053800020462946FBF7E8F83A46009BFBF75AF916
:1053900004460D4625E04949884219DA02260022D2
:1053A000474B20462946FBF7E5F80022424BFBF726
:1053B0002FF8074602910022414B20462946FBF771
:1053C000CBF83A46029BFBF73DF904460D4608E050
:1053D000032622462B4600203A49FBF733F90446C0
:1053E0000D4622462B4610461946FBF7C3F80746E2
:1053F0000B4602460191FBF7BDF802460290324887
:105400000B46039106217844FFF784FA3A46019B44
:10541000FBF7B0F800902D48019105217844039BDB
:10542000029AFFF777FA039B029AFBF7A3F802466A
:105430000B4601990098002E0BDAFAF7E9FF224695
:105440002B46FBF797F822462B46FBF78BF809B063
:10545000F0BDFAF7DDFF22462B46FBF78BF81C4A1E
:10546000F6007A4493191A685B68FBF775F82246D0
:105470002B46FBF771F8174A7A4493191A685B6850
:10548000FBF770F8069A002AE1DA0122D2075140B0
:1054900009B0F0BD000010440000F07F182D445406
:1054A000FB21F93FFB21F9BF0000DC3F0000203E5B
:1054B0000000F33F0000E63F0000F03F00800340A3
:1054C0000000F83F0000F0BF06020100C801010023
:1054D000620101002C010100F0B51FB4039B54428E
:1054E0005D00164626439C46F40F6D084B004E4E59
:1054F0005B082C438E46B44205D847420743FC0F55
:105500001C43B44204D96346FFF75FFA05B0F0BD0F
:10551000464E6644164309D0CC0F6646B61702279E
:105520003E40264304461C4304D00BE0FFF7C6FE72
:1055300005B0F0BD002EFBD0012EF9D0022E32D0E6
:10554000032E34D014462C430BD0374CA54216D131
:10555000A3420AD1012189078D438B431946039544
:105560000DE0704600280FDB25E0314F7F44002E10
:105570000ED0012E10D0022E15D0032E17D0A3422C
:105580001DD17046002816DA2A482B4905B0F0BD17
:105590007968386805B0F0BD01227968D2073868AB
:1055A000514005B0F0BD2348244905B0F0BD214865
:1055B000234905B0F0BD1F48224905B0F0BD5B1B73
:1055C0001B153C2B02DD1B481E490FE06446002CD6
:1055D00005DA3C24E34202DA0020014606E0039BA0
:1055E000FBF730F849004908FFF768FE002EE4D0C9
:1055F000012E0BD0144A154B022E0CD0FAF7ACFF3B
:105600000C4A0E4BFAF7A8FF05B0F0BD0122D207F5
:10561000514005B0F0BDFAF79FFF064A074BFAF775
:10562000A1FF05B0F0BD00000000F07F000010C039
:10563000D0000100182D4454FB21F9BFFB21094083
:10564000FB2109C0FB21F93F075C143326A6A13CCE
:1056500000218200014B9A5851607047905501001B
:1056600001468800024A1058406880B27047000026
:1056700090550100FEB504460D4621686068FAF7B2
:10568000E4FD206061680846FAF7DFFD07466169BE
:10569000FAF7DBFD0646E168FAF77EFD6061A16876
:1056A0006069FAF7D2FD0090A168FAF7CEFD0746CF
:1056B0002169FAF771FD0646A1686069FAF7C5FD30
:1056C00031460190FAF7FEFDA0612168A068FAF763
:1056D000BCFD29460190FAF7B4FD0746A169FAF727
:1056E000B4FD06462168FAF757FD2060A168A0695D
:1056F000FAF7ABFD07467F21C905FAF7A2FD06467A
:105700006169FAF7A2FD60612068FEBDFBF72CFA23
:10571000002437E0042C20D008DC002C0DD0012C14
:105720000FD0022C11D0032C27D112E01F2C18D03F
:10573000202C1AD0212C20D11BE0FDF7B7FD044608
:105740001FE0FDF733FC04461BE0FDF7F3FE0446C3
:1057500017E0FDF72FFB044613E0FEF765FC044657
:105760000FE0FDF739FD04460BE0FEF7DBFB0446D6
:1057700007E0FEF783FB044603E0FDF797FD0446D0
:1057800000BF00BFC6E710B5044621460120FDF763
:10579000F1FA10BD303132333435476F21303132B8
:1057A000333435363738392E2B2D3A20A1A3D6F78E
:1057B000B2CBB5A5B7A2B3B5B7BDB0B8CDE2C9E815
:1057C000D6C3C0B6D1C0CDD3C2DDD2C7B1E0C2EB23
:1057D000C6F7B5E7B8D0A1B6C4BFB1EACBD9B6C851
:1057E000BDC7D7AACFF2D6B5B7E4C3F9BFAAB9D817
:1057F000D2BBB6FEC8FDCBC4CEE5B8B4D6C6C7E5AD
:10580000BFD5B5B1C7B0CBF9D3D0B1A3BBA4CAB192
:10581000BCE4BEE0C0EBCDA3B5F7CAD400000000E5
:105820000000000000000000000000000000000078
:105830000000000000000000000000000000000068
:105840000000000000000000000000000000000058
:105850000000000000000000000000000000000048
:105B2000000000000800040000007FC00400040022
:105B300004007FC0040004000400FFE00000000037
:105B40000000000000000000000000000000000055
:105B50000000000000000000000000000000000045
:105B60000000000000000000000000000000000035
:105B70000000000000000000000000000000000025
:105E2000000000001100FFE0110001C0FE004880EA
:105E300025000400FFE015002480C460000000007D
:105E40000000000000000000000000000000000052
:105E50000000000000000000000000000000000042
:105E60000000000000000000000000000000000032
:105E70000000000000000000000000000000000022
:1061200000000000208011007FC044407FC0444038
:106130007FC00400FFE00400040004000000000031
:10614000000000000000000000000000000000004F
:10615000000000000000000000000000000000003F
:10616000000000000000000000000000000000002F
:10617000000000000000000000000000000000001F
:1064200000000000090088808800FFE010001000D4
:106430001F802880250042008D8030600000000011
:10644000000000000000000000000000000000004C
:10645000000000000000000000000000000000003C
:10646000000000000000000000000000000000002C
:10647000000000000000000000000000000000001C
:106720000000000008000800FFE010002400440002
:106730007FC004000400FFE004000400000000002B
:106740000000000000000000000000000000000049
:106750000000000000000000000000000000000039
:106760000000000000000000000000000000000029
:106770000000000000000000000000000000000019
:106A20000000000008000400FFE0100010001FC07C
:106A30001040104020402040404083800000000073
:106A40000000000000000000000000000000000046
:106A50000000000000000000000000000000000036
:106A60000000000000000000000000000000000026
:106A70000000000000000000000000000000000016
:106D2000000000000400FFE088207FC011000E007A
:106D3000F1C00400FFE015002480C46000000000E2
:106D40000000000000000000000000000000000043
:106D50000000000000000000000000000000000033
