:020000040000FA
:10000000A80D0020D7000000E3000000E50000007C
:1000100000000000000000000000000000000000E0
:10002000000000000000000000000000E7000000E9
:100030000000000000000000E9000000EB000000EC
:10004000ED000000ED000000ED000000ED000000FC
:10005000ED000000ED000000ED000000ED000000EC
:10006000ED000000ED000000ED000000ED000000DC
:10007000ED000000ED000000ED000000ED000000CC
:10008000ED000000ED000000ED000000ED000000BC
:10009000ED000000ED000000B13A0000213D00003D
:1000A000ED000000ED000000ED000000ED0000009C
:1000B000ED000000ED000000ED000000ED0000008C
:1000C0000348854600F08EFC00480047497E00004A
:1000D000A80D00207047064880470648804706481C
:1000E0000047FEE7FEE7FEE7FEE7FEE7FEE700006B
:1000F00001440000D5000000C100000030B50B46EF
:10010000014600202022012409E00D46D5409D42F1
:1001100005D31D469540491B254695404019154677
:10012000521E002DF1DC30BD70B50024254600289C
:1001300001DA01244042002901DA01254942FFF792
:10014000DDFFAC4200D04042002C00D0494270BDDF
:1001500003460B439B0703D009E008C9121F08C0E0
:10016000042AFAD203E00B780370401C491C521E8B
:10017000F9D27047D2B201E00270401C491EFBD296
:1001800070470022F6E710B513460A4604461946A2
:10019000FFF7F0FF204610BDF8B502464A40D40FE5
:1001A00042004B0052085B089A4202D202460846BF
:1001B00011464A0023D0C30D4A00DDB2120EAD1A1B
:1001C000202D35DA49020126490AF6058A19002C44
:1001D00000D0524220214F1B1146B9402A4110182D
:1001E000C20D9A4221D0002C17D0012D08DCDA056F
:1001F000801AD20F8019D207DBB200F026FBF8BDBF
:10020000DA05801A012340001B06C01880185A42E4
:100210008018CA0F1043490007E04908C20711437C
:10022000DA05801A80194008801800F006FBF8BD36
:1002300061000122511A001BF7E70122D207514049
:10024000AAE70122D2075040A6E7024670B54A400D
:10025000D30FDB0740002DD04A002AD0010E140E28
:10026000000212020919400A520A8418E5010446E4
:100270005443000A120A2E045043A4194219200CB8
:10028000C543AA18120C0125AD03521C52191204C1
:100290007F39240400D0521C104301D44000491E71
:1002A000C2B20C06C0092018401C4008802A02D0A7
:1002B00003E0002070BD40084000002900DA002063
:1002C000184370BD70B502464A40D50F40004A0041
:1002D000ED0740085208002814D0002A12D0C40D9F
:1002E000D30D41020120C0055202490A520AE41A04
:1002F000091812187D34914201D3641C00E04900B2
:10030000002C01DA002070BD0023914201D3891A2C
:100310000343400849000028F7D100290AD0914240
:1003200002D10121C90705E0914201D2012101E07A
:100330000121C943E005C018401900F07EFA70BDE4
:10034000C217C10F504010B54018CA0796230021AC
:1003500000F07BFA10BD10B500229623114600F084
:1003600074FA10BD0EB5C217C10F5040CA0740182D
:100370000021054B0293019200910A460B4600F0C2
:10038000AAFA03B000BD000033040000C20F410010
:1003900040020123400ADB05D207090EC0187F295D
:1003A00001DA00207047962903DC9623591AC840C9
:1003B00001E096398840002AF4D04042704741005D
:1003C00040020122400AD205090E80187F2901DA75
:1003D00000207047962903DC9622511AC8407047C6
:1003E00096398840704700000122D207002800DBC0
:1003F000101A002900DB511A88427047704700002C
:10040000FFFFFFFFFFFFFFFFFFFFFFFFFFFFFEFEFE
:10041000F0B507460846584087B0C00F0490480022
:100420000E46590040084908BC1A884105D2384692
:1004300031461E4617460B460246580040081043F8
:100440004CD0300D039040055900400D490D0590EA
:10045000401A0290402872DA18030121000B0905A6
:100460000843019004980092002805D00199524257
:100470000020884100920190029840210A1A0199B7
:10048000009800F0B7F905460C466B4607CB00F024
:10049000C1F9C0197141039A0E0D0023D7175640B8
:1004A0001A467A40164344D0049A002A2DD0029A64
:1004B000012A039A15DC1205C01A9141012636055E
:1004C000001C7141D20F059ED20700930192029643
:1004D0002A46234600F0FFF907B0F0BD3846314602
:1004E000FAE71605224A0F46B218C01AB741012191
:1004F0000905001C4F4100187F4111461818794129
:10050000E20F10436D19644113E0E2076D081543D3
:100510006408C2071443039A01261205C01A9141C8
:100520003605001C7141CE07400830434908C01809
:1005300051412A46234600F0C1F9CDE7FFE7049870
:1005400001224000C117121A00238B410498314642
:10055000C417381AA141EEE730B40124E407634020
:1005600030BC55E730B40124E407614030BC4FE7AC
:100570000000E0FFF0B51FB488B00B990998002483
:1005800048400999C00F490049080991C0070B99D3
:100590000090490049080B9109990898A64608431C
:1005A0001CD00B990A98084318D0099801244000E0
:1005B000420D4800410D099824050003000B20431B
:1005C00009900B980003000B20430B9050181C4916
:1005D0004018002201901446104605E00020014614
:1005E0000DB0F0BD032801DA034600E003239C466A
:1005F000C11A0AAE0AE05F0008ADED5B4F00F75B81
:100600007D430027AA187C41491C5B1E6145F2DD31
:10061000410004AB5A522104120C0A43240C401C22
:100620000828DFDB01980290009970460191009044
:10063000059B049A0799069800F04DF9D0E7000051
:100640000DFCFFFFF0B50C465C4085B0E40FE407FD
:1006500003944C0000266408590094464908024659
:100660000296224321D062460A431ED06200570DF3
:100670004A000E032303550D012402462C4924058C
:10068000781B1B0B360B4018234326436146009012
:100690001C46501AB44103D30098401C009002E05D
:1006A000921800985B41002803DA0020014605B04B
:1006B000F0BD0020012109050746864611E0644689
:1006C0001D46141BB54106D36546521BB341744603
:1006D00007430C43A646CD07400849082843921813
:1006E0005B4105460D43EAD11046184313D06046DE
:1006F000194650407140084306D06046101AB34175
:1007000006D20122002306E000220123DB0702E0DB
:100710000122D2435310009874460105381C6141F0
:10072000029C039D0019694100F0C8F8BFE7000072
:10073000FD030000C20FD207400040080BD0C10DDE
:100740000723DB01C91840020905400A1143C2080A
:10075000400711437047002001467047CB0FDB076D
:10076000490010B5490802460A4307D00A0D07247C
:100770000903E401090B121B002A01DC002010BD53
:10078000C900440F0C43C100E018D205801800F0E6
:1007900054F810BDF0B51FB40646002082B00546DF
:1007A0004024019100901BE0019922460F463046FB
:1007B00000F02AF9049A059B801A994110D310463B
:1007C0001946224600F016F8361A8F410197224644
:1007D00001200021009F00F00DF838184D410090D5
:1007E0002046641E0028DFDC019B00982946324623
:1007F00007B0F0BD10B5202A04DB0146203A914035
:10080000002010BD914020239C1A0346E340194369
:10081000904010BD10B5202A06DBCB170846203AC1
:100820001041C1170B4306E00B461341D040202472
:10083000A21A91400843194610BD002904DA401C51
:10084000490001D140084000704770B40024050CF5
:1008500005D11024000402D1002921D01124050E55
:1008600001D100020834050F01D10001241D850FBC
:1008700001D18000A41C002801DB4000641C002979
:1008800008D020252E1B0D46F540A14000D00121A7
:100890002943084301061B1B000ADB1D02D500206B
:1008A00070BC7047DB05181880180029F8DA401C66
:1008B0004900F5D170BC40084000704710B5002BCE
:1008C00008DA0024401C614192185B411A4301D1AF
:1008D0004008400010BDF0B51FB482B005460C00C2
:1008E00003D0084606F0D2F902E006F0CFF9203036
:1008F0000246009021462846FFF77CFF049B059A9C
:1009000004460F4618431143084314D018461043B9
:100910001BD0009840210A1A1846059900F074F877
:1009200005460E46009A05990498FFF763FF0843B1
:1009300005D0012004E02046394607B0F0BD002074
:10094000C11705430E432C43374300990E986305A6
:10095000401A7905E40A00220C43FD0A0A3002D548
:1009600000200146E9E70105101969410C9C0D9D25
:1009700000196941FFF7A2FFDFE700004A00090301
:100980000123090B1B0519430A4B10B5520D9A425E
:1009900002DA0020014610BD064B34339A4203DCD4
:1009A0009A1A00F031F810BD034BD218FFF722FF5E
:1009B00010BD0000FF030000CDFBFFFF10B50029B4
:1009C00004DB0124E40740428C412146002B04DB78
:1009D0001C460123DB075242A341994200D19042B9
:1009E00010BD0000064C0125064E05E0E36807CC6B
:1009F0002B430C3C98471034B442F7D3FFF764FB09
:100A0000B8B90000D8B9000010B5202A04DB0846A8
:100A1000203AD040002110BD0B46D340D0402024C6
:100A2000A21A91400843194610BD70B54B005B08EF
:100A300003430BD04B005C0D002633466542B341A7
:100A4000D417AD1AA34102DB0020014670BD120588
:100A50003018514170BDF3B581B00C460025002718
:100A600004E0019800F060F845197F1CA742F8DB0C
:100A700021462846FFF758FB0090FFF761FC064629
:100A80003046FFF79CFC80B2FEBD00001549496965
:100A9000012252071143134A516113498968124ACE
:100AA0009160114649685160002111601146096842
:100AB000202211430C4A116011460968402211435B
:100AC000094A1160114689690122824092B211439C
:100AD000054A91611146896808221143024A9160D2
:100AE000704700000080044000B003400146002031
:100AF0000C4A126852095201CB06DB0E1A43094B0D
:100B00001A6000BF074A126880231A40002AF9D0F1
:100B1000044A126990B2034A12689A43014B1A6060
:100B20007047000000B00340F1B50098FFF7DEFF0A
:100B300004460098FFF7DAFF05460098FFF7D6FF56
:100B40000646AC4202DD27462C463D46AE4201DD5C
:100B50002F4604E0A64201DD374600E0274638462E
:100B6000F8BD10B50020FFF791FF0120FFF78EFFC1
:100B70000E20FFF78BFF0D20FFF788FF0C20FFF7FB
:100B800085FF10BD10B500F07FF801F0CFFF00F039
:100B9000F5FA00F053FAE1214902012003F060FC6C
:100BA00002F0D2FC02F068FC02F0A6FB00F09AFA18
:100BB00001F022FFFFF7D5FF184A0021184807F07F
:100BC00033F918481649C86017480861134A0021CC
:100BD00013481C3007F028F9124911488162124964
:100BE000C16200BF02F084FA0028FBD102F02EFCA3
:100BF00002F050FC64200D490880002205211046B7
:100C000003F098F87D20C00000F02AFA08484068F8
:100C10000121C90708430649486010BD0000204172
:100C200034F9FF1FFAED6B3A0AD7233CAAF0FF1FF5
:100C300040F00F400548408A012806D1044840682A
:100C400001214902084302494860704724FBFF1F05
:100C500000F00F4010B50A480088052807DB084857
:100C60000088401F06490880FFF7E4FF06E00548BA
:100C700080680121490208430249886010BD0000D4
:100C8000AAF0FF1F00F00F4010B50F484069012186
:100C9000490208430C494861084640684915084321
:100CA00009494860084640684915084306494860B4
:100CB000052000F0D5F90448806801214902084365
:100CC0000149886010BD000000F00F40F0B589B008
:100CD00006460F461546287844B200BFA1B202A8C6
:100CE00001F02EFCF01B401C0D225043C1B200232A
:100CF00002AA722002F007FE0020019000F06CFBB7
:100D0000012806D0022807D0032808D0042830D1B3
:100D10002AE0601C44B22CE0601E44B229E00120AD
:100D200001903046C7302649088028880988490044
:100D3000244A5052002009E04100FF225202891843
:100D4000098842001F4B9952411C88B2FF28F3DDED
:100D50002C80FF2000F0FAF90023012252021949E9
:100D6000FF2000F025FA04E0287844B20120019029
:100D700000BF00BF012C01DD002000E0204604463A
:100D8000002C01DA012000E02046044601980128E9
:100D900010D1A1B202A801F0D3FBF01B401C0D2220
:100DA0005043C1B2012302AA722002F0ACFD02F04E
:100DB00093FC02E002F090FC90E700BF09B0F0BDA8
:100DC000DCF0FF1FA4F9FF1FF0B58BB005460F46FE
:100DD0001646308804B27948844200DD00E020469F
:100DE0000446012C01DA012000E02046044600BF41
:100DF000224673A104A805F035FF00200090E81BEF
:100E0000401C0D225043C1B20C2304AA662002F0FC
:100E10005DFD0020039000F0DFFA030005F04DFFB8
:100E200006B0040D163249B0601C04B26348844217
:100E300000DD00E020460446A2E0012C01DA01209A
:100E400000E020460446601E04B299E001200390B1
:100E5000002009E04100FF2252028918098842005F
:100E6000594B9952411C88B2FF28F3DD3480FF2092
:100E700000F06CF90023012252025349FF2000F0D8
:100E800097F97DE00A2D0FDB122D0DDC2046E10FD6
:100E9000091849104900611A01D1214602E0214692
:100EA000621E14B20C466BE001200390308804B23D
:100EB00066E00A2D10DB122D0EDC2046E10F09182A
:100EC00049104900611A012901D1214602E0214659
:100ED000621C14B20C4653E00020029000BF3B4855
:100EE0000088201804B23548844200DD00E0204626
:100EF0000446002C01DA002000E02046044600F001
:100F00006BFA032806D0042820D1308804B20120CF
:100F100002901BE0002009E04100FF2252028918E4
:100F200009884200284B9952411C88B2FF28F3DD02
:100F30003480FF2000F00AF90023012252022249E6
:100F4000FF2000F035F90120029000BF00BF2246CB
:100F50001FA104A805F086FE00200090E81B401C9D
:100F60000D225043C1B20C2304AA662002F0AEFC4D
:100F700002F0B2FB02980028B1D000BF00BF00BF52
:100F800000BF0398012813D122460DA104A805F043
:100F900069FE01200090E81B401C0D225043C1B2A5
:100FA0000C2304AA662002F091FC02F095FB02E0FB
:100FB00002F092FB1CE700BF0BB0F0BD0F27000052
:100FC0002534642000000000A4F9FF1F98F0FF1FE3
:100FD000253464230000000070B5054602F036FA9F
:100FE000ECB220E064201449088020463030C2B2C0
:100FF00001230021282002F013FC02F06DFB012CDC
:1010000004D14B20C00000F02BF80AE0AF20800094
:1010100000F026F800F0E0F9042801D1012070BDAD
:1010200000BF601EC4B2002CDCD1FF202D3002496D
:1010300008800020F3E70000AAF0FF1F002009E06D
:101040004100FF225202891809884200034B99523D
:10105000411C88B2FF28F3DD70470000A4F9FF1F90
:1010600010B5034600240DE0084800F011F800BF59
:1010700000BF00BF00BF00BF00BF00BF00BF00BF78
:10108000601C84B29C42EFD310BD0000E703000057
:10109000002123E000BF00BF00BF00BF00BF00BFB2
:1010A00000BF00BF00BF00BF00BF00BF00BF00BF48
:1010B00000BF00BF00BF00BF00BF00BF00BF00BF38
:1010C00000BF00BF00BF00BF00BF00BF00BF00BF28
:1010D00000BF00BF00BF00BF4A1C91B242008A425D
:1010E000D8D8704710B5002006F0BCFC012006F0EF
:1010F000B9FC14488069012189028843114988613B
:1011000008464069091588430E4948610E488068C1
:10111000091508430C4988600A484030806920213D
:101120008843084940318861084640692021884346
:101130000449403148610448C068202108430249FD
:10114000C86010BD00F00F400090044070B5054627
:101150006C020020084948700A2048722002000EE4
:101160000872012048702004000E48720C7200F0D2
:1011700063F8002070BD0000000002400A49496980
:10118000012212031143084A516100BF07494979FE
:10119000802211400029F9D0272001464031034A1E
:1011A000D17030215171704700800440000002402E
:1011B000FFB581B007460C46790204980D18042645
:1011C0000020009023E00020144948700620487257
:1011D0002802000E0872012048702804000E487290
:1011E000FC2028400872022048702078087260783D
:1011F000487203204870A0780872E0784872A419F9
:10120000AD1900F019F80098801980B20090039988
:1012100000988842D7D3002005B0F0BD00000240FE
:1012200010B58300034CE3580C33CC001B195A60F3
:1012300010BD0000FCB8000010B572B630200A499D
:1012400048710A480A4908600748401D09688847EC
:1012500062B60548407933210840002801D00120BA
:1012600010BD0020FCE7000000000240DFF0FF1F7F
:10127000ECF0FF1F10B51B480069012189020840EE
:10128000002803D106F0E4FB404202E0002006F013
:10129000DFFB00B214490880124840300069202169
:1012A0000840002803D1012006F0D2FB03E0012012
:1012B00006F0CEFB404200B20C4908800A4A0021E9
:1012C000515E0A4A0023D35EC818C10F091849109D
:1012D00009B2074A1180002006F0B2FB012006F097
:1012E000AFFB10BD00F00F4098F0FF1F9AF0FF1FFA
:1012F0009CF0FF1F70B50E2000F044F80646FFF783
:101300002AF805462946184806F042FD0446FFF72C
:1013100056F8164908800D2000F034F80646FFF70D
:101320001AF80546294610481C3006F031FD0446DF
:10133000FFF745F80E490880012000F023F80D4919
:101340000880002000F01EF80B4908800B4900209F
:10135000085E0B4908800648008804490988401A3D
:1013600000B20649088070BD34F9FF1F9EF0FF1FD0
:10137000A0F0FF1FA2F0FF1FA4F0FF1FA6F0FF1FA9
:10138000A8F0FF1F10B504460C2C1ED004DC002C66
:1013900007D0012C1ED109E00D2C11D00E2C19D133
:1013A00009E005210020FFF756FB10BD05210120B3
:1013B000FFF751FBF9E701210E20FFF74CFBF4E7A3
:1013C00001210D20FFF747FBEFE7C8210C20FFF7B5
:1013D00042FBEAE70020E8E708B5002000906848F3
:1013E000006980210840002835D166480078FFF761
:1013F00037FE6348006980210840002828D16248F0
:101400000088401C6049088008460088142803DDD5
:1014100001205C49087016E05B4800880A2803DD5B
:101420000A20584908700EE057480088052803DD57
:101430001E205449087006E053480088032802DD46
:101440002820504908700120009005204F4908804D
:101450006846007808BD4A480069402108400028D5
:1014600035D148480078FFF7FBFD45480069402129
:101470000840002828D144480088401C4249088080
:1014800008460088142803DD01203E49087016E054
:101490003D4800880A2803DD0A203A4908700EE01A
:1014A00039480088052803DD1E203649087006E00B
:1014B00035480088032802DD2820324908700220C0
:1014C000009005203149088068460078C2E72C4822
:1014D0004030006910210840002812D129480078C6
:1014E000FFF7BEFD26484030006910210840002863
:1014F00004D1052025490880032000906846007823
:10150000A8E71F48403000690121890208400028EF
:1015100013D11C480078FFF7A3FD1948403000693B
:10152000012189020840002804D1052017490880BC
:1015300004200090684600788CE71148403000692C
:10154000012149020840002812D10E480078FFF717
:1015500087FD0B48403000690121490208400028FE
:1015600003D105200949088000906846007871E79A
:101570003C200449087000200349088000BF69E747
:1015800000F00F4002F0FF1F00F0FF1FAAF0FF1F46
:1015900010B5084A0849094801F02AFB084A0949D8
:1015A000094801F04CFB074B024A0449074800F088
:1015B0000FF810BD0AF0FF1F08F0FF1F06F0FF1F15
:1015C00010F0FF1F0EF0FF1F0CF0FF1F14F0FF1FA5
:1015D000F0B595B004460D4616461F460020385E0D
:1015E000FEF7AEFE0190FFF7A5F8274A274B0391BF
:1015F0000290FFF727F80022254B05910490FEF793
:10160000B9FF0022234B07910690FFF71BF80B91BF
:101610000A902068FFF78EF8099108900B9B0A9AB0
:10162000FEF79AFF1C4A1D4B0D910C90FEF7A2FF8E
:10163000119110900020305EFEF794FE0991089001
:101640000020285EFEF78EFE07910690099B089AFF
:1016500006F03AF90C4A124B0B910A90FEF78AFFFA
:10166000104A114B0D910C90FEF784FF0F910E90D4
:10167000119B109AFEF7CCFE13911290FFF76EF8B3
:10168000206015B0F0BD0000666666666666304094
:101690000000144000408F402B8716D9CEF7EF3F53
:1016A00066A64C40FCA9F1D24D62503F10B54048AF
:1016B0000078012812D13F480021415E142975DBD2
:1016C0003D480021415E142970DB7D20C00001F0FF
:1016D0005AFE7D20C00001F070FE67E037480068C8
:1016E00037490968401837490968401A364908607F
:1016F0003248006832490968401832490968401880
:101700003249086030480068002815DA2E48006821
:1017100040422D490860084600682D49884202DB96
:101720000846294908602849096888B201F02BFE5B
:101730000020254908600FE02348006824498842BA
:1017400002DB0846204908601F49096888B201F099
:101750000DFE00201C4908601C480068002815DAAE
:101760001A4800684042194908600846006818494C
:10177000884202DB0846154908601449096888B2A6
:1017800001F01BFE0020114908600FE00F480068BF
:101790000F49884202DB08460C4908600B4909687A
:1017A00088B201F0FDFD00200849086010BD00006E
:1017B000C0F0FF1F98F0FF1F9AF0FF1FACF0FF1F53
:1017C000B0F0FF1FB4F0FF1FB8F0FF1FBCF0FF1F09
:1017D0004E0C0000F8B5D2480078030005F06DFA11
:1017E000050440A3F0EF3F00CE480021415E1429DC
:1017F00035DBCD480021415E142930DBCB48008B1E
:10180000CB49098888422ADAC848008BC949098827
:10181000884224DAC548008BC7490988884203DA20
:10182000C6480088642809DBC44800887D21C900B7
:10183000884214DDC0480088642810DAC048006877
:10184000C0490860C0480068C0490860B4480078D2
:10185000401CB349087000F08FF901F0B9F95CE160
:10186000B8480068002844D0B8480068002840D034
:10187000B5480068B5490968401AB54909888842E1
:1018800037D9B1480068B1490968401AB149098897
:1018900088422ED2A6480088A64909884118A34844
:1018A000008B4000FF382D38814222DD9F48808D1B
:1018B000012807D1A84800884042FEF741FDA7490A
:1018C000086009E09948808D002805D1A248008869
:1018D000FEF741FDA14908600520A1490880A14803
:1018E00040680121C90708439E49486001F00EF98C
:1018F00018E09548006895490968411A8B48808B23
:1019000081420FD997484038406801214906084371
:1019100094494039486001F0E9F881480078401C5A
:101920007F490870F9E08648006886490968401ACE
:1019300014286DD98448006884490968401A85498B
:101940000988884264D97948008B79490988884296
:101950005EDD7648008B77490988884258DD8248E9
:101960000078401C804908700846007806284FDA45
:101970006E48808D012824D109780522511A764AB3
:101980001288514308460521FEF7CEFB0646FEF7B6
:10199000D7FC044674480078FEF7DDFC07466F4824
:1019A00001683846FEF751FC06467049FEF78AFC8E
:1019B00005462146FEF741FC6849086028E084E0BE
:1019C00038E05A48808D002822D1674909780522DD
:1019D000511A614A1288514308460521FEF7A4FBBB
:1019E0000646FEF7ADFC04465F480078FEF7B3FC00
:1019F00007465A4801683846FEF727FC06465B4909
:101A0000FEF760FC05462146FEF7C6FB5349086019
:101A10004D4800684D490968401A4E4909887D22A1
:101A2000D2008918884204D93D480078401C3C49BE
:101A3000087072E03D48008B3D49098888422FDAE2
:101A40003A48008B3B490988884229DA00203D4901
:101A500008603D4800683D4908603448808D012891
:101A600006D13249C88DFEF776FC3C4908600AE091
:101A70002E48808D002806D12C49098E4842FEF759
:101A80005FFC3649086005203549088035484038F4
:101A9000406801210906084332494039486013E093
:101AA0002848006800280FD127480068274909689E
:101AB000411A1E48408E814206D919480078401CC0
:101AC0001749087001F06AF827E01F4800681F49AD
:101AD0000968401A264988421ED90020104908701A
:101AE000184908601949086022480078401C2149BB
:101AF00008701C4840680121C9070843194948601B
:101B00001848403840680121090608431549403902
:101B10004860C8201249088000BF00BFF8BD00001F
:101B2000C1F0FF1F98F0FF1F9AF0FF1F24FBFF1F5B
:101B30009EF0FF1FA0F0FF1FA2F0FF1FA4F0FF1FE9
:101B4000C4F0FF1FCCF0FF1FC8F0FF1FD0F0FF1F35
:101B500092F0FF1F94F0FF1F90F0FF1F20F0FF1F77
:101B6000AAF0FF1F40F00F40D4F0FF1F0000A0407C
:101B70008813000058F0FF1F00B5F74800780300F5
:101B800005F09BF80AFB067DFCF9F8F7F6F5F4FB87
:101B9000F2480088002871D0F0490888C10F091860
:101BA00049104900411A8AB2ED498A85EB4A1088EA
:101BB000C20F121852105200821A03D1E74A12883B
:101BC000521E01E0E54A12881146D20F52185210F7
:101BD000130005F072F80604111E2B384552E14837
:101BE0000088E1490880E1480088E1490880E1482F
:101BF0000088E149088040E0E0480088DA49088030
:101C0000DF480088DA490880DE480088DA49088021
:101C100033E0DD480088D4490880DC480088D44996
:101C20000880DB480088D449088026E0D94800882D
:101C3000CD490880D8480088CD490880D748008819
:101C4000CD49088019E0D6480088C7490880D548A2
:101C50000088C7490880D4480088C74908800CE03C
:101C6000D2480088C0490880D1480088C04908800F
:101C7000D0480088C049088000BF00BF18E2CE48A5
:101C80000088002871D0CC490888C10F0918491074
:101C90004900411A8AB2B2498A85C74A1088C20FE0
:101CA000121852105200821A03D1C34A1288521ECF
:101CB00001E0C14A12881146D20F52185210130087
:101CC00004F0FBFF0604111E2B384552A54800887E
:101CD000A5490880A5480088A5490880A54800882E
:101CE000A549088040E0A54800889F490880A4488D
:101CF00000889F490880A34800889F49088033E0F6
:101D0000A148008898490880A04800889849088020
:101D10009F4800889849088026E09E48008892499C
:101D200008809D480088924908809C480088924914
:101D3000088019E09A4800888B49088099480088F3
:101D40008B490880984800888B4908800CE09748A8
:101D5000008885490880964800888549088095480C
:101D600000888549088000BF00BFB9E306E38EE222
:101D700016E29EE126E178E000E0ADE38F480088BE
:101D8000002871D08D490888C10F091849104900F1
:101D9000411A8AB272498A85884A1088C20F12187D
:101DA00052105200821A03D1844A1288521E01E056
:101DB000824A12881146D20F52185210130004F0B2
:101DC0007CFF0604111E2B38455266480088664980
:101DD0000880664800886649088066480088664929
:101DE000088040E0654800885F49088064480088B2
:101DF0005F490880634800885F49088033E0624893
:101E0000008859490880614800885949088060481D
:101E100000885949088026E05E48008852490880B9
:101E20005D480088524908805C4800885249088013
:101E300019E05B4800884C4908805A4800884C49A2
:101E40000880594800884C4908800CE057480088B1
:101E5000454908805648008845490880554800880B
:101E60004549088000BF00BF3AE355480088002874
:101E700071D053490888C10F091849104900411A07
:101E80008AB237498A854E4A1088C20F12185210FA
:101E90005200821A03D14A4A1288521E01E0484A6F
:101EA00012881146D20F52185210130004F005FF89
:101EB0000604111E2B3845522A4800882A490880FA
:101EC0002A4800882A4908802A4800882A49088028
:101ED00040E02A480088244908802948008824498D
:101EE0000880284800882449088033E02648008874
:101EF0001D490880254800881D490880244800881D
:101F00001D49088026E02348008817490880224898
:101F1000008817490880214800881749088019E07F
:101F20001F480088104908801E4800881049088012
:101F30001D480088104908800CE01C4800880A49A8
:101F400008801B4800880A4908801A4800880A4906
:101F5000088000BF00BFC3E258F0FF1F7EF0FF1FE4
:101F600024FBFF1F5AF0FF1F90F0FF1F5CF0FF1FC4
:101F700092F0FF1F5EF0FF1F94F0FF1F60F0FF1F45
:101F800062F0FF1F64F0FF1F66F0FF1F68F0FF1F85
:101F90006AF0FF1F6CF0FF1F6EF0FF1F70F0FF1F55
:101FA00072F0FF1F74F0FF1F76F0FF1F78F0FF1F25
:101FB0007AF0FF1F7CF0FF1F80F0FF1F82F0FF1FF1
:101FC00084F0FF1FFA480088002871D0F84908887B
:101FD000C10F091849104900411A8AB2F5498A858A
:101FE000F34A1088C20F121852105200821A03D1FD
:101FF000EF4A1288521E01E0ED4A12881146D20FB4
:1020000052185210130004F058FE0604111E2B380B
:102010004552E9480088E9490880E9480088E949CB
:102020000880E9480088E949088040E0E8480088DD
:10203000E2490880E7480088E2490880E6480088CD
:10204000E249088033E0E5480088DC490880E4483C
:102050000088DC490880E3480088DC49088026E0E5
:10206000E1480088D5490880E0480088D5490880C3
:10207000DF480088D549088019E0DE480088CF494C
:102080000880DD480088CF490880DC480088CF49B7
:1020900008800CE0DA480088C8490880D9480088E0
:1020A000C8490880D8480088C849088000BF00BFD8
:1020B00016E2D6480088002871D0D4490888C10F9C
:1020C000091849104900411A8AB2BA498A85CF4A8B
:1020D0001088C20F121852105200821A03D1CB4A34
:1020E0001288521E01E0C94A12881146D20F5218B6
:1020F0005210130004F0E1FD0604111E2B38455266
:10210000AD480088AD490880AD480088AD490880D9
:10211000AD480088AD49088040E0AD480088A74937
:102120000880AC480088A7490880AB480088A749C8
:10213000088033E0A9480088A0490880A8480088A2
:10214000A0490880A7480088A049088026E0A64842
:1021500000889A490880A54800889A490880A448C0
:1021600000889A49088019E0A248008893490880AD
:10217000A148008893490880A048008893490880B6
:102180000CE09F4800888D4908809E4800888D4952
:1021900008809D4800888D49088000BF00BF9FE1EE
:1021A0009B480088002871D099490888C10F0918F8
:1021B00049104900411A8AB27E498A85944A10889A
:1021C000C20F121852105200821A03D1904A12887C
:1021D000521E01E08E4A12881146D20F5218521038
:1021E000130004F06AFD0604111E2B384552724894
:1021F00000887249088072480088724908807248D5
:1022000000887249088040E0714800886B49088066
:10221000704800886B4908806F4800886B490880C7
:1022200033E06E480088654908806D48008865493C
:1022300008806C4800886549088026E06A48008864
:102240005E490880694800885E49088068480088BF
:102250005E49088019E06748008858490880664848
:1022600000885849088065480088584908800CE073
:1022700063480088514908806248008851490880B5
:10228000614800885149088000BF00BF28E16148CB
:102290000088002871D05F490888C10F09184910CB
:1022A0004900411A8AB243498A855A4A1088C20FA6
:1022B000121852105200821A03D1564A1288521E26
:1022C00001E0544A12881146D20F521852101300DE
:1022D00004F0F3FC0604111E2B38455236480088E2
:1022E00036490880364800883649088036480088D4
:1022F0003649088040E03648008830490880354833
:10230000008830490880344800883049088033E02C
:1023100032480088294908803148008829490880C6
:10232000304800882949088026E02F480088234942
:1023300008802E480088234908802D4800882349BA
:10234000088019E02B4800881C4908802A4800882A
:102350001C490880294800881C4908800CE028484E
:1023600000881649088027480088164908802648B2
:1023700000881649088000BF00BFB1E026480088E9
:10238000002872D024490888C10F09184910490053
:10239000411A8AB207498A851F4A1088C20F12184B
:1023A00052105200821A39D11B4A1288521E37E04D
:1023B00086F0FF1F24FBFF1F5AF0FF1F90F0FF1F46
:1023C0005CF0FF1F92F0FF1F5EF0FF1F94F0FF1FF5
:1023D00060F0FF1F62F0FF1F64F0FF1F66F0FF1F39
:1023E00068F0FF1F6AF0FF1F6CF0FF1F6EF0FF1F09
:1023F00070F0FF1F72F0FF1F74F0FF1F76F0FF1FD9
:1024000078F0FF1F7AF0FF1F7CF0FF1F88F0FF1F9E
:102410008AF0FF1F8CF0FF1F8EF0FF1F314A1288D9
:102420001146D20F52185210130004F046FC060455
:10243000111F2C3946532C4800882C4908802C4801
:1024400000882C4908802C4800882C49088041E0ED
:102450002B480088254908802A480088254908809B
:10246000294800882549088034E034E0274800885E
:102470001E490880264800881E4908802548008893
:102480001E49088026E0244800881849088023480F
:10249000008818490880224800881849088019E0F7
:1024A00020480088114908801F4800881149088089
:1024B0001E480088114908800CE01D4800880B491F
:1024C00008801C4800880B4908801B4800880B497D
:1024D000088000BF00BF03E002211848818500BFCB
:1024E00000BF00BD8EF0FF1F5AF0FF1F90F0FF1FCE
:1024F0005CF0FF1F92F0FF1F5EF0FF1F94F0FF1FC4
:1025000060F0FF1F62F0FF1F64F0FF1F66F0FF1F07
:1025100068F0FF1F6AF0FF1F6CF0FF1F6EF0FF1FD7
:1025200070F0FF1F72F0FF1F74F0FF1F76F0FF1FA7
:1025300078F0FF1F7AF0FF1F7CF0FF1F24FBFF1FC6
:1025400070B505460C46002C02D0012C0AD104E0DF
:1025500008A1284604F086FB09E007A1284604F0FC
:1025600081FB04E005A1284604F07CFB00BF00BF0E
:1025700070BD0000B9D80000BFAA00003F3F0000B6
:10258000F8B500F063FFE948C08A00280DD1E8489B
:1025900040680121C9070843E5494860084640688A
:1025A000012149070843E24948600120E1490880C8
:1025B0000020E1490860E149086000F05DFF00206B
:1025C000DF4908700120DF490870DF490870D748EB
:1025D000408C401E2821484384B26000DB49085AE1
:1025E000DB490880601C4000D849085AD949088056
:1025F000A01C4000D549085AD7490880E01C40007B
:10260000D249085AD5490880201D4000CF49085AB0
:10261000D3490880601D4000CC49085AD149088040
:10262000A01D4000C949085ACF490880E01D40005C
:10263000C649085ACD490880204614304000C34995
:10264000085ACB490880204615304000BF49085A37
:10265000C8490880204616304000BC49085AC6497F
:102660000880204617304000B849085AC3490880FE
:10267000204618304000B549085AC1490880204614
:1026800019304000B149085ABE49088020461A3026
:102690004000AE49085ABC49088020461B30400023
:1026A000AA49085AB949088020461C304000A74969
:1026B000085AB749088020461D304000A349085AEF
:1026C000B449088020461E304000A049085AB2494B
:1026D000088020461F3040009C49085AAF490880B6
:1026E0002046203040009949085AAD4908802046CC
:1026F000213040009549085AAA49088020462230D6
:1027000040009249085AA8490880204623304000DA
:102710008E49085AA54908802046243040008B493C
:10272000085AA34908802046253040008749085AA6
:10273000A04908807D48408C401E2821484309302C
:1027400040008249085A9C4908807848408C401EC5
:10275000282148430A3040007C49085A974908809C
:102760007248408C401E282148430B304000774976
:10277000085A934908806D48408C401E28214843E0
:102780000C3040007149085A8E4908806748408CD7
:10279000401E282148430D3040006C49085A8A49A0
:1027A00008806248408C401E282148430E3040007B
:1027B0006649085A854908805C48408C401E28219B
:1027C00048430F3040006149085A81490880574802
:1027D000408C401E28214843103040005B49085A75
:1027E0007C4908805148408C401E282148431130C4
:1027F00040005649085A7849088096E000254C4820
:102800000069FF2101310840002803D10125012082
:102810007249087001F0F8FC4448C08C012815D1B9
:102820006F490020085EFF212D3188420DDC6C4984
:102830000020085E6B49884207DB6B480088C82887
:1028400003DB6A480088C82800DA01253748008D74
:10285000002809D038480068810041183348008DAD
:102860000A225043814219D83048408D002819D09F
:102870002E49488DFDF76FFD5D490090FDF722FD63
:1028800006465C492D480068FDF738FC0090FDF7CE
:1028900062FD07463146FDF7A7FD03D2C820FEF7CB
:1028A000DFFB0125FEF798FD002801D1002D3BD06C
:1028B0000020234908700120224908701C488068C4
:1028C0000121C90708431A49886008468068012128
:1028D00049070843164988600020404908701A4992
:1028E00008701449088014490860144908601048A9
:1028F000403040680121C90708430D494031486014
:102900000B484068012149060843094948600846C8
:1029100040680121090608430549486000F0BAFDF6
:1029200000F012FE0020F8BD00BF67E724FBFF1F88
:1029300000F00F40C2F0FF1FC4F0FF1FC8F0FF1FE0
:10294000C1F0FF1F58F0FF1F96F0FF1FA4F9FF1FF3
:1029500030F0FF1F32F0FF1F34F0FF1F36F0FF1F73
:1029600038F0FF1F3AF0FF1F3CF0FF1F3EF0FF1F43
:102970005AF0FF1F5CF0FF1F5EF0FF1F60F0FF1FAB
:1029800062F0FF1F64F0FF1F66F0FF1F68F0FF1F7B
:102990006AF0FF1F6CF0FF1F6EF0FF1F70F0FF1F4B
:1029A00072F0FF1F74F0FF1F76F0FF1F78F0FF1F1B
:1029B0007AF0FF1F7CF0FF1F7EF0FF1F80F0FF1FEB
:1029C00082F0FF1F84F0FF1F86F0FF1F88F0FF1FBB
:1029D0008AF0FF1F8CF0FF1F8EF0FF1FC0F0FF1F5B
:1029E00098F0FF1FD4FEFFFF9EF0FF1FA0F0FF1F17
:1029F0000000C842F41500003A48806980218843ED
:102A000038498861084640698021884335494861D2
:102A1000354880688021084333498860314880699F
:102A2000402188432F4988610846406940218843F6
:102A30002C4948612C488068402108432A49886015
:102A400028484030806910218843264940318861F8
:102A50000846406910218843224940314861224894
:102A6000C068102108432049C8601E484030806972
:102A7000091588431B49403188610846406909159A
:102A800088431849403148611748C0680915084310
:102A90001549C86013484030806949158843114979
:102AA0004031886108464069491588430D494031E5
:102AB00048610D48C068491508430B49C86009487A
:102AC00080698915884307498861084640698915E6
:102AD00088430449486104488068891508430249CD
:102AE0008860704700F00F40009004400548008A5D
:102AF000012806D1044880680121090608430249DB
:102B00008860704724FBFF1F00F00F400548008AD3
:102B1000012806D10448806801214906084302497A
:102B20008860704724FBFF1F00F00F401A4840697F
:102B30000121C90708431849486108464068490609
:102B40000843154948601448403840690121490646
:102B50000843114940394861084640680121490647
:102B600008430D494039486008464069012109067B
:102B7000084309494039486108464068012109066F
:102B8000084305494039486003488068C904084340
:102B9000014988607047000040F00F400A48008AF1
:102BA00001280FD1094880680121C9070843074956
:102BB00088600648403880680121090608430349B7
:102BC000403988607047000024FBFF1F40F00F4031
:102BD0000548008A012806D1044880680121C907F8
:102BE000084302498860704724FBFF1F40F00F40F4
:102BF000FEB504460D4616466B4606223B2168206C
:102C000000F0D4FA0746002F17D168460078010279
:102C100068464078014308B2208068468078010207
:102C20006846C078014308B22880684600790002EF
:102C300069464979084300B230803846FEBDFEB58A
:102C400004460D4616466B4606224321682000F0D6
:102C5000ADFA0746002F17D1684600780102684692
:102C60004078014308B220806846807801026846B7
:102C7000C078014308B2288068460079000269469E
:102C80004979084300B230803846FEBD10B520486F
:102C90004069082108431E494861084680680821A8
:102CA00008431B49886008464069042108431849C5
:102CB00048610846406804210843154948600846B1
:102CC000406904210843124948610846806804218C
:102CD00008430F49886000F01DF80D48406908213D
:102CE00008430B49486108464068082108430849E1
:102CF000486000F00FF8064840690821084304497D
:102D0000486108468068082108430149886010BD71
:102D100000F00F4010B50220FEF7BAF910BD000018
:102D20000C484069082108430A4948610846406840
:102D300008210843074948600846406904210843C0
:102D40000449486108464068042108430149486035
:102D50007047000000F00F4010B52048406908217E
:102D600008431E49486108468068082108431B49FA
:102D700088600846406904210843184948610846AC
:102D80004068042108431549486008464069042109
:102D900008431249486108464068042108430F4926
:102DA0004860FFF7B7FF0D484069082108430B4909
:102DB0004861084640680821084308494860FFF711
:102DC000A9FF0648406908210843044948610846AC
:102DD0008068082108430149886010BD00F00F4059
:102DE00070B50546002423488069042188432149A1
:102DF000886108464069042188431E4948611E488D
:102E00008068042108431C498860002627E019488F
:102E1000406908210843174948610846806808212D
:102E2000084314498860FFF775FF1248406908217C
:102E300008431049486108464068082108430D4985
:102E400048606006040E0846006904210840002816
:102E500001D0601CC4B2FFF75DFF701CC6B2082E23
:102E6000D5DB002D02D1FFF777FF01E0FFF70EFF62
:102E7000204670BD00F00F400090044070B504463D
:102E80002D484069042108432B49486108464068A1
:102E9000042108432849486008464069082108433E
:102EA000254948610846806808210843224988600E
:102EB00000253DE080202040C01100280CD11E4894
:102EC0004069042108431C49486108468068042180
:102ED0000843194988600BE01748406904210843FA
:102EE0001549486108464068042108431249486072
:102EF0006006040E10484069082108430E494861E5
:102F000008464068082108430B494860FFF702FF64
:102F10000948406908210843074948610846806814
:102F20000821084304498860FFF7F4FE681CC5B215
:102F3000082DBFDB70BD000000F00F4010B5204829
:102F40004069042108431E4948610846406804213D
:102F500008431B4948600846406904210843184952
:102F600048610846406804210843154948600846FE
:102F70004069082108431249486108464068082111
:102F800008430F494860FFF7C5FE0D48406904211A
:102F900008430B49486108468068042108430849F2
:102FA0008860FFF7B7FE06484069082108430449D6
:102FB000486108468068082108430149886010BDBF
:102FC00000F00F4010B520484069042108431E4915
:102FD000486108464068042108431B494860084688
:102FE000406908210843184948610846806808215B
:102FF000084315498860084640690421084312497E
:10300000486108468068042108430F498860FFF73B
:1030100081FE0D484069082108430B494861084674
:10302000406808210843084948600846406904216F
:10303000084305494861084640680421084302499D
:103040004860FFF767FE10BD00F00F4010B5002488
:1030500025488069042188432349886108464069DE
:10306000042188432049486120488068042108439E
:103070001E4988601C484069042108431A49486178
:10308000084640680421084317494860FFF742FE9C
:1030900015484069082108431349486108464068BB
:1030A0000821084310494860FFF734FE07E0601C20
:1030B000C4B2FA2C03DDFFF785FF012010BD0A48DA
:1030C0000069042108400028F1D10748406908211F
:1030D00008430549486108468068082108430249B9
:1030E00088600020EAE7000000F00F4000900440F4
:1030F00010B5FFF715FE6420FDF7B2FF80216B20AD
:1031000000F0D5F86420FDF7ABFF00216B2000F044
:10311000CEF8032000F088F8002000F07DF832207F
:1031200000F0A7F80021382000F0C1F800216A2043
:1031300000F0BDF80021232000F0B9F880213720ED
:1031400000F0B5F8752000F014F80446682C0CD196
:1031500001216B2000F0ABF800216C2000F0A7F8F3
:103160007D20C00000F085F801E0012010BD0020A6
:10317000FCE770B50446FFF7E1FED020FFF77EFEC6
:10318000FFF764FF2046FFF779FEFFF75FFFFFF7C9
:10319000D5FED120FFF772FEFFF758FF0020FFF7A2
:1031A0001FFE0546FFF70EFF284670BDF8B5064620
:1031B0000F4614461D46FFF7C1FE7106080EFFF7C5
:1031C0005DFEFFF743FF002803D0FFF7FBFE012061
:1031D000F8BD3846FFF752FEFFF738FFFFF7AEFEA7
:1031E0007100491CC8B2FFF749FEFFF72FFF0DE041
:1031F000012C04D10020FFF7F3FD287003E001202B
:10320000FFF7EEFD2870601EC4B26D1C002CEFD1DC
:10321000FFF7D8FE0020DBE710B50446E006010EFC
:103220001C2000F044F810BD10B50446E006010E65
:103230001B2000F03CF810BD70B504460025BC2CE6
:1032400001DB012510E0622C01DB02250CE02A2CB9
:1032500001DB032508E0142C01DB042504E00A2C23
:1032600001DB052500E0062529461A2000F01FF89D
:1032700070BD70B504467D20C000844200DD044668
:10328000042C00DA042421467D20C000FCF74CFF0A
:10329000401EC6B23146192000F009F80646254600
:1032A000E10F4919C903080CFFF7C6FF70BD70B5DF
:1032B00005460C46FFF742FED020FFF7DFFDFFF783
:1032C000C5FE002803D0FFF77DFE012070BD284613
:1032D000FFF7D4FDFFF7BAFE2046FFF7CFFDFFF75B
:1032E000B5FE002803D0FFF76DFE0120EEE7FFF7E3
:1032F00069FE0020EAE7000010B50023194A032107
:10330000022004F041FC0023164A0221084604F082
:103310003BFC1548406901214907084312494861AF
:10332000084680680121490708430F498860002347
:103330000C4A0121022004F027FC0023094A194607
:10334000022004F021FC084840690121C907084314
:103350000549486108468068C904084302498860F5
:1033600010BD0000D430000000F00F4010B504463E
:10337000224603210220FDF753FF012202210846C5
:10338000FDF74EFF10BD10B50446012203210220B7
:10339000FDF746FF224602210846FDF741FF10BD1A
:1033A00010B50446224601210220FDF739FF012213
:1033B00000210220FDF734FF10BD10B504460122A4
:1033C00011460220FDF72CFF224600210220FDF7C6
:1033D00027FF10BD10B5002819DA1A4A03071B0F82
:1033E000083B9B089B00D2588307DC0EFF23A340B9
:1033F0009A438B071B0E8407E40EA3401A43114B1C
:103400000407240F083CA408A4001A5118E00E4A2F
:1034100003231B02D21883089B00D2588307DC0EBB
:10342000FF23A3409A438B071B0E8407E40EA3409F
:103430001A43054B032424021B198408A4001A51C3
:1034400010BD00001CED00E000E100E010B5002020
:103450000CE0002106E00022CB00064C1B191A5498
:103460004A1CD1B28029F6DB411CC8B20828F0DB27
:1034700010BD0000F0F0FF1F00B500218D2000F00E
:10348000CDFA0021102000F0C9FA0021AE2000F092
:10349000C5FA00BD00B500218D2000F0BFFA002163
:1034A000142000F0BBFA0021AF2000F0B7FA00BDF5
:1034B000F7B57F2801DC3F2900DDFEBD0C46CE17A5
:1034C000760F3619F6100727BE1BF2B2CE17760F0D
:1034D0003619F610F6008E1BF5B20724661B012480
:1034E000B440E3B2029C002C09D0C400094EA419D8
:1034F000A45C1C43C600074FF619B45408E0C4008E
:10350000044EA419A45C9C43C600024FF619B4549F
:1035100000BFD2E7F0F0FF1FFFB506460F46344666
:103520000DE03D4606E029462046099AFFF7C0FF18
:10353000681CC5B203988542F5DD601CC4B20298D0
:103540008442EEDDFFBD000000B562484069012104
:10355000C90608435F494861084640680121C90619
:1035600008435C49486008464069012189060843D0
:103570005849486108464068012189060843554971
:1035800048605448403040698915084351494031EA
:10359000486108464068891508434E4940314860F3
:1035A0004C484069890508434A49486108464068D3
:1035B000012109070843474948600846406801213E
:1035C00009070843434948604248403080688915EC
:1035D00008434049403188607D20400107E0642174
:1035E00001E04A1E91B20029FBDC411E88B200288E
:1035F000F5DC384840304068FF2101310843354947
:10360000403148600021AE2000F008FA0021D520AA
:1036100000F004FA0021802000F000FA0021A82028
:1036200000F0FCF900213F2000F0F8F90021D32040
:1036300000F0F4F90021084600F0F0F900214020E4
:1036400000F0ECF900218D2000F0E8F900211420B1
:1036500000F0E4F90021202000F0E0F90021022030
:1036600000F0DCF90021A12000F0D8F90021C020F1
:1036700000F0D4F90021DA2000F0D0F90021122066
:1036800000F0CCF90021812000F0C8F90021EF20E2
:1036900000F0C4F90021D92000F0C0F90021F12088
:1036A00000F0BCF90021DB2000F0B8F90021302047
:1036B00000F0B4F90021A42000F0B0F90021A62008
:1036C00000F0ACF90021AF2000F0A8F9FFF7BEFE32
:1036D00000BD000000F00F4030B500241CE0214682
:1036E000B031C8B2002100F099F90021084600F07D
:1036F00095F90021102000F091F9002508E0E9007B
:10370000074A8918085D012100F088F9681CC5B2D4
:10371000802DF4DB601CC4B2082CE0DB30BD00005F
:10372000F0F0FF1FFFB584B00E4615461C4602960A
:103730002046E3175B0F1B18DB102246E7177F0FAD
:10374000BF18FF10FF00E71B01D0012700E0002792
:10375000DB192146E70F7F187F107B43DBB2019313
:1037600028462038C5B200274FE00C2C04D0102C7E
:1037700009D0182C14D10CE00C20684325494018BE
:10378000C05D03900DE0280123494018C05D0390FF
:1037900007E02420684321494018C05D039000E001
:1037A00000BF00BF0020009029E08021039808405E
:1037B000002805D031460D9A0498FFF779FE0AE0FB
:1037C0000D98002801D1012000E00020024631467A
:1037D0000498FFF76DFE03984006000E0390701CDE
:1037E000C6B20298301AA04205D1029E0498401C2D
:1037F000C0B2049006E00098401CC0B2009000984F
:103800000828D2DB00BF781CC7B201988742ACDB26
:1038100008B0F0BDFC9F000070A4000060AA00008A
:10382000FFB581B00646002407E02548015D0398F6
:10383000814200D103E0601CC4B2092CF5DB00BF5B
:103840000394002438E000272BE0FF218131039806
:1038500048431C49411806206043C019085C009089
:1038600000251AE01848405D00990840002805D05E
:103870003046049A0299FFF71BFE0AE004980028DC
:1038800001D1012000E00020024630460299FFF7F6
:103890000FFE701CC6B2681CC5B2082DE2DB781C96
:1038A000C7B2062FD1DB0298401CC0B2029030464E
:1038B0003038C6B2601CC4B2402CC4DB05B0F0BDC9
:1038C000DC7E00007C920000BCB70000FFB581B038
:1038D000064614461D460A9F0DE0009722782B46A7
:1038E00030460299FFF71EFF2846E90F09184910D4
:1038F0008919CEB2641C20787E2802DC207820282A
:10390000EBDA05B0F0BDF8B505460F4614461E4685
:103910001FE02078002800D11CE020787E280DDCF4
:10392000207820280ADB009622780C233946284686
:10393000FFF7F8FEA81DC5B2641C0AE00096637884
:1039400022783946284600F007F828460C30C5B2E0
:10395000A41CDEE700BFF8BDFFB582B006461746DF
:1039600000240CE02A48005DB84206D12849601CBA
:10397000095C0598814200D103E0A01CC4B2C82CA8
:10398000F0DB00BF2046E10F0918C9050F0E002427
:103990003AE0002000902BE0182078431D494118A0
:1039A000620000981018085C019000251AE01A487F
:1039B000405D01990840002805D030460B9A0399D4
:1039C000FFF776FD0AE00B98002801D1012000E006
:1039D0000020024630460399FFF76AFD701CC6B20C
:1039E000681CC5B2082DE2DB0098401CC0B20090F4
:1039F00000980228D0DB0398401CC0B203903046E8
:103A00001038C6B2601CC4B20C2CC2DB06B0F0BDCC
:103A1000F47E0000BC7F0000BCB7000010B5002998
:103A200002D0012910D107E0204A926801231B0728
:103A30001A431E4B9A6007E01C4A526801231B0779
:103A40001A431A4B5A6000BF00BF002224E0174BF4
:103A50009B680124E4062343144CA36080230340A5
:103A6000002B07D023465B680124A40623430F4C98
:103A7000636006E00D4B9B680124A40623430B4CB6
:103A8000A3600A4B5B680124E4062343074C636090
:103A90004306180E531CDAB2082AD8DB034A5268D0
:103AA00001231B071A43014B5A6010BD00F00F4061
:103AB000F0B595B07D48C068012108437B49C860D6
:103AC000FDF766FDFDF716FCFDF7D4FB7848808A0C
:103AD000012811D177480068401C76490860764873
:103AE0000021415E002907DB74480068724900220A
:103AF0008A5E80187149086071490020085EFCF7F1
:103B00001FFC07466F480088FCF725FC6E491290A1
:103B1000FCF7D8FB06463946FCF797FB05466B4891
:103B20000088FCF718FC1190694800680121C9075A
:103B3000484007461199FCF72FFB06466548008868
:103B4000FCF709FC31461290FCF77FFB29461390E5
:103B5000FCF722FB0446FCF719FC5F4908605F484C
:103B600000685F4908605F4800685C4908605E481B
:103B700000685C4908605D490020085EFCF7E0FBD6
:103B80000646FCF7D7FD0446594A5A4BFCF7F2FCAF
:103B90000F910E9055490020085EFCF7E3FB0446A8
:103BA0000D4652490020085EFCF7CAFB0590FCF761
:103BB000C1FD0646504A514BFCF7DCFC22462B4621
:103BC00007910690FCF7D6FC0B910A90474900201C
:103BD000085EFCF7C7FB0791069044490020085E89
:103BE000FCF7AEFB0646FCF7A5FD04460D463F4933
:103BF0000020085EFCF7A4FB0190FCF79BFD064645
:103C00003F4A404BFCF7B6FC22462B4603910290FC
:103C1000FCF7B0FC05910490079B069AFCF7AAFC00
:103C2000099108900B9B0A9AFCF7F2FB0D910C90FE
:103C30000F9B0E9AFCF7ECFB334A344B119110901A
:103C4000FCF78AFC13911290FCF788FD2649086066
:103C5000FDF7C0FD254A0021515E2D4A0023D35EA9
:103C6000C91A2C4A128851430846FCF769FB0646DC
:103C700029480088FCF76FFB07461B480168384657
:103C8000FCF7E3FA05463146FCF786FA0446FCF7F2
:103C90007DFB2249086000F0B7FAFDF707FDFCF74D
:103CA000D9FF00F0D1FA15B0F0BD0000007103405B
:103CB00024FBFF1FC4F0FF1F9CF0FF1FC8F0FF1F75
:103CC0000EF0FF1F36F0FF1F0000C84230F0FF1F4C
:103CD00014F0FF1F34F0FF1FACF0FF1F28F0FF1F90
:103CE0002CF0FF1F24F0FF1F20F0FF1FA6F0FF1F86
:103CF000D4B7CCE9B298883F1C0CD01154E8C7BEA9
:103D00009FB7BB4ED6A8353EB115342DB1327A3FA0
:103D1000A8F0FF1F3EF0FF1F3CF0FF1FB4F0FF1F95
:103D20000348C169012001430148C1617047000097
:103D30000071034070B504460D4616461F484069A1
:103D4000022108431D4948611D480068022188433B
:103D50001B49086020461630C206D20E0121914050
:103D6000184A116000BF184868431849220188505A
:103D700008462101401880680221084313492201A6
:103D80008918886011482101401881680120014389
:103D90000E482201801881602146163148B2314612
:103DA000FFF718FB20461630C206D20E01219140C3
:103DB000044A803A116000BF70BD000000800440DA
:103DC0000070034080E100E0409C0000007103406F
:103DD000F0B58FB005460E461746387844B200BF9E
:103DE000A2B201A908A800F093F9A81B401C0D225B
:103DF0005043C1B2002308AA5420FFF784FDA81B3A
:103E0000401C0D225043C1B2002301AA6C20FFF7D1
:103E10007AFD00200090FDF7DFFA030002F04DFF6D
:103E2000065A04131C414D5AA01C44B20D2C01D15A
:103E30000B2000E0204604460E2C01D10C2000E0AF
:103E40002046044646E0A01E44B2002C01DC0020BF
:103E500000E0204604463DE0012000902846C7309F
:103E60002F4908803888098849002E4A505200207E
:103E700009E04100FF225202891809884200294BBB
:103E80009952411C88B2FF28F3DD3C80FF20FDF7EA
:103E90005DF90023012252022249FF20FDF788F933
:103EA00018E02046E10F091849104900611A01D1B4
:103EB000611E00E021464CB20CE02046E10F0918DB
:103EC00049104900611A012901D1611C00E0214615
:103ED0004CB200BF00BF009801281BD1A2B201A9BB
:103EE00008A800F015F9A81B401C0D225043C1B2D0
:103EF000012308AA5420FFF706FDA81B401C0D2231
:103F00005043C1B2012301AA6C20FFF7FCFCFFF76C
:103F1000E3FB02E0FFF7E0FB62E700BF0FB0F0BD9C
:103F2000DCF0FF1FA4F9FF1FF0B58BB005460F466C
:103F30001646308804B26F48844200DD00E0204617
:103F40000446002C01DA002000E02046044600BFB1
:103F5000224669A104A802F085FE00200090E81B1B
:103F6000401C0D225043C1B20C2304AA6620FFF767
:103F7000ADFC00200390FDF72FFA030002F09DFE38
:103F8000069B040D1632479B601C04B259488442BC
:103F900000DD00E0204604468DE0012C01DA01201E
:103FA00000E020460446601E04B284E00120039035
:103FB000002009E04100FF225202891809884200CE
:103FC0004F4B9952411C88B2FF28F3DD3480FF200B
:103FD000FDF7BCF80023012252024949FF20FDF7FA
:103FE000E7F868E00A2D0DDB122D0BDC2046E10F0F
:103FF000091849104900611A01D1611E00E02146EB
:104000000CB258E001200390308804B253E0002045
:10401000029000BF3B480088201804B23548844213
:1040200000DD00E020460446002C01DA002000E01C
:1040300020460446FDF7D0F9032806D0042820D1F5
:10404000308804B2012002901BE0002009E041000A
:10405000FF225202891809884200294B9952411CBB
:1040600088B2FF28F3DD3480FF20FDF76FF80023CE
:10407000012252022249FF20FDF79AF80120029006
:1040800000BF00BF224620A104A802F0EBFD0020E3
:104090000090E81B401C0D225043C1B20C2304AA1F
:1040A0006620FFF713FCFFF717FB02980028B1D03A
:1040B00000BF00BF00BF00BF0398012813D12246F4
:1040C0000DA104A802F0CEFD01200090E81B401CC9
:1040D0000D225043C1B20C2304AA6620FFF7F6FB61
:1040E000FFF7FAFA02E0FFF7F7FA31E700BF0BB08B
:1040F000F0BD00000F270000253464200000000000
:10410000A4F9FF1F98F0FF1F25346423000000006E
:1041100070B506460D461446002C08D12FA1304636
:1041200002F0A0FD2DA1284602F09CFD70BD2046A6
:10413000E10F091849104900611A02D001290AD17A
:1041400004E027A1304602F08DFD09E025A13046AC
:1041500002F088FD04E024A1304602F083FD00BF98
:1041600000BF2046E10F091849104900611A01D12A
:10417000611E00E021468CB22046E10F091849106B
:104180000B0002F09AFD0604090E13181D2217A158
:10419000284602F067FD1DE015A1284602F062FDE9
:1041A00018E014A1284602F05DFD13E012A1284694
:1041B00002F058FD0EE011A1284602F053FD09E07F
:1041C0000FA1284602F04EFD04E00EA1284602F0A1
:1041D00049FD00BF00BF00BFA8E700002D2D2D0046
:1041E000D3D22000D7F320003F3F0000203530001D
:1041F00020363000203730002038300020393000A1
:10420000313030003F3F3F0006480069FF21013157
:104210000840002805D1012003490870C82003493F
:104220000880704700F00F40C0F0FF1FAAF0FF1F8A
:1042300010B5552003F04BFEAA2003F048FE1120D4
:1042400003F045FE10BD000010B5124800780028AC
:104250001FD01148808A00281BD010480088FCF726
:104260007AF80F4908600F480088FCF774F80C4989
:1042700048600D480088FCF76EF8094988600B48D3
:104280000088FCF768F80649C860FFF7D1FF00F026
:104290000FF810BD96F0FF1F24FBFF1FC2F0FF1F99
:1042A000F0F8FF1FA0F0FF1FA2F0FF1FA4F0FF1FF8
:1042B000F8B500240026002000900425552003F0C6
:1042C00006FEAA2003F003FEFF2003F000FE0120FB
:1042D00003F0FDFD284603F0FAFD00BF19E0A00041
:1042E0000F490858009068460678304603F0EFFD05
:1042F00068464678304603F0EAFD684686783046E0
:1043000003F0E5FD6846C678304603F0E0FD601C2A
:10431000C4B2AC42E3DB012003F0D9FDF8BD0000DC
:10432000F0F8FF1F10B51748408C030002F0C5FCE1
:104330000627040B12192027012313A213210020A2
:10434000FFF7E1FA1CE0012315A213210020FFF77B
:10435000DAFA15E0012318A213210020FFF7D3FA9F
:104360000EE001231AA213210020FFF7CCFA07E088
:1043700001231DA213210020FFF7C5FA00E000BFB2
:1043800000BF10BD24FBFF1F202020202020202064
:10439000B0B820D2BB2020202020202020200000E8
:1043A0002020202020202020B0B820B6FE20202071
:1043B000202020202020000020202020202020203D
:1043C000B0B820C8FD202020202020202020000080
:1043D0002020202020202020B0B820CBC420202066
:1043E000202020202020000020202020202020200D
:1043F000B0B820CEE5202020202020202020000062
:104400001248134988800120487023200870112029
:10441000000510494862104840780007000F0E4917
:10442000487094200D4908701A200B49087000BF8D
:1044300009480079102108400028F9D100BF06483A
:1044400000790C2108400028F9D1704703E80000EA
:104450000020054000800440004006400050064017
:10446000F3B581B00646B00049490C58002E04D07F
:10447000012E22D0022E62D140E04648C068802141
:1044800088434449C860084640690121090508433A
:10449000404948614048C078082108433E49C870F7
:1044A0000846C078042108433B49C8700846C078D4
:1044B000202108433849C87000BF364800690121EF
:1044C00009038843334908610846406901214905C9
:1044D0000843304948613148C078082108432F49D2
:1044E000C8700846C078042108432C49C8700846A3
:1044F000C078202108432949C87021E02548006977
:104500000121490388432349086108464069012184
:10451000890508431F4948612148C078082108439C
:104520001F49C8700846C078042108431C49C87058
:104530000846C078202108431949C87000E000BF30
:1045400000BFE0780C218843E0700020A07015487F
:104550000299FBF7D3FD471D0A213846FBF7CEFD34
:1045600085B21148854200DD0546207840094001AA
:1045700020702078E904C90E08432070657000207F
:10458000A070A0716071E0780C210843E070FEBD5E
:10459000F0B800000080044000A0064000B00640D3
:1045A00000C0064040787D01FF1F000030B5024684
:1045B0000B4690000B4D2C58002108E020798025F7
:1045C0002840002801D0E37104E0481CC1B206482D
:1045D0008142F3DB00BF0448814201DB012030BD92
:1045E0000020FCE7F0B80000BBFB000030B589B04C
:1045F000FEF72CFF012321A200210846FFF783F9D3
:1046000000BFFCF7E9FE032802D0042803D100BF55
:10461000002009B030BD1F480068FCF78BF8044645
:1046200022460B461CA101A802F01CFB012301AA93
:104630000C210020FFF767F91B4803881B480288FC
:104640001BA101A802F00EFB012301AA1A210020E0
:10465000FFF759F91B480023C35E1B480022825E06
:104660001AA101A802F0FEFA012301AA27210020C5
:10467000FFF749F9FFF730F8C3E7000020203C209E
:1046800020202020D7D42020BCEC20202020202057
:104690002020000014F0FF1FB8A9D1F6BDC73A25AD
:1046A0002D332E3266000000A0F0FF1F9EF0FF1F8A
:1046B0004144D7F320203A252D346420D3D23A2523
:1046C0002D3464009AF0FF1F98F0FF1FD7AACBD9B2
:1046D000D7F33A252D346420D3D23A252D34640003
:1046E000F0B5CDB001250026012400270A204C900A
:1046F000FEF7ACFEFF222D32774901A8FBF728FD1B
:10470000012301AA00210846FFF7FDF81E2060439F
:1047100001A9421801230D210020FFF7F4F8601CC5
:104720001E21484301A9421801231A210020FFF746
:10473000EAF8A01C1E21484301A9421801232721A1
:104740000020FFF7E0F8E01C1E21484301A94218B1
:10475000012334210020FFF7D6F800BF2E4627465C
:10476000FCF73AFE012806D002280DD0032817D006
:10477000042828D111E0681EC5B2012D01DA0920F4
:1047800000E0284605461EE0681CC5B2092D01DD83
:10479000012000E02846054615E000204DB0F0BDA0
:1047A000012D06D0022D06D0032D06D0042D08D1F0
:1047B00005E01F20F2E72020F0E72120EEE70520AA
:1047C000ECE70020EAE700BFA54201DA284600E056
:1047D00020460446E81EA04200DD00E02046C4B2A8
:1047E000AE421FD001200C2320221946009018460B
:1047F000FEF798FF01200C23202219210090184673
:10480000FEF790FF01200C2320222621009018465D
:10481000FEF788FF01200C23202232210090184649
:10482000FEF780FFA74226D01E20604301A9421850
:1048300001230D210020FFF766F8601C1E2148436C
:1048400001A9421801231A210020FFF75CF8A01CDF
:104850001E21484301A94218012327210020FFF708
:1048600052F8E01C1E21484301A9421801233421BB
:104870000020FFF748F8A54208D101200C23402270
:10488000194600901846FEF74DFF22E0601C854255
:1048900008D101200C234022192100901846FEF770
:1048A00041FF16E0A01C854208D101200C234022C4
:1048B000262100901846FEF735FF0AE0E01C8542ED
:1048C00007D101200C234022322100901846FEF728
:1048D00029FFFEF701FF41E7C4B70000F0B58BB038
:1048E000FEF7B4FD00BFA6480068FBF734FD07469D
:1048F000A449FBF7E7FC0446FBF71CFF05462A46E4
:104900000B46A1A103A802F0ADF901200C2303AAD4
:104910001B2100900020FEF7D9FF9D480068FBF79F
:104920001AFD9C490290FBF790FC07469A49FBF759
:10493000C9FC0446FBF7FEFE05462A460B4697A136
:1049400003A802F08FF901200C2303AA282100906C
:104950000020FEF7BBFF8E480068FBF7FCFC8D498A
:104960000090FBF772FC8C490190FBF7ABFC0290C6
:1049700083480068FBF7EFFC82490190FBF7A2FC3B
:1049800007460299FBF79EFC0446FBF7D3FE05465B
:104990002A460B4683A103A802F064F901200C23E8
:1049A00003AA352100900020FEF790FF01200C2380
:1049B0007EA2002100900620FEF788FF7C48808CB4
:1049C0003030C2B2012300213720FEF729FF78489A
:1049D000808E002804D0012807D002280FD109E0DA
:1049E00074A103A802F03EF909E074A103A802F043
:1049F00039F904E073A103A802F034F900BF00BF45
:104A0000012303AA30216220FEF77DFF6848808CD5
:104A1000052801DB052001E06548808C6449888415
:104A2000FCF7DAFC030002F048F906A604346470CF
:104A300076A65F48808C401C81B25D488184808C62
:104A4000052801DB052001E05948808C58498884FD
:104A50000846808C5D490880002009E04100FF2263
:104A60005202891809884200594B9952411C88B258
:104A7000FF28F3DD554801884D488184FF20FCF76D
:104A800065FB0023012252025149FF20FCF790FBF5
:104A900071E04748808C002801D1012001E04448A2
:104AA000808C434988840846808C401E81B24048EF
:104AB0008184808C45490880002009E04100FF2264
:104AC0005202891809884200414B9952411C88B210
:104AD000FF28F3DD3D48018835488184FF20FCF73D
:104AE00035FB0023012252023949FF20FCF760FB0D
:104AF00041E02F49888CFCF76FFA002802D0012092
:104B00000BB0F0BDFDF73CFD35E00020204908600A
:104B10001B490860F4E72648808E401C81B2244877
:104B20008186808E022801DD002001E02048808EF1
:104B30001F4988860846808E24490880002009E0A5
:104B40004100FF225202891809884200204B9952E5
:104B5000411C88B2FF28F3DD1C4801881448818677
:104B6000FF20FCF7F3FA0023012252021849FF202C
:104B7000FCF71EFB00BF00BFFEF7AEFDB3E6000072
:104B8000C8F0FF1F00A0AF4573252D2E3266000030
:104B9000C4F0FF1F0000A04000007A4474252D2EB1
:104BA0003266000076252D2E326600003C000000A3
:104BB00024FBFF1FC6D5CDA83E000000D4A4C8FC2E
:104BC0003E000000BEF6C8FC3E00000004F0FF1FDF
:104BD000A4F9FF1FF0B58BB0FEF738FC01231EA22D
:104BE00000210846FEF78FFE00BFFCF7F5FB042806
:104BF00002D103200BB0F0BD1D480068FBF79AFD01
:104C000004460D461B480068FBF794FD06463246F5
:104C10000B4619A103A80195009402F023F8012086
:104C20000C2303AA142100900020FEF74FFE174822
:104C30000023C35E16480022825E16A103A802F07C
:104C400011F801200C2303AA212100900020FEF777
:104C50003DFEFEF741FDC8E7203C20202020CDD3BB
:104C60002020C2DD2020D2C72020202020200000CC
:104C70001CF0FF1F14F0FF1F503A25332E32662020
:104C8000202020593A25332E3266000008F0FF1FFD
:104C900006F0FF1F4720583A202535642020593A56
:104CA000202535642000000038B501240025FEF7DA
:104CB000CDFB012389A203210020FEF724FE8D48AD
:104CC000408C012801DA052001E08A48408C89499E
:104CD00048840846408C052801DD012001E0854814
:104CE000408C84494884FFF71DFB012382A22321C5
:104CF0000020FEF708FE012385A233210020FEF7E5
:104D000002FE00BF2546FCF767FB030001F0D5FF5C
:104D10000691040D16295D91601EC4B2012C01DAC2
:104D2000042000E02046044684E0601CC4B2042C49
:104D300001DD012000E0204604467BE0012C06D086
:104D4000022C06D0032C06D0042C08D105E001204B
:104D500038BD0220FCE70320FAE70420F8E7002032
:104D6000F6E7022C30D16348408C401E81B2614886
:104D70004184408C012801DA052001E05D48408C27
:104D80005C4948840846408C67490880002009E057
:104D90004100FF225202891809884200634B995250
:104DA000411C88B2FF28F3DD5F48018851484184E7
:104DB000FF20FCF7CBF90023012252025B49FF20C0
:104DC000FCF7F6F9FFF7AEFA34E0022C30D149488F
:104DD000408C401C81B247484184408C052801DD4D
:104DE000012001E04348408C424948840846408CF9
:104DF0004D490880002009E04100FF225202891835
:104E000009884200494B9952411C88B2FF28F3DDC2
:104E10004548018837484184FF20FCF797F9002373
:104E2000012252024149FF20FCF7C2F9FFF77AFA4A
:104E300000E000BF00BFA5421FD001200C232022AC
:104E4000032100901046FEF76DFC01200C23202268
:104E5000132100901046FEF765FC01200C23202250
:104E6000232100901046FEF75DFC01200C23202238
:104E7000332100901046FEF755FC012C06D0022C81
:104E80000DD0032C14D0042C24D11AE001200C23C3
:104E90004022032100902020FEF744FC1AE001206C
:104EA0000C234022132100902020FEF73BFC11E050
:104EB00001200C234022232100902020FEF732FC09
:104EC00008E001200C234022332100902020FEF72F
:104ED00029FC00BF00BFFEF7FFFB13E720202020C6
:104EE00020202020B7A220B3B52020202020202081
:104EF0002020000024FBFF1F202020202020202035
:104F0000CDE220C9E8202020202020202020000001
:104F10002020202020202020C9E820D6C3202020C7
:104F2000202020202020000004F0FF1FA4F9FF1FF4
:104F3000F0B5F84B9D4401250021F7486844816194
:104F40000126416101612521C160F448408C401E69
:104F50002821484384B2FEF779FAF148684401F009
:104F600069F90123EE4A6A4400210846FEF7CBFCAA
:104F70001E207043EA496944421801230D21002094
:104F8000FEF7C1FC701C1E214843E54969444218E4
:104F900001231A210020FEF7B6FCB01C1E21484355
:104FA000DF4969444218012327210020FEF7ABFCAA
:104FB000F01C1E214843DA49694442180123342178
:104FC0000020FEF7A0FC00BFD3486844856146611D
:104FD000FCF702FA030001F070FE060C040DFB164C
:104FE0001B0C681EC5B2012D01DA242000E0284602
:104FF000054627E3681CC5B2242D01DD012000E031
:1050000028460546F5E70020C34B1C339D44F0BD00
:10501000002010E000210AE0C200C24BD218525C0E
:10502000C300FFAF3837DB195A544A1CD1B20829E4
:10503000F2DB411CC8B28028ECDB0121FFA84163F0
:1050400000210163E4E20120382347221721009068
:105050001E20FEF761FAFFA8406B012802D002284B
:105060003AD11CE00123B0A21A212120FEF74BFC0B
:10507000002019234422194600902120FEF74CFA03
:10508000002026234422194600902120FEF744FAEE
:105090000023A7A229212120FEF735FC1CE00023D4
:1050A000A1A21A212120FEF72EFC0123A0A2292172
:1050B0002120FEF728FC00202823442219460090D6
:1050C0002120FEF729FA00203523442219460090BA
:1050D0002120FEF721FA00BF00BFFCF77DF9030095
:1050E00001F0EBFD060704080CFD0D070120FFA9E8
:1050F00048638AE20220FFA9486386E200BF0020DD
:10510000099013E000200BE00999C900854A89182D
:105110000A5C0999C9000BABCB181A54411CC8B2E0
:105120000828F1DB0998401CC1B209910998802830
:10513000E8DB012700210A9144E2FFA8406B012827
:1051400047D12F236E220E2100904520FEF7E4F96F
:10515000012F02D0022F3AD11CE0012376A21121A7
:105160004820FEF7D0FB002010236B221946009048
:105170004820FEF7D1F900201D236B22194600902C
:105180004820FEF7C9F900236DA220214820FEF730
:10519000BAFB1CE0002368A211214820FEF7B3FBF4
:1051A000012367A220214820FEF7ADFB00201F232A
:1051B0006B22194600904820FEF7AEF900202C2300
:1051C0006B22194600904820FEF7A6F900BF3AE18D
:1051D00039E2FFA8406B0228F9D101203F237A224F
:1051E000014600904520FEF797F94C48408C03009B
:1051F00001F063FD066804182C40546852A101A810
:1052000001F030FD53A103A8013001F02BFD54A1A2
:1052100005A8023001F026FD54A107A8033001F0D3
:1052200021FD4FE054A101A801F01CFD49A103A8F4
:10523000013001F017FD4AA105A8023001F012FD6E
:105240004AA107A8033001F00DFD3BE04AA101A8E7
:1052500001F008FD3CA103A8013001F003FD40A1CD
:1052600005A8023001F0FEFC40A107A8033001F0C0
:10527000F9FC27E040A101A801F0F4FC32A103A849
:10528000013001F0EFFC33A105A8023001F0EAFC87
:1052900036A107A8033001F0E5FC13E036A101A810
:1052A00001F0E0FC28A103A8013001F0DBFC29A1FA
:1052B00005A8023001F0D6FC29A107A8033001F0AF
:1052C000D1FC00BF00BF002301AA04214820FEF743
:1052D0001AFB002303AA01321321482000E090E1C9
:1052E000FEF711FB002305AA023222214820FEF717
:1052F0000AFB002307AA033231214820FEF703FBF3
:10530000012F3FD0022F54D0032F6AD0042F4FD14A
:105310007FE0000064F3FFFF800C000024FBFF1F10
:1053200034080000F0F0FF1F20C7E5BFD5200000C3
:1053300020B8B4D6C620000020B5B1C7B020000008
:1053400020CBF9D3D020000020B7BDB0B8B6FE20E6
:105350000000000020B7BDB0B8C8FD20000000006C
:1053600020B7BDB0B8CBC4200000000020B7BDB04E
:10537000B8CEE5200000000020B7BDB0B8D2BB20F9
:1053800000000000012301AA04214820FEF7BBFA17
:10539000002003237722194600904820FEF7BCF82E
:1053A000002010237722194600904820FEF7B4F819
:1053B00047E0012303AA013213214820FEF7A3FA94
:1053C000002012237722194600904820FEF7A4F807
:1053D00000201F237722194600904820FEF79CF8F2
:1053E0002FE0012305AA023222214820FEF78BFA82
:1053F000002021237722194600904820FEF78CF8E0
:1054000000202E237722194600904820FEF784F8CA
:1054100017E0012307AA033231214820FEF773FA6F
:10542000002030237722194600904820FEF774F8B8
:1054300000203D237722194600904820FEF76CF8A3
:1054400000BF00BF00BFFBF7C7FF030001F035FC42
:1054500006B704132522B6B7FFA8406B012801D177
:10546000012707E0781EC7B2012F01DA012000E012
:1054700038460746A3E0FFA8406B012801D1022768
:1054800007E0781CC7B2042F01DD042000E0384695
:10549000074694E001200A9091E0F948408CB84218
:1054A00001DD099702E0781CC1B20991FFA8406BA9
:1054B0000A214843C019162850D006DC0B2809D011
:1054C0000C2826D0152876D147E0172847D0182871
:1054D00071D145E0002009E04100FF225202891805
:1054E00009884200E74B9952411C88B2FF28F3DD3E
:1054F0000021681E00194000E24A1152FF20FBF70C
:1055000025FE002301225202DE49FF20FBF750FE58
:1055100051E0002009E04100FF2252028918098869
:105520004200D84B9952411C88B2FF28F3DD00207D
:1055300006E0002122185200D24B9952411CC8B2F9
:105540002828F6DBFF20FBF701FE00230122520290
:10555000CC49FF20FBF72CFE2DE000BF00BF00BFB1
:10556000002009E04100FF22520289180988420008
:10557000C44B9952411C88B2FF28F3DD00200DE096
:105580000999491E2822514309184900BD4A515A18
:1055900022185200BB4B9952411CC8B22828EFDB9D
:1055A000FF20FBF7D3FD002301225202B549FF2063
:1055B000FBF7FEFD00BF00BF022025E500BF00BFD6
:1055C000FEF78AF80A98012800D0B6E50020099075
:1055D00013E000200BE00999C9000BAA89180A5CA6
:1055E0000999C900A84BCB181A54411CC8B2082805
:1055F000F1DB0998401CC1B2099109988028E8DBC9
:1056000003E00120FFA9086300BF00BFFEF764F8B4
:10561000FFA8006B012800D015E5002010E0002154
:105620000AE0C200FFAB3833D218525CC300964F79
:10563000DB195A544A1CD1B20829F2DB411CC8B20A
:105640008028ECDBA8E12B0001F037FB251C141DA2
:1056500027313B454F59636E78828C96A0AAB4BE21
:10566000C8D3DEF8F6F5F4F3F2F1F0EFEEEDECEB83
:10567000EAE91C00600083494218012331462846AC
:10568000FEF752FC86E1601C40007E49421801236F
:1056900031462846FEF748FC7CE1A01C40007949D1
:1056A0004218012331462846FEF73EFC72E1E01C19
:1056B000400074494218012331462846FEF734FC65
:1056C00068E1201D40006F494218012331462846F9
:1056D000FEF72AFC5EE1601D40006A494218012382
:1056E00031462846FEF720FC54E1A01D40006549E4
:1056F0004218012331462846FEF716FC4AE1E01D18
:10570000400060494218012331462846FEF70CFC50
:1057100040E12046083040005A49421801233146F2
:105720002846FEF701FC35E1204609304000554986
:10573000421831462846FEF74BFB2BE120460A3043
:1057400040005049421831462846FEF741FB21E10E
:1057500020460B3040004B49421831462846FEF7A0
:1057600037FB17E120460C304000464942183146CD
:105770002846FEF72DFB0DE120460D304000414943
:10578000421831462846FEF723FB03E120460E303F
:1057900040003C49421831462846FEF719FBF9E023
:1057A00020460F3040003749421831462846FEF760
:1057B0000FFBEFE0204610304000324942183146DE
:1057C0002846FEF705FBE5E02046113040002D4954
:1057D000421831462846FEF7FBFADBE0204614303B
:1057E000400028494218012331462846FEF79CFB19
:1057F000D0E02046153040002249421801233146AE
:105800002846FEF791FBC5E02046163040001D49B2
:105810004218012331462846FEF786FBBAE0AEE087
:10582000A2E096E08AE07EE072E066E05AE04EE0B8
:1058300042E036E02AE017E00BE0FFE720461730B1
:10584000400010494218012331462846FEF76CFB00
:10585000A0E02046183040000A4942180123314692
:105860002846FEF761FB95E02046193040000549C7
:105870004218012331462846FEF756FB8AE0000015
:1058800024FBFF1FA4F9FF1FF0F0FF1F20461A3072
:10589000400092494218012331462846FEF744FB56
:1058A00078E020461B3040008C49421801233146E5
:1058B0002846FEF739FB6DE020461C304000874942
:1058C0004218012331462846FEF72EFB62E02046AF
:1058D0001D30410081480A18012331462846FEF751
:1058E00023FB57E020461E3040007C49421801232C
:1058F00031462846FEF718FB4CE020461F3040009A
:1059000076494218012331462846FEF70DFB41E057
:105910002046203040007149421801233146284674
:10592000FEF702FB36E02046213040006B4942186A
:10593000012331462846FEF7F7FA2BE020462230B5
:10594000400066494218012331462846FEF7ECFA2A
:1059500020E02046233040006049421801233146B0
:105960002846FEF7E1FA15E02046243040005B4966
:105970004218012331462846FEF7D6FA0AE02046AF
:105980002530400055494218012331462846FEF78C
:10599000CBFA00BF00BF00BF00BFB54201DA284606
:1059A00000E030460646E81EB04200DD00E030462A
:1059B000C6B24B4868448069A84204D1484868444C
:1059C0000069012827D101200C23202219460090CC
:1059D0000620FDF7A7FE01200C23202219210090AC
:1059E0000620FDF79FFE01200C2320222621009097
:1059F0000620FDF797FE01200C2320223221009083
:105A00000620FDF78FFE3748684400F013FC0020A5
:105A1000334969440861324868444069B0422AD039
:105A20001E2070432F496944421801230D21002094
:105A3000FDF769FF701C1E2148432A49694442183A
:105A400001231A210020FDF75EFFB01C1E214843F0
:105A5000244969444218012327210020FDF753FF00
:105A6000F01C1E2148431F49694442180123342178
:105A70000020FDF748FFB54208D101200C23402249
:105A8000194600900620FDF74DFE22E0701C85426D
:105A900008D101200C234022192100900620FDF797
:105AA00041FE16E0B01C854208D101200C234022A3
:105AB000262100900620FDF735FE0AE0F01C854205
:105AC00007D101200C234022322100900620FDF74F
:105AD00029FEFDF701FEFFF777FA0000A4F9FF1F8A
