:020000040000FA
:10000000580B0020D7000000E3000000E5000000CE
:1000100000000000000000000000000000000000E0
:10002000000000000000000000000000E7000000E9
:100030000000000000000000E9000000EB000000EC
:10004000ED000000ED000000ED000000ED000000FC
:10005000ED000000ED000000ED000000ED000000EC
:10006000ED000000ED000000ED000000ED000000DC
:10007000ED000000ED000000ED000000ED000000CC
:10008000ED000000ED000000ED000000ED000000BC
:10009000ED000000ED000000292400006D240000A8
:1000A000ED000000ED000000ED000000ED0000009C
:1000B000ED000000ED000000ED000000ED0000008C
:1000C0000348854600F0CCFB00480047294C00005F
:1000D000580B00207047064880470648804706486E
:1000E0000047FEE7FEE7FEE7FEE7FEE7FEE700006B
:1000F0007D260000D5000000C100000030B50B4691
:10010000014600202022012409E00D46D5409D42F1
:1001100005D31D469540491B254695404019154677
:10012000521E002DF1DC30BD70B50024254600289C
:1001300001DA01244042002901DA01254942FFF792
:10014000DDFFAC4200D04042002C00D0494270BDDF
:1001500003460B439B0703D009E008C9121F08C0E0
:10016000042AFAD203E00B780370401C491C521E8B
:10017000F9D27047D2B201E00270401C491EFBD296
:1001800070470022F6E710B513460A4604461946A2
:10019000FFF7F0FF204610BD70B502464A40D50F6C
:1001A00040004A00ED0740085208002814D0002AF9
:1001B00012D0C40DD30D41020120C0055202490ADC
:1001C000520AE41A091812187D34914201D3641CB2
:1001D00000E04900002C01DA002070BD00239142AC
:1001E00001D3891A0343400849000028F7D10029A8
:1001F0000AD0914202D10121C90705E0914201D202
:10020000012101E00121C943E005C018401900F0B7
:1002100066FA70BDF0B507460846584087B0C00F73
:10022000049048000E46590040084908BC1A88410D
:1002300005D2384631461E4617460B460246580040
:10024000400810434CD0300D039040055900400D3C
:10025000490D0590401A0290402872DA18030121D6
:10026000000B09050843019004980092002805D06E
:100270000199524200208841009201900298402149
:100280000A1A0199009800F0ABF805460C466B4637
:1002900007CB00F011FAC0197141039A0E0D00232B
:1002A000D71756401A467A40164344D0049A002A7B
:1002B0002DD0029A012A039A15DC1205C01A914129
:1002C00001263605001C7141D20F059ED20700930E
:1002D000019202962A46234600F04FFA07B0F0BD7D
:1002E00038463146FAE71605224A0F46B218C01AB8
:1002F000B74101210905001C4F4100187F411146FB
:1003000018187941E20F10436D19644113E0E207B8
:100310006D0815436408C2071443039A01261205A9
:10032000C01A91413605001C7141CE074008304388
:100330004908C01851412A46234600F011FACDE77A
:10034000FFE7049801224000C117121A00238B41D5
:1003500004983146C417381AA141EEE730B401249D
:10036000E407634030BC55E730B40124E407614042
:1003700030BC4FE70000E0FFC217C10F504010B57E
:100380004018CA079623002100F0B1F910BD10B53E
:1003900000229623114600F0AAF910BD0EB5C2172F
:1003A000C10F5040CA0740180021054B029301922B
:1003B00000910A460B4600F0E0F903B000BD0000D2
:1003C000330400000EB505490291002100910A4650
:1003D0000B46019100F0D1F903B000BD33040000D9
:1003E00010B5202A04DB0146203A9140002010BDC0
:1003F000914020239C1A0346E3401943904010BDCE
:10040000FFFFFFFFFFFFFFFFFFFFFFFFFFFFFEFEFE
:10041000F0B51FB488B00B99099800244840099999
:10042000C00F490049080991C0070B990090490085
:1004300049080B9109990898A64608431CD00B99C6
:100440000A98084318D0099801244000420D48003A
:10045000410D099824050003000B204309900B98D7
:100460000003000B20430B9050181C494018002239
:1004700001901446104605E0002001460DB0F0BD85
:10048000032801DA034600E003239C46C11A0AAEA2
:100490000AE05F0008ADED5B4F00F75B7D4300278E
:1004A000AA187C41491C5B1E6145F2DD410004AB8A
:1004B0005A522104120C0A43240C401C0828DFDB8A
:1004C000019802900099704601910090059B049A52
:1004D0000799069800F051F9D0E700000DFCFFFFE6
:1004E000F0B50C465C4085B0E40FE40703944C0083
:1004F00000266408590094464908024602962243A1
:1005000021D062460A431ED06200570D4A000E03F6
:100510002303550D012402462C492405781B1B0B8F
:10052000360B401823432643614600901C46501A60
:10053000B44103D30098401C009002E09218009848
:100540005B41002803DA0020014605B0F0BD002021
:10055000012109050746864611E064461D46141B25
:10056000B54106D36546521BB341744607430C435D
:10057000A646CD0740084908284392185B41054626
:100580000D43EAD11046184313D060461946504037
:100590007140084306D06046101AB34106D20122CA
:1005A000002306E000220123DB0702E00122D24300
:1005B0005310009874460105381C6141029C039D4C
:1005C0000019694100F0CCF8BFE70000FD0300000E
:1005D000C20FD207400040080BD0C10D0723DB013A
:1005E000C91840020905400A1143C20840071143D7
:1005F000704700200146704710B5002904DB012434
:10060000E40740428C412146002B04DB1C460123B9
:10061000DB075242A341994200D1904210BD000035
:10062000CB0FDB07490010B5490802460A4307D043
:100630000A0D07240903E401090B121B002A01DC3F
:10064000002010BDC900440F0C43C100E018D205C2
:10065000801800F044F810BDF0B51FB40646002025
:1006600082B005464024019100901BE0019922468A
:100670000F46304600F006F9049A059B801A99410E
:1006800010D3104619462246FFF7AAFE361A8F41AC
:100690000197224601200021009FFFF7A1FE381894
:1006A0004D4100902046641E0028DFDC019B00982D
:1006B0002946324607B0F0BD10B5202A06DBCB171D
:1006C0000846203A1041C1170B4306E00B46134180
:1006D000D0402024A21A91400843194610BD002999
:1006E00004DA401C490001D140084000704770B452
:1006F0000024050C05D11024000402D1002921D0CA
:100700001124050E01D100020834050F01D10001AA
:10071000241D850F01D18000A41C002801DB4000AE
:10072000641C002908D020252E1B0D46F540A14051
:1007300000D001212943084301061B1B000ADB1DD1
:1007400002D5002070BC7047DB05181880180029FE
:10075000F8DA401C4900F5D170BC400840007047F1
:1007600010B5002B08DA0024401C614192185B414F
:100770001A4301D14008400010BDF0B51FB482B04B
:1007800005460C0003D0084603F0BEFD02E003F06E
:10079000BBFD20300246009021462846FFF720FE90
:1007A000049B059A04460F4618431143084314D08E
:1007B000184610431BD0009840210A1A1846059984
:1007C00000F060F805460E46009A05990498FFF778
:1007D00007FE084305D0012004E02046394607B053
:1007E000F0BD0020C11705430E432C433743009949
:1007F0000E986305401A7905E40A00220C43FD0AAD
:100800000A3002D500200146E9E7010510196941C7
:100810000C9C0D9D00196941FFF7A2FFDFE7000066
:100820004A0009030123090B1B0519430A4B10B5A4
:10083000520D9A4202DA0020014610BD064B3433B5
:100840009A4203DC9A1A00F01DF810BD034BD2182F
:10085000FFF7C6FD10BD0000FF030000CDFBFFFF4A
:10086000064C0125064E05E0E36807CC2B430C3C03
:1008700098471034B442F7D3FFF726FCD04A010062
:10088000F04A010010B5202A04DB0846203AD04087
:10089000002110BD0B46D340D0402024A21A914025
:1008A0000843194610BD000010B500F037F800F0FD
:1008B00041FA00F0D3F900F021F8322000F0E0F91D
:1008C0000D4880680121490208430B4988604B218B
:1008D000C901012001F002FF00F00EFE01F0F6FA5E
:1008E00000220821104601F0CBFD00F065FD01F06B
:1008F0006FFA01F091FA10BD00F00F400548408AF0
:10090000012806D1044840680121490208430249F0
:1009100048607047D6FAFF1F00F00F400648406954
:100920000121490208430449486108468068491585
:10093000084301498860704700F00F40F0B589B066
:1009400006460F461546287844B200BFA1B202A859
:1009500000F03EFB00200090F01B401C0D22504395
:10096000C1B20C2302AA6C2001F072FC002001909D
:1009700000F050FA012806D0022807D0032808D03A
:10098000042830D12AE0601C44B22CE0601E44B23E
:1009900029E0012001903046C73027490880288887
:1009A00009884900254A5052002009E04100FF22F1
:1009B0005202891809884200204B9952411C88B282
:1009C000FF28F3DD2C80FF2000F09CF9002301229A
:1009D00052021A49FF2000F0C7F904E0287844B217
:1009E0000120019000BF00BF012C01DD002000E0CC
:1009F00020460446002C01DA012000E0204604468F
:100A00000198012812D1A1B202A800F0E1FA012058
:100A10000090F01B401C0D225043C1B20C2302AACF
:100A20006C2001F015FC01F019FB02E001F016FB4F
:100A30008CE700BF09B0F0BDC0F0FF1F56F9FF1FE3
:100A4000F0B58BB006460F461546288804B26748B5
:100A5000844200DD00E020460446012C01DA01203A
:100A600000E02046044600BF224661A104A803F02E
:100A700037FC00200090F01B401C0D225043C1B2F7
:100A80000C2304AA662001F0E3FB0020039000F091
:100A9000C1F9030003F04FFC068B040D1632378BAF
:100AA000601C04B25148844200DD00E02046044648
:100AB0007DE0012C01DA012000E020460446601EA2
:100AC00004B274E001200390002009E04100FF22FD
:100AD0005202891809884200474B9952411C88B23A
:100AE000FF28F3DD2C80FF2000F00CF90023012209
:100AF00052024149FF2000F037F958E001200390ED
:100B0000288804B253E00020029000BF3B480088D0
:100B1000201804B23548844200DD00E02046044637
:100B2000002C01DA002000E02046044600F072F9B3
:100B3000032806D0042820D1288804B2012002907E
:100B40001BE0002009E04100FF22520289180988B9
:100B50004200294B9952411C88B2FF28F3DD2C80BA
:100B6000FF2000F0CFF80023012252022249FF208B
:100B700000F0FAF80120029000BF00BF224620A139
:100B800004A803F0ADFB00200090F01B401C0D22D8
:100B90005043C1B20C2304AA662001F059FB01F0B6
:100BA0005DFA02980028B1D000BF00BF00BF00BFAF
:100BB0000398012813D122460DA104A803F090FB4D
:100BC00001200090F01B401C0D225043C1B20C23A9
:100BD00004AA662001F03CFB01F040FA02E001F0BB
:100BE0003DFA41E700BF0BB0F0BD00000F27000049
:100BF000253464200000000056F9FF1F7AF0FF1F23
:100C0000253464230000000070B5054601F0E0F8CB
:100C1000ECB21AE064201049088020463030C2B29D
:100C200001230021282001F0BDFA01F017FA012C60
:100C300004D14B20C00000F023F804E0AF20800076
:100C400000F01EF800BF601EC4B2002CE2D1FF20ED
:100C50002D300149088070BD00F0FF1F002009E021
:100C60004100FF225202891809884200034B995221
:100C7000411C88B2FF28F3DD7047000056F9FF1FC2
:100C800010B5034600240DE0084800F011F800BF3D
:100C900000BF00BF00BF00BF00BF00BF00BF00BF5C
:100CA000601C84B29C42EFD310BD0000E70300003B
:100CB000002123E000BF00BF00BF00BF00BF00BF96
:100CC00000BF00BF00BF00BF00BF00BF00BF00BF2C
:100CD00000BF00BF00BF00BF00BF00BF00BF00BF1C
:100CE00000BF00BF00BF00BF00BF00BF00BF00BF0C
:100CF00000BF00BF00BF00BF4A1C91B242008A4241
:100D0000D8D8704770B505466C0200200849487075
:100D10000A2048722002000E087201204870200448
:100D2000000E48720C7200F057F8002070BD0000F1
:100D3000000002400A494969012212031143084A8E
:100D4000516100BF07494979802211400029F9D03B
:100D5000272001464031034AD1703021517170473C
:100D60000080044000000240FFB581B007460C46F9
:100D7000790204980D1804260020009023E000203A
:100D800014494870062048722802000E087201209B
:100D900048702804000E4872FC2028400872022087
:100DA0004870207808726078487203204870A078F4
:100DB0000872E0784872A419AD1900F00DF8009897
:100DC000801980B20090039900988842D7D3002000
:100DD00005B0F0BD0000024010B572B630200A49DF
:100DE00048710A480A4908600748401D0968884751
:100DF00062B60548407933210840002801D001201F
:100E000010BD0020FCE7000000000240C3F0FF1FFF
:100E1000D0F0FF1F08B500200090694800698021CC
:100E20000840002835D167480078FFF729FF64485B
:100E3000006980210840002828D163480088401CB0
:100E40006149088008460088142803DD01205D49B7
:100E5000087016E05C4800880A2803DD0A2059491A
:100E600008700EE058480088052803DD1E2055490B
:100E7000087006E054480088032802DD2820514904
:100E800008700120009008205049088068460078CA
:100E900008BD4B48006940210840002835D1494829
:100EA0000078FFF7EDFE4648006940210840002821
:100EB00028D145480088401C4349088008460088DE
:100EC000142803DD01203F49087016E03E480088E1
:100ED0000A2803DD0A203B4908700EE03A480088E2
:100EE000052803DD1E203749087006E036480088D3
:100EF000032802DD282033490870022000900820D2
:100F00003249088068460078C2E72D4840300069C1
:100F100010210840002812D12A480078FFF7B0FEBF
:100F200027484030006910210840002804D10820DB
:100F3000264908800320009068460078A8E72048EA
:100F400040300069012189020840002813D11D4862
:100F50000078FFF795FE1A484030006901218902A8
:100F60000840002804D10820184908800420009077
:100F7000684600788CE71248403000690121490238
:100F80000840002813D10F480078FFF779FE0C487D
:100F900040300069012149020840002804D108209E
:100FA0000A490880052000906846007870E76420B0
:100FB0000449087000200449088000BF68E7000069
:100FC00000F00F4004F0FF1F02F0FF1F00F0FF1FB2
:100FD00070B505460C46002C02D0012C0AD104E065
:100FE00008A1284603F07CF909E007A1284603F090
:100FF00077F904E005A1284603F072F900BF00BFAD
:1010000070BD00004F4646004F4E20003F3F3F005E
:10101000F0B587B000F0DCFECF4840680121C90779
:101020000843CD4948600846406801214904084307
:10103000C94948600120C94908700020C8490860B2
:10104000C8490860002500F0D9FEC748408C401E02
:101050002821484384B26000C449085AC449088022
:10106000601C4000C149085AC2490880A01C4000C9
:10107000BE49085AC0490880E01C4000BB49085AD4
:10108000BE490880201D4000B849085ABC49088064
:10109000601D4000B549085ABA490880A01D4000AB
:1010A000B249085AB8490880E01D4000AF49085AC3
:1010B000B6490880204608304000AC49085AB44977
:1010C000088047E1232D01D1002000E02846054695
:1010D0000F2D47D006DC002D0BD0052D24D00A2D76
:1010E0007FD134E0142D49D0192D53D01E2D78D145
:1010F00064E09948403040680221084396494031F5
:10110000486008464068012149040843924940313B
:101110004860084640680121090408438E4940316F
:10112000486000F015FA5CE08B48403040680221CE
:101130000843894940314860084640680121490414
:10114000084385494031486000F02EFA49E0824862
:1011500040304068022108437F494031486000F038
:10116000A3F93EE07C48403040680121490408432F
:1011700079494031486000F087F932E076484030E4
:10118000406801210904084373494031486000F078
:101190009BF926E07048403040680121490408432B
:1011A0006D49403148600846406801210904084300
:1011B00069494031486000F0E1F912E0664840308A
:1011C000406802210843644940314860084640684D
:1011D00001210904084360494031486000F0F4F9F6
:1011E00000BF00BF681CC5B200265F48C08C012844
:1011F00013D16849885FFF212D3188420CDC654995
:10120000885F6549884207DB64480088642803DBFF
:1012100063480088642800DA01265348008D0028BE
:1012200008D04F480068C1004F48008D0A22504343
:1012300081421DD84C48408D002823D04A49488D12
:10124000FFF7A5F80746FFF7C3F9564A564B019139
:101250000090FFF7DDF80591049042480068FFF721
:10126000B1F803910290059B049AFFF7C5F909D2E2
:1012700001204E490870002038490870C820FFF747
:10128000FFFC0126FFF7C6FD002801D1002E01D08A
:10129000012000E00020002800D132E000202F498A
:1012A00008702D4880680121C90708432A498860D1
:1012B00008468068012149040843274988600020C6
:1012C0003A490870244840304068022108432249C6
:1012D00040314860084640680121490408431E49DE
:1012E00040314860084640680121090408431A4912
:1012F0004031486000F090FD00F0E8FD002007B0AC
:10130000F0BD00BF23490020085EFFF735F82849EB
:10131000086028490020085EFFF72EF8244948603D
:101320001E480088FFF733F82149C8601C48008830
:10133000FFF72DF81E49086119490988174A1288D4
:10134000881AFFF719F81A49486101F0E7F801F027
:10135000F1F800BFB6E6000000F00F4099F0FF1F63
:101360009CF0FF1FA0F0FF1FD6FAFF1F56F9FF1FCA
:10137000A6F0FF1FA8F0FF1FAAF0FF1FACF0FF1F91
:10138000AEF0FF1FB0F0FF1FB2F0FF1FB4F0FF1F61
:10139000B6F0FF1F78F0FF1FD4FEFFFF6CF0FF1FB9
:1013A0006EF0FF1FCDCCCCCCCCCC4C40A4F0FF1FBA
:1013B000D4F8FF1F7AF0FF1F3148806980218843ED
:1013C0002F49886108464069802188432C4948613B
:1013D0002C488068802108432A4988602848806911
:1013E0004021884326498861084640694021884356
:1013F0002349486123488068402108432149886087
:101400001F4840308069102188431D494031886160
:1014100008464069102188431949403148611948FC
:10142000C068102108431749C860154840308069DA
:1014300009158843124940318861084640690915F9
:1014400088430F49403148610E48C0680915084378
:101450000C49C8600A4840308069491588430849EA
:101460004031886108464069491588430449403144
:1014700048610448C068491508430249C86070477C
:1014800000F00F40009004400548008A012806D172
:1014900004488068012109040843024988607047B4
:1014A000D6FAFF1F40F00F400548008A012806D1F8
:1014B0000448806801214904084302498860704754
:1014C000D6FAFF1F40F00F400948008A01280DD1CD
:1014D0000848806801214904084306498860084695
:1014E00080680121090408430249886070470000B0
:1014F000D6FAFF1F40F00F4014484069022108430C
:101500001249486108464068022108430F49486073
:10151000084640690121490408430C4948610846CE
:101520004068012149040843084948600846406969
:101530000121090408430549486108464068012122
:1015400009040843014948607047000040F00F401B
:101550000848008A01280CD1074880680221084306
:10156000054988600846806801214904084302490A
:1015700088607047D6FAFF1F40F00F400848008A85
:1015800001280CD10748806802210843054988607A
:1015900008468068012109040843024988607047B1
:1015A000D6FAFF1F40F00F400548008A012805D1F8
:1015B000044880680221084302498860704700009F
:1015C000D6FAFF1F40F00F400C48008A012813D1C3
:1015D0000B488068022108430949886008468068F2
:1015E00001214904084306498860084680680121B2
:1015F000090408430249886070470000D6FAFF1FBB
:1016000040F00F40FEB504460D4616466B460622D6
:101610003B21682000F0FAFA0746002F17D16846F0
:101620000078010268464078014308B2208068468D
:10163000807801026846C078014308B22880684675
:101640000079000269464979084300B23080384683
:10165000FEBDFEB504460D4616466B4606224321E6
:10166000682000F0D3FA0746002F17D168460078AB
:10167000010268464078014308B2208068468078BD
:1016800001026846C078014308B2288068460079A4
:10169000000269464979084300B230803846FEBDF1
:1016A000F0B585B004AB02224121682000F0AEFA0B
:1016B0006946087C0002497C084300B20390039805
:1016C000FEF76CFE04460022074BFEF709FF074AAF
:1016D000074B01910090FEF79DFD0646FEF7A0FF27
:1016E0000290029805B0F0BD00407540A4703D0A1C
:1016F000D743424010B520484069082108431E499D
:10170000486108468068082108431B4988600846EC
:10171000406904210843184948610846406804218B
:1017200008431549486008464069042108431249A6
:10173000486108468068042108430F49886000F02A
:101740001DF80D484069082108430B4948610846C7
:101750004068082108430849486000F00FF806482F
:101760004069082108430449486108468068082107
:1017700008430149886010BD00F00F4010B50220F9
:10178000FFF796FA10BD00000C4840690821084395
:101790000A494861084640680821084307494860EB
:1017A00008464069042108430449486108464068E6
:1017B00004210843014948607047000000F00F40D1
:1017C00010B520484069082108431E494861084671
:1017D0008068082108431B49886008464069042145
:1017E00008431849486108464068042108431549E0
:1017F0004860084640690421084312494861084688
:101800004068042108430F494860FFF7B7FF0D48BF
:101810004069082108430B4948610846406808218F
:10182000084308494860FFF7A9FF064840690821B6
:101830000843044948610846806808210843014973
:10184000886010BD00F00F4070B5054600242348A5
:101850008069042188432149886108464069042140
:1018600088431E4948611E488068042108431C497A
:101870008860002627E01948406908210843174975
:101880004861084680680821084314498860FFF7CA
:1018900075FF12484069082108431049486108460D
:1018A0004068082108430D4948606006040E084658
:1018B000006904210840002801D0601CC4B2FFF771
:1018C0005DFF701CC6B2082ED5DB002D02D1FFF7DC
:1018D00077FF01E0FFF70EFF204670BD00F00F40DC
:1018E0000090044070B504462D4840690421084327
:1018F0002B4948610846406804210843284948604C
:10190000084640690821084325494861084680681F
:10191000082108432249886000253DE080202040BE
:10192000C01100280CD11E484069042108431C49FD
:1019300048610846806804210843194988600BE023
:101940001748406904210843154948610846406822
:1019500004210843124948606006040E104840699B
:10196000082108430E494861084640680821084399
:101970000B494860FFF702FF094840690821084306
:10198000074948610846806808210843044988607F
:10199000FFF7F4FE681CC5B2082DBFDB70BD000068
:1019A00000F00F4010B520484069042108431E494B
:1019B000486108464068042108431B4948600846BE
:1019C00040690421084318494861084640680421D9
:1019D00008431549486008464069082108431249F0
:1019E000486108464068082108430F494860FFF7EE
:1019F000C5FE0D484069042108430B49486108466B
:101A000080680421084308498860FFF7B7FE06484C
:101A10004069082108430449486108468068082154
:101A200008430149886010BD00F00F4010B5204800
:101A30004069042108431E49486108464068042162
:101A400008431B4948600846406908210843184973
:101A5000486108468068082108431549886008469F
:101A600040690421084312494861084680680421FE
:101A700008430F498860FFF781FE0D48406908213F
:101A800008430B4948610846406808210843084953
:101A900048600846406904210843054948610846F2
:101AA00040680421084302494860FFF767FE10BD03
:101AB00000F00F4010B500242548806904218843B8
:101AC00023498861084640690421884320494861C8
:101AD00020488068042108431E4988601C484069EA
:101AE000042108431A494861084640680421084314
:101AF00017494860FFF742FE15484069082108432E
:101B00001349486108464068082108431049486065
:101B1000FFF734FE07E0601CC4B2FA2C03DDFFF7C8
:101B200085FF012010BD0A480069042108400028F3
:101B3000F1D1074840690821084305494861084632
:101B4000806808210843024988600020EAE7000015
:101B500000F00F400090044010B5FFF715FE802103
:101B60006B2000F0D4F86420FFF78AF800216B2086
:101B700000F0CDF8032000F087F8002000F07CF89A
:101B8000322000F0A6F80021382000F0C0F8002133
:101B90006A2000F0BCF80021232000F0B8F8802172
:101BA000372000F0B4F8752000F013F80446682CD4
:101BB0000BD101216B2000F0AAF800216C2000F06D
:101BC000A6F8C82000F085F801E0012010BD002033
:101BD000FCE770B50446FFF7E5FED020FFF782FE74
:101BE000FFF768FF2046FFF77DFEFFF763FFFFF773
:101BF000D9FED120FFF776FEFFF75CFF0020FFF74C
:101C000023FE0546FFF712FF284670BDF8B50646CD
:101C10000F4614461D46FFF7C5FE7106080EFFF776
:101C200061FEFFF747FF002803D0FFF7FFFE01200A
:101C3000F8BD3846FFF756FEFFF73CFFFFF7B2FE50
:101C40007100491CC8B2FFF74DFEFFF733FF0DE0EE
:101C5000012C04D10020FFF7F7FD287003E00120DC
:101C6000FFF7F2FD2870601EC4B26D1C002CEFD18E
:101C7000FFF7DCFE0020DBE710B50446E006010EAE
:101C80001C2000F044F810BD10B50446E006010E1B
:101C90001B2000F03CF810BD70B504460025BC2C9C
:101CA00001DB012510E0622C01DB02250CE02A2C6F
:101CB00001DB032508E0142C01DB042504E00A2CD9
:101CC00001DB052500E0062529461A2000F01FF853
:101CD00070BD70B504467D20C000844200DD04461E
:101CE000042C00DA042421467D20C000FEF71CFAF3
:101CF000401EC6B23146192000F009F806462546B6
:101D0000E10F4919C903080CFFF7C6FF70BD70B594
:101D100005460C46FFF746FED020FFF7E3FDFFF730
:101D2000C9FE002803D0FFF781FE012070BD2846C0
:101D3000FFF7D8FDFFF7BEFE2046FFF7D3FDFFF704
:101D4000B9FE002803D0FFF771FE0120EEE7FFF790
:101D50006DFE0020EAE7000010B5002819DA1A4AE3
:101D600003071B0F083B9B089B00D2588307DC0E20
:101D7000FF23A3409A438B071B0E8407E40EA34066
:101D80001A43114B0407240F083CA408A4001A515D
:101D900018E00E4A03231B02D21883089B00D25876
:101DA0008307DC0EFF23A3409A438B071B0E840797
:101DB000E40EA3401A43054B032424021B19840894
:101DC000A4001A5110BD00001CED00E000E100E08D
:101DD00010B500200CE0002106E00022CB00064CEC
:101DE0001B191A544A1CD1B28029F6DB411CC8B217
:101DF0000828F0DB10BD0000D4F0FF1F00B5002163
:101E00008D2000F0C7FA0021102000F0C3FA002155
:101E1000AE2000F0BFFA00BD00B500218D2000F01B
:101E2000B9FA0021142000F0B5FA0021AF2000F02B
:101E3000B1FA00BDF7B57F2801DC3F2900DDFEBD0A
:101E40000C46CE17760F3619F6100727BE1BF2B2D6
:101E5000CE17760F3619F610F6008E1BF5B2072452
:101E6000661B0124B440E3B2029C002C09D0C400DC
:101E7000094EA419A45C1C43C600074FF619B454BC
:101E800008E0C400044EA419A45C9C43C600024FA1
:101E9000F619B45400BFD2E7D4F0FF1FFFB50646D1
:101EA0000F4634460DE03D4606E029462046099A95
:101EB000FFF7C0FF681CC5B203988542F5DD601CC2
:101EC000C4B202988442EEDDFFBD000000B5624856
:101ED00040690121C90608435F49486108464068D6
:101EE0000121C90608435C49486008464069012150
:101EF0008906084358494861084640680121890617
:101F000008435549486054484030406989150843A2
:101F100051494031486108464068891508434E4997
:101F2000403148604C484069890508434A49486146
:101F300008464068012109070843474948600846A8
:101F4000406801210907084343494860424840303E
:101F50008068891508434049403188607D204001F0
:101F600007E0642101E04A1E91B20029FBDC411E1A
:101F700088B20028F5DC384840304068FF21013144
:101F800008433549403148600021AE2000F002FA94
:101F90000021D52000F0FEF90021802000F0FAF9A0
:101FA0000021A82000F0F6F900213F2000F0F2F90E
:101FB0000021D32000F0EEF90021084600F0EAF9F4
:101FC0000021402000F0E6F900218D2000F0E2F928
:101FD0000021142000F0DEF90021202000F0DAF9C1
:101FE0000021022000F0D6F90021A12000F0D2F952
:101FF0000021C02000F0CEF90021DA2000F0CAF95B
:102000000021122000F0C6F90021812000F0C2F961
:102010000021EF2000F0BEF90021D92000F0BAF92C
:102020000021F12000F0B6F90021DB2000F0B2F928
:102030000021302000F0AEF90021A42000F0AAF920
:102040000021A62000F0A6F90021AF2000F0A2F99F
:10205000FFF7BEFE00BD000000F00F4030B50024C9
:102060001CE02146B031C8B2002100F093F90021F4
:10207000084600F08FF90021102000F08BF90025B0
:1020800008E0E900074A8918085D012100F082F99B
:10209000681CC5B2802DF4DB601CC4B2082CE0DBE8
:1020A00030BD0000D4F0FF1FFFB584B00E461546CA
:1020B0001C4602962046E3175B0F1B18DB102246D6
:1020C000E7177F0FBF18FF10FF00E71B01D00127A4
:1020D00000E00027DB192146E70F7F187F107B43C4
:1020E000DBB2019328462038C5B200274FE00C2C04
:1020F00004D0102C09D0182C14D10CE00C2068430B
:1021000025494018C05D03900DE02801234940187F
:10211000C05D039007E02420684321494018C05D5A
:10212000039000E000BF00BF0020009029E0802164
:1021300003980840002805D031460D9A0498FFF70F
:1021400079FE0AE00D98002801D1012000E000206E
:10215000024631460498FFF76DFE03984006000ED4
:102160000390701CC6B20298301AA04205D1029E9C
:102170000498401CC0B2049006E00098401CC0B215
:10218000009000980828D2DB00BF781CC7B20198E5
:102190008742ACDB08B0F0BDCE3101004236010011
:1021A000323C0100FFB581B00646002407E0254817
:1021B000015D0398814200D103E0601CC4B2092C88
:1021C000F5DB00BF0394002438E000272BE0FF215B
:1021D0008131039848431C49411806206043C019C7
:1021E000085C009000251AE01848405D00990840FE
:1021F000002805D03046049A0299FFF71BFE0AE03A
:102200000498002801D1012000E000200246304659
:102210000299FFF70FFE701CC6B2681CC5B2082DEC
:10222000E2DB781CC7B2062FD1DB0298401CC0B29B
:10223000029030463038C6B2601CC4B2402CC4DBB9
:1022400005B0F0BDD24C0000620101008E490100D2
:10225000FFB581B0064614461D460A9F0DE0009763
:1022600022782B4630460299FFF71EFF2846E90FD9
:10227000091849108919CEB2641C20787E2802DC26
:1022800020782028EBDA05B0F0BDF8B505460F46FA
:1022900014461E461FE02078002800D11CE020785C
:1022A0007E280DDC207820280ADB009622780C237B
:1022B00039462846FFF7F8FEA81DC5B2641C0AE09F
:1022C0000096637822783946284600F007F82846B9
:1022D0000C30C5B2A41CDEE700BFF8BDFFB581B06D
:1022E000064600240DE02848015D0398814206D18E
:1022F0002549601C095C0498814200D103E0A01CC0
:10230000C4B2782CEFDB00BF0394002437E0002731
:102310002AE0FF218131039848431C49401861009D
:10232000C919405C009000251AE01948405D0099E9
:102330000840002805D030460A9A0299FFF77AFD36
:102340000AE00A98002801D1012000E0002002469E
:1023500030460299FFF76EFD701CC6B2681CC5B20C
:10236000082DE2DB781CC7B2022FD2DB0298401C9A
:10237000C0B2029030461038C6B2601CC4B20C2CF9
:10238000C5DB05B0F0BD0000EA4C0000624D000066
:102390008E49010010B5002902D0012910D107E0B3
:1023A000204A926801231B071A431E4B9A6007E0DC
:1023B0001C4A526801231B071A431A4B5A6000BF7C
:1023C00000BF002224E0174B9B680124E40623434E
:1023D000144CA36080230340002B07D023465B6886
:1023E0000124A40623430F4C636006E00D4B9B6859
:1023F0000124A40623430B4CA3600A4B5B68012411
:10240000E4062343074C63604306180E531CDAB2FC
:10241000082AD8DB034A526801231B071A43014BE1
:102420005A6010BD00F00F4010B50D48C068012182
:1024300008430B49C8600B480088082807DB094897
:102440000088083807490880FEF758FA06E0064871
:1024500080680121490208430349886010BD0000DB
:102460000071034000F0FF1F00F00F400348C169F6
:10247000012001430148C161704700000071034021
:1024800070B504460D4616461F48406902210843B0
:102490001D4948611D480068022188431B490860A6
:1024A00020461630C206D20E01219140184A116012
:1024B00000BF184868431849220188500846210186
:1024C0004018806802210843134922018918886056
:1024D0001148210140188168012001430E48220162
:1024E000801881602146163148B23146FFF734FC2E
:1024F00020461630C206D20E01219140044A803A8D
:10250000116000BF70BD00000080044000700340F7
:1025100080E100E0409C00000071034010B55520B0
:1025200002F0D0FBAA2002F0CDFBAE2002F0CAFBE5
:1025300010BD0000F8B50026002000900A255520A7
:1025400002F0C0FBAA2002F0BDFBAD2002F0BAFBF6
:10255000284602F0B7FB002419E0A0000F490858F4
:10256000009068460678304602F0ACFB6846467834
:10257000304602F0A7FB68468678304602F0A2FBA0
:102580006846C678304602F09DFB601CC4B2AC427F
:10259000E3DB0D2002F096FBF8BD0000D4F8FF1F2E
:1025A00010B51748408C030001F0C5FE0627040B48
:1025B00012192027012313A213210020FFF765FE23
:1025C0001CE0012315A213210020FFF75EFE15E099
:1025D000012318A213210020FFF757FE0EE001236C
:1025E0001AA213210020FFF750FE07E001231DA2CD
:1025F00013210020FFF749FE00E000BF00BF10BD1F
:10260000D6FAFF1F2020202020202020B0B820D282
:10261000BB2020202020202020200000202020205F
:1026200020202020B0B820B6FE202020202020200E
:10263000202000002020202020202020B0B820C80A
:10264000FD202020202020202020000020202020ED
:1026500020202020B0B820CBC42020202020202003
:10266000202000002020202020202020B0B820CED4
:10267000E52020202020202020200000124813499F
:10268000888001204870232008701120000510491F
:102690004862104840780007000F0E4948709420A7
:1026A0000D4908701A200B49087000BF09480079CD
:1026B000102108400028F9D100BF064800790C21FC
:1026C00008400028F9D1704703E8000000200540C9
:1026D000008004400040064000500640F3B581B041
:1026E0000646B00049490C58002E04D0012E22D0D5
:1026F000022E62D140E04648C068802188434449A8
:10270000C8600846406901210905084340494861FD
:102710004048C078082108433E49C8700846C07840
:10272000042108433B49C8700846C078202108436B
:102730003849C87000BF3648006901210903884341
:102740003349086108464069012149050843304979
:1027500048613148C078082108432F49C8700846AD
:10276000C078042108432C49C8700846C07820214D
:1027700008432949C87021E025480069012149031F
:1027800088432349086108464069012189050843B7
:102790001F4948612148C078082108431F49C87073
:1027A0000846C078042108431C49C8700846C07810
:1027B000202108431949C87000E000BF00BFE0783D
:1027C0000C218843E0700020A07015480299FDF7A5
:1027D00095FC471D0A213846FDF790FC85B211484B
:1027E000854200DD054620784009400120702078B0
:1027F000E904C90E0843207065700020A070A07124
:102800006071E0780C210843E070FEBDC44A01000D
:102810000080044000A0064000B0064000C0064012
:1028200040787D01FF1F000030B502460B46900046
:102830000B4D2C58002108E02079802528400028E5
:1028400001D0E37104E0481CC1B206488142F3DBC9
:1028500000BF0448814201DB012030BD0020FCE7BD
:10286000C44A0100BBFB0000F0B5CDB00125002635
:1028700001240027FFF7ACFAFF222D32774902A886
:10288000FDF766FC012302AA00210846FFF7FDFCC4
:102890001E20604302A9421801230D210020FFF7EA
:1028A000F4FC601C1E21484302A9421801231A218E
:1028B0000020FFF7EAFCA01C1E21484302A9421891
:1028C000012327210020FFF7E0FCE01C1E214843E4
:1028D00002A94218012334210020FFF7D6FC00BFD3
:1028E0002E462746FEF796FA012806D0022807D082
:1028F00003280BD004281CD105E0681EC5B218E0DF
:10290000681CC5B215E000204DB0F0BD012D06D009
:10291000022D06D0032D06D0042D08D105E01F207E
:10292000F2E72020F0E72120EEE72220ECE700206C
:10293000EAE700BF012D01DA092000E0284605463C
:10294000092D01DD012000E028460546A54201DAF7
:10295000284600E020460446E81EA04200DD00E0D4
:102960002046C4B2AE421FD001200C2320221946BB
:1029700000901846FFF798FB01200C232022192114
:1029800000901846FFF790FB01200C2320222621FF
:1029900000901846FFF788FB01200C2320223221EB
:1029A00000901846FFF780FBA74226D01E20604308
:1029B00002A9421801230D210020FFF766FC601CCC
:1029C0001E21484302A9421801231A210020FFF7C3
:1029D0005CFCA01C1E21484302A9421801232721A8
:1029E0000020FFF752FCE01C1E21484302A94218B8
:1029F000012334210020FFF748FCA54208D1012023
:102A00000C234022194600901846FFF74DFB22E0A8
:102A1000601C854208D101200C234022192100901E
:102A20001846FFF741FB16E0A01C854208D10120A3
:102A30000C234022262100901846FFF735FB0AE0C0
:102A4000E01C854207D101200C2340223221009056
:102A50001846FFF729FBFFF701FB41E79849010002
:102A6000F0B58BB0FFF7B4F900BF72480068FDF70E
:102A70008EFC71490190FDF78FFB0290FDF7A8FDD8
:102A800004460D466D480068FDF781FC6C490190D5
:102A9000FDF782FB0290FDF79BFD064632460B4692
:102AA00068A103A80195009401F01AFC01200C23F1
:102AB00003AA282100900020FFF7CAFB5D480068A8
:102AC000FDF765FC01905D480068FDF760FC009033
:102AD0000199FDF761FB0290FDF77AFD06465E4A1B
:102AE0005E4BFDF7FDFC044622460B465CA103A8A5
:102AF00001F0F6FB01200C2303AA352100900020F1
:102B0000FFF7A6FB01200C2357A20021009006200E
:102B1000FFF79EFB5548808C3030C2B20123002164
:102B20002820FFF73FFB5148808C052801DB05205A
:102B300001E04E48808C4D498884FEF76BF9030014
:102B400001F0F9FB06730434646B72734748808CA0
:102B5000401C81B245488184808C052801DB05201A
:102B600001E04248808C414988840846808C404975
:102B70000880002009E04100FF22520289180988DC
:102B800042003C4B9952411C88B2FF28F3DD384883
:102B9000018836488184FF20FEF7B4F80023012223
:102BA00052023449FF20FEF7DFF83EE02F48808CC8
:102BB000002801D1012001E02C48808C2B49888419
:102BC0000846808C401E81B228488184808C284928
:102BD0000880002009E04100FF225202891809887C
:102BE0004200244B9952411C88B2FF28F3DD204853
:102BF00001881E488184FF20FEF784F8002301220B
:102C000052021C49FF20FEF7AFF80EE01749888CEE
:102C1000FDF7FAFFFEF7FCF907E000200549086020
:102C2000064908600BB0F0BD00BF00BFFFF716FA01
:102C30001BE700009CF0FF1F0000C842A0F0FF1F30
:102C40000000B445252E336620202020202020209F
:102C5000202020252E336600CDCCCCCCCCCC4C40D3
:102C6000252E3366000000003C000000D6FAFF1F4E
:102C700006F0FF1F56F9FF1F70B590B0FFF7A8F8D8
:102C8000012329A200210846FFF7FFFA00BFFEF743
:102C9000C1F8042802D1032010B070BD05AA06A90E
:102CA00007A8FEF7D6FC02AA03A904A8FEF7AAFC0F
:102CB0006846808A00906846038B828B20A108A812
:102CC00001F00EFB01200C2308AA14210090002023
:102CD000FFF7BEFA68460089009068468389028A39
:102CE00017A108A801F0FCFA01200C2308AA212151
:102CF00000900020FFF7ACFAFEF7D2FC0646FDF785
:102D000067FC044622460B4612A108A801F0E8FA27
:102D100001200C2308AA2E2100900020FFF798FA2A
:102D2000FFF79CF9B3E70000203C20202020CDD302
:102D30002020C2DD2020D2C720202020202000001B
:102D40002536642020253664202025366420202066
:102D50000000000025332E316620200038B5012404
:102D60000025FFF735F8012389A203210020FFF792
:102D70008CFA8D48408C012801DA052001E08A4850
:102D8000408C894948840846408C052801DD012093
:102D900001E08548408C84494884FFF701FC012309
:102DA00082A223210020FFF770FA012385A233219C
:102DB0000020FFF76AFA00BF2546FEF72BF8030054
:102DC00001F0B9FA0691040D16295D91601EC4B296
:102DD000012C01DA042000E02046044684E0601C57
:102DE000C4B2042C01DD012000E0204604467BE053
:102DF000012C06D0022C06D0032C06D0042C08D1BE
:102E000005E0012038BD0220FCE70320FAE704209A
:102E1000F8E70020F6E7022C30D16348408C401ED2
:102E200081B261484184408C012801DA052001E02B
:102E30005D48408C5C4948840846408C674908805E
:102E4000002009E04100FF2252028918098842004F
:102E5000634B9952411C88B2FF28F3DD5F4801881B
:102E600051484184FF20FDF74DFF0023012252020B
:102E70005B49FF20FDF778FFFFF792FB34E0022C5F
:102E800030D14948408C401C81B247484184408C35
:102E9000052801DD012001E04348408C4249488477
:102EA0000846408C4D490880002009E04100FF227F
:102EB0005202891809884200494B9952411C88B234
:102EC000FF28F3DD4548018837484184FF20FDF79E
:102ED00019FF0023012252024149FF20FDF744FF60
:102EE000FFF75EFB00E000BF00BFA5421FD001203E
:102EF0000C232022032100901046FFF7D5F8012073
:102F00000C232022132100901046FFF7CDF801205A
:102F10000C232022232100901046FFF7C5F8012042
:102F20000C232022332100901046FFF7BDF8012C1E
:102F300006D0022C0DD0032C14D0042C24D11AE07E
:102F400001200C234022032100902020FFF7ACF841
:102F50001AE001200C234022132100902020FFF7CB
:102F6000A3F811E001200C2340222321009020200F
:102F7000FFF79AF808E001200C234022332100904B
:102F80002020FFF791F800BF00BFFFF767F813E7B5
:102F90002020202020202020B7A220B3B5202020F0
:102FA0002020202020200000D6FAFF1F20202020F3
:102FB00020202020CDE220C9E82020202020202031
:102FC000202000002020202020202020C9E820D61A
:102FD000C3202020202020202020000006F0FF1FFA
:102FE00056F9FF1FF0B5F74B9D4401240021F64828
:102FF00068448161012541610161F448408C401EB3
:103000002821484386B2FEF7E3FEF148684400F009
:103010005FFF0123EE4A6A4400210846FFF735F9B5
:103020001E206843EA496944421801230D2100200B
:10303000FFF72BF9681C1E214843E54969444218F3
:1030400001231A210020FFF720F9A81C1E21484364
:10305000DF4969444218012327210020FFF715F9B1
:10306000E81C1E214843DA496944421801233421EF
:103070000020FFF70AF900BFD34868448461456126
:10308000FDF7C8FE030001F056F9060C040DFB160F
:103090001B0C601EC4B2012C01DA102000E0204697
:1030A000044697E3601CC4B2102C01DD012000E04F
:1030B000204604468EE30020C34B1C339D44F0BDE4
:1030C000002010E000210AE0C200C24BD218525C7E
:1030D000C300FFAF3C37DB195A544A1CD1B2082950
:1030E000F2DB411CC8B28028ECDB0121FFA8816320
:1030F00000214163E4E20120382347221721009098
:103100001E20FEF7CBFEFFA8806B012802D002280C
:103110003AD11CE00123B0A21A212120FFF7B5F813
:10312000002019234422194600902120FEF7B6FE04
:10313000002026234422194600902120FEF7AEFEEF
:103140000023A7A229212120FFF79FF81CE00023DC
:10315000A1A21A212120FFF798F80123A0A229217A
:103160002120FFF792F800202823442219460090DE
:103170002120FEF793FE00203523442219460090BB
:103180002120FEF78BFE00BF00BFFDF743FE0300CA
:1031900001F0D1F8060704080CFD0D070121FFA876
:1031A00081638AE20221FFA8816386E200BF0020DA
:1031B0000A9013E000200BE00A99C900854A89189B
:1031C0000A5C0A99C9000CABCB181A54411CC8B24E
:1031D0000828F1DB0A98401CC1B20A910A9880289D
:1031E000E8DB012700210B9144E2FFA8806B012856
:1031F00047D12F236E220E2100904520FEF74EFE70
:10320000012F02D0022F3AD11CE0012376A2112116
:103210004820FFF73AF8002010236B22194600904F
:103220004820FEF73BFE00201D236B22194600902C
:103230004820FEF733FE00236DA220214820FFF72F
:1032400024F81CE0002368A211214820FFF71DF894
:10325000012367A220214820FFF717F800201F2331
:103260006B22194600904820FEF718FE00202C2300
:103270006B22194600904820FEF710FE00BF3AE18D
:1032800039E2FFA8806B0228F9D101203F237A227E
:10329000014600904520FEF701FE4C48408C03009B
:1032A00001F049F8066804182C40546852A102A89D
:1032B00001F016F853A104A8013001F011F854A14F
:1032C00006A8023001F00CF854A108A8033001F060
:1032D00007F84FE054A102A801F002F849A104A8A0
:1032E000013000F0FDFF4AA106A8023000F0F8FF0F
:1032F0004AA108A8033000F0F3FF3BE04AA102A86E
:1033000000F0EEFF3CA104A8013000F0E9FF40A16D
:1033100006A8023000F0E4FF40A108A8033000F046
:10332000DFFF27E040A102A800F0DAFF32A104A8E5
:10333000013000F0D5FF33A106A8023000F0D0FF25
:1033400036A108A8033000F0CBFF13E036A102A895
:1033500000F0C6FF28A104A8013000F0C1FF29A198
:1033600006A8023000F0BCFF29A108A8033000F035
:10337000B7FF00BF00BF002302AA04214820FEF7C8
:1033800084FF002304AA01321321482000E090E1C9
:10339000FEF77BFF002306AA023222214820FEF717
:1033A00074FF002308AA033231214820FEF76DFF85
:1033B000012F3FD0022F54D0032F6AD0042F4FD1BA
:1033C0007FE0000064F5FFFF800A0000D6FAFF1FCF
:1033D00038080000D4F0FF1F20C7E5BFD52000004B
:1033E00020B8B4D6C620000020B5B1C7B020000078
:1033F00020CBF9D3D020000020B7BDB0B8B6FE2056
:103400000000000020B7BDB0B8C8FD2000000000DB
:1034100020B7BDB0B8CBC4200000000020B7BDB0BD
:10342000B8CEE5200000000020B7BDB0B8D2BB2068
:1034300000000000012302AA04214820FEF725FF16
:10344000002003237722194600904820FEF726FD2E
:10345000002010237722194600904820FEF71EFD19
:1034600047E0012304AA013213214820FEF70DFF93
:10347000002012237722194600904820FEF70EFD07
:1034800000201F237722194600904820FEF706FDF2
:103490002FE0012306AA023222214820FEF7F5FE82
:1034A000002021237722194600904820FEF7F6FCE1
:1034B00000202E237722194600904820FEF7EEFCCC
:1034C00017E0012308AA033231214820FEF7DDFE70
:1034D000002030237722194600904820FEF7DEFCBA
:1034E00000203D237722194600904820FEF7D6FCA5
:1034F00000BF00BF00BFFDF78DFC030000F01BFF05
:1035000006B704132522B6B7FFA8806B012801D1A6
:10351000012707E0781EC7B2012F01DA012000E081
:1035200038460746A3E0FFA8806B012801D1022797
:1035300007E0781CC7B2042F01DD042000E0384604
:10354000074694E001200B9091E0F348408CB8428C
:1035500001DD0A9702E0781CC1B20A91FFA8806BD6
:103560000A214843C019162850D006DC0B2809D080
:103570000C2826D0152876D147E0172847D01828E0
:1035800071D145E0002009E04100FF225202891874
:1035900009884200E14B9952411C88B2FF28F3DDB3
:1035A0000021601E80194000DC4A1152FF20FDF707
:1035B000A9FB002301225202D849FF20FDF7D4FBCA
:1035C00051E0002009E04100FF22520289180988D9
:1035D0004200D24B9952411C88B2FF28F3DD0020F3
:1035E00006E0002132185200CC4B9952411CC8B25F
:1035F0002828F6DBFF20FDF785FB0023012252027D
:10360000C649FF20FDF7B0FB2DE000BF00BF00BFA3
:10361000002009E04100FF22520289180988420077
:10362000BE4B9952411C88B2FF28F3DD00200DE00B
:103630000A99491E2822514309184900B74A515A8C
:1036400032185200B54B9952411CC8B22828EFDB02
:10365000FF20FDF757FB002301225202AF49FF2054
:10366000FDF782FB00BF00BF022025E500BF00BFC1
:10367000FEF7F4FC0B98012800D0B6E500200A9074
:1036800013E000200BE00A99C9000CAA89180A5C13
:103690000A99C900A24BCB181A54411CC8B2082879
:1036A000F1DB0A98401CC1B20A910A988028E8DB35
:1036B00003E00120FFA9486300BF00BFFEF7CEFC76
:1036C000FFA8406B012800D015E5002010E0002184
:1036D0000AE0C200FFAB3C33D218525CC300904FEB
:1036E000DB195A544A1CD1B20829F2DB411CC8B27A
:1036F0008028ECDB6EE0230000F01DFE0B6A071053
:103700001A242E38424C56616A00700083494218D0
:10371000012329462046FDF793F959E0701C40002B
:103720007E494218012329462046FDF789F94FE0DA
:10373000B01C400079494218012329462046FDF774
:103740007FF945E0F01C40007449421801232946E6
:103750002046FDF775F93BE0301D40006F494218E7
:10376000012329462046FDF76BF931E0701D40002A
:103770006A494218012329462046FDF761F927E0EE
:10378000B01D400065494218012329462046FDF737
:1037900057F91DE0F01D40006049421801232946F9
:1037A0002046FDF74DF913E03046083040005B49F4
:1037B0004218012329462046FDF742F908E070002F
:1037C00056494218012329462046FDF739F900BF22
:1037D00000BF00BF00BFAC4201DA204600E028462F
:1037E0000546E01EA84200DD00E02846C5B24D486F
:1037F00068448069A04204D14A48684400690128AD
:1038000027D101200C232022194600900620FEF724
:103810004BFC01200C232022192100900620FEF7EA
:1038200043FC01200C232022262100900620FEF7D5
:103830003BFC01200C232022322100900620FEF7C1
:1038400033FC3948684400F043FB002035496944A3
:103850000861344868444069A8422AD01E20684361
:1038600031496944421801230D210020FEF70DFD66
:10387000681C1E2148432C496944421801231A211F
:103880000020FEF702FDA81C1E214843264969447A
:103890004218012327210020FEF7F7FCE81C1E2117
:1038A0004843214969444218012334210020FEF78E
:1038B000ECFCAC4208D101200C23402219460090B8
:1038C0000620FEF7F1FB22E0681C844208D10120AB
:1038D0000C234022192100900620FEF7E5FB16E09C
:1038E000A81C844208D101200C23402226210090EC
:1038F0000620FEF7D9FB0AE0E81C844207D101202C
:103900000C234022322100900620FEF7CDFBFEF76B
:10391000A5FBFFF7B1FB0000D6FAFF1F56F9FF1F0A
:10392000D4F0FF1F800A00003808000000B585B001
:1039300014216846FCF725FCFEF74AFA012315A27C
:1039400000210846FEF7A1FC00BFFDF763FA04283A
:1039500002D1032005B000BD14480022825E14A1EC
:10396000684600F0BDFC01236A461A210020FEF7DC
:103970008CFC13480022825E12A1684600F0B0FC65
:1039800001236A4627210020FEF77FFCFEF766FB35
:10399000DBE70000203C20202020B1E020C2EB200B
:1039A000C6F720D6B52020202020200078F0FF1F69
:1039B0004C5FB1E0C2EBC6F73A2535642000000049
:1039C0007AF0FF1F525FB1E0C2EBC6F73A253564CB
:1039D0002000000000B589B0FEF7FAF901231CA20F
:1039E00000210846FEF751FC00BFFDF713FA04283A
:1039F00002D1032009B000BD1B4803881B48028880
:103A00001BA101A800F06CFC01200C2301AA19469F
:103A100000900020FEF71CFC144800881249098819
:103A2000421A18A101A800F05BFC01200C2301AA96
:103A3000192100900020FEF70BFC01200C2301AAA5
:103A40002D2100900020FEF703FCFEF707FBCCE7DA
:103A5000203C20202020B5E72020B8D02020D6B55B
:103A600020202020202000006EF0FF1F6CF0FF1FA0
:103A700041445F4C3A253464202041445F523A254A
:103A8000346400004C2D523A25346420202020203C
:103A900020000000F0B5CDB001250026012400274C
:103AA00000204C90FEF794F901A800F031F90123B1
:103AB00001AA00210846FEF7E8FB1E20604301A989
:103AC000421801230D210020FEF7DFFB601C1E21A0
:103AD000484301A9421801231A210020FEF7D5FB13
:103AE000A01C1E21484301A94218012327210020C0
:103AF000FEF7CBFBE01C1E21484301A9421801231D
:103B000034210020FEF7C1FB00BF2E462746FDF7FB
:103B100081F9012806D002280DD0032817D00428E7
:103B200062D111E0681EC5B2012D01DA092000E062
:103B30002846054658E0681CC5B2092D01DD012064
:103B400000E0284605464FE000204DB0F0BD2B00B8
:103B500000F0F1FB0A46060D151C232A31383F46BA
:103B600001236A4A21462846FCF76AFF3AE001230E
:103B7000664A921C21462846FCF762FF32E0634AFF
:103B8000921E21462846FCF7D9FE2BE05F4A123AE6
:103B900021462846FCF7D2FE24E05C4A183A21462A
:103BA0002846FCF7CBFE1DE0584A163A2146284627
:103BB000FCF7C4FE16E0554A143A21462846FCF7A5
:103BC000BDFE0FE0514A121D21462846FCF7B6FE05
:103BD00008E04E4A083A21462846FCF7AFFE01E0CD
:103BE0000020B2E700BF00BF00BFA54201DA2846AF
:103BF00000E020460446E81EA04200DD00E020462A
:103C0000C4B2AE4202D14C98012824D101200C2329
:103C10002022194600900620FEF746FA01200C23C8
:103C20002022192100900620FEF73EFA01200C23E5
:103C30002022262100900620FEF736FA01200C23D0
:103C40002022322100900620FEF72EFA01A800F073
:103C50005FF800204C90A74226D01E20604301A9A7
:103C6000421801230D210020FEF70FFB601C1E21CE
:103C7000484301A9421801231A210020FEF705FB41
:103C8000A01C1E21484301A942180123272100201E
:103C9000FEF7FBFAE01C1E21484301A9421801234C
:103CA00034210020FEF7F1FAA54208D101200C23AF
:103CB0004022194600900620FEF7F6F922E0601C2B
:103CC000854208D101200C234022192100900620B2
:103CD000FEF7EAF916E0A01C854208D101200C236A
:103CE0004022262100900620FEF7DEF90AE0E01CC3
:103CF000854207D101200C2340223221009006206A
:103D0000FEF7D2F9FEF7AAF9FFE60000FEFAFF1F60
:103D100038B504460020009030A1204600F0E0FABB
:103D20003448028D34A120461E3000F0D9FA3148C3
:103D3000428D37A120463C3000F0D2FA2D48C18C8C
:103D40006846FDF745F96A4637A120465A3000F02B
:103D5000C7FA2848C18A6846FDF73AF96A4638A189
:103D60002046783000F0BCFA2248018A6846FDF708
:103D70002FF96A4638A12046963000F0B1FA1D4866
:103D8000418A6846FDF724F96A4639A12046B430D5
:103D900000F0A6FA1748818A6846FDF719F96A46C5
:103DA00039A12046D23000F09BFA1248818D684636
:103DB000FDF70EF96A463AA12046F03000F090FA7D
:103DC0000C48018C6846FDF703F96A463AA1204683
:103DD000FF300F3000F084FA38BD000020203C2076
:103DE00020202020C9E82020D6C320202020202009
:103DF00020000000D6FAFF1F202020312E2020CAEC
:103E0000B1BCE4CDA3B3B52020253464202000004C
:103E1000202020322E2020BEE0C0EBCDA3B3B52061
:103E20002025346420200000202020332E2020B1C3
:103E3000A32020BBA4202020202025730000000008
:103E4000202020342E2020B5F72020CAD420202086
:103E50002020257300000000202020352E20204C3B
:103E60002045204420202020202025730000000031
:103E7000202020362E2020B7E420C3F920C6F720CA
:103E80002020257300000000202020372E2020C095
:103E9000B62020D1C0202020202025730000000063
:103EA000202020382E20204875616E5F4C52202043
:103EB0002020257300000000202020392E202058CB
:103EC00020582035202020202020257300000000CD
:103ED00010B504468248408C030000F02CFA061D01
:103EE00004090E13181D7FA1204600F0F9F914E013
:103EF00082A1204600F0F4F90FE086A1204600F0F0
:103F0000EFF90AE089A1204600F0EAF905E08DA169
:103F1000204600F0E5F900E000BF00BF7048408C8B
:103F2000401E2821484340008C490A5A8CA1204653
:103F30001E3000F0D5F96A48408C401E28214843C5
:103F4000401C400085490A5A8BA120463C3000F0B5
:103F5000C7F96348408C401E28214843801C40001C
:103F60007E490A5A8AA120465A3000F0B9F95C48C5
:103F7000408C401E28214843C01C400077490A5A03
:103F800089A12046783000F0ABF95548408C401E9E
:103F900028214843001D400070490A5A88A1204644
:103FA000963000F09DF94E48408C401E2821484331
:103FB000401D400069490A5A87A12046B43000F0EC
:103FC0008FF94748408C401E28214843801D4000FF
:103FD00062490A5A86A12046D23000F081F9404851
:103FE000408C401E28214843C01D40005B490A5AAE
:103FF00085A12046F03000F073F93948408C401E0E
:10400000282148430830400054490A5A84A12046D8
:10401000FF300F3000F064F93148408C401E2821F9
:10402000484340004D490A5A83A12046FF302D30B5
:1040300000F056F92A48408C401E28214843400091
:1040400046490A5A82A12046FF304B3000F048F919
:104050002348408C401E2821484340003F490A5ACB
:1040600081A12046FF30693000F03AF91C48408CAD
:10407000401E28214843400038490A5A80A1204662
:10408000FF30873000F02CF91548408C401E282165
:104090004843400031490A5A7FA12046FF30A530ED
:1040A00000F01EF90E48408C401E28214843400075
:1040B0002A490A5A7EA12046FF30C33000F010F989
:1040C0000748408C401E28214843400023490A5A93
:1040D0007DA12046FF30E13000F002F910BD000064
:1040E000D6FAFF1F20203C20202020B7BD2020B082
:1040F000B82020D2BB2020202020000020203C20FF
:10410000202020B7BD2020B0B82020B6FE202020DF
:104110002020000020203C20202020B7BD2020B0FF
:10412000B82020C8FD2020202020000020203C2096
:10413000202020B7BD2020B0B82020CBC4202020D4
:104140002020000020203C20202020B7BD2020B0CF
:10415000B82020CEE52020202020000056F9FF1FA7
:10416000202020312E2020C4BFB1EABDC7B6C82010
:104170002025346420200000202020322E2020C45E
:10418000BFB1EACBD9B6C820202534642020000076
:10419000202020332E2020BDC720B6C8205020204C
:1041A0002025346420200000202020342E2020BD33
:1041B000C720B6C8204420202025346420200000D9
:1041C000202020352E2020CBD920B6C820502020FA
:1041D0002025346420200000202020362E2020CBF3
:1041E000D920B6C820492020202534642020000092
:1041F000202020372E2020D7AA20CFF220502020A8
:104200002025346420200000202020382E2020D7B4
:10421000AA20CFF220442020202534642020000052
:10422000202020392E20204875616E4164642020B2
:10423000202534642020000020202031302E2074DE
:10424000642020202020202020253464202000000D
:1042500020202031312E20585858585858582020A6
:10426000202534642020000020202031322E2058C8
:1042700058585858585820202025346420200000D1
:1042800020202031332E2058585858585858202074
:10429000202534642020000020202031342E205896
:1042A00058585858585820202025346420200000A1
:1042B00020202031352E2058585858585858202042
:1042C000202534642020000020202031362E205864
:1042D0005858585858582020202534642020000071
:1042E0000FB410B504A9074B02AA039800F0FAF81E
:1042F000044602A9002000F091FC204610BC08BC36
:1043000004B018471D4C00002021020C01D01021E0
:104310001046020A01D010460839020901D01046A1
:10432000091F820801D01046891E420801D0881E4C
:104330007047081A704730B47446641E2578641CB0
:10434000AB4204D3635D5B00E31830BC18471D46E5
:10435000F8E702E008C8121F08C1002AFAD1704726
:104360007047002001E001C1121F002AFBD17047F5
:10437000F0B51FB486B00998089A030D00210243D6
:1043800014D05148514A1818504305141198012867
:1043900010981AD0281A401C00264D4F4D490096FF
:1043A00001910490002812DA444211E0119801248E
:1043B00049A3012801D11098C1430698119A84603D
:1043C0000360C26041600BB0F0BD4042E4E70446C8
:1043D000210500203F4A001C51410391029012E048
:1043E000E00707D032463B4601990098FCF710F8E9
:1043F0000191009032463B4610461946FCF708F8FA
:1044000006460F466410002CEAD10498039B00284E
:10441000029A0999089806DAFBF7FAFF019B009ABD
:10442000FBF7F6FF05E0FCF75BF8019B009AFCF751
:1044300057F804460E460022284BFCF7DDF803D857
:104440000020C043014607E00022254B20463146AC
:10445000FBF7E0FEFCF7E4F9102409E0002C0ADB8E
:104460000A220023FCF7F8F8079B30321A55641E25
:1044700002460A43F2D11122641C079B121B1C192D
:10448000119B012B03D0012308430ED10AE00843FE
:1044900004D0112010900020119077E71098151A81
:1044A0006D1E0BE01098824202DD00236D1C03E0BC
:1044B000824201DA00236D1E002BEED0069811997E
:1044C0008260C16030C07EE701FCFFFF104D00003C
:1044D000000014400000F03F300000000000F043F6
:1044E0000000E03FFFB597B00646002518E22528FA
:1044F00077D100242746FD49049400E00443761C4C
:1045000032780120203A90400842F7D130782A28AA
:104510000ED00222307801463039092916D8049984
:104520000A235943303940181443761C0490F1E7AC
:10453000189802C804911890002904DA0120400359
:1045400004434842049002200443761C30782E280D
:1045500014D1042004437078761C2A2809D11898B5
:10456000761C80C8189009E00A214F43303FC719D4
:10457000761C3078014630390929F5D930786C2815
:1045800010D006DC4C281AD068280ED06A2817D123
:1045900004E0742813D07A2812D110E001204005DD
:1045A00004430CE00121090501E0032109050C4346
:1045B0007178814203D1012000052418761C761CF5
:1045C0003078119066280BD013DC58287DD009DC98
:1045D00000287BD04528F6D04628F4D047281AD1A9
:1045E000A5E118E0632835D0642870D0652812D181
:1045F0009DE170286CD008DC6728F1D069287BD059
:104600006E280DD06F2806D1BAE073282ED07528F9
:1046100071D0782859D01A9A199990476D1C7EE16B
:104620006002400F022809D003280DD004281898F2
:1046300001680DD00D60001D189070E11898EA1700
:1046400001680D604A60F6E7189801680D80F2E78E
:104650000D70F0E718986A4601781172001D1890E5
:104660000020507202A80090012005E0189802C8AE
:10467000189000200091C04361070DD5002101E092
:104680000199491C0191B94212DA8142F8DB009A82
:10469000515C0029F4D10BE0002101E00199491C93
:1046A00001918142FADB019A0099895C0029F5D1D8
:1046B000019904981A9B471A21463846199A00F026
:1046C00097FA0199401945180BE04FE02CE113E0EF
:1046D0004EE0009800990078491C00911A9A1999A7
:1046E00090470198401E0190401CF2D12146384667
:1046F0001A9B199A10E137E00A20002100900191DD
:104700006002410F022907D0189A01CA1892C217F5
:104710009446032908D00AE01898C01DC108C900B2
:1047200005C91891944607E000B2C21794460429BF
:1047300002D140B2C1178C4600226146944506DA88
:104740000A460021404291418C462D2102E021057C
:1047500004D52B216A461173012103E0E10701D042
:104760002021F7E7029155E00A200AE0102008E036
:10477000102000900021042004430191082703E049
:1047800008200021019100906002410F022907D00A
:10479000189A01CA189200229446032908D008E00A
:1047A0001898C01DC108C90005C91891944603E0B6
:1047B00080B2042900D1C0B200210291210729D57D
:1047C0001199702906D0009A1021019B4A401A4382
:1047D00005D00EE040216A461173012108E06146D0
:1047E000014306D030216A46117311995173022199
:1047F0000291009A0821019B4A401A430AD161465E
:10480000014301D1610705D530216A4611730121A9
:104810007F1E02911199582904D035A10E910DA93E
:104820000D910DE037A1F9E76146019B009AFBF776
:1048300013FF0E9B8C469B5C0D9A521E0D921370BB
:1048400061460143F0D10D9805A9081A2030019066
:10485000600703D501200004844300E0012701988C
:10486000874201DD381A00E00020019900904118CC
:10487000029809180498401A0490E00306D42146CF
:104880001A9B199A049800F0B3F94519002706E01D
:1048900003A81A9AC05D199990476D1C7F1C029855
:1048A0008742F5DBE0030CD521461A9B199A049840
:1048B00000F09EF9451904E01A9A302019999047A2
:1048C0006D1C0099481E00900029F5DC08E00D9849
:1048D0000D990078491C0D911A9A199990476D1CF1
:1048E0000199481E01900029F1DC63E109280100CB
:1048F0003031323334353637383961626364656656
:104900000000000030313233343536373839414217
:10491000434445460000000000F05AF94519761C52
:104920003078002800D0E2E528461BB0F0BD6007D3
:1049300000D406271898C01DC108C90048680A6835
:104940000831C30FDB071891190001D09CA108E0C2
:10495000210501D59BA104E0E10701D09AA100E067
:104960009AA1430011985B08109165280CD006DCD1
:10497000452809D046281DD0472841D141E0662866
:1049800018D067283CD13CE00021112F01DB112019
:1049900000E0781C0191009008A911A8FFF7E8FC3D
:1049A000139905910021119A15927F1C1298019775
:1049B000009150E00120C00703900120019008A958
:1049C000009711A8FFF7D4FC139A149905920022BE
:1049D000119B009212981593059A0192002901D01B
:1049E000104602E0791C40180190381A01D5019850
:1049F00004E04042401E0090781C0190C01B0290D1
:104A000043E0012F00DA01270021112F01DD1120E1
:104A100000E038460191009008A911A8FFF7A8FC12
:104A200013990591119A00211298159200910197FE
:104A300021070CD40599B94201DB019900E00191ED
:104A4000012904DD159A491E515C302906D0B8426F
:104A500001DA011D05DA0121029115E00199491ED3
:104A6000EDE7002805DC0099411800910199091A29
:104A700003E0019A411C914200DD01910099401A26
:104A8000401C02900120C0070390200706D4029921
:104A90000198814202DB0020C04302900020694659
:104AA000C87707AF012103980337C907884224D08C
:104AB000022011902B201290039800280CDA40421B
:104AC00003902D20129007E00A210398FBF716FBB4
:104AD00030317F1E039039701199481E11900029C2
:104AE000F2DC03980028EFD1791E12980870307814
:104AF000202108404530BF1E387006A8C01BC01DCD
:104B0000039010980078002800D0012001994118E6
:104B10000298C0170918039809180498401A401EF3
:104B20000490E00306D421461A9B199A049800F0D9
:104B30005FF8451910980078002803D01A9A19993F
:104B400090476D1CE00324D521461A9B199A0498BE
:104B500000F04EF845191CE00098002807DB00998A
:104B60000598884203DD1598405C199901E0199970
:104B700030201A9A904700986D1C401C00900298B3
:104B8000401E0290002804D11A9A2E2019999047AD
:104B90006D1C0199481E01900029DDDC05E0387884
:104BA0001A9A7F1C199990476D1C0399481E03900F
:104BB0000029F4DC21461A9B199A0498ACE60000FF
:104BC0002D0000002B00000020000000000000006D
:104BD000F8B5044600251E461746880404D405E0AF
:104BE00039462020B0476D1C641EF9D52846F8BD13
:104BF000FFB50446002581B01E46C80301D5302705
:104C000000E02027880404D505E038460399B04722
:104C10006D1C641EF9D5284605B0F0BD0A68531C0A
:104C20000B60107070470000FBF73EFE6420FCF73D
:104C300027F86420FCF724F800BFFCF78DFF00285C
:104C4000FBD17D20C0001E490880002437E0042CE1
:104C500020D008DC002C0DD0012C0FD0022C11D05C
:104C6000032C27D112E01F2C18D0202C1AD0212C75
:104C700020D11BE0FEF772F804461FE0FDF7F0FEBE
:104C800004461BE0FEF7AEF9044617E0FDF7ECFD25
:104C9000044613E0FEF7FEFE04460FE0FDF7ECFFCE
:104CA00004460BE0FEF796FE044607E0FEF73EFEE4
:104CB000044603E0FEF752F8044600BF00BFC6E713
:104CC00000F0FF1F10B5044621460120FDF7ACFDA2
:104CD00010BD303132333435476F21303132333407
:104CE00035363738392E2B2D3A20A1A3D6F7B2CB43
:104CF000B5A5B7A2B3B5B7BDB0B8CDE2C9E8D6C3C4
:104D0000C0B6D1C0CDD3C2DDD2C7B1E0C2EBC6F7C9
:104D1000B5E7B8D0A1B6C4BFB1EACBD9B6C8BDC754
:104D2000D7AACFF2D6B5B7E4C3F9BFAAB9D8D2BBD8
:104D3000B6FEC8FDCBC4CEE5B8B4D6C6C7E5BFD570
:104D4000B5B1C7B0CBF9D3D0B1A3BBA4CAB1BCE451
:104D5000BEE0C0EBCDA3B5F7CAD400000000000050
:104D60000000000000000000000000000000000043
:104D70000000000000000000000000000000000033
:104D80000000000000000000000000000000000023
:104D90000000000000000000000000000000000013
:1050600000000800040000007FC0040004000400E9
:105070007FC0040004000400FFE000000000000006
:105080000000000000000000000000000000000020
:105090000000000000000000000000000000000010
:1050A0000000000000000000000000000000000000
:1050B00000000000000000000000000000000000F0
:1053600000001100FFE0110001C0FE004880250090
:105370000400FFE015002480C4600000000000006D
:10538000000000000000000000000000000000001D
:10539000000000000000000000000000000000000D
:1053A00000000000000000000000000000000000FD
:1053B00000000000000000000000000000000000ED
:105660000000208011007FC044407FC044407FC0C4
:105670000400FFE00400040004000000000000003B
:10568000000000000000000000000000000000001A
:10569000000000000000000000000000000000000A
:1056A00000000000000000000000000000000000FA
:1056B00000000000000000000000000000000000EA
:105960000000090088808800FFE0100010001F8000
:105970002880250042008D8030600000000000007B
:105980000000000000000000000000000000000017
:105990000000000000000000000000000000000007
:1059A00000000000000000000000000000000000F7
:1059B00000000000000000000000000000000000E7
:105C6000000008000800FFE01000240044007FC08E
:105C700004000400FFE00400040000000000000035
:105C80000000000000000000000000000000000014
:105C90000000000000000000000000000000000004
:105CA00000000000000000000000000000000000F4
:105CB00000000000000000000000000000000000E4
:105F6000000008000400FFE0100010001FC01040F7
:105F7000104020402040404083800000000000008E
:105F80000000000000000000000000000000000011
:105F90000000000000000000000000000000000001
:105FA00000000000000000000000000000000000F1
:105FB00000000000000000000000000000000000E1
:1062600000000400FFE088207FC011000E00F1C094
:106270000400FFE015002480C4600000000000005E
:10628000000000000000000000000000000000000E
:1062900000000000000000000000000000000000FE
:1062A00000000000000000000000000000000000EE
:1062B00000000000000000000000000000000000DE
:106560000000210021002100390049804940A92074
:1065700011201100210041008100000000000000F6
:10658000000000000000000000000000000000000B
:1065900000000000000000000000000000000000FB
:1065A00000000000000000000000000000000000EB
:1065B00000000000000000000000000000000000DB
:1068600000004780248004800480E86020002FC05E
:1068700024402280310022800C60000000000000D3
:106880000000000000000000000000000000000008
:1068900000000000000000000000000000000000F8
:1068A00000000000000000000000000000000000E8
:1068B00000000000000000000000000000000000D8
:106B600000007FC04A407FC00400FFE004003F8077
:106B70002080208024802480FFE0000000000000AE
:106B80000000000000000000000000000000000005
:106B900000000000000000000000000000000000F5
:106BA00000000000000000000000000000000000E5
:106BB00000000000000000000000000000000000D5
:106E600000002080FFE02080120053E0548050405A
:106E700000007FC04A404A40FFE0000000000000E0
:106E80000000000000000000000000000000000002
:106E900000000000000000000000000000000000F2
:106EA00000000000000000000000000000000000E2
:106EB00000000000000000000000000000000000D2
:10716000000000007FC00100210041007FE003001B
:10717000050009003100C100070000000000000008
:1071800000000000000000000000000000000000FF
:1071900000000000000000000000000000000000EF
:1071A00000000000000000000000000000000000DF
:1071B00000000000000000000000000000000000CF
:1074600000000100F08097E09420A000A22092404C
:1074700092809300E220822081E000000000000062
:1074800000000000000000000000000000000000FC
:1074900000000000000000000000000000000000EC
:1074A00000000000000000000000000000000000DC
:1074B00000000000000000000000000000000000CC
:10776000000023E022A023E0FAA0ABE0A940FB80C8
:1077700021202BE03880CAC005A0000000000000D6
:1077800000000000000000000000000000000000F9
:1077900000000000000000000000000000000000E9
:1077A00000000000000000000000000000000000D9
:1077B00000000000000000000000000000000000C9
:107A6000000012001100212028206820A44024409A
:107A700022802100228024402820000000000000F5
:107A800000000000000000000000000000000000F6
:107A900000000000000000000000000000000000E6
:107AA00000000000000000000000000000000000D6
:107AB00000000000000000000000000000000000C6
:107D6000000041004FE08820AFE0C8004FE08AA04B
:107D7000DAA00FE02AA0CAA00860000000000000FE
:107D800000000000000000000000000000000000F3
:107D900000000000000000000000000000000000E3
:107DA00000000000000000000000000000000000D3
:107DB00000000000000000000000000000000000C3
:1080600000000FC0F04024402440444077E0D0207E
:1080700050205FA07020502000C0000000000000D1
:1080800000000000000000000000000000000000F0
:1080900000000000000000000000000000000000E0
:1080A00000000000000000000000000000000000D0
:1080B00000000000000000000000000000000000C0
:1083600000007BC04A407BC004800440FFE00A005C
:108370003180C0607BC04A407BC00000000000002C
:1083800000000000000000000000000000000000ED
:1083900000000000000000000000000000000000DD
:1083A00000000000000000000000000000000000CD
:1083B00000000000000000000000000000000000BD
:10866000000008000800FF8088808880FF808880E4
:108670008880FF808820082007E0000000000000BC
:1086800000000000000000000000000000000000EA
:1086900000000000000000000000000000000000DA
:1086A00000000000000000000000000000000000CA
:1086B00000000000000000000000000000000000BA
:10896000000001407FE041005D4041405C8054A038
:108970005D608220544052A08FA0000000000000E3
:1089800000000000000000000000000000000000E7
:1089900000000000000000000000000000000000D7
:1089A00000000000000000000000000000000000C7
:1089B00000000000000000000000000000000000B7
:108C600000000000048004800900090012000900CF
:108C700009000480048000000000000000000000E3
:108C800000000000000000000000000000000000E4
:108C900000000000000000000000000000000000D4
:108CA00000000000000000000000000000000000C4
:108CB00000000000000000000000000000000000B4
:108F6000000000007FC0404040407FC04040404083
:108F70007FC0404040407FC04040000000000000F3
:108F800000000000000000000000000000000000E1
:108F900000000000000000000000000000000000D1
:108FA00000000000000000000000000000000000C1
:108FB00000000000000000000000000000000000B1
:109260000000200027C02000F0002FE06100710006
:10927000A540252029202100230000000000000037
:1092800000000000000000000000000000000000DE
:1092900000000000000000000000000000000000CE
:1092A00000000000000000000000000000000000BE
:1092B00000000000000000000000000000000000AE
:10956000000082005FE002001FC0D24052405FC096
:1095700047004A8052404200BFE000000000000067
:1095800000000000000000000000000000000000DB
:1095900000000000000000000000000000000000CB
:1095A00000000000000000000000000000000000BB
:1095B00000000000000000000000000000000000AB
:10986000000002007FE048807FE048804F80400099
:109870005FC04840448043009CE0000000000000BE
:1098800000000000000000000000000000000000D8
:1098900000000000000000000000000000000000C8
:1098A00000000000000000000000000000000000B8
:1098B00000000000000000000000000000000000A8
:109B6000000020003F00410082007FC044407FC0D1
:109B700044407FC04440444080C0000000000000DA
:109B800000000000000000000000000000000000D5
:109B900000000000000000000000000000000000C5
:109BA00000000000000000000000000000000000B5
:109BB00000000000000000000000000000000000A5
:109E6000000041004100EFC04200A200AFE0F4005A
:109E700027C03040E6802180204000000000000024
:109E800000000000000000000000000000000000D2
:109E900000000000000000000000000000000000C2
:109EA00000000000000000000000000000000000B2
:109EB00000000000000000000000000000000000A2
:10A16000000008001000FFE0802080209F20912048
:10A17000912091209F20802080E0000000000000BE
:10A1800000000000000000000000000000000000CF
:10A1900000000000000000000000000000000000BF
:10A1A00000000000000000000000000000000000AF
:10A1B000000000000000000000000000000000009F
:10A46000000022002FE042004FC0C8404FC04840CB
:10A470004FC048404FC048405FE00000000000006F
:10A4800000000000000000000000000000000000CC
:10A4900000000000000000000000000000000000BC
:10A4A00000000000000000000000000000000000AC
:10A4B000000000000000000000000000000000009C
:10A760000000210021E02320F8C0AB20A880FBE0FE
:10A7700020802BE03880CBE000800000000000004B
:10A7800000000000000000000000000000000000C9
:10A7900000000000000000000000000000000000B9
:10A7A00000000000000000000000000000000000A9
:10A7B0000000000000000000000000000000000099
:10AA600000000200F7C09440954094C0940097E025
:10AA70009020F0209FA0002000C0000000000000F7
:10AA800000000000000000000000000000000000C6
:10AA900000000000000000000000000000000000B6
:10AAA00000000000000000000000000000000000A6
:10AAB0000000000000000000000000000000000096
:10AD6000000000007FC01100110011001100FFE081
:10AD7000110011002100210041000000000000002E
:10AD800000000000000000000000000000000000C3
:10AD900000000000000000000000000000000000B3
:10ADA00000000000000000000000000000000000A3
:10ADB0000000000000000000000000000000000093
:10B0600000002080110000007FC004000400FFE009
:10B0700004000A0011002080C060000000000000F1
:10B0800000000000000000000000000000000000C0
:10B0900000000000000000000000000000000000B0
:10B0A00000000000000000000000000000000000A0
:10B0B0000000000000000000000000000000000090
:10B360000000000000000000000000000000FFE0FE
:10B3700000000000000000000000000000000000CD
:10B3800000000000000000000000000000000000BD
:10B3900000000000000000000000000000000000AD
:10B3A000000000000000000000000000000000009D
:10B660000000000000007FC000000000000000009B
:10B67000000000000000FFE00000000000000000EB
:10B6800000000000000000000000000000000000BA
:10B6900000000000000000000000000000000000AA
:10B6A000000000000000000000000000000000009A
:10B6B000000000000000000000000000000000008A
:10B96000000000007FC000000000000000003F80D9
:10B970000000000000000000FFE0000000000000E8
:10B9800000000000000000000000000000000000B7
