:020000040000FA
:10000000600B0020D7000000E3000000E5000000C6
:1000100000000000000000000000000000000000E0
:10002000000000000000000000000000E7000000E9
:100030000000000000000000E9000000EB000000EC
:10004000ED000000ED000000ED000000ED000000FC
:10005000ED000000ED000000ED000000ED000000EC
:10006000ED000000ED000000ED000000ED000000DC
:10007000ED000000ED000000ED000000ED000000CC
:10008000ED000000ED000000ED000000ED000000BC
:10009000ED000000ED0000005D1C0000ED0300001D
:1000A000ED000000ED000000ED000000ED0000009C
:1000B000ED000000ED000000ED000000ED0000008C
:1000C0000348854600F06EFB00480047FD460000EF
:1000D000600B002070470648804706488047064866
:1000E0000047FEE7FEE7FEE7FEE7FEE7FEE700006B
:1000F0009D1E0000D5000000C100000030B50B4679
:10010000014600202022012409E00D46D5409D42F1
:1001100005D31D469540491B254695404019154677
:10012000521E002DF1DC30BD03460B439B0703D06C
:1001300009E008C9121F08C0042AFAD203E00B78AC
:100140000370401C491C521EF9D27047D2B201E024
:100150000270401C491EFBD270470022F6E710B522
:1001600013460A4604461946FFF7F0FF204610BD25
:1001700070B502464A40D50F40004A00ED074008DE
:100180005208002814D0002A12D0C40DD30D410209
:100190000120C0055202490A520AE41A091812182D
:1001A0007D34914201D3641C00E04900002C01DA47
:1001B000002070BD0023914201D3891A03434008F7
:1001C00049000028F7D100290AD0914202D101212B
:1001D000C90705E0914201D2012101E00121C94393
:1001E000E005C018401900F06BF970BDF0B51FB400
:1001F00088B00B990998002448400999C00F49001C
:1002000049080991C0070B990090490049080B91D2
:1002100009990898A64608431CD00B990A980843E8
:1002200018D0099801244000420D4800410D09985A
:1002300024050003000B204309900B980003000BDA
:1002400020430B9050181C4940180022019014467E
:10025000104605E0002001460DB0F0BD032801DA8C
:10026000034600E003239C46C11A0AAE0AE05F0081
:1002700008ADED5B4F00F75B7D430027AA187C417A
:10028000491C5B1E6145F2DD410004AB5A5221045A
:10029000120C0A43240C401C0828DFDB0198029052
:1002A0000099704601910090059B049A0799069861
:1002B00000F054F9D0E700000DFCFFFFF0B50C464C
:1002C0005C4085B0E40FE40703944C00002664080A
:1002D00059009446490802460296224321D06246BC
:1002E0000A431ED06200570D4A000E032303550D2A
:1002F000012402462C492405781B1B0B360B4018A1
:1003000023432643614600901C46501AB44103D350
:100310000098401C009002E0921800985B41002871
:1003200003DA0020014605B0F0BD002001210905D7
:100330000746864611E064461D46141BB54106D3A8
:100340006546521BB341744607430C43A646CD078E
:1003500040084908284392185B4105460D43EAD1FD
:100360001046184313D06046194650407140084368
:1003700006D06046101AB34106D20122002306E0DF
:1003800000220123DB0702E00122D2435310009830
:1003900074460105381C6141029C039D00196941A6
:1003A00000F0CFF8BFE70000FD030000C217C10F47
:1003B000504010B54018CA079623002100F088F875
:1003C00010BD10B500229623114600F081F810BD33
:1003D0000EB505490291002100910A460B46019194
:1003E00000F0BCF803B000BD330400000348C1694D
:1003F000012001430148C1617047000000710340C2
:10040000FFFFFFFFFFFFFFFFFFFFFFFFFFFFFEFEFE
:10041000C20FD207400040080BD0C10D0723DB01FB
:10042000C91840020905400A1143C2084007114398
:10043000704700200146704710B5002904DB0124F5
:10044000E40740428C412146002B04DB1C4601237B
:10045000DB075242A341994200D1904210BD0000F7
:10046000F0B51FB40646002082B005464024019135
:1004700000901BE0019922460F46304600F0B4F987
:10048000049A059B801A994110D3104619462246BA
:1004900000F09AF9361A8F41019722460120002177
:1004A000009F00F091F938184D4100902046641EDD
:1004B0000028DFDC019B00982946324607B0F0BDDA
:1004C000002904DA401C490001D14008400070476F
:1004D00070B40024050C05D11024000402D10029B9
:1004E00021D01124050E01D100020834050F01D1DD
:1004F0000001241D850F01D18000A41C002801DB10
:100500004000641C002908D020252E1B0D46F54014
:10051000A14000D001212943084301061B1B000A0A
:10052000DB1D02D5002070BC7047DB051818801851
:100530000029F8DA401C4900F5D170BC40084000A1
:10054000704710B5002B08DA0024401C6141921856
:100550005B411A4301D14008400010BDF0B51FB403
:1005600082B005460C0003D0084603F0A7FA02E06B
:1005700003F0A4FA2030024600902146284600F0FD
:1005800023F9049B059A04460F4618431143084378
:1005900014D0184610431BD0009840210A1A184660
:1005A000059900F021F905460E46009A0599049830
:1005B00000F00AF9084305D0012004E0204639463E
:1005C00007B0F0BD0020C11705430E432C4337434D
:1005D00000990E986305401A7905E40A00220C433D
:1005E000FD0A0A3002D500200146E9E7010510198D
:1005F00069410C9C0D9D00196941FFF7A2FFDFE7DF
:10060000F0B507460846584087B0C00F0490480030
:100610000E46590040084908BC1A884105D23846A0
:1006200031461E4617460B46024658004008104306
:100630004CD0300D039040055900400D490D0590F8
:10064000401A0290402872DA18030121000B0905B4
:100650000843019004980092002805D00199524265
:100660000020884100920190029840210A1A0199C5
:10067000009800F0A9F805460C466B4607CB00F041
:10068000C4F8C0197141039A0E0D0023D7175640C4
:100690001A467A40164344D0049A002A2DD0029A72
:1006A000012A039A15DC1205C01A9141012636056C
:1006B000001C7141D20F059ED20700930192029651
:1006C0002A462346FFF74AFF07B0F0BD38463146B9
:1006D000FAE71605224A0F46B218C01AB74101219F
:1006E0000905001C4F4100187F4111461818794137
:1006F000E20F10436D19644113E0E2076D081543E2
:100700006408C2071443039A01261205C01A9141D6
:100710003605001C7141CE07400830434908C01817
:1007200051412A462346FFF70CFFCDE7FFE7049827
:1007300001224000C117121A00238B410498314650
:10074000C417381AA141EEE730B40124E40763402E
:1007500030BC55E730B40124E407614030BC4FE7BA
:100760000000E0FF4A0009030123090B1B051943A0
:100770000A4B10B5520D9A4202DA0020014610BD14
:10078000064B34339A4203DC9A1A00F02DF810BD60
:10079000034BD21800F018F810BD0000FF03000052
:1007A000CDFBFFFF064C0125064E05E0E36807CCB4
:1007B0002B430C3C98471034B442F7D3FFF784FC2A
:1007C000144701003447010010B5202A04DB01461C
:1007D000203A9140002010BD914020239C1A0346EE
:1007E000E3401943904010BD10B5202A04DB0846B1
:1007F000203AD040002110BD0B46D340D0402024E9
:10080000A21A91400843194610BD10B5202A06DBF4
:10081000CB170846203A1041C1170B4306E00B46A0
:100820001341D0402024A21A91400843194610BD1C
:1008300010B500F037F800F041FA00F0D3F900F0FD
:1008400021F8322000F0E0F90D48806801214902CA
:1008500008430B4988604B21C901012001F04EFB80
:1008600000F00EFE00F04CFF00220821104601F0BF
:1008700017FA00F065FD00F0C5FE00F0E7FE10BDC0
:1008800000F00F400548408A012806D1044840681E
:10089000012149020843024948607047DAFAFF1F04
:1008A00000F00F400648406901214902084304490D
:1008B00048610846806849150843014988607047C7
:1008C00000F00F40F0B589B006460F46154628786F
:1008D00044B200BFA1B202A800F03EFB002000908D
:1008E000F01B401C0D225043C1B20C2302AA6C2005
:1008F00001F0C8F80020019000F050FA012806D05D
:10090000022807D0032808D0042830D12AE0601C30
:1009100044B22CE0601E44B229E001200190304630
:10092000C73027490880288809884900254A50523D
:10093000002009E04100FF22520289180988420084
:10094000204B9952411C88B2FF28F3DD2C80FF20F8
:1009500000F09CF90023012252021A49FF2000F006
:10096000C7F904E0287844B20120019000BF00BF1D
:10097000012C01DD002000E020460446002C01DAB5
:10098000012000E0204604460198012812D1A1B2BE
:1009900002A800F0E1FA01200090F01B401C0D229B
:1009A0005043C1B20C2302AA6C2001F06BF800F096
:1009B0006FFF02E000F06CFF8CE700BF09B0F0BDF4
:1009C000C0F0FF1F5AF9FF1FF0B58BB006460F4667
:1009D0001546288804B26748844200DD00E02046BE
:1009E0000446012C01DA012000E02046044600BF45
:1009F000224661A104A803F04DF800200090F01BEE
:100A0000401C0D225043C1B20C2304AA662001F001
:100A100039F80020039000F0C1F9030003F065F8F5
:100A2000068B040D1632378B601C04B25148844289
:100A300000DD00E0204604467DE0012C01DA0120C3
:100A400000E020460446601E04B274E001200390DA
:100A5000002009E04100FF22520289180988420063
:100A6000474B9952411C88B2FF28F3DD2C80FF20B0
:100A700000F00CF90023012252024149FF2000F04E
:100A800037F958E001200390288804B253E0002091
:100A9000029000BF3B480088201804B235488442C9
:100AA00000DD00E020460446002C01DA002000E0D2
:100AB0002046044600F072F9032806D0042820D10D
:100AC000288804B2012002901BE0002009E04100C8
:100AD000FF225202891809884200294B9952411C71
:100AE00088B2FF28F3DD2C80FF2000F0CFF8002330
:100AF000012252022249FF2000F0FAF80120029060
:100B000000BF00BF224620A104A802F0C3FF0020BE
:100B10000090F01B401C0D225043C1B20C2304AACC
:100B2000662000F0AFFF00F0B3FE02980028B1D0BD
:100B300000BF00BF00BF00BF0398012813D12246A9
:100B40000DA104A802F0A6FF01200090F01B401C9C
:100B50000D225043C1B20C2304AA662000F092FF7C
:100B600000F096FE02E000F093FE41E700BF0BB0FC
:100B7000F0BD00000F2700002534642000000000B5
:100B80005AF9FF1F7AF0FF1F25346423000000008C
:100B900070B5054600F036FDECB21AE0642010494D
:100BA000088020463030C2B201230021282000F006
:100BB00013FF00F06DFE012C04D14B20C00000F0AB
:100BC00023F804E0AF20800000F01EF800BF601E94
:100BD000C4B2002CE2D1FF202D300149088070BD45
:100BE00000F0FF1F002009E04100FF225202891897
:100BF00009884200034B9952411C88B2FF28F3DD5B
:100C0000704700005AF9FF1F10B5034600240DE09D
:100C1000084800F011F800BF00BF00BF00BF00BFD0
:100C200000BF00BF00BF00BF601C84B29C42EFD376
:100C300010BD0000E7030000002123E000BF00BF5B
:100C400000BF00BF00BF00BF00BF00BF00BF00BFAC
:100C500000BF00BF00BF00BF00BF00BF00BF00BF9C
:100C600000BF00BF00BF00BF00BF00BF00BF00BF8C
:100C700000BF00BF00BF00BF00BF00BF00BF00BF7C
:100C80004A1C91B242008A42D8D8704770B50546D6
:100C90006C020020084948700A2048722002000EA9
:100CA0000872012048702004000E48720C7200F097
:100CB00057F8002070BD0000000002400A49496951
:100CC000012212031143084A516100BF07494979C3
:100CD000802211400029F9D0272001464031034AE3
:100CE000D1703021517170470080044000000240F3
:100CF000FFB581B007460C46790204980D1804260A
:100D00000020009023E0002014494870062048721B
:100D10002802000E0872012048702804000E487254
:100D2000FC20284008720220487020780872607801
:100D3000487203204870A0780872E0784872A419BD
:100D4000AD1900F00DF80098801980B20090039959
:100D500000988842D7D3002005B0F0BD00000240C3
:100D600010B572B630200A4948710A480A4908602D
:100D70000748401D0968884762B605484079332115
:100D80000840002801D0012010BD0020FCE7000031
:100D900000000240C3F0FF1FD0F0FF1F08B5002085
:100DA00000906948006980210840002835D16748D3
:100DB0000078FFF729FF6448006980210840002877
:100DC00028D163480088401C614908800846008893
:100DD000142803DD01205D49087016E05C48008896
:100DE0000A2803DD0A20594908700EE05848008897
:100DF000052803DD1E205549087006E05448008888
:100E0000032802DD282051490870012000900820A5
:100E1000504908806846007808BD4B480069402169
:100E20000840002835D149480078FFF7EDFE4648D4
:100E3000006940210840002828D145480088401C0E
:100E40004349088008460088142803DD01203F49F3
:100E5000087016E03E4800880A2803DD0A203B4956
:100E600008700EE03A480088052803DD1E20374947
:100E7000087006E036480088032802DD2820334940
:100E800008700220009008203249088068460078E7
:100E9000C2E72D484030006910210840002812D1D7
:100EA0002A480078FFF7B0FE27484030006910213B
:100EB0000840002804D1082026490880032000901B
:100EC00068460078A8E7204840300069012189027F
:100ED0000840002813D11D480078FFF795FE1A48F6
:100EE00040300069012189020840002804D108200F
:100EF0001849088004200090684600788CE7124862
:100F000040300069012149020840002813D10F48F0
:100F10000078FFF779FE0C48403000690121490252
:100F20000840002804D108200A49088005200090C4
:100F30006846007870E7642004490870002004497E
:100F4000088000BF68E7000000F00F4004F0FF1FBA
:100F500002F0FF1F00F0FF1F70B505460C46002C85
:100F600002D0012C0AD104E008A1284602F092FD2B
:100F700009E007A1284602F08DFD04E005A12846FE
:100F800002F088FD00BF00BF70BD00004F46460064
:100F90004F4E20003F3F3F00F0B587B000F032FBDE
:100FA000CF4840680121C9070843CD494860084639
:100FB0004068012149040843C94948600120C949E2
:100FC00008700020C8490860C8490860002500F082
:100FD0002FFBC748408C401E2821484384B2600044
:100FE000C449085AC4490880601C4000C149085AD5
:100FF000C2490880A01C4000BE49085AC049088068
:10100000E01C4000BB49085ABE490880201D400032
:10101000B849085ABC490880601D4000B549085AC3
:10102000BA490880A01D4000B249085AB849088052
:10103000E01D4000AF49085AB649088020460830F4
:101040004000AC49085AB449088047E1232D01D13A
:10105000002000E0284605460F2D47D006DC002D75
:101060000BD0052D24D00A2D7FD134E0142D49D08A
:10107000192D53D01E2D78D164E099484030406836
:1010800002210843964940314860084640680121E2
:1010900049040843924940314860084640680121AC
:1010A000090408438E494031486000F015FA5CE0BD
:1010B0008B484030406802210843894940314860EC
:1010C0000846406801214904084385494031486089
:1010D00000F02EFA49E0824840304068022108437F
:1010E0007F494031486000F0A3F93EE07C48403041
:1010F000406801214904084379494031486000F0C3
:1011000087F932E0764840304068012109040843FD
:1011100073494031486000F09BF926E07048403048
:1011200040680121490408436D4940314860084640
:10113000406801210904084369494031486000F0D2
:10114000E1F912E0664840304068022108436449F2
:10115000403148600846406801210904084360495D
:101160004031486000F0F4F900BF00BF681CC5B210
:1011700000265F48C08C012813D16849885FFF2191
:101180002D3188420CDC6549885F6549884207DB60
:1011900064480088642803DB63480088642800DA18
:1011A00001265348008D002808D04F480068C10030
:1011B0004F48008D0A22504381421DD84C48408D33
:1011C000002823D04A49488DFFF7FBF80746FFF770
:1011D0001FF9564A564B01910090FFF707F8059109
:1011E000049042480068FFF7F3F803910290059BD2
:1011F000049AFFF721F909D201204E490870002016
:1012000038490870C820FFF7FFFC0126FFF7C6FD2C
:10121000002801D1002E01D0012000E0002000288C
:1012200000D132E000202F4908702D48806801214C
:10123000C90708432A498860084680680121490493
:1012400008432749886000203A4908702448403004
:1012500040680221084322494031486008464068FE
:101260000121490408431E4940314860084640684E
:101270000121090408431A494031486000F0E6F9A9
:1012800000F03EFA002007B0F0BD00BF2349002067
:10129000085EFFF78BF82849086028490020085E9F
:1012A000FFF784F8244948601E480088FFF789F852
:1012B0002149C8601C480088FFF783F81E4908616F
:1012C00019490988174A1288881AFFF76FF81A49CE
:1012D000486100F033FD00F03DFD00BFB6E60000C0
:1012E00000F00F4099F0FF1F9CF0FF1FA0F0FF1FC0
:1012F000DAFAFF1F5AF9FF1FA6F0FF1FA8F0FF1F21
:10130000AAF0FF1FACF0FF1FAEF0FF1FB0F0FF1FF1
:10131000B2F0FF1FB4F0FF1FB6F0FF1F78F0FF1F01
:10132000D4FEFFFF6CF0FF1F6EF0FF1FCDCCCCCCC6
:10133000CCCC4C40A4F0FF1FD8F8FF1F7AF0FF1F61
:1013400031488069802188432F4988610846406977
:10135000802188432C4948612C48806880210843BB
:101360002A49886028488069402188432649886145
:1013700008464069402188432349486123488068E2
:1013800040210843214988601F484030806910216E
:1013900088431D49403188610846406910218843CF
:1013A0001949403148611948C0681021084317495C
:1013B000C86015484030806909158843124940319A
:1013C000886108464069091588430F4940314861E2
:1013D0000E48C068091508430C49C8600A484030E7
:1013E0008069491588430849403188610846406949
:1013F000491588430449403148610448C06849158B
:1014000008430249C860704700F00F400090044054
:101410000548008A012806D1044880680121090492
:101420000843024988607047DAFAFF1F40F00F4016
:101430000548008A012806D1044880680121490432
:101440000843024988607047DAFAFF1F40F00F40F6
:101450000948008A01280DD1084880680121490403
:10146000084306498860084680680121090408434A
:101470000249886070470000DAFAFF1F40F00F4011
:1014800014484069022108431249486108464068EF
:10149000022108430F494860084640690121490478
:1014A00008430C4948610846406801214904084343
:1014B0000849486008464069012109040843054974
:1014C0004861084640680121090408430149486011
:1014D0007047000040F00F400848008A01280CD1F6
:1014E00007488068022108430549886008468068EB
:1014F000012149040843024988607047DAFAFF1F56
:1015000040F00F400848008A01280CD10748806845
:1015100002210843054988600846806801210904C2
:101520000843024988607047DAFAFF1F40F00F4015
:101530000548008A012805D1044880680221084333
:101540000249886070470000DAFAFF1F40F00F4040
:101550000C48008A012813D10B48806802210843F7
:101560000949886008468068012149040843064902
:1015700088600846806801210904084302498860A0
:1015800070470000DAFAFF1F40F00F4010B5002846
:1015900019DA1A4A03071B0F083B9B089B00D25815
:1015A0008307DC0EFF23A3409A438B071B0E84079F
:1015B000E40EA3401A43114B0407240F083CA4086F
:1015C000A4001A5118E00E4A03231B02D218830804
:1015D0009B00D2588307DC0EFF23A3409A438B075E
:1015E0001B0E8407E40EA3401A43054B0324240278
:1015F0001B198408A4001A5110BD00001CED00E066
:1016000000E100E010B500200CE0002106E000221F
:10161000CB00064C1B191A544A1CD1B28029F6DBA8
:10162000411CC8B20828F0DB10BD0000D8F0FF1F35
:1016300000B500218D2000F0C7FA0021102000F035
:10164000C3FA0021AE2000F0BFFA00BD00B50021B2
:101650008D2000F0B9FA0021142000F0B5FA002125
:10166000AF2000F0B1FA00BDF7B57F2801DC3F29BB
:1016700000DDFEBD0C46CE17760F3619F610072793
:10168000BE1BF2B2CE17760F3619F610F6008E1B7F
:10169000F5B20724661B0124B440E3B2029C002C7F
:1016A00009D0C400094EA419A45C1C43C600074F0E
:1016B000F619B45408E0C400044EA419A45C9C4379
:1016C000C600024FF619B45400BFD2E7D8F0FF1F8E
:1016D000FFB506460F4634460DE03D4606E0294676
:1016E0002046099AFFF7C0FF681CC5B203988542DF
:1016F000F5DD601CC4B202988442EEDDFFBD00003F
:1017000000B5624840690121C90608435F49486144
:10171000084640680121C90608435C4948600846FC
:1017200040690121890608435849486108464068D4
:1017300001218906084355494860544840304069B2
:101740008915084351494031486108464068891568
:1017500008434E49403148604C4840698905084378
:101760004A4948610846406801210907084347493A
:10177000486008464068012109070843434948601A
:1017800042484030806889150843404940318860AC
:101790007D20400107E0642101E04A1E91B200294A
:1017A000FBDC411E88B20028F5DC38484030406838
:1017B000FF21013108433549403148600021AE2006
:1017C00000F002FA0021D52000F0FEF9002180206F
:1017D00000F0FAF90021A82000F0F6F900213F20DE
:1017E00000F0F2F90021D32000F0EEF900210846C4
:1017F00000F0EAF90021402000F0E6F900218D20F8
:1018000000F0E2F90021142000F0DEF90021202090
:1018100000F0DAF90021022000F0D6F90021A12021
:1018200000F0D2F90021C02000F0CEF90021DA202A
:1018300000F0CAF90021122000F0C6F90021812031
:1018400000F0C2F90021EF2000F0BEF90021D920FC
:1018500000F0BAF90021F12000F0B6F90021DB20F8
:1018600000F0B2F90021302000F0AEF90021A420F0
:1018700000F0AAF90021A62000F0A6F90021AF206F
:1018800000F0A2F9FFF7BEFE00BD000000F00F401F
:1018900030B500241CE02146B031C8B2002100F070
:1018A00093F90021084600F08FF90021102000F084
:1018B0008BF9002508E0E900074A8918085D012135
:1018C00000F082F9681CC5B2802DF4DB601CC4B244
:1018D000082CE0DB30BD0000D8F0FF1FFFB584B05E
:1018E0000E4615461C4602962046E3175B0F1B1852
:1018F000DB102246E7177F0FBF18FF10FF00E71B22
:1019000001D0012700E00027DB192146E70F7F18EF
:101910007F107B43DBB2019328462038C5B20027F5
:101920004FE00C2C04D0102C09D0182C14D10CE052
:101930000C20684325494018C05D03900DE0280144
:1019400023494018C05D039007E0242068432149E3
:101950004018C05D039000E000BF00BF0020009071
:1019600029E0802103980840002805D031460D9ACF
:101970000498FFF779FE0AE00D98002801D10120B4
:1019800000E00020024631460498FFF76DFE039800
:101990004006000E0390701CC6B20298301AA04296
:1019A00005D1029E0498401CC0B2049006E0009845
:1019B000401CC0B2009000980828D2DB00BF781C01
:1019C000C7B201988742ACDB08B0F0BD002E010021
:1019D0007432010064380100FFB581B0064600246E
:1019E00007E02548015D0398814200D103E0601CB7
:1019F000C4B2092CF5DB00BF0394002438E00027B3
:101A00002BE0FF218131039848431C4941180620EF
:101A10006043C019085C009000251AE01848405D3A
:101A200000990840002805D03046049A0299FFF733
:101A30001BFE0AE00498002801D1012000E00020EC
:101A4000024630460299FFF70FFE701CC6B2681CB2
:101A5000C5B2082DE2DB781CC7B2062FD1DB029895
:101A6000401CC0B2029030463038C6B2601CC4B2CE
:101A7000402CC4DB05B0F0BD0449000094FD00001B
:101A8000C0450100FFB581B0064614461D460A9FB9
:101A90000DE0009722782B4630460299FFF71EFF93
:101AA0002846E90F091849108919CEB2641C20781C
:101AB0007E2802DC20782028EBDA05B0F0BDF8B5EE
:101AC00005460F4614461E461FE02078002800D128
:101AD0001CE020787E280DDC207820280ADB009688
:101AE00022780C2339462846FFF7F8FEA81DC5B218
:101AF000641C0AE00096637822783946284600F094
:101B000007F828460C30C5B2A41CDEE700BFF8BDBC
:101B1000FFB581B0064600240DE02848015D03981A
:101B2000814206D12549601C095C0498814200D19C
:101B300003E0A01CC4B2782CEFDB00BF03940024A8
:101B400037E000272AE0FF218131039848431C49F0
:101B500040186100C919405C009000251AE019483E
:101B6000405D00990840002805D030460A9A029945
:101B7000FFF77AFD0AE00A98002801D1012000E071
:101B80000020024630460299FFF76EFD701CC6B277
:101B9000681CC5B2082DE2DB781CC7B2022FD2DB6D
:101BA0000298401CC0B2029030461038C6B2601C89
:101BB000C4B20C2CC5DB05B0F0BD00001C49000010
:101BC00094490000C045010010B5002902D0012948
:101BD00010D107E0204A926801231B071A431E4BCD
:101BE0009A6007E01C4A526801231B071A431A4BEC
:101BF0005A6000BF00BF002224E0174B9B680124FD
:101C0000E4062343144CA36080230340002B07D039
:101C100023465B680124A40623430F4C636006E05F
:101C20000D4B9B680124A40623430B4CA3600A4B75
:101C30005B680124E4062343074C63604306180EE7
:101C4000531CDAB2082AD8DB034A526801231B0767
:101C50001A43014B5A6010BD00F00F4010B50D48FB
:101C6000C068012108430B49C8600B480088082858
:101C700007DB09480088083807490880FEF702FE9C
:101C800006E006488068012149020843034988604C
:101C900010BD00000071034000F0FF1F00F00F4076
:101CA00070B504460D4616461F4840690221084398
:101CB0001D4948611D480068022188431B4908608E
:101CC00020461630C206D20E01219140184A1160FA
:101CD00000BF18486843184922018850084621016E
:101CE000401880680221084313492201891888603E
:101CF0001148210140188168012001430E4822014A
:101D0000801881602146163148B23146FFF73EFC0B
:101D100020461630C206D20E01219140044A803A74
:101D2000116000BF70BD00000080044000700340DF
:101D300080E100E0409C00000071034010B5552098
:101D400002F079FDAA2002F076FDAE2002F073FDCC
:101D500010BD0000F8B50026002000900A2555208F
:101D600002F069FDAA2002F066FDAD2002F063FDDD
:101D7000284602F060FD002419E0A0000F49085831
:101D8000009068460678304602F055FD6846467871
:101D9000304602F050FD68468678304602F04BFD32
:101DA0006846C678304602F046FD601CC4B2AC42BC
:101DB000E3DB0D2002F03FFDF8BD0000D8F8FF1F67
:101DC00010B51748408C030001F08FFE0627040B66
:101DD00012192027012313A213210020FFF76FFE01
:101DE0001CE0012315A213210020FFF768FE15E077
:101DF000012318A213210020FFF761FE0EE001234A
:101E00001AA213210020FFF75AFE07E001231DA2AA
:101E100013210020FFF753FE00E000BF00BF10BDFC
:101E2000DAFAFF1F2020202020202020B0B820D266
:101E3000BB20202020202020202000002020202047
:101E400020202020B0B820B6FE20202020202020F6
:101E5000202000002020202020202020B0B820C8F2
:101E6000FD202020202020202020000020202020D5
:101E700020202020B0B820CBC420202020202020EB
:101E8000202000002020202020202020B0B820CEBC
:101E9000E520202020202020202000001248134987
:101EA0008880012048702320087011200005104907
:101EB0004862104840780007000F0E49487094208F
:101EC0000D4908701A200B49087000BF09480079B5
:101ED000102108400028F9D100BF064800790C21E4
:101EE00008400028F9D1704703E8000000200540B1
:101EF000008004400040064000500640F3B581B029
:101F00000646B00049490C58002E04D0012E22D0BC
:101F1000022E62D140E04648C0688021884344498F
:101F2000C8600846406901210905084340494861E5
:101F30004048C078082108433E49C8700846C07828
:101F4000042108433B49C8700846C0782021084353
:101F50003849C87000BF3648006901210903884329
:101F60003349086108464069012149050843304961
:101F700048613148C078082108432F49C870084695
:101F8000C078042108432C49C8700846C078202135
:101F900008432949C87021E0254800690121490307
:101FA000884323490861084640690121890508439F
:101FB0001F4948612148C078082108431F49C8705B
:101FC0000846C078042108431C49C8700846C078F8
:101FD000202108431949C87000E000BF00BFE07825
:101FE0000C218843E0700020A07015480299FEF78C
:101FF00085F8471D0A213846FEF780F885B211485A
:10200000854200DD05462078400940012070207897
:10201000E904C90E0843207065700020A070A0710B
:102020006071E0780C210843E070FEBDF4460100C9
:102030000080044000A0064000B0064000C00640FA
:1020400040787D01FF1F000030B502460B4690002E
:102050000B4D2C58002108E02079802528400028CD
:1020600001D0E37104E0481CC1B206488142F3DBB1
:1020700000BF0448814201DB012030BD0020FCE7A5
:10208000F4460100BBFB0000F0B5CDB001250026F1
:1020900001240027FFF7B6FAFF222D32774902A864
:1020A000FEF742F8012302AA00210846FFF707FDC8
:1020B0001E20604302A9421801230D210020FFF7D2
:1020C000FEFC601C1E21484302A9421801231A216C
:1020D0000020FFF7F4FCA01C1E21484302A942186F
:1020E000012327210020FFF7EAFCE01C1E214843C2
:1020F00002A94218012334210020FFF7E0FC00BFB1
:102100002E462746FEF74AFE012806D0022807D0B1
:1021100003280BD004281CD105E0681EC5B218E0C6
:10212000681CC5B215E000204DB0F0BD012D06D0F1
:10213000022D06D0032D06D0042D08D105E01F2066
:10214000F2E72020F0E72120EEE72220ECE7002054
:10215000EAE700BF012D01DA092000E02846054624
:10216000092D01DD012000E028460546A54201DADF
:10217000284600E020460446E81EA04200DD00E0BC
:102180002046C4B2AE421FD001200C2320221946A3
:1021900000901846FFF7A2FB01200C2320221921F2
:1021A00000901846FFF79AFB01200C2320222621DD
:1021B00000901846FFF792FB01200C2320223221C9
:1021C00000901846FFF78AFBA74226D01E206043E6
:1021D00002A9421801230D210020FFF770FC601CAA
:1021E0001E21484302A9421801231A210020FFF7AB
:1021F00066FCA01C1E21484302A942180123272186
:102200000020FFF75CFCE01C1E21484302A9421895
:10221000012334210020FFF752FCA54208D1012000
:102220000C234022194600901846FFF757FB22E086
:10223000601C854208D101200C2340221921009006
:102240001846FFF74BFB16E0A01C854208D1012081
:102250000C234022262100901846FFF73FFB0AE09E
:10226000E01C854207D101200C234022322100903E
:102270001846FFF733FBFFF70BFB41E7C8450100AA
:10228000F0B58BB0FFF7BEF900BF72480068FEF7EB
:1022900098F871490190FDF76BFF0290FEF7B8F8CE
:1022A00004460D466D480068FEF78BF86C490190B6
:1022B000FDF75EFF0290FEF7ABF8064632460B468E
:1022C00068A103A80195009401F0E4FB01200C2310
:1022D00003AA282100900020FFF7D4FB5D48006886
:1022E000FEF76FF801905D480068FEF76AF800900D
:1022F0000199FDF73DFF0290FEF78AF806465E4A17
:102300005E4BFDF7DBFF044622460B465CA103A8AB
:1023100001F0C0FB01200C2303AA3521009000200E
:10232000FFF7B0FB01200C2357A2002100900620EC
:10233000FFF7A8FB5548808C3030C2B20123002142
:102340002820FFF749FB5148808C052801DB052038
:1023500001E04E48808C4D498884FEF71FFD030044
:1023600001F0C3FB06730434646B72734748808CBE
:10237000401C81B245488184808C052801DB052002
:1023800001E04248808C414988840846808C40495D
:102390000880002009E04100FF22520289180988C4
:1023A00042003C4B9952411C88B2FF28F3DD38486B
:1023B000018836488184FF20FEF768FC0023012253
:1023C00052023449FF20FEF793FC3EE02F48808CF8
:1023D000002801D1012001E02C48808C2B49888401
:1023E0000846808C401E81B228488184808C284910
:1023F0000880002009E04100FF2252028918098864
:102400004200244B9952411C88B2FF28F3DD20483A
:1024100001881E488184FF20FEF738FC002301223A
:1024200052021C49FF20FEF763FC0EE01749888C1E
:10243000FEF7AEFBFEF7B0FD07E00020054908609F
:10244000064908600BB0F0BD00BF00BFFFF720FADF
:102450001BE700009CF0FF1F0000C842A0F0FF1F18
:102460000000B445252E3366202020202020202087
:10247000202020252E336600CDCCCCCCCCCC4C40BB
:10248000252E3366000000003C000000DAFAFF1F32
:1024900006F0FF1F5AF9FF1FF0B589B0FFF7B2F839
:1024A000012313A200210846FFF709FB00BFFEF736
:1024B00075FC042802D1032009B0F0BD02F06CF9CC
:1024C0000746FDF773FF0446FDF7A2FF05462A46BF
:1024D0000B460DA101A801F0DDFA01200C2301AA91
:1024E0002E2100900020FFF7CDFAFFF7D1F9DEE7AB
:1024F000203C20202020CDD32020C2DD2020D2C7A8
:10250000202020202020000025332E3166202000AE
:1025100038B501240025FFF775F8012389A20321AE
:102520000020FFF7CCFA8D48408C012801DA052005
:1025300001E08A48408C894948840846408C052837
:1025400001DD012001E08548408C84494884FFF783
:1025500037FC012382A223210020FFF7B0FA0123D8
:1025600085A233210020FFF7AAFA00BF2546FEF717
:1025700015FC030001F0B9FA0691040D16295D91CE
:10258000601EC4B2012C01DA042000E0204604469B
:1025900084E0601CC4B2042C01DD012000E0204670
:1025A00004467BE0012C06D0022C06D0032C06D07A
:1025B000042C08D105E0012038BD0220FCE70320EF
:1025C000FAE70420F8E70020F6E7022C30D1634850
:1025D000408C401E81B261484184408C012801DA60
:1025E000052001E05D48408C5C4948840846408CE9
:1025F00067490880002009E04100FF225202891843
:1026000009884200634B9952411C88B2FF28F3DDD0
:102610005F48018851484184FF20FEF737FB0023C3
:10262000012252025B49FF20FEF762FBFFF7C8FB65
:1026300034E0022C30D14948408C401C81B24748DC
:102640004184408C052801DD012001E04348408C95
:10265000424948840846408C4D490880002009E0E2
:102660004100FF225202891809884200494B9952C1
:10267000411C88B2FF28F3DD454801883748418472
:10268000FF20FEF703FB0023012252024149FF20F5
:10269000FEF72EFBFFF794FB00E000BF00BFA54252
:1026A0001FD001200C232022032100901046FFF7A9
:1026B00015F901200C232022132100901046FFF76A
:1026C0000DF901200C232022232100901046FFF752
:1026D00005F901200C232022332100901046FFF73A
:1026E000FDF8012C06D0022C0DD0032C14D0042CA4
:1026F00024D11AE001200C23402203210090202045
:10270000FFF7ECF81AE001200C234022132100907F
:102710002020FFF7E3F811E001200C2340222321C1
:1027200000902020FFF7DAF808E001200C23402277
:10273000332100902020FFF7D1F800BF00BFFFF742
:10274000A7F813E72020202020202020B7A220B3C4
:10275000B52020202020202020200000DAFAFF1FB2
:102760002020202020202020CDE220C9E820202089
:102770002020202020200000202020202020202099
:10278000C9E820D6C32020202020202020200000BF
:1027900006F0FF1F5AF9FF1FF0B5F74B9D440124C7
:1027A0000021F64868448161012541610161F448D6
:1027B000408C401E2821484386B2FEF723FFF14893
:1027C000684400F05FFF0123EE4A6A440021084696
:1027D000FFF775F91E206843EA496944421801234E
:1027E0000D210020FFF76BF9681C1E214843E549C5
:1027F0006944421801231A210020FFF760F9A81C40
:102800001E214843DF496944421801232721002043
:10281000FFF755F9E81C1E214843DA49694442187C
:10282000012334210020FFF74AF900BFD348684450
:1028300084614561FEF7B2FA030001F056F9060C17
:10284000040DFB161B0C601EC4B2012C01DA102013
:1028500000E02046044697E3601CC4B2102C01DD62
:10286000012000E0204604468EE30020C34B1C33C9
:102870009D44F0BD002010E000210AE0C200C24BE0
:10288000D218525CC300FFAF3C37DB195A544A1CC4
:10289000D1B20829F2DB411CC8B28028ECDB01214F
:1028A000FFA8816300214163E4E20120382347222D
:1028B000172100901E20FEF70BFFFFA8806B012858
:1028C00002D002283AD11CE00123B0A21A21212013
:1028D000FFF7F5F800201923442219460090212023
:1028E000FEF7F6FE00202623442219460090212000
:1028F000FEF7EEFE0023A7A229212120FFF7DFF833
:102900001CE00023A1A21A212120FFF7D8F80123FF
:10291000A0A229212120FFF7D2F800202823442259
:10292000194600902120FEF7D3FE002035234422D3
:10293000194600902120FEF7CBFE00BF00BFFEF736
:102940002DFA030001F0D1F8060704080CFD0D076D
:102950000121FFA881638AE20221FFA8816386E248
:1029600000BF00200A9013E000200BE00A99C90084
:10297000854A89180A5C0A99C9000CABCB181A540D
:10298000411CC8B20828F1DB0A98401CC1B20A9168
:102990000A988028E8DB012700210B9144E2FFA878
:1029A000806B012847D12F236E220E2100904520F5
:1029B000FEF78EFE012F02D0022F3AD11CE0012338
:1029C00076A211214820FFF77AF8002010236B220D
:1029D000194600904820FEF77BFE00201D236B2245
:1029E000194600904820FEF773FE00236DA22021B7
:1029F0004820FFF764F81CE0002368A2112148205A
:102A0000FFF75DF8012367A220214820FFF757F860
:102A100000201F236B22194600904820FEF758FE25
:102A200000202C236B22194600904820FEF750FE10
:102A300000BF3AE139E2FFA8806B0228F9D10120FA
:102A40003F237A22014600904520FEF741FE4C4884
:102A5000408C030001F049F8066804182C405468C3
:102A600052A102A801F016F853A104A8013001F008
:102A700011F854A106A8023001F00CF854A108A8DE
:102A8000033001F007F84FE054A102A801F002F86A
:102A900049A104A8013000F0FDFF4AA106A80230B8
:102AA00000F0F8FF4AA108A8033000F0F3FF3BE074
:102AB0004AA102A800F0EEFF3CA104A8013000F0FA
:102AC000E9FF40A106A8023000F0E4FF40A108A8F9
:102AD000033000F0DFFF27E040A102A800F0DAFF9A
:102AE00032A104A8013000F0D5FF33A106A80230BE
:102AF00000F0D0FF36A108A8033000F0CBFF13E0B0
:102B000036A102A800F0C6FF28A104A8013000F0F9
:102B1000C1FF29A106A8023000F0BCFF29A108A826
:102B2000033000F0B7FF00BF00BF002302AA04215A
:102B30004820FEF7C4FF002304AA013213214820D5
:102B400000E090E1FEF7BBFF002306AA023222213B
:102B50004820FEF7B4FF002308AA033231214820A1
:102B6000FEF7ADFF012F3FD0022F54D0032F6AD0C4
:102B7000042F4FD17FE0000064F5FFFF800A0000C2
:102B8000DAFAFF1F38080000D8F0FF1F20C7E5BFA2
:102B9000D520000020B8B4D6C620000020B5B1C7AB
:102BA000B020000020CBF9D3D020000020B7BDB06A
:102BB000B8B6FE200000000020B7BDB0B8C8FD20A8
:102BC0000000000020B7BDB0B8CBC420000000005A
:102BD00020B7BDB0B8CEE5200000000020B7BDB0E2
:102BE000B8D2BB2000000000012302AA0421482023
:102BF000FEF765FF00200323772219460090482046
:102C0000FEF766FD00201023772219460090482029
:102C1000FEF75EFD47E0012304AA0132132148209C
:102C2000FEF74DFF0020122377221946009048201E
:102C3000FEF74EFD00201F23772219460090482002
:102C4000FEF746FD2FE0012306AA0232222148208A
:102C5000FEF735FF002021237722194600904820F7
:102C6000FEF736FD00202E237722194600904820DB
:102C7000FEF72EFD17E0012308AA03323121482078
:102C8000FEF71DFF002030237722194600904820D0
:102C9000FEF71EFD00203D237722194600904820B4
:102CA000FEF716FD00BF00BF00BFFEF777F8030078
:102CB00000F01BFF06B704132522B6B7FFA8806BF0
:102CC000012801D1012707E0781EC7B2012F01DAE0
:102CD000012000E038460746A3E0FFA8806B0128EA
:102CE00001D1022707E0781CC7B2042F01DD0420C0
:102CF00000E03846074694E001200B9091E0F3484D
:102D0000408CB84201DD0A9702E0781CC1B20A91FA
:102D1000FFA8806B0A214843C019162850D006DC52
:102D20000B2809D00C2826D0152876D147E0172883
:102D300047D0182871D145E0002009E04100FF226A
:102D40005202891809884200E14B9952411C88B20D
:102D5000FF28F3DD0021601E80194000DC4A11527B
:102D6000FF20FDF793FF002301225202D849FF20E4
:102D7000FDF7BEFF51E0002009E04100FF225202B2
:102D8000891809884200D24B9952411C88B2FF2809
:102D9000F3DD002006E0002132185200CC4B99529E
:102DA000411CC8B22828F6DBFF20FDF76FFF002387
:102DB00001225202C649FF20FDF79AFF2DE000BF15
:102DC00000BF00BF002009E04100FF225202891825
:102DD00009884200BE4B9952411C88B2FF28F3DD9E
:102DE00000200DE00A99491E282251430918490084
:102DF000B74A515A32185200B54B9952411CC8B2C9
:102E00002828EFDBFF20FDF741FF002301225202BB
:102E1000AF49FF20FDF76CFF00BF00BF022025E592
:102E200000BF00BFFEF734FD0B98012800D0B6E5C7
:102E300000200A9013E000200BE00A99C9000CAAB8
:102E400089180A5C0A99C900A24BCB181A54411C74
:102E5000C8B20828F1DB0A98401CC1B20A910A984E
:102E60008028E8DB03E00120FFA9486300BF00BF22
:102E7000FEF70EFDFFA8406B012800D015E50020ED
:102E800010E000210AE0C200FFAB3C33D218525CD4
:102E9000C300904FDB195A544A1CD1B20829F2DB07
:102EA000411CC8B28028ECDB6EE0230000F01DFE60
:102EB0000B6A07101A242E38424C56616A007000C3
:102EC00083494218012329462046FDF77DFD59E03C
:102ED000701C40007E494218012329462046FDF718
:102EE00073FD4FE0B01C4000794942180123294688
:102EF0002046FDF769FD45E0F01C4000744942188A
:102F0000012329462046FDF75FFD3BE0301D4000D0
:102F10006F494218012329462046FDF755FD31E04F
:102F2000701D40006A494218012329462046FDF7DA
:102F30004BFD27E0B01D400065494218012329469A
:102F40002046FDF741FD1DE0F01D4000604942189C
:102F5000012329462046FDF737FD13E030460830AF
:102F600040005B494218012329462046FDF72CFD0D
:102F700008E0700056494218012329462046FDF713
:102F800023FD00BF00BF00BF00BFAC4201DA2046F6
:102F900000E028460546E01EA84200DD00E0284685
:102FA000C5B24D4868448069A04204D14A4868448B
:102FB0000069012827D101200C2320221946009006
:102FC0000620FEF78BFC01200C2320221921009003
:102FD0000620FEF783FC01200C23202226210090EE
:102FE0000620FEF77BFC01200C23202232210090DA
:102FF0000620FEF773FC3948684400F043FB0020CC
:10300000354969440861344868444069A8422AD077
:103010001E20684331496944421801230D210020D4
:10302000FEF74DFD681C1E2148432C496944421897
:1030300001231A210020FEF742FDA81C1E2148434F
:10304000264969444218012327210020FEF737FD55
:10305000E81C1E21484321496944421801233421B8
:103060000020FEF72CFDAC4208D101200C234022A9
:10307000194600900620FEF731FC22E0681C8442CD
:1030800008D101200C234022192100900620FEF7D0
:1030900025FC16E0A81C844208D101200C23402204
:1030A000262100900620FEF719FC0AE0E81C844265
:1030B00007D101200C234022322100900620FEF788
:1030C0000DFCFEF7E5FBFFF7B1FB0000DAFAFF1F8E
:1030D0005AF9FF1FD8F0FF1F800A000038080000CF
:1030E00000B585B014216846FDF737F8FEF78AFA77
:1030F000012315A200210846FEF7E1FC00BFFDF701
:103100004DFE042802D1032005B000BD1448002262
:10311000825E14A1684600F0BDFC01236A461A21B4
:103120000020FEF7CCFC13480022825E12A1684604
:1031300000F0B0FC01236A4627210020FEF7BFFC07
:10314000FEF7A6FBDBE70000203C20202020B1E0BA
:1031500020C2EB20C6F720D6B5202020202020005A
:1031600078F0FF1F4C5FB1E0C2EBC6F73A2535643B
:10317000200000007AF0FF1F525FB1E0C2EBC6F7FB
:103180003A2535642000000000B589B0FEF73AFA10
:1031900001231CA200210846FEF791FC00BFFDF7A9
:1031A000FDFD042802D1032009B000BD1B4803889F
:1031B0001B4802881BA101A800F06CFC01200C2315
:1031C00001AA194600900020FEF75CFC1448008814
:1031D00012490988421A18A101A800F05BFC0120DD
:1031E0000C2301AA192100900020FEF74BFC0120BE
:1031F0000C2301AA2D2100900020FEF743FCFEF7CE
:1032000047FBCCE7203C20202020B5E72020B8D089
:103210002020D6B520202020202000006EF0FF1FA7
:103220006CF0FF1F41445F4C3A2534642020414438
:103230005F523A25346400004C2D523A2534642004
:103240002020202020000000F0B5CDB00125002670
:103250000124002700204C90FEF7D4F901A800F0CB
:1032600031F9012301AA00210846FEF728FC1E209F
:10327000604301A9421801230D210020FEF71FFC25
:10328000601C1E21484301A9421801231A21002075
:10329000FEF715FCA01C1E21484301A9421801237A
:1032A00027210020FEF70BFCE01C1E21484301A94A
:1032B0004218012334210020FEF701FC00BF2E46F6
:1032C0002746FDF76BFD012806D002280DD0032804
:1032D00017D0042862D111E0681EC5B2012D01DAB1
:1032E000092000E02846054658E0681CC5B2092DB3
:1032F00001DD012000E0284605464FE000204DB0EA
:10330000F0BD2B0000F0F1FB0A46060D151C232A28
:1033100031383F4601236A4A21462846FDF754FBCF
:103320003AE00123664A921C21462846FDF74CFBF1
:1033300032E0634A921E21462846FDF7C3FA2BE08D
:103340005F4A123A21462846FDF7BCFA24E05C4A5F
:10335000183A21462846FDF7B5FA1DE0584A163AB4
:1033600021462846FDF7AEFA16E0554A143A2146A2
:103370002846FDF7A7FA0FE0514A121D21462846BC
:10338000FDF7A0FA08E04E4A083A21462846FDF724
:1033900099FA01E00020B2E700BF00BF00BFA542DC
:1033A00001DA284600E020460446E81EA04200DD7F
:1033B00000E02046C4B2AE4202D14C98012824D18C
:1033C00001200C232022194600900620FEF786FAE1
:1033D00001200C232022192100900620FEF77EFAFE
:1033E00001200C232022262100900620FEF776FAE9
:1033F00001200C232022322100900620FEF76EFAD5
:1034000001A800F05FF800204C90A74226D01E20B3
:10341000604301A9421801230D210020FEF74FFB54
:10342000601C1E21484301A9421801231A210020D3
:10343000FEF745FBA01C1E21484301A942180123A9
:1034400027210020FEF73BFBE01C1E21484301A979
:103450004218012334210020FEF731FBA54208D198
:1034600001200C234022194600900620FEF736FA70
:1034700022E0601C854208D101200C234022192142
:1034800000900620FEF72AFA16E0A01C854208D11B
:1034900001200C234022262100900620FEF71EFA70
:1034A0000AE0E01C854207D101200C234022322192
:1034B00000900620FEF712FAFEF7EAF9FFE6000098
:1034C00002FBFF1F38B504460020009030A12046C3
:1034D00000F0E0FA3448028D34A120461E3000F09E
:1034E000D9FA3148428D37A120463C3000F0D2FA5B
:1034F0002D48C18C6846FDF72FFD6A4637A120464E
:103500005A3000F0C7FA2848C18A6846FDF724FD02
:103510006A4638A12046783000F0BCFA2248018A79
:103520006846FDF719FD6A4638A12046963000F03E
:10353000B1FA1D48418A6846FDF70EFD6A4639A179
:103540002046B43000F0A6FA1748818A6846FDF795
:1035500003FD6A4639A12046D23000F09BFA12489A
:10356000818D6846FDF7F8FC6A463AA12046F030A6
:1035700000F090FA0C48018C6846FDF7EDFC6A46B5
:103580003AA12046FF300F3000F084FA38BD000029
:1035900020203C2020202020C9E82020D6C3202045
:1035A0002020202020000000DAFAFF1F20202031F8
:1035B0002E2020CAB1BCE4CDA3B3B52020253464AD
:1035C00020200000202020322E2020BEE0C0EBCDA5
:1035D000A3B3B52020253464202000002020203310
:1035E0002E2020B1A32020BBA42020202020257342
:1035F00000000000202020342E2020B5F72020CA13
:10360000D420202020202573000000002020203519
:103610002E20204C204520442020202020202573CF
:1036200000000000202020362E2020B7E420C3F91F
:1036300020C6F7202020257300000000202020371E
:103640002E2020C0B62020D1C0202020202025738D
:1036500000000000202020382E20204875616E5F79
:103660004C5220202020257300000000202020390B
:103670002E2020582058203520202020202025735F
:103680000000000010B504468248408C030000F0A2
:103690002CFA061D04090E13181D7FA1204600F008
:1036A000F9F914E082A1204600F0F4F90FE086A1B8
:1036B000204600F0EFF90AE089A1204600F0EAF97F
:1036C00005E08DA1204600F0E5F900E000BF00BF55
:1036D0007048408C401E2821484340008C490A5ABB
:1036E0008CA120461E3000F0D5F96A48408C401E5F
:1036F00028214843401C400085490A5A8BA1204696
:103700003C3000F0C7F96348408C401E28214843F4
:10371000801C40007E490A5A8AA120465A3000F097
:10372000B9F95C48408C401E28214843C01C400029
:1037300077490A5A89A12046783000F0ABF95548FC
:10374000408C401E28214843001D400070490A5A01
:1037500088A12046963000F09DF94E48408C401ECE
:1037600028214843401D400069490A5A87A1204644
:10377000B43000F08FF94748408C401E2821484360
:10378000801D400062490A5A86A12046D23000F0CE
:1037900081F94048408C401E28214843C01D40000C
:1037A0005B490A5A85A12046F03000F073F9394888
:1037B000408C401E282148430830400054490A5A92
:1037C00084A12046FF300F3000F064F93148408C6E
:1037D000401E2821484340004D490A5A83A12046F3
:1037E000FF302D3000F056F92A48408C401E282129
:1037F0004843400046490A5A82A12046FF304B30D8
:1038000000F048F92348408C401E282148434000DE
:103810003F490A5A81A12046FF30693000F03AF949
:103820001C48408C401E28214843400038490A5A11
:1038300080A12046FF30873000F02CF91548408CDD
:10384000401E28214843400031490A5A7FA12046A2
:10385000FF30A53000F01EF90E48408C401E282194
:10386000484340002A490A5A7EA12046FF30C3300F
:1038700000F010F90748408C401E282148434000C2
:1038800023490A5A7DA12046FF30E13000F002F9B9
:1038900010BD0000DAFAFF1F20203C20202020B7B6
:1038A000BD2020B0B82020D2BB2020202020000046
:1038B00020203C20202020B7BD2020B0B82020B6FA
:1038C000FE2020202020000020203C20202020B7A7
:1038D000BD2020B0B82020C8FD20202020200000DE
:1038E00020203C20202020B7BD2020B0B82020CBB5
:1038F000C42020202020000020203C20202020B7B1
:10390000BD2020B0B82020CEE520202020200000BF
:103910005AF9FF1F202020312E2020C4BFB1EABD5C
:10392000C7B6C82020253464202000002020203283
:103930002E2020C4BFB1EACBD9B6C82020253464DC
:1039400020200000202020332E2020BDC720B6C814
:103950002050202020253464202000002020203406
:103960002E2020BDC720B6C8204420202025346446
:1039700020200000202020352E2020CBD920B6C8C2
:1039800020502020202534642020000020202036D4
:103990002E2020CBD920B6C82049202020253464F1
:1039A00020200000202020372E2020D7AA20CFF270
:1039B00020502020202534642020000020202038A2
:1039C0002E2020D7AA20CFF22044202020253464A6
:1039D00020200000202020392E20204875616E41D3
:1039E0006464202020253464202000002020203121
:1039F000302E2074642020202020202020253464B4
:103A00002020000020202031312E205858585858AE
:103A10005858202020253464202000002020203108
:103A2000322E205858585858585820202025346491
:103A30002020000020202031332E2058585858587C
:103A400058582020202534642020000020202031D8
:103A5000342E20585858585858582020202534645F
:103A60002020000020202031352E2058585858584A
:103A700058582020202534642020000020202031A8
:103A8000362E20585858585858582020202534642D
:103A9000202000000FB410B504A9074B02AA039818
:103AA00000F0FAF8044602A9002000F091FC20463C
:103AB00010BC08BC04B01847D14300002021020C00
:103AC00001D010211046020A01D01046083902091F
:103AD00001D01046091F820801D01046891E4208F5
:103AE00001D0881E7047081A704730B47446641EAF
:103AF0002578641CAB4204D3635D5B00E31830BCE3
:103B000018471D46F8E702E008C8121F08C1002A3E
:103B1000FAD170477047002001E001C1121F002A4E
:103B2000FBD17047F0B51FB486B00998089A030D11
:103B30000021024314D05148514A1818504305142B
:103B40001198012810981AD0281A401C00264D4FB1
:103B50004D49009601910490002812DA444211E088
:103B60001198012449A3012801D11098C143069856
:103B7000119A84600360C26041600BB0F0BD4042A6
:103B8000E4E70446210500203F4A001C514103910F
:103B9000029012E0E00707D032463B4601990098B8
:103BA000FCF724FB0191009032463B461046194633
:103BB000FCF71CFB06460F466410002CEAD1049863
:103BC000039B0028029A0999089806DAFCF70EFB75
:103BD000019B009AFCF70AFB05E0FCF76FFB019BD9
:103BE000009AFCF76BFB04460E460022284BFCF7BC
:103BF00023FC03D80020C043014607E00022254BE8
:103C000020463146FCF7FCFCFCF7ACFD102409E033
:103C1000002C0ADB0A220023FCF722FC079B30322F
:103C20001A55641E02460A43F2D11122641C079BF6
:103C3000121B1C19119B012B03D0012308430ED129
:103C40000AE0084304D0112010900020119077E77B
:103C50001098151A6D1E0BE01098824202DD0023A9
:103C60006D1C03E0824201DA00236D1E002BEED0B2
:103C7000069811998260C16030C07EE701FCFFFFA9
:103C8000104D0000000014400000F03F3000000024
:103C90000000F0430000E03FFFB597B00646002566
:103CA00018E2252877D100242746FD49049400E036
:103CB0000443761C32780120203A90400842F7D124
:103CC00030782A280ED0022230780146303909296E
:103CD00016D804990A235943303940181443761CE6
:103CE0000490F1E7189802C804911890002904DAAA
:103CF0000120400304434842049002200443761C00
:103D000030782E2814D1042004437078761C2A2899
:103D100009D11898761C80C8189009E00A214F43F1
:103D2000303FC719761C3078014630390929F5D95A
:103D300030786C2810D006DC4C281AD068280ED0B9
:103D40006A2817D104E0742813D07A2812D110E021
:103D50000120400504430CE00121090501E0032195
:103D600009050C437178814203D101200005241814
:103D7000761C761C3078119066280BD013DC5828FE
:103D80007DD009DC00287BD04528F6D04628F4D029
:103D900047281AD1A5E118E0632835D0642870D0EF
:103DA000652812D19DE170286CD008DC6728F1D01D
:103DB00069287BD06E280DD06F2806D1BAE0732811
:103DC0002ED0752871D0782859D01A9A1999904711
:103DD0006D1C7EE16002400F022809D003280DD03F
:103DE0000428189801680DD00D60001D189070E12E
:103DF0001898EA1701680D604A60F6E7189801689C
:103E00000D80F2E70D70F0E718986A46017811729C
:103E1000001D18900020507202A80090012005E0BB
:103E2000189802C8189000200091C04361070DD572
:103E3000002101E00199491C0191B94212DA814245
:103E4000F8DB009A515C0029F4D10BE0002101E07D
:103E50000199491C01918142FADB019A0099895C20
:103E60000029F5D1019904981A9B471A2146384632
:103E7000199A00F097FA0199401945180BE04FE0A4
:103E80002CE113E04EE0009800990078491C009165
:103E90001A9A199990470198401E0190401CF2D13E
:103EA000214638461A9B199A10E137E00A20002172
:103EB000009001916002410F022907D0189A01CAAF
:103EC0001892C2179446032908D00AE01898C01D1A
:103ED000C108C90005C91891944607E000B2C2178D
:103EE0009446042902D140B2C1178C460022614693
:103EF000944506DA0A460021404291418C462D2124
:103F000002E0210504D52B216A461173012103E04B
:103F1000E10701D02021F7E7029155E00A200AE0ED
:103F2000102008E01020009000210420044301919B
:103F3000082703E008200021019100906002410F52
:103F4000022907D0189A01CA189200229446032920
:103F500008D008E01898C01DC108C90005C918910B
:103F6000944603E080B2042900D1C0B2002102913E
:103F7000210729D51199702906D0009A1021019B9B
:103F80004A401A4305D00EE040216A4611730121D0
:103F900008E06146014306D030216A461173119949
:103FA000517302210291009A0821019B4A401A4351
:103FB0000AD16146014301D1610705D530216A4626
:103FC000117301217F1E02911199582904D035A146
:103FD0000E910DA90D910DE037A1F9E76146019B06
:103FE000009AFCF73DFA0E9B8C469B5C0D9A521E84
:103FF0000D92137061460143F0D10D9805A9081A7E
:1040000020300190600703D501200004844300E0C4
:1040100001270198874201DD381A00E0002001994C
:1040200000904118029809180498401A0490E0037F
:1040300006D421461A9B199A049800F0B3F9451941
:10404000002706E003A81A9AC05D199990476D1CD5
:104050007F1C02988742F5DBE0030CD521461A9BB2
:10406000199A049800F09EF9451904E01A9A302034
:10407000199990476D1C0099481E00900029F5DCA5
:1040800008E00D980D990078491C0D911A9A19991C
:1040900090476D1C0199481E01900029F1DC63E1F5
:1040A000092801003031323334353637383961620E
:1040B00063646566000000003031323334353637D2
:1040C00038394142434445460000000000F05AF9A7
:1040D0004519761C3078002800D0E2E528461BB050
:1040E000F0BD600700D406271898C01DC108C9009C
:1040F00048680A680831C30FDB071891190001D01E
:104100009CA108E0210501D59BA104E0E10701D0B5
:104110009AA100E09AA1430011985B0810916528CC
:104120000CD006DC452809D046281DD0472841D1AF
:1041300041E0662818D067283CD13CE00021112FCF
:1041400001DB112000E0781C0191009008A911A862
:10415000FFF7E8FC139905910021119A15927F1C35
:1041600012980197009150E00120C00703900120B0
:10417000019008A9009711A8FFF7D4FC139A14998D
:1041800005920022119B009212981593059A0192B4
:10419000002901D0104602E0791C40180190381A1D
:1041A00001D5019804E04042401E0090781C019027
:1041B000C01B029043E0012F00DA01270021112FDC
:1041C00001DD112000E038460191009008A911A8F6
:1041D000FFF7A8FC13990591119A002112981592E6
:1041E0000091019721070CD40599B94201DB01998F
:1041F00000E00191012904DD159A491E515C302926
:1042000006D0B84201DA011D05DA0121029115E05C
:104210000199491EEDE7002805DC0099411800913D
:104220000199091A03E0019A411C914200DD0191B4
:104230000099401A401C02900120C00703902007FB
:1042400006D402990198814202DB0020C04302900B
:1042500000206946C87707AF012103980337C907D3
:10426000884224D0022011902B201290039800281D
:104270000CDA404203902D20129007E00A210398A7
:10428000FBF73CFF30317F1E039039701199481EB7
:1042900011900029F2DC03980028EFD1791E1298C2
:1042A00008703078202108404530BF1E387006A8BD
:1042B000C01BC01D039010980078002800D001207A
:1042C000019941180298C017091803980918049811
:1042D000401A401E0490E00306D421461A9B199A06
:1042E000049800F05FF8451910980078002803D072
:1042F0001A9A199990476D1CE00324D521461A9B00
:10430000199A049800F04EF845191CE0009800280E
:1043100007DB00990598884203DD1598405C1999E0
:1043200001E0199930201A9A904700986D1C401CA2
:1043300000900298401E0290002804D11A9A2E2064
:10434000199990476D1C0199481E01900029DDDCE8
:1043500005E038781A9A7F1C199990476D1C0399CB
:10436000481E03900029F4DC21461A9B199A0498F0
:10437000ACE600002D0000002B0000002000000033
:1043800000000000F8B5044600251E4617468804C4
:1043900004D405E039462020B0476D1C641EF9D5D1
:1043A0002846F8BDFFB50446002581B01E46C80367
:1043B00001D5302700E02027880404D505E03846E1
:1043C0000399B0476D1C641EF9D5284605B0F0BDB1
:1043D0000A68531C0B6010707047000001460029EA
:1043E00002D0012904D101E0034870470348FCE7EB
:1043F00000BF00BFF9E70000006006400070064003
:10440000FFB581B005460E4617462846FFF7E6FF82
:104410000090002D01DB012D00DD00255A49009898
:10442000884260D15948406901210904084357492D
:1044300048610020544988700846C078022108432A
:104440005149C8705148C068202188434F49C8600D
:104450004F4880680C2108434D4988604A480770DE
:1044600000240FE060004B49095A0498814207D1AB
:10447000601CC4B260004749085C4349487003E0CF
:10448000A01CC4B20A2CEDDB00BF012E0CD13E48AB
:104490008078802108433C4988700846807808214C
:1044A0000843394988706CE0374880788021084398
:1044B0003549887008468078402108433249887021
:1044C00008468078202108432F4988700846807864
:1044D000102188432C498870084680782021884321
:1044E000294988704DE02948406901214904084361
:1044F000264948610020284988700846C078022172
:1045000008432549C87021480069091588431F4997
:1045100008611F48C068032108431D49C8601E4840
:10452000077000240FE060001A49095A049881427C
:1045300007D1601CC4B260001649085C1649487077
:1045400003E0A01CC4B20A2CEDDB00BF012E0CD18D
:1045500011488078802108430F4988700846807888
:10456000082108430C4988700BE00B4880788021B3
:104570000843094988700846807840210843064965
:10458000887005B0F0BD0000006006400080044067
:10459000009004400047010000700640FFB581B064
:1045A0000D4617461E460198FFF718FF0446A078EF
:1045B00010210843A0705320019900F043F9FE2018
:1045C000284020715420019900F070F9002802D091
:1045D000012005B0F0BD4120019900F067F90028E5
:1045E00001D00120F5E727715420019900F05EF910
:1045F000002801D00120ECE74120019900F056F994
:10460000002801D00120E4E7A07804210843A0702D
:104610000120284320715420019900F047F9002817
:1046200001D00120D5E74120019900F03FF9002891
:1046300001D00120CDE7A07804218843A070207923
:1046400030705420019900F031F9002801D0012088
:10465000BFE74F20019900F0F5F820793070002075
:10466000B7E7FFB581B00D4616461F460198FFF724
:10467000B5FE0446A07810210843A070532001998C
:1046800000F0E0F8FE20284020715420019900F04D
:104690000DF9002802D0012005B0F0BD412001999C
:1046A00000F004F9002801D00120F5E7267154201C
:1046B000019900F0FBF8002801D00120ECE741202F
:1046C000019900F0F3F8002801D00120E4E72771F8
:1046D0005420019900F0EAF8002801D00120DBE71E
:1046E0004120019900F0E2F8002801D00120D3E731
:1046F0004F20019900F0A6F80020CDE7FCF798F8CC
:104700006420FCF781FA6420FCF77EFA00BF00F019
:104710005DF80028FBD17D20C0001E4908800024E0
:1047200037E0042C20D008DC002C0DD0012C0FD059
:10473000022C11D0032C27D112E01F2C18D0202CD2
:104740001AD0212C20D11BE0FDF7E2FE04461FE029
:10475000FDF796FD04461BE0FEF71EF8044617E041
:10476000FDF792FC044613E0FEF76EFD04460FE0F1
:10477000FDF792FE04460BE0FEF706FD044607E057
:10478000FEF7AEFC044603E0FDF7C2FE044600BFA0
:1047900000BFC6E700F0FF1F10B50A4B4122682199
:1047A0000020FFF7FBFE084B422268210020FFF7A4
:1047B000F5FE04480078000203490978401800B269
:1047C00010BD0000D4F0FF1FD5F0FF1F08B5002179
:1047D00000916423682201210020FFF711FE0023CD
:1047E0006B2268211846FFF73CFF07231922682136
:1047F0000020FFF736FF06231A2268210020FFF76A
:1048000030FF18231B2268210020FFF72AFF012315
:104810001C2268210020FFF724FF6B4675226821C7
:104820000020FFF7BBFE68460078682801D1002011
:1048300008BD0120FCE710B5044621460120FDF724
:1048400003FC10BD70B504460D462846FFF7C6FDB3
:1048500006461448864210D1532C05D18078202179
:104860000843314688701BE04F2C19D10D488078E1
:10487000202188430B49887012E00B4886420FD1F3
:10488000532C05D18078202108433146887007E0F9
:104890004F2C05D104488078202188430249887034
:1048A00070BD00000060064000700640F3B581B0A6
:1048B00005460298FFF792FD0446114F0020064678
:1048C00016E0412D05D1E078C007C00F00280CD1BB
:1048D000FEBD542D09D1E07802210840002804D003
:1048E000E0780843E0700020F2E7701C80B20646D2
:1048F000BE42E6DBBE4201DB0120E9E700BFE7E79D
:10490000F6090000303132333435476F213031320F
:10491000333435363738392E2B2D3A20A1A3D6F72C
:10492000B2CBB5A5B7A2B3B5B7BDB0B8CDE2C9E8B3
:10493000D6C3C0B6D1C0CDD3C2DDD2C7B1E0C2EBC1
:10494000C6F7B5E7B8D0A1B6C4BFB1EACBD9B6C8EF
:10495000BDC7D7AACFF2D6B5B7E4C3F9BFAAB9D8B5
:10496000D2BBB6FEC8FDCBC4CEE5B8B4D6C6C7E54B
:10497000BFD5B5B1C7B0CBF9D3D0B1A3BBA4CAB131
:10498000BCE4BEE0C0EBCDA3B5F7CAD40000000084
:104990000000000000000000000000000000000017
:1049A0000000000000000000000000000000000007
:1049B00000000000000000000000000000000000F7
:1049C00000000000000000000000000000000000E7
:104C9000000000000800040000007FC004000400C1
:104CA00004007FC0040004000400FFE000000000D6
:104CB00000000000000000000000000000000000F4
:104CC00000000000000000000000000000000000E4
:104CD00000000000000000000000000000000000D4
:104CE00000000000000000000000000000000000C4
:104F9000000000001100FFE0110001C0FE00488089
:104FA00025000400FFE015002480C460000000001C
:104FB00000000000000000000000000000000000F1
:104FC00000000000000000000000000000000000E1
:104FD00000000000000000000000000000000000D1
:104FE00000000000000000000000000000000000C1
:1052900000000000208011007FC044407FC04440D7
:1052A0007FC00400FFE004000400040000000000D0
:1052B00000000000000000000000000000000000EE
:1052C00000000000000000000000000000000000DE
:1052D00000000000000000000000000000000000CE
:1052E00000000000000000000000000000000000BE
:1055900000000000090088808800FFE01000100073
:1055A0001F802880250042008D80306000000000B0
:1055B00000000000000000000000000000000000EB
:1055C00000000000000000000000000000000000DB
:1055D00000000000000000000000000000000000CB
:1055E00000000000000000000000000000000000BB
:105890000000000008000800FFE0100024004400A1
:1058A0007FC004000400FFE00400040000000000CA
:1058B00000000000000000000000000000000000E8
:1058C00000000000000000000000000000000000D8
:1058D00000000000000000000000000000000000C8
:1058E00000000000000000000000000000000000B8
:105B90000000000008000400FFE0100010001FC01B
:105BA0001040104020402040404083800000000012
:105BB00000000000000000000000000000000000E5
:105BC00000000000000000000000000000000000D5
:105BD00000000000000000000000000000000000C5
:105BE00000000000000000000000000000000000B5
:105E9000000000000400FFE088207FC011000E0019
:105EA000F1C00400FFE015002480C4600000000081
:105EB00000000000000000000000000000000000E2
:105EC00000000000000000000000000000000000D2
:105ED00000000000000000000000000000000000C2
:105EE00000000000000000000000000000000000B2
:106190000000000021002100210039004980494011
:1061A000A920112011002100410081000000000001
:1061B00000000000000000000000000000000000DF
:1061C00000000000000000000000000000000000CF
:1061D00000000000000000000000000000000000BF
:1061E00000000000000000000000000000000000AF
:10649000000000004780248004800480E860200021
:1064A0002FC024402280310022800C6000000000B8
:1064B00000000000000000000000000000000000DC
:1064C00000000000000000000000000000000000CC
:1064D00000000000000000000000000000000000BC
:1064E00000000000000000000000000000000000AC
:10679000000000007FC04A407FC00400FFE004000A
:1067A0003F802080208024802480FFE000000000C3
:1067B00000000000000000000000000000000000D9
:1067C00000000000000000000000000000000000C9
:1067D00000000000000000000000000000000000B9
:1067E00000000000000000000000000000000000A9
:106A9000000000002080FFE02080120053E05480BE
:106AA000504000007FC04A404A40FFE00000000024
:106AB00000000000000000000000000000000000D6
:106AC00000000000000000000000000000000000C6
:106AD00000000000000000000000000000000000B6
:106AE00000000000000000000000000000000000A6
:106D90000000000000007FC00100210041007FE0F2
:106DA0000300050009003100C100070000000000D9
:106DB00000000000000000000000000000000000D3
:106DC00000000000000000000000000000000000C3
:106DD00000000000000000000000000000000000B3
:106DE00000000000000000000000000000000000A3
:10709000000000000100F08097E09420A000A220F2
:1070A000924092809300E220822081E00000000064
:1070B00000000000000000000000000000000000D0
:1070C00000000000000000000000000000000000C0
:1070D00000000000000000000000000000000000B0
:1070E00000000000000000000000000000000000A0
:107390000000000023E022A023E0FAA0ABE0A94017
:1073A000FB8021202BE03880CAC005A0000000002F
:1073B00000000000000000000000000000000000CD
:1073C00000000000000000000000000000000000BD
:1073D00000000000000000000000000000000000AD
:1073E000000000000000000000000000000000009D
:107690000000000012001100212028206820A440D2
:1076A0002440228021002280244028200000000065
:1076B00000000000000000000000000000000000CA
:1076C00000000000000000000000000000000000BA
:1076D00000000000000000000000000000000000AA
:1076E000000000000000000000000000000000009A
:107990000000000041004FE08820AFE0C8004FE049
:1079A0008AA0DAA00FE02AA0CAA0086000000000A8
:1079B00000000000000000000000000000000000C7
:1079C00000000000000000000000000000000000B7
:1079D00000000000000000000000000000000000A7
:1079E0000000000000000000000000000000000097
:107C9000000000000FC0F04024402440444077E042
:107CA000D02050205FA07020502000C000000000B5
:107CB00000000000000000000000000000000000C4
:107CC00000000000000000000000000000000000B4
:107CD00000000000000000000000000000000000A4
:107CE0000000000000000000000000000000000094
:107F9000000000007BC04A407BC004800440FFE03A
:107FA0000A003180C0607BC04A407BC000000000F6
:107FB00000000000000000000000000000000000C1
:107FC00000000000000000000000000000000000B1
:107FD00000000000000000000000000000000000A1
:107FE0000000000000000000000000000000000091
:108290000000000008000800FF8088808880FF80C0
:1082A00088808880FF808820082007E00000000088
:1082B00000000000000000000000000000000000BE
:1082C00000000000000000000000000000000000AE
:1082D000000000000000000000000000000000009E
:1082E000000000000000000000000000000000008E
:108590000000000001407FE041005D4041405C8000
:1085A00054A05D608220544052A08FA000000000C3
:1085B00000000000000000000000000000000000BB
:1085C00000000000000000000000000000000000AB
:1085D000000000000000000000000000000000009B
:1085E000000000000000000000000000000000008B
:1088900000000000000004800480090009001200AC
:1088A00009000900048004800000000000000000AE
:1088B00000000000000000000000000000000000B8
:1088C00000000000000000000000000000000000A8
:1088D0000000000000000000000000000000000098
:1088E0000000000000000000000000000000000088
:108B90000000000000007FC0404040407FC04040D7
:108BA00040407FC0404040407FC040400000000047
:108BB00000000000000000000000000000000000B5
:108BC00000000000000000000000000000000000A5
:108BD0000000000000000000000000000000000095
:108BE0000000000000000000000000000000000085
:108E900000000000200027C02000F0002FE061004B
:108EA0007100A5402520292021002300000000009A
:108EB00000000000000000000000000000000000B2
:108EC00000000000000000000000000000000000A2
:108ED0000000000000000000000000000000000092
:108EE0000000000000000000000000000000000082
:109190000000000082005FE002001FC0D240524089
:1091A0005FC047004A8052404200BFE0000000001C
:1091B00000000000000000000000000000000000AF
:1091C000000000000000000000000000000000009F
:1091D000000000000000000000000000000000008F
:1091E000000000000000000000000000000000007F
:109490000000000002007FE048807FE048804F80AD
:1094A00040005FC04840448043009CE00000000052
:1094B00000000000000000000000000000000000AC
:1094C000000000000000000000000000000000009C
:1094D000000000000000000000000000000000008C
:1094E000000000000000000000000000000000007C
:109790000000000020003F00410082007FC04440E4
:1097A0007FC044407FC04440444080C0000000006F
:1097B00000000000000000000000000000000000A9
:1097C0000000000000000000000000000000000099
:1097D0000000000000000000000000000000000089
:1097E0000000000000000000000000000000000079
:109A90000000000041004100EFC04200A200AFE022
:109AA000F40027C03040E680218020400000000004
:109AB00000000000000000000000000000000000A6
:109AC0000000000000000000000000000000000096
:109AD0000000000000000000000000000000000086
:109AE0000000000000000000000000000000000076
:109D90000000000008001000FFE0802080209F20CD
:109DA0009120912091209F20802080E000000000E1
:109DB00000000000000000000000000000000000A3
:109DC0000000000000000000000000000000000093
:109DD0000000000000000000000000000000000083
:109DE0000000000000000000000000000000000073
:10A090000000000022002FE042004FC0C8404FC027
:10A0A00048404FC048404FC048405FE000000000BB
:10A0B00000000000000000000000000000000000A0
:10A0C0000000000000000000000000000000000090
:10A0D0000000000000000000000000000000000080
:10A0E0000000000000000000000000000000000070
:10A3900000000000210021E02320F8C0AB20A880AD
:10A3A000FBE020802BE03880CBE000800000000044
:10A3B000000000000000000000000000000000009D
:10A3C000000000000000000000000000000000008D
:10A3D000000000000000000000000000000000007D
:10A3E000000000000000000000000000000000006D
:10A69000000000000200F7C09440954094C0940070
:10A6A00097E09020F0209FA0002000C00000000054
:10A6B000000000000000000000000000000000009A
:10A6C000000000000000000000000000000000008A
:10A6D000000000000000000000000000000000007A
:10A6E000000000000000000000000000000000006A
:10A990000000000000007FC0110011001100110034
:10A9A000FFE0110011002100210041000000000023
:10A9B0000000000000000000000000000000000097
:10A9C0000000000000000000000000000000000087
:10A9D0000000000000000000000000000000000077
:10A9E0000000000000000000000000000000000067
:10AC9000000000002080110000007FC004000400BC
:10ACA000FFE004000A0011002080C06000000000E6
:10ACB0000000000000000000000000000000000094
:10ACC0000000000000000000000000000000000084
:10ACD0000000000000000000000000000000000074
:10ACE0000000000000000000000000000000000064
:10AFA000FFE00000000000000000000000000000C2
:10AFB0000000000000000000000000000000000091
:10AFC0000000000000000000000000000000000081
:10AFD0000000000000000000000000000000000071
:10AFE0000000000000000000000000000000000061
:10B2900000000000000000007FC00000000000006F
:10B2A0000000000000000000FFE0000000000000BF
:10B2B000000000000000000000000000000000008E
:10B2C000000000000000000000000000000000007E
:10B2D000000000000000000000000000000000006E
:10B2E000000000000000000000000000000000005E
:10B590000000000000007FC000000000000000006C
:10B5A0003F800000000000000000FFE000000000FD
:10B5B000000000000000000000000000000000008B
:10B5C000000000000000000000000000000000007B
:10B5D000000000000000000000000000000000006B
:10B5E000000000000000000000000000000000005B
:10B890000000000000007FE04920492049204920A5
:10B8A000492050E0602040207FE040200000000060
:10B8B0000000000000000000000000000000000088
:10B8C0000000000000000000000000000000000078
:10B8D0000000000000000000000000000000000068
:10B8E0000000000000000000000000000000000058
:10BB9000000000000000FFC00800080008007F80CF
:10BBA00010801080108020802080FFE000000000C6
:10BBB0000000000000000000000000000000000085
:10BBC0000000000000000000000000000000000075
:10BBD0000000000000000000000000000000000065
:10BBE0000000000000000000000000000000000055
:10BE9000000000003FE04000BFC020403FC0204005
:10BEA0003FC010003FC050800F0070E00000000055
:10BEB0000000000000000000000000000000000082
:10BEC0000000000000000000000000000000000072
:10BED0000000000000000000000000000000000062
:10BEE0000000000000000000000000000000000052
:10C1900000000000102050207D209120FF20112061
:10C1A0007D205520552054205C2010E00000000028
:10C1B000000000000000000000000000000000007F
:10C1C000000000000000000000000000000000006F
:10C1D000000000000000000000000000000000005F
:10C1E000000000000000000000000000000000004F
:10C49000000000000200BFE042001FC00200BFE039
:10C4A00050401FC010405FC0904010C0000000000E
:10C4B000000000000000000000000000000000007C
:10C4C000000000000000000000000000000000006C
:10C4D000000000000000000000000000000000005C
:10C4E000000000000000000000000000000000004C
:10C790000000000008000400FFE0912020804040DD
:10C7A00000007FC0040004000400FFE0000000005F
:10C7B0000000000000000000000000000000000079
:10C7C0000000000000000000000000000000000069
:10C7D0000000000000000000000000000000000059
:10C7E0000000000000000000000000000000000049
:10CA90000000000004004440248004007FC00040E7
:10CAA00000403FC0004000407FC000400000000048
:10CAB0000000000000000000000000000000000076
:10CAC0000000000000000000000000000000000066
:10CAD0000000000000000000000000000000000056
:10CAE0000000000000000000000000000000000046
:10CD90000000000020801100FFE000007C404540C2
:10CDA0007D4045407D40454044404CC0000000006F
:10CDB0000000000000000000000000000000000073
:10CDC0000000000000000000000000000000000063
:10CDD0000000000000000000000000000000000053
:10CDE0000000000000000000000000000000000043
:10D090000000000008607380420042007BE04A40CC
:10D0A0004A407A404A4042404440884000000000E4
:10D0B0000000000000000000000000000000000070
:10D0C0000000000000000000000000000000000060
:10D0D0000000000000000000000000000000000050
:10D0E0000000000000000000000000000000000040
:10D390000000000008000800FFE010003FC06040EF
:10D3A000BFC020403FC02040204020C000000000FF
:10D3B000000000000000000000000000000000006D
:10D3C000000000000000000000000000000000005D
