:020000040000FA
:10000000B0120020D7000000E3000000E50000006F
:1000100000000000000000000000000000000000E0
:10002000000000000000000000000000E7000000E9
:100030000000000000000000E9000000EB000000EC
:10004000ED000000ED000000ED000000ED000000FC
:10005000ED000000ED000000ED000000ED000000EC
:10006000ED000000ED000000ED000000ED000000DC
:10007000ED000000ED000000ED000000ED000000CC
:10008000ED000000ED000000ED000000ED000000BC
:10009000ED000000ED000000612E0000D5400000E2
:1000A000ED000000ED000000ED000000ED0000009C
:1000B000ED000000ED000000ED000000ED0000008C
:1000C0000348854600F0CCFC00480047A5810000AD
:1000D000B01200207047064880470648804706480F
:1000E0000047FEE7FEE7FEE7FEE7FEE7FEE700006B
:1000F00021470000D5000000C100000030B50B46CC
:10010000014600202022012409E00D46D5409D42F1
:1001100005D31D469540491B254695404019154677
:10012000521E002DF1DC30BD70B50024254600289C
:1001300001DA01244042002901DA01254942FFF792
:10014000DDFFAC4200D04042002C00D0494270BDDF
:1001500003460B439B0703D009E008C9121F08C0E0
:10016000042AFAD203E00B780370401C491C521E8B
:10017000F9D27047D2B201E00270401C491EFBD296
:1001800070470022F6E710B513460A4604461946A2
:10019000FFF7F0FF204610BDF8B502464A40D40FE5
:1001A00042004B0052085B089A4202D202460846BF
:1001B00011464A0023D0C30D4A00DDB2120EAD1A1B
:1001C000202D35DA49020126490AF6058A19002C44
:1001D00000D0524220214F1B1146B9402A4110182D
:1001E000C20D9A4221D0002C17D0012D08DCDA056F
:1001F000801AD20F8019D207DBB200F065FBF8BD80
:10020000DA05801A012340001B06C01880185A42E4
:100210008018CA0F1043490007E04908C20711437C
:10022000DA05801A80194008801800F045FBF8BDF7
:1002300061000122511A001BF7E70122D207514049
:10024000AAE70122D2075040A6E7024670B54A400D
:10025000D30FDB0740002DD04A002AD0010E140E28
:10026000000212020919400A520A8418E5010446E4
:100270005443000A120A2E045043A4194219200CB8
:10028000C543AA18120C0125AD03521C52191204C1
:100290007F39240400D0521C104301D44000491E71
:1002A000C2B20C06C0092018401C4008802A02D0A7
:1002B00003E0002070BD40084000002900DA002063
:1002C000184370BD70B502464A40D50F40004A0041
:1002D000ED0740085208002814D0002A12D0C40D9F
:1002E000D30D41020120C0055202490A520AE41A04
:1002F000091812187D34914201D3641C00E04900B2
:10030000002C01DA002070BD0023914201D3891A2C
:100310000343400849000028F7D100290AD0914240
:1003200002D10121C90705E0914201D2012101E07A
:100330000121C943E005C018401900F0BDFA70BDA5
:10034000C217C10F504010B54018CA0796230021AC
:1003500000F0BAFA10BD10B500229623114600F045
:10036000B3FA10BD0EB5C217C10F5040CA074018EE
:100370000021054B0293019200910A460B4600F0C2
:10038000E9FA03B000BD000033040000C20F4100D1
:1003900040020123400ADB05D207090EC0187F295D
:1003A00001DA00207047962903DC9623591AC840C9
:1003B00001E096398840002AF4D04042704741005D
:1003C00040020122400AD205090E80187F2901DA75
:1003D00000207047962903DC9622511AC8407047C6
:1003E00096398840704700000122D207002800DBC0
:1003F000101A002900DB511A814270477047000033
:10040000FFFFFFFFFFFFFFFFFFFFFFFFFFFFFEFEFE
:10041000F0B507460846584087B0C00F0490480022
:100420000E46590040084908BC1A884105D2384692
:1004300031461E4617460B460246580040081043F8
:100440004CD0300D039040055900400D490D0590EA
:10045000401A0290402872DA18030121000B0905A6
:100460000843019004980092002805D00199524257
:100470000020884100920190029840210A1A0199B7
:10048000009800F0E5F905460C466B4607CB00F0F6
:1004900000FAC0197141039A0E0D0023D717564078
:1004A0001A467A40164344D0049A002A2DD0029A64
:1004B000012A039A15DC1205C01A9141012636055E
:1004C000001C7141D20F059ED20700930192029643
:1004D0002A46234600F03EFA07B0F0BD38463146C2
:1004E000FAE71605224A0F46B218C01AB741012191
:1004F0000905001C4F4100187F4111461818794129
:10050000E20F10436D19644113E0E2076D081543D3
:100510006408C2071443039A01261205C01A9141C8
:100520003605001C7141CE07400830434908C01809
:1005300051412A46234600F000FACDE7FFE7049830
:1005400001224000C117121A00238B410498314642
:10055000C417381AA141EEE730B40124E407634020
:1005600030BC55E730B40124E407614030BC4FE7AC
:100570000000E0FFF0B51FB488B00B990998002483
:1005800048400999C00F490049080991C0070B99D3
:100590000090490049080B9109990898A64608431C
:1005A0001CD00B990A98084318D0099801244000E0
:1005B000420D4800410D099824050003000B20431B
:1005C00009900B980003000B20430B9050181C4916
:1005D0004018002201901446104605E00020014614
:1005E0000DB0F0BD032801DA034600E003239C466A
:1005F000C11A0AAE0AE05F0008ADED5B4F00F75B81
:100600007D430027AA187C41491C5B1E6145F2DD31
:10061000410004AB5A522104120C0A43240C401C22
:100620000828DFDB01980290009970460191009044
:10063000059B049A0799069800F08CF9D0E7000012
:100640000DFCFFFFF0B50C465C4085B0E40FE407FD
:1006500003944C0000266408590094464908024659
:100660000296224321D062460A431ED06200570DF3
:100670004A000E032303550D012402462C4924058C
:10068000781B1B0B360B4018234326436146009012
:100690001C46501AB44103D30098401C009002E05D
:1006A000921800985B41002803DA0020014605B04B
:1006B000F0BD0020012109050746864611E0644689
:1006C0001D46141BB54106D36546521BB341744603
:1006D00007430C43A646CD07400849082843921813
:1006E0005B4105460D43EAD11046184313D06046DE
:1006F000194650407140084306D06046101AB34175
:1007000006D20122002306E000220123DB0702E0DB
:100710000122D2435310009874460105381C6141F0
:10072000029C039D0019694100F007F9BFE7000032
:10073000FD03000070B5CD0F4A0009030123090B2A
:100740001B0519430B4BED070024520D9A4201DAA9
:10075000002070BD074B34339A4203DC9A1A00F034
:1007600087F802E00449511888402C43F1D04042F8
:1007700070BD0000FF030000CDFBFFFFC20FD207DA
:10078000400040080BD0C10D0723DB01C91840020F
:100790000905400A1143C208400711437047002071
:1007A00001467047CB0FDB07490010B549080246E8
:1007B0000A4307D00A0D07240903E401090B121BA1
:1007C000002A01DC002010BDC900440F0C43C10009
:1007D000E018D205801800F06FF810BD0122D20792
:1007E000002800DB101A002900DB511A88427047EC
:1007F000F0B51FB40646002082B0054640240191A2
:1008000000901BE0019922460F46304600F030F878
:10081000049A059B801A994110D310461946224626
:1008200000F016F8361A8F41019722460120002168
:10083000009F00F00DF838184D4100902046641ECE
:100840000028DFDC019B00982946324607B0F0BD46
:1008500010B5202A04DB0146203A9140002010BD4B
:10086000914020239C1A0346E3401943904010BD59
:1008700010B5202A04DB0846203AD040002110BDE4
:100880000B46D340D0402024A21A91400843194679
:1008900010BD10B5202A06DBCB170846203A1041C0
:1008A000C1170B4306E00B461341D0402024A21A87
:1008B00091400843194610BD002904DA401C490044
:1008C00001D140084000704770B40024050C05D1E8
:1008D0001024000402D1002921D01124050E01D1D9
:1008E00000020834050F01D10001241D850F01D13C
:1008F0008000A41C002801DB4000641C002908D0F3
:1009000020252E1B0D46F540A14000D00121294392
:10091000084301061B1B000ADB1D02D5002070BC2A
:100920007047DB05181880180029F8DA401C4900C8
:10093000F5D170BC40084000704710B5002B08DAB4
:100940000024401C614192185B411A4301D14008C8
:10095000400010BDF0B51FB482B005460C0003D0B6
:10096000084606F041FB02E006F03EFB203002465E
:10097000009021462846FFF76BFF049B059A04462A
:100980000F4618431143084314D0184610431BD098
:10099000009840210A1A18460599FFF769FF054695
:1009A0000E46009A05990498FFF752FF084305D0B8
:1009B000012004E02046394607B0F0BD0020C117F1
:1009C00005430E432C43374300990E986305401AA4
:1009D0007905E40A00220C43FD0A0A3002D5002002
:1009E0000146E9E70105101969410C9C0D9D0019AC
:1009F0006941FFF7A2FFDFE74A0009030123090B62
:100A00001B0519430A4B10B5520D9A4202DA002019
:100A1000014610BD064B34339A4203DC9A1AFFF7A5
:100A200027FF10BD034BD218FFF712FF10BD0000C7
:100A3000FF030000CDFBFFFF10B5002904DB0124FC
:100A4000E40740428C412146002B04DB1C46012375
:100A5000DB075242A341994200D1904210BD0000F1
:100A6000064C0125064E05E0E36807CC2B430C3C01
:100A700098471034B442F7D3FFF726FB10BD0000AF
:100A800030BD000070B54B005B0803430BD04B003A
:100A90005C0D002633466542B341D417AD1AA3411D
:100AA00002DB0020014670BD12053018514170BDB7
:100AB00070B58C180578401C6B075B0F01D103786B
:100AC000401C2A1106D10278401C03E006780E7003
:100AD000401C491C5B1EF9D12B0705D40023521E74
:100AE0000DD40B70491CFAE70378401CCB1A921CFA
:100AF00003E01D780D70491C5B1C521EF9D5A14204
:100B0000D8D3002070BDF3B581B00C460025002776
:100B100004E0019800F060F845197F1CA742F8DB5B
:100B200021462846FFF700FB0090FFF709FC064628
:100B30003046FFF744FC80B2FEBD0000154949690C
:100B4000012252071143134A516113498968124A1D
:100B50009160114649685160002111601146096891
:100B6000202211430C4A11601146096840221143AA
:100B7000094A1160114689690122824092B21143EB
:100B8000054A91611146896808221143024A916021
:100B9000704700000080044000B003400146002080
:100BA0000C4A126852095201CB06DB0E1A43094B5C
:100BB0001A6000BF074A126880231A40002AF9D041
:100BC000044A126990B2034A12689A43014B1A60B0
:100BD0007047000000B00340F1B50098FFF7DEFF5A
:100BE00004460098FFF7DAFF05460098FFF7D6FFA6
:100BF0000646AC4202DD27462C463D46AE4201DDAC
:100C00002F4604E0A64201DD374600E0274638467D
:100C1000F8BD10B50020FFF791FF0120FFF78EFF10
:100C20000E20FFF78BFF0D20FFF788FF0C20FFF74A
:100C300085FF10BD10B500F065F801F069F900F00E
:100C4000DBFA00F039FAE1214902012003F098FDB6
:100C500001F052FE01F0E8FD01F026FD00F080FAFF
:100C600001F0BCF8FFF7D5FF184A0021184807F03B
:100C700089FA18481649C86017480861134A0021C4
:100C800013481C3007F07EFA12491148816212495C
:100C9000C16200BF01F004FC0028FBD101F0AEFDF1
:100CA00001F0D0FD64200D49088000220521104686
:100CB00003F01AFA7D20C00000F010FA08484068DE
:100CC0000121C90708430649486010BD00002041C2
:100CD0003CFEFF1FFAED6B3A0AD7233C00F0FF1FE2
:100CE00040F00F400548408A012806D1044840687A
:100CF0000121490208430249486070472C00002046
:100D000000F00F4010B50F48406901214902084327
:100D10000C4948610846406849150843094948603C
:100D2000084640684915084306494860052000F018
:100D3000D5F90448806801214902084301498860C7
:100D400010BD000000F00F40F0B589B006460F4618
:100D50001546287844B200BFA1B202A800F058FDA1
:100D6000F01B401C0D225043C1B2002302AA722086
:100D700001F0A1FF0020019000F0E4FA012806D064
:100D8000022807D0032808D0042830D12AE0601CAC
:100D900044B22CE0601E44B229E0012001903046AC
:100DA000C73026490880288809884900244A5052BB
:100DB000002009E04100FF22520289180988420000
:100DC0001F4B9952411C88B2FF28F3DD2C80FF2075
:100DD00000F0FAF90023012252021949FF2000F025
:100DE00025FA04E0287844B20120019000BF00BF3A
:100DF000012C01DD002000E020460446002C01DA31
:100E0000012000E0204604460198012810D1A1B23B
:100E100002A800F0FDFCF01B401C0D225043C1B2A3
:100E2000012302AA722001F046FF01F02DFE02E02C
:100E300001F02AFE90E700BF09B0F0BD9CF1FF1F52
:100E4000ACFEFF1FF0B58BB005460F461646308846
:100E500004B27948844200DD00E020460446012CBB
:100E600001DA012000E02046044600BF224673A1BB
:100E700004A806F0A5F800200090E81B401C0D22F5
:100E80005043C1B20C2304AA662001F0F7FE0020F3
:100E9000039000F057FA030006F0BDF806B0040D09
:100EA000163249B0601C04B26348844200DD00E0A1
:100EB00020460446A2E0012C01DA012000E0204691
:100EC0000446601E04B299E001200390002009E06E
:100ED0004100FF225202891809884200594B995259
:100EE000411C88B2FF28F3DD3480FF2000F06CF94C
:100EF0000023012252025349FF2000F097F97DE0C0
:100F00000A2D0FDB122D0DDC2046E10F09184910C8
:100F10004900611A01D1214602E02146621E14B245
:100F20000C466BE001200390308804B266E00A2D85
:100F300010DB122D0EDC2046E10F09184910490084
:100F4000611A012901D1214602E02146621C14B236
:100F50000C4653E00020029000BF3B480088201858
:100F600004B23548844200DD00E020460446002CEF
:100F700001DA002000E02046044600F0E3F90328EF
:100F800006D0042820D1308804B2012002901BE052
:100F9000002009E04100FF2252028918098842001E
:100FA000284B9952411C88B2FF28F3DD3480FF2082
:100FB00000F00AF90023012252022249FF2000F02A
:100FC00035F90120029000BF00BF22461FA104A8EE
:100FD00005F0F6FF00200090E81B401C0D22504356
:100FE000C1B20C2304AA662001F048FE01F04CFDBA
:100FF00002980028B1D000BF00BF00BF00BF039817
:10100000012813D122460DA104A805F0D9FF012023
:101010000090E81B401C0D225043C1B20C2304AACF
:10102000662001F02BFE01F02FFD02E001F02CFD07
:101030001CE700BF0BB0F0BD0F2700002534642073
:1010400000000000ACFEFF1F9CF0FF1F253464234E
:101050000000000070B5054601F0D0FBECB220E0C6
:1010600064201449088020463030C2B20123002198
:10107000282001F0ADFD01F007FD012C04D14B202B
:10108000C00000F02BF80AE0AF20800000F026F846
:1010900000F058F9042801D1012070BD00BF601E86
:1010A000C4B2002CDCD1FF202D3002490880002082
:1010B000F3E7000000F0FF1F002009E04100FF22DD
:1010C0005202891809884200034B9952411C88B288
:1010D000FF28F3DD70470000ACFEFF1F10B503468C
:1010E00000240DE0084800F011F800BF00BF00BF69
:1010F00000BF00BF00BF00BF00BF00BF601C84B2C4
:101100009C42EFD310BD0000E7030000002123E064
:1011100000BF00BF00BF00BF00BF00BF00BF00BFD7
:1011200000BF00BF00BF00BF00BF00BF00BF00BFC7
:1011300000BF00BF00BF00BF00BF00BF00BF00BFB7
:1011400000BF00BF00BF00BF00BF00BF00BF00BFA7
:1011500000BF00BF4A1C91B242008A42D8D87047F3
:1011600010B5002006F02CFE012006F029FE1448E0
:1011700080690121890288431149886108464069D4
:10118000091588430E4948610E48806809150843CF
:101190000C4988600A48403080692021884308490A
:1011A0004031886108464069202188430449403124
:1011B00048610448C068202108430249C86010BD46
:1011C00000F00F400090044070B505466C0200200E
:1011D000084948700A2048722002000E0872012057
:1011E00048702004000E48720C7200F063F8002072
:1011F00070BD0000000002400A4949690122120343
:101200001143084A516100BF0749497980221140C2
:101210000029F9D0272001464031034AD1703021FE
:10122000517170470080044000000240FFB581B05A
:1012300007460C46790204980D18042600200090F9
:1012400023E0002014494870062048722802000E4E
:101250000872012048702804000E4872FC202840C3
:101260000872022048702078087260784872032063
:101270004870A0780872E0784872A419AD1900F09F
:1012800019F80098801980B200900399009888425C
:10129000D7D3002005B0F0BD0000024010B5830098
:1012A000034CE3580C33CC001B195A6010BD0000EE
:1012B00058BC000010B572B630200A4948710A487F
:1012C0000A4908600748401D0968884762B6054812
:1012D000407933210840002801D0012010BD0020B2
:1012E000FCE70000000002409FF1FF1FACF1FF1F70
:1012F00010B504460C2C1ED004DC002C07D0012CA9
:101300001ED109E00D2C11D00E2C19D109E00521B8
:101310000020FFF7F8FB10BD05210120FFF7F3FBCC
:10132000F9E701210E20FFF7EEFBF4E701210D2084
:10133000FFF7E9FBEFE7C8210C20FFF7E4FBEAE742
:101340000020E8E708B50020009068480069802187
:101350000840002835D166480078FFF7BFFE634893
:10136000006980210840002828D162480088401C7C
:101370006049088008460088142803DD01205C4984
:10138000087016E05B4800880A2803DD0A205849E7
:1013900008700EE057480088052803DD1E205449D8
:1013A000087006E053480088032802DD28205049D1
:1013B00008700120009005204F4908806846007899
:1013C00008BD4A48006940210840002835D14848F6
:1013D0000078FFF783FE4548006940210840002857
:1013E00028D144480088401C4249088008460088AB
:1013F000142803DD01203E49087016E03D480088AE
:101400000A2803DD0A203A4908700EE039480088AE
:10141000052803DD1E203649087006E0354800889F
:10142000032802DD282032490870022000900520A0
:101430003149088068460078C2E72C48403000698E
:1014400010210840002812D129480078FFF746FEF5
:1014500026484030006910210840002804D10520AA
:10146000254908800320009068460078A8E71F48B7
:1014700040300069012189020840002813D11C482E
:101480000078FFF72BFE19484030006901218902DE
:101490000840002804D10520174908800420009046
:1014A000684600788CE71148403000690121490204
:1014B0000840002812D10E480078FFF70FFE0B48B5
:1014C00040300069012149020840002803D105206D
:1014D0000949088000906846007871E73C2004497B
:1014E000087000200349088000BF69E700F00F4042
:1014F00004F0FF1F02F0FF1F00F0FF1FF0B593B0D4
:1015000004460D4616461F460020385EFEF718FFBB
:101510000190FFF733F9244A244B03910290FFF71F
:1015200091F8234A234B05910490FFF723F8099182
:1015300008902068FFF722F907910690099B089A06
:10154000FFF70AF81C4A1D4B0B910A90FFF712F89F
:101550000F910E900020305EFEF704FF0791069079
:101560000020285EFEF7FEFE05910490079B069A78
:1015700006F058FB0C4A124B09910890FEF7FAFF4F
:10158000104A114B0B910A90FEF7F4FF0D910C904D
:101590000F9B0E9AFEF73CFF11911090FFF702F996
:1015A000206013B0F0BD0000666666666666304077
:1015B0007B14AE47E17A743F2B8716D9CEF7EF3F05
:1015C00066A64C40FCA9F1D24D62503F00B5002800
:1015D0007ED00146C30F5B185B105B00C31A01D1BC
:1015E000431E00E003461A46DB0F9B1859100B0000
:1015F00005F011FD0604203C587692AE5549098B42
:10160000554A11805349498B544A11805149898B5D
:10161000534A11804F494031098D524A11804D493A
:101620004031498D504A11804A494031898D4F4A95
:1016300011808DE04749C98B474A11804549098C83
:10164000464A11804349498C454A118041494031FD
:10165000C98D444A11803F494031098E424A118068
:101660003C494031498E414A118071E03949898CA9
:10167000394A11803749C98C384A11803549098D5A
:10168000374A118033494031898E364A11803149B9
:101690004031C98E344A11802E494031098F334A76
:1016A000118055E02B49498D2B4A11802949898D9C
:1016B0002A4A11802749C98D294A1180254940317C
:1016C000498F284A118023494031898F264A00E0FA
:1016D0003FE011801F494031C98F244A118037E013
:1016E0001C49098E1C4A11801A49498E1B4A1180D7
:1016F0001849898E1A4A1180164980310988194A79
:101700001180144980314988174A1180114980316C
:101710008988164A11801BE00E49C98E0E4A118035
:101720000C49098F0D4A11800A49498F0C4A1180D2
:1017300008498031C9880B4A1180064980310989DE
:10174000094A1180034980314989084A118000BF44
:1017500000BF00BDACFFFF1F1CF1FF1F1EF1FF1FEC
:1017600020F1FF1F22F1FF1F24F1FF1F26F1FF1FB1
:1017700000B51D480078030005F04DFC0A33060B48
:1017800010151A1F24292E3318490878FFF71EFF59
:1017900027E017490878FFF719FF22E01549087874
:1017A000FFF714FF1DE014490878FFF70FFF18E05A
:1017B00012490878FFF70AFF13E011490878FFF78C
:1017C00005FF0EE00F490878FFF700FF09E00E491A
:1017D0000878FFF7FBFE04E00C490878FFF7F6FEF7
:1017E00000BF00BF00BD0000C9F0FF1F0AF1FF1FCE
:1017F0000CF1FF1F0EF1FF1F10F1FF1F12F1FF1F71
:1018000014F1FF1F16F1FF1F18F1FF1F1AF1FF1F40
:1018100070B505460C46002C02D0012C0AD104E01C
:1018200008A1284605F0CCFB09E007A1284605F0F1
:10183000C7FB04E005A1284605F0C2FB00BF00BFBE
:1018400070BD0000B9D80000BFAA00003F3F0000F3
:10185000F8B500F0D3FFFD48C08A00280DD1FC4840
:1018600040680121C9070843F949486008464068B3
:10187000012149070843F64948600120F5490870ED
:101880000020F5490860F5490860002400F0CCFF0D
:101890000020F34908700120F2490870F2490870ED
:1018A000EA49498C491E2822514388B24100EF4A37
:1018B000515AEF4A1180411C4900EC4A515AED4AF5
:1018C0001180811C4900E94A515AEB4A1180C11C20
:1018D0004900E64A515AE94A1180011D4900E34A8C
:1018E000515AE74A1180411D4900E04A515AE54AE0
:1018F0001180811D4900DD4A515AE34A1180C11D02
:101900004900DA4A515AE14A11800146143149002E
:10191000D64A515ADE4A1180014615314900D34A50
:10192000515ADC4A1180014616314900CF4A515ABA
:10193000D94A1180014617314900CC4A515AD74A39
:101940001180014618314900C84A515AD44A1180C1
:10195000014619314900C54A515AD24A11800146FF
:101960001A314900C14A515ACF4A118001461B31F0
:101970004900BE4A515ACD4A118001461C314900E6
:10198000BA4A515ACA4A118001461D314900B74A24
:10199000515AC84A118001461E314900B34A515A72
:1019A000C54A118001461F314900B04A515AC34A05
:1019B0001180014620314900AC4A515AC04A118079
:1019C000014621314900A94A515ABE4A11800146B7
:1019D00022314900A54A515ABB4A118001462331A0
:1019E0004900A24A515AB94A11800146243149009E
:1019F0009E4A515AB64A11800146253149009B4AF8
:101A0000515AB44A11809149498C491E28225143A8
:101A100009314900954A515AAF4A11808B49498C86
:101A2000491E282251430A314900904A515AAB4A73
:101A300011808649498C491E282251430B314900A7
:101A40008A4A515AA64A11808049498C491E282247
:101A500051430C314900854A515AA24A11807B49B1
:101A6000498C491E282251430D3149007F4A515A61
:101A70009D4A11807549498C491E282251430E31D7
:101A800049007A4A515A994A11807049498C491E35
:101A9000282251430F314900744A515A944A118007
:101AA0006A49498C491E28225143103149006F4A26
:101AB000515A904A11806549498C491E2822514348
:101AC00011314900694A515A8B4A118000208B49D3
:101AD000087074E100255E480069FF21013108406B
:101AE000002802D10120864908705848C08C01287E
:101AF00072D184480021415EFA2962DC82490020CB
:101B0000085E4F21C94388425BDB80490020085EA4
:101B10004F21C943884254DB7D48008800285BD1AF
:101B20007C480088002857D17B480088142853DA65
:101B30007A48008814284FDA47490968481E50211E
:101B4000FEF7DCFA48007649085A002844D1424999
:101B50000968881E5021FEF7D1FA48007049085ADA
:101B6000002839D13C490968C81E5021FEF7C6FA41
:101B700048006B49085A00282ED137490968481E89
:101B80005021FEF7BBFA49006548A030405A0028B2
:101B900022D131490968881E5021FEF7AFFA490069
:101BA0005F48A030405A002816D12B490968C81E4A
:101BB0005021FEF7A3FA49005948A030405A0028A6
:101BC0000AD125480068FF219131884204D91F4875
:101BD000808E022800D001251C48008D002809D0E5
:101BE0001D480068810041181848008D0A225043A2
:101BF000814219D81548408D00281FD01349488DBF
:101C0000FEF7A9FB47490090FEF75CFB06464649F4
:101C100012480068FEF772FA0090FEF79CFB074638
:101C20003146FEF7DBFD09D201203549087000205E
:101C300008490870C820FFF751FA0125FFF782FB19
:101C4000002801D1002D72D0012071E02C0000206D
:101C500000F00F40CAF0FF1FCCF0FF1FD0F0FF1FB5
:101C6000C8F0FF1FC9F0FF1F4AF1FF1FACFEFF1FA6
:101C7000D6F0FF1FD8F0FF1FDAF0FF1FDCF0FF1FC8
:101C8000DEF0FF1FE0F0FF1FE2F0FF1FE4F0FF1F98
:101C9000E6F0FF1FE8F0FF1FEAF0FF1FECF0FF1F68
:101CA000EEF0FF1FF0F0FF1FF2F0FF1FF4F0FF1F38
:101CB000F6F0FF1FF8F0FF1FFAF0FF1FFCF0FF1F08
:101CC000FEF0FF1F00F1FF1F02F1FF1F04F1FF1FD5
:101CD00006F1FF1F08F1FF1F0AF1FF1F0CF1FF1FA4
:101CE0000EF1FF1F10F1FF1F12F1FF1F14F1FF1F74
:101CF00016F1FF1F18F1FF1F1AF1FF1F6AF1FF1FF6
:101D0000D4F0FF1F60F1FF1F9CF0FF1F9EF0FF1F2C
:101D100088F0FF1F8CF0FF1F90F0FF1F92F0FF1F55
:101D200020FAFF1F0000C842F4150000FFE7002062
:101D3000002800D141E000202149087001202149FC
:101D40000870002020490870204908702049087058
:101D5000204840680121C90708431E4948601D48C2
:101D6000403840680121490608431A494039486013
:101D70000846406801210906084316494039486071
:101D800000F060FD00F0B8FDFF202D30FFF7A6F950
:101D90001048403880680121C90708430D4940397F
:101DA000886008468068012149070843094940398D
:101DB0008860002008490870F8BD00BF00BF89E6B0
:101DC000C8F0FF1FC9F0FF1FCAF0FF1F69F1FF1F16
:101DD0004AF1FF1F40F00F40D4F0FF1F3A488069DE
:101DE00080218843384988610846406980218843BA
:101DF0003549486135488068802108433349886007
:101E000031488069402188432F49886108464069EC
:101E1000402188432C4948612C4880684021084370
:101E20002A49886028484030806910218843264923
:101E30004031886108464069102188432249403179
:101E400048612248C068102108432049C8601E48E4
:101E500040308069091588431B4940318861084634
:101E60004069091588431849403148611748C068DE
:101E7000091508431549C860134840308069491561
:101E800088431149403188610846406949158843B3
:101E90000D49403148610D48C068491508430B4958
:101EA000C8600948806989158843074988610846E0
:101EB0004069891588430449486104488068891548
:101EC000084302498860704700F00F4000900440CA
:101ED0000548008A012806D10448806801210906C6
:101EE00008430249886070472C00002000F00F4032
:101EF0000548008A012806D1044880680121490666
:101F000008430249886070472C00002000F00F4011
:101F10001A4840690121C907084318494861084621
:101F200040684906084315494860144840384069EC
:101F30000121490608431149403948610846406873
:101F40000121490608430D49403948600846406967
:101F5000012109060843094940394861084640689B
:101F60000121090608430549403948600348806853
:101F7000C9040843014988607047000040F00F40E1
:101F80000548008A012806D1044880680121C90754
:101F900008430249886070472C00002040F00F4041
:101FA000FEB504460D4616466B4606223B216820C8
:101FB00000F0D4FA0746002F17D1684600780102D6
:101FC00068464078014308B2208068468078010264
:101FD0006846C078014308B228806846007900024C
:101FE00069464979084300B230803846FEBDFEB5E7
:101FF00004460D4616466B4606224321682000F033
:10200000ADFA0746002F17D16846007801026846EE
:102010004078014308B22080684680780102684613
:10202000C078014308B228806846007900026946FA
:102030004979084300B230803846FEBD10B52048CB
:102040004069082108431E49486108468068082104
:1020500008431B4988600846406904210843184921
:10206000486108464068042108431549486008460D
:1020700040690421084312494861084680680421E8
:1020800008430F49886000F01DF80D484069082199
:1020900008430B494861084640680821084308493D
:1020A000486000F00FF806484069082108430449D9
:1020B000486108468068082108430149886010BDCE
:1020C00000F00F4010B50220FFF720F810BD00000F
:1020D0000C484069082108430A494861084640689D
:1020E000082108430749486008464069042108431D
:1020F0000449486108464068042108430149486092
:102100007047000000F00F4010B5204840690821DA
:1021100008431E49486108468068082108431B4956
:102120008860084640690421084318494861084608
:102130004068042108431549486008464069042165
:1021400008431249486108464068042108430F4982
:102150004860FFF7B7FF0D484069082108430B4965
:102160004861084640680821084308494860FFF76D
:10217000A9FF064840690821084304494861084608
:102180008068082108430149886010BD00F00F40B5
:1021900070B50546002423488069042188432149FD
:1021A000886108464069042188431E4948611E48E9
:1021B0008068042108431C498860002627E01948EC
:1021C000406908210843174948610846806808218A
:1021D000084314498860FFF775FF124840690821D9
:1021E00008431049486108464068082108430D49E2
:1021F00048606006040E0846006904210840002873
:1022000001D0601CC4B2FFF75DFF701CC6B2082E7F
:10221000D5DB002D02D1FFF777FF01E0FFF70EFFBE
:10222000204670BD00F00F400090044070B5044699
:102230002D484069042108432B49486108464068FD
:10224000042108432849486008464069082108439A
:10225000254948610846806808210843224988606A
:1022600000253DE080202040C01100280CD11E48F0
:102270004069042108431C494861084680680421DC
:102280000843194988600BE0174840690421084356
:1022900015494861084640680421084312494860CE
:1022A0006006040E10484069082108430E49486141
:1022B00008464068082108430B494860FFF702FFC1
:1022C0000948406908210843074948610846806871
:1022D0000821084304498860FFF7F4FE681CC5B272
:1022E000082DBFDB70BD000000F00F4010B5204886
:1022F0004069042108431E4948610846406804219A
:1023000008431B49486008464069042108431849AE
:10231000486108464068042108431549486008465A
:10232000406908210843124948610846406808216D
:1023300008430F494860FFF7C5FE0D484069042176
:1023400008430B494861084680680421084308494E
:102350008860FFF7B7FE0648406908210843044932
:10236000486108468068082108430149886010BD1B
:1023700000F00F4010B520484069042108431E4971
:10238000486108464068042108431B4948600846E4
:1023900040690821084318494861084680680821B7
:1023A00008431549886008464069042108431249DA
:1023B000486108468068042108430F498860FFF798
:1023C00081FE0D484069082108430B4948610846D1
:1023D00040680821084308494860084640690421CC
:1023E00008430549486108464068042108430249FA
:1023F0004860FFF767FE10BD00F00F4010B50024E5
:10240000254880690421884323498861084640693A
:1024100004218843204948612048806804210843FA
:102420001E4988601C484069042108431A494861D4
:10243000084640680421084317494860FFF742FEF8
:102440001548406908210843134948610846406817
:102450000821084310494860FFF734FE07E0601C7C
:10246000C4B2FA2C03DDFFF785FF012010BD0A4836
:102470000069042108400028F1D10748406908217B
:102480000843054948610846806808210843024915
:1024900088600020EAE7000000F00F400090044050
:1024A00010B5FFF715FE6420FEF718FE80216B20A3
:1024B00000F0D5F86420FEF711FE00216B2000F03B
:1024C000CEF8032000F088F8002000F07DF83220DC
:1024D00000F0A7F80021382000F0C1F800216A20A0
:1024E00000F0BDF80021232000F0B9F8802137204A
:1024F00000F0B5F8752000F014F80446682C0CD1F3
:1025000001216B2000F0ABF800216C2000F0A7F84F
:102510007D20C00000F085F801E0012010BD002002
:10252000FCE770B50446FFF7E1FED020FFF77EFE22
:10253000FFF764FF2046FFF779FEFFF75FFFFFF725
:10254000D5FED120FFF772FEFFF758FF0020FFF7FE
:102550001FFE0546FFF70EFF284670BDF8B506467C
:102560000F4614461D46FFF7C1FE7106080EFFF721
:102570005DFEFFF743FF002803D0FFF7FBFE0120BD
:10258000F8BD3846FFF752FEFFF738FFFFF7AEFE03
:102590007100491CC8B2FFF749FEFFF72FFF0DE09D
:1025A000012C04D10020FFF7F3FD287003E0012087
:1025B000FFF7EEFD2870601EC4B26D1C002CEFD139
:1025C000FFF7D8FE0020DBE710B50446E006010E59
:1025D0001C2000F044F810BD10B50446E006010EC2
:1025E0001B2000F03CF810BD70B504460025BC2C43
:1025F00001DB012510E0622C01DB02250CE02A2C16
:1026000001DB032508E0142C01DB042504E00A2C7F
:1026100001DB052500E0062529461A2000F01FF8F9
:1026200070BD70B504467D20C000844200DD0446C4
:10263000042C00DA042421467D20C000FDF774FD3F
:10264000401EC6B23146192000F009F8064625465C
:10265000E10F4919C903080CFFF7C6FF70BD70B53B
:1026600005460C46FFF742FED020FFF7DFFDFFF7DF
:10267000C5FE002803D0FFF77DFE012070BD28466F
:10268000FFF7D4FDFFF7BAFE2046FFF7CFFDFFF7B7
:10269000B5FE002803D0FFF76DFE0120EEE7FFF73F
:1026A00069FE0020EAE7000010B50023194A032163
:1026B000022005F017FC0023164A0221084605F007
:1026C00011FC154840690121490708431249486136
:1026D000084680680121490708430F4988600023A4
:1026E0000C4A0121022005F0FDFB0023094A19468E
:1026F000022005F0F7FB084840690121C90708439B
:102700000549486108468068C90408430249886051
:1027100010BD0000D430000000F00F4010B504469A
:10272000224603210220FEF7B9FD012202210846BC
:10273000FEF7B4FD10BD10B50446012203210220AE
:10274000FEF7ACFD224602210846FEF7A7FD10BDAC
:1027500010B50446224601210220FEF79FFD01220A
:1027600000210220FEF79AFD10BD10B5044601229B
:1027700011460220FEF792FD224600210220FEF7BC
:102780008DFD10BD10B5002819DA1A4A03071B0F7A
:10279000083B9B089B00D2588307DC0EFF23A34015
:1027A0009A438B071B0E8407E40EA3401A43114B78
:1027B0000407240F083CA408A4001A5118E00E4A8C
:1027C00003231B02D21883089B00D2588307DC0E18
:1027D000FF23A3409A438B071B0E8407E40EA340FC
:1027E0001A43054B032424021B198408A4001A5120
:1027F00010BD00001CED00E000E100E010B500207D
:102800000CE0002106E00022CB00064C1B191A54F4
:102810004A1CD1B28029F6DB411CC8B20828F0DB83
:1028200010BD0000B0F1FF1F00B500218D2000F0A9
:10283000CDFA0021102000F0C9FA0021AE2000F0EE
:10284000C5FA00BD00B500218D2000F0BFFA0021BF
:10285000142000F0BBFA0021AF2000F0B7FA00BD51
:10286000F7B57F2801DC3F2900DDFEBD0C46CE1701
:10287000760F3619F6100727BE1BF2B2CE17760F69
:102880003619F610F6008E1BF5B20724661B0124DC
:10289000B440E3B2029C002C09D0C400094EA41934
:1028A000A45C1C43C600074FF619B45408E0C400EA
:1028B000044EA419A45C9C43C600024FF619B454FC
:1028C00000BFD2E7B0F1FF1FFFB506460F46344602
:1028D0000DE03D4606E029462046099AFFF7C0FF75
:1028E000681CC5B203988542F5DD601CC4B202982D
:1028F0008442EEDDFFBD000000B562484069012161
:10290000C90608435F494861084640680121C90675
:1029100008435C494860084640690121890608432C
:1029200058494861084640680121890608435549CD
:102930004860544840304069891508435149403146
:10294000486108464068891508434E49403148604F
:102950004C484069890508434A494861084640682F
:10296000012109070843474948600846406801219A
:102970000907084343494860424840308068891548
:1029800008434049403188607D20400107E06421D0
:1029900001E04A1E91B20029FBDC411E88B20028EA
:1029A000F5DC384840304068FF21013108433549A3
:1029B000403148600021AE2000F008FA0021D52007
:1029C00000F004FA0021802000F000FA0021A82085
:1029D00000F0FCF900213F2000F0F8F90021D3209D
:1029E00000F0F4F90021084600F0F0F90021402041
:1029F00000F0ECF900218D2000F0E8F9002114200E
:102A000000F0E4F90021202000F0E0F9002102208C
:102A100000F0DCF90021A12000F0D8F90021C0204D
:102A200000F0D4F90021DA2000F0D0F900211220C2
:102A300000F0CCF90021812000F0C8F90021EF203E
:102A400000F0C4F90021D92000F0C0F90021F120E4
:102A500000F0BCF90021DB2000F0B8F900213020A3
:102A600000F0B4F90021A42000F0B0F90021A62064
:102A700000F0ACF90021AF2000F0A8F9FFF7BEFE8E
:102A800000BD000000F00F4030B500241CE02146DE
:102A9000B031C8B2002100F099F90021084600F0D9
:102AA00095F90021102000F091F9002508E0E900D7
:102AB000074A8918085D012100F088F9681CC5B231
:102AC000802DF4DB601CC4B2082CE0DB30BD0000BC
:102AD000B0F1FF1FFFB584B00E4615461C460296A6
:102AE0002046E3175B0F1B18DB102246E7177F0F0A
:102AF000BF18FF10FF00E71B01D0012700E00027EF
:102B0000DB192146E70F7F187F107B43DBB201936F
:102B100028462038C5B200274FE00C2C04D0102CDA
:102B200009D0182C14D10CE00C206843254940181A
:102B3000C05D03900DE0280123494018C05D03905B
:102B400007E02420684321494018C05D039000E05D
:102B500000BF00BF0020009029E0802103980840BA
:102B6000002805D031460D9A0498FFF779FE0AE057
:102B70000D98002801D1012000E0002002463146D6
:102B80000498FFF76DFE03984006000E0390701C3A
:102B9000C6B20298301AA04205D1029E0498401C89
:102BA000C0B2049006E00098401CC0B200900098AB
:102BB0000828D2DB00BF781CC7B201988742ACDB83
:102BC00008B0F0BD58A30000CCA70000BCAD0000C9
:102BD000FFB581B00646002407E02548015D039853
:102BE000814200D103E0601CC4B2092CF5DB00BFB8
:102BF0000394002438E000272BE0FF218131039863
:102C000048431C49411806206043C019085C0090E5
:102C100000251AE01848405D00990840002805D0BA
:102C20003046049A0299FFF71BFE0AE00498002838
:102C300001D1012000E00020024630460299FFF752
:102C40000FFE701CC6B2681CC5B2082DE2DB781CF2
:102C5000C7B2062FD1DB0298401CC0B202903046AA
:102C60003038C6B2601CC4B2402CC4DB05B0F0BD25
:102C700038820000D895000018BB0000FFB581B075
:102C8000064614461D460A9F0DE0009722782B4603
:102C900030460299FFF71EFF2846E90F0918491030
:102CA0008919CEB2641C20787E2802DC2078202886
:102CB000EBDA05B0F0BDF8B505460F4614461E46E2
:102CC0001FE02078002800D11CE020787E280DDC51
:102CD000207820280ADB009622780C2339462846E3
:102CE000FFF7F8FEA81DC5B2641C0AE000966378E1
:102CF00022783946284600F007F828460C30C5B23D
:102D0000A41CDEE700BFF8BDFFB582B0064617463B
:102D100000240CE02A48005DB84206D12849601C16
:102D2000095C0598814200D103E0A01CC4B2C82C04
:102D3000F0DB00BF2046E10F0918C9050F0E002483
:102D40003AE0002000902BE0182078431D494118FC
:102D5000620000981018085C019000251AE01A48DB
:102D6000405D01990840002805D030460B9A039930
:102D7000FFF776FD0AE00B98002801D1012000E062
:102D80000020024630460399FFF76AFD701CC6B268
:102D9000681CC5B2082DE2DB0098401CC0B2009050
:102DA00000980228D0DB0398401CC0B20390304644
:102DB0001038C6B2601CC4B20C2CC2DB06B0F0BD29
:102DC000508200001883000018BB000010B50029D5
:102DD00002D0012910D107E0204A926801231B0785
:102DE0001A431E4B9A6007E01C4A526801231B07D6
:102DF0001A431A4B5A6000BF00BF002224E0174B51
:102E00009B680124E4062343144CA3608023034001
:102E1000002B07D023465B680124A40623430F4CF4
:102E2000636006E00D4B9B680124A40623430B4C12
:102E3000A3600A4B5B680124E4062343074C6360EC
:102E40004306180E531CDAB2082AD8DB034A52682C
:102E500001231B071A43014B5A6010BD00F00F40BD
:102E600000B599B0FE48C06801210843FC49C8601C
:102E7000FC4AFD49FD48FFF793F8FD4AFD49FE482D
:102E8000FFF7B5F8FB4BF74AF849FC48FEF736FB6D
:102E9000FB480069012189020840002803D104F0A1
:102EA00085FF404202E0002004F080FF00B2F549B7
:102EB0000880F3484030006920210840002803D1F1
:102EC000012004F073FF03E0012004F06FFF404293
:102ED00000B2ED490880EB490020085EEA49002273
:102EE0008A5E8018C10F17900818401000B2E74999
:102EF0000880E7480078002818D0E6480068401CA1
:102F0000E4490860E44800680A2807D2DF48002145
:102F1000415E002902DA0020DC490880DE480068B2
:102F2000DA4900228A5E8018DB490860002004F03C
:102F300035FF012004F032FFD8480088D8490880C6
:102F4000D8480088D84908800E20FEF7D1F915909E
:102F5000FDF701FA01461690D44805F0C7F817901E
:102F6000FDF72DFACD4908800D20FEF7C1F9159027
:102F7000FDF7F1F901461690CC481C3005F0B6F883
:102F80001790FDF71CFAC74908800120FEF7B0F939
:102F9000C74908800020FEF7ABF9C6490880C6483B
:102FA0000068C6490860C6480068C6490860C64847
:102FB0000068C1490860C5480068C1490860C44844
:102FC0000068C1490860C3480068C0490860AF494B
:102FD0000020085EFDF7B4F91790AE480068401E67
:102FE00050211190FDF78AF84900BB48405A1290D1
:102FF000FDF7B1F91490AE480088FDF7ACF91390D5
:103000001499FDF71AF9B5491590FDF71EF91690B8
:103010001799FDF757F9AE4908609C490020085EF2
:10302000FDF78EF917909B480068401E50211190C3
:10303000FDF764F84900A848A030405A1290FDF707
:103040008AF914909B480088FDF785F9139014992C
:10305000FDF7F3F8A1491590FDF7F7F816901799C9
:10306000FDF730F99B490860974801689848006867
:10307000FDF792F81590904801681598FDF78CF8C7
:1030800016908E4801681698FDF786F88121C905CB
:103090001790FDF717F98E4908608C4801688D4834
:1030A0000068FDF779F81590854801681598FDF7D7
:1030B00073F81690834801681698FDF76DF8812122
:1030C000C9051790FDF7FEF882490860282171486C
:1030D0000068FDF713F8890081487D4A1268425064
:1030E00028216C480068FDF709F888007D49794A75
:1030F00012680A50502167480068FCF7FFFF48003B
:103100007949664A12880A52502162480068FCF7E1
:10311000F5FF49007048A038624A12884252502197
:103120005C480068FCF7EAFF49006B48604A128877
:103130004252502157480068FCF7E0FF49006648BA
:10314000A0305C4A1288425252480068401E50210A
:103150001490FCF7D3FF17914E480068801E502151
:103160001490FCF7CBFF16914A480068C01E50210E
:103170001490FCF7C3FF15914D4800884D4909880C
:10318000401AFF21C331884211DD444800884B2199
:10319000C90088420BDD43480088884207DD0120D2
:1031A000524908703C4800685149086019E041489C
:1031B00000883F490988401AFF21C331884210DD49
:1031C000364800884B21C90088420ADD354800880E
:1031D000884206DD0220454908702F4800684449AE
:1031E00008602E480088FDF7B6F8424908602D486F
:1031F0000088FDF7B0F83F4948602D480088FDF78A
:10320000AAF83C4988602B480088FDF7A4F83949A2
:10321000C860394800881F49096888421FD21D4884
:10322000006836490988884219D23548808E0128BD
:1032300015D110490020085EFDF782F8149031483E
:103240000088FDF788F830491290FDF73BF813909D
:103250001499FCF7FAFF16902C48008858E076E0A5
:10326000007103405EF0FF1F5CF0FF1F5AF0FF1F6C
:1032700064F0FF1F62F0FF1F60F0FF1F68F0FF1F88
:1032800000F00F409CF0FF1F9EF0FF1F60F1FF1F3A
:10329000CAF0FF1FCCF0FF1FD0F0FF1F88F0FF1F08
:1032A0008AF0FF1F8CF0FF1F8EF0FF1F3CFEFF1FF8
:1032B00090F0FF1F92F0FF1F74F1FF1F78F1FF1FC6
:1032C00084F1FF1F88F1FF1F70F1FF1F80F1FF1FC6
:1032D0006CF1FF1F7CF1FF1F60FBFF1F00004843E4
:1032E000A0FCFF1F40FDFF1F20FAFF1F62F1FF1F20
:1032F00064F1FF1FE0FDFF1F00F1FF1F02F1FF1F40
:103300002C000020DCF0FF1F0000C842FEF0FF1F71
:10331000FDF721F81290FC4800680121C9074840D8
:1033200011901299FCF738FF1490F8480088FDF7C7
:1033300012F813901499FCF788FF15901699FCF772
:103340002BFF1790FDF722F8F14908605DE0F14886
:103350000021415E002903DD01460020085E03E0F4
:10336000EC480021415E48420790FCF7FBFFEA4A27
:10337000EA4B09910890FDF7FDF80D910C90E84992
:103380000020085EFCF7EEFF0B910A900D9B0C9A53
:10339000FDF7E2F811911090E2480088FCF7DBFF9E
:1033A000E1490C90FCF78EFF0D90FDF7E7F90F91C6
:1033B0000E90119B109AFDF7DDF815911490DB48E3
:1033C0000088FCF7C8FF0E90CF4800680121C907AC
:1033D00048400D900E99FCF7DFFE1090CB48008816
:1033E000FCF7B9FF0F901099FCF72FFF1190FDF734
:1033F000C5F913911290159B149AFDF709F81791CE
:103400001690FDF797F9C2490860C9490020085E87
:10341000C8490880C8480088C8490988401A00B2CD
:10342000C3490880C6480078030003F0F4FD050492
:10343000DAFDFCFBD900C348008BC04909888842EB
:103440007EDAC048008BBC4909888842F8DABE4859
:10345000BE4948600021BE480068FDF7BFF95BD84F
:10346000BC480078012857D1BB480078002853D1C8
:10347000BA480068BA490968401A7D21C9008842E3
:103480004AD9B6480068B6490968401AB549884221
:1034900042D20020AF490870B14908600021B2480B
:1034A0000068FCF7A1FF0BD90021B0480068FCF7C9
:1034B0009BFF05D90021AE480068FCF795FF2BD88B
:1034C000AC480088FF219131884225DCAA48006879
:1034D000002821D1FEF74CF9A8480078A8490870C7
:1034E0000020A849087001209B4908706420A64963
:1034F0000880A2480068401E9F49086097480068FD
:10350000A24908608E480078401C8D490870FEF77B
:1035100037FD8D488D49086000219D480068FDF702
:103520005DF95DD88B480078022859D18A48007827
:10353000002855D18948006889490968401A00E087
:103540004EE07D21C90088424AD9844800688449F8
:103550000968401A8349884242D200207D49087098
:103560007F49086000218B480068FCF73DFF0BD9BC
:10357000002189480068FCF737FF05D900218748FA
:103580000068FCF731FF2BD885480088FF21913176
:10359000884225DC78480068002821D1FEF7E8F849
:1035A000764800787F49087000207F490870022023
:1035B0006949087064207449088070480068401E9A
:1035C0006D49086065480068704908605C4800788B
:1035D000401C5B490870FEF78BFC5B485B49086048
:1035E00077E26648007864490978401AC0B21790BB
:1035F0005A48008865490988401A80B216905E488A
:10360000006800287ED0694909881698884279DACE
:1036100017980A2801DD0A2017904F4800780128E2
:1036200060D102E02CE2BEE137E144480088FCF7BB
:1036300092FE14901798FCF78EFE0F905C4800885D
:10364000FCF789FE0D903C480088FCF784FE364963
:103650000790FCF737FE099038480088FCF77BFE9E
:1036600031490790FCF72EFE08900999FCF794FD6C
:103670000B9031480088FCF76EFE2B490790FCF751
:1036800021FE09902D480088FCF765FE2649079029
:10369000FCF718FE08900999FCF77EFD0A900B993B
:1036A000FCF7D3FD0C900D99FCF70CFE0E900F99D2
:1036B000FCF7CBFD24491090FCF704FE12901E4845
:1036C0000088FCF748FE11901299FCF7FBFD13905F
:1036D0001499FCF7B2FD1590FCF758FE00B214499E
:1036E0000880B8E01C48007802280CD11798FCF735
:1036F00032FE0F902E480088FCF72DFE0D900E48EC
:10370000008857E0ABE0A6E068F0FF1FDAF0FF1F8B
:1037100074F0FF1F64F0FF1F7B14AE47E17A743F23
:1037200062F0FF1FDCF0FF1F0000C842D6F0FF1F51
:1037300098F0FF1F9AF0FF1F8CF0FF1F88F0FF1F0B
:10374000C8F0FF1F2C00002000002041E0FDFF1FFB
:103750006CF1FF1F62F1FF1F68F1FF1FD0F0FF1F28
:1037600064F1FF1F7017000070F1FF1F74F1FF1F5D
:1037700078F1FF1F90F0FF1F28F1FF1FCCF0FF1F13
:103780008DF1FF1F8EF1FF1F00F0FF1F2CF1FF1FB7
:103790007CF1FF1F80F1FF1F84F1FF1F88F1FF1FE5
:1037A00092F0FF1F91F1FF1F92F1FF1F20F1FF1F09
:1037B0001CF1FF1FFCF7CFFDFE490790FCF782FDCF
:1037C0000990FD480088FCF7C6FDFA490790FCF710
:1037D00079FD08900999FCF7DFFC0B90F748008809
:1037E000FCF7B9FDF3490790FCF76CFD0990F2482E
:1037F0000088FCF7B0FDEF490790FCF763FD0890E7
:103800000999FCF7C9FC0A900B99FCF71EFD0C9076
:103810000D99FCF757FD0E900F99FCF716FDE8493E
:103820001090FCF74FFD1290E3480088FCF793FDE1
:1038300011901299FCF746FD1490E0480088FCF7BF
:103840008AFD13901499FCF7F8FC1590FCF79EFD87
:1038500001B2DC4801800520DB4908801CE0DB4820
:103860000078401CD9490870D9480068D9490860D7
:10387000D9480068D9490860D94840680121C9077A
:103880000843D7494860D648403840680121490676
:103890000843D349403948601BE1D24800780128E9
:1038A0002CD10021D0480068FCF79EFD26D80021CD
:1038B000CE480068FCF792FF20D20021CC48006877
:1038C000FCF78CFF1AD20021CA480068FCF786FF7B
:1038D00014D2C948008B6438B749098888420DDA88
:1038E000C548008B6438C5490988884206DAC24851
:1038F000008B6438C2490988884230DBB9480078B7
:1039000002284FD10021BF480068FCF76DFD49D85F
:103910000021BD480068FCF761FF43D20021BB488D
:103920000068FCF75BFF3DD20021B9480068FCF756
:1039300055FF37D2B048008B6438A04909888842C7
:1039400030DAAD48008B6438AC490988884229DAFE
:10395000A948008B6438AA490988884222DA9B4822
:103960000078401C9949087099480068401E9949A0
:1039700008609948006899490860994840680121A1
:10398000C907084396494860954840384068012176
:1039900049060843924940394860FEF799FA9D4824
:1039A0009D49886095E08C4800688C490968401AF8
:1039B0009A490988884241D9874800688749096837
:1039C000401A97490988884238D2964892498860B7
:1039D00084480078012814D193480088FCF7BBFC88
:1039E0007749169080480068FCF72FFC15901699CF
:1039F000FCF768FC1790FCF7C9FC00B2714908801D
:103A00003DE078480078022839D187480088FCF7E3
:103A1000A2FC16907B4800680121C907484068490C
:103A20001490FCF712FC15901699FCF74BFC1790BC
:103A3000FCF7ACFC00B26349088020E066480068EF
:103A400066490968401A76490988884217D95F484B
:103A50000078401C5D4908705D4800685D49086059
:103A60005D4800685D4908605D4840384068012154
:103A7000090608435A4940394860FEF781FA28E0B0
:103A80005548006855490968401A684988421FD955
:103A900000204E4908704F4908605049086051495C
:103AA000087063480078401C614908705248C08E15
:103AB0000978884202DA01205D4908704848406868
:103AC0000121C907084346494860C8203E4908808B
:103AD00000BF00BF57480068574908605748006852
:103AE0005449086056480068544908603549002028
:103AF000085EFCF725FC0D90FCF740FE514A524B46
:103B00000F910E90FCF736FD139112902D49002075
:103B1000085EFCF727FC0B910A902A490020085EFA
:103B2000FCF70EFC0590FCF729FE484A484B07912C
:103B30000690FCF71FFD099108900B9B0A9AFCF771
:103B400019FD0F910E901F490020085EFCF70AFC3A
:103B50000B910A901B490020085EFCF7F1FB0390D3
:103B6000FCF70CFE0791069016490020085EFCF752
:103B7000E7FB0190FCF702FE364A374B03910290B7
:103B8000FCF7F8FC05910490079B069AFCF7F2FC01
:103B9000099108900B9B0A9AFCF7ECFC0D910C9094
:103BA0000F9B0E9AFCF734FC11911090139B129A04
:103BB00054E000000000C84288F0FF1F8CF0FF1F97
:103BC0000000204198F0FF1F00F0FF1FC8F0FF1F0A
:103BD000CCF0FF1F28F1FF1FD0F0FF1F2CF1FF1FBB
:103BE00040F00F4068F1FF1F7CF1FF1F80F1FF1FC5
:103BF00084F1FF1F88F1FF1F2C00002090F0FF1FB1
:103C000092F0FF1F6CF1FF1F70F1FF1F74F1FF1F97
:103C100078F1FF1F00004843E0FDFF1F24F1FF1F64
:103C200026F1FF1F0000FA4322F1FF1FB80B00002E
:103C3000C9F0FF1FB8F0FF1FBCF0FF1FB4F0FF1F5B
:103C4000B0F0FF1FD4B7CCE9B298883F1C0CD0115C
:103C500054E8C7BE9FB7BB4ED6A8353EFCF7D8FB8D
:103C6000FD4AFE4B15911490FCF776FC17911690C7
:103C7000FCF798FDFA490860FA490020085EFA4905
:103C800000228A5E801A1790FCF75AFB1890F748BA
:103C90000088FCF760FB14901899FCF7D6FA169090
:103CA000F3480088FCF757FB1490ED48016814981E
:103CB000FCF7CBFA15901699FCF76EFA1790FCF703
:103CC00065FBEC490860EC480068EC49096841185C
:103CD000E8480068091AEA480160E7480068E749CF
:103CE00009684118E34800680918E6480160E64899
:103CF0000078002806D0012824D0022862D00328AA
:103D00001FD1DAE0E148808E02281AD1E04800682D
:103D1000002816D0DF4800880A2812DADE4800881A
:103D20000A280EDADD4800880A280ADADC4800880A
:103D30000A2806DAD4480078401CD3490870FEF7F8
:103D4000D7F8DCE0D148808E022815D1D148008810
:103D5000322811DAD048008832280DDACF4800889E
:103D6000322809DACE480088322805DA0020C44912
:103D70000860C449086024E0C6480188FF20F53087
:103D800081420DDCC4480088FF21F531884207DC00
:103D9000C2480088884203DCC1480088884210DDA0
:103DA000C0484068012149060843BE494860B848F8
:103DB000008881B2BC480180B3480078401CB249F9
:103DC00008709CE0B3480088002875D1B24800888C
:103DD000002871D1B148008805286DDCB048008802
:103DE000052869DCB0480088002865D0A84801682B
:103DF000AD480088081AFF21F53188425CD9A448F3
:103E00000068401E50211790FCF778F94900A74838
:103E1000405A002850D19E480068801E50211790BB
:103E2000FCF76CF94800A149085A002844D1984889
:103E30000068C01E50211790FCF760F949009B48AC
:103E4000405A002838D192480068401E50211790EF
:103E5000FCF754F949009548A030405A00282BD16E
:103E60008B480068801E50211790FCF747F94900E5
:103E70008E48A030405A00281ED185480068C01ED8
:103E800050211790FCF73AF949008848A030405A71
:103E9000002811D17C480078401C7B490870FEF74F
:103EA0006FF8FF202D308249088001208149087079
:103EB000774800887C49088021E0754800687A4985
:103EC0000988401AC82819D9764880680121C9078D
:103ED00008437449886008468068012149070843FF
:103EE000704988600020684908706E48403040681A
:103EF0000121C90708436B494031486000BF00BF3A
:103F000068480069FF2101310840002806D10120DE
:103F100068490870FF202D306549088065480078A1
:103F200001280FD164490020085E644900228A5E9E
:103F3000801840423C2148435149086008460068C7
:103F4000504908604E480068002816DA4C4800685E
:103F500040424B490860084600685949884202DBE4
:103F60000846474908604648008880B21790FEF727
:103F7000E2FB0020424908600FE0414801685048D8
:103F8000814201DB3E4908603D48008880B21790BD
:103F9000FEF7C4FB00203A4908603A480068002850
:103FA00016DA38480068404236490860084600681A
:103FB0004349884202DB084632490860314800889C
:103FC00080B21790FEF7D1FB00202E4908600FE069
:103FD0002C4800683A49884201DB2A480160294898
:103FE000008880B21790FEF7B3FB002025490860D7
:103FF0002F480088052807DB2D480088401F2C49E2
:104000000880FCF76FFE06E026488068012149021F
:104010000843244988602B48007800281AD01B48A0
:10402000808A002816D023480078002812D10D4934
:10403000085EFCF785F92449C860244800680861D7
:1040400023480078FCF787F91F49486100F0B6FA69
:1040500000F0C0FA19B000BDB115342DB1327A3F6D
:10406000B0F0FF1F98F0FF1F9AF0FF1FE4F0FF1F52
:10407000E2F0FF1F7CF0FF1F74F0FF1F78F0FF1FBE
:1040800080F0FF1F84F0FF1F69F1FF1F2C0000204C
:10409000CCF0FF1F88F0FF1F8CF0FF1F90F0FF1F78
:1040A00092F0FF1F00F00F4094F1FF1F20FAFF1F56
:1040B00000F0FF1FD4F0FF1F9CF0FF1F9EF0FF1FBA
:1040C0004E0C00004AF1FF1FE0FDFF1F68F0FF1FCC
:1040D000C9F0FF1F0348C169012001430148C161C4
:1040E000704700000071034070B504460D46164647
:1040F0001F484069022108431D4948611D48006866
:10410000022188431B49086020461630C206D20EA1
:1041100001219140184A116000BF184868431849AE
:104120002201885008462101401880680221084376
:1041300013492201891888601148210140188168BB
:10414000012001430E48220180188160214616316A
:1041500048B23146FEF716FB20461630C206D20E94
:1041600001219140044A803A116000BF70BD0000F7
:10417000008004400070034080E100E0409C0000AB
:1041800000710340F0B58FB005460E4617463878EB
:1041900044B200BFA2B201A908A800F093F9A81B7D
:1041A000401C0D225043C1B2002308AA5420FEF740
:1041B00082FDA81B401C0D225043C1B2002301AA5E
:1041C0006C20FEF778FD00200090FDF7BBF803009F
:1041D00002F021FF065A04131C414D5AA01C44B2A0
:1041E0000D2C01D10B2000E0204604460E2C01D1FD
:1041F0000C2000E02046044646E0A01E44B2002CFD
:1042000001DC002000E0204604463DE00120009053
:104210002846C7302F4908803888098849002E4A27
:104220005052002009E04100FF22520289180988FB
:104230004200294B9952411C88B2FF28F3DD3C8093
:10424000FF20FCF7C1FF0023012252022249FF2078
:10425000FCF7ECFF18E02046E10F0918491049006F
:10426000611A01D1611E00E021464CB20CE02046EB
:10427000E10F091849104900611A012901D1611C97
:1042800000E021464CB200BF00BF009801281BD1BE
:10429000A2B201A908A800F015F9A81B401C0D2224
:1042A0005043C1B2012308AA5420FEF704FDA81B05
:1042B000401C0D225043C1B2012301AA6C20FEF71D
:1042C000FAFCFEF7E1FB02E0FEF7DEFB62E700BF6F
:1042D0000FB0F0BD9CF1FF1FACFEFF1FF0B58BB01F
:1042E00005460F461646308804B26F48844200DD0A
:1042F00000E020460446002C01DA002000E02046C1
:10430000044600BF224669A104A802F059FE00201D
:104310000090E81B401C0D225043C1B20C2304AA9C
:104320006620FEF7ABFC00200390FDF70BF80300BE
:1043300002F071FE069B040D1632479B601C04B20E
:104340005948844200DD00E0204604468DE0012CFF
:1043500001DA012000E020460446601E04B284E039
:1043600001200390002009E04100FF225202891839
:10437000098842004F4B9952411C88B2FF28F3DD57
:104380003480FF20FCF720FF00230122520249491C
:10439000FF20FCF74BFF68E00A2D0DDB122D0BDC34
:1043A0002046E10F091849104900611A01D1611E28
:1043B00000E021460CB258E001200390308804B29E
:1043C00053E00020029000BF3B480088201804B250
:1043D0003548844200DD00E020460446002C01DA26
:1043E000002000E020460446FCF7ACFF032806D07E
:1043F000042820D1308804B2012002901BE0002064
:1044000009E04100FF225202891809884200294B25
:104410009952411C88B2FF28F3DD3480FF20FCF75D
:10442000D3FE0023012252022249FF20FCF7FEFEA8
:104430000120029000BF00BF224620A104A802F084
:10444000BFFD00200090E81B401C0D225043C1B26C
:104450000C2304AA6620FEF711FCFEF715FB029858
:104460000028B1D000BF00BF00BF00BF03980128E3
:1044700013D122460DA104A802F0A2FD0120009054
:10448000E81B401C0D225043C1B20C2304AA662035
:10449000FEF7F4FBFEF7F8FA02E0FEF7F5FA31E773
:1044A00000BF0BB0F0BD00000F27000025346420D2
:1044B00000000000ACFEFF1F9CF0FF1F25346423AA
:1044C0000000000070B506460D461446002C08D1C9
:1044D0002FA1304602F074FD2DA1284602F070FD98
:1044E00070BD2046E10F091849104900611A02D039
:1044F00001290AD104E027A1304602F061FD09E05C
:1045000025A1304602F05CFD04E024A1304602F013
:1045100057FD00BF00BF2046E10F091849104900B0
:10452000611A01D1611E00E021468CB22046E10FE4
:10453000091849100B0002F06EFD0604090E13184D
:104540001D2217A1284602F03BFD1DE015A12846BB
:1045500002F036FD18E014A1284602F031FD13E008
:1045600012A1284602F02CFD0EE011A1284602F00F
:1045700027FD09E00FA1284602F022FD04E00EA16C
:10458000284602F01DFD00BF00BF00BFA8E70000E5
:104590002D2D2D00D3D22000D7F320003F3F000067
:1045A00020353000203630002037300020383000F1
:1045B00020393000313030003F3F3F0010B55520EA
:1045C00003F033FEAA2003F030FE112003F02DFE8D
:1045D00010BD000070B50025552003F026FEAA206E
:1045E00003F023FEFF2003F020FE012003F01DFE58
:1045F000062003F01AFE00241CE0A00010490D5C08
:10460000284603F012FEA0000D49401845782846C0
:1046100003F00BFEA0000A4940188578284603F0F5
:1046200004FEA00006494018C578284603F0FDFDA9
:10463000601CC4B2062CE0DB012003F0F6FD70BD67
:10464000E0FDFF1F10B51748408C030002F0E3FCAB
:104650000627040B12192027012313A2132100207F
:10466000FEF729FB1CE0012315A213210020FEF711
:1046700022FB15E0012318A213210020FEF71BFBEB
:104680000EE001231AA213210020FEF714FB07E01D
:1046900001231DA213210020FEF70DFB00E000BF47
:1046A00000BF10BD2C000020202020202020202032
:1046B000B0B820D2BB2020202020202020200000C5
:1046C0002020202020202020B0B820B6FE2020204E
:1046D000202020202020000020202020202020201A
:1046E000B0B820C8FD20202020202020202000005D
:1046F0002020202020202020B0B820CBC420202043
:1047000020202020202000002020202020202020E9
:10471000B0B820CEE520202020202020202000003E
:104720001248134988800120487023200870112006
:10473000000510494862104840780007000F0E49F4
:10474000487094200D4908701A200B49087000BF6A
:1047500009480079102108400028F9D100BF064817
:1047600000790C2108400028F9D1704703E80000C7
:1047700000200540008004400040064000500640F4
:10478000F3B581B00646B00049490C58002E04D05C
:10479000012E22D0022E62D140E04648C06880211E
:1047A00088434449C8600846406901210905084317
:1047B000404948614048C078082108433E49C870D4
:1047C0000846C078042108433B49C8700846C078B1
:1047D000202108433849C87000BF364800690121CC
:1047E00009038843334908610846406901214905A6
:1047F0000843304948613148C078082108432F49AF
:10480000C8700846C078042108432C49C87008467F
:10481000C078202108432949C87021E02548006953
:104820000121490388432349086108464069012161
:10483000890508431F4948612148C0780821084379
:104840001F49C8700846C078042108431C49C87035
:104850000846C078202108431949C87000E000BF0D
:1048600000BFE0780C218843E0700020A07015485C
:104870000299FBF743FC471D0A213846FBF73EFC33
:1048800085B21148854200DD054620784009400187
:1048900020702078E904C90E08432070657000205C
:1048A000A070A0716071E0780C210843E070FEBD3B
:1048B0004CBC00000080044000A0064000B0064050
:1048C00000C0064040787D01FF1F000030B5024661
:1048D0000B4690000B4D2C58002108E020798025D4
:1048E0002840002801D0E37104E0481CC1B206480A
:1048F0008142F3DB00BF0448814201DB012030BD6F
:104900000020FCE74CBC0000BBFB000030B589B0C8
:10491000FDF774FF012321A200210846FEF7CBF921
:1049200000BFFCF70FFD032802D0042803D100BF0D
:10493000002009B030BD1F480068FBF71FFF044688
:1049400022460B461CA101A802F03AFB012301AA52
:104950000C210020FEF7AFF91B4803881B48028892
:104960001BA101A802F02CFB012301AA1A2100209F
:10497000FEF7A1F91B480023C35E1B480022825E9C
:104980001AA101A802F01CFB012301AA2721002083
:10499000FEF791F9FEF778F8C3E7000020203C20ED
:1049A00020202020D7D42020BCEC20202020202034
:1049B0002020000068F0FF1FB8A9D1F6BDC73A2536
:1049C0002D332E32660000008CF0FF1F88F0FF1F91
:1049D0004144D7F320203A252D346420D3D23A2500
:1049E0002D3464009EF0FF1F9CF0FF1FD7AACBD987
:1049F000D7F33A252D346420D3D23A252D346400E0
:104A0000F0B5CDB001250026012400270A204C90E6
:104A1000FDF7F4FEFF222D32774901A8FBF798FB42
:104A2000012301AA00210846FEF745F91E20604334
:104A300001A9421801230D210020FEF73CF9601C5A
:104A40001E21484301A9421801231A210020FEF724
:104A500032F9A01C1E21484301A942180123272135
:104A60000020FEF728F9E01C1E21484301A9421846
:104A7000012334210020FEF71EF900BF2E462746F1
:104A8000FCF760FC012806D002280DD0032817D0BF
:104A9000042828D111E0681EC5B2012D01DA0920D1
:104AA00000E0284605461EE0681CC5B2092D01DD60
:104AB000012000E02846054615E000204DB0F0BD7D
:104AC000012D06D0022D06D0032D06D0042D08D1CD
:104AD00005E01F20F2E72020F0E72120EEE7052087
:104AE000ECE70020EAE700BFA54201DA284600E033
:104AF00020460446E81EA04200DD00E02046C4B285
:104B0000AE421FD001200C232022194600901846E7
:104B1000FDF7E0FF01200C23202219210090184608
:104B2000FDF7D8FF01200C232022262100901846F3
:104B3000FDF7D0FF01200C232022322100901846DF
:104B4000FDF7C8FFA74226D01E20604301A94218E6
:104B500001230D210020FEF7AEF8601C1E21484302
:104B600001A9421801231A210020FEF7A4F8A01C75
:104B70001E21484301A94218012327210020FEF7E6
:104B80009AF8E01C1E21484301A942180123342150
:104B90000020FEF790F8A54208D101200C23402206
:104BA000194600901846FDF795FF22E0601C8542EB
:104BB00008D101200C234022192100901846FDF74E
:104BC00089FF16E0A01C854208D101200C23402259
:104BD000262100901846FDF77DFF0AE0E01C854283
:104BE00007D101200C234022322100901846FDF706
:104BF00071FFFDF749FF41E720BB0000F0B58BB026
:104C0000FDF7FCFD00BFB5480068FBF7A4FB0746B5
:104C1000B349FBF757FB0446FBF7B0FD05462A46B0
:104C20000B46B0A103A802F0CBF901200C2303AA84
:104C30001B2100900020FEF721F8AC480068FBF72C
:104C40008AFBAB490290FBF700FB0746A949FBF73B
:104C500039FB0446FBF792FD05462A460B46A6A102
:104C600003A802F0ADF901200C2303AA282100902B
:104C70000020FEF703F89D480068FBF76CFB9C4999
:104C80000090FBF7E2FA9B490190FBF71BFB0746FC
:104C900092480068FBF75FFB91490190FBF712FB1C
:104CA00039460290FBF70EFB0446FBF767FD05460D
:104CB0002A460B4692A103A802F082F901200C2398
:104CC00003AA352100900020FDF7D8FF874800682F
:104CD000FBF741FB074681480068FBF73CFB394680
:104CE0000290FBF7EFFA0446FBF748FD05462A461B
:104CF0000B4685A103A802F063F901200C2303AA47
:104D0000232100906220FDF7B9FF01200C2380A22F
:104D1000002100900620FDF7B1FF7E48808C3030E6
:104D2000C2B2012300213720FDF752FF7948808E5F
:104D3000002804D0012807D002280FD109E076A16D
:104D400003A802F03DF909E075A103A802F038F9C3
:104D500004E075A103A802F033F900BF00BF0123EE
:104D600003AA30216220FDF7A6FF6A48808C05283F
:104D700001DB052001E06748808C66498884FCF7E8
:104D8000E1FA030002F047F906A60434647076A63F
:104D90006048808C401C81B25E488184808C0528EC
:104DA00001DB052001E05B48808C5A498884084675
:104DB000808C5F490880002009E04100FF225202F8
:104DC0008918098842005B4B9952411C88B2FF2820
:104DD000F3DD574801884F488184FF20FCF7F4F940
:104DE0000023012252025349FF20FCF71FFA71E011
:104DF0004848808C002801D1012001E04548808C82
:104E0000444988840846808C401E81B24148818490
:104E1000808C47490880002009E04100FF225202AF
:104E2000891809884200434B9952411C88B2FF28D7
:104E3000F3DD3F48018837488184FF20FCF7C4F93F
:104E40000023012252023B49FF20FCF7EFF941E029
:104E50003049888CFCF7FEF8002802D001200BB006
:104E6000F0BDFCF7F5FC35E00020204908601B4947
:104E70000860F4E72748808E401C81B2254881866F
:104E8000808E022801DD002001E02248808E214929
:104E900088860846808E26490880002009E0410067
:104EA000FF225202891809884200224B9952411C64
:104EB00088B2FF28F3DD1E48018816488186FF204E
:104EC000FCF782F90023012252021A49FF20FCF765
:104ED000ADF900BF00BFFDF7D7FD94E6D0F0FF1F8E
:104EE00000A0AF4573252D2E32660000CCF0FF1FC9
:104EF0000000A04000007A4474252D2E3266000088
:104F000076252D2E3266000056252D2E32660000A5
:104F10003C0000002C000020C6D5CDA83E000000BB
:104F2000D4A4C8FC3E000000BEF6C8FC3E00000051
:104F300008F0FF1FACFEFF1FF0B58BB0FDF75EFC65
:104F400001231EA200210846FDF7B5FE00BFFCF7B5
:104F5000F9F9042802D103200BB0F0BD1D48006808
:104F6000FBF70CFC04460D461B480068FBF706FCEB
:104F7000064632460B4619A103A80195009402F09B
:104F80001FF801200C2303AA142100900020FDF734
:104F900075FE17480023C35E16480022825E16A1E4
:104FA00003A802F00DF801200C2303AA2121009090
:104FB0000020FDF763FEFDF767FDC8E7203C2020D9
:104FC0002020CDD32020C2DD2020D2C720202020C9
:104FD0002020000070F0FF1F68F0FF1F503A2533BB
:104FE0002E326620202020593A25332E32660000CA
:104FF0005CF0FF1F5AF0FF1F4720583A2025356408
:105000002020593A202535642000000038B50124BD
:105010000025FDF7F3FB012389A203210020FDF702
:105020004AFE8D48408C012801DA052001E08A48BB
:10503000408C894948840846408C052801DD0120C0
:1050400001E08548408C84494884FFF7FBFA01233E
:1050500082A223210020FDF72EFE012385A2332109
:105060000020FDF728FE00BF2546FCF76BF9030082
:1050700001F0D1FF0691040D16295D91601EC4B2A6
:10508000012C01DA042000E02046044684E0601C84
:10509000C4B2042C01DD012000E0204604467BE080
:1050A000012C06D0022C06D0032C06D0042C08D1EB
:1050B00005E0012038BD0220FCE70320FAE70420C8
:1050C000F8E70020F6E7022C30D16348408C401E00
:1050D00081B261484184408C012801DA052001E059
:1050E0005D48408C5C4948840846408C674908808C
:1050F000002009E04100FF2252028918098842007D
:10510000634B9952411C88B2FF28F3DD5F48018848
:1051100051484184FF20FCF757F800230122520236
:105120005B49FF20FCF782F8FFF78CFA34E0022C91
:1051300030D14948408C401C81B247484184408C62
:10514000052801DD012001E04348408C42494884A4
:105150000846408C4D490880002009E04100FF22AC
:105160005202891809884200494B9952411C88B261
:10517000FF28F3DD4548018837484184FF20FCF7CC
:1051800023F80023012252024149FF20FCF74EF888
:10519000FFF758FA00E000BF00BFA5421FD0012072
:1051A0000C232022032100901046FDF793FC0120E0
:1051B0000C232022132100901046FDF78BFC0120C8
:1051C0000C232022232100901046FDF783FC0120B0
:1051D0000C232022332100901046FDF77BFC012C8C
:1051E00006D0022C0DD0032C14D0042C24D11AE0AC
:1051F00001200C234022032100902020FDF76AFCAF
:105200001AE001200C234022132100902020FDF7FA
:1052100061FC11E001200C2340222321009020207A
:10522000FDF758FC08E001200C23402233210090B8
:105230002020FDF74FFC00BF00BFFDF725FC13E762
:105240002020202020202020B7A220B3B52020201D
:1052500020202020202000002C00002020202020C2
:1052600020202020CDE220C9E8202020202020205E
:10527000202000002020202020202020C9E820D647
:10528000C3202020202020202020000008F0FF1F25
:10529000ACFEFF1FF0B5F84B9D4401250021F748F7
:1052A000684481610126416101612521C160F448A2
:1052B000408C401E2821484384B2FDF79FFAF148F4
:1052C000684401F065F90123EE4A6A44002108466A
:1052D000FDF7F1FC1E207043EA496944421801239E
:1052E0000D210020FDF7E7FC701C1E214843E54915
:1052F0006944421801231A210020FDF7DCFCB01C90
:105300001E214843DF496944421801232721002018
:10531000FDF7D1FCF01C1E214843DA4969444218CC
:10532000012334210020FDF7C6FC00BFD3486844A8
:1053300085614661FCF706F8030001F06CFE060C7F
:10534000040DFB161B0C681EC5B2012D01DA2420CA
:1053500000E02846054627E3681CC5B2242D01DD80
:10536000012000E028460546F5E70020C34B1C332A
:105370009D44F0BD002010E000210AE0C200C24BB5
:10538000D218525CC300FFAF3837DB195A544A1C9D
:10539000D1B20829F2DB411CC8B28028ECDB012124
:1053A000FFA8416300210163E4E201203823472282
:1053B000172100901E20FDF787FAFFA8406B0128F7
:1053C00002D002283AD11CE00123B0A21A212120E8
:1053D000FDF771FC0020192344221946009021207A
:1053E000FDF772FA0020262344221946009021205E
:1053F000FDF76AFA0023A7A229212120FDF75BFC13
:105400001CE00023A1A21A212120FDF754FC012356
:10541000A0A229212120FDF74EFC002028234422B0
:10542000194600902120FDF74FFA00203523442231
:10543000194600902120FDF747FA00BF00BFFBF797
:1054400081FF030001F0E7FD060704080CFD0D07CE
:105450000120FFA948638AE20220FFA9486386E28F
:1054600000BF0020099013E000200BE00999C9005B
:10547000854A89180A5C0999C9000BABCB181A54E4
:10548000411CC8B20828F1DB0998401CC1B209913F
:1054900009988028E8DB012700210A9144E2FFA84F
:1054A000406B012847D12F236E220E21009045200A
:1054B000FDF70AFA012F02D0022F3AD11CE0012396
:1054C00076A211214820FDF7F6FB002010236B2265
:1054D000194600904820FDF7F7F900201D236B22A4
:1054E000194600904820FDF7EFF900236DA2202116
:1054F0004820FDF7E0FB1CE0002368A211214820B2
:10550000FDF7D9FB012367A220214820FDF7D3FB3B
:1055100000201F236B22194600904820FDF7D4F984
:1055200000202C236B22194600904820FDF7CCF96F
:1055300000BF3AE139E2FFA8406B0228F9D101200F
:105540003F237A22014600904520FDF7BDF94C48E3
:10555000408C030001F05FFD066804182C4054687D
:1055600052A101A801F02CFD53A103A8013001F0C4
:1055700027FD54A105A8023001F022FD54A107A87F
:10558000033001F01DFD4FE054A101A801F018FD0A
:1055900049A103A8013001F013FD4AA105A802307A
:1055A00001F00EFD4AA107A8033001F009FD3BE020
:1055B0004AA101A801F004FD3CA103A8013001F0BB
:1055C000FFFC40A105A8023001F0FAFC40A107A8A9
:1055D000033001F0F5FC27E040A101A801F0F0FC48
:1055E00032A103A8013001F0EBFC33A105A8023081
:1055F00001F0E6FC36A107A8033001F0E1FC13E05E
:1056000036A101A801F0DCFC28A103A8013001F0BB
:10561000D7FC29A105A8023001F0D2FC29A107A8D6
:10562000033001F0CDFC00BF00BF002301AA04211C
:105630004820FDF740FB002303AA01321321482034
:1056400000E090E1FDF737FB002305AA023222219A
:105650004820FDF730FB002307AA03323121482000
:10566000FDF729FB012F3FD0022F54D0032F6AD022
:10567000042F4FD17FE0000064F3FFFF800C000097
:105680002C00002034080000B0F1FF1F20C7E5BF48
:10569000D520000020B8B4D6C620000020B5B1C780
:1056A000B020000020CBF9D3D020000020B7BDB03F
:1056B000B8B6FE200000000020B7BDB0B8C8FD207D
:1056C0000000000020B7BDB0B8CBC420000000002F
:1056D00020B7BDB0B8CEE5200000000020B7BDB0B7
:1056E000B8D2BB2000000000012301AA04214820F9
:1056F000FDF7E1FA002003237722194600904820A5
:10570000FDF7E2F800201023772219460090482088
:10571000FDF7DAF847E0012303AA013213214820FC
:10572000FDF7C9FA0020122377221946009048207D
:10573000FDF7CAF800201F23772219460090482061
:10574000FDF7C2F82FE0012305AA023222214820EA
:10575000FDF7B1FA00202123772219460090482056
:10576000FDF7B2F800202E2377221946009048203A
:10577000FDF7AAF817E0012307AA033231214820D8
:10578000FDF799FA0020302377221946009048202F
:10579000FDF79AF800203D23772219460090482013
:1057A000FDF792F800BF00BF00BFFBF7CBFD030081
:1057B00001F031FC06B704132522B6B7FFA8406BF1
:1057C000012801D1012707E0781EC7B2012F01DAB5
:1057D000012000E038460746A3E0FFA8406B0128FF
:1057E00001D1022707E0781CC7B2042F01DD042095
:1057F00000E03846074694E001200A9091E0F9481D
:10580000408CB84201DD099702E0781CC1B20991D1
:10581000FFA8406B0A214843C019162850D006DC67
:105820000B2809D00C2826D0152876D147E0172858
:1058300047D0182871D145E0002009E04100FF223F
:105840005202891809884200E74B9952411C88B2DC
:10585000FF28F3DD0021681E00194000E24A1152C2
:10586000FF20FBF7B1FC002301225202DE49FF209A
:10587000FBF7DCFC51E0002009E04100FF2252026E
:10588000891809884200D84B9952411C88B2FF28D8
:10589000F3DD002006E0002122185200D24B99527D
:1058A000411CC8B22828F6DBFF20FBF78DFC002343
:1058B00001225202CC49FF20FBF7B8FC2DE000BFCB
:1058C00000BF00BF002009E04100FF2252028918FA
:1058D00009884200C44B9952411C88B2FF28F3DD6D
:1058E00000200DE00999491E28225143091849005A
:1058F000BD4A515A22185200BB4B9952411CC8B2A2
:105900002828EFDBFF20FBF75FFC00230122520277
:10591000B549FF20FBF78AFC00BF00BF022025E548
:1059200000BF00BFFDF7B0F80A98012800D0B6E527
:105930000020099013E000200BE00999C9000BAA90
:1059400089180A5C0999C900A84BCB181A54411C44
:10595000C8B20828F1DB0998401CC1B20991099826
:105960008028E8DB03E00120FFA9086300BF00BF37
:10597000FDF78AF8FFA8006B012800D015E500208C
:1059800010E000210AE0C200FFAB3833D218525CAD
:10599000C300964FDB195A544A1CD1B20829F2DBD6
:1059A000411CC8B28028ECDBA8E12B0001F033FBDE
:1059B000251C141D27313B454F59636E78828C9608
:1059C000A0AAB4BEC8D3DEF8F6F5F4F3F2F1F0EF16
:1059D000EEEDECEBEAE91C0060008349421801237C
:1059E00031462846FEF77AFC86E1601C40007E497D
:1059F0004218012331462846FEF770FC7CE1A01CCA
:105A0000400079494218012331462846FEF766FCDA
:105A100072E1E01C400074494218012331462846D7
:105A2000FEF75CFC68E1201D40006F49421801232D
:105A300031462846FEF752FC5EE1601D40006A498F
:105A40004218012331462846FEF748FC54E1A01DC8
:105A5000400065494218012331462846FEF73EFCC6
:105A60004AE1E01D400060494218012331462846C2
:105A7000FEF734FC40E12046083040005A49421805
:105A8000012331462846FEF729FC35E1204609303E
:105A900040005549421831462846FEF773FB2BE17A
:105AA00020460A3040005049421831462846FEF749
:105AB00069FB21E120460B3040004B49421831463A
:105AC0002846FEF75FFB17E120460C3040004649B0
:105AD000421831462846FEF755FB0DE120460D30B1
