:020000040000FA
:10000000B8120020D7000000E3000000E500000067
:1000100000000000000000000000000000000000E0
:10002000000000000000000000000000E7000000E9
:100030000000000000000000E9000000EB000000EC
:10004000ED000000ED000000ED000000ED000000FC
:10005000ED000000ED000000ED000000ED000000EC
:10006000ED000000ED000000ED000000ED000000DC
:10007000ED000000ED000000ED000000ED000000CC
:10008000ED000000ED000000ED000000ED000000BC
:10009000ED000000ED000000D92E00003942000004
:1000A000ED000000ED000000ED000000ED0000009C
:1000B000ED000000ED000000ED000000ED0000008C
:1000C0000348854600F0F4FC00480047198500000D
:1000D000B812002070470648804706488047064807
:1000E0000047FEE7FEE7FEE7FEE7FEE7FEE700006B
:1000F00085480000D5000000C100000030B50B4667
:10010000014600202022012409E00D46D5409D42F1
:1001100005D31D469540491B254695404019154677
:10012000521E002DF1DC30BD70B50024254600289C
:1001300001DA01244042002901DA01254942FFF792
:10014000DDFFAC4200D04042002C00D0494270BDDF
:1001500003460B439B0703D009E008C9121F08C0E0
:10016000042AFAD203E00B780370401C491C521E8B
:10017000F9D27047D2B201E00270401C491EFBD296
:1001800070470022F6E710B513460A4604461946A2
:10019000FFF7F0FF204610BDF8B502464A40D40FE5
:1001A00042004B0052085B089A4202D202460846BF
:1001B00011464A0023D0C30D4A00DDB2120EAD1A1B
:1001C000202D35DA49020126490AF6058A19002C44
:1001D00000D0524220214F1B1146B9402A4110182D
:1001E000C20D9A4221D0002C17D0012D08DCDA056F
:1001F000801AD20F8019D207DBB200F08DFBF8BD58
:10020000DA05801A012340001B06C01880185A42E4
:100210008018CA0F1043490007E04908C20711437C
:10022000DA05801A80194008801800F06DFBF8BDCF
:1002300061000122511A001BF7E70122D207514049
:10024000AAE70122D2075040A6E7024670B54A400D
:10025000D30FDB0740002DD04A002AD0010E140E28
:10026000000212020919400A520A8418E5010446E4
:100270005443000A120A2E045043A4194219200CB8
:10028000C543AA18120C0125AD03521C52191204C1
:100290007F39240400D0521C104301D44000491E71
:1002A000C2B20C06C0092018401C4008802A02D0A7
:1002B00003E0002070BD40084000002900DA002063
:1002C000184370BD70B502464A40D50F40004A0041
:1002D000ED0740085208002814D0002A12D0C40D9F
:1002E000D30D41020120C0055202490A520AE41A04
:1002F000091812187D34914201D3641C00E04900B2
:10030000002C01DA002070BD0023914201D3891A2C
:100310000343400849000028F7D100290AD0914240
:1003200002D10121C90705E0914201D2012101E07A
:100330000121C943E005C018401900F0E5FA70BD7D
:10034000C217C10F504010B54018CA0796230021AC
:1003500000F0E2FA10BD10B500229623114600F01D
:10036000DBFA10BD0EB5C217C10F5040CA074018C6
:100370000021054B0293019200910A460B4600F0C2
:1003800011FB03B000BD0000330400000EB50549A9
:100390000291002100910A460B46019100F002FBF8
:1003A00003B000BD33040000C20F4100400201232E
:1003B000400ADB05D207090EC0187F2901DA0020A8
:1003C0007047962903DC9623591AC84001E09639F4
:1003D0008840002AF4D04042704700000122D20732
:1003E000002800DB101A002900DB511A81427047F7
:1003F00010B5022000F0B2FE10BD704700000000F2
:10040000FFFFFFFFFFFFFFFFFFFFFFFFFFFFFEFEFE
:10041000F0B507460846584087B0C00F0490480022
:100420000E46590040084908BC1A884105D2384692
:1004300031461E4617460B460246580040081043F8
:100440004CD0300D039040055900400D490D0590EA
:10045000401A0290402872DA18030121000B0905A6
:100460000843019004980092002805D00199524257
:100470000020884100920190029840210A1A0199B7
:10048000009800F00DFA05460C466B4607CB00F0CD
:1004900028FAC0197141039A0E0D0023D717564050
:1004A0001A467A40164344D0049A002A2DD0029A64
:1004B000012A039A15DC1205C01A9141012636055E
:1004C000001C7141D20F059ED20700930192029643
:1004D0002A46234600F066FA07B0F0BD384631469A
:1004E000FAE71605224A0F46B218C01AB741012191
:1004F0000905001C4F4100187F4111461818794129
:10050000E20F10436D19644113E0E2076D081543D3
:100510006408C2071443039A01261205C01A9141C8
:100520003605001C7141CE07400830434908C01809
:1005300051412A46234600F028FACDE7FFE7049808
:1005400001224000C117121A00238B410498314642
:10055000C417381AA141EEE730B40124E407634020
:1005600030BC55E730B40124E407614030BC4FE7AC
:100570000000E0FFF0B51FB488B00B990998002483
:1005800048400999C00F490049080991C0070B99D3
:100590000090490049080B9109990898A64608431C
:1005A0001CD00B990A98084318D0099801244000E0
:1005B000420D4800410D099824050003000B20431B
:1005C00009900B980003000B20430B9050181C4916
:1005D0004018002201901446104605E00020014614
:1005E0000DB0F0BD032801DA034600E003239C466A
:1005F000C11A0AAE0AE05F0008ADED5B4F00F75B81
:100600007D430027AA187C41491C5B1E6145F2DD31
:10061000410004AB5A522104120C0A43240C401C22
:100620000828DFDB01980290009970460191009044
:10063000059B049A0799069800F0B4F9D0E70000EA
:100640000DFCFFFFF0B50C465C4085B0E40FE407FD
:1006500003944C0000266408590094464908024659
:100660000296224321D062460A431ED06200570DF3
:100670004A000E032303550D012402462C4924058C
:10068000781B1B0B360B4018234326436146009012
:100690001C46501AB44103D30098401C009002E05D
:1006A000921800985B41002803DA0020014605B04B
:1006B000F0BD0020012109050746864611E0644689
:1006C0001D46141BB54106D36546521BB341744603
:1006D00007430C43A646CD07400849082843921813
:1006E0005B4105460D43EAD11046184313D06046DE
:1006F000194650407140084306D06046101AB34175
:1007000006D20122002306E000220123DB0702E0DB
:100710000122D2435310009874460105381C6141F0
:10072000029C039D0019694100F02FF9BFE700000A
:10073000FD030000410040020122400AD205090EDB
:1007400080187F2901DA00207047962903DC962261
:10075000511AC840704796398840704770B5CD0F20
:100760004A0009030123090B1B0519430B4BED0735
:100770000024520D9A4201DA002070BD074B343339
:100780009A4203DC9A1A00F09BF802E004495118DF
:1007900088402C43F1D0404270BD0000FF030000B0
:1007A000CDFBFFFFC20FD207400040080BD0C10DA8
:1007B0000723DB01C91840020905400A1143C2089A
:1007C00040071143704700200146704710B50029CB
:1007D00004DB0124E40740428C412146002B04DB6A
:1007E0001C460123DB075242A3418B4200D18242C7
:1007F00010BD0000CB0FDB07490010B549080246C9
:100800000A4307D00A0D07240903E401090B121B50
:10081000002A01DC002010BDC900440F0C43C100B8
:10082000E018D205801800F06FF810BD0122D20741
:10083000002800DB101A002900DB511A884270479B
:10084000F0B51FB40646002082B005464024019151
:1008500000901BE0019922460F46304600F030F828
:10086000049A059B801A994110D3104619462246D6
:1008700000F016F8361A8F41019722460120002118
:10088000009F00F00DF838184D4100902046641E7E
:100890000028DFDC019B00982946324607B0F0BDF6
:1008A00010B5202A04DB0146203A9140002010BDFB
:1008B000914020239C1A0346E3401943904010BD09
:1008C00010B5202A04DB0846203AD040002110BD94
:1008D0000B46D340D0402024A21A91400843194629
:1008E00010BD10B5202A06DBCB170846203A104170
:1008F000C1170B4306E00B461341D0402024A21A37
:1009000091400843194610BD002904DA401C4900F3
:1009100001D140084000704770B40024050C05D197
:100920001024000402D1002921D01124050E01D188
:1009300000020834050F01D10001241D850F01D1EB
:100940008000A41C002801DB4000641C002908D0A2
:1009500020252E1B0D46F540A14000D00121294342
:10096000084301061B1B000ADB1D02D5002070BCDA
:100970007047DB05181880180029F8DA401C490078
:10098000F5D170BC40084000704710B5002B08DA64
:100990000024401C614192185B411A4301D1400878
:1009A000400010BDF0B51FB482B005460C0003D066
:1009B000084606F0D3FC02E006F0D0FC20300246E8
:1009C000009021462846FFF76BFF049B059A0446DA
:1009D0000F4618431143084314D0184610431BD048
:1009E000009840210A1A18460599FFF769FF054645
:1009F0000E46009A05990498FFF752FF084305D068
:100A0000012004E02046394607B0F0BD0020C117A0
:100A100005430E432C43374300990E986305401A53
:100A20007905E40A00220C43FD0A0A3002D50020B1
:100A30000146E9E70105101969410C9C0D9D00195B
:100A40006941FFF7A2FFDFE74A0009030123090B11
:100A50001B0519430A4B10B5520D9A4202DA0020C9
:100A6000014610BD064B34339A4203DC9A1AFFF755
:100A700027FF10BD034BD218FFF712FF10BD000077
:100A8000FF030000CDFBFFFF10B5002904DB0124AC
:100A9000E40740428C412146002B04DB1C46012325
:100AA000DB075242A341994200D1904210BD0000A1
:100AB000064C0125064E05E0E36807CC2B430C3CB1
:100AC00098471034B442F7D3FFF7FEFA78C300001A
:100AD00098C3000070B54B005B0803430BD04B007C
:100AE0005C0D002633466542B341D417AD1AA341CD
:100AF00002DB0020014670BD12053018514170BD67
:100B000070B58C180578401C6B075B0F01D103781A
:100B1000401C2A1106D10278401C03E006780E70B2
:100B2000401C491C5B1EF9D12B0705D40023521E23
:100B30000DD40B70491CFAE70378401CCB1A921CA9
:100B400003E01D780D70491C5B1C521EF9D5A142B3
:100B5000D8D3002070BDF3B581B00C460025002726
:100B600004E0019800F060F845197F1CA742F8DB0B
:100B700021462846FFF7D8FA0090FFF7E1FB06462A
:100B80003046FFF7D7FD80B2FEBD00001549496928
:100B9000012252071143134A516113498968124ACD
:100BA0009160114649685160002111601146096841
:100BB000202211430C4A116011460968402211435A
:100BC000094A1160114689690122824092B211439B
:100BD000054A91611146896808221143024A9160D1
:100BE000704700000080044000B003400146002030
:100BF0000C4A126852095201CB06DB0E1A43094B0C
:100C00001A6000BF074A126880231A40002AF9D0F0
:100C1000044A126990B2034A12689A43014B1A605F
:100C20007047000000B00340F1B50098FFF7DEFF09
:100C300004460098FFF7DAFF05460098FFF7D6FF55
:100C40000646AC4202DD27462C463D46AE4201DD5B
:100C50002F4604E0A64201DD374600E0274638462D
:100C6000F8BD10B50020FFF791FF0120FFF78EFFC0
:100C70000E20FFF78BFF0D20FFF788FF0C20FFF7FA
:100C800085FF10BD10B500F065F801F083F900F0A4
:100C9000DBFA00F039FAE1214902012003F022FEDB
:100CA00001F066FE01F0FCFD01F03AFD00F080FA73
:100CB00001F0D6F8FFF7D5FF184A0021184807F0D1
:100CC0001BFC18481649C86017480861134A0021E0
:100CD00013481C3007F010FC124911488162124978
:100CE000C16200BF01F018FC0028FBD101F0C2FD79
:100CF00001F0E4FD64200D49088000220521104622
:100D000003F0A4FA7D20C00000F010FA0848406803
:100D10000121C90708430649486010BD0000204171
:100D200044FEFF1FFAED6B3A0AD7233C00F0FF1F89
:100D300040F00F400548408A012806D10448406829
:100D400001214902084302494860704734000020ED
:100D500000F00F4010B50F484069012149020843D7
:100D60000C494861084640684915084309494860EC
:100D7000084640684915084306494860052000F0C8
:100D8000D5F9044880680121490208430149886077
:100D900010BD000000F00F40F0B589B006460F46C8
:100DA0001546287844B200BFA1B202A800F058FD51
:100DB000F01B401C0D225043C1B2002302AA722036
:100DC00001F0B5FF0020019000F0E4FA012806D000
:100DD000022807D0032808D0042830D12AE0601C5C
:100DE00044B22CE0601E44B229E00120019030465C
:100DF000C73026490880288809884900244A50526B
:100E0000002009E04100FF225202891809884200AF
:100E10001F4B9952411C88B2FF28F3DD2C80FF2024
:100E200000F0FAF90023012252021949FF2000F0D4
:100E300025FA04E0287844B20120019000BF00BFE9
:100E4000012C01DD002000E020460446002C01DAE0
:100E5000012000E0204604460198012810D1A1B2EB
:100E600002A800F0FDFCF01B401C0D225043C1B253
:100E7000012302AA722001F05AFF01F041FE02E0B4
:100E800001F03EFE90E700BF09B0F0BDA4F1FF1FE6
:100E9000B4FEFF1FF0B58BB005460F4616463088EE
:100EA00004B27948844200DD00E020460446012C6B
:100EB00001DA012000E02046044600BF224673A16B
:100EC00004A806F037FA00200090E81B401C0D2211
:100ED0005043C1B20C2304AA662001F00BFF00208E
:100EE000039000F057FA030006F04FFA06B0040D25
:100EF000163249B0601C04B26348844200DD00E051
:100F000020460446A2E0012C01DA012000E0204640
:100F10000446601E04B299E001200390002009E01D
:100F20004100FF225202891809884200594B995208
:100F3000411C88B2FF28F3DD3480FF2000F06CF9FB
:100F40000023012252025349FF2000F097F97DE06F
:100F50000A2D0FDB122D0DDC2046E10F0918491078
:100F60004900611A01D1214602E02146621E14B2F5
:100F70000C466BE001200390308804B266E00A2D35
:100F800010DB122D0EDC2046E10F09184910490034
:100F9000611A012901D1214602E02146621C14B2E6
:100FA0000C4653E00020029000BF3B480088201808
:100FB00004B23548844200DD00E020460446002C9F
:100FC00001DA002000E02046044600F0E3F903289F
:100FD00006D0042820D1308804B2012002901BE002
:100FE000002009E04100FF225202891809884200CE
:100FF000284B9952411C88B2FF28F3DD3480FF2032
:1010000000F00AF90023012252022249FF2000F0D9
:1010100035F90120029000BF00BF22461FA104A89D
:1010200006F088F900200090E81B401C0D22504378
:10103000C1B20C2304AA662001F05CFE01F060FD41
:1010400002980028B1D000BF00BF00BF00BF0398C6
:10105000012813D122460DA104A806F06BF9012046
:101060000090E81B401C0D225043C1B20C2304AA7F
:10107000662001F03FFE01F043FD02E001F040FD7B
:101080001CE700BF0BB0F0BD0F2700002534642023
:1010900000000000B4FEFF1F9CF0FF1F25346423F6
:1010A0000000000070B5054601F0E4FBECB220E062
:1010B00064201449088020463030C2B20123002148
:1010C000282001F0C1FD01F01BFD012C04D14B20B3
:1010D000C00000F02BF80AE0AF20800000F026F8F6
:1010E00000F058F9042801D1012070BD00BF601E36
:1010F000C4B2002CDCD1FF202D3002490880002032
:10110000F3E7000000F0FF1F002009E04100FF228C
:101110005202891809884200034B9952411C88B237
:10112000FF28F3DD70470000B4FEFF1F10B5034633
:1011300000240DE0084800F011F800BF00BF00BF18
:1011400000BF00BF00BF00BF00BF00BF601C84B273
:101150009C42EFD310BD0000E7030000002123E014
:1011600000BF00BF00BF00BF00BF00BF00BF00BF87
:1011700000BF00BF00BF00BF00BF00BF00BF00BF77
:1011800000BF00BF00BF00BF00BF00BF00BF00BF67
:1011900000BF00BF00BF00BF00BF00BF00BF00BF57
:1011A00000BF00BF4A1C91B242008A42D8D87047A3
:1011B00010B5002006F0BEFF012006F0BBFF14486A
:1011C0008069012189028843114988610846406984
:1011D000091588430E4948610E488068091508437F
:1011E0000C4988600A4840308069202188430849BA
:1011F00040318861084640692021884304494031D4
:1012000048610448C068202108430249C86010BDF5
:1012100000F00F400090044070B505466C020020BD
:10122000084948700A2048722002000E0872012006
:1012300048702004000E48720C7200F063F8002021
:1012400070BD0000000002400A49496901221203F2
:101250001143084A516100BF074949798022114072
:101260000029F9D0272001464031034AD1703021AE
:10127000517170470080044000000240FFB581B00A
:1012800007460C46790204980D18042600200090A9
:1012900023E0002014494870062048722802000EFE
:1012A0000872012048702804000E4872FC20284073
:1012B0000872022048702078087260784872032013
:1012C0004870A0780872E0784872A419AD1900F04F
:1012D00019F80098801980B200900399009888420C
:1012E000D7D3002005B0F0BD0000024010B5830048
:1012F000034CE3580C33CC001B195A6010BD00009E
:10130000BCC2000010B572B630200A4948710A48C4
:101310000A4908600748401D0968884762B60548C1
:10132000407933210840002801D0012010BD002061
:10133000FCE7000000000240A7F1FF1FB4F1FF1F0F
:1013400010B504460C2C1ED004DC002C07D0012C58
:101350001ED109E00D2C11D00E2C19D109E0052168
:101360000020FFF7F8FB10BD05210120FFF7F3FB7C
:10137000F9E701210E20FFF7EEFBF4E701210D2034
:10138000FFF7E9FBEFE7C8210C20FFF7E4FBEAE7F2
:101390000020E8E708B50020009068480069802137
:1013A0000840002835D166480078FFF7BFFE634843
:1013B000006980210840002828D162480088401C2C
:1013C0006049088008460088142803DD01205C4934
:1013D000087016E05B4800880A2803DD0A20584997
:1013E00008700EE057480088052803DD1E20544988
:1013F000087006E053480088032802DD2820504981
:1014000008700120009005204F4908806846007848
:1014100008BD4A48006940210840002835D14848A5
:101420000078FFF783FE4548006940210840002806
:1014300028D144480088401C42490880084600885A
:10144000142803DD01203E49087016E03D4800885D
:101450000A2803DD0A203A4908700EE0394800885E
:10146000052803DD1E203649087006E0354800884F
:10147000032802DD28203249087002200090052050
:101480003149088068460078C2E72C48403000693E
:1014900010210840002812D129480078FFF746FEA5
:1014A00026484030006910210840002804D105205A
:1014B000254908800320009068460078A8E71F4867
:1014C00040300069012189020840002813D11C48DE
:1014D0000078FFF72BFE194840300069012189028E
:1014E0000840002804D105201749088004200090F6
:1014F000684600788CE711484030006901214902B4
:101500000840002812D10E480078FFF70FFE0B4864
:1015100040300069012149020840002803D105201C
:101520000949088000906846007871E73C2004492A
:10153000087000200349088000BF69E700F00F40F1
:1015400004F0FF1F02F0FF1F00F0FF1FF0B593B083
:1015500004460D4616461F460020385EFEF7F0FE94
:101560000190FFF71FF9244A244B03910290FFF7E3
:1015700069F8234A234B05910490FEF7FBFF09917C
:1015800008902068FFF70EF907910690099B089ACA
:10159000FEF7E2FF1C4A1D4B0B910A90FEF7EAFF93
:1015A0000F910E900020305EFEF7DCFE0791069052
:1015B0000020285EFEF7D6FE05910490079B069A50
:1015C00006F0EAFC0C4A124B09910890FEF7D2FF94
:1015D000104A114B0B910A90FEF7CCFF0D910C9025
:1015E0000F9B0E9AFEF714FF11911090FFF702F96E
:1015F000206013B0F0BD0000666666666666304027
:101600007B14AE47E17A743F2B8716D9CEF7EF3FB4
:1016100066A64C40FCA9F1D24D62503F00B50028AF
:101620007ED00146C30F5B185B105B00C31A01D16B
:10163000431E00E003461A46DB0F9B1859100B00AF
:1016400005F0A3FE0604203C587692AE5549098B5E
:10165000554A11805349498B544A11805149898B0D
:10166000534A11804F494031098D524A11804D49EA
:101670004031498D504A11804A494031898D4F4A45
:1016800011808DE04749C98B474A11804549098C33
:10169000464A11804349498C454A118041494031AD
:1016A000C98D444A11803F494031098E424A118018
:1016B0003C494031498E414A118071E03949898C59
:1016C000394A11803749C98C384A11803549098D0A
:1016D000374A118033494031898E364A1180314969
:1016E0004031C98E344A11802E494031098F334A26
:1016F000118055E02B49498D2B4A11802949898D4C
:101700002A4A11802749C98D294A1180254940312B
:10171000498F284A118023494031898F264A00E0A9
:101720003FE011801F494031C98F244A118037E0C2
:101730001C49098E1C4A11801A49498E1B4A118086
:101740001849898E1A4A1180164980310988194A28
:101750001180144980314988174A1180114980311C
:101760008988164A11801BE00E49C98E0E4A1180E5
:101770000C49098F0D4A11800A49498F0C4A118082
:1017800008498031C9880B4A11800649803109898E
:10179000094A1180034980314989084A118000BFF4
:1017A00000BF00BDB4FFFF1F1CF1FF1F1EF1FF1F94
:1017B00020F1FF1F22F1FF1F24F1FF1F26F1FF1F61
:1017C00000B51D480078030005F0DFFD0A33060B65
:1017D00010151A1F24292E3318490878FFF71EFF09
:1017E00027E017490878FFF719FF22E01549087824
:1017F000FFF714FF1DE014490878FFF70FFF18E00A
:1018000012490878FFF70AFF13E011490878FFF73B
:1018100005FF0EE00F490878FFF700FF09E00E49C9
:101820000878FFF7FBFE04E00C490878FFF7F6FEA6
:1018300000BF00BF00BD0000C9F0FF1F0AF1FF1F7D
:101840000CF1FF1F0EF1FF1F10F1FF1F12F1FF1F20
:1018500014F1FF1F16F1FF1F18F1FF1F1AF1FF1FF0
:1018600070B505460C46002C02D0012C0AD104E0CC
:1018700008A1284605F05EFD09E007A1284605F00D
:1018800059FD04E005A1284605F054FD00BF00BF46
:1018900070BD0000B9D80000BFAA00003F3F0000A3
:1018A000F8B500F0E7FFFE48C08A00280DD1FD48DA
:1018B00040680121C9070843FA4948600846406862
:1018C000012149070843F74948600120F64908709B
:1018D0000020F6490860F6490860002400F0E0FFA7
:1018E0000020F44908700120F3490870F34908709A
:1018F000EB49498C491E2822514388B24100F04AE5
:10190000515AF04A1180411C4900ED4A515AEE4AA1
:101910001180811C4900EA4A515AEC4A1180C11CCD
:101920004900E74A515AEA4A1180011D4900E44A38
:10193000515AE84A1180411D4900E14A515AE64A8C
:101940001180811D4900DE4A515AE44A1180C11DAF
:101950004900DB4A515AE24A1180014614314900DC
:10196000D74A515ADF4A1180014615314900D44AFD
:10197000515ADD4A1180014616314900D04A515A68
:10198000DA4A1180014617314900CD4A515AD84AE6
:101990001180014618314900C94A515AD54A11806F
:1019A000014619314900C64A515AD34A11800146AD
:1019B0001A314900C24A515AD04A118001461B319E
:1019C0004900BF4A515ACE4A118001461C31490094
:1019D000BB4A515ACB4A118001461D314900B84AD1
:1019E000515AC94A118001461E314900B44A515A20
:1019F000C64A118001461F314900B14A515AC44AB2
:101A00001180014620314900AD4A515AC14A118026
:101A1000014621314900AA4A515ABF4A1180014664
:101A200022314900A64A515ABC4A1180014623314D
:101A30004900A34A515ABA4A11800146243149004B
:101A40009F4A515AB74A11800146253149009C4AA4
:101A5000515AB54A11809249498C491E2822514356
:101A600009314900964A515AB04A11808C49498C33
:101A7000491E282251430A314900914A515AAC4A21
:101A800011808749498C491E282251430B31490056
:101A90008B4A515AA74A11808149498C491E2822F4
:101AA00051430C314900864A515AA34A11807C495E
:101AB000498C491E282251430D314900804A515A10
:101AC0009E4A11807649498C491E282251430E3185
:101AD00049007B4A515A9A4A11807149498C491EE2
:101AE000282251430F314900754A515A954A1180B5
:101AF0006B49498C491E2822514310314900704AD4
:101B0000515A914A11806649498C491E28225143F5
:101B1000113149006A4A515A8C4A118000208C497F
:101B200008708EE100255F480069FF2101310840FF
:101B3000002819D187495E480068FEF7DFFA009057
:101B4000FEF709FC0646564940318888FEF703FC3B
:101B500081490090FEF7B6FB07463146FEF73EFC92
:101B600002D201207D4908704D48C08C012872D1F5
:101B70007B480021415EFA2962DC7A490020085E38
:101B80004F21C94388425BDB77490020085E4F2123
:101B9000C943884254DB7548008800285BD17448EB
:101BA0000088002857D173480088142853DA7248F7
:101BB000008814284FDA3D490968481E5021FEF775
:101BC0009DFA48006D49085A002844D137490968F0
:101BD000881E5021FEF792FA48006849085A0028EA
:101BE00039D132490968C81E5021FEF787FA4800EA
:101BF0006249085A00282ED12C490968481E5021F4
:101C0000FEF77CFA49005D48A030405A002822D1F6
:101C100026490968881E5021FEF770FA4900574886
:101C2000A030405A002816D120490968C81E50210A
:101C3000FEF764FA49005148A030405A00280AD102
:101C40001A480068FF219131884204D91448808ED7
:101C5000022800D001251248008D002809D0134821
:101C60000068810041180E48008D0A2250438142CD
:101C700013D80B48408D002810D00949488DFEF735
:101C80006AFB35490090FEF71DFB064631490848BE
:101C90000068FEF733FA009072E078E081E000001F
:101CA0003400002000F00F40CAF0FF1FCCF0FF1FEF
:101CB000D0F0FF1FC8F0FF1FC9F0FF1F4AF1FF1F40
:101CC000B4FEFF1FD6F0FF1FD8F0FF1FDAF0FF1F92
:101CD000DCF0FF1FDEF0FF1FE0F0FF1FE2F0FF1F50
:101CE000E4F0FF1FE6F0FF1FE8F0FF1FEAF0FF1F20
:101CF000ECF0FF1FEEF0FF1FF0F0FF1FF2F0FF1FF0
:101D0000F4F0FF1FF6F0FF1FF8F0FF1FFAF0FF1FBF
:101D1000FCF0FF1FFEF0FF1F00F1FF1F02F1FF1F8D
:101D200004F1FF1F06F1FF1F08F1FF1F0AF1FF1F5B
:101D30000CF1FF1F0EF1FF1F10F1FF1F12F1FF1F2B
:101D400014F1FF1F16F1FF1F18F1FF1F1AF1FF1FFB
:101D50006AF1FF1FF41500000000C842D4F0FF1F15
:101D600060F1FF1F9CF0FF1F9EF0FF1F88F0FF1F18
:101D70008CF0FF1F90F0FF1F92F0FF1F28FAFF1F4B
:101D8000FEF7E9FA07463146FEF750FD09D2012079
:101D90002C49087000202C490870C820FFF7C6F9AC
:101DA0000125FFF7F7FA002801D1002D01D001200D
:101DB00000E00020002800D141E000202349087005
:101DC00001202349087000201F490870214908702C
:101DD00021490870214840680121C90708431F496B
:101DE00048601E48403840680121490608431B49A5
:101DF00040394860084640680121090608431749F0
:101E00004039486000F05AFD00F0B2FDFF202D304F
:101E1000FFF78CF91148403880680121C907084351
:101E20000E49403988600846806801214907084307
:101E30000A4940398860002002490870F8BD00BF97
:101E400000BF6FE6D4F0FF1FCAF0FF1FC8F0FF1FEE
:101E5000C9F0FF1F69F1FF1F4AF1FF1F40F00F405B
:101E60003A4880698021884338498861084640693A
:101E7000802188433549486135488068802108437E
:101E80003349886031488069402188432F498861FF
:101E900008464069402188432C4948612C488068A5
:101EA000402108432A498860284840308069102131
:101EB000884326494031886108464069102188439B
:101EC0002249403148612248C06810210843204916
:101ED000C8601E4840308069091588431B4940315D
:101EE00088610846406909158843184940314861AE
:101EF0001748C068091508431549C86013484030A1
:101F00008069491588431149403188610846406914
:101F1000491588430D49403148610D48C06849154D
:101F200008430B49C86009488069891588430749F7
:101F30008861084640698915884304494861044816
:101F400080688915084302498860704700F00F4097
:101F5000009004400548008A012806D104488068A2
:101F600001210906084302498860704734000020B7
:101F700000F00F400548008A012806D10448806817
:101F80000121490608430249886070473400002057
:101F900000F00F401A4840690121C9070843184959
:101FA0004861084640684906084315494860144896
:101FB00040384069012149060843114940394861C8
:101FC000084640680121490608430D4940394860E8
:101FD000084640690121090608430949403948611A
:101FE0000846406801210906084305494039486010
:101FF00003488068C90408430149886070470000AD
:1020000040F00F400548008A012806D10448806846
:102010000121C90708430249886070473400002045
:1020200040F00F40FEB504460D4616466B460622AC
:102030003B21682000F0CEFA0746002F17D16846F2
:102040000078010268464078014308B22080684663
:10205000807801026846C078014308B2288068464B
:102060000079000269464979084300B23080384659
:10207000FEBDFEB504460D4616466B4606224321BC
:10208000682000F0A7FA0746002F17D168460078AD
:10209000010268464078014308B220806846807893
:1020A00001026846C078014308B22880684600797A
:1020B000000269464979084300B230803846FEBDC7
:1020C00010B520484069082108431E494861084668
:1020D0008068082108431B4988600846406904213C
:1020E00008431849486108464068042108431549D7
:1020F000486008464069042108431249486108467F
:102100008068042108430F498860FEF771F90D4883
:102110004069082108430B49486108464068082186
:10212000084308494860FEF763F9064840690821FA
:10213000084304494861084680680821084301496A
:10214000886010BD00F00F400C484069082108432A
:102150000A49486108464068082108430749486021
:10216000084640690421084304494861084640681C
:1021700004210843014948607047000000F00F4007
:1021800010B520484069082108431E4948610846A7
:102190008068082108431B4988600846406904217B
:1021A0000843184948610846406804210843154916
:1021B00048600846406904210843124948610846BE
:1021C0004068042108430F494860FEF711F90D48A3
:1021D0004069082108430B494861084640680821C6
:1021E000084308494860FEF703F90648406908219A
:1021F00008430449486108468068082108430149AA
:10220000886010BD00F00F4070B5054600242348DB
:102210008069042188432149886108464069042176
:1022200088431E4948611E488068042108431C49B0
:102230008860002627E019484069082108431749AB
:102240004861084680680821084314498860FEF701
:10225000CFF81248406908210843104948610846F0
:102260004068082108430D4948606006040E08468E
:10227000006904210840002801D0601CC4B2FEF7A8
:10228000B7F8701CC6B2082ED5DB002D02D1FFF7BF
:1022900077FF01E0FFF714FF204670BD00F00F400C
:1022A0000090044070B504462D484069042108435D
:1022B0002B49486108464068042108432849486082
:1022C0000846406908210843254948610846806856
:1022D000082108432249886000253DE080202040F5
:1022E000C01100280CD11E484069042108431C4934
:1022F00048610846806804210843194988600BE05A
:102300001748406904210843154948610846406858
:1023100004210843124948606006040E10484069D1
:10232000082108430E4948610846406808210843CF
:102330000B494860FEF75CF80948406908210843EA
:1023400007494861084680680821084304498860B5
:10235000FEF74EF8681CC5B2082DBFDB70BD00004B
:1023600000F00F4010B520484069042108431E4981
:10237000486108464068042108431B4948600846F4
:10238000406904210843184948610846406804210F
:102390000843154948600846406908210843124926
:1023A000486108464068082108430F494860FEF725
:1023B0001FF80D484069042108430B49486108464D
:1023C00080680421084308498860FEF711F8064830
:1023D000406908210843044948610846806808218B
:1023E00008430149886010BD00F00F4010B5204837
:1023F0004069042108431E49486108464068042199
:1024000008431B49486008464069082108431849A9
:1024100048610846806808210843154988600846D5
:102420004069042108431249486108468068042134
:1024300008430F498860FDF7DBFF0D48406908211C
:1024400008430B4948610846406808210843084989
:102450004860084640690421084305494861084628
:1024600040680421084302494860FDF7C1FF10BDE0
:1024700000F00F4010B500242548806904218843EE
:1024800023498861084640690421884320494861FE
:1024900020488068042108431E4988601C48406920
:1024A000042108431A49486108464068042108434A
:1024B00017494860FDF79CFF15484069082108430B
:1024C000134948610846406808210843104948609C
:1024D000FDF78EFF07E0601CC4B2FA2C03DDFFF7A6
:1024E00085FF012010BD0A4800690421084000282A
:1024F000F1D1074840690821084305494861084669
:10250000806808210843024988600020EAE700004B
:1025100000F00F400090044010B5FFF715FE642056
:10252000FEF704FE80216B2000F0D5F86420FEF752
:10253000FDFD00216B2000F0CEF8032000F088F8AC
:10254000002000F07DF8322000F0A7F800213820AC
:1025500000F0C1F800216A2000F0BDF8002123201E
:1025600000F0B9F88021372000F0B5F8752000F0B0
:1025700014F80446682C0CD101216B2000F0ABF854
:1025800000216C2000F0A7F87D20C00000F085F845
:1025900001E0012010BD0020FCE770B50446FFF704
:1025A000E1FED020FFF77EFEFFF764FF2046FFF735
:1025B00079FEFFF75FFFFFF7D5FED120FFF772FE30
:1025C000FFF758FF0020FFF71FFE0546FFF70EFF3D
:1025D000284670BDF8B506460F4614461D46FFF75F
:1025E000C1FE7106080EFFF75DFEFFF743FF0028EE
:1025F00003D0FFF7FBFE0120F8BD3846FFF752FE7F
:10260000FFF738FFFFF7AEFE7100491CC8B2FFF7B5
:1026100049FEFFF72FFF0DE0012C04D10020FFF74A
:10262000F3FD287003E00120FFF7EEFD2870601E27
:10263000C4B26D1C002CEFD1FFF7D8FE0020DBE701
:1026400010B50446E006010E1C2000F044F810BD51
:1026500010B50446E006010E1B2000F03CF810BD4A
:1026600070B504460025BC2C01DB012510E0622C6E
:1026700001DB02250CE02A2C01DB032508E0142CE9
:1026800001DB042504E00A2C01DB052500E006251A
:1026900029461A2000F01FF870BD70B504467D2051
:1026A000C000844200DD0446042C00DA04242146E4
:1026B0007D20C000FDF738FD401EC6B2314619200E
:1026C00000F009F806462546E10F4919C903080C30
:1026D000FFF7C6FF70BD70B505460C46FFF742FE1A
:1026E000D020FFF7DFFDFFF7C5FE002803D0FFF77E
:1026F0007DFE012070BD2846FFF7D4FDFFF7BAFE2E
:102700002046FFF7CFFDFFF7B5FE002803D0FFF707
:102710006DFE0120EEE7FFF769FE0020EAE700000A
:1027200010B50023194A0321022005F095FD00236E
:10273000164A0221084605F08FFD1548406901211F
:102740004907084312494861084680680121490742
:1027500008430F49886000230C4A0121022005F03C
:102760007BFD0023094A1946022005F075FD084843
:1027700040690121C9070843054948610846806846
:10278000C90408430249886010BD0000D43000002D
:1027900000F00F4010B50446224603210220FEF748
:1027A000A5FD012202210846FEF7A0FD10BD10B5CF
:1027B0000446012203210220FEF798FD2246022151
:1027C0000846FEF793FD10BD10B5044622460121D0
:1027D0000220FEF78BFD012200210220FEF786FD7C
:1027E00010BD10B50446012211460220FEF77EFD01
:1027F000224600210220FEF779FD10BD10B5002809
:1028000019DA1A4A03071B0F083B9B089B00D25892
:102810008307DC0EFF23A3409A438B071B0E84071C
:10282000E40EA3401A43114B0407240F083CA408EC
:10283000A4001A5118E00E4A03231B02D218830881
:102840009B00D2588307DC0EFF23A3409A438B07DB
:102850001B0E8407E40EA3401A43054B03242402F5
:102860001B198408A4001A5110BD00001CED00E0E3
:1028700000E100E010B500200CE0002106E000229D
:10288000CB00064C1B191A544A1CD1B28029F6DB26
:10289000411CC8B20828F0DB10BD0000B8F1FF1FD2
:1028A00000B500218D2000F0CDFA0021102000F0AD
:1028B000C9FA0021AE2000F0C5FA00BD00B5002124
:1028C0008D2000F0BFFA0021142000F0BBFA002197
:1028D000AF2000F0B7FA00BDF7B57F2801DC3F2933
:1028E00000DDFEBD0C46CE17760F3619F610072711
:1028F000BE1BF2B2CE17760F3619F610F6008E1BFD
:10290000F5B20724661B0124B440E3B2029C002CFC
:1029100009D0C400094EA419A45C1C43C600074F8B
:10292000F619B45408E0C400044EA419A45C9C43F6
:10293000C600024FF619B45400BFD2E7B8F1FF1F2A
:10294000FFB506460F4634460DE03D4606E02946F3
:102950002046099AFFF7C0FF681CC5B2039885425C
:10296000F5DD601CC4B202988442EEDDFFBD0000BC
:1029700000B5624840690121C90608435F494861C2
:10298000084640680121C90608435C49486008467A
:102990004069012189060843584948610846406852
:1029A0000121890608435549486054484030406930
:1029B00089150843514940314861084640688915E6
:1029C00008434E49403148604C48406989050843F6
:1029D0004A494861084640680121090708434749B8
:1029E0004860084640680121090708434349486098
:1029F000424840308068891508434049403188602A
:102A00007D20400107E0642101E04A1E91B20029C7
:102A1000FBDC411E88B20028F5DC384840304068B5
:102A2000FF21013108433549403148600021AE2083
:102A300000F008FA0021D52000F004FA00218020DF
:102A400000F000FA0021A82000F0FCF900213F204E
:102A500000F0F8F90021D32000F0F4F90021084635
:102A600000F0F0F90021402000F0ECF900218D2069
:102A700000F0E8F90021142000F0E4F90021202002
:102A800000F0E0F90021022000F0DCF90021A12093
:102A900000F0D8F90021C02000F0D4F90021DA209C
:102AA00000F0D0F90021122000F0CCF900218120A3
:102AB00000F0C8F90021EF2000F0C4F90021D9206E
:102AC00000F0C0F90021F12000F0BCF90021DB206A
:102AD00000F0B8F90021302000F0B4F90021A42062
:102AE00000F0B0F90021A62000F0ACF90021AF20E1
:102AF00000F0A8F9FFF7BEFE00BD000000F00F4097
:102B000030B500241CE02146B031C8B2002100F0ED
:102B100099F90021084600F095F90021102000F0F5
:102B200091F9002508E0E900074A8918085D0121AC
:102B300000F088F9681CC5B2802DF4DB601CC4B2BB
:102B4000082CE0DB30BD0000B8F1FF1FFFB584B0FA
:102B50000E4615461C4602962046E3175B0F1B18CF
:102B6000DB102246E7177F0FBF18FF10FF00E71B9F
:102B700001D0012700E00027DB192146E70F7F186D
:102B80007F107B43DBB2019328462038C5B2002773
:102B90004FE00C2C04D0102C09D0182C14D10CE0D0
:102BA0000C20684325494018C05D03900DE02801C2
:102BB00023494018C05D039007E024206843214961
:102BC0004018C05D039000E000BF00BF00200090EF
:102BD00029E0802103980840002805D031460D9A4D
:102BE0000498FFF779FE0AE00D98002801D1012032
:102BF00000E00020024631460498FFF76DFE03987E
:102C00004006000E0390701CC6B20298301AA04213
:102C100005D1029E0498401CC0B2049006E00098C2
:102C2000401CC0B2009000980828D2DB00BF781C7E
:102C3000C7B201988742ACDB08B0F0BDBAA900006A
:102C40002EAE00001EB40000FFB581B00646002481
:102C500007E02548015D0398814200D103E0601C34
:102C6000C4B2092CF5DB00BF0394002438E0002730
:102C70002BE0FF218131039848431C49411806206D
:102C80006043C019085C009000251AE01848405DB8
:102C900000990840002805D03046049A0299FFF7B1
:102CA0001BFE0AE00498002801D1012000E000206A
:102CB000024630460299FFF70FFE701CC6B2681C30
:102CC000C5B2082DE2DB781CC7B2062FD1DB029813
:102CD000401CC0B2029030463038C6B2601CC4B24C
:102CE000402CC4DB05B0F0BDAC8500003A9C000070
:102CF0007AC10000FFB581B0064614461D460A9F02
:102D00000DE0009722782B4630460299FFF71EFF10
:102D10002846E90F091849108919CEB2641C207899
:102D20007E2802DC20782028EBDA05B0F0BDF8B56B
:102D300005460F4614461E461FE02078002800D1A5
:102D40001CE020787E280DDC207820280ADB009605
:102D500022780C2339462846FFF7F8FEA81DC5B295
:102D6000641C0AE00096637822783946284600F011
:102D700007F828460C30C5B2A41CDEE700BFF8BD3A
:102D8000FFB582B00646174600240CE02A48005DD5
:102D9000B84206D12849601C095C0598814200D1DF
:102DA00003E0A01CC4B2E62CF0DB00BF2046E10F1C
:102DB0000918C9050F0E00243AE0002000902BE00E
:102DC000182078431D494118620000981018085CCB
:102DD000019000251AE01A48405D0199084000283A
:102DE00005D030460B9A0399FFF776FD0AE00B9861
:102DF000002801D1012000E000200246304603995E
:102E0000FFF76AFD701CC6B2681CC5B2082DE2DB74
:102E10000098401CC0B2009000980228D0DB0398B4
:102E2000401CC0B2039030461038C6B2601CC4B219
:102E30000C2CC2DB06B0F0BDC4850000AA860000E1
:102E40007AC1000010B5002902D0012910D107E095
:102E5000204A926801231B071A431E4B9A6007E021
:102E60001C4A526801231B071A431A4B5A6000BFC1
:102E700000BF002224E0174B9B680124E406234393
:102E8000144CA36080230340002B07D023465B68CB
:102E90000124A40623430F4C636006E00D4B9B689E
:102EA0000124A40623430B4CA3600A4B5B68012456
:102EB000E4062343074C63604306180E531CDAB242
:102EC000082AD8DB034A526801231B071A43014B27
:102ED0005A6010BD00F00F4000B599B0FE48C068C0
:102EE00001210843FC49C860FC4AFD49FD48FFF741
:102EF00099F8FD4AFD49FE48FFF7BBF8FB4BF74A3E
:102F0000F849FC48FEF722FBFB48006901218902D1
:102F10000840002803D105F003F9404202E00020F8
:102F200005F0FEF800B2F5490880F348403000692A
:102F300020210840002803D1012005F0F1F803E02A
:102F4000012005F0EDF8404200B2ED490880EB4960
:102F50000020085EEA4900228A5E8018C10F17909F
:102F60000818401000B2E7490880E74800780028B8
:102F700018D0E6480068401CE4490860E44800684E
:102F80000A2807D2DF480021415E002902DA00202A
:102F9000DC490880DE480068DA4900228A5E801831
:102FA000DB490860002005F0B3F8012005F0B0F817
:102FB000D8480088D8490880D8480088D84908806F
:102FC0000E20FEF7BDF91590FDF7C5F901461690E4
:102FD000D44805F045FA1790FDF7ACFBCD490880C1
:102FE0000D20FEF7ADF91590FDF7B5F901461690E5
:102FF000CC481C3005F034FA1790FDF79BFBC7490D
:1030000008800120FEF79CF9C74908800020FEF7E0
:1030100097F9C6490880C6480068C6490860C6488E
:103020000068C6490860C6480068C1490860C548CC
:103030000068C1490860C4480068C1490860C348C5
:103040000068C0490860AF490020085EFDF778F9C4
:103050001790AE480068401E50211190FDF74EF8C1
:103060004900BB48405A1290FDF775F91490AE48DC
:103070000088FDF770F913901499FDF7DEF8B54953
:103080001590FDF7E2F816901799FDF71BF9AE4978
:1030900008609C490020085EFDF752F917909B4894
:1030A0000068401E50211190FDF728F84900A848FB
:1030B000A030405A1290FDF74EF914909B480088BA
:1030C000FDF749F913901499FDF7B7F8A149159048
:1030D000FDF7BBF816901799FDF7F4F89B490860C7
:1030E0009748016898480068FDF756F81590904891
:1030F00001681598FDF750F816908E4801681698EB
:10310000FDF74AF88121C9051790FDF7DBF88E49D4
:1031100008608C4801688D480068FDF73DF81590FF
:10312000854801681598FDF737F8169083480168BF
:103130001698FDF731F88121C9051790FDF7C2F8FF
:1031400082490860282171480068FCF7D7FF880091
:1031500081497D4A12680A5028216C480068FCF7B2
:10316000CDFF88007D49794A12680A50502167488E
:103170000068FCF7C3FF48007949664A12880A5282
:10318000502162480068FCF7B9FF49007048A03838
:10319000624A1288425250215C480068FCF7AEFF38
:1031A00049006B48604A12884252502157480068D3
:1031B000FCF7A4FF49006648A0305C4A12884252DE
:1031C0005948008859490988411A6648C08881428F
:1031D00011DD504800884B21C90088420BDD4F4863
:1031E0000088884207DD01205F4908704848006870
:1031F0005E49086019E04D4800884B490988411A2A
:103200005848C088814210DD424800884B21C900DF
:1032100088420ADD41480088884206DD0220524982
:1032200008703B480068514908603A480088FDF73B
:1032300092F84F49086039480088FDF78CF84C49EE
:10324000486039480088FDF786F849498860374862
:103250000088FDF780F84649C86042484038008F32
:103260001190FDF793F8434A434B13911290FDF7E9
:1032700081F91791169026480068FDF787F8159197
:103280001490179B169AFDF7A1FA7BD23548403867
:10329000808E002876D015490020085EFDF750F892
:1032A000149036480088FDF756F835491290FDF71E
:1032B00009F813901499FCF7C8FF16902948008963
:1032C0001090FDF748F812900A4800680121C907DC
:1032D00048401190129956E0007103405EF0FF1FC4
:1032E0005CF0FF1F5AF0FF1F64F0FF1F62F0FF1F2A
:1032F00060F0FF1F68F0FF1F00F00F409CF0FF1F01
:103300009EF0FF1F60F1FF1FCAF0FF1FCCF0FF1FF0
:10331000D0F0FF1F88F0FF1F8AF0FF1F8CF0FF1F07
:103320008EF0FF1F44FEFF1F90F0FF1F92F0FF1F63
:103330007CF1FF1F80F1FF1F8CF1FF1F90F1FF1F39
:1033400078F1FF1F88F1FF1F74F1FF1F84F1FF1F49
:1033500068FBFF1F00004843A8FCFF1F48FDFF1F3C
:1033600028FAFF1F7400002062F1FF1F64F1FF1FA5
:10337000E8FDFF1F9A99999999194C40DCF0FF1FBD
:103380000000C84214E0FCF707FF1490F7480088DB
:10339000FCF7E1FF13901499FCF757FF159016996D
:1033A000FCF7FAFE1790FCF7FFFFF14908605DE0BB
:1033B000F0480021415E002903DD01460020085E3F
:1033C00003E0EC480021415E48420790FCF7CAFF49
:1033D000E94AEA4B09910890FDF7CCF80D910C9061
:1033E000E7490020085EFCF7BDFF0B910A900D9B9A
:1033F0000C9AFDF7B1F811911090E2480088FCF7A3
:10340000AAFFE1490C90FCF75DFF0D90FDF7CAF9AA
:103410000F910E90119B109AFDF7ACF81591149036
:10342000DA480088FCF797FF0E90D9480068012120
:10343000C90748400D900E99FCF7AEFE1090CB489E
:103440000088FCF788FF0F901099FCF7FEFE1190A2
:10345000FDF7A8F913911290159B149AFCF7D8FF69
:1034600017911690FDF77AF9C1490860C949002003
:10347000085EC9490880C9480088C9490988401AB6
:1034800000B2C4490880C7480078030003F07DFFFC
:103490000504EAFEFDFCE900C348008BC049098829
:1034A00088427DDAC048008BBC4909888842F8DA36
:1034B000BE48BF4948600021BE480068FDF7B6F924
:1034C00063D8BD48007801285FD1BC480078002847
:1034D0005BD1BB480068BB490968401A7D21C9001F
:1034E000884252D9B6480068B6490968401AB649B8
:1034F00088424AD20020B0490870B24908600021D1
:10350000B2480068FCF76AFF0BD90021B048006898
:10351000FCF764FF05D90021AE480068FCF75EFFA8
:1035200033D8A148408FAC49098888422DDBAB488D
:103530000068002829D1AA480068002825D1FEF794
:103540003FF9A8480078A84908700020A7490870EA
:1035500001209A4908706420A5490880A1480068A4
:10356000401E9E49086096480068A24908608D4840
:103570000078401C8B490870FEF744FD90480068B5
:103580009749086089488A49086000219A4800687C
:10359000FDF74CF965D888480078022861D100E031
:1035A0005FE08648007800285BD18548006885493F
:1035B0000968401A7D21C900884252D980480068B4
:1035C00080490968401A804988424AD200207A49D5
:1035D00008707C490860002188480068FCF7FEFEFE
:1035E0000BD9002186480068FCF7F8FE05D90021B8
:1035F00084480068FCF7F2FE33D86B48408F82495C
:10360000098888422DDB75480068002829D1744854
:103610000068002825D1FEF7D3F8724800787B496E
:10362000087000207A4908700220644908706420FC
:103630006F4908806B480068401E68490860604810
:1036400000686C49086057480078401C554908706C
:10365000FEF790FC5A480068614908605348544995
:10366000086081E25F4800785C490978401AC0B27E
:103670001790534801885F480088081A80B2169056
:1036800056480068002802E045E2D7E148E16AD0E8
:10369000604909881698884265DA17980A2801DD7A
:1036A0000A2017904548007801285DD13C480088E1
:1036B000FCF751FE14901798FCF74DFE0F905648FA
:1036C0000088FCF748FE0D9034480088FCF743FE64
:1036D0002D490790FCF7F6FD099031480088FCF76A
:1036E0003AFE29490790FCF7EDFD08900999FCF78F
:1036F00053FD0B9029480088FCF72DFE22490790C6
:10370000FCF7E0FD099026480088FCF724FE1E49DE
:103710000790FCF7D7FD08900999FCF73DFD0A904A
:103720000B99FCF792FD0C900D99FCF7CBFD0E90D8
:103730000F99FCF78AFD1D491090FCF7C3FD12900C
:1037400016480088FCF707FE11901299FCF7BAFDA5
:1037500013901499FCF771FD1590FCF725FE00B24B
:103760000C490880BAE0BDE058E00000DAF0FF1F25
:1037700074F0FF1F64F0FF1F7B14AE47E17A743FC3
:1037800062F0FF1FDCF0FF1F0000C842D6F0FF1FF1
:1037900068F0FF1F98F0FF1F9AF0FF1F8CF0FF1FCB
:1037A00088F0FF1FC8F0FF1F3400002000002041F8
:1037B000E8FDFF1F74F1FF1F62F1FF1F68F1FF1F9B
:1037C000D0F0FF1F64F1FF1F7017000078F1FF1F9A
:1037D0007CF1FF1F80F1FF1F90F0FF1F28F1FF1FFA
:1037E0006CF1FF1FCCF0FF1F95F1FF1F96F1FF1F3B
:1037F00000F0FF1F2CF1FF1F84F1FF1F88F1FF1F56
:103800008CF1FF1F90F1FF1F92F0FF1F99F1FF1F36
:103810009AF1FF1F20F1FF1F1CF1FF1FFE480078E7
:1038200002285BD11798FCF796FD0F90FB480088A3
:10383000FCF791FD0D90FA480088FCF78CFDF949E2
:103840000790FCF73FFD0990F7480088FCF783FDDF
:10385000F4490790FCF736FD08900999FCF79CFCA9
:103860000B90EF480088FCF776FDEE490790FCF7D7
:1038700029FD0990EC480088FCF76DFDE9490790A7
:10388000FCF720FD08900999FCF786FC0A900B993B
:10389000FCF7DBFC0C900D99FCF714FD0E900F99D2
:1038A000FCF7D3FCE1491090FCF70CFD1290DE48C8
:1038B0000088FCF750FD11901299FCF703FD14905D
:1038C000D7480088FCF747FD13901499FCF7B5FC26
:1038D0001590FCF769FD00B2D54908800520D5494F
:1038E00008801CE0D4480078401CD3490870D348B5
:1038F0000068D3490860D3480068D3490860D348BA
:1039000040680121C9070843D0494860CF48403882
:103910004068012149060843CC494039486023E109
:10392000BD48007801282AD10021C9480068FCF769
:1039300055FD24D80021C7480068FCF777FF1ED248
:103940000021C5480068FCF771FF18D20021C34868
:103950000068FCF76BFF12D2C148808FB24909881A
:1039600088420CDABE48C08FBE490988884206DA10
:10397000BB4840300088BC49098888422EDBA648F5
:103980000078022859D10021B8480068FCF726FDCC
:1039900053D80021B6480068FCF748FF4DD20021FB
:1039A000B4480068FCF742FF47D20021B2480068E3
:1039B000FCF73CFF41D2AA48808F99490988884288
:1039C0003BDAA748C08FA7490988884235DAA4485E
:1039D00040300088A449098888422EDA9648007849
:1039E000401C9549087095480068401E944908603D
:1039F0009448006894490860944840680121C907C8
:103A0000084392494860914840384068012149067E
:103A100008438E4940394860FEF79CFA894800689F
:103A200096490968401A9649086000209349086041
:103A30009349086093489449886095E081480068FC
:103A400081490968401A91490988884241D97D48CD
:103A500000687D490968401A8D490988884238D232
:103A60008C48894988606C480078012814D18A48BC
:103A70000088FCF770FC6D49169075480068FCF7EB
:103A8000E4FB15901699FCF71DFC1790FCF78CFCD5
:103A900000B2674908803DE05F480078022839D1CC
:103AA0007D480088FCF757FC16907048006801219B
:103AB000C90748405D491490FCF7C7FB159016995B
:103AC000FCF700FC1790FCF76FFC00B25849088027
:103AD00020E05C4800685C490968401A6C49098824
:103AE000884217D954480078401C534908705348FD
:103AF00000685349086053480068534908605348B8
:103B0000403840680121090608435049403948605F
:103B1000FEF778FA28E04B4800684B490968401ADC
:103B20005E4988421FD90020434908704449086013
:103B3000454908603849087059480078401C584980
:103B400008704748C08E0978884202DA012054493B
:103B500008703E4840680121C90708433B49486056
:103B6000C8203449088000BF00BF36480068434978
:103B70000968401A4B49884228D940480068002803
:103B800024D000202C4908702D4908602E49086077
:103B90002149087042480078401C4149087030486B
:103BA000C08E0978884202DA01203D490870274812
:103BB00040680121C907084324494860C8201D49BD
:103BC000088000202D4908602D49086036480068AB
:103BD000364908603648006833490860354800684F
:103BE0003349086012490020085EFCF7A9FB0D90DC
:103BF000FCF7D8FD304A314B0F910E90FCF7BAFC20
:103C0000139112900A490020085EFCF7ABFB0B9160
:103C10000A900749002053E068F1FF1F1CF1FF1FC5
:103C20008CF0FF1F0000C84288F0FF1F00002041F9
:103C300098F0FF1F00F0FF1FC8F0FF1FCCF0FF1F20
:103C400028F1FF1FD0F0FF1F2CF1FF1F40F00F40A5
:103C500084F1FF1F88F1FF1F8CF1FF1F90F1FF1F00
:103C60003400002090F0FF1F92F0FF1F74F1FF1F3F
:103C700078F1FF1F7CF1FF1F80F1FF1F6CF1FF1F28
:103C800070F1FF1F00004843E8FDFF1F24F1FF1FF4
:103C900026F1FF1F0000FA4322F1FF1FB80B0000BE
:103CA000C9F0FF1F409C0000B8F0FF1FBCF0FF1FD1
:103CB000B4F0FF1FB0F0FF1FD4B7CCE9B298883F33
:103CC000085EFCF73DFB0590FCF76CFDF84AF94BEC
:103CD00007910690FCF74EFC099108900B9B0A9AFD
:103CE000FCF748FC0F910E90F3490020085EFCF7AA
:103CF00039FB0B910A90F0490020085EFCF720FB8D
:103D00000390FCF74FFD07910690EB490020085EF9
:103D1000FCF716FB0190FCF745FDE84AE84B0391E0
:103D20000290FCF727FC05910490079B069AFCF78C
:103D300021FC099108900B9B0A9AFCF71BFC0D9142
:103D40000C900F9B0E9AFCF763FB11911090139B44
:103D5000129AFCF75DFBDB4ADB4B15911490FCF7E4
:103D6000FBFB17911690FCF745FDD8490860D24936
:103D70000020085ED64900228A5E801A1790FCF760
:103D8000DFFA1890D3480088FCF7E5FA14901899E8
:103D9000FCF75BFA1690D0480088FCF7DCFA149028
:103DA000CA4801681498FCF750FA15901699FCF768
:103DB000F3F91790FCF7F8FAC8490860C84800689A
:103DC000C84909684018C5490968411AC6480160D0
:103DD000C3480068C34909684018C04909684018C9
:103DE000C2490860C2480078002806D0012824D0C3
:103DF00002286AD003281FD1E2E0BE48808E022844
:103E00001AD1BD480068002816D0BC4800880A288E
:103E100012DABB4800880A280EDABA4800880A2855
:103E20000ADAB94800880A2806DAB1480078401C46
:103E3000AF490870FEF79EF8E4E0AE48808E022895
:103E400015D1AE480088322811DAAD4800883228F2
:103E50000DDAAC480088322809DAAB4800883228ED
:103E600005DA0020A0490860A04908602CE0A148BC
:103E700040304088A1490988884214DB9D48403081
:103E800040889F49098888420DDB9A484030408825
:103E90009C490988884206DB9648403040889A4908
:103EA0000988884210DA9948406801214906084388
:103EB000964948609048008881B2954801808C48B6
:103EC0000078401C8A4908709CE08C4800880028D3
:103ED00075D18B480088002871D18A480088052850
:103EE0006DDC89480088052869DC8948008800283D
:103EF00065D08148006886490988401AFF21F5315C
:103F000088425CD97C480068401E50211790FCF71D
:103F1000F5F848007F49085A002850D176480068D3
:103F2000801E50211790FCF7E9F848007949085A9B
:103F3000002844D170480068C01E50211790FCF73B
:103F4000DDF848007349085A002838D16A480068EB
:103F5000401E50211790FCF7D1F849006D48A03061
:103F6000405A00282BD164480068801E50211790C9
:103F7000FCF7C4F849006748A030405A00281ED119
:103F80005D480068C01E50211790FCF7B7F8490043
:103F90006048A030405A002811D155480078401C94
:103FA00053490870FEF72EF8FF202D305A4908803B
:103FB00001205A490870504800885549088021E07E
:103FC0004D48006852490988401A642819D94F4859
:103FD00080680121C90708434C4988600846806809
:103FE0000121490708434949886000204049087079
:103FF0004648403040680121C907084343494031E1
:10400000486000BF00BF41480069FF2101310840FE
:1040100000281ED1FF202D303F49088040494148EB
:104020000068FCF76BF81590FCF795F9179031488C
:10403000403080881490FCF78EF93B491590FCF7CE
:1040400041F916901799FCF7C9F902D201213348BA
:1040500001703248007801280FD134490020085EF1
:10406000334900228A5E801840423C2148431E4961
:104070000860084600681D4908601B480068002861
:104080005ADA194800684042174908600846006833
:104090002849884201DB144801601348008880B237
:1040A0001790FEF784FB00200F49086055E00000E0
:1040B0001C0CD01154E8C7BE98F0FF1F9FB7BB4E31
:1040C000D6A8353EB115342DB1327A3FB0F0FF1F7E
:1040D0009AF0FF1FE4F0FF1FE2F0FF1F7CF0FF1FCC
:1040E00074F0FF1F78F0FF1F80F0FF1F84F0FF1FA8
:1040F00069F1FF1F34000020CCF0FF1F88F0FF1F84
:104100008CF0FF1F90F0FF1F92F0FF1F00F00F4098
:104110009CF1FF1F28FAFF1F00F0FF1FD4F0FF1FC4
:10412000F4150000D0F0FF1F0000C8429CF0FF1FF4
:104130009EF0FF1F4E0C000034480068344988424E
:1041400002DB0846314908603048008880B2179089
:10415000FEF720FB00202D4908602E48006800284B
:1041600016DA2C48006840422A4908600846006870
:104170002749884202DB084626490860254800880E
:1041800080B21790FEF72DFB00202249086010E056
:10419000204800681E49884202DB08461D49086025
:1041A0001C48008880B21790FEF70EFB00201949CA
:1041B000086019480088052807DB17480088401F59
:1041C00015490880FCF7B6FD06E014488068012117
:1041D000490208431149886011480078002812D02C
:1041E0001048808A00280ED00F48007800280AD195
:1041F0000E4800680E4908610E480068486100F0EA
:104200008FFA00F099FA19B000BD000080F0FF1F8E
:104210004E0C000084F0FF1F00F0FF1F00F00F4065
:104220004AF1FF1F34000020D4F0FF1F74F1FF1F7C
:10423000E8FDFF1F84F1FF1F0348C169012001430E
:104240000148C161704700000071034070B5044629
:104250000D4616461F484069022108431D49486122
:104260001D480068022188431B490860204616301B
:10427000C206D20E01219140184A116000BF1848B1
:104280006843184922018850084621014018806877
:10429000022108431349220189188860114821012D
:1042A00040188168012001430E4822018018816076
:1042B0002146163148B23146FEF7A0FA20461630A4
:1042C000C206D20E01219140044A803A116000BF1B
:1042D00070BD0000008004400070034080E100E0F9
:1042E000409C000000710340F0B58FB005460E46BB
:1042F0001746387844B200BFA2B201A908A800F05E
:1043000093F9A81B401C0D225043C1B2002308AAF8
:104310005420FEF70CFDA81B401C0D225043C1B2D7
:10432000002301AA6C20FEF702FD00200090FDF79B
:1043300031F8030003F029F8065A04131C414D5AC2
:10434000A01C44B20D2C01D10B2000E020460446F5
:104350000E2C01D10C2000E02046044646E0A01EB1
:1043600044B2002C01DC002000E0204604463DE081
:10437000012000902846C7302F49088038880988D6
:1043800049002E4A5052002009E04100FF2252020B
:10439000891809884200294B9952411C88B2FF288C
:1043A000F3DD3C80FF20FCF737FF0023012252029F
:1043B0002249FF20FCF762FF18E02046E10F0918B0
:1043C00049104900611A01D1611E00E021464CB23A
:1043D0000CE02046E10F091849104900611A012933
:1043E00001D1611C00E021464CB200BF00BF009823
:1043F00001281BD1A2B201A908A800F015F9A81B39
:10440000401C0D225043C1B2012308AA5420FEF7DC
:104410008EFCA81B401C0D225043C1B2012301AAEF
:104420006C20FEF784FCFEF76BFB02E0FEF768FBF6
:1044300062E700BF0FB0F0BDA4F1FF1FB4FEFF1F85
:10444000F0B58BB005460F461646308804B26F486B
:10445000844200DD00E020460446002C01DA002002
:1044600000E02046044600BF224669A104A802F0ED
:1044700061FF00200090E81B401C0D225043C1B298
:104480000C2304AA6620FEF735FC00200390FCF7FD
:1044900081FF030002F079FF069B040D1632479B53
:1044A000601C04B25948844200DD00E02046044606
:1044B0008DE0012C01DA012000E020460446601E58
:1044C00004B284E001200390002009E04100FF22B3
:1044D00052028918098842004F4B9952411C88B2F8
:1044E000FF28F3DD3480FF20FCF796FE0023012235
:1044F00052024949FF20FCF7C1FE68E00A2D0DDB9E
:10450000122D0BDC2046E10F091849104900611AF1
:1045100001D1611E00E021460CB258E00120039059
:10452000308804B253E00020029000BF3B4800886E
:10453000201804B23548844200DD00E020460446DD
:10454000002C01DA002000E020460446FCF722FFA0
:10455000032806D0042820D1308804B2012002901C
:104560001BE0002009E04100FF225202891809885F
:104570004200294B9952411C88B2FF28F3DD348058
:10458000FF20FCF749FE0023012252022249FF20AE
:10459000FCF774FE0120029000BF00BF224620A15C
:1045A00004A802F0C7FE00200090E81B401C0D226A
:1045B0005043C1B20C2304AA6620FEF79BFBFEF712
:1045C0009FFA02980028B1D000BF00BF00BF00BF13
:1045D0000398012813D122460DA104A802F0AAFED7
:1045E00001200090E81B401C0D225043C1B20C2357
:1045F00004AA6620FEF77EFBFEF782FA02E0FEF7D1
:104600007FFA31E700BF0BB0F0BD00000F270000BC
:104610002534642000000000B4FEFF1F9CF0FF1F43
:10462000253464230000000070B506460D4614468C
:10463000002C08D12FA1304602F07CFE2DA1284687
:1046400002F078FE70BD2046E10F091849104900BC
:10465000611A02D001290AD104E027A1304602F0F4
:1046600069FE09E025A1304602F064FE04E024A1C1
:10467000304602F05FFE00BF00BF2046E10F091880
:1046800049104900611A01D1611E00E021468CB237
:104690002046E10F091849100B0002F076FE0604CF
:1046A000090E13181D2217A1284602F043FE1DE033
:1046B00015A1284602F03EFE18E014A1284602F09B
:1046C00039FE13E012A1284602F034FE0EE011A1DB
:1046D000284602F02FFE09E00FA1284602F02AFE2C
:1046E00004E00EA1284602F025FE00BF00BF00BF77
:1046F000A8E700002D2D2D00D3D22000D7F32000F5
:104700003F3F000020353000203630002037300099
:104710002038300020393000313030003F3F3F003A
:1047200010B5552003F03BFFAA2003F038FF1120FD
:1047300003F035FF10BD000070B50025552003F0D3
:104740002EFFAA2003F02BFFFF2003F028FF0120FB
:1047500003F025FF062003F022FF00241CE0A00048
:1047600010490D5C284603F01AFFA0000D494018BF
:104770004578284603F013FFA0000A4940188578C1
:10478000284603F00CFFA00006494018C5782846CB
:1047900003F005FF601CC4B2062CE0DB012003F02F
:1047A000FEFE70BDE8FDFF1F10B51748408C0300EA
:1047B00002F0EBFD0627040B12192027012313A298
:1047C00013210020FEF7B3FA1CE0012315A21321E8
:1047D0000020FEF7ACFA15E0012318A213210020F7
:1047E000FEF7A5FA0EE001231AA213210020FEF71E
:1047F0009EFA07E001231DA213210020FEF797FA7D
:1048000000E000BF00BF10BD3400002020202020A9
:1048100020202020B0B820D2BB2020202020202023
:10482000202000002020202020202020B0B820B60A
:10483000FE202020202020202020000020202020DA
:1048400020202020B0B820C8FD20202020202020BB
:10485000202000002020202020202020B0B820CBC5
:10486000C4202020202020202020000020202020E4
:1048700020202020B0B820CEE5202020202020209D
:10488000202000001248134988800120487023200E
:104890000870112000051049486210484078000750
:1048A000000F0E49487094200D4908701A200B49DA
:1048B000087000BF09480079102108400028F9D18C
:1048C00000BF064800790C2108400028F9D1704744
:1048D00003E800000020054000800440004006403E
:1048E00000500640F3B581B00646B00049490C5867
:1048F000002E04D0012E22D0022E62D140E0464884
:10490000C068802188434449C86008464069012145
:1049100009050843404948614048C07808210843D8
:104920003E49C8700846C078042108433B49C87016
:104930000846C078202108433849C87000BF36486F
:104940000069012109038843334908610846406929
:10495000012149050843304948613148C0780821A0
:1049600008432F49C8700846C078042108432C49E1
:10497000C8700846C078202108432949C87021E042
:1049800025480069012149038843234908610846F5
:1049900040690121890508431F4948612148C078C1
:1049A000082108431F49C8700846C07804210843FD
:1049B0001C49C8700846C078202108431949C870AE
:1049C00000E000BF00BFE0780C218843E0700020C9
:1049D000A07015480299FBF791FB471D0A21384644
:1049E000FBF78CFB85B21148854200DD0546207837
:1049F0004009400120702078E904C90E0843207066
:104A000065700020A070A0716071E0780C210843EF
:104A1000E070FEBDB0C200000080044000A006406F
:104A200000B0064000C0064040787D01FF1F000036
:104A300030B502460B4690000B4D2C58002108E083
:104A4000207980252840002801D0E37104E0481C2B
:104A5000C1B206488142F3DB00BF0448814201DB5A
:104A6000012030BD0020FCE7B0C20000BBFB00000D
:104A700030B589B0FDF7FEFE012321A200210846D2
:104A8000FEF755F900BFFCF785FC032802D0042887
:104A900003D100BF002009B030BD1F480068FBF7FC
:104AA00081FE044622460B461CA101A802F042FCEE
:104AB000012301AA0C210020FEF739F91B480388C5
:104AC0001B4802881BA101A802F034FC012301AAA3
:104AD0001A210020FEF72BF91B480023C35E1B4858
:104AE0000022825E1AA101A802F024FC012301AA7F
:104AF00027210020FEF71BF9FEF702F8C3E70000AC
:104B000020203C2020202020D7D42020BCEC2020B6
:104B1000202020202020000068F0FF1FB8A9D1F637
:104B2000BDC73A252D332E32660000008CF0FF1FE2
:104B300088F0FF1F4144D7F320203A252D3464200C
:104B4000D3D23A252D3464009EF0FF1F9CF0FF1F46
:104B5000D7AACBD9D7F33A252D346420D3D23A251E
:104B60002D346400F0B5CDB00125002601240027C6
:104B70000A204C90FDF77EFEFF222D32774901A8D6
:104B8000FBF7E6FA012301AA00210846FEF7CFF859
:104B90001E20604301A9421801230D210020FEF7C9
:104BA000C6F8601C1E21484301A9421801231A219E
:104BB0000020FEF7BCF8A01C1E21484301A94218A2
:104BC000012327210020FEF7B2F8E01C1E214843F4
:104BD00001A94218012334210020FEF7A8F800BFE4
:104BE0002E462746FCF7D6FB012806D002280DD01A
:104BF000032817D0042828D111E0681EC5B2012D62
:104C000001DA092000E0284605461EE0681CC5B20E
:104C1000092D01DD012000E02846054615E00020B1
:104C20004DB0F0BD012D06D0022D06D0032D06D0CB
:104C3000042D08D105E01F20F2E72020F0E7212015
:104C4000EEE70520ECE70020EAE700BFA54201DA25
:104C5000284600E020460446E81EA04200DD00E0B1
:104C60002046C4B2AE421FD001200C232022194698
:104C700000901846FDF76AFF01200C23202219211D
:104C800000901846FDF762FF01200C232022262108
:104C900000901846FDF75AFF01200C2320223221F4
:104CA00000901846FDF752FFA74226D01E20604311
:104CB00001A9421801230D210020FEF738F8601CDD
:104CC0001E21484301A9421801231A210020FEF7A2
:104CD0002EF8A01C1E21484301A9421801232721B8
:104CE0000020FEF724F8E01C1E21484301A94218C9
:104CF000012334210020FEF71AF8A54208D1012033
:104D00000C234022194600901846FDF71FFF22E0B1
:104D1000601C854208D101200C23402219210090FB
:104D20001846FDF713FF16E0A01C854208D10120AC
:104D30000C234022262100901846FDF707FF0AE0C9
:104D4000E01C854207D101200C2340223221009033
:104D50001846FDF7FBFEFDF7D3FE41E784C10000D6
:104D6000F0B58BB0FDF786FD00BFB5480068FBF7D6
:104D7000F2FA0746B349FBF7A5FA0446FBF712FD22
:104D800005462A460B46B0A103A802F0D3FA01203B
:104D90000C2303AA1B2100900020FDF7ABFFAC48B9
:104DA0000068FBF7D8FAAB490290FBF74EFA0746CA
:104DB000A949FBF787FA0446FBF7F4FC05462A46A7
:104DC0000B46A6A103A802F0B5FA01200C2303AA02
:104DD000282100900020FDF78DFF9D480068FBF71B
:104DE000BAFA9C490090FBF730FA9B490190FBF717
:104DF00069FA074692480068FBF7ADFA91490190BD
:104E0000FBF760FA39460290FBF75CFA0446FBF7C1
:104E1000C9FC05462A460B4692A103A802F08AFA6D
:104E200001200C2303AA352100900020FDF762FF2A
:104E300087480068FBF78FFA074681480068FBF750
:104E40008AFA39460290FBF73DFA0446FBF7AAFCC2
:104E500005462A460B4685A103A802F06BFA0120FD
:104E60000C2303AA232100906220FDF743FF0120B9
:104E70000C2380A2002100900620FDF73BFF7E4816
:104E8000808C3030C2B2012300213720FDF7DCFED8
:104E90007948808E002804D0012807D002280FD13D
:104EA00009E076A103A802F045FA09E075A103A87C
:104EB00002F040FA04E075A103A802F03BFA00BF3B
:104EC00000BF012303AA30216220FDF730FF6A48AA
:104ED000808C052801DB052001E06748808C66494D
:104EE0008884FCF757FA030002F04FFA06A6043450
:104EF000647076A66048808C401C81B25E488184D4
:104F0000808C052801DB052001E05B48808C5A4934
:104F100088840846808C5F490880002009E04100B1
:104F2000FF2252028918098842005B4B9952411CAA
:104F300088B2FF28F3DD574801884F488184FF205D
:104F4000FCF76AF90023012252025349FF20FCF7C3
:104F500095F971E04848808C002801D1012001E0DA
:104F60004548808C444988840846808C401E81B224
:104F700041488184808C47490880002009E0410035
:104F8000FF225202891809884200434B9952411C62
:104F900088B2FF28F3DD3F48018837488184FF202D
:104FA000FCF73AF90023012252023B49FF20FCF7AB
:104FB00065F941E03049888CFCF774F8002802D08C
:104FC00001200BB0F0BDFCF76BFC35E00020204960
:104FD00008601B490860F4E72748808E401C81B2B6
:104FE00025488186808E022801DD002001E02248CC
:104FF000808E214988860846808E264908800020B8
:1050000009E04100FF225202891809884200224B20
:105010009952411C88B2FF28F3DD1E4801881648CA
:105020008186FF20FCF7F8F80023012252021A497A
:10503000FF20FCF723F900BF00BFFDF761FD94E6F8
:10504000D0F0FF1F00A0AF4573252D2E3266000063
:10505000CCF0FF1F0000A04000007A4474252D2EE4
:105060003266000076252D2E3266000056252D2E44
:10507000326600003C00000034000020C6D5CDA8F8
:105080003E000000D4A4C8FC3E000000BEF6C8FCF0
:105090003E00000008F0FF1FB4FEFF1FF0B58BB00C
:1050A000FDF7E8FB01231EA200210846FDF73FFEA5
:1050B00000BFFCF76FF9042802D103200BB0F0BD4C
:1050C0001D480068FBF76EFB04460D461B48006850
:1050D000FBF768FB064632460B4619A103A801956B
:1050E000009402F027F901200C2303AA1421009058
:1050F0000020FDF7FFFD17480023C35E164800227D
:10510000825E16A103A802F015F901200C2303AA60
:10511000212100900020FDF7EDFDFDF7F1FCC8E72F
:10512000203C20202020CDD32020C2DD2020D2C74B
:10513000202020202020000070F0FF1F68F0FF1FBB
:10514000503A25332E326620202020593A25332E1E
:10515000326600005CF0FF1F5AF0FF1F4720583AEC
:10516000202535642020593A202535642000000090
:1051700038B501240025FDF77DFB012389A2032119
:105180000020FDF7D4FD8D48408C012801DA052070
:1051900001E08A48408C894948840846408C0528AB
:1051A00001DD012001E08548408C84494884FFF7F7
:1051B000FBFA012382A223210020FDF7B8FD012381
:1051C00085A233210020FDF7B2FD00BF2546FCF784
:1051D000E1F8030002F0D9F80691040D16295D915B
:1051E000601EC4B2012C01DA042000E0204604460F
:1051F00084E0601CC4B2042C01DD012000E02046E4
:1052000004467BE0012C06D0022C06D0032C06D0ED
:10521000042C08D105E0012038BD0220FCE7032062
:10522000FAE70420F8E70020F6E7022C30D16348C3
:10523000408C401E81B261484184408C012801DAD3
:10524000052001E05D48408C5C4948840846408C5C
:1052500067490880002009E04100FF2252028918B6
:1052600009884200634B9952411C88B2FF28F3DD44
:105270005F48018851484184FF20FBF7CDFF0023A0
:10528000012252025B49FF20FBF7F8FFFFF78CFA7F
:1052900034E0022C30D14948408C401C81B2474850
:1052A0004184408C052801DD012001E04348408C09
:1052B000424948840846408C4D490880002009E056
:1052C0004100FF225202891809884200494B995235
:1052D000411C88B2FF28F3DD4548018837484184E6
:1052E000FF20FBF799FF0023012252024149FF20D2
:1052F000FBF7C4FFFFF758FA00E000BF00BFA5426C
:105300001FD001200C232022032100901046FDF71E
:105310001DFC01200C232022132100901046FDF7D4
:1053200015FC01200C232022232100901046FDF7BC
:105330000DFC01200C232022332100901046FDF7A4
:1053400005FC012C06D0022C0DD0032C14D0042C0B
:1053500024D11AE001200C234022032100902020B8
:10536000FDF7F4FB1AE001200C23402213210090EA
:105370002020FDF7EBFB11E001200C23402223212C
:1053800000902020FDF7E2FB08E001200C234022E2
:10539000332100902020FDF7D9FB00BF00BFFDF7AF
:1053A000AFFB13E72020202020202020B7A220B32D
:1053B000B5202020202020202020000034000020C4
:1053C0002020202020202020CDE220C9E8202020FD
:1053D000202020202020000020202020202020200D
:1053E000C9E820D6C3202020202020202020000033
:1053F00008F0FF1FB4FEFF1FF0B5F84B9D440125D8
:105400000021F7486844816101264161016125213D
:10541000C160F448408C401E2821484384B2FDF707
:1054200029FAF148684401F06DFA0123EE4A6A4412
:1054300000210846FDF77BFC1E207043EA496944C1
:10544000421801230D210020FDF771FC701C1E2164
:105450004843E5496944421801231A210020FDF719
:1054600066FCB01C1E214843DF49694442180123F1
:1054700027210020FDF75BFCF01C1E214843DA4980
:1054800069444218012334210020FDF750FC00BF7D
:10549000D348684485614661FBF77CFF030001F057
:1054A00074FF060C040DFB161B0C681EC5B2012D03
:1054B00001DA242000E02846054627E3681CC5B22F
:1054C000242D01DD012000E028460546F5E70020F7
:1054D000C34B1C339D44F0BD002010E000210AE0C6
:1054E000C200C24BD218525CC300FFAF3837DB1981
:1054F0005A544A1CD1B20829F2DB411CC8B2802898
:10550000ECDB0121FFA8416300210163E4E20120FB
:1055100038234722172100901E20FDF711FAFFA81B
:10552000406B012802D002283AD11CE00123B0A22E
:105530001A212120FDF7FBFB0020192344221946E4
:1055400000902120FDF7FCF9002026234422194673
:1055500000902120FDF7F4F90023A7A229212120A2
:10556000FDF7E5FB1CE00023A1A21A212120FDF795
:10557000DEFB0123A0A229212120FDF7D8FB00207A
:1055800028234422194600902120FDF7D9F9002054
:1055900035234422194600902120FDF7D1F900BFA0
:1055A00000BFFBF7F7FE030001F0EFFE060704085B
:1055B0000CFD0D070120FFA948638AE20220FFA924
:1055C000486386E200BF0020099013E000200BE052
:1055D0000999C900854A89180A5C0999C9000BAB69
:1055E000CB181A54411CC8B20828F1DB0998401C9A
:1055F000C1B2099109988028E8DB012700210A91AE
:1056000044E2FFA8406B012847D12F236E220E21D0
:1056100000904520FDF794F9012F02D0022F3AD1D6
:105620001CE0012376A211214820FDF780FB002019
:1056300010236B22194600904820FDF781F90020C5
:105640001D236B22194600904820FDF779F90023AD
:105650006DA220214820FDF76AFB1CE0002368A210
:1056600011214820FDF763FB012367A22021482078
:10567000FDF75DFB00201F236B2219460090482098
:10568000FDF75EF900202C236B221946009048207C
:10569000FDF756F900BF3AE139E2FFA8406B022856
:1056A000F9D101203F237A22014600904520FDF7E1
:1056B00047F94C48408C030001F067FE0668041867
:1056C0002C40546852A101A801F034FE53A103A854
:1056D000013001F02FFE54A105A8023001F02AFE8E
:1056E00054A107A8033001F025FE4FE054A101A802
:1056F00001F020FE49A103A8013001F01BFE4AA1E0
:1057000005A8023001F016FE4AA107A8033001F0F7
:1057100011FE3BE04AA101A801F00CFE3CA103A848
:10572000013001F007FE40A105A8023001F002FEA1
:1057300040A107A8033001F0FDFD27E040A101A82A
:1057400001F0F8FD32A103A8013001F0F3FD33A10F
:1057500005A8023001F0EEFD36A107A8033001F0E4
:10576000E9FD13E036A101A801F0E4FD28A103A89A
:10577000013001F0DFFD29A105A8023001F0DAFDBA
:1057800029A107A8033001F0D5FD00BF00BF002309
:1057900001AA04214820FDF7CAFA002303AA013216
:1057A0001321482000E090E1FDF7C1FA002305AA8B
:1057B000023222214820FDF7BAFA002307AA033259
:1057C00031214820FDF7B3FA012F3FD0022F54D0EA
:1057D000032F6AD0042F4FD17FE0000064F3FFFF56
:1057E000800C00003400002034080000B8F1FF1FD6
:1057F00020C7E5BFD520000020B8B4D6C6200000E1
:1058000020B5B1C7B020000020CBF9D3D0200000D4
:1058100020B7BDB0B8B6FE200000000020B7BDB074
:10582000B8C8FD200000000020B7BDB0B8CBC42030
:105830000000000020B7BDB0B8CEE5200000000099
:1058400020B7BDB0B8D2BB2000000000012301AAE0
:1058500004214820FDF76BFA002003237722194624
:1058600000904820FDF76CF800201023772219469D
:1058700000904820FDF764F847E0012303AA0132B5
:1058800013214820FDF753FA0020122377221946EE
:1058900000904820FDF754F800201F237722194676
:1058A00000904820FDF74CF82FE0012305AA0232B2
:1058B00022214820FDF73BFA0020212377221946B8
:1058C00000904820FDF73CF800202E23772219464F
:1058D00000904820FDF734F817E0012307AA0332AF
:1058E00031214820FDF723FA002030237722194682
:1058F00000904820FDF724F800203D237722194628
:1059000000904820FDF71CF800BF00BF00BFFBF768
:1059100041FD030001F039FD06B704132522B6B797
:10592000FFA8406B012801D1012707E0781EC7B20C
:10593000012F01DA012000E038460746A3E0FFA866
:10594000406B012801D1022707E0781CC7B2042F61
:1059500001DD042000E03846074694E001200A906B
:1059600091E0F948408CB84201DD099702E0781CCB
:10597000C1B20991FFA8406B0A214843C0191628FB
:1059800050D006DC0B2809D00C2826D0152876D15B
:1059900047E0172847D0182871D145E0002009E0DA
:1059A0004100FF225202891809884200E74B9952B0
:1059B000411C88B2FF28F3DD0021681E0019400059
:1059C000E24A1152FF20FBF727FC0023012252027A
:1059D000DE49FF20FBF752FC51E0002009E04100C6
:1059E000FF225202891809884200D84B9952411C63
:1059F00088B2FF28F3DD002006E0002122185200C3
:105A0000D24B9952411CC8B22828F6DBFF20FBF785
:105A100003FC002301225202CC49FF20FBF72EFC9D
:105A20002DE000BF00BF00BF002009E04100FF22C1
:105A30005202891809884200C44B9952411C88B20D
:105A4000FF28F3DD00200DE00999491E282251436B
:105A500009184900BD4A515A22185200BB4B9952AD
:105A6000411CC8B22828EFDBFF20FBF7D5FB002341
:105A700001225202B549FF20FBF700FC00BF00BF26
:105A8000022025E500BF00BFFDF73AF80A9801287B
:105A900000D0B6E50020099013E000200BE0099942
:105AA000C9000BAA89180A5C0999C900A84BCB1830
:105AB0001A54411CC8B20828F1DB0998401CC1B235
:105AC000099109988028E8DB03E00120FFA9086319
:105AD00000BF00BFFDF714F8FFA8006B012800D03D
