:020000040000FA
:10000000A8120020D7000000E3000000E500000077
:1000100000000000000000000000000000000000E0
:10002000000000000000000000000000E7000000E9
:100030000000000000000000E9000000EB000000EC
:10004000ED000000ED000000ED000000ED000000FC
:10005000ED000000ED000000ED000000ED000000EC
:10006000ED000000ED000000ED000000ED000000DC
:10007000ED000000ED000000ED000000ED000000CC
:10008000ED000000ED000000ED000000ED000000BC
:10009000ED000000ED000000352B00007939000074
:1000A000ED000000ED000000ED000000ED0000009C
:1000B000ED000000ED000000ED000000ED0000008C
:1000C0000348854600F0CCFC00480047397A000020
:1000D000A812002070470648804706488047064817
:1000E0000047FEE7FEE7FEE7FEE7FEE7FEE700006B
:1000F000C53F0000D5000000C100000030B50B4630
:10010000014600202022012409E00D46D5409D42F1
:1001100005D31D469540491B254695404019154677
:10012000521E002DF1DC30BD70B50024254600289C
:1001300001DA01244042002901DA01254942FFF792
:10014000DDFFAC4200D04042002C00D0494270BDDF
:1001500003460B439B0703D009E008C9121F08C0E0
:10016000042AFAD203E00B780370401C491C521E8B
:10017000F9D27047D2B201E00270401C491EFBD296
:1001800070470022F6E710B513460A4604461946A2
:10019000FFF7F0FF204610BDF8B502464A40D40FE5
:1001A00042004B0052085B089A4202D202460846BF
:1001B00011464A0023D0C30D4A00DDB2120EAD1A1B
:1001C000202D35DA49020126490AF6058A19002C44
:1001D00000D0524220214F1B1146B9402A4110182D
:1001E000C20D9A4221D0002C17D0012D08DCDA056F
:1001F000801AD20F8019D207DBB200F065FBF8BD80
:10020000DA05801A012340001B06C01880185A42E4
:100210008018CA0F1043490007E04908C20711437C
:10022000DA05801A80194008801800F045FBF8BDF7
:1002300061000122511A001BF7E70122D207514049
:10024000AAE70122D2075040A6E7024670B54A400D
:10025000D30FDB0740002DD04A002AD0010E140E28
:10026000000212020919400A520A8418E5010446E4
:100270005443000A120A2E045043A4194219200CB8
:10028000C543AA18120C0125AD03521C52191204C1
:100290007F39240400D0521C104301D44000491E71
:1002A000C2B20C06C0092018401C4008802A02D0A7
:1002B00003E0002070BD40084000002900DA002063
:1002C000184370BD70B502464A40D50F40004A0041
:1002D000ED0740085208002814D0002A12D0C40D9F
:1002E000D30D41020120C0055202490A520AE41A04
:1002F000091812187D34914201D3641C00E04900B2
:10030000002C01DA002070BD0023914201D3891A2C
:100310000343400849000028F7D100290AD0914240
:1003200002D10121C90705E0914201D2012101E07A
:100330000121C943E005C018401900F0BDFA70BDA5
:10034000C217C10F504010B54018CA0796230021AC
:1003500000F0BAFA10BD10B500229623114600F045
:10036000B3FA10BD0EB5C217C10F5040CA074018EE
:100370000021054B0293019200910A460B4600F0C2
:10038000E9FA03B000BD000033040000C20F4100D1
:1003900040020123400ADB05D207090EC0187F295D
:1003A00001DA00207047962903DC9623591AC840C9
:1003B00001E096398840002AF4D04042704741005D
:1003C00040020122400AD205090E80187F2901DA75
:1003D00000207047962903DC9622511AC8407047C6
:1003E00096398840704700000122D207002800DBC0
:1003F000101A002900DB511A814270477047000033
:10040000FFFFFFFFFFFFFFFFFFFFFFFFFFFFFEFEFE
:10041000F0B507460846584087B0C00F0490480022
:100420000E46590040084908BC1A884105D2384692
:1004300031461E4617460B460246580040081043F8
:100440004CD0300D039040055900400D490D0590EA
:10045000401A0290402872DA18030121000B0905A6
:100460000843019004980092002805D00199524257
:100470000020884100920190029840210A1A0199B7
:10048000009800F0E5F905460C466B4607CB00F0F6
:1004900000FAC0197141039A0E0D0023D717564078
:1004A0001A467A40164344D0049A002A2DD0029A64
:1004B000012A039A15DC1205C01A9141012636055E
:1004C000001C7141D20F059ED20700930192029643
:1004D0002A46234600F03EFA07B0F0BD38463146C2
:1004E000FAE71605224A0F46B218C01AB741012191
:1004F0000905001C4F4100187F4111461818794129
:10050000E20F10436D19644113E0E2076D081543D3
:100510006408C2071443039A01261205C01A9141C8
:100520003605001C7141CE07400830434908C01809
:1005300051412A46234600F000FACDE7FFE7049830
:1005400001224000C117121A00238B410498314642
:10055000C417381AA141EEE730B40124E407634020
:1005600030BC55E730B40124E407614030BC4FE7AC
:100570000000E0FFF0B51FB488B00B990998002483
:1005800048400999C00F490049080991C0070B99D3
:100590000090490049080B9109990898A64608431C
:1005A0001CD00B990A98084318D0099801244000E0
:1005B000420D4800410D099824050003000B20431B
:1005C00009900B980003000B20430B9050181C4916
:1005D0004018002201901446104605E00020014614
:1005E0000DB0F0BD032801DA034600E003239C466A
:1005F000C11A0AAE0AE05F0008ADED5B4F00F75B81
:100600007D430027AA187C41491C5B1E6145F2DD31
:10061000410004AB5A522104120C0A43240C401C22
:100620000828DFDB01980290009970460191009044
:10063000059B049A0799069800F08CF9D0E7000012
:100640000DFCFFFFF0B50C465C4085B0E40FE407FD
:1006500003944C0000266408590094464908024659
:100660000296224321D062460A431ED06200570DF3
:100670004A000E032303550D012402462C4924058C
:10068000781B1B0B360B4018234326436146009012
:100690001C46501AB44103D30098401C009002E05D
:1006A000921800985B41002803DA0020014605B04B
:1006B000F0BD0020012109050746864611E0644689
:1006C0001D46141BB54106D36546521BB341744603
:1006D00007430C43A646CD07400849082843921813
:1006E0005B4105460D43EAD11046184313D06046DE
:1006F000194650407140084306D06046101AB34175
:1007000006D20122002306E000220123DB0702E0DB
:100710000122D2435310009874460105381C6141F0
:10072000029C039D0019694100F007F9BFE7000032
:10073000FD03000070B5CD0F4A0009030123090B2A
:100740001B0519430B4BED070024520D9A4201DAA9
:10075000002070BD074B34339A4203DC9A1A00F034
:1007600087F802E00449511888402C43F1D04042F8
:1007700070BD0000FF030000CDFBFFFFC20FD207DA
:10078000400040080BD0C10D0723DB01C91840020F
:100790000905400A1143C208400711437047002071
:1007A00001467047CB0FDB07490010B549080246E8
:1007B0000A4307D00A0D07240903E401090B121BA1
:1007C000002A01DC002010BDC900440F0C43C10009
:1007D000E018D205801800F06FF810BD0122D20792
:1007E000002800DB101A002900DB511A88427047EC
:1007F000F0B51FB40646002082B0054640240191A2
:1008000000901BE0019922460F46304600F030F878
:10081000049A059B801A994110D310461946224626
:1008200000F016F8361A8F41019722460120002168
:10083000009F00F00DF838184D4100902046641ECE
:100840000028DFDC019B00982946324607B0F0BD46
:1008500010B5202A04DB0146203A9140002010BD4B
:10086000914020239C1A0346E3401943904010BD59
:1008700010B5202A04DB0846203AD040002110BDE4
:100880000B46D340D0402024A21A91400843194679
:1008900010BD10B5202A06DBCB170846203A1041C0
:1008A000C1170B4306E00B461341D0402024A21A87
:1008B00091400843194610BD002904DA401C490044
:1008C00001D140084000704770B40024050C05D1E8
:1008D0001024000402D1002921D01124050E01D1D9
:1008E00000020834050F01D10001241D850F01D13C
:1008F0008000A41C002801DB4000641C002908D0F3
:1009000020252E1B0D46F540A14000D00121294392
:10091000084301061B1B000ADB1D02D5002070BC2A
:100920007047DB05181880180029F8DA401C4900C8
:10093000F5D170BC40084000704710B5002B08DAB4
:100940000024401C614192185B411A4301D14008C8
:10095000400010BDF0B51FB482B005460C0003D0B6
:10096000084605F08BFF02E005F088FF20300246C4
:10097000009021462846FFF76BFF049B059A04462A
:100980000F4618431143084314D0184610431BD098
:10099000009840210A1A18460599FFF769FF054695
:1009A0000E46009A05990498FFF752FF084305D0B8
:1009B000012004E02046394607B0F0BD0020C117F1
:1009C00005430E432C43374300990E986305401AA4
:1009D0007905E40A00220C43FD0A0A3002D5002002
:1009E0000146E9E70105101969410C9C0D9D0019AC
:1009F0006941FFF7A2FFDFE74A0009030123090B62
:100A00001B0519430A4B10B5520D9A4202DA002019
:100A1000014610BD064B34339A4203DC9A1AFFF7A5
:100A200027FF10BD034BD218FFF712FF10BD0000C7
:100A3000FF030000CDFBFFFF10B5002904DB0124FC
:100A4000E40740428C412146002B04DB1C46012375
:100A5000DB075242A341994200D1904210BD0000F1
:100A6000064C0125064E05E0E36807CC2B430C3C01
:100A700098471034B442F7D3FFF726FBA8B500001F
:100A8000C8B5000070B54B005B0803430BD04B00AA
:100A90005C0D002633466542B341D417AD1AA3411D
:100AA00002DB0020014670BD12053018514170BDB7
:100AB00070B58C180578401C6B075B0F01D103786B
:100AC000401C2A1106D10278401C03E006780E7003
:100AD000401C491C5B1EF9D12B0705D40023521E74
:100AE0000DD40B70491CFAE70378401CCB1A921CFA
:100AF00003E01D780D70491C5B1C521EF9D5A14204
:100B0000D8D3002070BDF3B581B00C460025002776
:100B100004E0019800F060F845197F1CA742F8DB5B
:100B200021462846FFF700FB0090FFF709FC064628
:100B30003046FFF744FC80B2FEBD0000154949690C
:100B4000012252071143134A516113498968124A1D
:100B50009160114649685160002111601146096891
:100B6000202211430C4A11601146096840221143AA
:100B7000094A1160114689690122824092B21143EB
:100B8000054A91611146896808221143024A916021
:100B9000704700000080044000B003400146002080
:100BA0000C4A126852095201CB06DB0E1A43094B5C
:100BB0001A6000BF074A126880231A40002AF9D041
:100BC000044A126990B2034A12689A43014B1A60B0
:100BD0007047000000B00340F1B50098FFF7DEFF5A
:100BE00004460098FFF7DAFF05460098FFF7D6FFA6
:100BF0000646AC4202DD27462C463D46AE4201DDAC
:100C00002F4604E0A64201DD374600E0274638467D
:100C1000F8BD10B50020FFF791FF0120FFF78EFF10
:100C20000E20FFF78BFF0D20FFF788FF0C20FFF74A
:100C300085FF10BD10B500F065F800F0B9FF00F0B9
:100C4000DBFA00F039FAE1214902012003F0EAF968
:100C500001F0BCFC01F052FC01F090FB00F080FAC6
:100C600000F01CFFFFF7D5FF184A0021184806F0D6
:100C7000D3FE18481649C86017480861134A002176
:100C800013481C3006F0C8FE12491148816212490F
:100C9000C16200BF01F06EFA0028FBD101F018FC20
:100CA00001F03AFC64200D4908800022052110461D
:100CB00002F06CFE7D20C00000F010FA0848406889
:100CC0000121C90708430649486010BD00002041C2
:100CD00034FEFF1FFAED6B3A0AD7233C00F0FF1FEA
:100CE00040F00F400548408A012806D1044840687A
:100CF000012149020843024948607047240000204E
:100D000000F00F4010B50F48406901214902084327
:100D10000C4948610846406849150843094948603C
:100D2000084640684915084306494860052000F018
:100D3000D5F90448806801214902084301498860C7
:100D400010BD000000F00F40F0B589B006460F4618
:100D50001546287844B200BFA1B202A800F036FCC4
:100D6000F01B401C0D225043C1B2002302AA722086
:100D700001F00BFE0020019000F0E4FA012806D0FB
:100D8000022807D0032808D0042830D12AE0601CAC
:100D900044B22CE0601E44B229E0012001903046AC
:100DA000C73026490880288809884900244A5052BB
:100DB000002009E04100FF22520289180988420000
:100DC0001F4B9952411C88B2FF28F3DD2C80FF2075
:100DD00000F0FAF90023012252021949FF2000F025
:100DE00025FA04E0287844B20120019000BF00BF3A
:100DF000012C01DD002000E020460446002C01DA31
:100E0000012000E0204604460198012810D1A1B23B
:100E100002A800F0DBFBF01B401C0D225043C1B2C6
:100E2000012302AA722001F0B0FD01F097FC02E05C
:100E300001F094FC90E700BF09B0F0BD94F1FF1FF2
:100E4000A4FEFF1FF0B58BB005460F46164630884E
:100E500004B27948844200DD00E020460446012CBB
:100E600001DA012000E02046044600BF224673A1BB
:100E700004A805F0EFFC00200090E81B401C0D22A8
:100E80005043C1B20C2304AA662001F061FD00208A
:100E9000039000F057FA030005F007FD06B0040DBB
:100EA000163249B0601C04B26348844200DD00E0A1
:100EB00020460446A2E0012C01DA012000E0204691
:100EC0000446601E04B299E001200390002009E06E
:100ED0004100FF225202891809884200594B995259
:100EE000411C88B2FF28F3DD3480FF2000F06CF94C
:100EF0000023012252025349FF2000F097F97DE0C0
:100F00000A2D0FDB122D0DDC2046E10F09184910C8
:100F10004900611A01D1214602E02146621E14B245
:100F20000C466BE001200390308804B266E00A2D85
:100F300010DB122D0EDC2046E10F09184910490084
:100F4000611A012901D1214602E02146621C14B236
:100F50000C4653E00020029000BF3B480088201858
:100F600004B23548844200DD00E020460446002CEF
:100F700001DA002000E02046044600F0E3F90328EF
:100F800006D0042820D1308804B2012002901BE052
:100F9000002009E04100FF2252028918098842001E
:100FA000284B9952411C88B2FF28F3DD3480FF2082
:100FB00000F00AF90023012252022249FF2000F02A
:100FC00035F90120029000BF00BF22461FA104A8EE
:100FD00005F040FC00200090E81B401C0D2250430F
:100FE000C1B20C2304AA662001F0B2FC01F0B6FBEA
:100FF00002980028B1D000BF00BF00BF00BF039817
:10100000012813D122460DA104A805F023FC0120DC
:101010000090E81B401C0D225043C1B20C2304AACF
:10102000662001F095FC01F099FB02E001F096FBCF
:101030001CE700BF0BB0F0BD0F2700002534642073
:1010400000000000A4FEFF1F9AF0FF1F2534642358
:101050000000000070B5054601F03AFAECB220E05D
:1010600064201449088020463030C2B20123002198
:10107000282001F017FC01F071FB012C04D14B205A
:10108000C00000F02BF80AE0AF20800000F026F846
:1010900000F058F9042801D1012070BD00BF601E86
:1010A000C4B2002CDCD1FF202D3002490880002082
:1010B000F3E7000000F0FF1F002009E04100FF22DD
:1010C0005202891809884200034B9952411C88B288
:1010D000FF28F3DD70470000A4FEFF1F10B5034694
:1010E00000240DE0084800F011F800BF00BF00BF69
:1010F00000BF00BF00BF00BF00BF00BF601C84B2C4
:101100009C42EFD310BD0000E7030000002123E064
:1011100000BF00BF00BF00BF00BF00BF00BF00BFD7
:1011200000BF00BF00BF00BF00BF00BF00BF00BFC7
:1011300000BF00BF00BF00BF00BF00BF00BF00BFB7
:1011400000BF00BF00BF00BF00BF00BF00BF00BFA7
:1011500000BF00BF4A1C91B242008A42D8D87047F3
:1011600010B5002006F076FA012006F073FA144854
:1011700080690121890288431149886108464069D4
:10118000091588430E4948610E48806809150843CF
:101190000C4988600A48403080692021884308490A
:1011A0004031886108464069202188430449403124
:1011B00048610448C068202108430249C86010BD46
:1011C00000F00F400090044070B505466C0200200E
:1011D000084948700A2048722002000E0872012057
:1011E00048702004000E48720C7200F063F8002072
:1011F00070BD0000000002400A4949690122120343
:101200001143084A516100BF0749497980221140C2
:101210000029F9D0272001464031034AD1703021FE
:10122000517170470080044000000240FFB581B05A
:1012300007460C46790204980D18042600200090F9
:1012400023E0002014494870062048722802000E4E
:101250000872012048702804000E4872FC202840C3
:101260000872022048702078087260784872032063
:101270004870A0780872E0784872A419AD1900F09F
:1012800019F80098801980B200900399009888425C
:10129000D7D3002005B0F0BD0000024010B5830098
:1012A000034CE3580C33CC001B195A6010BD0000EE
:1012B000ECB4000010B572B630200A4948710A48F3
:1012C0000A4908600748401D0968884762B6054812
:1012D000407933210840002801D0012010BD0020B2
:1012E000FCE700000000024097F1FF1FA4F1FF1F80
:1012F00010B504460C2C1ED004DC002C07D0012CA9
:101300001ED109E00D2C11D00E2C19D109E00521B8
:101310000020FFF7F8FB10BD05210120FFF7F3FBCC
:10132000F9E701210E20FFF7EEFBF4E701210D2084
:10133000FFF7E9FBEFE7C8210C20FFF7E4FBEAE742
:101340000020E8E708B50020009068480069802187
:101350000840002835D166480078FFF7BFFE634893
:10136000006980210840002828D162480088401C7C
:101370006049088008460088142803DD01205C4984
:10138000087016E05B4800880A2803DD0A205849E7
:1013900008700EE057480088052803DD1E205449D8
:1013A000087006E053480088032802DD28205049D1
:1013B00008700120009005204F4908806846007899
:1013C00008BD4A48006940210840002835D14848F6
:1013D0000078FFF783FE4548006940210840002857
:1013E00028D144480088401C4249088008460088AB
:1013F000142803DD01203E49087016E03D480088AE
:101400000A2803DD0A203A4908700EE039480088AE
:10141000052803DD1E203649087006E0354800889F
:10142000032802DD282032490870022000900520A0
:101430003149088068460078C2E72C48403000698E
:1014400010210840002812D129480078FFF746FEF5
:1014500026484030006910210840002804D10520AA
:10146000254908800320009068460078A8E71F48B7
:1014700040300069012189020840002813D11C482E
:101480000078FFF72BFE19484030006901218902DE
:101490000840002804D10520174908800420009046
:1014A000684600788CE71148403000690121490204
:1014B0000840002812D10E480078FFF70FFE0B48B5
:1014C00040300069012149020840002803D105206D
:1014D0000949088000906846007871E73C2004497B
:1014E000087000200349088000BF69E700F00F4042
:1014F00004F0FF1F02F0FF1F00F0FF1FF0B593B0D4
:1015000004460D4616461F460020385EFEF718FFBB
:101510000190FFF733F9244A244B03910290FFF71F
:1015200091F8234A234B05910490FFF723F8099182
:1015300008902068FFF722F907910690099B089A06
:10154000FFF70AF81C4A1D4B0B910A90FFF712F89F
:101550000F910E900020305EFEF704FF0791069079
:101560000020285EFEF7FEFE05910490079B069A78
:1015700005F0A2FF0C4A124B09910890FEF7FAFF02
:10158000104A114B0B910A90FEF7F4FF0D910C904D
:101590000F9B0E9AFEF73CFF11911090FFF702F996
:1015A000206013B0F0BD0000666666666666304077
:1015B0007B14AE47E17A743F2B8716D9CEF7EF3F05
:1015C00066A64C40FCA9F1D24D62503F70B505466D
:1015D0000C46002C02D0012C0AD104E008A12846B8
:1015E00005F038F909E007A1284605F033F904E0D1
:1015F00005A1284605F02EF900BF00BF70BD000010
:10160000B9D80000BFAA00003F3F0000F8B500F0C5
:101610005FFFEF48C08A00280DD1EE4840680121E5
:10162000C9070843EB49486008464068012149075B
:101630000843E84948600120E74908700020E7496D
:101640000860E7490860002400F058FF0020E549E1
:1016500008700120E4490870E4490870DC49498CAD
:10166000491E2822514388B24100E14A515AE14AB9
:101670001180411C4900DE4A515ADF4A1180811C09
:101680004900DB4A515ADD4A1180C11C4900D84A41
:10169000515ADB4A1180011D4900D54A515AD94A95
:1016A0001180411D4900D24A515AD74A1180811DEB
:1016B0004900CF4A515AD54A1180C11D4900CC4A30
:1016C000515AD34A1180014614314900C84A515A2F
:1016D000D04A1180014615314900C54A515ACE4AB7
:1016E0001180014616314900C14A515ACB4A118036
:1016F000014617314900BE4A515AC94A1180014674
:1017000018314900BA4A515AC64A11800146193166
:101710004900B74A515AC44A118001461A3149005A
:10172000B34A515AC14A118001461B314900B04A9F
:10173000515ABF4A118001461C314900AC4A515AE6
:10174000BC4A118001461D314900A94A515ABA4A82
:10175000118001461E314900A54A515AB74A1180ED
:1017600001461F314900A24A515AB54A118001462B
:10177000203149009E4A515AB24A11800146213116
:1017800049009B4A515AB04A118001462231490012
:10179000974A515AAD4A1180014623314900944A73
:1017A000515AAB4A1180014624314900904A515A9E
:1017B000A84A11800146253149008D4A515AA64A4E
:1017C00011808349498C491E28225143093149001F
:1017D000874A515AA14A11807D49498C491E2822C5
:1017E00051430A314900824A515A9D4A1180784931
:1017F000498C491E282251430B3149007C4A515AD9
:10180000984A11807249498C491E282251430C3153
:101810004900774A515A944A11806D49498C491EB2
:10182000282251430D314900714A515A8F4A118083
:101830006749498C491E282251430E3149006C4AA0
:10184000515A8B4A11806249498C491E28225143C2
:101850000F314900664A515A864A11805C49498CC9
:10186000491E2822514310314900614A515A824A87
:1018700011805749498C491E282251431131490092
:101880005B4A515A7D4A1180A0E000255148006909
:10189000FF2101310840002802D101207849087059
:1018A0004B48C08C012815D176490020085EFF21E5
:1018B0002D3188420DDC73490020085E7249884250
:1018C00007DB72480088C82803DB71480088C828F5
:1018D00000DA01253E48008D002809D03F48006805
:1018E000810041183A48008D0A225043814219D89C
:1018F0003748408D00281FD03549488DFEF72BFD15
:1019000064490090FEF7DEFC0646634934480068EF
:10191000FEF7F4FB0090FEF71EFD07463146FEF78A
:101920005DFF09D201205649087000202A4908703D
:10193000C820FFF7D3FB0125FFF704FD002801D1E4
:10194000002D01D0012000E00020002800D13BE064
:1019500000202449087001202349087000201E49F6
:101960000870224908701B48403040680121C907AF
:10197000084318494031486016484068012149062B
:101980000843144948600846406801210906084395
:101990001049486000F0C0FD00F018FEFF202D3017
:1019A000FFF79CFB0B4880680121C90708430949E0
:1019B0008860084680680121490708430549886016
:1019C00000202F490870F8BD00BF00BF5DE7000090
:1019D0002400002000F00F40C6F0FF1FC8F0FF1FDA
:1019E000CCF0FF1FC4F0FF1FC5F0FF1F42F1FF1F27
:1019F000A4FEFF1FD2F0FF1FD4F0FF1FD6F0FF1F81
:101A0000D8F0FF1FDAF0FF1FDCF0FF1FDEF0FF1F32
:101A1000E0F0FF1FE2F0FF1FE4F0FF1FE6F0FF1F02
:101A2000E8F0FF1FEAF0FF1FECF0FF1FEEF0FF1FD2
:101A3000F0F0FF1FF2F0FF1FF4F0FF1FF6F0FF1FA2
:101A4000F8F0FF1FFAF0FF1FFCF0FF1FFEF0FF1F72
:101A500000F1FF1F02F1FF1F04F1FF1F06F1FF1F3E
:101A600008F1FF1F0AF1FF1F0CF1FF1F0EF1FF1F0E
:101A700010F1FF1F12F1FF1F14F1FF1F16F1FF1FDE
:101A8000D0F0FF1F9AF0FF1FD4FEFFFF88F0FF1F6A
:101A90008AF0FF1F0000C842F41500003A48806930
:101AA00080218843384988610846406980218843FD
:101AB000354948613548806880210843334988604A
:101AC00031488069402188432F4988610846406930
:101AD000402188432C4948612C48806840210843B4
:101AE0002A49886028484030806910218843264967
:101AF00040318861084640691021884322494031BD
:101B000048612248C068102108432049C8601E4827
:101B100040308069091588431B4940318861084677
:101B20004069091588431849403148611748C06821
:101B3000091508431549C8601348403080694915A4
:101B400088431149403188610846406949158843F6
:101B50000D49403148610D48C068491508430B499B
:101B6000C860094880698915884307498861084623
:101B7000406989158843044948610448806889158B
:101B8000084302498860704700F00F40009004400D
:101B90000548008A012806D10448806801214906C9
:101BA00008430249886070472400002000F00F407D
:101BB0001A4840690121C907084318494861084685
:101BC0004068490608431549486014484038406950
:101BD00001214906084311494039486108464068D7
:101BE0000121490608430D494039486008464069CB
:101BF00001210906084309494039486108464068FF
:101C000001210906084305494039486003488068B6
:101C1000C9040843014988607047000040F00F4044
:101C20000A48008A01280FD1094880680121C907A4
:101C30000843074988600648403880680121090642
:101C400008430349403988607047000024000020A1
:101C500040F00F400548008A012806D104488068FA
:101C60000121C90708430249886070472400002009
:101C700040F00F40FEB504460D4616466B46062260
:101C80003B21682000F0D4FA0746002F17D16846A0
:101C90000078010268464078014308B22080684617
:101CA000807801026846C078014308B228806846FF
:101CB0000079000269464979084300B2308038460D
:101CC000FEBDFEB504460D4616466B460622432170
:101CD000682000F0ADFA0746002F17D1684600785B
:101CE000010268464078014308B220806846807847
:101CF00001026846C078014308B22880684600792E
:101D0000000269464979084300B230803846FEBD7A
:101D100010B520484069082108431E49486108461B
:101D20008068082108431B498860084640690421EF
:101D3000084318494861084640680421084315498A
:101D40004860084640690421084312494861084632
:101D50008068042108430F49886000F01DF80D4891
:101D60004069082108430B4948610846406808213A
:101D700008430849486000F00FF806484069082108
:101D8000084304494861084680680821084301491E
:101D9000886010BD00F00F4010B50220FFF7B6F9C3
:101DA00010BD00000C484069082108430A494861F9
:101DB00008464068082108430749486008464069CA
:101DC0000421084304494861084640680421084347
:101DD000014948607047000000F00F4010B52048EE
:101DE0004069082108431E49486108468068082167
:101DF00008431B4988600846406904210843184984
:101E0000486108464068042108431549486008466F
:101E1000406904210843124948610846406804218A
:101E200008430F494860FFF7B7FF0D484069082194
:101E300008430B494861084640680821084308499F
:101E40004860FFF7A9FF0648406908210843044994
:101E5000486108468068082108430149886010BD30
:101E600000F00F4070B50546002423488069042126
:101E700088432149886108464069042188431E49F6
:101E800048611E488068042108431C498860002678
:101E900027E0194840690821084317494861084666
:101EA00080680821084314498860FFF775FF1248CD
:101EB00040690821084310494861084640680821E4
:101EC00008430D4948606006040E08460069042175
:101ED0000840002801D0601CC4B2FFF75DFF701CF1
:101EE000C6B2082ED5DB002D02D1FFF777FF01E047
:101EF000FFF70EFF204670BD00F00F400090044039
:101F000070B504462D484069042108432B494861B7
:101F1000084640680421084328494860084640694B
:101F2000082108432549486108468068082108437C
:101F30002249886000253DE080202040C011002813
:101F40000CD11E484069042108431C4948610846D9
:101F5000806804210843194988600BE017484069EC
:101F60000421084315494861084640680421084394
:101F7000124948606006040E104840690821084371
:101F80000E49486108464068082108430B494860EB
:101F9000FFF702FF094840690821084307494861E3
:101FA000084680680821084304498860FFF7F4FE6A
:101FB000681CC5B2082DBFDB70BD000000F00F40EB
:101FC00010B520484069042108431E49486108466D
:101FD0004068042108431B494860084640690421C1
:101FE00008431849486108464068042108431549D8
:101FF000486008464069082108431249486108467C
:102000004068082108430F494860FFF7C5FE0D48A6
:102010004069042108430B4948610846806804214F
:10202000084308498860FFF7B7FE06484069082161
:10203000084304494861084680680821084301496B
:10204000886010BD00F00F4010B5204840690421A1
:1020500008431E49486108464068042108431B495B
:102060004860084640690821084318494861084605
:1020700080680821084315498860084640690421A2
:1020800008431249486108468068042108430F4903
:102090008860FFF781FE0D484069082108430B491D
:1020A00048610846406808210843084948600846D6
:1020B00040690421084305494861084640680421F5
:1020C000084302494860FFF767FE10BD00F00F406B
:1020D00010B500242548806904218843234988617C
:1020E00008464069042188432049486120488068A7
:1020F000042108431E4988601C48406904210843A4
:102100001A49486108464068042108431749486055
:10211000FFF742FE1548406908210843134948610A
:10212000084640680821084310494860FFF734FE1C
:1021300007E0601CC4B2FA2C03DDFFF785FF012025
:1021400010BD0A480069042108400028F1D1074861
:10215000406908210843054948610846806808210C
:102160000843024988600020EAE7000000F00F40C1
:102170000090044010B5FFF715FE6420FEF7AEFF97
:1021800080216B2000F0D5F86420FEF7A7FF002126
:102190006B2000F0CEF8032000F088F8002000F05B
:1021A0007DF8322000F0A7F80021382000F0C1F8B7
:1021B00000216A2000F0BDF80021232000F0B9F8CA
:1021C0008021372000F0B5F8752000F014F804469F
:1021D000682C0CD101216B2000F0ABF800216C20A1
:1021E00000F0A7F87D20C00000F085F801E0012094
:1021F00010BD0020FCE770B50446FFF7E1FED020DB
:10220000FFF77EFEFFF764FF2046FFF779FEFFF73A
:102210005FFFFFF7D5FED120FFF772FEFFF758FFF3
:102220000020FFF71FFE0546FFF70EFF284670BD92
:10223000F8B506460F4614461D46FFF7C1FE710667
:10224000080EFFF75DFEFFF743FF002803D0FFF7FE
:10225000FBFE0120F8BD3846FFF752FEFFF738FFBE
:10226000FFF7AEFE7100491CC8B2FFF749FEFFF749
:102270002FFF0DE0012C04D10020FFF7F3FD2870A3
:1022800003E00120FFF7EEFD2870601EC4B26D1C54
:10229000002CEFD1FFF7D8FE0020DBE710B5044695
:1022A000E006010E1C2000F044F810BD10B50446F5
:1022B000E006010E1B2000F03CF810BD70B504468E
:1022C0000025BC2C01DB012510E0622C01DB02257E
:1022D0000CE02A2C01DB032508E0142C01DB04258B
:1022E00004E00A2C01DB052500E0062529461A201A
:1022F00000F01FF870BD70B504467D20C000844218
:1023000000DD0446042C00DA042421467D20C000B0
:10231000FDF70AFF401EC6B23146192000F009F849
:1023200006462546E10F4919C903080CFFF7C6FF09
:1023300070BD70B505460C46FFF742FED020FFF792
:10234000DFFDFFF7C5FE002803D0FFF77DFE01206B
:1023500070BD2846FFF7D4FDFFF7BAFE2046FFF711
:10236000CFFDFFF7B5FE002803D0FFF76DFE01207B
:10237000EEE7FFF769FE0020EAE7000010B5002352
:10238000194A0321022005F0F7F90023164A022119
:10239000084605F0F1F9154840690121490708434D
:1023A00012494861084680680121490708430F49DE
:1023B000886000230C4A0121022005F0DDF900238A
:1023C000094A1946022005F0D7F908484069012159
:1023D000C90708430549486108468068C90408439D
:1023E0000249886010BD0000D430000000F00F40AA
:1023F00010B50446224603210220FEF74FFF0122BA
:1024000002210846FEF74AFF10BD10B5044601221E
:1024100003210220FEF742FF224602210846FEF772
:102420003DFF10BD10B50446224601210220FEF7F3
:1024300035FF012200210220FEF730FF10BD10B54C
:102440000446012211460220FEF728FF2246002101
:102450000220FEF723FF10BD10B5002819DA1A4A32
:1024600003071B0F083B9B089B00D2588307DC0E19
:10247000FF23A3409A438B071B0E8407E40EA3405F
:102480001A43114B0407240F083CA408A4001A5156
:1024900018E00E4A03231B02D21883089B00D2586F
:1024A0008307DC0EFF23A3409A438B071B0E840790
:1024B000E40EA3401A43054B032424021B1984088D
:1024C000A4001A5110BD00001CED00E000E100E086
:1024D00010B500200CE0002106E00022CB00064CE5
:1024E0001B191A544A1CD1B28029F6DB411CC8B210
:1024F0000828F0DB10BD0000A8F1FF1F00B5002187
:102500008D2000F0CDFA0021102000F0C9FA002142
:10251000AE2000F0C5FA00BD00B500218D2000F00E
:10252000BFFA0021142000F0BBFA0021AF2000F018
:10253000B7FA00BDF7B57F2801DC3F2900DDFEBDFD
:102540000C46CE17760F3619F6100727BE1BF2B2CF
:10255000CE17760F3619F610F6008E1BF5B207244B
:10256000661B0124B440E3B2029C002C09D0C400D5
:10257000094EA419A45C1C43C600074FF619B454B5
:1025800008E0C400044EA419A45C9C43C600024F9A
:10259000F619B45400BFD2E7A8F1FF1FFFB50646F5
:1025A0000F4634460DE03D4606E029462046099A8E
:1025B000FFF7C0FF681CC5B203988542F5DD601CBB
:1025C000C4B202988442EEDDFFBD000000B562484F
:1025D00040690121C90608435F49486108464068CF
:1025E0000121C90608435C49486008464069012149
:1025F0008906084358494861084640680121890610
:10260000084355494860544840304069891508439B
:1026100051494031486108464068891508434E4990
:10262000403148604C484069890508434A4948613F
:1026300008464068012109070843474948600846A1
:102640004068012109070843434948604248403037
:102650008068891508434049403188607D204001E9
:1026600007E0642101E04A1E91B20029FBDC411E13
:1026700088B20028F5DC384840304068FF2101313D
:1026800008433549403148600021AE2000F008FA87
:102690000021D52000F004FA0021802000F000FA8B
:1026A0000021A82000F0FCF900213F2000F0F8F9FB
:1026B0000021D32000F0F4F90021084600F0F0F9E1
:1026C0000021402000F0ECF900218D2000F0E8F915
:1026D0000021142000F0E4F90021202000F0E0F9AE
:1026E0000021022000F0DCF90021A12000F0D8F93F
:1026F0000021C02000F0D4F90021DA2000F0D0F948
:102700000021122000F0CCF90021812000F0C8F94E
:102710000021EF2000F0C4F90021D92000F0C0F919
:102720000021F12000F0BCF90021DB2000F0B8F915
:102730000021302000F0B4F90021A42000F0B0F90D
:102740000021A62000F0ACF90021AF2000F0A8F98C
:10275000FFF7BEFE00BD000000F00F4030B50024C2
:102760001CE02146B031C8B2002100F099F90021E7
:10277000084600F095F90021102000F091F900259D
:1027800008E0E900074A8918085D012100F088F98E
:10279000681CC5B2802DF4DB601CC4B2082CE0DBE1
:1027A00030BD0000A8F1FF1FFFB584B00E461546EE
:1027B0001C4602962046E3175B0F1B18DB102246CF
:1027C000E7177F0FBF18FF10FF00E71B01D001279D
:1027D00000E00027DB192146E70F7F187F107B43BD
:1027E000DBB2019328462038C5B200274FE00C2CFD
:1027F00004D0102C09D0182C14D10CE00C20684304
:1028000025494018C05D03900DE028012349401878
:10281000C05D039007E02420684321494018C05D53
:10282000039000E000BF00BF0020009029E080215D
:1028300003980840002805D031460D9A0498FFF708
:1028400079FE0AE00D98002801D1012000E0002067
:10285000024631460498FFF76DFE03984006000ECD
:102860000390701CC6B20298301AA04205D1029E95
:102870000498401CC0B2049006E00098401CC0B20E
:10288000009000980828D2DB00BF781CC7B20198DE
:102890008742ACDB08B0F0BDEC9B000060A00000FC
:1028A00050A60000FFB581B00646002407E0254889
:1028B000015D0398814200D103E0601CC4B2092C81
:1028C000F5DB00BF0394002438E000272BE0FF2154
:1028D0008131039848431C49411806206043C019C0
:1028E000085C009000251AE01848405D00990840F7
:1028F000002805D03046049A0299FFF71BFE0AE033
:102900000498002801D1012000E000200246304652
:102910000299FFF70FFE701CC6B2681CC5B2082DE5
:10292000E2DB781CC7B2062FD1DB0298401CC0B294
:10293000029030463038C6B2601CC4B2402CC4DBB2
:1029400005B0F0BDCC7A00006C8E0000ACB3000086
:10295000FFB581B0064614461D460A9F0DE000975C
:1029600022782B4630460299FFF71EFF2846E90FD2
:10297000091849108919CEB2641C20787E2802DC1F
:1029800020782028EBDA05B0F0BDF8B505460F46F3
:1029900014461E461FE02078002800D11CE0207855
:1029A0007E280DDC207820280ADB009622780C2374
:1029B00039462846FFF7F8FEA81DC5B2641C0AE098
:1029C0000096637822783946284600F007F82846B2
:1029D0000C30C5B2A41CDEE700BFF8BDFFB582B065
:1029E0000646174600240CE02A48005DB84206D18E
:1029F0002849601C095C0598814200D103E0A01CB5
:102A0000C4B2C82CF0DB00BF2046E10F0918C9058D
:102A10000F0E00243AE0002000902BE018207843AD
:102A20001D494118620000981018085C01900025AB
:102A30001AE01A48405D01990840002805D0304648
:102A40000B9A0399FFF776FD0AE00B98002801D155
:102A5000012000E00020024630460399FFF76AFD9E
:102A6000701CC6B2681CC5B2082DE2DB0098401C81
:102A7000C0B2009000980228D0DB0398401CC0B27E
:102A8000039030461038C6B2601CC4B20C2CC2DBB6
:102A900006B0F0BDE47A0000AC7B0000ACB30000EF
:102AA00010B5002902D0012910D107E0204A926810
:102AB00001231B071A431E4B9A6007E01C4A526809
:102AC00001231B071A431A4B5A6000BF00BF0022A4
:102AD00024E0174B9B680124E4062343144CA360B5
:102AE00080230340002B07D023465B680124A40603
:102AF00023430F4C636006E00D4B9B680124A40642
:102B000023430B4CA3600A4B5B680124E406234378
:102B1000074C63604306180E531CDAB2082AD8DB50
:102B2000034A526801231B071A43014B5A6010BD28
:102B300000F00F4000B599B0FE48C068012108437D
:102B4000FC49C860FC4AFD49FD48FFF793F8FD4A7F
:102B5000FD49FE48FFF7B5F8FB4BF74AF849FC483A
:102B6000FEF7CCFCFB4800690121890208400028DF
:102B700003D104F065FD404202E0002004F060FD56
:102B800000B2F5490880F348403000692021084030
:102B9000002803D1012004F053FD03E0012004F0DC
:102BA0004FFD404200B2ED490880EB490020085E2D
:102BB000EA4900228A5E8018C10F17900818401059
:102BC00000B2E7490880E7480078002818D0E648B6
:102BD0000068401CE4490860E44800680A2807D2FD
:102BE000DF480021415E002902DA0020DC4908802C
:102BF000DE480068DA4900228A5E8018DB490860F6
:102C0000002004F015FD012004F012FDD8480088D2
:102C1000D84908800E20FEF76BFB1590FDF79BFB53
:102C200001461690D44804F0ABFE1790FDF7C7FBA1
:102C3000D24908800D20FEF75BFB1590FDF78BFB5A
:102C400001461690CC481C3004F09AFE1790FDF710
:102C5000B6FBC74908800120FEF74AFBC849088037
:102C60000020FEF745FBC7490880C7480068C749F0
:102C70000860C7480068C7490860C7480068C2497B
:102C80000860C6480068C2490860C5480068C24973
:102C90000860C4480068C1490860B1490020085E66
:102CA000FDF74EFB1790B0480068401E5021119070
:102CB000FDF724FA4900BC48405A1290FDF74BFB3F
:102CC0001490AF480088FDF746FB13901499FDF768
:102CD000B4FAB6491590FDF7B8FA16901799FDF7B2
:102CE000F1FAAF4908609E490020085EFDF728FB15
:102CF00017909D480068401E50211190FDF7FEF985
:102D00004900A948A030405A1290FDF724FB1490C6
:102D10009C480088FDF71FFB13901499FDF78DFA6E
:102D2000A2491590FDF791FA16901799FDF7CAFA86
:102D30009C4908609848016899480068FDF72CFA9A
:102D40001590914801681598FDF726FA16908F485E
:102D500001681698FDF720FA8121C9051790FDF743
:102D6000B1FA8F4908608D4801688E480068FDF708
:102D700013FA1590864801681598FDF70DFA16901C
:102D8000844801681698FDF707FA8121C905179054
:102D9000FDF798FA83490860282173480068FDF719
:102DA000ADF9880082497E4A12680A5028216E488F
:102DB0000068FDF7A3F989007E487A4A12684250FC
:102DC000502169480068FDF799F948007A496B4A33
:102DD00012880A52502164480068FDF78FF94900B3
:102DE0007148A038624A1288425250215E480068F9
:102DF000FDF784F949006C48614A1288425250211B
:102E000059480068FDF77AF949006748A0305D4AE3
:102E10001288425254480068401E50211490FDF719
:102E20006DF9179150480068801E50211490FDF7ED
:102E300065F916914C480068C01E50211490FDF7AA
:102E40005DF915914E4801884E480088081AFF2107
:102E5000C331884207DD01205849087043480068A3
:102E6000574908600FE04748018845480088081A1C
:102E7000FF21C331884206DD0220504908703B48DB
:102E800000684F4908602F480021415E002903DD9A
:102E900001460020085E03E02A480021415E4842C6
:102EA0000790FDF75FFA0022464B09910890FDF765
:102EB00061FB0D910C9024490020085EFDF752FA49
:102EC0000B910A900D9B0C9AFDF746FB1191109007
:102ED0003D480088FDF73FFA3C490C90FDF7F2F9B8
:102EE0000D90FDF74BFC0F910E90119B109AFDF782
:102EF00041FB1591149036480088FDF72CFA0E908E
:102F0000134800680121C90748400D900E99FDF74C
:102F100043F910902F480088FDF71DFA0F90109983
:102F2000FDF793F91190FDF729FC13911290159B71
:102F3000149A51E0007103405EF0FF1F5CF0FF1F28
:102F40005AF0FF1F64F0FF1F62F0FF1F60F0FF1FC9
:102F500068F0FF1F00F00F409AF0FF1F9CF0FF1F6A
:102F600058F1FF1FC6F0FF1FC8F0FF1FCCF0FF1F76
:102F70008AF0FF1F8CF0FF1F34FEFF1F88F0FF1F39
:102F80008EF0FF1F90F0FF1F6CF1FF1F70F1FF1F0D
:102F90007CF1FF1F80F1FF1F68F1FF1F78F1FF1F19
:102FA00064F1FF1F74F1FF1F58FBFF1F000048432F
:102FB00098FCFF1F38FDFF1F18FAFF1F5AF1FF1F73
:102FC0005CF1FF1F0000D03FD8F0FF1F0000C84297
:102FD000D2F0FF1FD6F0FF1FFDF71AFA17911690D7
:102FE000FDF7A8FBFE490860FE490020085EFE4987
:102FF0000880FE480088FE490988401A00B2F94955
:103000000880FC480078030003F04FFC0504CDFE67
:10301000FDFCCC00F848008BF549098888427DDA30
:10302000F548008BF14909888842F8DA0021F34815
:103030000068FDF7D3FB56D8F1480078012852D13B
:10304000F048007800284ED1EF480068EF49096841
:10305000401A4B210901884245D9EB480068EB49E9
:103060000968401AEA4988423DD20020E4490870C4
:10307000E64908600021E7480068FDF7B5F90BD97B
:103080000021E5480068FDF7AFF905D90021E348C4
:103090000068FDF7A9F926D8E1480088FF219131A1
:1030A000884220DCDF48006800281CD1DE48007818
:1030B000DE4908700020DE4908700120D1490870FF
:1030C0006420DC490880D8480068401ED549086063
:1030D000CD480068D8490860C6480078401CC549FA
:1030E0000870FEF7B7FD0021D4480068FDF776FBB5
:1030F00058D8C3480078022854D1C2480078002824
:1031000050D1C1480068C1490968401A4B210901E2
:10311000884247D9BC480068BC4900E042E00968E1
:10312000401ABB4988423DD20020B5490870B749D2
:1031300008600021C2480068FDF756F90BD900214C
:10314000C0480068FDF750F905D90021BE48006865
:10315000FDF74AF926D8BD480088FF219131884201
:1031600020DCB048006800281CD1AF480078B8497E
:1031700008700020B74908700220A2490870642036
:10318000AC490880A8480068401EA64908609E48CF
:103190000068A949086097480078401C9549087064
:1031A000FEF7F6FC09E2A04800789E490978401A2B
:1031B000C0B21790944800889F490988401A80B28D
:1031C00016909848006800287ED0A3490988169870
:1031D000884279DA17980A2801DD0A201790894871
:1031E0000078012860D182480088FDF7B4F8149077
:1031F0001798FDF7B0F80F9098480088FDF7ABF8E6
:103200000D9002E0AFE170E1C3E078480088FDF77F
:10321000A2F893490790FDF755F809907448008883
:10322000FDF799F88E490790FDF74CF80890099939
:10323000FCF7B2FF0B906D480088FDF78CF88849C9
:103240000790FDF73FF8099069480088FDF783F87B
:1032500083490790FDF736F808900999FCF79CFF21
:103260000A900B99FCF7F1FF0C900D99FDF72AF8E5
:103270000E900F99FCF7E9FF7A491090FDF722F8BC
:1032800012905A480088FDF766F811901299FDF7E0
:1032900019F813901499FCF7D0FF1590FDF776F804
:1032A00000B25049088061E05648007802285DD19C
:1032B0001798FDF750F80F9068480088FDF74BF815
:1032C0000D904A48008800E054E0FDF744F8644956
:1032D0000790FCF7F7FF099045480088FDF73BF899
:1032E0005F490790FCF7EEFF08900999FCF754FF3F
:1032F0000B903E480088FDF72EF859490790FCF7DF
:10330000E1FF09903A480088FDF725F854490790F5
:10331000FCF7D8FF08900999FCF73EFF0A900B993B
:10332000FCF793FF0C900D99FCF7CCFF0E900F99D2
:10333000FCF78BFF4B491090FCF7C4FF12902C4810
:103340000088FDF708F811901299FCF7BBFF149064
:1033500026480088FCF7FFFF13901499FCF76DFFD7
:103360001590FDF713F800B21E4908800520314979
:1033700008800DE01F480078401CC1B21D48017054
:1033800029480168274801601F4800682A490860E9
:1033900013E11C48007802281CD133491748006803
:1033A000FDF71CFA16D230491A480068FDF716FAE4
:1033B00010D22D4918480068FDF710FA0AD22A49A0
:1033C00016480068FDF70AFA04D215480088274914
:1033D000884269DC0B48007801287DD1224947E00A
:1033E00074F0FF1F96F0FF1F98F0FF1F8AF0FF1F79
:1033F00088F0FF1FC4F0FF1F2400002064F1FF1FAE
:103400005AF1FF1F60F1FF1FCCF0FF1F5CF1FF1F9F
:10341000280A000068F1FF1F6CF1FF1F70F1FF1F09
:103420008EF0FF1F20F1FF1FC8F0FF1F85F1FF1F67
:1034300086F1FF1F00F0FF1F24F1FF1F74F1FF1F33
:1034400078F1FF1F7CF1FF1F80F1FF1F90F0FF1F3D
:1034500089F1FF1F8AF1FF1FE6F0FF1FE2F0FF1F57
:103460000000C842000020410000DC428A02000047
:10347000FE480068FDF7B2F936D2FD49FD48006804
:10348000FDF7ACF930D2FA49FB480068FDF7A6F920
:103490002AD2F749F9480068FDF7A0F924D2F84884
:1034A0000088F84988421FDDF7480078401CF6493B
:1034B0000870F6480068401EF5490860F548006845
:1034C000F5490860F5484068012109060843F349B9
:1034D00048600846406800E006E0012149060843CC
:1034E000EE494860FEF79CFB67E0EA480068EA495D
:1034F0000968401AEA49098888421DD9E5480068E8
:10350000E5490968401AE7490988884214D2E64823
:103510000078012805D1E548C08D00B2E449088053
:1035200020E0E148007802281CD1E048008E4042AB
:1035300000B2DF49088015E0D6480068D64909681E
:10354000401AD849098888420CD9CF480078401CD5
:10355000CD490870CD480068CD490860CD48006865
:10356000CD49086029E0CB480068CB490968401A7A
:103570007D21890188421FD90020C3490870C449B0
:103580000860C5490860C8490870CA480078401CEE
:10359000C8490870C1484068012109060843BF496D
:1035A0004860BE4840304068C9040843BB494031C8
:1035B0004860C820C049088000BF00BFBF480068FD
:1035C000BF490860BF480068BC490860BE48006841
:1035D000BC490860B6490020085EFCF7B1FE0D90BA
:1035E000FDF7CCF8B94ABA4B0F910E90FCF7C2FF29
:1035F00013911290AE490020085EFCF7B3FE0B91C8
:103600000A90AB490020085EFCF79AFE0590FDF792
:10361000B5F8B04AB04B07910690FCF7ABFF0991A3
:1036200008900B9B0A9AFCF7A5FF0F910E90A049FA
:103630000020085EFCF796FE0B910A909C49002042
:10364000085EFCF77DFE0390FDF798F80791069061
:1036500097490020085EFCF773FE0190FDF78EF895
:103660009E4A9F4B03910290FCF784FF05910490C2
:10367000079B069AFCF77EFF099108900B9B0A9A1C
:10368000FCF778FF0D910C900F9B0E9AFCF7C0FE93
:1036900011911090139B129AFCF7BAFE914A924B2B
:1036A00015911490FCF758FF17911690FDF77AF8D2
:1036B000854908607E490020085E8C4900228A5EA8
:1036C000801A1790FCF73CFE189089480088FCF798
:1036D00042FE14901899FCF7B8FD169085480088B2
:1036E000FCF739FE1490784801681498FCF7ADFD9A
:1036F00015901699FCF750FD1790FCF747FE7E4990
:1037000008607E4800687E49096840187A4909685F
:10371000401A7C490860794800687949096840186E
:10372000754909684018784908605C480069FF21BC
:1037300001310840002806D1012074490870FF209B
:103740002D305D4908807148007801280FD17049FB
:103750000020085E6F4900228A5E80184042642182
:103760004843684908600846016867480160654841
:103770000068002815DA634800684142614801602A
:1037800000686549884202DB08465E4908605D487A
:10379000008880B21790FEF738FE00205949086073
:1037A00010E0584800685C49884202DB08465549E9
:1037B00008605448008880B21790FEF719FE002177
:1037C0005048016050480068002814DA4E480068EC
:1037D00041424D48016000684F49884201DB4A4838
:1037E00001604948008880B21790FEF728FE00204B
:1037F0004549086010E0444800684749884202DBB8
:103800000846414908604048008880B21790FEF79A
:1038100009FE00213C48016027480088052807DB95
:1038200025480088401F24490880FDF75BFA06E020
:103830001A488068012149020843184988603748BE
:103840000078002872D01948808A00286ED02F484E
:10385000007800286AD132480088FCF77CFD3149A5
:10386000086031480088FCF776FD60E074F1FF1FC6
:103870000000DC4278F1FF1F7CF1FF1F80F1FF1F89
:1038800090F0FF1F8A020000C4F0FF1FC8F0FF1F66
:1038900020F1FF1FCCF0FF1F24F1FF1F00F00F40AD
:1038A000EAF0FF1FECF0FF1F60F1FF1F2400002073
:1038B00096F0FF1FC5F0FF1F00F0FF1FB4F0FF1FC1
:1038C000B8F0FF1FB0F0FF1FACF0FF1FD4B7CCE97A
:1038D000B298883F1C0CD01154E8C7BE9FB7BB4EAE
:1038E000D6A8353EB115342DB1327A3F98F0FF1F7E
:1038F000E0F0FF1FDEF0FF1F7CF0FF1F74F0FF1FE2
:1039000078F0FF1F80F0FF1F84F0FF1FD0F0FF1F33
:103910009AF0FF1F9CF0FF1F4E0C000042F1FF1FAA
:1039200088F0FF1FD8FDFF1F8AF0FF1F17E00D4929
:1039300048600D480088FCF70EFD0A4988600B4876
:103940000088FCF708FD0749C8600948006808615D
:1039500008480068486100F083FA00F08DFA19B059
:1039600000BD0000D8FDFF1F8EF0FF1F90F0FF1F6D
:1039700064F1FF1F74F1FF1F0348C1690120014377
:103980000148C161704700000071034070B50446F2
:103990000D4616461F484069022108431D494861EB
:1039A0001D480068022188431B49086020461630E4
:1039B000C206D20E01219140184A116000BF18487A
:1039C0006843184922018850084621014018806840
:1039D00002210843134922018918886011482101F6
:1039E00040188168012001430E482201801881603F
:1039F0002146163148B23146FEF72EFD20461630DC
:103A0000C206D20E01219140044A803A116000BFE3
:103A100070BD0000008004400070034080E100E0C1
:103A2000409C000000710340F0B58FB005460E4683
:103A30001746387844B200BFA2B201A908A800F026
:103A400093F9A81B401C0D225043C1B2002308AAC1
:103A50005420FEF79AFFA81B401C0D225043C1B210
:103A6000002301AA6C20FEF790FF00200090FDF7D4
:103A700069FC030002F019FF065A04131C414D5A59
:103A8000A01C44B20D2C01D10B2000E020460446BE
:103A90000E2C01D10C2000E02046044646E0A01E7A
:103AA00044B2002C01DC002000E0204604463DE04A
:103AB000012000902846C7302F490880388809889F
:103AC00049002E4A5052002009E04100FF225202D4
:103AD000891809884200294B9952411C88B2FF2855
:103AE000F3DD3C80FF20FDF76FFB00230122520233
:103AF0002249FF20FDF79AFB18E02046E10F091844
:103B000049104900611A01D1611E00E021464CB202
:103B10000CE02046E10F091849104900611A0129FB
:103B200001D1611C00E021464CB200BF00BF0098EB
:103B300001281BD1A2B201A908A800F015F9A81B01
:103B4000401C0D225043C1B2012308AA5420FEF7A5
:103B50001CFFA81B401C0D225043C1B2012301AA27
:103B60006C20FEF712FFFEF7F9FD02E0FEF7F6FD0E
:103B700062E700BF0FB0F0BD94F1FF1FA4FEFF1F6E
:103B8000F0B58BB005460F461646308804B26F4834
:103B9000844200DD00E020460446002C01DA0020CB
:103BA00000E02046044600BF224669A104A802F0B6
:103BB00051FE00200090E81B401C0D225043C1B272
:103BC0000C2304AA6620FEF7C3FE00200390FDF735
:103BD000B9FB030002F069FE069B040D1632479BF9
:103BE000601C04B25948844200DD00E020460446CF
:103BF0008DE0012C01DA012000E020460446601E21
:103C000004B284E001200390002009E04100FF227B
:103C100052028918098842004F4B9952411C88B2C0
:103C2000FF28F3DD3480FF20FDF7CEFA00230122C8
:103C300052024949FF20FDF7F9FA68E00A2D0DDB31
:103C4000122D0BDC2046E10F091849104900611ABA
:103C500001D1611E00E021460CB258E00120039022
:103C6000308804B253E00020029000BF3B48008837
:103C7000201804B23548844200DD00E020460446A6
:103C8000002C01DA002000E020460446FDF75AFB34
:103C9000032806D0042820D1308804B201200290E5
:103CA0001BE0002009E04100FF2252028918098828
:103CB0004200294B9952411C88B2FF28F3DD348021
:103CC000FF20FDF781FA0023012252022249FF2042
:103CD000FDF7ACFA0120029000BF00BF224620A1F0
:103CE00004A802F0B7FD00200090E81B401C0D2244
:103CF0005043C1B20C2304AA6620FEF729FEFEF74A
:103D00002DFD02980028B1D000BF00BF00BF00BF4A
:103D10000398012813D122460DA104A802F09AFDB0
:103D200001200090E81B401C0D225043C1B20C231F
:103D300004AA6620FEF70CFEFEF710FD02E0FEF777
:103D40000DFD31E700BF0BB0F0BD00000F270000F4
:103D50002534642000000000A4FEFF1F9AF0FF1F1E
:103D6000253464230000000070B506460D46144655
:103D7000002C08D12FA1304602F06CFD2DA1284661
:103D800002F068FD70BD2046E10F09184910490096
:103D9000611A02D001290AD104E027A1304602F0BD
:103DA00059FD09E025A1304602F054FD04E024A1AC
:103DB000304602F04FFD00BF00BF2046E10F09185A
:103DC00049104900611A01D1611E00E021468CB200
:103DD0002046E10F091849100B0002F066FD0604A9
:103DE000090E13181D2217A1284602F033FD1DE00D
:103DF00015A1284602F02EFD18E014A1284602F075
:103E000029FD13E012A1284602F024FD0EE011A1C5
:103E1000284602F01FFD09E00FA1284602F01AFD16
:103E200004E00EA1284602F015FD00BF00BF00BF50
:103E3000A8E700002D2D2D00D3D22000D7F32000BD
:103E40003F3F000020353000203630002037300062
:103E50002038300020393000313030003F3F3F0003
:103E600010B5552003F02BFEAA2003F028FE1120E8
:103E700003F025FE10BD000070B50025552003F0AD
:103E80001EFEAA2003F01BFEFF2003F018FE0120F7
:103E900003F015FE062003F012FE00241CE0A00033
:103EA00010490D5C284603F00AFEA0000D49401899
:103EB0004578284603F003FEA0000A49401885789B
:103EC000284603F0FCFDA00006494018C5782846A6
:103ED00003F0F5FD601CC4B2062CE0DB012003F00A
:103EE000EEFD70BDD8FDFF1F10B51748408C0300D4
:103EF00002F0DBFC0627040B12192027012313A272
:103F000013210020FEF741FD1CE0012315A213211F
:103F10000020FEF73AFD15E0012318A2132100202E
:103F2000FEF733FD0EE001231AA213210020FEF755
:103F30002CFD07E001231DA213210020FEF725FD23
:103F400000E000BF00BF10BD240000202020202082
:103F500020202020B0B820D2BB20202020202020EC
:103F6000202000002020202020202020B0B820B6D3
:103F7000FE202020202020202020000020202020A3
:103F800020202020B0B820C8FD2020202020202084
:103F9000202000002020202020202020B0B820CB8E
:103FA000C4202020202020202020000020202020AD
:103FB00020202020B0B820CEE52020202020202066
:103FC00020200000124813498880012048702320D7
:103FD0000870112000051049486210484078000719
:103FE000000F0E49487094200D4908701A200B49A3
:103FF000087000BF09480079102108400028F9D155
:1040000000BF064800790C2108400028F9D170470C
:1040100003E8000000200540008004400040064006
:1040200000500640F3B581B00646B00049490C582F
:10403000002E04D0012E22D0022E62D140E046484C
:10404000C068802188434449C8600846406901210E
:1040500009050843404948614048C07808210843A1
:104060003E49C8700846C078042108433B49C870DF
:104070000846C078202108433849C87000BF364838
:1040800000690121090388433349086108464069F2
:10409000012149050843304948613148C078082169
:1040A00008432F49C8700846C078042108432C49AA
:1040B000C8700846C078202108432949C87021E00B
:1040C00025480069012149038843234908610846BE
:1040D00040690121890508431F4948612148C0788A
:1040E000082108431F49C8700846C07804210843C6
:1040F0001C49C8700846C078202108431949C87077
:1041000000E000BF00BFE0780C218843E070002091
:10411000A07015480299FBF7F1FF471D0A213846A8
:10412000FBF7ECFF85B21148854200DD054620789B
:104130004009400120702078E904C90E084320702E
:1041400065700020A070A0716071E0780C210843B8
:10415000E070FEBDE0B400000080044000A0064016
:1041600000B0064000C0064040787D01FF1F0000FF
:1041700030B502460B4690000B4D2C58002108E04C
:10418000207980252840002801D0E37104E0481CF4
:10419000C1B206488142F3DB00BF0448814201DB23
:1041A000012030BD0020FCE7E0B40000BBFB0000B4
:1041B00030B589B0FEF78CF9012321A20021084611
:1041C000FEF7E3FB00BFFDF7BDF8032802D004288B
:1041D00003D100BF002009B030BD1F480068FCF7C4
:1041E000CDFA044622460B461CA101A802F032FB80
:1041F000012301AA0C210020FEF7C7FB1B480388FE
:104200001B4802881BA101A802F024FB012301AA7C
:104210001A210020FEF7B9FB1B480023C35E1B4890
:104220000022825E1AA101A802F014FB012301AA58
:1042300027210020FEF7A9FBFEF790FAC3E7000054
:1042400020203C2020202020D7D42020BCEC20207F
:10425000202020202020000068F0FF1FB8A9D1F600
:10426000BDC73A252D332E32660000008AF0FF1FAD
:1042700088F0FF1F4144D7F320203A252D346420D5
:10428000D3D23A252D3464009CF0FF1F9AF0FF1F13
:10429000D7AACBD9D7F33A252D346420D3D23A25E7
:1042A0002D346400F0B5CDB001250026012400278F
:1042B0000A204C90FEF70CF9FF222D32774901A815
:1042C000FBF746FF012301AA00210846FEF75DFB2C
:1042D0001E20604301A9421801230D210020FEF792
:1042E00054FB601C1E21484301A9421801231A21D6
:1042F0000020FEF74AFBA01C1E21484301A94218DA
:10430000012327210020FEF740FBE01C1E2148432B
:1043100001A94218012334210020FEF736FB00BF1B
:104320002E462746FDF70EF8012806D002280DD0AC
:10433000032817D0042828D111E0681EC5B2012D2A
:1043400001DA092000E0284605461EE0681CC5B2D7
:10435000092D01DD012000E02846054615E000207A
:104360004DB0F0BD012D06D0022D06D0032D06D094
:10437000042D08D105E01F20F2E72020F0E72120DE
:10438000EEE70520ECE70020EAE700BFA54201DAEE
:10439000284600E020460446E81EA04200DD00E07A
:1043A0002046C4B2AE421FD001200C232022194661
:1043B00000901846FEF7F8F901200C23202219215D
:1043C00000901846FEF7F0F901200C232022262148
:1043D00000901846FEF7E8F901200C232022322134
:1043E00000901846FEF7E0F9A74226D01E20604351
:1043F00001A9421801230D210020FEF7C6FA601C16
:104400001E21484301A9421801231A210020FEF76A
:10441000BCFAA01C1E21484301A9421801232721F0
:104420000020FEF7B2FAE01C1E21484301A9421801
:10443000012334210020FEF7A8FAA54208D101206B
:104440000C234022194600901846FEF7ADF922E0F1
:10445000601C854208D101200C23402219210090C4
:104460001846FEF7A1F916E0A01C854208D10120EC
:104470000C234022262100901846FEF795F90AE009
:10448000E01C854207D101200C23402232210090FC
:104490001846FEF789F9FEF761F941E7B4B3000069
:1044A000F0B58BB0FEF714F800BFAF480068FBF71B
:1044B00052FF0646FCF762F9044622460B46ABA1C2
:1044C00003A802F0C7F901200C2303AA1B210090C6
:1044D0000020FEF73DFAA7480068FBF73CFF0646C0
:1044E000FCF74CF9044622460B46A3A103A802F0B0
:1044F000B1F901200C2303AA282100900020FEF727
:1045000027FA9C480068FBF726FF9D490090FBF7BF
:104510009CFE9C490190FBF7D5FE07469248006837
:10452000FBF719FF98490190FBF7CCFE3946029042
:10453000FBF7C8FE0446FCF721F905462A460B4660
:1045400092A103A802F086F901200C2303AA3521C9
:1045500000900020FEF7FCF986480068FBF7FBFEA0
:10456000074681480068FBF7F6FE39460290FBF7E4
:10457000A9FE0446FCF702F905462A460B4685A12A
:1045800003A802F067F901200C2303AA232100905D
:104590006220FEF7DDF901200C2380A200210090AB
:1045A0000620FEF7D5F97E48808C3030C2B2012358
:1045B00000213720FEF776F97948808E002804D054
:1045C000012807D002280FD109E076A103A802F044
:1045D00041F909E075A103A802F03CF904E075A1D6
:1045E00003A802F037F900BF00BF012303AA30215E
:1045F0006220FEF7CAF96A48808C052801DB052095
:1046000001E06748808C66498884FCF79BFE0300C4
:1046100002F04BF906A60434647076A66048808CDC
:10462000401C81B25E488184808C052801DB052016
:1046300001E05B48808C5A4988840846808C5F4939
:104640000880002009E04100FF22520289180988F1
:1046500042005B4B9952411C88B2FF28F3DD57485A
:1046600001884F488184FF20FCF7AEFD0023012222
:1046700052025349FF20FCF7D9FD71E04848808C75
:10468000002801D1012001E04548808C44498884FC
:104690000846808C401E81B241488184808C474905
:1046A0000880002009E04100FF2252028918098891
:1046B0004200434B9952411C88B2FF28F3DD3F482A
:1046C000018837488184FF20FCF77EFD002301220A
:1046D00052023B49FF20FCF7A9FD41E03049888C9C
:1046E000FCF7B8FC002802D001200BB0F0BDFCF7AD
:1046F0008DFF35E000201F4908601B490860F4E782
:104700002748808E401C81B225488186808E0228F1
:1047100001DD002001E02248808E2149888608467C
:10472000808E26490880002009E04100FF225202C5
:10473000891809884200224B9952411C88B2FF28EF
:10474000F3DD1E48018816488186FF20FCF73CFDFA
:104750000023012252021A49FF20FCF767FD00BF27
:1047600000BFFDF7FBFFA0E6CCF0FF1F73252D2E49
:1047700032660000C8F0FF1F74252D2E326600003F
:104780000000A04000007A4400A0AF4576252D2E01
:104790003266000056252D2E326600003C000000D7
:1047A00024000020C6D5CDA83E000000D4A4C8FC3B
:1047B0003E000000BEF6C8FC3E00000008F0FF1FEF
:1047C000A4FEFF1FF0B58BB0FDF782FE01231EA2F1
:1047D00000210846FEF7D9F800BFFCF7B3FD042816
:1047E00002D103200BB0F0BD1D480068FBF7C6FFE7
:1047F00004460D461B480068FBF7C0FF06463246DC
:104800000B4619A103A80195009402F023F801209A
:104810000C2303AA142100900020FEF799F81748F2
:104820000023C35E16480022825E16A103A802F090
:1048300011F801200C2303AA212100900020FEF78B
:1048400087F8FDF78BFFC8E7203C20202020CDD340
:104850002020C2DD2020D2C72020202020200000E0
:1048600070F0FF1F68F0FF1F503A25332E3266208C
:10487000202020593A25332E326600005CF0FF1FBD
:104880005AF0FF1F4720583A202535642020593A16
:10489000202535642000000038B501240025FDF7EF
:1048A00017FE012389A203210020FEF76EF88D4830
:1048B000408C012801DA052001E08A48408C8949B2
:1048C00048840846408C052801DD012001E0854828
:1048D000408C84494884FFF707FB012382A22321EF
:1048E0000020FEF752F8012385A233210020FEF7B5
:1048F0004CF800BF2546FCF725FD030001F0D5FF6D
:104900000691040D16295D91601EC4B2012C01DAD6
:10491000042000E02046044684E0601CC4B2042C5D
:1049200001DD012000E0204604467BE0012C06D09A
:10493000022C06D0032C06D0042C08D105E001205F
:1049400038BD0220FCE70320FAE70420F8E7002046
:10495000F6E7022C30D16348408C401E81B261489A
:104960004184408C012801DA052001E05D48408C3B
:104970005C4948840846408C67490880002009E06B
:104980004100FF225202891809884200634B995264
:10499000411C88B2FF28F3DD5F48018851484184FB
:1049A000FF20FCF711FC0023012252025B49FF208B
:1049B000FCF73CFCFFF798FA34E0022C30D1494870
:1049C000408C401C81B247484184408C052801DD61
:1049D000012001E04348408C424948840846408C0D
:1049E0004D490880002009E04100FF225202891849
:1049F00009884200494B9952411C88B2FF28F3DDD7
:104A00004548018837484184FF20FCF7DDFB00233F
:104A1000012252024149FF20FCF708FCFFF764FA2B
:104A200000E000BF00BFA5421FD001200C232022C0
:104A3000032100901046FDF7B7FE01200C23202231
:104A4000132100901046FDF7AFFE01200C23202219
:104A5000232100901046FDF7A7FE01200C23202201
:104A6000332100901046FDF79FFE012C06D0022C4A
:104A70000DD0032C14D0042C24D11AE001200C23D7
:104A80004022032100902020FDF78EFE1AE0012035
:104A90000C234022132100902020FDF785FE11E019
:104AA00001200C234022232100902020FDF77CFED2
:104AB00008E001200C234022332100902020FDF744
:104AC00073FE00BF00BFFDF749FE13E72020202042
:104AD00020202020B7A220B3B52020202020202095
:104AE0002020000024000020202020202020202042
:104AF000CDE220C9E8202020202020202020000016
:104B00002020202020202020C9E820D6C3202020DB
:104B1000202020202020000008F0FF1FA4FEFF1FFF
:104B2000F0B5F84B9D4401250021F74868448161A8
:104B30000126416101612521C160F448408C401E7D
:104B40002821484384B2FDF7C3FCF148684401F0D2
:104B500069F90123EE4A6A4400210846FDF715FF72
:104B60001E207043EA496944421801230D210020A8
:104B7000FDF70BFF701C1E214843E54969444218AC
:104B800001231A210020FDF700FFB01C1E2148431D
:104B9000DF4969444218012327210020FDF7F5FE73
:104BA000F01C1E214843DA4969444218012334218C
:104BB0000020FDF7EAFE00BFD348684485614661E6
:104BC000FCF7C0FB030001F070FE060C040DFB16A1
:104BD0001B0C681EC5B2012D01DA242000E0284616
:104BE000054627E3681CC5B2242D01DD012000E045
:104BF00028460546F5E70020C34B1C339D44F0BD15
:104C0000002010E000210AE0C200C24BD218525C22
:104C1000C300FFAF3837DB195A544A1CD1B20829F8
:104C2000F2DB411CC8B28028ECDB0121FFA8416304
:104C300000210163E4E2012038234722172100907C
:104C40001E20FDF7ABFCFFA8406B012802D0022814
:104C50003AD11CE00123B0A21A212120FDF795FED4
:104C6000002019234422194600902120FDF796FCCC
:104C7000002026234422194600902120FDF78EFCB7
:104C80000023A7A229212120FDF77FFE1CE000239D
:104C9000A1A21A212120FDF778FE0123A0A229213B
:104CA0002120FDF772FE002028234422194600909F
:104CB0002120FDF773FC0020352344221946009083
:104CC0002120FDF76BFC00BF00BFFCF73BFB03009E
:104CD00001F0EBFD060704080CFD0D070120FFA9FC
:104CE00048638AE20220FFA9486386E200BF0020F1
:104CF000099013E000200BE00999C900854A891842
:104D00000A5C0999C9000BABCB181A54411CC8B2F4
:104D10000828F1DB0998401CC1B209910998802844
:104D2000E8DB012700210A9144E2FFA8406B01283B
:104D300047D12F236E220E2100904520FDF72EFC37
:104D4000012F02D0022F3AD11CE0012376A21121BB
:104D50004820FDF71AFE002010236B221946009010
:104D60004820FDF71BFC00201D236B2219460090F4
:104D70004820FDF713FC00236DA220214820FDF7F9
:104D800004FE1CE0002368A211214820FDF7FDFD70
:104D9000012367A220214820FDF7F7FD00201F23F3
:104DA0006B22194600904820FDF7F8FB00202C23C9
:104DB0006B22194600904820FDF7F0FB00BF3AE156
:104DC00039E2FFA8406B0228F9D101203F237A2263
:104DD000014600904520FDF7E1FB4C48408C030064
:104DE00001F063FD066804182C40546852A101A824
:104DF00001F030FD53A103A8013001F02BFD54A1B7
:104E000005A8023001F026FD54A107A8033001F0E7
:104E100021FD4FE054A101A801F01CFD49A103A808
:104E2000013001F017FD4AA105A8023001F012FD82
:104E30004AA107A8033001F00DFD3BE04AA101A8FB
:104E400001F008FD3CA103A8013001F003FD40A1E1
:104E500005A8023001F0FEFC40A107A8033001F0D4
:104E6000F9FC27E040A101A801F0F4FC32A103A85D
:104E7000013001F0EFFC33A105A8023001F0EAFC9B
:104E800036A107A8033001F0E5FC13E036A101A824
:104E900001F0E0FC28A103A8013001F0DBFC29A10E
:104EA00005A8023001F0D6FC29A107A8033001F0C3
:104EB000D1FC00BF00BF002301AA04214820FDF758
:104EC00064FD002303AA01321321482000E090E191
:104ED000FDF75BFD002305AA023222214820FDF7E1
:104EE00054FD002307AA033231214820FDF74DFD70
:104EF000012F3FD0022F54D0032F6AD0042F4FD15F
:104F00007FE0000064F3FFFF800C0000240000201D
:104F100034080000A8F1FF1F20C7E5BFD52000001E
:104F200020B8B4D6C620000020B5B1C7B02000001C
:104F300020CBF9D3D020000020B7BDB0B8B6FE20FA
:104F40000000000020B7BDB0B8C8FD200000000080
:104F500020B7BDB0B8CBC4200000000020B7BDB062
:104F6000B8CEE5200000000020B7BDB0B8D2BB200D
:104F700000000000012301AA04214820FDF705FDDF
:104F8000002003237722194600904820FDF706FBF6
:104F9000002010237722194600904820FDF7FEFAE2
:104FA00047E0012303AA013213214820FDF7EDFC5D
:104FB000002012237722194600904820FDF7EEFAD0
:104FC00000201F237722194600904820FDF7E6FABB
:104FD0002FE0012305AA023222214820FDF7D5FC4B
:104FE000002021237722194600904820FDF7D6FAA9
:104FF00000202E237722194600904820FDF7CEFA94
:1050000017E0012307AA033231214820FDF7BDFC38
:10501000002030237722194600904820FDF7BEFA81
:1050200000203D237722194600904820FDF7B6FA6C
:1050300000BF00BF00BFFCF785F9030001F035FC9D
:1050400006B704132522B6B7FFA8406B012801D18B
:10505000012707E0781EC7B2012F01DA012000E026
:1050600038460746A3E0FFA8406B012801D102277C
:1050700007E0781CC7B2042F01DD042000E03846A9
:10508000074694E001200A9091E0F948408CB8422C
:1050900001DD099702E0781CC1B20991FFA8406BBD
:1050A0000A214843C019162850D006DC0B2809D025
:1050B0000C2826D0152876D147E0172847D0182885
:1050C00071D145E0002009E04100FF225202891819
:1050D00009884200E74B9952411C88B2FF28F3DD52
:1050E0000021681E00194000E24A1152FF20FCF71F
:1050F0006BF8002301225202DE49FF20FCF796F8EC
:1051000051E0002009E04100FF225202891809887D
:105110004200D84B9952411C88B2FF28F3DD002091
:1051200006E0002122185200D24B9952411CC8B20D
:105130002828F6DBFF20FCF747F800230122520263
:10514000CC49FF20FCF772F82DE000BF00BF00BF84
:10515000002009E04100FF2252028918098842001C
:10516000C44B9952411C88B2FF28F3DD00200DE0AA
:105170000999491E2822514309184900BD4A515A2C
:1051800022185200BB4B9952411CC8B22828EFDBB1
:10519000FF20FCF719F8002301225202B549FF2035
:1051A000FCF744F800BF00BF022025E500BF00BFA8
:1051B000FDF7D4FA0A98012800D0B6E5002009903E
:1051C00013E000200BE00999C9000BAA89180A5CBA
:1051D0000999C900A84BCB181A54411CC8B2082819
:1051E000F1DB0998401CC1B2099109988028E8DBDD
:1051F00003E00120FFA9086300BF00BFFDF7AEFA7E
:10520000FFA8006B012800D015E5002010E0002168
:105210000AE0C200FFAB3833D218525CC300964F8D
:10522000DB195A544A1CD1B20829F2DB411CC8B21E
:105230008028ECDBA8E12B0001F037FB251C141DB6
:1052400027313B454F59636E78828C96A0AAB4BE35
:10525000C8D3DEF8F6F5F4F3F2F1F0EFEEEDECEB97
:10526000EAE91C00600083494218012331462846C0
:10527000FEF786FC86E1601C40007E49421801234F
:1052800031462846FEF77CFC7CE1A01C40007949B1
:105290004218012331462846FEF772FC72E1E01CF9
:1052A000400074494218012331462846FEF768FC45
:1052B00068E1201D40006F4942180123314628460D
:1052C000FEF75EFC5EE1601D40006A494218012362
:1052D00031462846FEF754FC54E1A01D40006549C4
:1052E0004218012331462846FEF74AFC4AE1E01DF8
:1052F000400060494218012331462846FEF740FC31
:1053000040E12046083040005A4942180123314606
:105310002846FEF735FC35E1204609304000554966
:10532000421831462846FEF77FFB2BE120460A3023
:1053300040005049421831462846FEF775FB21E1EE
:1053400020460B3040004B49421831462846FEF7B4
:105350006BFB17E120460C304000464942183146AD
:105360002846FEF761FB0DE120460D304000414923
:10537000421831462846FEF757FB03E120460E301F
:1053800040003C49421831462846FEF74DFBF9E003
:1053900020460F3040003749421831462846FEF774
:1053A00043FBEFE0204610304000324942183146BE
:1053B0002846FEF739FBE5E02046113040002D4934
:1053C000421831462846FEF72FFBDBE0204614301A
:1053D000400028494218012331462846FEF7D0FBF9
:1053E000D0E02046153040002249421801233146C2
:1053F0002846FEF7C5FBC5E02046163040001D4993
:105400004218012331462846FEF7BAFBBAE0AEE067
:10541000A2E096E08AE07EE072E066E05AE04EE0CC
:1054200042E036E02AE017E00BE0FFE720461730C5
:10543000400010494218012331462846FEF7A0FBE0
:10544000A0E02046183040000A49421801233146A6
:105450002846FEF795FB95E02046193040000549A7
:105460004218012331462846FEF78AFB8AE00000F5
:1054700024000020A4FEFF1FA8F1FF1F20461A30C1
:10548000400092494218012331462846FEF778FB36
:1054900078E020461B3040008C49421801233146F9
:1054A0002846FEF76DFB6DE020461C304000874922
:1054B0004218012331462846FEF762FB62E020468F
:1054C0001D30410081480A18012331462846FEF765
:1054D00057FB57E020461E3040007C49421801230C
:1054E00031462846FEF74CFB4CE020461F3040007A
:1054F00076494218012331462846FEF741FB41E038
:105500002046203040007149421801233146284688
:10551000FEF736FB36E02046213040006B4942184A
:10552000012331462846FEF72BFB2BE02046223094
:10553000400066494218012331462846FEF720FB09
:1055400020E02046233040006049421801233146C4
:105550002846FEF715FB15E02046243040005B4945
:105560004218012331462846FEF70AFB0AE020468E
:105570002530400055494218012331462846FEF7A0
:10558000FFFA00BF00BF00BF00BFB54201DA2846E6
:1055900000E030460646E81EB04200DD00E030463E
:1055A000C6B24B4868448069A84204D14848684460
:1055B0000069012827D101200C23202219460090E0
:1055C0000620FDF7F1F801200C232022192100907C
:1055D0000620FDF7E9F801200C2320222621009067
:1055E0000620FDF7E1F801200C2320223221009053
:1055F0000620FDF7D9F83748684400F013FC002076
:10560000334969440861324868444069B0422AD04D
:105610001E2070432F496944421801230D210020A8
:10562000FDF7B3F9701C1E2148432A49694442180A
:1056300001231A210020FDF7A8F9B01C1E214843C0
:10564000244969444218012327210020FDF79DF9D0
:10565000F01C1E2148431F4969444218012334218C
:105660000020FDF792F9B54208D101200C23402219
:10567000194600900620FDF797F822E0701C85423D
:1056800008D101200C234022192100900620FDF7AB
:105690008BF816E0B01C854208D101200C23402273
:1056A000262100900620FDF77FF80AE0F01C8542D5
:1056B00007D101200C234022322100900620FDF763
:1056C00073F8FDF74BF8FFF777FA0000A4FEFF1F11
:1056D000800C00003408000000B585B01421684635
:1056E000FAF74FFDFCF7F4FE012315A2002108464E
:1056F000FDF74BF900BFFBF725FE042802D103207C
:1057000005B000BD14480022825E14A1684601F075
:10571000A1F801236A461A210020FDF736F9134843
:105720000022825E12A1684601F094F801236A46C5
:1057300027210020FDF729F9FDF710F8DBE700002D
:10574000203C20202020B1E020C2EB20C6F720D64C
:10575000B5202020202020009AF0FF1F4C5FB1E0F0
:10576000C2EBC6F73A253564200000009CF0FF1F0D
:10577000525FB1E0C2EBC6F73A2535642000000065
:10578000F0B58BB0FCF7A4FE012330A2002108463F
:10579000FDF7FBF800BFFBF7D5FD042802D103207D
:1057A0000BB0F0BD2F4803882F4802882FA103A813
:1057B00001F050F801200C2303AA194600900020A4
:1057C000FDF7C6F82E4803882E4802882EA103A8AC
:1057D00001F040F801200C2303AA192100900020B9
:1057E000FDF7B6F82748008825490988431A1E485E
:1057F00000881C490988421A28A103A801F02AF848
:1058000001200C2303AA262100900020FDF7A0F818
:1058100027480068FAF7B2FF04460D46254800689D
:10582000FAF7ACFF064632460B4623A103A80195C2
:10583000009401F00FF801200C2303AA33210090FB
:105840000020FDF785F8FCF789FFA4E7203C202025
:105850002020B5E72020B8D02020D6B52020202059
:10586000202000008AF0FF1F88F0FF1F41445F4C9A
:105870003A253464202041445F523A2534640000C4
:1058800090F0FF1F8EF0FF1F20425F4C3A253464DA
:10589000202020425F523A253464000041203A25FE
:1058A0003464202042203A25346420202020000047
:1058B000ACF0FF1F68F0FF1F503A2025332E3266F0
:1058C000202020783A25322E31662000F0B5F5B040
:1058D0000125002601240027002074900F207390DA
:1058E000FCF7F6FD02A800F05DF9012302AA0021F1
:1058F0000846FDF74AF81E20604302A9421801231A
:105900000D210020FDF741F8601C1E21484302A92B
:10591000421801231A210020FDF737F8A01C1E2190
:10592000484302A94218012327210020FDF72DF842
:10593000E01C1E21484302A9421801233421002003
:10594000FDF723F800BF2E462746FBF7FBFC012896
:1059500006D002280DD0032817D0042808D111E062
:10596000681EC5B2012D01DA0E2000E0284605466A
:1059700084E0681CC5B20E2D01DD012000E0284640
:1059800005467BE0002075B0F0BD2B0000F08DFFD8
:105990000F720910171F272F373E454C535A626A62
:1059A000720001237E4A21462846FBF74BFA63E04A
:1059B0007B4A143221462846FBF7C6F95CE00123F6
:1059C000774A921C21462846FBF73CFA54E0012313
:1059D000734A121D21462846FBF734FA4CE0012396
:1059E0006F4A103221462846FBF72CFA44E0012387
:1059F0006B4A123221462846FBF724FA3CE0684AFB
:105A00000E3221462846FBF79FF935E0644A921E84
:105A100021462846FBF798F92EE0614A083A2146CC
:105A20002846FBF791F927E05D4A921F2146284658
:105A3000FBF78AF920E05A4A121F21462846FBF755
:105A400083F919E00123564A163221462846FBF70E
:105A5000F9F911E00123524A183221462846FBF792
:105A6000F1F909E001234E4A1A3221462846FBF794
:105A7000E9F901E0002086E700BF00BF00BFA542B2
:105A800001DA284600E020460446E81EA04200DD78
:105A900000E02046C4B2AE4202D17498012824D15D
:105AA00001200C232022194600900620FCF77CFEE2
:105AB00001200C232022192100900620FCF774FEFF
:105AC00001200C232022262100900620FCF76CFEEA
:105AD00001200C232022322100900620FCF764FED6
