:020000040000FA
:10000000600C0020D7000000E3000000E5000000C5
:1000100000000000000000000000000000000000E0
:10002000000000000000000000000000E7000000E9
:100030000000000000000000E9000000EB000000EC
:10004000ED000000ED000000ED000000ED000000FC
:10005000ED000000ED000000ED000000ED000000EC
:10006000ED000000ED000000ED000000ED000000DC
:10007000ED000000ED000000ED000000ED000000CC
:10008000ED000000ED000000ED000000ED000000BC
:10009000ED000000ED00000059290000912B000048
:1000A000ED000000ED000000ED000000ED0000009C
:1000B000ED000000ED000000ED000000ED0000008C
:1000C0000348854600F01CFD00480047D57000003D
:1000D000600C002070470648804706488047064865
:1000E0000047FEE7FEE7FEE7FEE7FEE7FEE700006B
:1000F000A12D0000D5000000C100000030B50B4666
:10010000014600202022012409E00D46D5409D42F1
:1001100005D31D469540491B254695404019154677
:10012000521E002DF1DC30BD70B50024254600289C
:1001300001DA01244042002901DA01254942FFF792
:10014000DDFFAC4200D04042002C00D0494270BDDF
:10015000F8B500242546002904DA0E4601240021C2
:100160004042B141002B04DA1E46002352420125D1
:10017000B34100F0B1FB8C4617461E46AC4203D09B
:10018000002540428D41AC46002C02D0002657424B
:100190009E4161463A46334601B0F0BDF0B51FB40A
:1001A00086B000200090019002900698069980B2D7
:1001B00004900798090C02040014114307900027CB
:1001C000089D099806913E463C4603900398A9B2C3
:1001D0000204000C039004982D0C154348430021A1
:1001E000224600F0A9FBC719714110340E46402C7D
:1001F000ECDB3846029A00F09FFB009A019B8018C6
:100200000090594102980191103002904028CCDBB7
:1002100000980BB0F0BD03460B439B0703D009E0E9
:1002200008C9121F08C0042AFAD203E00B78037031
:10023000401C491C521EF9D27047D2B201E0027034
:10024000401C491EFBD270470022F6E710B513464A
:100250000A4604461946FFF7F0FF204610BD30B5A8
:1002600004460020034600E05B1C934203D2E05C9E
:10027000CD5C401BF8D030BDF8B502464A40D40FE3
:1002800042004B0052085B089A4202D202460846DE
:1002900011464A0023D0C30D4A00DDB2120EAD1A3A
:1002A000202D35DA49020126490AF6058A19002C63
:1002B00000D0524220214F1B1146B9402A4110184C
:1002C000C20D9A4221D0002C17D0012D08DCDA058E
:1002D000801AD20F8019D207DBB200F058FBF8BDAC
:1002E000DA05801A012340001B06C01880185A4204
:1002F0008018CA0F1043490007E04908C20711439C
:10030000DA05801A80194008801800F038FBF8BD23
:1003100061000122511A001BF7E70122D207514068
:10032000AAE70122D2075040A6E7024670B54A402C
:10033000D30FDB0740002DD04A002AD0010E140E47
:10034000000212020919400A520A8418E501044603
:100350005443000A120A2E045043A4194219200CD7
:10036000C543AA18120C0125AD03521C52191204E0
:100370007F39240400D0521C104301D44000491E90
:10038000C2B20C06C0092018401C4008802A02D0C6
:1003900003E0002070BD40084000002900DA002082
:1003A000184370BDC217C10F504010B54018CA079E
:1003B0009623002100F0EBFA10BD10B50022962321
:1003C000114600F0E4FA10BD0EB5C217C10F50403F
:1003D000CA0740180021054B0293019200910A467A
:1003E0000B4600F01AFB03B000BD00003304000010
:1003F00010B5022000F05EFE10BD7047704700008F
:10040000FFFFFFFFFFFFFFFFFFFFFFFFFFFFFEFEFE
:1004100070B502464A40D50F40004A00ED0740083B
:100420005208002814D0002A12D0C40DD30D410266
:100430000120C0055202490A520AE41A091812188A
:100440007D34914201D3641C00E04900002C01DAA4
:10045000002070BD0023914201D3891A0343400854
:1004600049000028F7D100290AD0914202D1012188
:10047000C90705E0914201D2012101E00121C943F0
:10048000E005C018401900F07AFA70BDF0B50746D3
:100490000846584087B0C00F049048000E465900E7
:1004A00040084908BC1A884105D2384631461E46E4
:1004B00017460B4602465800400810434CD0300DFA
:1004C000039040055900400D490D0590401A0290D7
:1004D000402872DA18030121000B09050843019036
:1004E00004980092002805D00199524200208841CA
:1004F00000920190029840210A1A0199009800F098
:100500001BFA05460C466B4607CB00F025FAC019CE
:100510007141039A0E0D0023D71756401A467A40B0
:10052000164344D0049A002A2DD0029A012A039A35
:1005300015DC1205C01A914101263605001C7141D7
:10054000D20F059ED2070093019202962A462346B7
:1005500000F063FA07B0F0BD38463146FAE71605F9
:10056000224A0F46B218C01AB74101210905001CE2
:100570004F4100187F41114618187941E20F10438E
:100580006D19644113E0E2076D0815436408C20762
:100590001443039A01261205C01A91413605001C26
:1005A0007141CE07400830434908C01851412A46DE
:1005B000234600F025FACDE7FFE70498012240002A
:1005C000C117121A00238B4104983146C417381AF8
:1005D000A141EEE730B40124E407634030BC55E7A5
:1005E00030B40124E407614030BC4FE70000E0FF75
:1005F000F0B51FB488B00B990998002448400999B8
:10060000C00F490049080991C0070B9900904900A3
:1006100049080B9109990898A64608431CD00B99E4
:100620000A98084318D0099801244000420D480058
:10063000410D099824050003000B204309900B98F5
:100640000003000B20430B9050181C494018002257
:1006500001901446104605E0002001460DB0F0BDA3
:10066000032801DA034600E003239C46C11A0AAEC0
:100670000AE05F0008ADED5B4F00F75B7D430027AC
:10068000AA187C41491C5B1E6145F2DD410004ABA8
:100690005A522104120C0A43240C401C0828DFDBA8
:1006A000019802900099704601910090059B049A70
:1006B0000799069800F0B1F9D0E700000DFCFFFFA4
:1006C000F0B50C465C4085B0E40FE40703944C00A1
:1006D00000266408590094464908024602962243BF
:1006E00021D062460A431ED06200570D4A000E0315
:1006F0002303550D012402462C492405781B1B0BAE
:10070000360B401823432643614600901C46501A7E
:10071000B44103D30098401C009002E09218009866
:100720005B41002803DA0020014605B0F0BD00203F
:10073000012109050746864611E064461D46141B43
:10074000B54106D36546521BB341744607430C437B
:10075000A646CD0740084908284392185B41054644
:100760000D43EAD11046184313D060461946504055
:100770007140084306D06046101AB34106D20122E8
:10078000002306E000220123DB0702E00122D2431E
:100790005310009874460105381C6141029C039D6A
:1007A0000019694100F02CF9BFE70000FD030000CB
:1007B0000EB505490291002100910A460B460191B0
:1007C00000F02BF903B000BD33040000C20F41005C
:1007D00040020123400ADB05D207090EC0187F2919
:1007E00001DA00207047962903DC9623591AC84085
:1007F00001E096398840002AF4D040427047410019
:1008000040020122400AD205090E80187F2901DA30
:1008100000207047962903DC9622511AC840704781
:10082000963988407047C20FD207400040080BD06D
:10083000C10D0723DB01C91840020905400A114315
:10084000C20840071143704700200146704700006E
:1008500010B5002904DB0124E40740428C41214605
:10086000002B04DB1C460123DB075242A3419942C3
:1008700000D1904210BD0000CB0FDB07490010B53E
:10088000490802460A4307D00A0D07240903E40178
:10089000090B121B002A01DC002010BDC900440F07
:1008A0000C43C100E018D205801800F068F810BDB4
:1008B0000122D207002800DB101A002900DB511AA0
:1008C000814270470122D207002800DB101A00295C
:1008D00000DB511A88427047F0B51FB4064600206D
:1008E00082B005464024019100901BE00199224608
:1008F0000F46304600F016F9049A059B801A99417C
:1009000010D310461946224600F016F8361A8F41C9
:100910000197224601200021009F00F00DF83818B1
:100920004D4100902046641E0028DFDC019B0098AA
:100930002946324607B0F0BD10B5202A04DB014637
:10094000203A9140002010BD914020239C1A03467C
:10095000E3401943904010BD10B5202A06DBCB17A9
:100960000846203A1041C1170B4306E00B461341DD
:10097000D0402024A21A91400843194610BD0029F6
:1009800004DA401C490001D140084000704770B4AF
:100990000024050C05D11024000402D1002921D027
:1009A0001124050E01D100020834050F01D1000108
:1009B000241D850F01D18000A41C002801DB40000C
:1009C000641C002908D020252E1B0D46F540A140AF
:1009D00000D001212943084301061B1B000ADB1D2F
:1009E00002D5002070BC7047DB051818801800295C
:1009F000F8DA401C4900F5D170BC4008400070474F
:100A000010B5002B08DA0024401C614192185B41AC
:100A10001A4301D14008400010BDF0B51FB482B0A8
:100A200005460C0003D0084604F076F802E004F016
:100A300073F820300246009021462846FFF77CFFDD
:100A4000049B059A04460F4618431143084314D0EB
:100A5000184610431BD0009840210A1A18460599E1
:100A600000F060F805460E46009A05990498FFF7D5
:100A700063FF084305D0012004E02046394607B053
:100A8000F0BD0020C11705430E432C4337430099A6
:100A90000E986305401A7905E40A00220C43FD0A0A
:100AA0000A3002D500200146E9E701051019694125
:100AB0000C9C0D9D00196941FFF7A2FFDFE70000C4
:100AC0004A0009030123090B1B0519430A4B10B502
:100AD000520D9A4202DA0020014610BD064B343313
:100AE0009A4203DC9A1A00F01DF810BD034BD2188D
:100AF000FFF722FF10BD0000FF030000CDFBFFFF4A
:100B0000064C0125064E05E0E36807CC2B430C3C60
:100B100098471034B442F7D3FFF7D6FA308F01006C
:100B2000508F010010B5202A04DB0846203AD0403F
:100B3000002110BD0B46D340D0402024A21A914082
:100B40000843194610BD70B54B005B0803430BD03A
:100B50004B005C0D002633466542B341D417AD1AF5
:100B6000A34102DB0020014670BD1205301851413F
:100B700070BD70B58C180578401C6B075B0F01D1F8
:100B80000378401C2A1106D10278401C03E0067845
:100B90000E70401C491C5B1EF9D12B0705D40023A5
:100BA000521E0DD40B70491CFAE70378401CCB1A77
:100BB000921C03E01D780D70491C5B1C521EF9D578
:100BC000A142D8D3002070BD1549496901225207BE
:100BD0001143134A516113498968124A91601146C1
:100BE00049685160002111601146096820221143B3
:100BF0000C4A11601146096840221143094A1160EC
:100C0000114689690122824092B21143054A9161DD
:100C10001146896808221143024A9160704700001A
:100C20000080044000B0034010B50020FFF7CCFF67
:100C30000120FFF7C9FF0E20FFF7C6FF0D20FFF7C9
:100C4000C3FF0C20FFF7C0FF10BD000010B500F07F
:100C500067F800F0A5FA00F003FA00F051F832202E
:100C600000F010FA214880680121490208431F4919
:100C700088604B21C901012002F0C2F800F08AFE11
:100C800001F0BCFB01F052FB01F090FA00BF01F053
:100C90005DF90028FBD100BF06F0C4FA0028FBD1A3
:100CA00000220521104601F07DFF00F02DFA00F032
:100CB000D1FDFFF7B9FF0E4A00210E4806F0FAF900
:100CC0000D480C49C8600D480861094A00210948CF
:100CD0001C3006F0EFF90849064881620749C162F5
:100CE00001F00EFB01F030FB10BD000000F00F40E2
:100CF00000002041DCF9FF1FFAED6B3A0AD7233CD4
:100D00000548408A012806D104484068012149026B
:100D10000843024948607047CCFBFF1F00F00F40BA
:100D200006484069012149020843044948610846D0
:100D300080684915084301498860704700F00F40FA
:100D4000F0B589B006460F461546287844B200BF74
:100D5000A1B202A800F07EFB00200090F01B401C16
:100D60000D225043C1B20C2302AA6C2001F008FDF1
:100D70000020019000F090FA012806D0022807D048
:100D8000032808D0042830D12AE0601C44B22CE0AB
:100D9000601E44B229E0012001903046C730274947
:100DA0000880288809884900254A5052002009E017
:100DB0004100FF225202891809884200204B9952B3
:100DC000411C88B2FF28F3DD2C80FF2000F0D0F911
:100DD0000023012252021A49FF2000F0FBF904E02F
:100DE000287844B20120019000BF00BF012C01DD32
:100DF000002000E020460446002C01DA012000E03B
:100E0000204604460198012812D1A1B202A800F0A0
:100E100021FB01200090F01B401C0D225043C1B269
:100E20000C2302AA6C2001F0ABFC01F0AFFB02E046
:100E300001F0ACFB8CE700BF09B0F0BDF8F0FF1F7C
:100E40004CFAFF1FF0B58BB006460F4615462888B2
:100E500004B26748844200DD00E020460446012CCD
:100E600001DA012000E02046044600BF224661A1CD
:100E700004A803F03DFE00200090F01B401C0D2252
:100E80005043C1B20C2304AA662001F079FC002073
:100E9000039000F001FA030003F06DFE068B040DD1
:100EA0001632378B601C04B25148844200DD00E0EA
:100EB000204604467DE0012C01DA012000E02046B6
:100EC0000446601E04B274E001200390002009E093
:100ED0004100FF225202891809884200474B99526B
:100EE000411C88B2FF28F3DD2C80FF2000F040F980
:100EF0000023012252024149FF2000F06BF958E023
:100F000001200390288804B253E00020029000BF23
:100F10003B480088201804B23548844200DD00E0D8
:100F200020460446002C01DA002000E0204604465A
:100F300000F0B2F9032806D0042820D1288804B292
:100F4000012002901BE0002009E04100FF22520234
:100F5000891809884200294B9952411C88B2FF2800
:100F6000F3DD2C80FF2000F003F900230122520260
:100F70002249FF2000F02EF90120029000BF00BF9F
:100F8000224620A104A803F0B3FD00200090F01B2E
:100F9000401C0D225043C1B20C2304AA662001F06C
:100FA000EFFB01F0F3FA02980028B1D000BF00BFB8
:100FB00000BF00BF0398012813D122460DA104A849
:100FC00003F096FD01200090F01B401C0D225043C1
:100FD000C1B20C2304AA662001F0D2FB01F0D6FABC
:100FE00002E001F0D3FA41E700BF0BB0F0BD000012
:100FF0000F27000025346420000000004CFAFF1F7A
:101000007AF0FF1F253464230000000070B5054608
:1010100001F076F9ECB21AE064201049088020460D
:101020003030C2B201230021282001F053FB01F02F
:10103000ADFA012C04D14B20C00000F023F804E0ED
:10104000AF20800000F01EF800BF601EC4B2002C6C
:10105000E2D1FF202D300149088070BD00F0FF1F54
:10106000002009E04100FF2252028918098842004D
:10107000034B9952411C88B2FF28F3DD70470000F2
:101080004CFAFF1F10B5034600240DE0084800F09D
:1010900011F800BF00BF00BF00BF00BF00BF00BF0E
:1010A00000BF00BF601C84B29C42EFD310BD0000A3
:1010B000E7030000002123E000BF00BF00BF00BF26
:1010C00000BF00BF00BF00BF00BF00BF00BF00BF28
:1010D00000BF00BF00BF00BF00BF00BF00BF00BF18
:1010E00000BF00BF00BF00BF00BF00BF00BF00BF08
:1010F00000BF00BF00BF00BF00BF00BF4A1C91B2CD
:1011000042008A42D8D8704710B5002005F09CFAFA
:10111000012005F099FA1448806901218902884369
:101120001149886108464069091588430E4948619C
:101130000E488068091508430C4988600A48403009
:101140008069202188430849403188610846406908
:10115000202188430449403148610448C068202167
:1011600008430249C86010BD00F00F4000900440E1
:1011700070B505466C020020084948700A20487284
:101180002002000E0872012048702004000E4872F0
:101190000C7200F063F8002070BD000000000240F7
:1011A0000A494969012212031143084A516100BFEB
:1011B00007494979802211400029F9D027200146AA
:1011C0004031034AD1703021517170470080044092
:1011D00000000240FFB581B007460C467902049832
:1011E0000D1804260020009023E0002014494870C8
:1011F000062048722802000E087201204870280458
:10120000000E4872FC2028400872022048702078A6
:1012100008726078487203204870A0780872E078FD
:101220004872A419AD1900F019F80098801980B21D
:101230000090039900988842D7D3002005B0F0BDF4
:101240000000024010B58300034CE3580C33CC007F
:101250001B195A6010BD0000DC81010010B572B688
:1012600030200A4948710A480A4908600748401D69
:101270000968884762B6054840793321084000284C
:1012800001D0012010BD0020FCE70000000002405A
:10129000FBF0FF1F08F1FF1F08B500200090694810
:1012A000006980210840002835D167480078FFF7A1
:1012B000E9FE6448006980210840002828D163487D
:1012C0000088401C6149088008460088142803DD16
:1012D00001205D49087016E05C4800880A2803DD9B
:1012E0000A20594908700EE058480088052803DD97
:1012F0001E205549087006E054480088032802DD86
:10130000282051490870012000900520504908808C
:101310006846007808BD4B48006940210840002815
:1013200035D149480078FFF7ADFE464800694021B5
:101330000840002828D145480088401C43490880BF
:1013400008460088142803DD01203F49087016E094
:101350003E4800880A2803DD0A203B4908700EE059
:101360003A480088052803DD1E203749087006E04A
:1013700036480088032802DD2820334908700220FF
:10138000009005203249088068460078C2E72D4861
:101390004030006910210840002812D12A48007806
:1013A000FFF770FE274840300069102108400028F0
:1013B00004D1052026490880032000906846007863
:1013C000A8E7204840300069012189020840002830
:1013D00013D11D480078FFF755FE1A4840300069C8
:1013E000012189020840002804D1052018490880FD
:1013F00004200090684600788CE71248403000696D
:10140000012149020840002813D10F480078FFF756
:1014100039FE0C484030006901214902084000288B
:1014200004D105200A49088003200090684600780E
:1014300070E732200449087000200449088000BF8A
:1014400068E7000000F00F4004F0FF1F02F0FF1FEC
:1014500000F0FF1F70B505460C46002C02D0012C91
:101460000AD104E008A1284603F042FB09E007A1E5
:10147000284603F03DFB04E005A1284603F038FBB5
:1014800000BF00BF70BD00004F4646004F4E200019
:101490003F3F3F00F0B587B000F032FFD2484068D0
:1014A0000121C9070843D049486008464068012126
:1014B00049040843CC4948600120CC490870002009
:1014C000CB490860CB490860002500F02FFFCA48CF
:1014D000408C401E2821484384B26000C749085A06
:1014E000C7490880601C4000C449085AC5490880A3
:1014F000A01C4000C149085AC3490880E01C4000B4
:10150000BE49085AC1490880201D4000BB49085AFD
:10151000BF490880601D4000B849085ABD4908808D
:10152000A01D4000B549085ABB490880E01D400095
:10153000B249085AB9490880204608304000AF49EE
:10154000085AB74908804DE1232D01D1002000E061
:10155000284605460F2D47D006DC002D0BD0052D63
:1015600024D00A2D7FD134E0142D49D0192D53D029
:101570001E2D78D164E09C48403040680221084329
:1015800099494031486008464068012149040843B0
:1015900095494031486008464068012109040843E4
:1015A00091494031486000F021FA5CE08E484030BB
:1015B0004068022108438C49403148600846406831
:1015C00001214904084388494031486000F03AFA53
:1015D00049E0854840304068022108438249403153
:1015E000486000F0AFF93EE07F484030406801219C
:1015F000490408437C494031486000F093F932E0E7
:101600007948403040680121090408437649403157
:10161000486000F0A7F926E0734840304068012197
:101620004904084370494031486008464068012138
:10163000090408436C494031486000F0EDF912E0BC
:10164000694840304068022108436749403148609A
:101650000846406801210904084363494031486055
:1016600000F000FA00BF00BF681CC5B20026624847
:10167000C08C012819D16B49885FFF212D31884228
:1016800012DC6849885F684988420DDB6749684811
:101690000068FFF70DF907D366480088642803DB6C
:1016A00065480088642800DA01265348008D002828
:1016B00009D04F480068810041184F48008D0A2228
:1016C000504381421DD84C48408D002823D04A49C0
:1016D000488DFEF772FE0746FFF7A5F8574A584BAC
:1016E00001910090FEF784FF059104904148006845
:1016F000FFF75EF803910290059B049AFFF7A8F8A4
:1017000009D201204F490870002038490870C820CC
:10171000FFF7B8FC0126FFF7BFFD002801D1002E1E
:1017200001D0012000E00020002800D132E000209C
:101730002E4908702C4880680121C90708432A49AE
:10174000886008468068012149040843264988606A
:1017500000203C490870244840304068022108437A
:101760002149403148600846406801214904084346
:101770001D4940314860084640680121090408437A
:1017800019494031486000F0DFFD00F037FE0020CD
:1017900007B0F0BD00BF264800682B4908602B4801
:1017A00048602B4800680121C907484026498860E5
:1017B00020480088FEF701FE2349C8601E480088C3
:1017C000FEF7FBFD204908611B490988194A128868
:1017D000881AFEF7E7FD1C49486101F031FA01F073
:1017E0003BFA00BFB0E6000000F00F4099F0FF1F89
:1017F0009CF0FF1FA0F0FF1FCCFBFF1F4CFAFF1F48
:10180000A6F0FF1FA8F0FF1FAAF0FF1FACF0FF1FFC
:10181000AEF0FF1FB0F0FF1FB2F0FF1FB4F0FF1FCC
:10182000B6F0FF1F78F0FF1FD4FEFFFF000020C2BC
:10183000C0F0FF1F6CF0FF1F6EF0FF1FCDCCCCCCB3
:10184000CCCC4C40A4F0FF1F58F9FF1F0000A04172
:10185000E8F0FF1F31488069802188432F49886163
:1018600008464069802188432C4948612C4880689B
:10187000802108432A49886028488069402188439C
:1018800026498861084640694021884323494861C8
:101890002348806840210843214988601F48403020
:1018A0008069102188431D4940318861084640699C
:1018B000102188431949403148611948C0681021F6
:1018C00008431749C86015484030806909158843A6
:1018D00012494031886108464069091588430F491B
:1018E000403148610E48C068091508430C49C8607A
:1018F0000A48403080694915884308494031886169
:101900000846406949158843044940314861044804
:10191000C068491508430249C860704700F00F408D
:10192000009004400548008A012806D104488068D8
:10193000012109040843024988607047CCFBFF1F5E
:1019400040F00F400548008A012806D1044880680D
:10195000012149040843024988607047CCFBFF1FFE
:1019600040F00F400948008A01280DD108488068DE
:10197000012149040843064988600846806801211E
:10198000090408430249886070470000CCFBFF1F30
:1019900040F00F4014484069022108431249486151
:1019A00008464068022108430F49486008464069DC
:1019B0000121490408430C49486108464068012157
:1019C0004904084308494860084640690121090460
:1019D0000843054948610846406801210904084355
:1019E000014948607047000040F00F400848008AF5
:1019F00001280CD107488068022108430549886006
:101A000008468068012149040843024988607047FC
:101A1000CCFBFF1F40F00F400848008A01280CD182
:101A200007488068022108430549886008468068A5
:101A3000012109040843024988607047CCFBFF1F5D
:101A400040F00F400548008A012805D1044880680D
:101A5000022108430249886070470000CCFBFF1F49
:101A600040F00F400C48008A012813D10B488068D1
:101A70000221084309498860084680680121490419
:101A80000843064988600846806801210904084324
:101A90000249886070470000CCFBFF1F40F00F40F8
:101AA000F0B585B004AB02224121682000F0AAFA0B
:101AB0006946087C0002497C084300B20390039801
:101AC000FEF782FC04460022074BFEF7F9FD074AA9
:101AD000074B01910090FEF7D9FC0646FEF7CCFEBD
:101AE0000290029805B0F0BD00407540A4703D0A18
:101AF000D743424010B520484069082108431E4999
:101B0000486108468068082108431B4988600846E8
:101B10004069042108431849486108464068042187
:101B200008431549486008464069042108431249A2
:101B3000486108468068042108430F498860FEF721
:101B400057FC0D484069082108430B494861084685
:101B500040680821084308494860FEF749FC0648E8
:101B60004069082108430449486108468068082103
:101B700008430149886010BD00F00F400C484069DF
:101B8000082108430A49486108464068082108437B
:101B900007494860084640690421084304494861F0
:101BA0000846406804210843014948607047000026
:101BB00000F00F4010B520484069082108431E4935
:101BC000486108468068082108431B498860084628
:101BD00040690421084318494861084640680421C7
:101BE00008431549486008464069042108431249E2
:101BF000486108464068042108430F494860FEF7E1
:101C0000F7FB0D484069082108430B494861084625
:101C100040680821084308494860FEF7E9FB064888
:101C20004069082108430449486108468068082142
:101C300008430149886010BD00F00F4070B50546AB
:101C4000002423488069042188432149886108468B
:101C50004069042188431E4948611E488068042168
:101C600008431C498860002627E01948406908217C
:101C70000843174948610846806808210843144909
:101C80008860FEF7B5FB12484069082108431049F7
:101C9000486108464068082108430D4948606006CD
:101CA000040E0846006904210840002801D0601C89
:101CB000C4B2FEF79DFB701CC6B2082ED5DB002D0A
:101CC00002D1FFF777FF01E0FFF714FF204670BD58
:101CD00000F00F400090044070B504462D48406964
:101CE000042108432B494861084640680421084301
:101CF0002849486008464069082108432549486149
:101D000008468068082108432249886000253DE094
:101D100080202040C01100280CD11E4840690421B9
:101D200008431C4948610846806804210843194952
:101D300088600BE017484069042108431549486151
:101D40000846406804210843124948606006040EB2
:101D500010484069082108430E4948610846406818
:101D6000082108430B494860FEF742FB09484069D7
:101D7000082108430749486108468068082108434C
:101D800004498860FEF734FB681CC5B2082DBFDB30
:101D900070BD000000F00F4010B5204840690421DC
:101DA00008431E49486108464068042108431B490E
:101DB00048600846406904210843184948610846BC
:101DC00040680421084315494860084640690821D5
:101DD00008431249486108464068082108430F49F2
:101DE0004860FEF705FB0D484069042108430B4994
:101DF0004861084680680421084308498860FEF766
:101E0000F7FA064840690821084304494861084632
:101E10008068082108430149886010BD00F00F4028
:101E200010B520484069042108431E49486108460E
:101E30004068042108431B4948600846406908215E
:101E40000843184948610846806808210843154935
:101E500088600846406904210843124948610846E1
:101E60008068042108430F498860FEF7C1FA0D48D5
:101E70004069082108430B49486108464068082129
:101E80000843084948600846406904210843054959
:101E90004861084640680421084302494860FEF74B
:101EA000A7FA10BD00F00F4010B500242548806946
:101EB00004218843234988610846406904218843F6
:101EC0002049486120488068042108431E498860F1
:101ED0001C484069042108431A4948610846406883
:101EE0000421084317494860FEF782FA1548406903
:101EF00008210843134948610846406808210843FF
:101F000010494860FEF774FA07E0601CC4B2FA2C6E
:101F100003DDFFF785FF012010BD0A480069042199
:101F200008400028F1D107484069082108430549C5
:101F300048610846806808210843024988600020FB
:101F4000EAE7000000F00F400090044010B5FFF7F2
:101F500015FE80216B2000F0D6F86420FFF792F880
:101F600000216B2000F0CFF8032000F089F800205A
:101F700000F07EF87D20C00000F0A7F80021382096
:101F800000F0C1F800216A2000F0BDF800212320F4
:101F900000F0B9F88021372000F0B5F8752000F086
:101FA00014F80446682C0CD101216B2000F0ABF82A
:101FB00000216C2000F0A7F87D20C00000F085F81B
:101FC00001E0012010BD0020FCE770B50446FFF7DA
:101FD000E3FED020FFF780FEFFF766FF2046FFF705
:101FE0007BFEFFF761FFFFF7D7FED120FFF774FEFE
:101FF000FFF75AFF0020FFF721FE0546FFF710FF0D
:10200000284670BDF8B506460F4614461D46FFF734
:10201000C3FE7106080EFFF75FFEFFF745FF0028BD
:1020200003D0FFF7FDFE0120F8BD3846FFF754FE50
:10203000FFF73AFFFFF7B0FE7100491CC8B2FFF787
:102040004BFEFFF731FF0DE0012C04D10020FFF71C
:10205000F5FD287003E00120FFF7F0FD2870601EF9
:10206000C4B26D1C002CEFD1FFF7DAFE0020DBE7D5
:1020700010B50446E006010E1C2000F044F810BD27
:1020800010B50446E006010E1B2000F03CF810BD20
:1020900070B504460025BC2C01DB012510E0622C44
:1020A00001DB02250CE02A2C01DB032508E0142CBF
:1020B00001DB042504E00A2C01DB052500E00625F0
:1020C00029461A2000F01FF870BD70B504467D2027
:1020D000C000844200DD0446042C00DA04242146BA
:1020E0007D20C000FEF720F8401EC6B23146192000
:1020F00000F009F806462546E10F4919C903080C06
:10210000FFF7C6FF70BD70B505460C46FFF744FEED
:10211000D020FFF7E1FDFFF7C7FE002803D0FFF74F
:102120007FFE012070BD2846FFF7D6FDFFF7BCFEFD
:102130002046FFF7D1FDFFF7B7FE002803D0FFF7D9
:102140006FFE0120EEE7FFF76BFE0020EAE7FFB528
:1021500081B005460E461F46FFF71EFE6906080EB3
:10216000FFF7BAFDFFF7A0FE002804D0FFF758FEE6
:10217000012005B0F0BD3046FFF7AEFDFFF794FE3D
:1021800000240CE0385DFFF7A7FDFFF78DFE002867
:1021900003D0FFF745FE0120EBE7601CC4B20398B3
:1021A0008442EFDBFFF73CFE0020E2E710B500239E
:1021B000194A0321022004F0D9FA0023164A022109
:1021C000084604F0D3FA154840690121C9070843BD
:1021D0001249486108468068C90408430F4988606D
:1021E00000230D4A1946022004F0C0FA00230A4ACF
:1021F0000521022004F0BAFA084840690121490487
:10220000084306494861084680680121490408439B
:102210000249886010BD0000D430000000F00F407B
:1022200010B50446224603210220FFF70BF80122D5
:1022300002210846FFF706F810BD10B5044601223A
:1022400003210220FEF7FEFF224602210846FEF788
:10225000F9FF10BD10B50446224600210220FEF70A
:10226000F1FF012205210220FEF7ECFF10BD10B5A1
:102270000446012200210220FEF7E4FF2246052148
:102280000220FEF7DFFF10BD10B5002819DA1A4A48
:1022900003071B0F083B9B089B00D2588307DC0EEB
:1022A000FF23A3409A438B071B0E8407E40EA34031
:1022B0001A43114B0407240F083CA408A4001A5128
:1022C00018E00E4A03231B02D21883089B00D25841
:1022D0008307DC0EFF23A3409A438B071B0E840762
:1022E000E40EA3401A43054B032424021B1984085F
:1022F000A4001A5110BD00001CED00E000E100E058
:1023000010B500200CE0002106E00022CB00064CB6
:102310001B191A544A1CD1B28029F6DB411CC8B2E1
:102320000828F0DB10BD000058F1FF1F00B50021A8
:102330008D2000F0C7FA0021102000F0C3FA002120
:10234000AE2000F0BFFA00BD00B500218D2000F0E6
:10235000B9FA0021142000F0B5FA0021AF2000F0F6
:10236000B1FA00BDF7B57F2801DC3F2900DDFEBDD5
:102370000C46CE17760F3619F6100727BE1BF2B2A1
:10238000CE17760F3619F610F6008E1BF5B207241D
:10239000661B0124B440E3B2029C002C09D0C400A7
:1023A000094EA419A45C1C43C600074FF619B45487
:1023B00008E0C400044EA419A45C9C43C600024F6C
:1023C000F619B45400BFD2E758F1FF1FFFB5064617
:1023D0000F4634460DE03D4606E029462046099A60
:1023E000FFF7C0FF681CC5B203988542F5DD601C8D
:1023F000C4B202988442EEDDFFBD000000B5624821
:1024000040690121C90608435F49486108464068A0
:102410000121C90608435C4948600846406901211A
:1024200089060843584948610846406801218906E1
:10243000084355494860544840304069891508436D
:1024400051494031486108464068891508434E4962
:10245000403148604C484069890508434A49486111
:102460000846406801210907084347494860084673
:102470004068012109070843434948604248403009
:102480008068891508434049403188607D204001BB
:1024900007E0642101E04A1E91B20029FBDC411EE5
:1024A00088B20028F5DC384840304068FF2101310F
:1024B00008433549403148600021AE2000F002FA5F
:1024C0000021D52000F0FEF90021802000F0FAF96B
:1024D0000021A82000F0F6F900213F2000F0F2F9D9
:1024E0000021D32000F0EEF90021084600F0EAF9BF
:1024F0000021402000F0E6F900218D2000F0E2F9F3
:102500000021142000F0DEF90021202000F0DAF98B
:102510000021022000F0D6F90021A12000F0D2F91C
:102520000021C02000F0CEF90021DA2000F0CAF925
:102530000021122000F0C6F90021812000F0C2F92C
:102540000021EF2000F0BEF90021D92000F0BAF9F7
:102550000021F12000F0B6F90021DB2000F0B2F9F3
:102560000021302000F0AEF90021A42000F0AAF9EB
:102570000021A62000F0A6F90021AF2000F0A2F96A
:10258000FFF7BEFE00BD000000F00F4030B5002494
:102590001CE02146B031C8B2002100F093F90021BF
:1025A000084600F08FF90021102000F08BF900257B
:1025B00008E0E900074A8918085D012100F082F966
:1025C000681CC5B2802DF4DB601CC4B2082CE0DBB3
:1025D00030BD000058F1FF1FFFB584B00E46154610
:1025E0001C4602962046E3175B0F1B18DB102246A1
:1025F000E7177F0FBF18FF10FF00E71B01D001276F
:1026000000E00027DB192146E70F7F187F107B438E
:10261000DBB2019328462038C5B200274FE00C2CCE
:1026200004D0102C09D0182C14D10CE00C206843D5
:1026300025494018C05D03900DE02801234940184A
:10264000C05D039007E02420684321494018C05D25
:10265000039000E000BF00BF0020009029E080212F
:1026600003980840002805D031460D9A0498FFF7DA
:1026700079FE0AE00D98002801D1012000E0002039
:10268000024631460498FFF76DFE03984006000E9F
:102690000390701CC6B20298301AA04205D1029E67
:1026A0000498401CC0B2049006E00098401CC0B2E0
:1026B000009000980828D2DB00BF781CC7B20198B0
:1026C0008742ACDB08B0F0BDDC680100506D010052
:1026D00040730100FFB581B00646002407E025489D
:1026E000015D0398814200D103E0601CC4B2092C53
:1026F000F5DB00BF0394002438E000272BE0FF2126
:102700008131039848431C49411806206043C01991
:10271000085C009000251AE01848405D00990840C8
:10272000002805D03046049A0299FFF71BFE0AE004
:102730000498002801D1012000E000200246304624
:102740000299FFF70FFE701CC6B2681CC5B2082DB7
:10275000E2DB781CC7B2062FD1DB0298401CC0B266
:10276000029030463038C6B2601CC4B2402CC4DB84
:1027700005B0F0BDE0830000703801009C800100CE
:10278000FFB581B0064614461D460A9F0DE000972E
:1027900022782B4630460299FFF71EFF2846E90FA4
:1027A000091849108919CEB2641C20787E2802DCF1
:1027B00020782028EBDA05B0F0BDF8B505460F46C5
:1027C00014461E461FE02078002800D11CE0207827
:1027D0007E280DDC207820280ADB009622780C2346
:1027E00039462846FFF7F8FEA81DC5B2641C0AE06A
:1027F0000096637822783946284600F007F8284684
:102800000C30C5B2A41CDEE700BFF8BDFFB581B037
:10281000064600240DE02848015D0398814206D158
:102820002549601C095C0498814200D103E0A01C8A
:10283000C4B2782CEFDB00BF0394002437E00027FC
:102840002AE0FF218131039848431C494018610068
:10285000C919405C009000251AE01948405D0099B4
:102860000840002805D030460A9A0299FFF77AFD01
:102870000AE00A98002801D1012000E00020024669
:1028800030460299FFF76EFD701CC6B2681CC5B2D7
:10289000082DE2DB781CC7B2022FD2DB0298401C65
:1028A000C0B2029030461038C6B2601CC4B20C2CC4
:1028B000C5DB05B0F0BD0000F883000070840000A7
:1028C0009C80010010B5002902D0012910D107E039
:1028D000204A926801231B071A431E4B9A6007E0A7
:1028E0001C4A526801231B071A431A4B5A6000BF47
:1028F00000BF002224E0174B9B680124E406234319
:10290000144CA36080230340002B07D023465B6850
:102910000124A40623430F4C636006E00D4B9B6823
:102920000124A40623430B4CA3600A4B5B680124DB
:10293000E4062343074C63604306180E531CDAB2C7
:10294000082AD8DB034A526801231B071A43014BAC
:102950005A6010BD00F00F40F0B589B07448C068EF
:10296000012108437249C860724A7349734804F0F0
:1029700043FC734902228A5E5042FDF725FD06465C
:10298000704A714BFDF79CFE0446FDF775FF6F49D9
:1029900007900420085EFDF717FD04460D466B49BD
:1029A0000020085EFDF710FD064622462B4602F089
:1029B00041FF0022664B01910090FDF719FE654A28
:1029C000654B03910290FDF77BFE05910490FDF7A6
:1029D00053FF0690079902F031F80A215F480088FA
:1029E000FDF7A2FB564902228A5E50430646FDF7D8
:1029F000D9FC05465A480088FDF7DFFC0590594888
:102A000000680121C907484007460599FDF734FCD5
:102A1000064655480088FDF7D0FC31460690FDF784
:102A200084FC29460790FDF727FC0446FDF7CEFEFF
:102A30004E490860084600684D49096840184D49EC
:102A40000968401A4C4908604848006848490968C4
:102A500040184849096840184849086048480078C3
:102A6000012808D17D20C000FFF7E7FB7D20C000D2
:102A7000FFF7FDFB47E040480068002812DA3E48B7
:102A8000006840423C490860084600683D49884269
:102A900002DB0846384908603749098888B2FFF7E1
:102AA000CCFB0CE0344800683649884202DB08461B
:102AB000314908603049098888B2FFF7B1FB2F48D7
:102AC0000068002812DA2D48006840422B4908604F
:102AD000084600682B49884202DB084627490860FF
:102AE0002649098888B2FFF7C2FB0CE0234800683A
:102AF0002449884202DB0846204908601F490988AA
:102B000088B2FFF7A7FB20480088052807DB1E488E
:102B10000088401F1C490880FEF7F2F806E01B48B9
:102B200080680121490208431849886009B0F0BD56
:102B300000710340C8F0FF1FC4F0FF1FC0F0FF1F6B
:102B4000D8F0FF1F6666666666663040DEF0FF1FDF
:102B5000008066401F85EB51B81E0940ACF0FF1F96
:102B6000A6F0FF1FE8F0FF1FAAF0FF1F58F0FF1F9D
:102B70005CF0FF1F60F0FF1F64F0FF1F68F0FF1F95
:102B8000A4F0FF1F4E0C000000F0FF1F00F00F40EC
:102B90000348C169012001430148C1617047000039
:102BA0000071034070B504460D4616461F48406943
:102BB000022108431D4948611D48006802218843DD
:102BC0001B49086020461630C206D20E01219140F2
:102BD000184A116000BF18486843184922018850FC
:102BE0000846210140188068022108431349220148
:102BF000891888601148210140188168012001432B
:102C00000E482201801881602146163148B23146B3
:102C1000FFF73AFB20461630C206D20E0121914042
:102C2000044A803A116000BF70BD0000008004407B
:102C30000070034080E100E0409C00000071034010
:102C400010B5552005F024FBAA2005F021FBAE208D
:102C500005F01EFB10BD0000F8B500260020009016
:102C60000A25552005F014FBAA2005F011FBAD2024
:102C700005F00EFB284605F00BFB002419E0A00030
:102C80000F490858009068460678304605F000FB6A
:102C900068464678304605F0FBFA68468678304646
:102CA00005F0F6FA6846C678304605F0F1FA601C81
:102CB000C4B2AC42E3DB0D2005F0EAFAF8BD000037
:102CC00058F9FF1F10B51748408C030001F053FF5F
:102CD0000627040B12192027012313A21321002019
:102CE000FFF76BFD1CE0012315A213210020FFF765
:102CF00064FD15E0012318A213210020FFF75DFDFC
:102D00000EE001231AA213210020FFF756FD07E071
:102D100001231DA213210020FFF74FFD00E000BF9B
:102D200000BF10BDCCFBFF1F202020202020202032
:102D3000B0B820D2BB20202020202020202000005E
:102D40002020202020202020B0B820B6FE202020E7
:102D500020202020202000002020202020202020B3
:102D6000B0B820C8FD2020202020202020200000F6
:102D70002020202020202020B0B820CBC4202020DC
:102D80002020202020200000202020202020202083
:102D9000B0B820CEE52020202020202020200000D8
:102DA00012481349888001204870232008701120A0
:102DB000000510494862104840780007000F0E498E
:102DC000487094200D4908701A200B49087000BF04
:102DD00009480079102108400028F9D100BF0648B1
:102DE00000790C2108400028F9D1704703E8000061
:102DF000002005400080044000400640005006408E
:102E0000F3B581B00646B00049490C58002E04D0F5
:102E1000012E22D0022E62D140E04648C0688021B7
:102E200088434449C86008464069012109050843B0
:102E3000404948614048C078082108433E49C8706D
:102E40000846C078042108433B49C8700846C0784A
:102E5000202108433849C87000BF36480069012165
:102E6000090388433349086108464069012149053F
:102E70000843304948613148C078082108432F4948
:102E8000C8700846C078042108432C49C870084619
:102E9000C078202108432949C87021E025480069ED
:102EA00001214903884323490861084640690121FB
:102EB000890508431F4948612148C0780821084313
:102EC0001F49C8700846C078042108431C49C870CF
:102ED0000846C078202108431949C87000E000BFA7
:102EE00000BFE0780C218843E0700020A0701548F6
:102EF0000299FDF703F9471D0A213846FDF7FEF850
:102F000085B21148854200DD054620784009400120
:102F100020702078E904C90E0843207065700020F5
:102F2000A070A0716071E0780C210843E070FEBDD4
:102F3000D08101000080044000A0064000B006409F
:102F400000C0064040787D01FF1F000030B50246FA
:102F50000B4690000B4D2C58002108E0207980256D
:102F60002840002801D0E37104E0481CC1B20648A3
:102F70008142F3DB00BF0448814201DB012030BD08
:102F80000020FCE7D0810100BBFB0000F0B5CDB014
:102F90000125002601240027FFF7B2F9FF222D3278
:102FA000774902A8FDF737F9012302AA0021084654
:102FB000FFF703FC1E20604302A9421801230D21E4
:102FC0000020FFF7FAFB601C1E21484302A94218AB
:102FD00001231A210020FFF7F0FBA01C1E2148430B
:102FE00002A94218012327210020FFF7E6FBE01C7D
:102FF0001E21484302A94218012334210020FFF773
:10300000DCFB00BF2E462746FEF746F9012806D016
:10301000022807D003280BD004281CD105E0681E25
:10302000C5B218E0681CC5B215E000204DB0F0BD77
:10303000012D06D0022D06D0032D06D0042D08D177
:1030400005E01F20F2E72020F0E72120EEE7222014
:10305000ECE70020EAE700BF012D01DA092000E0DB
:1030600028460546092D01DD012000E028460546D9
:10307000A54201DA284600E020460446E81EA042A8
:1030800000DD00E02046C4B2AE421FD001200C2378
:103090002022194600901846FFF79EFA01200C23C3
:1030A0002022192100901846FFF796FA01200C23E0
:1030B0002022262100901846FFF78EFA01200C23CB
:1030C0002022322100901846FFF786FAA74226D028
:1030D0001E20604302A9421801230D210020FFF7A2
:1030E0006CFB601C1E21484302A9421801231A21CF
:1030F0000020FFF762FBA01C1E21484302A94218D2
:10310000012327210020FFF758FBE01C1E21484324
:1031100002A94218012334210020FFF74EFBA542EB
:1031200008D101200C234022194600901846FFF7D1
:1031300053FA22E0601C854208D101200C23402272
:10314000192100901846FFF747FA16E0A01C8542A7
:1031500008D101200C234022262100901846FFF7B9
:103160003BFA0AE0E01C854207D101200C234022F3
:10317000322100901846FFF72FFAFFF707FA41E7D0
:10318000A4800100F0B58BB0FFF7BAF800BF724819
:103190000068FDF712F971490190FDF739F90290C5
:1031A000FDF741FB04460D466D480068FDF705F943
:1031B0006C490190FDF72CF90290FDF734FB0646AF
:1031C00032460B4668A103A80195009401F090FCDB
:1031D00001200C2303AA282100900020FFF7D0FA39
:1031E0005D480068FDF7E9F801905D480068FDF76B
:1031F000E4F800900199FDF70BF90290FDF713FB3D
:1032000006465E4A5E4BFDF75BFA044622460B46D5
:103210005CA103A801F06CFC01200C2303AA35215A
:1032200000900020FFF7ACFA01200C2357A20021E8
:1032300000900620FFF7A4FA5548808C3030C2B2C7
:10324000012300212820FFF745FA5148808C0528EA
:1032500001DB052001E04E48808C4D498884FEF753
:103260001BF8030001F087FC06730434646B72736F
:103270004748808C401C81B245488184808C052859
:1032800001DB052001E04248808C414988840846E2
:10329000808C40490880002009E04100FF22520252
:1032A0008918098842003C4B9952411C88B2FF287A
:1032B000F3DD3848018836488184FF20FDF758FF48
:1032C0000023012252023449FF20FDF783FF3EE034
:1032D0002F48808C002801D1012001E02C48808CEF
:1032E0002B4988840846808C401E81B228488184FE
:1032F000808C28490880002009E04100FF2252020A
:10330000891809884200244B9952411C88B2FF2831
:10331000F3DD204801881E488184FF20FDF728FF47
:103320000023012252021C49FF20FDF753FF0EE04B
:103330001749888CFDF76AFEFEF7ACF807E000201D
:1033400005490860064908600BB0F0BD00BF00BF2A
:10335000FFF71CF91BE700009CF0FF1F0000C842AC
:10336000A0F0FF1F0000B445252E3366202020204A
:1033700020202020202020252E336600CDCCCCCC50
:10338000CCCC4C40252E3366000000003C000000F1
:10339000CCFBFF1F06F0FF1F4CFAFF1FF0B58FB0EC
:1033A000FEF7AEFF01232EA200210846FFF705FA23
:1033B00000BFFDF771FF042802D103200FB0F0BD5C
:1033C0002D480068FDF72FFA04460D462B4800688B
:1033D000FDF729FA06460F4629480068FDF723FA4B
:1033E00002460B46019700960395029405910490BE
:1033F00024A106A801F07CFB01200C2306AA1421BD
:1034000000900020FFF7BCF924490420085E0090DA
:1034100008460223C35E0022825E21A106A801F0B5
:1034200067FB01200C2306AA212100900020FFF752
:10343000A7F9FEF735FB0646FDF7F5F904462246E7
:103440000B461BA106A801F053FB01200C2306AA82
:103450002E2100900020FFF793F9FFF797F8A8E7D7
:10346000203C20202020CDD32020C2DD2020D2C728
:103470002020202020200000E8F0FF1FCCF0FF1FBC
:10348000C0F0FF1F25332E3166202025332E3166F4
:10349000202025332E31662020200000D8F0FF1F89
:1034A000253664202536642025366420200000005F
:1034B00025332E316620200038B501240025FEF783
:1034C0001FFF012389A203210020FFF776F98D4811
:1034D000408C012801DA052001E08A48408C8949A6
:1034E00048840846408C052801DD012001E085481C
:1034F000408C84494884FFF7E5FB012382A2232105
:103500000020FFF75AF9012385A233210020FFF79D
:1035100054F900BF2546FDF7BFFE030001F02BFB69
:103520000691040D16295D91601EC4B2012C01DACA
:10353000042000E02046044684E0601CC4B2042C51
:1035400001DD012000E0204604467BE0012C06D08E
:10355000022C06D0032C06D0042C08D105E0012053
:1035600038BD0220FCE70320FAE70420F8E700203A
:10357000F6E7022C30D16348408C401E81B261488E
:103580004184408C012801DA052001E05D48408C2F
:103590005C4948840846408C67490880002009E05F
:1035A0004100FF225202891809884200634B995258
:1035B000411C88B2FF28F3DD5F48018851484184EF
:1035C000FF20FDF7D5FD0023012252025B49FF20B9
:1035D000FDF700FEFFF776FB34E0022C30D14948BE
:1035E000408C401C81B247484184408C052801DD55
:1035F000012001E04348408C424948840846408C01
:103600004D490880002009E04100FF22520289183C
:1036100009884200494B9952411C88B2FF28F3DDCA
:103620004548018837484184FF20FDF7A1FD00236C
:10363000012252024149FF20FDF7CCFDFFF742FB7A
:1036400000E000BF00BFA5421FD001200C232022B4
:10365000032100901046FEF7BFFF01200C2320221B
:10366000132100901046FEF7B7FF01200C23202203
:10367000232100901046FEF7AFFF01200C232022EB
:10368000332100901046FEF7A7FF012C06D0022C34
:103690000DD0032C14D0042C24D11AE001200C23CB
:1036A0004022032100902020FEF796FF1AE001201F
:1036B0000C234022132100902020FEF78DFF11E003
:1036C00001200C234022232100902020FEF784FFBC
:1036D00008E001200C234022332100902020FEF737
:1036E0007BFF00BF00BFFEF751FF13E72020202023
:1036F00020202020B7A220B3B52020202020202089
:1037000020200000CCFBFF1F202020202020202094
:10371000CDE220C9E8202020202020202020000009
:103720002020202020202020C9E820D6C3202020CF
:10373000202020202020000006F0FF1F4CFAFF1F51
:10374000F0B5F74B9D4401240021F648684481619F
:10375000012541610161F448408C401E2821484305
:1037600086B2FEF7CDFDF148684400F05FFF01230B
:10377000EE4A6A4400210846FFF71FF81E206843FE
:10378000EA496944421801230D210020FFF715F88A
:10379000681C1E214843E5496944421801231A2147
:1037A0000020FFF70AF8A81C1E214843DF4969449E
:1037B0004218012327210020FEF7FFFFE81C1E21ED
:1037C0004843DA4969444218012334210020FEF7B6
:1037D000F4FF00BFD348684484614561FDF75CFD98
:1037E000030001F0C8F9060C040DFB161B0C601E4B
:1037F000C4B2012C01DA102000E02046044697E311
:10380000601CC4B2102C01DD012000E020460446FB
:103810008EE30020C34B1C339D44F0BD002010E01C
:1038200000210AE0C200C24BD218525CC300FFAFB5
:103830003C37DB195A544A1CD1B20829F2DB411C2F
:10384000C8B28028ECDB0121FFA88163002141631D
:10385000E4E2012038234722172100901E20FEF7C2
:10386000B5FDFFA8806B012802D002283AD11CE0E8
:103870000123B0A21A212120FEF79FFF0020192367
:103880004422194600902120FEF7A0FD00202623A7
:103890004422194600902120FEF798FD0023A7A29C
:1038A00029212120FEF789FF1CE00023A1A21A2173
:1038B0002120FEF782FF0123A0A229212120FEF76B
:1038C0007CFF002028234422194600902120FEF787
:1038D0007DFD002035234422194600902120FEF76B
:1038E00075FD00BF00BFFDF7D7FC030001F043F9F1
:1038F000060704080CFD0D070121FFA881638AE279
:103900000221FFA8816386E200BF00200A9013E035
:1039100000200BE00A99C900854A89180A5C0A99B7
:10392000C9000CABCB181A54411CC8B20828F1DBF3
:103930000A98401CC1B20A910A988028E8DB012746
:1039400000210B9144E2FFA8806B012847D12F236F
:103950006E220E2100904520FEF738FD012F02D087
:10396000022F3AD11CE0012376A211214820FEF754
:1039700024FF002010236B22194600904820FEF7F8
:1039800025FD00201D236B22194600904820FEF7DC
:103990001DFD00236DA220214820FEF70EFF1CE034
:1039A000002368A211214820FEF707FF012367A228
:1039B00020214820FEF701FF00201F236B2219461B
:1039C00000904820FEF702FD00202C236B221946B0
:1039D00000904820FEF7FAFC00BF3AE139E2FFA868
:1039E000806B0228F9D101203F237A220146009002
:1039F0004520FEF7EBFC4C48408C030001F0BBF87F
:103A0000066804182C40546852A102A801F070F80E
:103A100053A104A8013001F06BF854A106A80230AC
:103A200001F066F854A108A8033001F061F84FE0F6
:103A300054A102A801F05CF849A104A8013001F0EA
:103A400057F84AA106A8023001F052F84AA108A886
:103A5000033001F04DF83BE04AA102A801F048F81C
:103A60003CA104A8013001F043F840A106A80230AF
:103A700001F03EF840A108A8033001F039F827E032
:103A800040A102A801F034F832A104A8013001F0ED
:103A90002FF833A106A8023001F02AF836A108A8B1
:103AA000033001F025F813E036A102A801F020F858
:103AB00028A104A8013001F01BF829A106A80230B2
:103AC00001F016F829A108A8033001F011F800BF91
:103AD00000BF002302AA04214820FEF76EFE002347
:103AE00004AA01321321482000E090E1FEF765FEB0
:103AF000002306AA023222214820FEF75EFE0023A0
:103B000008AA033231214820FEF757FE012F3FD08B
:103B1000022F54D0032F6AD0042F4FD17FE0000032
:103B200064F5FFFF800A0000CCFBFF1F380800008F
:103B300058F1FF1F20C7E5BFD520000020B8B4D63C
:103B4000C620000020B5B1C7B020000020CBF9D3BB
:103B5000D020000020B7BDB0B8B6FE2000000000A5
:103B600020B7BDB0B8C8FD200000000020B7BDB030
:103B7000B8CBC4200000000020B7BDB0B8CEE5200F
:103B80000000000020B7BDB0B8D2BB20000000008C
:103B9000012302AA04214820FEF70FFE0020032380
:103BA0007722194600904820FEF710FC00201023D1
:103BB0007722194600904820FEF708FC47E00123D1
:103BC00004AA013213214820FEF7F7FD002012233A
:103BD0007722194600904820FEF7F8FB00201F23AB
:103BE0007722194600904820FEF7F0FB2FE00123D2
:103BF00006AA023222214820FEF7DFFD0020212301
:103C00007722194600904820FEF7E0FB00202E2383
:103C10007722194600904820FEF7D8FB17E00123D1
:103C200008AA033231214820FEF7C7FD00203023C7
:103C30007722194600904820FEF7C8FB00203D235C
:103C40007722194600904820FEF7C0FB00BF00BF56
:103C500000BFFDF721FB030000F08DFF06B7041342
:103C60002522B6B7FFA8806B012801D1012707E004
:103C7000781EC7B2012F01DA012000E0384607465E
:103C8000A3E0FFA8806B012801D1022707E0781C80
:103C9000C7B2042F01DD042000E03846074694E057
:103CA00001200B9091E0F348408CB84201DD0A9767
:103CB00002E0781CC1B20A91FFA8806B0A21484338
:103CC000C019162850D006DC0B2809D00C2826D0A5
:103CD000152876D147E0172847D0182871D145E03C
:103CE000002009E04100FF225202891809884200A1
:103CF000E14B9952411C88B2FF28F3DD0021601E80
:103D000080194000DC4A1152FF20FDF731FA0023F0
:103D100001225202D849FF20FDF75CFA51E0002051
:103D200009E04100FF225202891809884200D24B63
:103D30009952411C88B2FF28F3DD002006E00021E3
:103D400032185200CC4B9952411CC8B22828F6DBDD
:103D5000FF20FDF70DFA002301225202C649FF2081
:103D6000FDF738FA2DE000BF00BF00BF002009E0DA
:103D70004100FF225202891809884200BE4B995225
:103D8000411C88B2FF28F3DD00200DE00A99491E8E
:103D90002822514309184900B74A515A3218520093
:103DA000B54B9952411CC8B22828EFDBFF20FDF724
:103DB000DFF9002301225202AF49FF20FDF70AFA82
:103DC00000BF00BF022025E500BF00BFFEF7DEFBFD
:103DD0000B98012800D0B6E500200A9013E00020DF
:103DE0000BE00A99C9000CAA89180A5C0A99C90053
:103DF000A24BCB181A54411CC8B20828F1DB0A9810
:103E0000401CC1B20A910A988028E8DB03E0012037
:103E1000FFA9486300BF00BFFEF7B8FBFFA8406BD7
:103E2000012800D015E5002010E000210AE0C200C2
:103E3000FFAB3C33D218525CC300904FDB195A548D
:103E40004A1CD1B20829F2DB411CC8B28028ECDB45
:103E50006EE0230000F08FFE0B6A07101A242E3844
:103E6000424C56616A00700083494218012329467A
:103E70002046FCF7E7FF59E0701C40007E494218DD
:103E8000012329462046FCF7DDFF4FE0B01C40002F
:103E900079494218012329462046FCF7D3FF45E023
:103EA000F01C400074494218012329462046FCF7C3
:103EB000C9FF3BE0301D40006F49421801232946ED
:103EC0002046FCF7BFFF31E0701D40006A494218F0
:103ED000012329462046FCF7B5FF27E0B01D40002E
:103EE00065494218012329462046FCF7ABFF1DE037
:103EF000F01D400060494218012329462046FCF786
:103F0000A1FF13E03046083040005B49421801230E
:103F100029462046FCF796FF08E0700056494218F3
:103F2000012329462046FCF78DFF00BF00BF00BFDC
:103F300000BFAC4201DA204600E028460546E01EFC
:103F4000A84200DD00E02846C5B24D4868448069BB
:103F5000A04204D14A4868440069012827D10120C1
:103F60000C232022194600900620FEF735FB012085
:103F70000C232022192100900620FEF72DFB0120A2
:103F80000C232022262100900620FEF725FB01208D
:103F90000C232022322100900620FEF71DFB394819
:103FA000684400F043FB0020354969440861344807
:103FB00068444069A8422AD01E20684331496944B8
:103FC000421801230D210020FEF7F7FB681C1E217B
:103FD00048432C496944421801231A210020FEF766
:103FE000ECFBA81C1E2148432649694442180123C2
:103FF00027210020FEF7E1FBE81C1E214843214950
:1040000069444218012334210020FEF7D6FBAC425C
:1040100008D101200C234022194600900620FEF70B
:10402000DBFA22E0681C844208D101200C234022E4
:10403000192100900620FEF7CFFA16E0A81C844252
:1040400008D101200C234022262100900620FEF7F3
:10405000C3FA0AE0E81C844207D101200C23402265
:10406000322100900620FEF7B7FAFEF78FFAFFF72D
:10407000B1FB0000CCFBFF1F4CFAFF1F58F1FF1FE4
:10408000800A00003808000000B585B01421684699
:10409000FCF7DAF8FEF734F9012315A200210846EF
:1040A000FEF78BFB00BFFDF7F7F8042802D10320D1
:1040B00005B000BD14480022825E14A1684600F0DD
:1040C00017FD01236A461A210020FEF776FB1348EC
:1040D0000022825E12A1684600F00AFD01236A46B2
:1040E00027210020FEF769FBFEF750FADBE700000E
:1040F000203C20202020B1E020C2EB20C6F720D6B3
:10410000B52020202020200078F0FF1F4C5FB1E078
:10411000C2EBC6F73A253564200000007AF0FF1F95
:10412000525FB1E0C2EBC6F73A25356420000000CB
:1041300000B589B0FEF7E4F801231CA2002108466F
:10414000FEF73BFB00BFFDF7A7F8042802D10320D0
:1041500009B000BD1B4803881B4802881BA101A8A9
:1041600000F0C6FC01200C2301AA19460090002093
:10417000FEF706FB1448008812490988421A18A164
:1041800001A800F0B5FC01200C2301AA1921009020
:104190000020FEF7F5FA01200C2301AA2D21009042
:1041A0000020FEF7EDFAFEF7F1F9CCE7203C2020E5
:1041B0002020B5E72020B8D02020D6B52020202010
:1041C000202000006EF0FF1F6CF0FF1F41445F4C89
:1041D0003A253464202041445F523A25346400007B
:1041E0004C2D523A2534642020202020200000004D
:1041F000F0B5CDB0012500260124002700204C9009
:10420000FEF77EF801A800F031F9012301AA002190
:104210000846FEF7D2FA1E20604301A94218012386
:104220000D210020FEF7C9FA601C1E21484301A998
:10423000421801231A210020FEF7BFFAA01C1E21FC
:10424000484301A94218012327210020FEF7B5FAAF
:10425000E01C1E21484301A94218012334210020FB
:10426000FEF7ABFA00BF2E462746FDF715F80128EA
:1042700006D002280DD0032817D0042862D111E0FF
:10428000681EC5B2012D01DA092000E02846054666
:1042900058E0681CC5B2092D01DD012000E0284668
:1042A00005464FE000204DB0F0BD2B0000F063FC50
:1042B0000A46060D151C232A31383F4601236A4A57
:1042C00021462846FCF7BEFD3AE00123664A921CCF
:1042D00021462846FCF7B6FD32E0634A921E21468D
:1042E0002846FCF72DFD2BE05F4A123A214628466E
:1042F000FCF726FD24E05C4A183A21462846FCF7E4
:104300001FFD1DE0584A163A21462846FCF718FDC5
:1043100016E0554A143A21462846FCF711FD0FE0F5
:10432000514A121D21462846FCF70AFD08E04E4A74
:10433000083A21462846FCF703FD01E00020B2E7D9
:1043400000BF00BF00BFA54201DA284600E02046BA
:104350000446E81EA04200DD00E02046C4B2AE42A2
:1043600002D14C98012824D101200C232022194687
:1043700000900620FEF730F901200C23202219219D
:1043800000900620FEF728F901200C232022262188
:1043900000900620FEF720F901200C232022322174
:1043A00000900620FEF718F901A800F05FF8002041
:1043B0004C90A74226D01E20604301A94218012339
:1043C0000D210020FEF7F9F9601C1E21484301A9C8
:1043D000421801231A210020FEF7EFF9A01C1E212C
:1043E000484301A94218012327210020FEF7E5F9DF
:1043F000E01C1E21484301A942180123342100205A
:10440000FEF7DBF9A54208D101200C234022194612
:1044100000900620FEF7E0F822E0601C854208D1FB
:1044200001200C234022192100900620FEF7D4F829
:1044300016E0A01C854208D101200C234022262131
:1044400000900620FEF7C8F80AE0E01C854207D17C
:1044500001200C234022322100900620FEF7BCF8F8
:10446000FEF794F8FFE60000F4FBFF1F38B50446A2
:104470000020009030A1204600F03AFB3448028D25
:1044800034A120461E3000F033FB3148428D37A165
:1044900020463C3000F02CFB2D48C18C6846FCF7D0
:1044A000D9FF6A4637A120465A3000F021FB284840
:1044B000C18A6846FCF7CEFF6A4638A120467830AC
:1044C00000F016FB2248018A6846FCF7C3FF6A46E3
:1044D00038A12046963000F00BFB1D48418A684603
:1044E000FCF7B8FF6A4639A12046B43000F000FB63
:1044F0001748818A6846FCF7ADFF6A4639A1204615
:10450000D23000F0F5FA1248818D6846FCF7A2FF20
:104510006A463AA12046F03000F0EAFA0C48018CD5
:104520006846FCF797FF6A463AA12046FF300F30F5
:1045300000F0DEFA38BD000020203C2020202020A2
:10454000C9E82020D6C32020202020202000000001
:10455000CCFBFF1F202020312E2020CAB1BCE4CD8F
:10456000A3B3B52020253464202000002020203271
:104570002E2020BEE0C0EBCDA3B3B52020253464AF
:1045800020200000202020332E2020B1A32020BB9B
:10459000A4202020202025730000000020202034AB
:1045A0002E2020B5F72020CAD420202020202573DB
:1045B00000000000202020352E20204C20452044E3
:1045C00020202020202025730000000020202036FD
:1045D0002E2020B7E420C3F920C6F7202020257321
:1045E00000000000202020372E2020C0B62020D13F
:1045F000C02020202020257300000000202020382B
:104600002E20204875616E5F4C522020202025739B
:1046100000000000202020392E202058205820356E
:1046200020202020202025730000000010B5044623
:104630008248408C030000F09EFA061D04090E1308
:10464000181D7FA1204600F053FA14E082A12046F5
:1046500000F04EFA0FE086A1204600F049FA0AE089
:1046600089A1204600F044FA05E08DA1204600F023
:104670003FFA00E000BF00BF7048408C401E282178
:10468000484340008C490A5A8CA120461E3000F055
:104690002FFA6A48408C401E28214843401C4000A5
:1046A00085490A5A8BA120463C3000F021FA634824
:1046B000408C401E28214843801C40007E490A5AF5
:1046C0008AA120465A3000F013FA5C48408C401E04
:1046D00028214843C01C400077490A5A89A1204636
:1046E000783000F005FA5548408C401E2821484398
:1046F000001D400070490A5A88A12046963000F0FB
:10470000F7F94E48408C401E28214843401D400088
:1047100069490A5A87A12046B43000F0E9F94748B0
:10472000408C401E28214843801D400062490A5A9F
:1047300086A12046D23000F0DBF94048408C401E74
:1047400028214843C01D40005B490A5A85A12046E4
:10475000F03000F0CDF93948408C401E2821484304
:104760000830400054490A5A84A12046FF300F30D7
:1047700000F0BEF93148408C401E282148434000DB
:104780004D490A5A83A12046FF302D3000F0B0F980
:104790002A48408C401E28214843400046490A5A76
:1047A00082A12046FF304B3000F0A2F92348408C14
:1047B000401E2821484340003F490A5A81A1204613
:1047C000FF30693000F094F91C48408C401E2821CD
:1047D0004843400038490A5A80A12046FF308730BC
:1047E00000F086F91548408C401E282148434000BF
:1047F00031490A5A7FA12046FF30A53000F078F9F0
:104800000E48408C401E2821484340002A490A5A3D
:104810007EA12046FF30C33000F06AF90748408C83
:10482000401E28214843400023490A5A7DA12046C2
:10483000FF30E13000F05CF910BD0000CCFBFF1F41
:1048400020203C20202020B7BD2020B0B82020D23E
:10485000BB2020202020000020203C20202020B74A
:10486000BD2020B0B82020B6FE202020202000004F
:1048700020203C20202020B7BD2020B0B82020C818
:10488000FD2020202020000020203C20202020B7D8
:10489000BD2020B0B82020CBC42020202020000044
:1048A00020203C20202020B7BD2020B0B82020CEE2
:1048B000E5202020202000004CFAFF1F202020317E
:1048C0002E2020C4BFB1EABDC7B6C820202534645D
:1048D00020200000202020322E2020C4BFB1EACBAF
:1048E000D9B6C820202534642020000020202033A1
:1048F0002E2020BDC720B6C820502020202534649B
:1049000020200000202020342E2020BDC720B6C843
:104910002044202020253464202000002020203541
:104920002E2020CBD920B6C820502020202534644A
:1049300020200000202020362E2020CBD920B6C8F1
:10494000204920202025346420200000202020370A
:104950002E2020D7AA20CFF22050202020253464FA
:1049600020200000202020382E2020D7AA20CFF29F
:1049700020442020202534642020000020202039DD
:104980002E20204875616E41646420202025346407
:104990002020000020202031302E20746420202090
:1049A00020202020202534642020000020202031D9
:1049B000312E2058585858585858202020253464F3
:1049C0002020000020202031322E205858585858DE
:1049D0005858202020253464202000002020203139
:1049E000332E2058585858585858202020253464C1
:1049F0002020000020202031342E205858585858AC
:104A00005858202020253464202000002020203108
:104A1000352E20585858585858582020202534648E
:104A20002020000020202031362E20585858585879
:104A3000585820202025346420200000F0B58FB085
:104A400007460C462046FBF7EEFE05461C4A1D4B6A
:104A5000FBF7CEFD039102901B480068FBF7E3FED5
:104A600001910090039B029AFBF710FD07910690BD
:104A7000164801687F20C005FBF74FFC0546FBF791
:104A8000D2FE05910490079B069AFBF7B1FD0B91AE
:104A90000A900E4801683846FBF747FC0546FBF7CD
:104AA000C2FE099108900B9B0A9AFBF7EFFC0D914F
:104AB0000C90FBF7E1FE044908600FB0F0BD000068
:104AC0007B14AE47E17A743FE8F0FF1FE4F0FF1F6C
:104AD0000FB410B503A9044B044A029800F0A2F9E0
:104AE00010BC08BC04B018473566000054F1FF1F25
:104AF0000FB410B504A9074B02AA039800F092F96D
:104B0000044602A9002000F029FD204610BC08BC84
:104B100004B018475D5500002021020C01D010217F
:104B20001046020A01D010460839020901D0104689
:104B3000091F820801D01046891E420801D0881E34
:104B40007047081A7047F8B582B28BB204140D147E
:104B500010465843002126465E4337143604801918
:104B6000794116466E43371436048019794126463A
:104B70006E438919F8BD30B47446641E2578641CF0
:104B8000AB4204D3635D5B00E31830BC18471D469D
:104B9000F8E700004900CA020243100000D00420D8
:104BA0004A0D01D001221043044A490D914201D11E
:104BB00002210843012800D105207047FF070000AB
:104BC000F8B504464F1EC8000838211815461E4681
:104BD000086849683A4606239A4310D02A46334665
:104BE000FBF706FD3A46D200083AA3181A687F1E62
:104BF0005B68FBF74BFC06223B469343EED1022F4A
:104C000023D0042F11D0062F2FD12A463346FBF78D
:104C1000EFFCE36AA26AFBF739FC2A463346FBF74E
:104C2000E7FC636A226AFBF731FC2A463346FBF74E
:104C3000DFFCE369A269FBF729FC2A463346FBF750
:104C4000D7FC63692269FBF721FC2A463346FBF750
:104C5000CFFCE368A268FBF719FC2A463346FBF752
:104C6000C7FC63682268FBF711FCF8BD10B5012290
:104C7000FBF769FF10BD10B5FBF708FC10BD000085
:104C8000034A10B500201107FBF75DFF10BD0000BF
:104C900001FDFFFF02E008C8121F08C1002AFAD177
:104CA0007047002001E001C1121F002AFBD17047AC
:104CB000F0B51FB486B00998089A030D002102438D
:104CC00014D05148514A181850430514119801281E
:104CD00010981AD0281A401C00264D4F4D490096B6
:104CE00001910490002812DA444211E01198012445
:104CF00049A3012801D11098C1430698119A8460F4
:104D00000360C26041600BB0F0BD4042E4E704467E
:104D1000210500203F4A001C51410391029012E0FE
:104D2000E00707D032463B4601990098FBF760FC4C
:104D30000191009032463B4610461946FBF758FC5D
:104D400006460F466410002CEAD10498039B002805
:104D5000029A0999089806DAFBF74AFC019B009A27
:104D6000FBF746FC05E0FBF7ABFC019B009AFBF769
:104D7000A7FC04460E460022284BFBF769FD03D82A
:104D80000020C043014607E00022254B2046314663
:104D9000FBF77CFBFBF794FE102409E0002C0ADBF8
:104DA0000A220023FBF798FD079B30321A55641E38
:104DB00002460A43F2D11122641C079B121B1C19E4
:104DC000119B012B03D0012308430ED10AE00843B5
:104DD00004D0112010900020119077E71098151A38
:104DE0006D1E0BE01098824202DD00236D1C03E073
:104DF000824201DA00236D1E002BEED00698119935
:104E00008260C16030C07EE701FCFFFF104D0000F2
:104E1000000014400000F03F300000000000F043AC
:104E20000000E03FFFB597B00646002518E22528B0
:104E300077D100242746FD49049400E00443761C02
:104E400032780120203A90400842F7D130782A2861
:104E50000ED00222307801463039092916D804993B
:104E60000A235943303940181443761C0490F1E763
:104E7000189802C804911890002904DA0120400310
:104E800004434842049002200443761C30782E28C4
:104E900014D1042004437078761C2A2809D118986C
:104EA000761C80C8189009E00A214F43303FC7198B
:104EB000761C3078014630390929F5D930786C28CC
:104EC00010D006DC4C281AD068280ED06A2817D1DA
:104ED00004E0742813D07A2812D110E00120400594
:104EE00004430CE00121090501E0032109050C43FD
:104EF0007178814203D1012000052418761C761CAC
:104F00003078119066280BD013DC58287DD009DC4E
:104F100000287BD04528F6D04628F4D047281AD15F
:104F2000A5E118E0632835D0642870D0652812D137
:104F30009DE170286CD008DC6728F1D069287BD00F
:104F40006E280DD06F2806D1BAE073282ED07528B0
:104F500071D0782859D01A9A199990476D1C7EE122
:104F60006002400F022809D003280DD004281898A9
:104F700001680DD00D60001D189070E11898EA17B7
:104F800001680D604A60F6E7189801680D80F2E745
:104F90000D70F0E718986A4601781172001D18909C
:104FA0000020507202A80090012005E0189802C865
:104FB000189000200091C04361070DD5002101E049
:104FC0000199491C0191B94212DA8142F8DB009A39
:104FD000515C0029F4D10BE0002101E00199491C4A
:104FE00001918142FADB019A0099895C0029F5D18F
:104FF000019904981A9B471A21463846199A00F0DD
:1050000097FA0199401945180BE04FE02CE113E0A5
:105010004EE0009800990078491C00911A9A19995D
:1050200090470198401E0190401CF2D1214638461D
:105030001A9B199A10E137E00A2000210090019193
:105040006002410F022907D0189A01CA1892C217AC
:105050009446032908D00AE01898C01DC108C90069
:1050600005C91891944607E000B2C2179446042976
:1050700002D140B2C1178C4600226146944506DA3F
:105080000A460021404291418C462D2102E0210533
:1050900004D52B216A461173012103E0E10701D0F9
:1050A0002021F7E7029155E00A200AE0102008E0ED
:1050B000102000900021042004430191082703E000
:1050C00008200021019100906002410F022907D0C1
:1050D000189A01CA189200229446032908D008E0C1
:1050E0001898C01DC108C90005C91891944603E06D
:1050F00080B2042900D1C0B200210291210729D534
:105100001199702906D0009A1021019B4A401A4338
:1051100005D00EE040216A461173012108E0614686
:10512000014306D030216A4611731199517302214F
:105130000291009A0821019B4A401A430AD1614614
:10514000014301D1610705D530216A461173012160
:105150007F1E02911199582904D035A10E910DA9F5
:105160000D910DE037A1F9E76146019B009AFBF72D
:10517000B3FB0E9B8C469B5C0D9A521E0D921370D6
:1051800061460143F0D10D9805A9081A203001901D
:10519000600703D501200004844300E00127019843
:1051A000874201DD381A00E0002001990090411883
:1051B000029809180498401A0490E00306D4214686
:1051C0001A9B199A049800F0B3F94519002706E0D4
:1051D00003A81A9AC05D199990476D1C7F1C02980C
:1051E0008742F5DBE0030CD521461A9B199A0498F7
:1051F00000F09EF9451904E01A9A30201999904759
:105200006D1C0099481E00900029F5DC08E00D98FF
:105210000D990078491C0D911A9A199990476D1CA7
:105220000199481E01900029F1DC63E10928010081
:10523000303132333435363738396162636465660C
:1052400000000000303132333435363738394142CE
:10525000434445460000000000F05AF94519761C09
:105260003078002800D0E2E528461BB0F0BD60078A
:1052700000D406271898C01DC108C90048680A68EC
:105280000831C30FDB071891190001D09CA108E079
:10529000210501D59BA104E0E10701D09AA100E01E
:1052A0009AA1430011985B08109165280CD006DC88
:1052B000452809D046281DD0472841D141E066281D
:1052C00018D067283CD13CE00021112F01DB1120D0
:1052D00000E0781C0191009008A911A8FFF7E8FCF4
:1052E000139905910021119A15927F1C129801972C
:1052F000009150E00120C00703900120019008A90F
:10530000009711A8FFF7D4FC139A14990592002274
:10531000119B009212981593059A0192002901D0D1
:10532000104602E0791C40180190381A01D5019806
:1053300004E04042401E0090781C0190C01B029087
:1053400043E0012F00DA01270021112F01DD112098
:1053500000E038460191009008A911A8FFF7A8FCC9
:1053600013990591119A00211298159200910197B5
:1053700021070CD40599B94201DB019900E00191A4
:10538000012904DD159A491E515C302906D0B84226
:1053900001DA011D05DA0121029115E00199491E8A
:1053A000EDE7002805DC0099411800910199091AE0
:1053B00003E0019A411C914200DD01910099401ADD
:1053C000401C02900120C0070390200706D40299D8
:1053D0000198814202DB0020C04302900020694610
:1053E000C87707AF012103980337C907884224D043
:1053F000022011902B201290039800280CDA4042D2
:1054000003902D20129007E00A210398FAF776FE08
:1054100030317F1E039039701199481E1190002978
:10542000F2DC03980028EFD1791E129808703078CA
:10543000202108404530BF1E387006A8C01BC01D83
:10544000039010980078002800D00120019941189D
:105450000298C0170918039809180498401A401EAA
:105460000490E00306D421461A9B199A049800F090
:105470005FF8451910980078002803D01A9A1999F6
:1054800090476D1CE00324D521461A9B199A049875
:1054900000F04EF845191CE00098002807DB009941
:1054A0000598884203DD1598405C199901E0199927
:1054B00030201A9A904700986D1C401C009002986A
:1054C000401E0290002804D11A9A2E201999904764
:1054D0006D1C0199481E01900029DDDC05E038783B
:1054E0001A9A7F1C199990476D1C0399481E0390C6
:1054F0000029F4DC21461A9B199A0498ACE60000B6
:105500002D0000002B000000200000000000000023
:10551000F8B5044600251E461746880404D405E065
:1055200039462020B0476D1C641EF9D52846F8BDC9
:10553000FFB50446002581B01E46C80301D53027BB
:1055400000E02027880404D505E038460399B047D9
:105550006D1C641EF9D5284605B0F0BD0A68531CC1
:105560000B60107070470000F0B587B006460F461C
:10557000002504A801F01EFA002445E0A0003058E0
:10558000A1007958401A0190002801DB019901E03F
:10559000019949420846FAF705FF8F21C905009095
:1055A000FAF736FF0390A10004AA50580021FBF738
:1055B0007FF919D0A00004AA11580398FAF728FF20
:1055C0007F21C9050190FAF7A8FE029002984000D9
:1055D000400801900F48416A0198FBF773F912D215
:1055E0000120A04005430EE00A48C1690398FBF77B
:1055F0005FF905D30748016A0398FBF763F902D204
:105600000120A0400543641C032CB7DB284607B0EB
:10561000F0BD00001C820100F0B589B004460D46C3
:105620004800069172494008884215DB714988425A
:1056300003DC884207D1002C05D020462946FFF71D
:1056400015FB09B0F0BD6C48002D02DD6B4909B0B7
:10565000F0BD6B4909B0F0BD6A49884211DA6A4968
:1056600088420BDA20462946FFF794FA042801D134
:10567000FFF706FB2046294609B0F0BD0026F64399
:105680005DE06D0061496D08884232DA6049884208
:1056900019DA0026012332469B0720462946FAF7ED
:1056A000F5FE07460191012220462946FBF74BFAF9
:1056B0000022584BFAF78EFF3A46019BFBF700F8A1
:1056C00004460D463BE001260022524B2046294667
:1056D000FAF7DCFE0746009100224E4B2046294691
:1056E000FAF778FF3A46009BFAF7EAFF04460D46C0
:1056F00025E04949884219DA02260022474B204614
:105700002946FAF775FF0022424BFAF7BFFE07461B
:1057100002910022414B20462946FAF75BFF3A46A8
:10572000029BFAF7CDFF04460D4608E00326224609
:105730002B4600203A49FAF7C3FF04460D4622469D
:105740002B4610461946FAF753FF07460B4602460A
:105750000191FAF74DFF0246029032480B46039141
:1057600006217844FFF72CFA3A46019BFAF740FFEE
:1057700000902D48019105217844039B029AFFF780
:105780001FFA039B029AFAF733FF02460B46019970
:105790000098002E0BDAFAF779FE22462B46FAF72C
:1057A00027FF22462B46FAF71BFF09B0F0BDFAF798
:1057B0006DFE22462B46FAF71BFF1C4AF6007A4480
:1057C00093191A685B68FAF705FF22462B46FAF729
:1057D00001FF174A7A4493191A685B68FAF700FFC9
:1057E000069A002AE1DA0122D207514009B0F0BD41
:1057F000000010440000F07F182D4454FB21F93FB5
:10580000FB21F9BF0000DC3F0000203E0000F33F19
:105810000000E63F0000F03F008003400000F83F3A
:105820000000F0BF42370100043701009E3601003E
:1058300068360100F0B51FB4039B54425D00164664
:1058400026439C46F40F6D084B004E4E5B082C43DC
:105850008E46B44205D847420743FC0F1C43B4426E
:1058600004D96346FFF707FA05B0F0BD464E66441B
:10587000164309D0CC0F6646B61702273E40264392
:1058800004461C4304D00BE0FFF7C6FE05B0F0BD94
:10589000002EFBD0012EF9D0022E32D0032E34D0B0
:1058A00014462C430BD0374CA54216D1A3420AD143
:1058B000012189078D438B43194603950DE07046FE
:1058C00000280FDB25E0314F7F44002E0ED0012E43
:1058D00010D0022E15D0032E17D0A3421DD1704632
:1058E000002816DA2A482B4905B0F0BD79683868D7
:1058F00005B0F0BD01227968D2073868514005B083
:10590000F0BD2348244905B0F0BD2148234905B026
:10591000F0BD1F48224905B0F0BD5B1B1B153C2B99
:1059200002DD1B481E490FE06446002C05DA3C24CA
:10593000E34202DA0020014606E0039BFAF7C0FECC
:1059400049004908FFF768FE002EE4D0012E0BD075
:10595000144A154B022E0CD0FAF73CFE0C4A0E4BA3
:10596000FAF738FE05B0F0BD0122D207514005B06C
:10597000F0BDFAF72FFE064A074BFAF731FE05B0E5
:10598000F0BD00000000F07F000010C00C360100E8
:10599000182D4454FB21F9BFFB210940FB2109C00C
:1059A000FB21F93F075C143326A6A13CF8B5044659
:1059B000E078C02108400090E0788506AD0E607860
:1059C000C007C00F002813D0EE102846E917490F72
:1059D0000918C910C900691A491CCFB20C480068DF
:1059E000002804D00A48394602683046904700BF74
:1059F000607808210840002808D005484068002841
:105A000004D0009A9011024A516888470020F8BDDE
:105A10004CFCFF1F38B50446002C09D020216846F5
:105A2000017028214170302181703821C17004E05B
:105A3000A32204216846FAF700FC6A4604210348C1
:105A400002F0E8FB01F0A2FF38BD00009E0A000052
:105A50003EB50446022168460170CA214170E32127
:105A600081700921C1706A460421682002F0D2FBCE
:105A7000A3216846017040202040002807D0C021A3
:105A800068464170C8218170C221C17004E0A32121
:105A9000684641708170C170FF208130204000282D
:105AA00007D0C42168460171CC214171C6218171A2
:105AB00004E0A3216846017141718171A321684608
:105AC000C171017241726A460A21644802F0A2FB68
:105AD000A007800F002803D020206946087002E04C
