:020000040000FA
:10000000380B0020D7000000E3000000E5000000EE
:1000100000000000000000000000000000000000E0
:10002000000000000000000000000000E7000000E9
:100030000000000000000000E9000000EB000000EC
:10004000ED000000ED000000ED000000ED000000FC
:10005000ED000000ED000000ED000000ED000000EC
:10006000ED000000ED000000ED000000ED000000DC
:10007000ED000000ED000000ED000000ED000000CC
:10008000ED000000ED000000ED000000ED000000BC
:10009000ED000000ED0000009D230000452400005D
:1000A000ED000000ED000000ED000000ED0000009C
:1000B000ED000000ED000000ED000000ED0000008C
:1000C0000348854600F024FD0048004771670000A2
:1000D000380B00207047064880470648804706488E
:1000E0000047FEE7FEE7FEE7FEE7FEE7FEE700006B
:1000F000D1250000D5000000C100000030B50B463E
:10010000014600202022012409E00D46D5409D42F1
:1001100005D31D469540491B254695404019154677
:10012000521E002DF1DC30BD70B50024254600289C
:1001300001DA01244042002901DA01254942FFF792
:10014000DDFFAC4200D04042002C00D0494270BDDF
:10015000F8B500242546002904DA0E4601240021C2
:100160004042B141002B04DA1E46002352420125D1
:10017000B34100F08FFB8C4617461E46AC4203D0BD
:10018000002540428D41AC46002C02D0002657424B
:100190009E4161463A46334601B0F0BDF0B51FB40A
:1001A00086B000200090019002900698069980B2D7
:1001B00004900798090C02040014114307900027CB
:1001C000089D099806913E463C4603900398A9B2C3
:1001D0000204000C039004982D0C154348430021A1
:1001E000224600F087FBC719714110340E46402C9F
:1001F000ECDB3846029A00F07DFB009A019B8018E8
:100200000090594102980191103002904028CCDBB7
:1002100000980BB0F0BD03460B439B0703D009E0E9
:1002200008C9121F08C0042AFAD203E00B78037031
:10023000401C491C521EF9D27047D2B201E0027034
:10024000401C491EFBD270470022F6E710B513464A
:100250000A4604461946FFF7F0FF204610BD30B5A8
:1002600004460020034600E05B1C934203D2E05C9E
:10027000CD5C401BF8D030BDF8B502464A40D40FE3
:1002800042004B0052085B089A4202D202460846DE
:1002900011464A0023D0C30D4A00DDB2120EAD1A3A
:1002A000202D35DA49020126490AF6058A19002C63
:1002B00000D0524220214F1B1146B9402A4110184C
:1002C000C20D9A4221D0002C17D0012D08DCDA058E
:1002D000801AD20F8019D207DBB200F036FBF8BDCE
:1002E000DA05801A012340001B06C01880185A4204
:1002F0008018CA0F1043490007E04908C20711439C
:10030000DA05801A80194008801800F016FBF8BD45
:1003100061000122511A001BF7E70122D207514068
:10032000AAE70122D2075040A6E7024670B54A402C
:10033000D30FDB0740002DD04A002AD0010E140E47
:10034000000212020919400A520A8418E501044603
:100350005443000A120A2E045043A4194219200CD7
:10036000C543AA18120C0125AD03521C52191204E0
:100370007F39240400D0521C104301D44000491E90
:10038000C2B20C06C0092018401C4008802A02D0C6
:1003900003E0002070BD40084000002900DA002082
:1003A000184370BDC217C10F504010B54018CA079E
:1003B0009623002100F0C9FA10BD10B50022962343
:1003C000114600F0C2FA10BD0EB5C217C10F504061
:1003D000CA0740180021054B0293019200910A467A
:1003E0000B4600F0F8FA03B000BD00003304000033
:1003F00010B5022000F02CFE10BD704770470000C1
:10040000FFFFFFFFFFFFFFFFFFFFFFFFFFFFFEFEFE
:1004100070B502464A40D50F40004A00ED0740083B
:100420005208002814D0002A12D0C40DD30D410266
:100430000120C0055202490A520AE41A091812188A
:100440007D34914201D3641C00E04900002C01DAA4
:10045000002070BD0023914201D3891A0343400854
:1004600049000028F7D100290AD0914202D1012188
:10047000C90705E0914201D2012101E00121C943F0
:10048000E005C018401900F058FA70BDF0B50746F5
:100490000846584087B0C00F049048000E465900E7
:1004A00040084908BC1A884105D2384631461E46E4
:1004B00017460B4602465800400810434CD0300DFA
:1004C000039040055900400D490D0590401A0290D7
:1004D000402872DA18030121000B09050843019036
:1004E00004980092002805D00199524200208841CA
:1004F00000920190029840210A1A0199009800F098
:10050000F9F905460C466B4607CB00F003FAC01913
:100510007141039A0E0D0023D71756401A467A40B0
:10052000164344D0049A002A2DD0029A012A039A35
:1005300015DC1205C01A914101263605001C7141D7
:10054000D20F059ED2070093019202962A462346B7
:1005500000F041FA07B0F0BD38463146FAE716051B
:10056000224A0F46B218C01AB74101210905001CE2
:100570004F4100187F41114618187941E20F10438E
:100580006D19644113E0E2076D0815436408C20762
:100590001443039A01261205C01A91413605001C26
:1005A0007141CE07400830434908C01851412A46DE
:1005B000234600F003FACDE7FFE70498012240004C
:1005C000C117121A00238B4104983146C417381AF8
:1005D000A141EEE730B40124E407634030BC55E7A5
:1005E00030B40124E407614030BC4FE70000E0FF75
:1005F000F0B51FB488B00B990998002448400999B8
:10060000C00F490049080991C0070B9900904900A3
:1006100049080B9109990898A64608431CD00B99E4
:100620000A98084318D0099801244000420D480058
:10063000410D099824050003000B204309900B98F5
:100640000003000B20430B9050181C494018002257
:1006500001901446104605E0002001460DB0F0BDA3
:10066000032801DA034600E003239C46C11A0AAEC0
:100670000AE05F0008ADED5B4F00F75B7D430027AC
:10068000AA187C41491C5B1E6145F2DD410004ABA8
:100690005A522104120C0A43240C401C0828DFDBA8
:1006A000019802900099704601910090059B049A70
:1006B0000799069800F08FF9D0E700000DFCFFFFC6
:1006C000F0B50C465C4085B0E40FE40703944C00A1
:1006D00000266408590094464908024602962243BF
:1006E00021D062460A431ED06200570D4A000E0315
:1006F0002303550D012402462C492405781B1B0BAE
:10070000360B401823432643614600901C46501A7E
:10071000B44103D30098401C009002E09218009866
:100720005B41002803DA0020014605B0F0BD00203F
:10073000012109050746864611E064461D46141B43
:10074000B54106D36546521BB341744607430C437B
:10075000A646CD0740084908284392185B41054644
:100760000D43EAD11046184313D060461946504055
:100770007140084306D06046101AB34106D20122E8
:10078000002306E000220123DB0702E00122D2431E
:100790005310009874460105381C6141029C039D6A
:1007A0000019694100F00AF9BFE70000FD030000ED
:1007B000C20F410040020123400ADB05D207090EA7
:1007C000C0187F2901DA00207047962903DC9623A0
:1007D000591AC84001E096398840002AF4D04042B6
:1007E0007047410040020122400AD205090E8018DC
:1007F0007F2901DA00207047962903DC9622511ADE
:10080000C8407047963988407047C20FD2074000F1
:1008100040080BD0C10D0723DB01C91840020905B0
:10082000400A1143C20840071143704700200146A7
:100830007047CB0FDB07490010B5490802460A4351
:1008400007D00A0D07240903E401090B121B002A33
:1008500001DC002010BDC900440F0C43C100E018AA
:10086000D205801800F069F810BD00000122D207FF
:10087000002800DB101A002900DB511A8142704762
:100880000122D207002800DB101A002900DB511AD0
:1008900088427047F0B51FB40646002082B0054676
:1008A0004024019100901BE0019922460F463046FA
:1008B00000F040F9049A059B801A994110D3104624
:1008C0001946224600F016F8361A8F410197224643
:1008D00001200021009F00F00DF838184D410090D4
:1008E0002046641E0028DFDC019B00982946324622
:1008F00007B0F0BD10B5202A04DB0146203A914034
:10090000002010BD914020239C1A0346E340194368
:10091000904010BD10B5202A06DBCB170846203AC0
:100920001041C1170B4306E00B461341D040202471
:10093000A21A91400843194610BD002904DA401C50
:10094000490001D140084000704770B40024050CF4
:1009500005D11024000402D1002921D01124050E54
:1009600001D100020834050F01D10001241D850FBB
:1009700001D18000A41C002801DB4000641C002978
:1009800008D020252E1B0D46F540A14000D00121A6
:100990002943084301061B1B000ADB1D02D500206A
:1009A00070BC7047DB05181880180029F8DA401C65
:1009B0004900F5D170BC40084000704710B5002BCD
:1009C00008DA0024401C614192185B411A4301D1AE
:1009D0004008400010BDF0B51FB482B005460C00C1
:1009E00003D0084603F064FC02E003F061FC203011
:1009F0000246009021462846FFF77CFF049B059A9B
:100A000004460F4618431143084314D018461043B8
:100A10001BD0009840210A1A1846059900F08AF860
:100A200005460E46009A05990498FFF763FF0843B0
:100A300005D0012004E02046394607B0F0BD002073
:100A4000C11705430E432C43374300990E986305A5
:100A5000401A7905E40A00220C43FD0A0A3002D547
:100A600000200146E9E70105101969410C9C0D9D24
:100A700000196941FFF7A2FFDFE770B54B005B0883
:100A800003430BD04B005C0D002633466542B34157
:100A9000D417AD1AA34102DB0020014670BD120538
:100AA0003018514170BD00004A0009030123090BB1
:100AB0001B0519430A4B10B5520D9A4202DA002069
:100AC000014610BD064B34339A4203DC9A1A00F0FB
:100AD00031F810BD034BD218FFF70CFF10BD00001A
:100AE000FF030000CDFBFFFF10B5002904DB01244C
:100AF000E40740428C412146002B04DB1C460123C5
:100B0000DB075242A341994200D1904210BD000040
:100B1000064C0125064E05E0E36807CC2B430C3C50
:100B200098471034B442F7D3FFF7CEFA308801006B
:100B30005088010010B5202A04DB0846203AD04036
:100B4000002110BD0B46D340D0402024A21A914072
:100B50000843194610BDFEB500231A461B1A8A41E8
:100B600003DB0020014603B0F0BD4A000D03012164
:100B70002D0B0905520D0D43D10702D100186D410F
:100B8000521E5110FF31FF310131002704463E460D
:100B90003846009701910246012100200905FFF720
:100BA000C9FFC3197141F818324684468E464A413E
:100BB00061462846611A904104D36046241A954143
:100BC00076461F46241900986D41401C0090342839
:100BD000E1DDF91930467041091BA84103D200221A
:100BE000D243134601E00022134601980105381C48
:100BF0007141FFF7E3FEB6E710B500F041F800F0F1
:100C000069FA00F0DDF900F02BF8322000F008FA64
:100C100012488068012149020843104988604B212D
:100C2000C901012001F004FD00F0A0FC01F008F969
:100C300000BF00F01DFF0028FBD100BF05F03CFF06
:100C40000028FBD100220521104601F005FC00F030
:100C500025FC01F077F801F099F810BD00F00F4085
:100C60000548408A012806D104484068012149020C
:100C70000843024948607047A8FAFF1F00F00F4080
:100C80000648406901214902084304494861084671
:100C900080684915084301498860704700F00F409B
:100CA000F0B589B006460F461546287844B200BF15
:100CB000A1B202A800F05AFB00200090F01B401CDB
:100CC0000D225043C1B20C2302AA6C2001F07AFA23
:100CD0000020019000F06EFA012806D0022807D00B
:100CE000032808D0042830D12AE0601C44B22CE04C
:100CF000601E44B229E0012001903046C7302749E8
:100D00000880288809884900254A5052002009E0B7
:100D10004100FF225202891809884200204B995253
:100D2000411C88B2FF28F3DD2C80FF2000F0BAF9C7
:100D30000023012252021A49FF2000F0E5F904E0E5
:100D4000287844B20120019000BF00BF012C01DDD2
:100D5000002000E020460446002C01DA012000E0DB
:100D6000204604460198012812D1A1B202A800F041
:100D7000FDFA01200090F01B401C0D225043C1B22F
:100D80000C2302AA6C2001F01DFA01F021F902E007
:100D900001F01EF98CE700BF09B0F0BDD4F0FF1FD1
:100DA00028F9FF1FF0B58BB006460F461546288878
:100DB00004B26748844200DD00E020460446012C6E
:100DC00001DA012000E02046044600BF224661A16E
:100DD00004A803F059FA00200090F01B401C0D22DB
:100DE0005043C1B20C2304AA662001F0EBF90020A5
:100DF000039000F0DFF9030003F089FA068B040D7D
:100E00001632378B601C04B25148844200DD00E08A
:100E1000204604467DE0012C01DA012000E0204656
:100E20000446601E04B274E001200390002009E033
:100E30004100FF225202891809884200474B99520B
:100E4000411C88B2FF28F3DD2C80FF2000F02AF936
:100E50000023012252024149FF2000F055F958E0D9
:100E600001200390288804B253E00020029000BFC4
:100E70003B480088201804B23548844200DD00E079
:100E800020460446002C01DA002000E020460446FB
:100E900000F090F9032806D0042820D1288804B255
:100EA000012002901BE0002009E04100FF225202D5
:100EB000891809884200294B9952411C88B2FF28A1
:100EC000F3DD2C80FF2000F0EDF800230122520218
:100ED0002249FF2000F018F90120029000BF00BF56
:100EE000224620A104A803F0CFF900200090F01BB7
:100EF000401C0D225043C1B20C2304AA662001F00D
:100F000061F901F065F802980028B1D000BF00BF78
:100F100000BF00BF0398012813D122460DA104A8E9
:100F200003F0B2F901200090F01B401C0D22504349
:100F3000C1B20C2304AA662001F044F901F048F87C
:100F400002E001F045F841E700BF0BB0F0BD000042
:100F50000F270000253464200000000028F9FF1F3F
:100F60007AF0FF1F253464230000000070B50546A9
:100F700000F0E8FEECB21AE0642010490880204638
:100F80003030C2B201230021282001F0C5F801F061
:100F90001FF8012C04D14B20C00000F041F804E000
:100FA000AF20800000F03CF800BF601EC4B2002CEF
:100FB000E2D1FF202D300149088070BD00F0FF1FF5
:100FC000002009E04100FF225202891809884200EE
:100FD000034B9952411C88B2FF28F3DD7047000093
:100FE00028F9FF1F0D484069012108430B4948615A
:100FF00008464068012108430849486007484038CE
:101000004069091508430549403948610846406868
:1010100009150843014940394860704740F00F40C6
:1010200010B5034600240DE0084800F011F800BF99
:1010300000BF00BF00BF00BF00BF00BF00BF00BFB8
:10104000601C84B29C42EFD310BD0000E703000097
:10105000002123E000BF00BF00BF00BF00BF00BFF2
:1010600000BF00BF00BF00BF00BF00BF00BF00BF88
:1010700000BF00BF00BF00BF00BF00BF00BF00BF78
:1010800000BF00BF00BF00BF00BF00BF00BF00BF68
:1010900000BF00BF00BF00BF4A1C91B242008A429D
:1010A000D8D8704770B505466C02002008494870D2
:1010B0000A2048722002000E0872012048702004A5
:1010C000000E48720C7200F057F8002070BD00004E
:1010D000000002400A494969012212031143084AEB
:1010E000516100BF07494979802211400029F9D098
:1010F000272001464031034AD17030215171704799
:101100000080044000000240FFB581B007460C4655
:10111000790204980D1804260020009023E0002096
:1011200014494870062048722802000E08720120F7
:1011300048702804000E4872FC20284008720220E3
:101140004870207808726078487203204870A07850
:101150000872E0784872A419AD1900F00DF80098F3
:10116000801980B20090039900988842D7D300205C
:1011700005B0F0BD0000024010B572B630200A493B
:1011800048710A480A4908600748401D09688847AD
:1011900062B60548407933210840002801D001207B
:1011A00010BD0020FCE7000000000240D7F0FF1F48
:1011B000E4F0FF1F08B50020009068480069802116
:1011C0000840002835D166480078FFF729FF6348BA
:1011D000006980210840002828D162480088401C0E
:1011E0006049088008460088142803DD01205C4916
:1011F000087016E05B4800880A2803DD0A20584979
:1012000008700EE057480088052803DD1E20544969
:10121000087006E053480088032802DD2820504962
:1012200008700120009005204F490880684600782A
:1012300008BD4A48006940210840002835D1484887
:101240000078FFF7EDFE454800694021084000287E
:1012500028D144480088401C42490880084600883C
:10126000142803DD01203E49087016E03D4800883F
:101270000A2803DD0A203A4908700EE03948008840
:10128000052803DD1E203649087006E03548008831
:10129000032802DD28203249087002200090052032
:1012A0003149088068460078C2E72C484030006920
:1012B00010210840002812D129480078FFF7B0FE1D
:1012C00026484030006910210840002804D105203C
:1012D000254908800320009068460078A8E71F4849
:1012E00040300069012189020840002813D11C48C0
:1012F0000078FFF795FE1948403000690121890206
:101300000840002804D105201749088004200090D7
:10131000684600788CE71148403000690121490295
:101320000840002812D10E480078FFF779FE0B48DC
:1013300040300069012149020840002803D10520FE
:101340000949088000906846007871E764200449E4
:10135000087000200349088000BF69E700F00F40D3
:1013600004F0FF1F02F0FF1F00F0FF1F70B50546DD
:101370000C46002C02D0012C0AD104E008A128461A
:1013800002F082FF09E007A1284602F07DFF04E099
:1013900005A1284602F078FF00BF00BF70BD000025
:1013A0004F4646004F4E20003F3F3F0000F0CAFC32
:1013B0002B4840680121C90708432949486008466D
:1013C0004068012149040843254948600120254916
:1013D00008700020244908602449086000BF00F01C
:1013E000C7FC2348408C401E2821484384B260003B
:1013F0002049085A20490880601C40001D49085AAD
:101400001E490880A01C40001A49085A1C4908803F
:10141000E01C40001749085A1A490880201D400066
:101420001449085A18490880601D40001149085A9B
:1014300016490880A01D40000E49085A144908802A
:10144000E01D40000B49085A124908802046083028
:1014500040000849085A1049088000BFFEE7000014
:1014600000F00F4099F0FF1F9CF0FF1FA0F0FF1F3E
:10147000A8FAFF1F28F9FF1FA6F0FF1FA8F0FF1F03
:10148000AAF0FF1FACF0FF1FAEF0FF1FB0F0FF1F70
:10149000B2F0FF1FB4F0FF1FB6F0FF1F31488069A4
:1014A000802188432F49886108464069802188430C
:1014B0002C4948612C488068802108432A4988606B
:1014C0002848806940218843264988610846406948
:1014D00040218843234948612348806840210843CC
:1014E000214988601F4840308069102188431D4988
:1014F00040318861084640691021884319494031CC
:1015000048611948C068102108431749C860154848
:101510004030806909158843124940318861084686
:101520004069091588430F49403148610E48C06839
:10153000091508430C49C8600A48403080694915BC
:101540008843084940318861084640694915884305
:101550000449403148610448C068491508430249BC
:10156000C860704700F00F40009004401448406984
:101570000221084312494861084640680221084395
:101580000F494860084640690121490408430C4955
:1015900048610846406801214904084308494860F9
:1015A0000846406901210904084305494861084685
:1015B0004068012109040843014948607047000060
:1015C00040F00F40F0B585B004AB02224121682005
:1015D00000F0A8FA6946087C0002497C084300B282
:1015E00003900398FEF7F0FE04460022074BFFF736
:1015F00067F8074A074B01910090FEF747FF064640
:10160000FFF717F90290029805B0F0BD0040754051
:10161000A4703D0AD743424010B5204840690821D4
:1016200008431E49486108468068082108431B4951
:101630008860084640690421084318494861084603
:101640004068042108431549486008464069042160
:1016500008431249486108468068042108430F493D
:101660008860FEF7C5FE0D484069082108430B4914
:101670004861084640680821084308494860FEF769
:10168000B7FE0648406908210843044948610846F6
:101690008068082108430149886010BD00F00F40B0
:1016A0000C484069082108430A49486108464068D7
:1016B0000821084307494860084640690421084357
:1016C00004494861084640680421084301494860CC
:1016D0007047000000F00F4010B520484069082115
:1016E00008431E49486108468068082108431B4991
:1016F0008860084640690421084318494861084643
:10170000406804210843154948600846406904219F
:1017100008431249486108464068042108430F49BC
:101720004860FEF765FE0D484069082108430B49F3
:101730004861084640680821084308494860FEF7A8
:1017400057FE064840690821084304494861084695
:101750008068082108430149886010BD00F00F40EF
:1017600070B5054600242348806904218843214937
:10177000886108464069042188431E4948611E4823
:101780008068042108431C498860002627E0194826
:1017900040690821084317494861084680680821C4
:1017A000084314498860FEF723FE12484069082167
:1017B00008431049486108464068082108430D491C
:1017C00048606006040E08460069042108400028AD
:1017D00001D0601CC4B2FEF70BFE701CC6B2082E0E
:1017E000D5DB002D02D1FFF777FF01E0FFF714FFF3
:1017F000204670BD00F00F400090044070B50446D4
:101800002D484069042108432B4948610846406837
:1018100004210843284948600846406908210843D4
:1018200025494861084680680821084322498860A4
:1018300000253DE080202040C01100280CD11E482A
:101840004069042108431C49486108468068042116
:101850000843194988600BE0174840690421084390
:101860001549486108464068042108431249486008
:101870006006040E10484069082108430E4948617B
:1018800008464068082108430B494860FEF7B0FD50
:1018900009484069082108430749486108468068AB
:1018A0000821084304498860FEF7A2FD681CC5B200
:1018B000082DBFDB70BD000000F00F4010B52048C0
:1018C0004069042108431E494861084640680421D4
:1018D00008431B49486008464069042108431849E9
:1018E0004861084640680421084315494860084695
:1018F00040690821084312494861084640680821A8
:1019000008430F494860FEF773FD0D484069042104
:1019100008430B4948610846806804210843084988
:101920008860FEF765FD06484069082108430449C0
:10193000486108468068082108430149886010BD55
:1019400000F00F4010B520484069042108431E49AB
:10195000486108464068042108431B49486008461E
:1019600040690821084318494861084680680821F1
:101970000843154988600846406904210843124914
:10198000486108468068042108430F498860FEF7D3
:101990002FFD0D484069082108430B49486108465E
:1019A0004068082108430849486008464069042106
:1019B0000843054948610846406804210843024934
:1019C0004860FEF715FD10BD00F00F4010B5002473
:1019D0002548806904218843234988610846406975
:1019E0000421884320494861204880680421084335
:1019F0001E4988601C484069042108431A4948610F
:101A0000084640680421084317494860FEF7F0FC87
:101A10001548406908210843134948610846406851
:101A20000821084310494860FEF7E2FC07E0601C0B
:101A3000C4B2FA2C03DDFFF785FF012010BD0A4870
:101A40000069042108400028F1D1074840690821B5
:101A5000084305494861084680680821084302494F
:101A600088600020EAE7000000F00F40009004408A
:101A700010B5FFF715FE80216B2000F0D4F864202C
:101A8000FFF7CEFA00216B2000F0CDF8032000F024
:101A900087F8002000F07CF8322000F0A6F8002142
:101AA000382000F0C0F800216A2000F0BCF80021C6
:101AB000232000F0B8F88021372000F0B4F875201A
:101AC00000F013F80446682C0BD101216B2000F0C4
:101AD000AAF800216C2000F0A6F8C82000F085F8D4
:101AE00001E0012010BD0020FCE770B50446FFF7BF
:101AF000E5FED020FFF782FEFFF768FF2046FFF7E4
:101B00007DFEFFF763FFFFF7D9FED120FFF776FEDA
:101B1000FFF75CFF0020FFF723FE0546FFF712FFEB
:101B2000284670BDF8B506460F4614461D46FFF719
:101B3000C5FE7106080EFFF761FEFFF747FF00289C
:101B400003D0FFF7FFFE0120F8BD3846FFF756FE31
:101B5000FFF73CFFFFF7B2FE7100491CC8B2FFF768
:101B60004DFEFFF733FF0DE0012C04D10020FFF7FD
:101B7000F7FD287003E00120FFF7F2FD2870601EDA
:101B8000C4B26D1C002CEFD1FFF7DCFE0020DBE7B8
:101B900010B50446E006010E1C2000F044F810BD0C
:101BA00010B50446E006010E1B2000F03CF810BD05
:101BB00070B504460025BC2C01DB012510E0622C29
:101BC00001DB02250CE02A2C01DB032508E0142CA4
:101BD00001DB042504E00A2C01DB052500E00625D5
:101BE00029461A2000F01FF870BD70B504467D200C
:101BF000C000844200DD0446042C00DA042421469F
:101C00007D20C000FEF790FA401EC6B23146192072
:101C100000F009F806462546E10F4919C903080CEA
:101C2000FFF7C6FF70BD70B505460C46FFF746FED0
:101C3000D020FFF7E3FDFFF7C9FE002803D0FFF730
:101C400081FE012070BD2846FFF7D8FDFFF7BEFEDC
:101C50002046FFF7D3FDFFF7B9FE002803D0FFF7BA
:101C600071FE0120EEE7FFF76DFE0020EAE7FFB509
:101C700081B005460E461F46FFF720FE6906080E96
:101C8000FFF7BCFDFFF7A2FE002804D0FFF75AFEC5
:101C9000012005B0F0BD3046FFF7B0FDFFF796FE1E
:101CA00000240CE0385DFFF7A9FDFFF78FFE002848
:101CB00003D0FFF747FE0120EBE7601CC4B2039896
:101CC0008442EFDBFFF73EFE0020E2E710B500287C
:101CD00019DA1A4A03071B0F083B9B089B00D258CE
:101CE0008307DC0EFF23A3409A438B071B0E840758
:101CF000E40EA3401A43114B0407240F083CA40828
:101D0000A4001A5118E00E4A03231B02D2188308BC
:101D10009B00D2588307DC0EFF23A3409A438B0716
:101D20001B0E8407E40EA3401A43054B0324240230
:101D30001B198408A4001A5110BD00001CED00E01E
:101D400000E100E010B500200CE0002106E00022D8
:101D5000CB00064C1B191A544A1CD1B28029F6DB61
:101D6000411CC8B20828F0DB10BD000028F1FF1F9D
:101D700000B500218D2000F0C7FA0021102000F0EE
:101D8000C3FA0021AE2000F0BFFA00BD00B500216B
:101D90008D2000F0B9FA0021142000F0B5FA0021DE
:101DA000AF2000F0B1FA00BDF7B57F2801DC3F2974
:101DB00000DDFEBD0C46CE17760F3619F61007274C
:101DC000BE1BF2B2CE17760F3619F610F6008E1B38
:101DD000F5B20724661B0124B440E3B2029C002C38
:101DE00009D0C400094EA419A45C1C43C600074FC7
:101DF000F619B45408E0C400044EA419A45C9C4332
:101E0000C600024FF619B45400BFD2E728F1FF1FF5
:101E1000FFB506460F4634460DE03D4606E029462E
:101E20002046099AFFF7C0FF681CC5B20398854297
:101E3000F5DD601CC4B202988442EEDDFFBD0000F7
:101E400000B5624840690121C90608435F494861FD
:101E5000084640680121C90608435C4948600846B5
:101E6000406901218906084358494861084640688D
:101E7000012189060843554948605448403040696B
:101E80008915084351494031486108464068891521
:101E900008434E49403148604C4840698905084331
:101EA0004A494861084640680121090708434749F3
:101EB00048600846406801210907084343494860D3
:101EC0004248403080688915084340494031886065
:101ED0007D20400107E0642101E04A1E91B2002903
:101EE000FBDC411E88B20028F5DC384840304068F1
:101EF000FF21013108433549403148600021AE20BF
:101F000000F002FA0021D52000F0FEF90021802027
:101F100000F0FAF90021A82000F0F6F900213F2096
:101F200000F0F2F90021D32000F0EEF9002108467C
:101F300000F0EAF90021402000F0E6F900218D20B0
:101F400000F0E2F90021142000F0DEF90021202049
:101F500000F0DAF90021022000F0D6F90021A120DA
:101F600000F0D2F90021C02000F0CEF90021DA20E3
:101F700000F0CAF90021122000F0C6F900218120EA
:101F800000F0C2F90021EF2000F0BEF90021D920B5
:101F900000F0BAF90021F12000F0B6F90021DB20B1
:101FA00000F0B2F90021302000F0AEF90021A420A9
:101FB00000F0AAF90021A62000F0A6F90021AF2028
:101FC00000F0A2F9FFF7BEFE00BD000000F00F40D8
:101FD00030B500241CE02146B031C8B2002100F029
:101FE00093F90021084600F08FF90021102000F03D
:101FF0008BF9002508E0E900074A8918085D0121EE
:1020000000F082F9681CC5B2802DF4DB601CC4B2FC
:10201000082CE0DB30BD000028F1FF1FFFB584B0C5
:102020000E4615461C4602962046E3175B0F1B180A
:10203000DB102246E7177F0FBF18FF10FF00E71BDA
:1020400001D0012700E00027DB192146E70F7F18A8
:102050007F107B43DBB2019328462038C5B20027AE
:102060004FE00C2C04D0102C09D0182C14D10CE00B
:102070000C20684325494018C05D03900DE02801FD
:1020800023494018C05D039007E02420684321499C
:102090004018C05D039000E000BF00BF002000902A
:1020A00029E0802103980840002805D031460D9A88
:1020B0000498FFF779FE0AE00D98002801D101206D
:1020C00000E00020024631460498FFF76DFE0398B9
:1020D0004006000E0390701CC6B20298301AA0424F
:1020E00005D1029E0498401CC0B2049006E00098FE
:1020F000401CC0B2009000980828D2DB00BF781CBA
:10210000C7B201988742ACDB08B0F0BDA8610100FE
:102110001C6601000C6C0100FFB581B0064600246E
:1021200007E02548015D0398814200D103E0601C6F
:10213000C4B2092CF5DB00BF0394002438E000276B
:102140002BE0FF218131039848431C4941180620A8
:102150006043C019085C009000251AE01848405DF3
:1021600000990840002805D03046049A0299FFF7EC
:102170001BFE0AE00498002801D1012000E00020A5
:10218000024630460299FFF70FFE701CC6B2681C6B
:10219000C5B2082DE2DB781CC7B2062FD1DB02984E
:1021A000401CC0B2029030463038C6B2601CC4B287
:1021B000402CC4DB05B0F0BDAC7C00003C3101001C
:1021C00068790100FFB581B0064614461D460A9F96
:1021D0000DE0009722782B4630460299FFF71EFF4C
:1021E0002846E90F091849108919CEB2641C2078D5
:1021F0007E2802DC20782028EBDA05B0F0BDF8B5A7
:1022000005460F4614461E461FE02078002800D1E0
:102210001CE020787E280DDC207820280ADB009640
:1022200022780C2339462846FFF7F8FEA81DC5B2D0
:10223000641C0AE00096637822783946284600F04C
:1022400007F828460C30C5B2A41CDEE700BFF8BD75
:10225000FFB581B0064600240DE02848015D0398D3
:10226000814206D12549601C095C0498814200D155
:1022700003E0A01CC4B2782CEFDB00BF0394002461
:1022800037E000272AE0FF218131039848431C49A9
:1022900040186100C919405C009000251AE01948F7
:1022A000405D00990840002805D030460A9A0299FE
:1022B000FFF77AFD0AE00A98002801D1012000E02A
:1022C0000020024630460299FFF76EFD701CC6B230
:1022D000681CC5B2082DE2DB781CC7B2022FD2DB26
:1022E0000298401CC0B2029030461038C6B2601C42
:1022F000C4B20C2CC5DB05B0F0BD0000C47C0000EE
:102300003C7D00006879010010B5002902D0012948
:1023100010D107E0204A926801231B071A431E4B85
:102320009A6007E01C4A526801231B071A431A4BA4
:102330005A6000BF00BF002224E0174B9B680124B5
:10234000E4062343144CA36080230340002B07D0F2
:1023500023465B680124A40623430F4C636006E018
:102360000D4B9B680124A40623430B4CA3600A4B2E
:102370005B680124E4062343074C63604306180EA0
:10238000531CDAB2082AD8DB034A526801231B0720
:102390001A43014B5A6010BD00F00F4010B522489F
:1023A000C068012108432049C8601F484038406880
:1023B000091508431C49403948601C48C068012180
:1023C00008431A49C860162001218140184A11604B
:1023D00000BF184A1849194804F05EFA18480088E6
:1023E000052807DB16480088401F15490880FEF7BE
:1023F00037FC08E00C484038806801214902084356
:1024000009494039886008484038806801218902BC
:102410000843054940398860162001218140044A5B
:10242000803A116000BF10BD40F00F4000710340C2
:1024300080E100E0C8F0FF1FC4F0FF1FC0F0FF1FE5
:1024400000F0FF1F0348C169012001430148C16139
:10245000704700000071034070B504460D461646F3
:102460001F484069022108431D4948611D48006812
:10247000022188431B49086020461630C206D20E4E
:1024800001219140184A116000BF1848684318495B
:102490002201885008462101401880680221084323
:1024A0001349220189188860114821014018816868
:1024B000012001430E482201801881602146163117
:1024C00048B23146FFF702FC20461630C206D20E53
:1024D00001219140044A803A116000BF70BD0000A4
:1024E000008004400070034080E100E0409C000058
:1024F0000071034010B51748408C030001F007FF3E
:102500000627040B12192027012313A213210020F0
:10251000FFF775FE1CE0012315A213210020FFF731
:102520006EFE15E0012318A213210020FFF767FEBD
:102530000EE001231AA213210020FFF760FE07E03E
:1025400001231DA213210020FFF759FE00E000BF68
:1025500000BF10BDA8FAFF1F20202020202020202F
:10256000B0B820D2BB202020202020202020000036
:102570002020202020202020B0B820B6FE202020BF
:10258000202020202020000020202020202020208B
:10259000B0B820C8FD2020202020202020200000CE
:1025A0002020202020202020B0B820CBC4202020B4
:1025B000202020202020000020202020202020205B
:1025C000B0B820CEE52020202020202020200000B0
:1025D0001248134988800120487023200870112078
:1025E000000510494862104840780007000F0E4966
:1025F000487094200D4908701A200B49087000BFDC
:1026000009480079102108400028F9D100BF064888
:1026100000790C2108400028F9D1704703E8000038
:102620000020054000800440004006400050064065
:10263000F3B581B00646B00049490C58002E04D0CD
:10264000012E22D0022E62D140E04648C06880218F
:1026500088434449C8600846406901210905084388
:10266000404948614048C078082108433E49C87045
:102670000846C078042108433B49C8700846C07822
:10268000202108433849C87000BF3648006901213D
:102690000903884333490861084640690121490517
:1026A0000843304948613148C078082108432F4920
:1026B000C8700846C078042108432C49C8700846F1
:1026C000C078202108432949C87021E025480069C5
:1026D00001214903884323490861084640690121D3
:1026E000890508431F4948612148C07808210843EB
:1026F0001F49C8700846C078042108431C49C870A7
:102700000846C078202108431949C87000E000BF7E
:1027100000BFE0780C218843E0700020A0701548CD
:102720000299FDF7EBFC471D0A213846FDF7E6FC50
:1027300085B21148854200DD0546207840094001F8
:1027400020702078E904C90E0843207065700020CD
:10275000A070A0716071E0780C210843E070FEBDAC
:102760009C7A01000080044000A0064000B00640B2
:1027700000C0064040787D01FF1F000030B50246D2
:102780000B4690000B4D2C58002108E02079802545
:102790002840002801D0E37104E0481CC1B206487B
:1027A0008142F3DB00BF0448814201DB012030BDE0
:1027B0000020FCE79C7A0100BBFB0000F0B5CDB027
:1027C0000125002601240027FFF7BCFAFF222D3245
:1027D000774902A8FDF71FFD012302AA0021084640
:1027E000FFF70DFD1E20604302A9421801230D21B1
:1027F0000020FFF704FD601C1E21484302A9421877
:1028000001231A210020FFF7FAFCA01C1E214843D7
:1028100002A94218012327210020FFF7F0FCE01C49
:102820001E21484302A94218012334210020FFF74A
:10283000E6FC00BF2E462746FEF7BCFC012806D06A
:10284000022807D003280BD004281CD105E0681EFD
:10285000C5B218E0681CC5B215E000204DB0F0BD4F
:10286000012D06D0022D06D0032D06D0042D08D14F
:1028700005E01F20F2E72020F0E72120EEE72220EC
:10288000ECE70020EAE700BF012D01DA092000E0B3
:1028900028460546092D01DD012000E028460546B1
:1028A000A54201DA284600E020460446E81EA04280
:1028B00000DD00E02046C4B2AE421FD001200C2350
:1028C0002022194600901846FFF7A8FB01200C2390
:1028D0002022192100901846FFF7A0FB01200C23AD
:1028E0002022262100901846FFF798FB01200C2398
:1028F0002022322100901846FFF790FBA74226D0F5
:102900001E20604302A9421801230D210020FFF779
:1029100076FC601C1E21484302A9421801231A219B
:102920000020FFF76CFCA01C1E21484302A942189E
:10293000012327210020FFF762FCE01C1E214843F1
:1029400002A94218012334210020FFF758FCA542B8
:1029500008D101200C234022194600901846FFF7A9
:102960005DFB22E0601C854208D101200C2340223F
:10297000192100901846FFF751FB16E0A01C854274
:1029800008D101200C234022262100901846FFF791
:1029900045FB0AE0E01C854207D101200C234022C0
:1029A000322100901846FFF739FBFFF711FB41E792
:1029B00070790100F0B58BB0FFF7C4F900BF724821
:1029C0000068FDF7FAFC71490190FDF721FD0290C6
:1029D000FDF71BFF04460D466D480068FDF7EDFC52
:1029E0006C490190FDF714FD0290FDF70EFF0646BD
:1029F00032460B4668A103A80195009401F044FCFF
:102A000001200C2303AA282100900020FFF7DAFB05
:102A10005D480068FDF7D1FC01905D480068FDF756
:102A2000CCFC00900199FDF7F3FC0290FDF7EDFE60
:102A300006465E4A5E4BFDF743FE044622460B46C1
:102A40005CA103A801F020FC01200C2303AA35217E
:102A500000900020FFF7B6FB01200C2357A20021B5
:102A600000900620FFF7AEFB5548808C3030C2B294
:102A7000012300212820FFF74FFB5148808C0528B7
:102A800001DB052001E04E48808C4D498884FEF72B
:102A900091FB030001F03BFC06730434646B72731A
:102AA0004748808C401C81B245488184808C052831
:102AB00001DB052001E04248808C414988840846BA
:102AC000808C40490880002009E04100FF2252022A
:102AD0008918098842003C4B9952411C88B2FF2852
:102AE000F3DD3848018836488184FF20FEF7DAFAA2
:102AF0000023012252023449FF20FEF705FB3EE08D
:102B00002F48808C002801D1012001E02C48808CC6
:102B10002B4988840846808C401E81B228488184D5
:102B2000808C28490880002009E04100FF225202E1
:102B3000891809884200244B9952411C88B2FF2809
:102B4000F3DD204801881E488184FF20FEF7AAFAA1
:102B50000023012252021C49FF20FEF7D5FA0EE0A5
:102B60001749888CFEF702FAFEF720FC07E00020E8
:102B700005490860064908600BB0F0BD00BF00BF02
:102B8000FFF726FA1BE700009CF0FF1F0000C84279
:102B9000A0F0FF1F0000B445252E33662020202022
:102BA00020202020202020252E336600CDCCCCCC28
:102BB000CCCC4C40252E3366000000003C000000C9
:102BC000A8FAFF1F06F0FF1F28F9FF1FF0B58FB00E
:102BD000FFF7B8F801232DA200210846FFF70FFBED
:102BE00000BFFEF7E7FA042802D103200FB0F0BDC2
:102BF0002C480068FDF709FE04460D462A48006887
:102C0000FDF703FE06460F4628480068FDF7FDFD68
:102C100002460B4601970096039502940591049095
:102C200023A106A801F030FB01200C2306AA1421E1
:102C300000900020FFF7C6FA23480023C35E234814
:102C40000022825E22A106A801F01EFB01200C23B7
:102C500006AA212100900020FFF7B4FAFEF7B2FC8B
:102C60000646FDF7D2FD044622460B461BA106A8E8
:102C700001F00AFB01200C2306AA2E21009000205F
:102C8000FFF7A0FAFFF7A4F9ABE70000203C2020F3
:102C90002020CDD32020C2DD2020D2C7202020201C
:102CA00020200000C8F0FF1FC4F0FF1FC0F0FF1F6E
:102CB00025332E3266202025332E32662020253300
:102CC0002E32662020200000CEF0FF1FCCF0FF1F28
:102CD00025366420202536642020000025332E313F
:102CE0006620200038B501240025FFF72BF80123CA
:102CF00089A203210020FFF782FA8D48408C012829
:102D000001DA052001E08A48408C89494884084658
:102D1000408C052801DD012001E08548408C844974
:102D20004884FFF7E7FB012382A223210020FFF75D
:102D300066FA012385A233210020FFF760FA00BF65
:102D40002546FEF737FA030001F0E1FA0691040D7B
:102D500016295D91601EC4B2012C01DA042000E046
:102D60002046044684E0601CC4B2042C01DD01202E
:102D700000E0204604467BE0012C06D0022C06D061
:102D8000032C06D0042C08D105E0012038BD022018
:102D9000FCE70320FAE70420F8E70020F6E7022C1E
:102DA00030D16348408C401E81B261484184408CE0
:102DB000012801DA052001E05D48408C5C49488427
:102DC0000846408C67490880002009E04100FF2246
:102DD0005202891809884200634B9952411C88B2FB
:102DE000FF28F3DD5F48018851484184FF20FEF74A
:102DF00059F90023012252025B49FF20FEF784F9B2
:102E0000FFF778FB34E0022C30D14948408C401C5D
:102E100081B247484184408C052801DD012001E052
:102E20004348408C424948840846408C4D490880BC
:102E3000002009E04100FF2252028918098842005F
:102E4000494B9952411C88B2FF28F3DD454801885F
:102E500037484184FF20FEF725F900230122520262
:102E60004149FF20FEF750F9FFF744FB00E000BFA7
:102E700000BFA5421FD001200C2320220321009077
:102E80001046FFF7CBF801200C23202213210090DD
:102E90001046FFF7C3F801200C23202223210090C5
:102EA0001046FFF7BBF801200C23202233210090AD
:102EB0001046FFF7B3F8012C06D0022C0DD0032CDE
:102EC00014D0042C24D11AE001200C234022032129
:102ED00000902020FFF7A2F81AE001200C234022E6
:102EE000132100902020FFF799F811E001200C2316
:102EF0004022232100902020FFF790F808E00120D5
:102F00000C234022332100902020FFF787F800BFD8
:102F100000BFFFF75DF813E72020202020202020AD
:102F2000B7A220B3B52020202020202020200000A0
:102F3000A8FAFF1F2020202020202020CDE220C939
:102F4000E8202020202020202020000020202020F9
:102F500020202020C9E820D6C320202020202020A7
:102F60002020000006F0FF1F28F9FF1FF0B5F74BE7
:102F70009D4401240021F648684481610125416196
:102F80000161F448408C401E2821484386B2FEF778
:102F9000D9FEF148684400F05FFF0123EE4A6A441D
:102FA00000210846FFF72BF91E206843EA496944CF
:102FB000421801230D210020FFF721F9681C1E2172
:102FC0004843E5496944421801231A210020FFF7CC
:102FD00016F9A81C1E214843DF4969444218012301
:102FE00027210020FFF70BF9E81C1E214843DA498E
:102FF00069444218012334210020FFF700F900BF83
:10300000D348684484614561FEF7D4F8030001F0B9
:103010007EF9060C040DFB161B0C601EC4B2012CBD
:1030200001DA102000E02046044697E3601CC4B299
:10303000102C01DD012000E0204604468EE3002034
:10304000C34B1C339D44F0BD002010E000210AE07A
:10305000C200C24BD218525CC300FFAF3C37DB1931
:103060005A544A1CD1B20829F2DB411CC8B280284C
:10307000ECDB0121FFA8816300214163E4E2012030
:1030800038234722172100901E20FEF7C1FEFFA81B
:10309000806B012802D002283AD11CE00123B0A2A3
:1030A0001A212120FFF7ABF80020192344221946EA
:1030B00000902120FEF7ACFE002026234422194672
:1030C00000902120FEF7A4FE0023A7A229212120A1
:1030D000FFF795F81CE00023A1A21A212120FFF799
:1030E0008EF80123A0A229212120FFF788F80020D3
:1030F00028234422194600902120FEF789FE002053
:1031000035234422194600902120FEF781FE00BF9E
:1031100000BFFEF74FF8030001F0F9F806070408B6
:103120000CFD0D070121FFA881638AE20221FFA89F
:10313000816386E200BF00200A9013E000200BE0CC
:103140000A99C900854A89180A5C0A99C9000CAB1A
:10315000CB181A54411CC8B20828F1DB0A98401C4D
:10316000C1B20A910A988028E8DB012700210B915F
:1031700044E2FFA8806B012847D12F236E220E2145
:1031800000904520FEF744FE012F02D0022F3AD1D5
:103190001CE0012376A211214820FFF730F800201F
:1031A00010236B22194600904820FEF731FE0020C4
:1031B0001D236B22194600904820FEF729FE0023AC
:1031C0006DA220214820FFF71AF81CE0002368A216
:1031D00011214820FFF713F8012367A2202148207E
:1031E000FFF70DF800201F236B221946009048209E
:1031F000FEF70EFE00202C236B221946009048207B
:10320000FEF706FE00BF3AE139E2FFA8806B022814
:10321000F9D101203F237A22014600904520FEF794
:10322000F7FD4C48408C030001F071F80668041863
:103230002C40546852A102A801F026F853A104A81A
:10324000013001F021F854A106A8023001F01CF869
:1032500054A108A8033001F017F84FE054A102A8C8
:1032600001F012F849A104A8013001F00DF84AA1BB
:1032700006A8023001F008F84AA108A8033001F0BE
:1032800003F83BE04AA102A800F0FEFF3CA104A81D
:10329000013000F0F9FF40A106A8023000F0F4FF71
:1032A00040A108A8033000F0EFFF27E040A102A8EA
:1032B00000F0EAFF32A104A8013000F0E5FF33A1DD
:1032C00006A8023000F0E0FF36A108A8033000F0A5
:1032D000DBFF13E036A102A800F0D6FF28A104A866
:1032E000013000F0D1FF29A106A8023000F0CCFF88
:1032F00029A108A8033000F0C7FF00BF00BF0023CA
:1033000002AA04214820FEF77AFF002304AA013212
:103310001321482000E090E1FEF771FF002306AA88
:10332000023222214820FEF76AFF002308AA033256
:1033300031214820FEF763FF012F3FD0022F54D0E8
:10334000032F6AD0042F4FD17FE0000064F5FFFF08
:10335000800A0000A8FAFF1F3808000028F1FF1FAC
:1033600020C7E5BFD520000020B8B4D6C620000095
:1033700020B5B1C7B020000020CBF9D3D020000089
:1033800020B7BDB0B8B6FE200000000020B7BDB029
:10339000B8C8FD200000000020B7BDB0B8CBC420E5
:1033A0000000000020B7BDB0B8CEE520000000004E
:1033B00020B7BDB0B8D2BB2000000000012302AA94
:1033C00004214820FEF71BFF002003237722194623
:1033D00000904820FEF71CFD00201023772219469C
:1033E00000904820FEF714FD47E0012304AA0132B3
:1033F00013214820FEF703FF0020122377221946ED
:1034000000904820FEF704FD00201F237722194674
:1034100000904820FEF7FCFC2FE0012306AA0232B0
:1034200022214820FEF7EBFE0020212377221946B7
:1034300000904820FEF7ECFC00202E23772219464E
:1034400000904820FEF7E4FC17E0012308AA0332AD
:1034500031214820FEF7D3FE002030237722194681
:1034600000904820FEF7D4FC00203D237722194627
:1034700000904820FEF7CCFC00BF00BF00BFFDF766
:1034800099FE030000F043FF06B704132522B6B7E8
:10349000FFA8806B012801D1012707E0781EC7B281
:1034A000012F01DA012000E038460746A3E0FFA81B
:1034B000806B012801D1022707E0781CC7B2042FD6
:1034C00001DD042000E03846074694E001200B901F
:1034D00091E0F348408CB84201DD0A9702E0781C85
:1034E000C1B20A91FFA8806B0A214843C01916286F
:1034F00050D006DC0B2809D00C2826D0152876D110
:1035000047E0172847D0182871D145E0002009E08E
:103510004100FF225202891809884200E14B99526A
:10352000411C88B2FF28F3DD0021601E8019400095
:10353000DC4A1152FF20FDF7B5FD002301225202A3
:10354000D849FF20FDF7E0FD51E0002009E04100EF
:10355000FF225202891809884200D24B9952411C1D
:1035600088B2FF28F3DD002006E000213218520067
:10357000CC4B9952411CC8B22828F6DBFF20FDF73E
:1035800091FD002301225202C649FF20FDF7BCFD38
:103590002DE000BF00BF00BF002009E04100FF2276
:1035A0005202891809884200BE4B9952411C88B2C8
:1035B000FF28F3DD00200DE00A99491E282251431F
:1035C00009184900B74A515A32185200B54B99525E
:1035D000411CC8B22828EFDBFF20FDF763FD002364
:1035E00001225202AF49FF20FDF78EFD00BF00BF50
:1035F000022025E500BF00BFFEF7EAFC0B9801287A
:1036000000D0B6E500200A9013E000200BE00A99F4
:10361000C9000CAA89180A5C0A99C900A24BCB18E8
:103620001A54411CC8B20828F1DB0A98401CC1B2E8
:103630000A910A988028E8DB03E00120FFA948638B
:1036400000BF00BFFEF7C4FCFFA8406B012800D0FC
:1036500015E5002010E000210AE0C200FFAB3C337A
:10366000D218525CC300904FDB195A544A1CD1B295
:103670000829F2DB411CC8B28028ECDB6EE0230095
:1036800000F045FE0B6A07101A242E38424C566192
:103690006A00700083494218012329462046FDF73D
:1036A00081FB59E0701C40007E49421801232946E5
:1036B0002046FDF777FB4FE0B01C400079494218E7
:1036C000012329462046FDF76DFB45E0F01C400034
:1036D00074494218012329462046FDF763FB3BE06D
:1036E000301D40006F494218012329462046FDF74E
:1036F00059FB31E0701D40006A49421801232946F8
:103700002046FDF74FFB27E0B01D400065494218F9
:10371000012329462046FDF745FB1DE0F01D400032
:1037200060494218012329462046FDF73BFB13E080
:103730003046083040005B494218012329462046A4
:10374000FDF730FB08E07000564942180123294676
:103750002046FDF727FB00BF00BF00BF00BFAC4203
:1037600001DA204600E028460546E01EA84200DDBA
:1037700000E02846C5B24D4868448069A04204D1A3
:103780004A4868440069012827D101200C232022DF
:10379000194600900620FEF741FC01200C23202250
:1037A000192100900620FEF739FC01200C2320226D
:1037B000262100900620FEF731FC01200C23202258
:1037C000322100900620FEF729FC3948684400F0B9
:1037D00043FB002035496944086134486844406926
:1037E000A8422AD01E206843314969444218012367
:1037F0000D210020FEF703FD681C1E2148432C49C3
:103800006944421801231A210020FEF7F8FCA81C85
:103810001E214843264969444218012327210020DC
:10382000FEF7EDFCE81C1E2148432149694442187B
:10383000012334210020FEF7E2FCAC4208D1012034
:103840000C234022194600900620FEF7E7FB22E0F9
:10385000681C844208D101200C23402219210090C9
:103860000620FEF7DBFB16E0A81C844208D10120ED
:103870000C234022262100900620FEF7CFFB0AE011
:10388000E81C844207D101200C2340223221009001
:103890000620FEF7C3FBFEF79BFBFFF7B1FB000022
:1038A000A8FAFF1F28F9FF1F28F1FF1F800A000058
:1038B0003808000000B585B014216846FCF7C4FC48
:1038C000FEF740FA012315A200210846FEF797FCF7
:1038D00000BFFDF76FFC042802D1032005B000BD36
:1038E00014480022825E14A1684600F0CDFC01233A
:1038F0006A461A210020FEF782FC13480022825EED
:1039000012A1684600F0C0FC01236A46272100206E
:10391000FEF775FCFEF75CFBDBE70000203C202097
:103920002020B1E020C2EB20C6F720D6B520202011
:103930002020200078F0FF1F4C5FB1E0C2EBC6F7FB
:103940003A253564200000007AF0FF1F525FB1E095
:10395000C2EBC6F73A2535642000000000B589B0F7
:10396000FEF7F0F901231CA200210846FEF747FCF0
:1039700000BFFDF71FFC042802D1032009B000BDE1
:103980001B4803881B4802881BA101A800F07CFC8F
:1039900001200C2301AA194600900020FEF712FC1A
:1039A0001448008812490988421A18A101A800F099
:1039B0006BFC01200C2301AA192100900020FEF7C6
:1039C00001FC01200C2301AA2D2100900020FEF70C
:1039D000F9FBFEF7FDFACCE7203C20202020B5E7DC
:1039E0002020B8D02020D6B5202020202020000084
:1039F0006EF0FF1F6CF0FF1F41445F4C3A253464AA
:103A0000202041445F523A25346400004C2D523A44
:103A1000253464202020202020000000F0B5CDB007
:103A2000012500260124002700204C90FEF78AF98A
:103A300001A800F031F9012301AA00210846FEF790
:103A4000DEFB1E20604301A9421801230D21002046
:103A5000FEF7D5FB601C1E21484301A94218012333
:103A60001A210020FEF7CBFBA01C1E21484301A910
:103A70004218012327210020FEF7C1FBE01C1E2174
:103A8000484301A94218012334210020FEF7B7FB67
:103A900000BF2E462746FDF78DFB012806D00228E1
:103AA0000DD0032817D0042862D111E0681EC5B2DA
:103AB000012D01DA092000E02846054658E0681C7F
:103AC000C5B2092D01DD012000E0284605464FE082
:103AD00000204DB0F0BD2B0000F019FC0A46060D89
:103AE000151C232A31383F4601236A4A21462846BD
:103AF000FDF758F93AE00123664A921C2146284610
:103B0000FDF750F932E0634A921E21462846FDF740
:103B1000C7F82BE05F4A123A21462846FDF7C0F865
:103B200024E05C4A183A21462846FDF7B9F81DE022
:103B3000584A163A21462846FDF7B2F816E0554A8B
:103B4000143A21462846FDF7ABF80FE0514A121D02
:103B500021462846FDF7A4F808E04E4A083A2146D7
:103B60002846FDF79DF801E00020B2E700BF00BF46
:103B700000BFA54201DA284600E020460446E81EC0
:103B8000A04200DD00E02046C4B2AE4202D14C9813
:103B9000012824D101200C23202219460090062060
:103BA000FEF73CFA01200C23202219210090062068
:103BB000FEF734FA01200C23202226210090062053
:103BC000FEF72CFA01200C2320223221009006203F
:103BD000FEF724FA01A800F05FF800204C90A742FD
:103BE00026D01E20604301A9421801230D21002088
:103BF000FEF705FB601C1E21484301A94218012362
:103C00001A210020FEF7FBFAA01C1E21484301A93F
:103C10004218012327210020FEF7F1FAE01C1E21A3
:103C2000484301A94218012334210020FEF7E7FA96
:103C3000A54208D101200C234022194600900620FD
:103C4000FEF7ECF922E0601C854208D101200C232C
:103C50004022192100900620FEF7E0F916E0A01C92
:103C6000854208D101200C23402226210090062005
:103C7000FEF7D4F90AE0E01C854207D101200C23AD
:103C80004022322100900620FEF7C8F9FEF7A0F985
:103C9000FFE60000D0FAFF1F38B504460020009070
:103CA00030A1204600F0F0FA3448028D34A12046BD
:103CB0001E3000F0E9FA3148428D37A120463C30F1
:103CC00000F0E2FA2D48C18C6846FDF74FFB6A46CA
:103CD00037A120465A3000F0D7FA2848C18A6846F2
:103CE000FDF744FB6A4638A12046783000F0CCFA54
:103CF0002248018A6846FDF739FB6A4638A120460A
:103D0000963000F0C1FA1D48418A6846FDF72EFB47
:103D10006A4639A12046B43000F0B6FA1748818AC5
:103D20006846FDF723FB6A4639A12046D23000F0F1
:103D3000ABFA1248818D6846FDF718FB6A463AA136
:103D40002046F03000F0A0FA0C48018C6846FDF7E0
:103D50000DFB6A463AA12046FF300F3000F094FA7E
:103D600038BD000020203C2020202020C9E8202051
:103D7000D6C320202020202020000000A8FAFF1F0A
:103D8000202020312E2020CAB1BCE4CDA3B3B52021
:103D90002025346420200000202020322E2020BE48
:103DA000E0C0EBCDA3B3B520202534642020000073
:103DB000202020332E2020B1A32020BBA4202020AF
:103DC0002020257300000000202020342E2020B564
:103DD000F72020CAD42020202020257300000000D6
:103DE000202020352E20204C20452044202020203B
:103DF0002020257300000000202020362E2020B730
:103E0000E420C3F920C6F72020202573000000001D
:103E1000202020372E2020C0B62020D1C0202020F6
:103E20002020257300000000202020382E2020486C
:103E300075616E5F4C522020202025730000000029
:103E4000202020392E2020582058203520202020C6
:103E5000202025730000000010B504468248408CE5
:103E6000030000F054FA061D04090E13181D7FA16B
:103E7000204600F009FA14E082A1204600F004FA7E
:103E80000FE086A1204600F0FFF90AE089A1204654
:103E900000F0FAF905E08DA1204600F0F5F900E008
:103EA00000BF00BF7048408C401E2821484340009E
:103EB0008C490A5A8CA120461E3000F0E5F96A4868
:103EC000408C401E28214843401C400085490A5A26
:103ED0008BA120463C3000F0D7F96348408C401E4F
:103EE00028214843801C40007E490A5A8AA1204666
:103EF0005A3000F0C9F95C48408C401E28214843E4
:103F0000C01C400077490A5A89A12046783000F049
:103F1000BBF95548408C401E28214843001D4000F5
:103F200070490A5A88A12046963000F0ADF94E48F3
:103F3000408C401E28214843401D400069490A5AD0
:103F400087A12046B43000F09FF94748408C401EBE
:103F500028214843801D400062490A5A86A1204614
:103F6000D23000F091F94048408C401E282148434F
:103F7000C01D40005B490A5A85A12046F03000F080
:103F800083F93948408C401E2821484308304000BE
:103F900054490A5A84A12046FF300F3000F074F9CA
:103FA0003148408C401E2821484340004D490A5A60
:103FB00083A12046FF302D3000F066F92A48408C5E
:103FC000401E28214843400046490A5A82A1204603
:103FD000FF304B3000F058F92348408C401E282118
:103FE000484340003F490A5A81A12046FF306930CA
:103FF00000F04AF91C48408C401E282148434000EC
:1040000038490A5A80A12046FF30873000F03CF939
:104010001548408C401E28214843400031490A5A27
:104020007FA12046FF30A53000F02EF90E48408CCD
:10403000401E2821484340002A490A5A7EA12046B2
:10404000FF30C33000F020F90748408C401E282183
:104050004843400023490A5A7DA12046FF30E13001
:1040600000F012F910BD0000A8FAFF1F20203C202C
:10407000202020B7BD2020B0B82020D2BB20202097
:104080002020000020203C20202020B7BD2020B090
:10409000B82020B6FE2020202020000020203C2038
:1040A000202020B7BD2020B0B82020C8FD2020202F
:1040B0002020000020203C20202020B7BD2020B060
:1040C000B82020CBC42020202020000020203C202D
:1040D000202020B7BD2020B0B82020CEE520202011
:1040E0002020000028F9FF1F202020312E2020C48E
:1040F000BFB1EABDC7B6C820202534642020000027
:10410000202020322E2020C4BFB1EACBD9B6C8204F
:104110002025346420200000202020332E2020BDC4
:10412000C720B6C82050202020253464202000005D
:10413000202020342E2020BDC720B6C820442020B7
:104140002025346420200000202020352E2020CB84
:10415000D920B6C82050202020253464202000001B
:10416000202020362E2020CBD920B6C82049202060
:104170002025346420200000202020372E2020D746
:10418000AA20CFF2205020202025346420200000D7
:10419000202020382E2020D7AA20CFF22044202013
:1041A0002025346420200000202020392E202048A3
:1041B00075616E4164642020202534642020000055
:1041C00020202031302E2074642020202020202028
:1041D000202534642020000020202031312E20585A
:1041E0005858585858582020202534642020000062
:1041F00020202031322E2058585858585858202006
:10420000202534642020000020202031332E205827
:104210005858585858582020202534642020000031
:1042200020202031342E20585858585858582020D3
:10423000202534642020000020202031352E2058F5
:104240005858585858582020202534642020000001
:1042500020202031362E20585858585858582020A1
:1042600020253464202000000FB410B503A9044BAE
:10427000044A029800F0B0F910BC08BC04B018471A
:104280005D60000020F1FF1F0FB410B504A9074BBB
:1042900002AA039800F0A0F9044602A9002000F049
:1042A00037FD204610BC08BC04B01847114D000073
:1042B0002021020C01D010211046020A01D0104624
:1042C0000839020901D01046091F820801D01046A2
:1042D000891E420801D0881E7047081A7047F8B539
:1042E00082B28BB204140D141046584300212646A6
:1042F0005E43371436048019794116466E433714ED
:1043000036048019794126466E438919F8BD30B4C8
:104310007446641E2578641CAB4204D3635D5B0065
:10432000E31830BC18471D46F8E700004900CA02F0
:104330000243100000D004204A0D01D00122104396
:10434000044A490D914201D102210843012800D1BC
:1043500005207047FF070000F8B504464F1EC8004F
:104360000838211815461E46086849683A4606234B
:104370009A4310D02A463346FCF73AF93A46D2001F
:10438000083AA3181A687F1E5B68FCF77FF80622BC
:104390003B469343EED1022F23D0042F11D0062F9A
:1043A0002FD12A463346FCF723F9E36AA26AFCF7C9
:1043B0006DF82A463346FCF71BF9636A226AFCF75C
:1043C00065F82A463346FCF713F9E369A269FCF75E
:1043D0005DF82A463346FCF70BF963692269FCF75E
:1043E00055F82A463346FCF703F9E368A268FCF760
:1043F0004DF82A463346FCF7FBF863682268FCF761
:1044000045F8F8BD10B50122FCF737FB10BD10B51B
:10441000FCF73CF810BD002210B5134610461146BB
:10442000FCF74EF910BD0000034A10B5002011073B
:10443000FCF723FB10BD000001FDFFFF02E008C8F0
:10444000121F08C1002AFAD17047002001E001C103
:10445000121F002AFBD17047014908607047000015
:1044600024F1FF1FF0B51FB486B00998089A030D18
:104470000021024314D05148514A181850430514E2
:104480001198012810981AD0281A401C00264D4F68
:104490004D49009601910490002812DA444211E03F
:1044A0001198012449A3012801D11098C14306980D
:1044B000119A84600360C26041600BB0F0BD40425D
:1044C000E4E70446210500203F4A001C51410391C6
:1044D000029012E0E00707D032463B46019900986F
:1044E000FCF786F80191009032463B46104619468B
:1044F000FCF77EF806460F466410002CEAD10498BB
:10450000039B0028029A0999089806DAFCF770F8CC
:10451000019B009AFCF76CF805E0FCF7D1F8019BD1
:10452000009AFCF7CDF804460E460022284BFCF713
:10453000DBFA03D80020C043014607E00022254BE8
:1045400020463146FBF7A2FFFCF7AEFA102409E043
:10455000002C0ADB0A220023FCF79CF9079B30326F
:104560001A55641E02460A43F2D11122641C079BAD
:10457000121B1C19119B012B03D0012308430ED1E0
:104580000AE0084304D0112010900020119077E732
:104590001098151A6D1E0BE01098824202DD002360
:1045A0006D1C03E0824201DA00236D1E002BEED069
:1045B000069811998260C16030C07EE701FCFFFF60
:1045C000104D0000000014400000F03F30000000DB
:1045D0000000F0430000E03FFFB597B0064600251D
:1045E00018E2252877D100242746FD49049400E0ED
:1045F0000443761C32780120203A90400842F7D1DB
:1046000030782A280ED00222307801463039092924
:1046100016D804990A235943303940181443761C9C
:104620000490F1E7189802C804911890002904DA60
:104630000120400304434842049002200443761CB6
:1046400030782E2814D1042004437078761C2A2850
:1046500009D11898761C80C8189009E00A214F43A8
:10466000303FC719761C3078014630390929F5D911
:1046700030786C2810D006DC4C281AD068280ED070
:104680006A2817D104E0742813D07A2812D110E0D8
:104690000120400504430CE00121090501E003214C
:1046A00009050C437178814203D1012000052418CB
:1046B000761C761C3078119066280BD013DC5828B5
:1046C0007DD009DC00287BD04528F6D04628F4D0E0
:1046D00047281AD1A5E118E0632835D0642870D0A6
:1046E000652812D19DE170286CD008DC6728F1D0D4
:1046F00069287BD06E280DD06F2806D1BAE07328C8
:104700002ED0752871D0782859D01A9A19999047C7
:104710006D1C7EE16002400F022809D003280DD0F5
:104720000428189801680DD00D60001D189070E1E4
:104730001898EA1701680D604A60F6E71898016852
:104740000D80F2E70D70F0E718986A460178117253
:10475000001D18900020507202A80090012005E072
:10476000189802C8189000200091C04361070DD529
:10477000002101E00199491C0191B94212DA8142FC
:10478000F8DB009A515C0029F4D10BE0002101E034
:104790000199491C01918142FADB019A0099895CD7
:1047A0000029F5D1019904981A9B471A21463846E9
:1047B000199A00F097FA0199401945180BE04FE05B
:1047C0002CE113E04EE0009800990078491C00911C
:1047D0001A9A199990470198401E0190401CF2D1F5
:1047E000214638461A9B199A10E137E00A20002129
:1047F000009001916002410F022907D0189A01CA66
:104800001892C2179446032908D00AE01898C01DD0
:10481000C108C90005C91891944607E000B2C21743
:104820009446042902D140B2C1178C460022614649
:10483000944506DA0A460021404291418C462D21DA
:1048400002E0210504D52B216A461173012103E002
:10485000E10701D02021F7E7029155E00A200AE0A4
:10486000102008E010200090002104200443019152
:10487000082703E008200021019100906002410F09
:10488000022907D0189A01CA1892002294460329D7
:1048900008D008E01898C01DC108C90005C91891C2
:1048A000944603E080B2042900D1C0B200210291F5
:1048B000210729D51199702906D0009A1021019B52
:1048C0004A401A4305D00EE040216A461173012187
:1048D00008E06146014306D030216A461173119900
:1048E000517302210291009A0821019B4A401A4308
:1048F0000AD16146014301D1610705D530216A46DD
:10490000117301217F1E02911199582904D035A1FC
:104910000E910DA90D910DE037A1F9E76146019BBC
:10492000009AFBF7B7FF0E9B8C469B5C0D9A521EBC
:104930000D92137061460143F0D10D9805A9081A34
:1049400020300190600703D501200004844300E07B
:1049500001270198874201DD381A00E00020019903
:1049600000904118029809180498401A0490E00336
:1049700006D421461A9B199A049800F0B3F94519F8
:10498000002706E003A81A9AC05D199990476D1C8C
:104990007F1C02988742F5DBE0030CD521461A9B69
:1049A000199A049800F09EF9451904E01A9A3020EB
:1049B000199990476D1C0099481E00900029F5DC5C
:1049C00008E00D980D990078491C0D911A9A1999D3
:1049D00090476D1C0199481E01900029F1DC63E1AC
:1049E00009280100303132333435363738396162C5
:1049F0006364656600000000303132333435363789
:104A000038394142434445460000000000F05AF95D
:104A10004519761C3078002800D0E2E528461BB006
:104A2000F0BD600700D406271898C01DC108C90052
:104A300048680A680831C30FDB071891190001D0D4
:104A40009CA108E0210501D59BA104E0E10701D06C
:104A50009AA100E09AA1430011985B081091652883
:104A60000CD006DC452809D046281DD0472841D166
:104A700041E0662818D067283CD13CE00021112F86
:104A800001DB112000E0781C0191009008A911A819
:104A9000FFF7E8FC139905910021119A15927F1CEC
:104AA00012980197009150E00120C0070390012067
:104AB000019008A9009711A8FFF7D4FC139A149944
:104AC00005920022119B009212981593059A01926B
:104AD000002901D0104602E0791C40180190381AD4
:104AE00001D5019804E04042401E0090781C0190DE
:104AF000C01B029043E0012F00DA01270021112F93
:104B000001DD112000E038460191009008A911A8AC
:104B1000FFF7A8FC13990591119A0021129815929C
:104B20000091019721070CD40599B94201DB019945
:104B300000E00191012904DD159A491E515C3029DC
:104B400006D0B84201DA011D05DA0121029115E013
:104B50000199491EEDE7002805DC009941180091F4
:104B60000199091A03E0019A411C914200DD01916B
:104B70000099401A401C02900120C00703902007B2
:104B800006D402990198814202DB0020C0430290C2
:104B900000206946C87707AF012103980337C9078A
:104BA000884224D0022011902B20129003980028D4
:104BB0000CDA404203902D20129007E00A2103985E
:104BC000FBF79CFA30317F1E039039701199481E13
:104BD00011900029F2DC03980028EFD1791E129879
:104BE00008703078202108404530BF1E387006A874
:104BF000C01BC01D039010980078002800D0012031
:104C0000019941180298C0170918039809180498C7
:104C1000401A401E0490E00306D421461A9B199ABC
:104C2000049800F05FF8451910980078002803D028
:104C30001A9A199990476D1CE00324D521461A9BB6
:104C4000199A049800F04EF845191CE000980028C5
:104C500007DB00990598884203DD1598405C199997
:104C600001E0199930201A9A904700986D1C401C59
:104C700000900298401E0290002804D11A9A2E201B
:104C8000199990476D1C0199481E01900029DDDC9F
:104C900005E038781A9A7F1C199990476D1C039982
:104CA000481E03900029F4DC21461A9B199A0498A7
:104CB000ACE600002D0000002B00000020000000EA
:104CC00000000000F8B5044600251E46174688047B
:104CD00004D405E039462020B0476D1C641EF9D588
:104CE0002846F8BDFFB50446002581B01E46C8031E
:104CF00001D5302700E02027880404D505E0384698
:104D00000399B0476D1C641EF9D5284605B0F0BD67
:104D10000A68531C0B60107070470000F0B587B034
:104D200006460F46002504A801F0A2F9002445E03C
:104D3000A0003058A1007958401A0190002801DBEA
:104D4000019901E0019949420846FBF72BFB8F21AD
:104D5000C9050090FBF75CFB0390A10004AA505822
:104D60000021FBF783FD19D0A00004AA1158039875
:104D7000FBF74EFB7F21C9050190FBF7CEFA0290AD
:104D800002984000400801900F48416A0198FBF7E3
:104D900077FD12D20120A04005430EE00A48C16908
:104DA0000398FBF763FD05D30748016A0398FBF7F7
:104DB00067FD02D20120A0400543641C032CB7DB31
:104DC000284607B0F0BD0000D07A0100F0B50446D7
:104DD0004F008E488FB07F080D460D91874228DB2B
:104DE0004042381820430CD08948874203DC874270
:104DF00018D1002C16D020462946FFF703FB0FB030
:104E0000F0BD844A844B20462946FBF7F1FB074658
:104E10000E46824A824B20462946FBF7E9FB3A467A
:104E2000334649E00120FFF717FBFFF7F4FA0FB014
:104E3000F0BD7C48874243DAF920800587420BDACF
:104E400020462946FFF772FA042801D1FFF7ECFA51
:104E5000204629460FB0F0BD22462B461046294673
:104E6000FBF7C6FB064602466F480F460B46062177
:104E70007844FFF771FA32463B46FBF7B9FB0690E0
:104E80006A48079132463B4604217844FFF764FAAA
:104E900032463B46FBF7ACFB00225C4BFBF7F6FAD5
:104EA00002460B4607990698FBF70AFC22462B465A
:104EB000FBF79EFB22462B46FBF7E8FA0FB0F0BD4E
:104EC0002046524C6900490800222346FBF788FB24
:104ED0000022D243FBF7D1FD0546024654480E4658
:104EE0000B4606217844FFF737FA2A463346FBF78C
:104EF0007FFB06904F4807912A46334604217844A9
:104F0000FFF72AFA2A463346FBF772FB00222346B4
:104F1000FBF7BCFA059104902846314602F0A2FE48
:104F2000089045480C46874219DB059B049A07996F
:104F30000698FBF7C5FB02460B4621460898FBF78F
:104F400057FB2346089AFBF7A1FA0122FBF795FDD0
:104F5000304A314BFBF73EFB304A314B4AE00027E9
:104F60003A460B460898FBF791FA3A4623460A91CF
:104F70000E9010461946FBF73BFB2A463346FBF7DB
:104F80002FFB0A9B0E9AFBF79BFB05460E46059BE3
:104F9000049A07990698FBF793FB0091049001226D
:104FA00028463146FBF769FD1A4A1B4BFBF718FBF5
:104FB0000E460546012221460898FBF75EFD009B40
:104FC000049AFBF715FB2A463346FBF703FB05461D
:104FD0000E46012238462146FBF74FFD0F4C174F76
:104FE00022463B46FBF7FCFA2A463346FBF7F8FA23
:104FF00022463B46FBF7F4FA0D9A002A00DD5DE7F6
:105000000122D20751400FB0F0BD00000000F03F78
:105010000000F07F075C143326A6913C182D445401
:10502000FB21F93F0000E03F7C380100923801008D
:10503000083801001E3801003333EF3FFB21E93F00
:10504000F0B589B004460D46480006917249400803
:10505000884215DB7149884203DC884207D1002C65
:1050600005D020462946FFF7CDF909B0F0BD6C48C0
:10507000002D02DD6B4909B0F0BD6B4909B0F0BDF0
:105080006A49884211DA6A4988420BDA2046294681
:10509000FFF74CF9042801D1FFF7C6F9204629464D
:1050A00009B0F0BD0026F6435DE06D0061496D0872
:1050B000884232DA6049884219DA002601233246F2
:1050C0009B0720462946FBF7E1F90746019101229B
:1050D00020462946FBF7D1FC0022584BFBF77AFA11
:1050E0003A46019BFBF7ECFA04460D463BE00126ED
:1050F0000022524B20462946FBF7C8F9074600918B
:1051000000224E4B20462946FBF764FA3A46009BA4
:10511000FBF7D6FA04460D4625E04949884219DADC
:1051200002260022474B20462946FBF761FA00225F
:10513000424BFBF7ABF9074602910022414B204658
:105140002946FBF747FA3A46029BFBF7B9FA0446B1
:105150000D4608E0032622462B4600203A49FBF77D
:10516000AFFA04460D4622462B4610461946FBF779
:105170003FFA07460B4602460191FBF739FA024611
:10518000029032480B46039106217844FFF7E4F879
:105190003A46019BFBF72CFA00902D48019105211E
:1051A0007844039B029AFFF7D7F8039B029AFBF718
:1051B0001FFA02460B4601990098002E0BDAFBF706
:1051C00065F922462B46FBF713FA22462B46FBF7DE
:1051D00007FA09B0F0BDFBF759F922462B46FBF759
:1051E00007FA1C4AF6007A4493191A685B68FBF7C1
:1051F000F1F922462B46FBF7EDF9174A7A44931949
:105200001A685B68FBF7ECF9069A002AE1DA0122DA
:10521000D207514009B0F0BD000010440000F07FFB
:10522000182D4454FB21F93FFB21F9BF0000DC3F5E
:105230000000203E0000F33F0000E63F0000F03F8A
:10524000008003400000F83F0000F0BF1A36010064
:10525000DC3501007635010040350100F0B51FB4A2
:10526000039B54425D00164626439C46F40F6D088E
:105270004B004E4E5B082C438E46B44205D8474245
:105280000743FC0F1C43B44204D96346FFF7BFF841
:1052900005B0F0BD464E6644164309D0CC0F6646B5
:1052A000B61702273E40264304461C4304D00BE0B9
:1052B000FFF7C6FE05B0F0BD002EFBD0012EF9D0E1
:1052C000022E32D0032E34D014462C430BD0374C50
:1052D000A54216D1A3420AD1012189078D438B43F0
:1052E000194603950DE0704600280FDB25E0314F8D
:1052F0007F44002E0ED0012E10D0022E15D0032E8A
:1053000017D0A3421DD17046002816DA2A482B492F
:1053100005B0F0BD7968386805B0F0BD0122796844
:10532000D2073868514005B0F0BD2348244905B084
:10533000F0BD2148234905B0F0BD1F48224905B002
:10534000F0BD5B1B1B153C2B02DD1B481E490FE00B
:105350006446002C05DA3C24E34202DA00200146D0
:1053600006E0039BFBF7ACF949004908FFF768FE2C
:10537000002EE4D0012E0BD0144A154B022E0CD077
:10538000FBF728F90C4A0E4BFBF724F905B0F0BDEA
:105390000122D207514005B0F0BDFBF71BF9064AC8
:1053A000074BFBF71DF905B0F0BD00000000F07FD2
:1053B000000010C0E4340100182D4454FB21F9BF53
:1053C000FB210940FB2109C0FB21F93F075C143395
:1053D00026A6A13CF8B50446E078C021084000901C
:1053E000E0788506AD0E6078C007C00F002813D0A6
:1053F000EE102846E917490F0918C910C900691AA3
:10540000491CCFB20C480068002804D00A4839462D
:1054100002683046904700BF6078082108400028A5
:1054200008D005484068002804D0009A9011024A2C
:10543000516888470020F8BD28FBFF1F38B5044697
:10544000002C09D0202168460170282141703021AC
:1054500081703821C17004E0A32204216846FAF764
:10546000ECFE6A460421034802F01EFB01F0D8FE60
:1054700038BD00009E0A00003EB504460221684681
:105480000170CA214170E32181700921C1706A460F
:105490000421682002F008FBA32168460170402027
:1054A0002040002807D0C02168464170C821817083
:1054B000C221C17004E0A321684641708170C170AF
:1054C000FF2081302040002807D0C42168460171A8
:1054D000CC214171C621817104E0A321684601718C
:1054E00041718171A3216846C171017241726A469E
:1054F0000A21644802F0D8FAA007800F002803D0E0
:1055000020206946087002E0D820694608706A4683
:1055100001215C480F3002F0C7FA2020204000280B
:1055200003D0012000F0B6F802E0002000F0B2F84D
:10553000FF208130204000281DD0FF200130204076
:10554000002809D0B221684601708B214170B62134
:1055500081709B21C17008E0B021684601708021F4
:105560004170B42181709021C1706A460421454880
:10557000401F02F099FAE007C00F002824D0F8205D
:10558000694608706A4601218B20000102F08CFAFE
:10559000FA21072000F068FC072000F02CFC012015
:1055A00000F04FFC642000F035FDFF20F53000F0E6
:1055B00043FDC821344800F0DDFB282000F0F7FB54
:1055C0000A2000F006FC08E0D820694608706A4608
:1055D00001218B20000102F067FA02202040002800
:1055E00003D0D9206946087002E0D82069460870C7
:1055F0006A460121254802F057FA0420204000287D
:1056000003D0012000F072F802E0002000F06EF8F4
:1056100010202040002803D00120FFF70FFF02E0F8
:105620000020FFF70BFF082020431949488101F0B3
:10563000F7FD00201649887340202040002803D041
:105640000846807B801D8873FF2081302040002821
:1056500004D00F48807B801D0D49887314202040A2
:10566000002804D00A48807B103009498873A007BD
:10567000800F002804D00648807B001D04498873F1
:1056800000203EBDA70A000009E3CA023D07000052
:1056900028FBFF1F3EB50446002C0DD00DA10A6863
:1056A000486889680092029101906A460921972012
:1056B000C00002F0F9F93EBD09A211685068926875
:1056C0000292009101906A4609219720C00002F0E1
:1056D000EBF9F0E7B8AAB38DB4980D355D00000082
:1056E000B8AAAAAAB088C3C5C700000038B5044646
:1056F000002C09D0C02168460170C2214170C4212C
:105700008170C621C17004E08B2204216846FAF73B
:1057100094FD6A460421034802F0C6F901F080FDB9
:1057200038BD0000980A000010B5C823012292027B
:105730000249034801F0FCFB10BD0000F87A0100AB
:10574000F60B0000FFB58DB007461546169E0024E7
:10575000002030806E49887B05A9179A01F0B6FCBD
:10576000002802D0601E11B0F0BD694840891421A4
:105770000840002869D06946087D0006497D090473
:1057800008436946897D090208436946C97D084383
:1057900028606946087E0006497E09040843694678
:1057A000897E090208436946C97E084368606946E4
:1057B000087F0006497F090408436946897F09027A
:1057C00008436946C97F0843A86008A9087800060D
:1057D00049780904084308A989780902084308A9F7
:1057E000C9780843E86020461030C4B22868001425
:1057F0000190686800140290A86800140390E8689B
:1058000000140490019840430299494341180398B9
:105810004043091804984043081800900F210906D6
:105820000098884204DB112109060098884205DDB2
:1058300001F0F6FC00203080401E94E70020305E2E
:10584000FF2101310843308000BF314840894021A9
:105850000840002824D005A8005D000205AA611CAC
:10586000515C084301B20E98018005A9A01C085C98
:105870000002E11C515C084301B20E98418005A969
:10588000201D085C0002611D515C084301B20E98A6
:105890008180A01DC4B20020305E08210843308002
:1058A0001B484089FF2181310840002821D005A8EC
:1058B000005D000205AA611C515C084300B23880FB
:1058C00005A9A01C085C0002E11C515C084300B261
:1058D000788005A9201D085C0002611D515C084309
:1058E00000B2B880A01DC4B20020305E7021084311
:1058F00030800748807A8007800F002803D005A9F0
:105900000819FFF767FD1098FAF778FD00202AE7DD
:1059100028FBFF1FF1B592B001A801F04DF96846D0
:1059200080880021420CC9031143C00303910290F7
:105930004F48007A8007010F1298405807904C4852
:10594000008904210840002802D0079840420790AF
:105950004748007AC006800F81001298405808908E
:105960004348008920210840002802D0089840427E
:1059700008903F48007A0006800F81001298405836
:1059800009903B480089FF2101310840002802D0DE
:105990000998404209900798C117039D029C22462E
:1059A0002B4610911190FAF7F9FB8900800F0843FC
:1059B00007900898C117039D029C26462F46324641
:1059C0003B460E910F90FAF7E9FB8900800F0843E0
:1059D00008900998C117039D029C22462B460A9500
:1059E0000B940C910D90FAF7D9FB8900800F0843B6
:1059F00009900798010E6846017407980002010E8D
:105A00006846417407980004010E6846817407983F
:105A1000C1B26846C1740898010E684601750898BD
:105A20000002010E6846417508980004010E6846A0
:105A300081750898C1B26846C1750998010E68461B
:105A4000017609980002010E684641760998000423
:105A5000010E684681760998C1B26846C17604AAEB
:105A60000C21A520800002F01FF813B0F0BD00004B
:105A700028FBFF1F30B585B0044616A207CA02AB4B
:105A800007C3C82C03DD0020C04305B030BD21464C
:105A9000C820FAF749FB401E85B2281269460870F3
:105AA0004D706A4602210E4801F0FEFF002802D028
:105AB0000020C043E9E702AA0C210A4801F0F4FFE4
:105AC000002802D00020C043DFE70748848100207F
:105AD000DBE70000FEF2ABC4AAF1DFDFBBAFDFDF24
