:020000040000FA
:10000000180E0020D7000000E3000000E50000000B
:1000100000000000000000000000000000000000E0
:10002000000000000000000000000000E7000000E9
:100030000000000000000000E9000000EB000000EC
:10004000ED000000ED000000ED000000ED000000FC
:10005000ED000000ED000000ED000000ED000000EC
:10006000ED000000ED000000ED000000ED000000DC
:10007000ED000000ED000000ED000000ED000000CC
:10008000ED000000ED000000ED000000ED000000BC
:10009000ED000000ED000000292B0000513F0000A2
:1000A000ED000000ED000000ED000000ED0000009C
:1000B000ED000000ED000000ED000000ED0000008C
:1000C0000348854600F0B8FC00480047E57F000083
:1000D000180E0020704706488047064880470648AB
:1000E0000047FEE7FEE7FEE7FEE7FEE7FEE700006B
:1000F000A1450000D5000000C100000030B50B464E
:10010000014600202022012409E00D46D5409D42F1
:1001100005D31D469540491B254695404019154677
:10012000521E002DF1DC30BD70B50024254600289C
:1001300001DA01244042002901DA01254942FFF792
:10014000DDFFAC4200D04042002C00D0494270BDDF
:1001500003460B439B0703D009E008C9121F08C0E0
:10016000042AFAD203E00B780370401C491C521E8B
:10017000F9D27047D2B201E00270401C491EFBD296
:1001800070470022F6E710B513460A4604461946A2
:10019000FFF7F0FF204610BDF8B502464A40D40FE5
:1001A00042004B0052085B089A4202D202460846BF
:1001B00011464A0023D0C30D4A00DDB2120EAD1A1B
:1001C000202D35DA49020126490AF6058A19002C44
:1001D00000D0524220214F1B1146B9402A4110182D
:1001E000C20D9A4221D0002C17D0012D08DCDA056F
:1001F000801AD20F8019D207DBB200F051FBF8BD94
:10020000DA05801A012340001B06C01880185A42E4
:100210008018CA0F1043490007E04908C20711437C
:10022000DA05801A80194008801800F031FBF8BD0B
:1002300061000122511A001BF7E70122D207514049
:10024000AAE70122D2075040A6E7024670B54A400D
:10025000D30FDB0740002DD04A002AD0010E140E28
:10026000000212020919400A520A8418E5010446E4
:100270005443000A120A2E045043A4194219200CB8
:10028000C543AA18120C0125AD03521C52191204C1
:100290007F39240400D0521C104301D44000491E71
:1002A000C2B20C06C0092018401C4008802A02D0A7
:1002B00003E0002070BD40084000002900DA002063
:1002C000184370BD70B502464A40D50F40004A0041
:1002D000ED0740085208002814D0002A12D0C40D9F
:1002E000D30D41020120C0055202490A520AE41A04
:1002F000091812187D34914201D3641C00E04900B2
:10030000002C01DA002070BD0023914201D3891A2C
:100310000343400849000028F7D100290AD0914240
:1003200002D10121C90705E0914201D2012101E07A
:100330000121C943E005C018401900F0A9FA70BDB9
:10034000C217C10F504010B54018CA0796230021AC
:1003500000F0A6FA10BD10B500229623114600F059
:100360009FFA10BD0EB5C217C10F5040CA07401802
:100370000021054B0293019200910A460B4600F0C2
:10038000D5FA03B000BD0000330400000EB50549E6
:100390000291002100910A460B46019100F0C6FA35
:1003A00003B000BD33040000410040020122400AB6
:1003B000D205090E80187F2901DA0020704796299E
:1003C00003DC9622511AC84070479639884070471E
:1003D000C20FD207400040080BD0C10D0723DB013C
:1003E000C91840020905400A1143C20840071143D9
:1003F000704700200146704710B500F009F810BDA5
:10040000FFFFFFFFFFFFFFFFFFFFFFFFFFFFFEFEFE
:10041000F0B507460846584087B0C00F0490480022
:100420000E46590040084908BC1A884105D2384692
:1004300031461E4617460B460246580040081043F8
:100440004CD0300D039040055900400D490D0590EA
:10045000401A0290402872DA18030121000B0905A6
:100460000843019004980092002805D00199524257
:100470000020884100920190029840210A1A0199B7
:10048000009800F0D1F905460C466B4607CB00F00A
:10049000ECF9C0197141039A0E0D0023D71756408D
:1004A0001A467A40164344D0049A002A2DD0029A64
:1004B000012A039A15DC1205C01A9141012636055E
:1004C000001C7141D20F059ED20700930192029643
:1004D0002A46234600F02AFA07B0F0BD38463146D6
:1004E000FAE71605224A0F46B218C01AB741012191
:1004F0000905001C4F4100187F4111461818794129
:10050000E20F10436D19644113E0E2076D081543D3
:100510006408C2071443039A01261205C01A9141C8
:100520003605001C7141CE07400830434908C01809
:1005300051412A46234600F0ECF9CDE7FFE7049845
:1005400001224000C117121A00238B410498314642
:10055000C417381AA141EEE730B40124E407634020
:1005600030BC55E730B40124E407614030BC4FE7AC
:100570000000E0FFF0B51FB488B00B990998002483
:1005800048400999C00F490049080991C0070B99D3
:100590000090490049080B9109990898A64608431C
:1005A0001CD00B990A98084318D0099801244000E0
:1005B000420D4800410D099824050003000B20431B
:1005C00009900B980003000B20430B9050181C4916
:1005D0004018002201901446104605E00020014614
:1005E0000DB0F0BD032801DA034600E003239C466A
:1005F000C11A0AAE0AE05F0008ADED5B4F00F75B81
:100600007D430027AA187C41491C5B1E6145F2DD31
:10061000410004AB5A522104120C0A43240C401C22
:100620000828DFDB01980290009970460191009044
:10063000059B049A0799069800F078F9D0E7000026
:100640000DFCFFFFF0B50C465C4085B0E40FE407FD
:1006500003944C0000266408590094464908024659
:100660000296224321D062460A431ED06200570DF3
:100670004A000E032303550D012402462C4924058C
:10068000781B1B0B360B4018234326436146009012
:100690001C46501AB44103D30098401C009002E05D
:1006A000921800985B41002803DA0020014605B04B
:1006B000F0BD0020012109050746864611E0644689
:1006C0001D46141BB54106D36546521BB341744603
:1006D00007430C43A646CD07400849082843921813
:1006E0005B4105460D43EAD11046184313D06046DE
:1006F000194650407140084306D06046101AB34175
:1007000006D20122002306E000220123DB0702E0DB
:100710000122D2435310009874460105381C6141F0
:10072000029C039D0019694100F0F3F8BFE7000047
:10073000FD03000070B5CD0F4A0009030123090B2A
:100740001B0519430B4BED070024520D9A4201DAA9
:10075000002070BD074B34339A4203DC9A1A00F034
:1007600073F802E00449511888402C43F1D040420C
:1007700070BD0000FF030000CDFBFFFFCB0FDB07C8
:10078000490010B5490802460A4307D00A0D07245C
:100790000903E401090B121B002A01DC002010BD33
:1007A000C900440F0C43C100E018D205801800F0C6
:1007B0006FF810BD0122D207002800DB101A0029B3
:1007C00000DB511A88427047F0B51FB4064600207E
:1007D00082B005464024019100901BE00199224619
:1007E0000F46304600F030F8049A059B801A994174
:1007F00010D310461946224600F016F8361A8F41DB
:100800000197224601200021009F00F00DF83818C2
:100810004D4100902046641E0028DFDC019B0098BB
:100820002946324607B0F0BD10B5202A04DB014648
:10083000203A9140002010BD914020239C1A03468D
:10084000E3401943904010BD10B5202A04DB084650
:10085000203AD040002110BD0B46D340D040202488
:10086000A21A91400843194610BD10B5202A06DB94
:10087000CB170846203A1041C1170B4306E00B4640
:100880001341D0402024A21A91400843194610BDBC
:10089000002904DA401C490001D14008400070479B
:1008A00070B40024050C05D11024000402D10029E5
:1008B00021D01124050E01D100020834050F01D109
:1008C0000001241D850F01D18000A41C002801DB3C
:1008D0004000641C002908D020252E1B0D46F54041
:1008E000A14000D001212943084301061B1B000A37
:1008F000DB1D02D5002070BC7047DB05181880187E
:100900000029F8DA401C4900F5D170BC40084000CD
:10091000704710B5002B08DA0024401C6141921882
:100920005B411A4301D14008400010BDF0B51FB42F
:1009300082B005460C0003D0084606F077FA02E0C4
:1009400006F074FA20300246009021462846FFF750
:100950006BFF049B059A04460F4618431143084356
:1009600014D0184610431BD0009840210A1A18468C
:100970000599FFF769FF05460E46009A0599049808
:10098000FFF752FF084305D0012004E02046394616
:1009900007B0F0BD0020C11705430E432C43374379
:1009A00000990E986305401A7905E40A00220C4369
:1009B000FD0A0A3002D500200146E9E701051019B9
:1009C00069410C9C0D9D00196941FFF7A2FFDFE70B
:1009D0004A0009030123090B1B0519430A4B10B5F3
:1009E000520D9A4202DA0020014610BD064B343304
:1009F0009A4203DC9A1AFFF727FF10BD034BD21867
:100A0000FFF712FF10BD0000FF030000CDFBFFFF4A
:100A100010B5002904DB0124E40740428C41214643
:100A2000002B04DB1C460123DB075242A341994201
:100A300000D1904210BD0000064C0125064E05E095
:100A4000E36807CC2B430C3C98471034B442F7D3EF
:100A5000FFF73AFB50BB000070BB000070B54B00C5
:100A60005B0803430BD04B005C0D00263346654208
:100A7000B341D417AD1AA34102DB0020014670BD7B
:100A800012053018514170BD70B58C180578401CA6
:100A90006B075B0F01D10378401C2A1106D1027845
:100AA000401C03E006780E70401C491C5B1EF9D107
:100AB0002B0705D40023521E0DD40B70491CFAE7F6
:100AC0000378401CCB1A921C03E01D780D70491C62
:100AD0005B1C521EF9D5A142D8D3002070BDF3B5DE
:100AE00081B00C460025002704E0019800F060F872
:100AF00045197F1CA742F8DB21462846FFF714FB67
:100B00000090FFF71DFC06463046FFF74DFC80B213
:100B1000FEBD000015494969012252071143134ADD
:100B2000516113498968124A9160114649685160C0
:100B30000021116011460968202211430C4A1160FE
:100B40001146096840221143094A1160114689691A
:100B50000122824092B21143054A9161114689688F
:100B600008221143024A916070470000008004404F
:100B700000B00340014600200C4A1268520952019D
:100B8000CB06DB0E1A43094B1A6000BF074A1268F6
:100B900080231A40002AF9D0044A126990B2034A0D
:100BA00012689A43014B1A607047000000B003407E
:100BB000F1B50098FFF7DEFF04460098FFF7DAFF73
:100BC00005460098FFF7D6FF0646AC4202DD2746F1
:100BD0002C463D46AE4201DD2F4604E0A64201DD33
:100BE000374600E027463846F8BD10B50020FFF72D
:100BF00091FF0120FFF78EFF0E20FFF78BFF0D20E6
:100C0000FFF788FF0C20FFF785FF10BD10B500F03F
:100C100065F800F0C7FF00F0DBFA00F039FAE121D7
:100C20004902012003F0ECFC01F0CAFC01F060FC79
:100C300001F09EFB00F080FA00F01AFFFFF7D5FFED
:100C4000184A0021184807F0BDF918481649C8602D
:100C500017480861134A002113481C3007F0B2F905
:100C60001249114881621249C16200BF01F07CFA49
:100C70000028FBD101F026FC01F048FC64200D495E
:100C8000088000220521104603F06CF97D20C00089
:100C900000F010FA084840680121C90708430649D6
:100CA000486010BD00002041A4F9FF1FFAED6B3A27
:100CB0000AD7233C00F0FF1F40F00F400548408A50
:100CC000012806D10448406801214902084302492D
:100CD0004860704794FBFF1F00F00F4010B50F48AD
:100CE00040690121490208430C49486108464068AF
:100CF00049150843094948600846406849150843B2
:100D000006494860052000F0D5F9044880680121B3
:100D1000490208430149886010BD000000F00F40FF
:100D2000F0B589B006460F461546287844B200BF94
:100D3000A1B202A800F036FCF01B401C0D2250436B
:100D4000C1B2002302AA722001F019FE0020019016
:100D500000F0E4FA012806D0022807D0032808D0C2
:100D6000042830D12AE0601C44B22CE0601E44B25A
:100D700029E0012001903046C730264908802888A4
:100D800009884900244A5052002009E04100FF220E
:100D900052028918098842001F4B9952411C88B29F
:100DA000FF28F3DD2C80FF2000F0FAF90023012258
:100DB00052021949FF2000F025FA04E0287844B2D5
:100DC0000120019000BF00BF012C01DD002000E0E8
:100DD00020460446002C01DA012000E020460446AB
:100DE0000198012810D1A1B202A800F0DBFBF01B92
:100DF000401C0D225043C1B2012302AA722001F00F
:100E0000BEFD01F0A5FC02E001F0A2FC90E700BFEE
:100E100009B0F0BD4CF1FF1F14FAFF1FF0B58BB005
:100E200005460F461646308804B27948844200DDF4
:100E300000E020460446012C01DA012000E02046B3
:100E4000044600BF224673A104A805F0DBFF002082
:100E50000090E81B401C0D225043C1B20C2304AA91
:100E6000662001F06FFD0020039000F057FA0300A8
:100E700005F0F3FF06B0040D163249B0601C04B251
:100E80006348844200DD00E020460446A2E0012CD5
:100E900001DA012000E020460446601E04B299E019
:100EA00001200390002009E04100FF22520289182E
:100EB00009884200594B9952411C88B2FF28F3DD42
:100EC0003480FF2000F06CF90023012252025349C4
:100ED000FF2000F097F97DE00A2D0FDB122D0DDCCD
:100EE0002046E10F091849104900611A01D1214635
:100EF00002E02146621E14B20C466BE00120039012
:100F0000308804B266E00A2D10DB122D0EDC20467C
:100F1000E10F091849104900611A012901D1214640
:100F200002E02146621C14B20C4653E000200290FD
:100F300000BF3B480088201804B23548844200DDD9
:100F400000E020460446002C01DA002000E02046A4
:100F5000044600F0E3F9032806D0042820D13088A5
:100F600004B2012002901BE0002009E04100FF22B2
:100F70005202891809884200284B9952411C88B2B4
:100F8000FF28F3DD3480FF2000F00AF9002301225E
:100F900052022249FF2000F035F90120029000BFE3
:100FA00000BF22461FA104A805F02CFF00200090DE
:100FB000E81B401C0D225043C1B20C2304AA66203A
:100FC00001F0C0FC01F0C4FB02980028B1D000BFC2
:100FD00000BF00BF00BF0398012813D122460DA116
:100FE00004A805F00FFF01200090E81B401C0D2213
:100FF0005043C1B20C2304AA662001F0A3FC01F007
:10100000A7FB02E001F0A4FB1CE700BF0BB0F0BDA2
:101010000F270000253464200000000014FAFF1F91
:1010200098F0FF1F253464230000000070B50546CA
:1010300001F048FAECB220E0642014490880204610
:101040003030C2B201230021282001F025FC01F03C
:101050007FFB012C04D14B20C00000F02BF80AE0EC
:10106000AF20800000F026F800F058F9042801D1E4
:10107000012070BD00BF601EC4B2002CDCD1FF2077
:101080002D30024908800020F3E7000000F0FF1F28
:10109000002009E04100FF2252028918098842001D
:1010A000034B9952411C88B2FF28F3DD70470000C2
:1010B00014FAFF1F10B5034600240DE0084800F0A5
:1010C00011F800BF00BF00BF00BF00BF00BF00BFDE
:1010D00000BF00BF601C84B29C42EFD310BD000073
:1010E000E7030000002123E000BF00BF00BF00BFF6
:1010F00000BF00BF00BF00BF00BF00BF00BF00BFF8
:1011000000BF00BF00BF00BF00BF00BF00BF00BFE7
:1011100000BF00BF00BF00BF00BF00BF00BF00BFD7
:1011200000BF00BF00BF00BF00BF00BF4A1C91B29C
:1011300042008A42D8D8704710B5002006F060FD02
:10114000012006F05DFD1448806901218902884371
:101150001149886108464069091588430E4948616C
:101160000E488068091508430C4988600A484030D9
:1011700080692021884308494031886108464069D8
:10118000202188430449403148610448C068202137
:1011900008430249C86010BD00F00F4000900440B1
:1011A00070B505466C020020084948700A20487254
:1011B0002002000E0872012048702004000E4872C0
:1011C0000C7200F063F8002070BD000000000240C7
:1011D0000A494969012212031143084A516100BFBB
:1011E00007494979802211400029F9D0272001467A
:1011F0004031034AD1703021517170470080044062
:1012000000000240FFB581B007460C467902049801
:101210000D1804260020009023E000201449487097
:10122000062048722802000E087201204870280427
:10123000000E4872FC202840087202204870207876
:1012400008726078487203204870A0780872E078CD
:101250004872A419AD1900F019F80098801980B2ED
:101260000090039900988842D7D3002005B0F0BDC4
:101270000000024010B58300034CE3580C33CC004F
:101280001B195A6010BD000098BA000010B572B664
:1012900030200A4948710A480A4908600748401D39
:1012A0000968884762B6054840793321084000281C
:1012B00001D0012010BD0020FCE70000000002402A
:1012C0004FF1FF1F5CF1FF1F10B504460C2C1ED020
:1012D00004DC002C07D0012C1ED109E00D2C11D00C
:1012E0000E2C19D109E005210020FFF7F8FB10BDF5
:1012F00005210120FFF7F3FBF9E701210E20FFF79D
:10130000EEFBF4E701210D20FFF7E9FBEFE7C82131
:101310000C20FFF7E4FBEAE70020E8E708B500202F
:1013200000906848006980210840002835D166484F
:101330000078FFF7BFFE634800698021084000285D
:1013400028D162480088401C60490880084600880F
:10135000142803DD01205C49087016E05B48008812
:101360000A2803DD0A20584908700EE05748008813
:10137000052803DD1E205449087006E05348008804
:10138000032802DD28205049087001200090052024
:101390004F4908806846007808BD4A4800694021E6
:1013A0000840002835D148480078FFF783FE4548BB
:1013B000006940210840002828D144480088401C8A
:1013C0004249088008460088142803DD01203E4970
:1013D000087016E03D4800880A2803DD0A203A49D3
:1013E00008700EE039480088052803DD1E203649C4
:1013F000087006E035480088032802DD28203249BD
:101400000870022000900520314908806846007865
:10141000C2E72C484030006910210840002812D152
:1014200029480078FFF746FE264840300069102121
:101430000840002804D10520254908800320009099
:1014400068460078A8E71F484030006901218902FA
:101450000840002813D11C480078FFF72BFE1948DC
:1014600040300069012189020840002804D105208C
:101470001749088004200090684600788CE71148DE
:1014800040300069012149020840002812D10E486D
:101490000078FFF70FFE0B48403000690121490238
:1014A0000840002803D105200949088000906846BB
:1014B000007871E73C200449087000200349088047
:1014C00000BF69E700F00F4004F0FF1F02F0FF1FAC
:1014D00000F0FF1FF0B593B004460D4616461F46B8
:1014E0000020385EFEF72CFF0190FEF771FF244AC2
:1014F000244B03910290FFF7A5F8234A234B059153
:101500000490FFF737F8099108902068FEF760FF14
:1015100007910690099B089AFFF71EF81C4A1D4B7D
:101520000B910A90FFF726F80F910E900020305E85
:10153000FEF718FF079106900020285EFEF712FFC5
:1015400005910490079B069A06F08CFA0C4A124B00
:1015500009910890FFF70EF8104A114B0B910A9071
:10156000FFF708F80D910C900F9B0E9AFEF750FFB5
:1015700011911090FFF702F9206013B0F0BD000048
:1015800066666666666630407B14AE47E17A743FF5
:101590002B8716D9CEF7EF3F66A64C40FCA9F1D2B7
:1015A0004D62503F70B505460C46002C02D0012C10
:1015B0000AD104E008A1284605F024FC09E007A1AF
:1015C000284605F01FFC04E005A1284605F01AFC9A
:1015D00000BF00BF70BD0000B9D80000BFAA000066
:1015E0003F3F0000FEB500F06DFFEE48C08A0028C6
:1015F0000DD1ED4840680121C9070843EA49486018
:1016000008464068012149070843E749486001202E
:10161000E64908700020E6490860E64908600025B0
:1016200000F066FF0020E44908700120E3490870DB
:10163000E3490870DB48408C401E2821484384B2AF
:101640006000E049085AE0490880601C4000DD491C
:10165000085ADE490880A01C4000DA49085ADC49D3
:101660000880E01C4000D749085ADA490880201D4C
:101670004000D449085AD8490880601D4000D1492B
:10168000085AD6490880A01D4000CE49085AD449BE
:101690000880E01D4000CB49085AD2490880204606
:1016A00014304000C749085ACF49088020461530F9
:1016B0004000C449085ACD490880204616304000F1
:1016C000C049085ACA490880204617304000BD4921
:1016D000085AC8490880204618304000B949085ABD
:1016E000C5490880204619304000B649085AC34908
:1016F000088020461A304000B249085AC049088084
:1017000020461B304000AF49085ABE490880204699
:101710001C304000AB49085ABB49088020461D30A8
:101720004000A849085AB949088020461E304000A8
:10173000A449085AB649088020461F304000A149F4
:10174000085AB44908802046203040009D49085A74
:10175000B14908802046213040009A49085AAF49D3
:1017600008802046223040009649085AAC4908803B
:101770002046233040009349085AAA490880204651
:10178000243040008F49085AA74908802046253058
:1017900040008C49085AA54908808248408C401E68
:1017A00028214843093040008649085AA04908804A
:1017B0007C48408C401E282148430A304000814923
:1017C000085A9C4908807748408C401E282148438D
:1017D0000B3040007B49085A974908807148408C7B
:1017E000401E282148430C3040007649085A93494E
:1017F00008806C48408C401E282148430D30400032
:101800007049085A8E4908806648408C401E28213D
:1018100048430E3040006B49085A8A4908806148A5
:10182000408C401E282148430F3040006549085A2B
:10183000854908805B48408C401E28214843103071
:1018400040006049085A814908805648408C401E33
:1018500028214843113040005A49085A7C490880E1
:101860009EE0002650480069FF2101310840002811
:1018700003D101260120774908704A48C08C01280D
:1018800015D175490020085EFF212D3188420DDCFD
:1018900071490020085E7149884207DB7048008862
:1018A000C82803DB6F480088C82800DA01263D48B5
:1018B000008D002809D03E48006881004118394851
:1018C000008D0A225043814219D83648408D0028A5
:1018D0001FD03449488DFEF73EFD63490090FEF766
:1018E000F1FC0746614933480068FEF707FC0090A9
:1018F000FEF731FD39460190FEF75CFF09D2012069
:1019000054490870002029490870C820FFF7D2FB0D
:101910000126FFF703FD002801D1002E01D0012090
:1019200000E00020002800D138E0002022490870A3
:1019300001202249087000201C4908701A4880685C
:101940000121C907084318498860084680680121B9
:10195000490708431449886000203E490870184927
:1019600008701148403040680121C90708430E49FA
:10197000403148600C4840680121490608430A4943
:101980004860084640680121090608430649486046
:1019900000F0BCFD00F014FE0020FEBD00BF00BF43
:1019A0005FE7000094FBFF1F00F00F40C6F0FF1F31
:1019B000C8F0FF1FCCF0FF1FC4F0FF1FC5F0FF1FD2
:1019C00042F1FF1F14FAFF1FD2F0FF1FD4F0FF1FD8
:1019D000D6F0FF1FD8F0FF1FDAF0FF1FDCF0FF1F6B
:1019E000DEF0FF1FE0F0FF1FE2F0FF1FE4F0FF1F3B
:1019F000E6F0FF1FE8F0FF1FEAF0FF1FECF0FF1F0B
:101A0000EEF0FF1FF0F0FF1FF2F0FF1FF4F0FF1FDA
:101A1000F6F0FF1FF8F0FF1FFAF0FF1FFCF0FF1FAA
:101A2000FEF0FF1F00F1FF1F02F1FF1F04F1FF1F77
:101A300006F1FF1F08F1FF1F0AF1FF1F0CF1FF1F46
:101A40000EF1FF1F10F1FF1F12F1FF1F14F1FF1F16
:101A500016F1FF1FD0F0FF1F98F0FF1FD4FEFFFF0D
:101A600088F0FF1F8AF0FF1F0000C842F415000035
:101A70003A4880698021884338498861084640692E
:101A80008021884335494861354880688021084372
:101A90003349886031488069402188432F498861F3
:101AA00008464069402188432C4948612C48806899
:101AB000402108432A498860284840308069102125
:101AC000884326494031886108464069102188438F
:101AD0002249403148612248C0681021084320490A
:101AE000C8601E4840308069091588431B49403151
:101AF00088610846406909158843184940314861A2
:101B00001748C068091508431549C8601348403094
:101B10008069491588431149403188610846406908
:101B2000491588430D49403148610D48C068491541
:101B300008430B49C86009488069891588430749EB
:101B4000886108464069891588430449486104480A
:101B500080688915084302498860704700F00F408B
:101B6000009004400548008A012806D10448806896
:101B700001210906084302498860704794FBFF1F52
:101B800000F00F400548008A012806D1044880680B
:101B900001214906084302498860704794FBFF1FF2
:101BA00000F00F401A4840690121C907084318494D
:101BB000486108464068490608431549486014488A
:101BC00040384069012149060843114940394861BC
:101BD000084640680121490608430D4940394860DC
:101BE000084640690121090608430949403948610E
:101BF0000846406801210906084305494039486004
:101C000003488068C90408430149886070470000A0
:101C100040F00F400A48008A01280FD10948806827
:101C20000121C90708430749886006484038806891
:101C300001210906084303494039886070470000C4
:101C400094FBFF1F40F00F400548008A012806D191
:101C5000044880680121C907084302498860704729
:101C600094FBFF1F40F00F40FEB504460D4616469C
:101C70006B4606223B21682000F0D4FA0746002F6D
:101C800017D168460078010268464078014308B2DF
:101C900020806846807801026846C078014308B217
:101CA000288068460079000269464979084300B2F5
:101CB00030803846FEBDFEB504460D4616466B46DE
:101CC00006224321682000F0ADFA0746002F17D105
:101CD00068460078010268464078014308B22080D7
:101CE0006846807801026846C078014308B22880BF
:101CF00068460079000269464979084300B230809D
:101D00003846FEBD10B520484069082108431E49E9
:101D1000486108468068082108431B4988600846D6
:101D20004069042108431849486108464068042175
:101D30000843154948600846406904210843124990
:101D4000486108468068042108430F49886000F014
:101D50001DF80D484069082108430B4948610846B1
:101D60004068082108430849486000F00FF8064819
:101D700040690821084304494861084680680821F1
:101D800008430149886010BD00F00F4010B50220E3
:101D9000FFF7A8F910BD00000C484069082108436E
:101DA0000A494861084640680821084307494860D5
:101DB00008464069042108430449486108464068D0
:101DC00004210843014948607047000000F00F40BB
:101DD00010B520484069082108431E49486108465B
:101DE0008068082108431B4988600846406904212F
:101DF00008431849486108464068042108431549CA
:101E00004860084640690421084312494861084671
:101E10004068042108430F494860FFF7B7FF0D48A9
:101E20004069082108430B49486108464068082179
:101E3000084308494860FFF7A9FF064840690821A0
:101E4000084304494861084680680821084301495D
:101E5000886010BD00F00F4070B50546002423488F
:101E6000806904218843214988610846406904212A
:101E700088431E4948611E488068042108431C4964
:101E80008860002627E0194840690821084317495F
:101E90004861084680680821084314498860FFF7B4
:101EA00075FF1248406908210843104948610846F7
:101EB0004068082108430D4948606006040E084642
:101EC000006904210840002801D0601CC4B2FFF75B
:101ED0005DFF701CC6B2082ED5DB002D02D1FFF7C6
:101EE00077FF01E0FFF70EFF204670BD00F00F40C6
:101EF0000090044070B504462D4840690421084311
:101F00002B49486108464068042108432849486035
:101F10000846406908210843254948610846806809
:101F2000082108432249886000253DE080202040A8
:101F3000C01100280CD11E484069042108431C49E7
:101F400048610846806804210843194988600BE00D
:101F5000174840690421084315494861084640680C
:101F600004210843124948606006040E1048406985
:101F7000082108430E494861084640680821084383
:101F80000B494860FFF702FF0948406908210843F0
:101F90000749486108468068082108430449886069
:101FA000FFF7F4FE681CC5B2082DBFDB70BD000052
:101FB00000F00F4010B520484069042108431E4935
:101FC000486108464068042108431B4948600846A8
:101FD00040690421084318494861084640680421C3
:101FE00008431549486008464069082108431249DA
:101FF000486108464068082108430F494860FFF7D8
:10200000C5FE0D484069042108430B494861084654
:1020100080680421084308498860FFF7B7FE064836
:10202000406908210843044948610846806808213E
:1020300008430149886010BD00F00F4010B52048EA
:102040004069042108431E4948610846406804214C
:1020500008431B494860084640690821084318495D
:102060004861084680680821084315498860084689
:1020700040690421084312494861084680680421E8
:1020800008430F498860FFF781FE0D484069082129
:1020900008430B494861084640680821084308493D
:1020A00048600846406904210843054948610846DC
:1020B00040680421084302494860FFF767FE10BDED
:1020C00000F00F4010B500242548806904218843A2
:1020D00023498861084640690421884320494861B2
:1020E00020488068042108431E4988601C484069D4
:1020F000042108431A4948610846406804210843FE
:1021000017494860FFF742FE154840690821084317
:10211000134948610846406808210843104948604F
:10212000FFF734FE07E0601CC4B2FA2C03DDFFF7B2
:1021300085FF012010BD0A480069042108400028DD
:10214000F1D107484069082108430549486108461C
:10215000806808210843024988600020EAE70000FF
:1021600000F00F400090044010B5FFF715FE64200A
:10217000FEF7A0FF80216B2000F0D5F86420FEF769
:1021800099FF00216B2000F0CEF8032000F088F8C2
:10219000002000F07DF8322000F0A7F80021382060
:1021A00000F0C1F800216A2000F0BDF800212320D2
:1021B00000F0B9F88021372000F0B5F8752000F064
:1021C00014F80446682C0CD101216B2000F0ABF808
:1021D00000216C2000F0A7F87D20C00000F085F8F9
:1021E00001E0012010BD0020FCE770B50446FFF7B8
:1021F000E1FED020FFF77EFEFFF764FF2046FFF7E9
:1022000079FEFFF75FFFFFF7D5FED120FFF772FEE3
:10221000FFF758FF0020FFF71FFE0546FFF70EFFF0
:10222000284670BDF8B506460F4614461D46FFF712
:10223000C1FE7106080EFFF75DFEFFF743FF0028A1
:1022400003D0FFF7FBFE0120F8BD3846FFF752FE32
:10225000FFF738FFFFF7AEFE7100491CC8B2FFF769
:1022600049FEFFF72FFF0DE0012C04D10020FFF7FE
:10227000F3FD287003E00120FFF7EEFD2870601EDB
:10228000C4B26D1C002CEFD1FFF7D8FE0020DBE7B5
:1022900010B50446E006010E1C2000F044F810BD05
:1022A00010B50446E006010E1B2000F03CF810BDFE
:1022B00070B504460025BC2C01DB012510E0622C22
:1022C00001DB02250CE02A2C01DB032508E0142C9D
:1022D00001DB042504E00A2C01DB052500E00625CE
:1022E00029461A2000F01FF870BD70B504467D2005
:1022F000C000844200DD0446042C00DA0424214698
:102300007D20C000FDF710FF401EC6B231461920E7
:1023100000F009F806462546E10F4919C903080CE3
:10232000FFF7C6FF70BD70B505460C46FFF742FECD
:10233000D020FFF7DFFDFFF7C5FE002803D0FFF731
:102340007DFE012070BD2846FFF7D4FDFFF7BAFEE1
:102350002046FFF7CFFDFFF7B5FE002803D0FFF7BB
:102360006DFE0120EEE7FFF769FE0020EAE70000BE
:1023700010B50023194A0321022005F0D3FC0023E5
:10238000164A0221084605F0CDFC15484069012196
:1023900049070843124948610846806801214907F6
:1023A00008430F49886000230C4A0121022005F0F0
:1023B000B9FC0023094A1946022005F0B3FC08487D
:1023C00040690121C90708430549486108468068FA
:1023D000C90408430249886010BD0000D4300000E1
:1023E00000F00F4010B50446224603210220FEF7FC
:1023F00041FF012202210846FEF73CFF10BD10B547
:102400000446012203210220FEF734FF2246022166
:102410000846FEF72FFF10BD10B5044622460121E5
:102420000220FEF727FF012200210220FEF722FFF3
:1024300010BD10B50446012211460220FEF71AFF16
:10244000224600210220FEF715FF10BD10B500281E
:1024500019DA1A4A03071B0F083B9B089B00D25846
:102460008307DC0EFF23A3409A438B071B0E8407D0
:10247000E40EA3401A43114B0407240F083CA408A0
:10248000A4001A5118E00E4A03231B02D218830835
:102490009B00D2588307DC0EFF23A3409A438B078F
:1024A0001B0E8407E40EA3401A43054B03242402A9
:1024B0001B198408A4001A5110BD00001CED00E097
:1024C00000E100E010B500200CE0002106E0002251
:1024D000CB00064C1B191A544A1CD1B28029F6DBDA
:1024E000411CC8B20828F0DB10BD000060F1FF1FDE
:1024F00000B500218D2000F0CDFA0021102000F061
:10250000C9FA0021AE2000F0C5FA00BD00B50021D7
:102510008D2000F0BFFA0021142000F0BBFA00214A
:10252000AF2000F0B7FA00BDF7B57F2801DC3F29E6
:1025300000DDFEBD0C46CE17760F3619F6100727C4
:10254000BE1BF2B2CE17760F3619F610F6008E1BB0
:10255000F5B20724661B0124B440E3B2029C002CB0
:1025600009D0C400094EA419A45C1C43C600074F3F
:10257000F619B45408E0C400044EA419A45C9C43AA
:10258000C600024FF619B45400BFD2E760F1FF1F36
:10259000FFB506460F4634460DE03D4606E02946A7
:1025A0002046099AFFF7C0FF681CC5B20398854210
:1025B000F5DD601CC4B202988442EEDDFFBD000070
:1025C00000B5624840690121C90608435F49486176
:1025D000084640680121C90608435C49486008462E
:1025E0004069012189060843584948610846406806
:1025F00001218906084355494860544840304069E4
:102600008915084351494031486108464068891599
:1026100008434E49403148604C48406989050843A9
:102620004A4948610846406801210907084347496B
:10263000486008464068012109070843434948604B
:1026400042484030806889150843404940318860DD
:102650007D20400107E0642101E04A1E91B200297B
:10266000FBDC411E88B20028F5DC38484030406869
:10267000FF21013108433549403148600021AE2037
:1026800000F008FA0021D52000F004FA0021802093
:1026900000F000FA0021A82000F0FCF900213F2002
:1026A00000F0F8F90021D32000F0F4F900210846E9
:1026B00000F0F0F90021402000F0ECF900218D201D
:1026C00000F0E8F90021142000F0E4F900212020B6
:1026D00000F0E0F90021022000F0DCF90021A12047
:1026E00000F0D8F90021C02000F0D4F90021DA2050
:1026F00000F0D0F90021122000F0CCF90021812057
:1027000000F0C8F90021EF2000F0C4F90021D92021
:1027100000F0C0F90021F12000F0BCF90021DB201D
:1027200000F0B8F90021302000F0B4F90021A42015
:1027300000F0B0F90021A62000F0ACF90021AF2094
:1027400000F0A8F9FFF7BEFE00BD000000F00F404A
:1027500030B500241CE02146B031C8B2002100F0A1
:1027600099F90021084600F095F90021102000F0A9
:1027700091F9002508E0E900074A8918085D012160
:1027800000F088F9681CC5B2802DF4DB601CC4B26F
:10279000082CE0DB30BD000060F1FF1FFFB584B006
:1027A0000E4615461C4602962046E3175B0F1B1883
:1027B000DB102246E7177F0FBF18FF10FF00E71B53
:1027C00001D0012700E00027DB192146E70F7F1821
:1027D0007F107B43DBB2019328462038C5B2002727
:1027E0004FE00C2C04D0102C09D0182C14D10CE084
:1027F0000C20684325494018C05D03900DE0280176
:1028000023494018C05D039007E024206843214914
:102810004018C05D039000E000BF00BF00200090A2
:1028200029E0802103980840002805D031460D9A00
:102830000498FFF779FE0AE00D98002801D10120E5
:1028400000E00020024631460498FFF76DFE039831
:102850004006000E0390701CC6B20298301AA042C7
:1028600005D1029E0498401CC0B2049006E0009876
:10287000401CC0B2009000980828D2DB00BF781C32
:10288000C7B201988742ACDB08B0F0BD98A1000048
:102890000CA60000FCAB0000FFB581B0064600248A
:1028A00007E02548015D0398814200D103E0601CE8
:1028B000C4B2092CF5DB00BF0394002438E00027E4
:1028C0002BE0FF218131039848431C494118062021
:1028D0006043C019085C009000251AE01848405D6C
:1028E00000990840002805D03046049A0299FFF765
:1028F0001BFE0AE00498002801D1012000E000201E
:10290000024630460299FFF70FFE701CC6B2681CE3
:10291000C5B2082DE2DB781CC7B2062FD1DB0298C6
:10292000401CC0B2029030463038C6B2601CC4B2FF
:10293000402CC4DB05B0F0BD788000001894000086
:1029400058B90000FFB581B0064614461D460A9FDF
:102950000DE0009722782B4630460299FFF71EFFC4
:102960002846E90F091849108919CEB2641C20784D
:102970007E2802DC20782028EBDA05B0F0BDF8B51F
:1029800005460F4614461E461FE02078002800D159
:102990001CE020787E280DDC207820280ADB0096B9
:1029A00022780C2339462846FFF7F8FEA81DC5B249
:1029B000641C0AE00096637822783946284600F0C5
:1029C00007F828460C30C5B2A41CDEE700BFF8BDEE
:1029D000FFB582B00646174600240CE02A48005D89
:1029E000B84206D12849601C095C0598814200D193
:1029F00003E0A01CC4B2C82CF0DB00BF2046E10FEE
:102A00000918C9050F0E00243AE0002000902BE0C1
:102A1000182078431D494118620000981018085C7E
:102A2000019000251AE01A48405D019908400028ED
:102A300005D030460B9A0399FFF776FD0AE00B9814
:102A4000002801D1012000E0002002463046039911
:102A5000FFF76AFD701CC6B2681CC5B2082DE2DB28
:102A60000098401CC0B2009000980228D0DB039868
:102A7000401CC0B2039030461038C6B2601CC4B2CD
:102A80000C2CC2DB06B0F0BD908000005881000025
:102A900058B9000010B5002902D0012910D107E073
:102AA000204A926801231B071A431E4B9A6007E0D5
:102AB0001C4A526801231B071A431A4B5A6000BF75
:102AC00000BF002224E0174B9B680124E406234347
:102AD000144CA36080230340002B07D023465B687F
:102AE0000124A40623430F4C636006E00D4B9B6852
:102AF0000124A40623430B4CA3600A4B5B6801240A
:102B0000E4062343074C63604306180E531CDAB2F5
:102B1000082AD8DB034A526801231B071A43014BDA
:102B20005A6010BD00F00F4000B599B0FD48C06874
:102B300001210843FB49C860FB4AFC49FC48FFF7F8
:102B400093F8FC4AFC49FD48FFF7B5F8FA4BF64A02
:102B5000F749FB48FEF7BEFCF6480021415E00291C
:102B600003DD01460020085E03E0F2480021415EDB
:102B700048420790FDF7F6FBF24AF34B09910890A3
:102B8000FDF7F8FC0D910C90EB490020085EFDF775
:102B9000E9FB0B910A900D9B0C9AFDF7DDFC11915E
:102BA0001090EA480088FDF7D6FBE9490C90FDF744
:102BB00089FB0D90FDF70CFC0F910E90119B109A64
:102BC000FDF7D8FC15911490E2480088FDF7C3FB8F
:102BD0000E90DB4800680121C90748400D900E990E
:102BE000FDF7DAFA1090DC480088FDF7B4FB0F908F
:102BF0001099FDF72AFB1190FDF7EAFB1391129053
:102C0000159B149AFDF704FC17911690FDF792FDA1
:102C1000D2490860D2480069012189020840002891
:102C200003D104F0E3FF404202E0002004F0DEFFA5
:102C300000B2CC490880CA484030006920210840D1
:102C4000002803D1012004F0D1FF02E0012004F0AC
:102C5000CDFF00B2C4490880C2490020085EC249C5
:102C600000228A5E8018C10F17900818401000B229
:102C70001890BE480078002813D0BD480068401C5A
:102C8000BB490860BB4800680A2804D2189800288D
:102C900001DA00201890B748016818980818B5495B
:102CA0000860002004F09AFF012004F097FF0E2036
:102CB000FEF70AFB1590FDF74EFB01461690AE4855
:102CC00005F034F91790FDF76FFBAC4908800D2033
:102CD000FEF7FAFA1590FDF73EFB01461690A6485E
:102CE0001C3005F023F91790FDF75EFBA44908801E
:102CF0000020FEF7E9FAA34908800120FEF7E4FA74
:102D0000A1490880A1490020085EA14908809C488B
:102D100000889A490988401A00B29C4908809D4859
:102D200000689D4908609D4800689A4908609C4871
:102D300000689A49086095490020085EFDF700FB8D
:102D40000D90FDF745FB974A974B0F910E90FDF7BD
:102D500011FC139112908D490020085EFDF702FBD3
:102D60000B910A9089490020085EFDF7E9FA059069
:102D7000FDF72EFB8D4A8E4B07910690FDF7FAFB6F
:102D8000099108900B9B0A9AFDF7F4FB0F910E90A6
:102D90007E490020085EFDF7E5FA0B910A907B4919
:102DA0000020085EFDF7CCFA0390FDF711FB0791B8
:102DB000069076490020085EFDF7C2FA0190FDF703
:102DC00007FB7C4A7C4B03910290FDF7D3FB0591F6
:102DD0000490079B069AFDF7CDFB099108900B9B89
:102DE0000A9AFDF7C7FB0D910C900F9B0E9AFDF709
:102DF0000FFB11911090139B129AFDF709FB6F4A7C
:102E00006F4B15911490FDF7A7FB17911690FDF7E6
:102E1000B5FC634908606B48007805287ED2430002
:102E20007B449B885B009F4404008805EB0571068A
:102E3000BE064C480021415E142970DB4A4800213F
:102E4000415E1429F9DB6048008B4C4909888842AF
:102E500065DA5D48008B4A4909888842F8DA5A48A1
:102E6000008B48490988884203DA4748008864286B
:102E700009DB454800887D21C90088424FDD414873
:102E800000886428E4DA3A48006850490860394804
:102E900000684F4908604B480078401C4949087059
:102EA0004C480078030003F0D8FF0AF106F2EFEE79
:102EB000EDECEBEAE9F148480088002830D04648BC
:102EC0000088C10F17900818401041001798401A49
:102ED00081B23D488185404801881691C90F1698F6
:102EE0000818401041001698401A03D13A4800884B
:102EF000401E01E038480088C10F179008184010A4
:102F0000030003F0AAFF06047885929FACB933480A
:102F10000088334908803348008865E0F4E3F4E32F
:102F2000ABE00000007103405EF0FF1F5CF0FF1F8C
:102F30005AF0FF1F64F0FF1F62F0FF1F60F0FF1FD9
:102F400068F0FF1FCDCCCCCCCCCCDC3FD8F0FF1F41
:102F50000000C842D2F0FF1FD6F0FF1F74F0FF1F21
:102F600000F00F4098F0FF1F9AF0FF1FC6F0FF1F00
:102F7000C8F0FF1FCCF0FF1FA4F9FF1F88F0FF1F50
:102F80008AF0FF1F8CF0FF1F8EF0FF1F94F0FF1FD1
:102F900096F0FF1FB4F0FF1FB8F0FF1FB0F0FF1F47
:102FA000ACF0FF1FD4B7CCE9B298883F1C0CD0110D
:102FB00054E8C7BE9FB7BB4ED6A8353EB115342DD9
:102FC000B1327A3FC4F0FF1F94FBFF1F20F1FF1FB7
:102FD00024F1FF1FC5F0FF1F06F1FF1FE2F0FF1FE6
:102FE00018F1FF1FE4F0FF1FFE490880FE4800882B
:102FF000FE49088040E0FE480088FE490880FE48FF
:103000000088F8490880FD480088F849088033E0C6
:10301000FB480088F7490880FA480088F149088091
:10302000F9480088F149088026E0F8480088F1490D
:103030000880F7480088EB490880F6480088EB498B
:10304000088019E0F4480088EA490880F3480088BD
:10305000E4490880F2480088E44908800CE0F1481F
:103060000088E4490880F0480088DE490880EF487D
:103070000088DE49088000BF00BF2DE2A3E324E3FF
:10308000A7E22AE277E1FAE07DE000E0D4E3E84855
:103090000088002876D0E6480088C10F17900818ED
:1030A000401041001798401A81B2E2488185E048FB
:1030B00001881691C90F16980818401041001698FB
:1030C000401A03D1DA480088401E01E0D848008841
:1030D000C10F179008184010030003F0BEFE06044D
:1030E000111E2B384552D4480088C2490880D34865
:1030F0000088BC490880BC480088BC49088040E082
:10310000BB480088BB490880BB480088B549088097
:10311000BA480088B549088033E0B9480088B54905
:103120000880B8480088AF490880B7480088AF4990
:10313000088026E0B5480088AE490880B448008879
:10314000A8490880B3480088A849088019E0B24817
:103150000088A8490880B1480088A2490880B04882
:103160000088A24908800CE0AE480088A149088088
:10317000AD4800889B490880AC4800889B4908807E
:1031800000BF00BFD5E3AE480088002876D0AC4829
:103190000088C10F17900818401041001798401A76
:1031A00081B2A4488185A64801881691C90F169856
:1031B0000818401041001698401A03D1A048008812
:1031C000401E01E09E480088C10F1790081840106B
:1031D000030003F042FE0604111E2B3845529648A8
:1031E000008884490880954800887E4908807E4888
:1031F00000887E49088040E07D4800887D4908803D
:103200007D480088774908807C4800887749088095
:1032100033E07B480088774908807A480088714904
:103220000880794800887149088026E0774800883E
:1032300070490880764800886A4908807548008887
:103240006A49088019E0744800886A490880734810
:1032500000886449088072480088644908800CE04E
:1032600070480088634908806F4800885D4908807D
:103270006E4800885D49088000BF00BF59E371486F
:103280000088002876D06F480088C10F1790081872
:10329000401041001798401A81B2664881856948FC
:1032A00001881691C90F1698081840104100169809
:1032B000401A03D163480088401E01E0614800883D
:1032C000C10F179008184010030003F0C6FD060454
:1032D000111E2B38455258480088464908805748E7
:1032E000008840490880404800884049088040E004
:1032F0003F4800883F4908803F4800883949088096
:103300003E4800883949088033E03D480088394903
:1033100008803C480188334801803B480088334995
:10332000088026E0394800883249088038480088FB
:103330002C490880374800882C49088019E0364815
:1033400000882C4908803548008826490880344880
:103350000088264908800CE032480088254908800A
:10336000314800881F490880304801881F48018083
:1033700000BF00BFDDE234480088002866D0324834
:103380000088C10F17900818401041001798401A84
:1033900081B2284881852C4801881691C90F16985A
:1033A0000818401041001698401A03D1264800889A
:1033B000401E01E024480088C10F179008184010F3
:1033C000030003F04AFD06044754616E7B881A48E7
:1033D0000088084908801948008802490880024886
:1033E000008834E01AF1FF1FE6F0FF1F1CF1FF1FF9
:1033F000E8F0FF1F18F1FF1FEAF0FF1FECF0FF1FBE
:10340000EEF0FF1FF0F0FF1FF2F0FF1FF4F0FF1FC0
:10341000F6F0FF1FF8F0FF1FFAF0FF1FFCF0FF1F90
:10342000FEF0FF1F00F1FF1F02F1FF1F04F1FF1F5D
:1034300008F1FF1F94FBFF1FE2F0FF1FE4F0FF1FE6
:103440000AF1FF1F0CF1FF1F0EF1FF1F44E0FB49C3
:10345000088040E0FA480088FA490880FA48008865
:10346000FA490880FA480088F449088033E0F948AE
:103470000088F4490880F8480088F4490880F74833
:103480000088EE49088026E0F5480088ED4908806C
:10349000F4480088ED490880F3480088E74908802F
:1034A00019E0F2480088E7490880F1480088E749B8
:1034B0000880F0480088E14908800CE0EE48008868
:1034C000E0490880ED480088E0490880EC48008821
:1034D000DA49088000BF00BF2BE2EA4800880028D4
:1034E00076D0E8480088C10F1790081840104100B6
:1034F0001798401A81B2E4488185E2480188169104
:10350000C90F16980818401041001698401A03D1A8
:10351000DC480088401E01E0DA480088C10F17909F
:1035200008184010030003F098FC0604111E2B3805
:103530004552D6480088C3490880D5480188C34809
:103540000180D4480088BD49088040E0BC4800881C
:10355000BC490880BC480088BC490880BC48008839
:10356000B649088033E0BB480088B6490880BA48AD
:103570000088B6490880B9480088B049088026E02C
:10358000B7480088AF490880B6480088AF4908802E
:10359000B5480088A949088019E0B4480088A949BD
:1035A0000880B3480088A9490880B2480088A34928
:1035B00008800CE0B0480088A2490880AF48008825
:1035C000A2490880AE4800889C49088000BF00BF1F
:1035D000AFE1B1480088002876D0AF480088C10F1D
:1035E00017900818401041001798401A81B2A64859
:1035F0008185A94801881691C90F169808184010AE
:1036000041001698401A03D1A3480088401E01E0EB
:10361000A1480088C10F179008184010030003F05C
:103620001CFC0604111E2B38455298480088854919
:1036300008809748018885480180964800887F491E
:10364000088040E07E4800887E4908807E480088E7
:103650007E4908807E4800887849088033E07D48AC
:103660000088784908807C480088784908807B4831
:1036700000887249088026E07948008871490880EE
:103680007848008871490880774800886B4908802D
:1036900019E0764800886B490880754800886B49B6
:1036A000088074480088654908800CE072480088EA
:1036B000644908807148008864490880704800881F
:1036C0005E49088000BF00BF33E1744800880028CD
:1036D00078D072480088C10F179008184010410038
:1036E0001798401A81B2684881856C480188169104
:1036F000C90F16980818401041001698401A05D1B5
:1037000066480088401E03E0FFE115E16348008839
:10371000C10F179008184010030003F09EFB060429
:10372000111E2B3845525948008846490880584890
:10373000018846480180574800884049088040E099
:103740003F4800883F4908803F4800883F4908803B
:103750003F4800883949088033E03E4800883949AD
:1037600008803D480088394908803C480088334932
:10377000088026E03A4801883248018039480088AC
:1037800032490880384800882C49088019E03748B9
:1037900000882C490880364800882C490880354824
:1037A0000088264908800CE03348008825490880B5
:1037B0003248008825490880314800881F49088020
:1037C00000BF00BFB5E036480088002835D0344837
:1037D0000088C10F17900818401041001798401A30
:1037E00081B2294881852E4801881691C90F169803
:1037F0000818401041001698401A03D12848008844
:10380000401E01E026480088C10F1790081840109C
:10381000030003F022FB06044754616E7B881B48BB
:103820000088084908801A48008808490880194813
:1038300000880249088076E077E075E01CF1FF1F00
:10384000E8F0FF1F18F1FF1FEAF0FF1F1AF1FF1F3A
:10385000ECF0FF1FEEF0FF1FF0F0FF1FF2F0FF1F74
:10386000F4F0FF1FF6F0FF1FF8F0FF1FFAF0FF1F44
:10387000FCF0FF1FFEF0FF1F00F1FF1F02F1FF1F12
:1038800004F1FF1F10F1FF1F94FBFF1FE2F0FF1F69
:10389000E4F0FF1FE6F0FF1F12F1FF1F14F1FF1FFE
:1038A00016F1FF1FFE480088FE490880FE48008888
:1038B000FE490880FE480088FE49088033E0FE4843
:1038C0000088F8490880FD480088F8490880FC48CD
:1038D0000088F849088026E0FA480088F149088005
:1038E000F9480088F1490880F8480088F1490880C3
:1038F00019E0F7480088EB490880F6480088EB4952
:103900000880F5480088EB4908800CE0F3480088FF
:10391000E4490880F2480088E4490880F1480088BA
:10392000E449088000BF00BF03E00221EE48818522
:1039300000BF00BFFEF788F95DE1EC480068002891
:1039400044D0EB480068002840D0EA480068E849C5
:103950000968401AD5490988884237D9E54800687E
:10396000E3490968401AD349098888422ED2E248BF
:103970000088E24909884118DB48008B4000FF3885
:103980002D38814222DDD848808D012807D1C548D5
:1039900000884042FCF7D4FCD949086009E0D248CD
:1039A000808D002805D1BF480088FCF7D4FCD4499D
:1039B00008600520D3490880D34840680121C90721
:1039C0000843D1494860FEF7DDF818E0C9480068AF
:1039D000C7490968411AC448808B81420FD9CA4837
:1039E00040384068012149060843C74940394860CA
:1039F000FEF7B8F8C5480078401CC4490870FAE0E2
:103A0000C3480068B9490968401A14286CD9B948F4
:103A10000068B7490968401AA6490988884263D9ED
:103A2000B148008BB449098888425DDDAE48008BFF
:103A3000B2490988884257DDB6480078401CB5492C
:103A400008700846007806284EDAA748808D0128BD
:103A500023D1084600780521081A9249098848436D
:103A600005211490FCF760FB1590FCF769FC17909A
:103A7000A8480078FCF76FFC1490A14801681498DE
:103A8000FCF7E3FBA4491590FCF71CFC1690179972
:103A9000FCF7D3FB9A49086026E09348808D002804
:103AA00022D19C4800780521081A7E49098848439C
:103AB00005211490FCF738FB1590FCF741FC17909A
:103AC00094480078FCF747FC14908D4801681498DE
:103AD000FCF7BBFB90491590FCF7F4FB1690179987
:103AE000FCF75AFB864908608248006880490968EB
:103AF000401A704909887D22D2008918884204D969
:103B000082480078401C8149087074E07648008B38
:103B100079490988884231DA7348008B77490988E6
:103B200088422BDA002071490860724800687049A9
:103B300008606D48808D012807D16B48C08D1790B3
:103B4000FCF709FC6E4908600BE06748808D00288F
:103B500007D16548008E40421790FCF7F1FB684999
:103B6000086005206749088067484038406801219F
:103B70000906084364494039486013E05B4800681F
:103B800000280FD15B48006859490968411A564816
:103B9000408E814206D95D480078401C5B49087020
:103BA000FEF738F827E05348006851490968401A81
:103BB0005A4988421ED90020544908704B49086070
:103BC0004B49086056480078401C554908704E48DB
:103BD00040680121C90708434B4948604A484038BA
:103BE0004068012109060843474940394860C82018
:103BF0004449088000BF00BF4A490020085E4A4986
:103C000000228A5E801A4949098848431190FCF7CE
:103C1000A9FB1591149046480088FCF7B7FB119159
:103C2000109044480068FCF7D3FB434A434B09918A
:103C30000890FCF79FFC0D910C9041480068FCF740
:103C4000C7FB3D4A3F4B05910490FCF793FC09915B
:103C500008903D480068FCF7BBFB3C4A3C4B019197
:103C60000090FCF787FC0591049025480068FCF75C
:103C7000AFFB314A374B01910090FCF77BFC03917D
:103C80000290059B049AFCF7C3FB07910690099BE1
:103C9000089AFCF7BDFB0B910A900D9B0C9A5BE018
:103CA000E8F0FF1F18F1FF1FEAF0FF1F1AF1FF1FD6
:103CB000ECF0FF1F1CF1FF1FEEF0FF1FF0F0FF1FE5
:103CC000F2F0FF1FF4F0FF1FF6F0FF1FF8F0FF1FE8
:103CD000FAF0FF1FFCF0FF1FFEF0FF1F00F1FF1FB7
:103CE00002F1FF1F04F1FF1F94FBFF1F20F1FF1FD4
:103CF00024F1FF1FCCF0FF1F88F0FF1F8AF0FF1F89
:103D0000ACF0FF1F00F0FF1F40F00F40C4F0FF1F9A
:103D1000C8F0FF1F43F1FF1F0000A0408813000000
:103D2000C5F0FF1F94F0FF1F96F0FF1FE0F0FF1F8C
:103D3000DEF0FF1FB8F0FF1F9A9999999999B93F42
:103D4000B4F0FF1F9999C93FB0F0FF1F33333333ED
:103D50003333D33F9999D93FFCF75AFB0F910E901B
:103D6000119B109AFCF706FC13911290159B149A64
:103D7000FCF74EFB17911690FCF7DCFC63490860DA
:103D80006348006863490968401860490968401A37
:103D9000614908605E4800685E49096840185B49EF
:103DA000096840185D4908605D480069FF210131DC
:103DB0000840002805D101215A48017064205A4961
:103DC000088058480078012812D158480021415EE7
:103DD000142965DB56480021415E142960DB7D20F3
:103DE000C000FEF70CFB7D20C000FEF722FB57E071
:103DF00049480068002816DA4748006840424649AA
:103E00000860084600684B49884202DB0846424980
:103E100008604148008880B21790FEF7F0FA002051
:103E20003D49086010E03C4800684249884202DB96
:103E30000846394908603848008880B21790FEF774
:103E4000D1FA00203449086034480068002816DAA6
:103E500032480068404231490860084600683549E8
:103E6000884202DB08462D4908602C48008880B251
:103E70001790FEF7DEFA00202849086010E0274876
:103E800000682C49884202DB084624490860234820
:103E9000008880B21790FEF7BFFA00201F49086023
:103EA00021480088052807DB1F480088401F1E495D
:103EB0000880FCF703FF06E01948806801214902E9
:103EC0000843174988601C48007800281BD01B480D
:103ED0000088FCF740FA1A4908601A480088FCF785
:103EE0003AFA1749486018480088FCF734FA144930
:103EF000886016480088FCF72EFA1149C86000F067
:103F00009BFA00F0A5FA19B000BD00007CF0FF1F7D
:103F100074F0FF1F78F0FF1F80F0FF1F84F0FF1F79
:103F200000F00F40D0F0FF1F00F0FF1F98F0FF1FC0
:103F30009AF0FF1F4E0C000042F1FF1F88F0FF1F98
:103F400060F9FF1F8AF0FF1F8CF0FF1F8EF0FF1F2C
:103F50000348C169012001430148C1617047000065
:103F60000071034070B504460D4616461F4840696F
:103F7000022108431D4948611D4800680221884309
:103F80001B49086020461630C206D20E012191401E
:103F9000184A116000BF1848684318492201885028
:103FA0000846210140188068022108431349220174
:103FB0008918886011482101401881680120014357
:103FC0000E482201801881602146163148B23146E0
:103FD000FEF73CFA20461630C206D20E012191406F
:103FE000044A803A116000BF70BD000000800440A8
:103FF0000070034080E100E0409C0000007103403D
:10400000F0B58FB005460E461746387844B200BF6B
:10401000A2B201A908A800F093F9A81B401C0D2228
:104020005043C1B2002308AA5420FEF7A8FCA81BE5
:10403000401C0D225043C1B2002301AA6C20FEF7A0
:104040009EFC00200090FDF769F9030002F005FFD7
:10405000065A04131C414D5AA01C44B20D2C01D128
:104060000B2000E0204604460E2C01D10C2000E07D
:104070002046044646E0A01E44B2002C01DC00208D
:1040800000E0204604463DE0012000902846C7306D
:104090002F4908803888098849002E4A505200204C
:1040A00009E04100FF225202891809884200294B89
:1040B0009952411C88B2FF28F3DD3C80FF20FDF7B8
:1040C0006FF80023012252022249FF20FDF79AF8DF
:1040D00018E02046E10F091849104900611A01D182
:1040E000611E00E021464CB20CE02046E10F0918A9
:1040F00049104900611A012901D1611C00E02146E3
:104100004CB200BF00BF009801281BD1A2B201A988
:1041100008A800F015F9A81B401C0D225043C1B29D
:10412000012308AA5420FEF72AFCA81B401C0D22DC
:104130005043C1B2012301AA6C20FEF720FCFEF718
:1041400007FB02E0FEF704FB62E700BF0FB0F0BD23
:104150004CF1FF1F14FAFF1FF0B58BB005460F4658
:104160001646308804B26F48844200DD00E02046E5
:104170000446002C01DA002000E02046044600BF7F
:10418000224669A104A802F03DFE00200090E81B31
:10419000401C0D225043C1B20C2304AA6620FEF736
:1041A000D1FB00200390FDF7B9F8030002F055FEA3
:1041B000069B040D1632479B601C04B2594884428A
:1041C00000DD00E0204604468DE0012C01DA0120EC
:1041D00000E020460446601E04B284E00120039003
:1041E000002009E04100FF2252028918098842009C
:1041F0004F4B9952411C88B2FF28F3DD3480FF20D9
:10420000FCF7CEFF0023012252024949FF20FCF7B0
:10421000F9FF68E00A2D0DDB122D0BDC2046E10FC3
:10422000091849104900611A01D1611E00E02146B8
:104230000CB258E001200390308804B253E0002013
:10424000029000BF3B480088201804B235488442E1
:1042500000DD00E020460446002C01DA002000E0EA
:1042600020460446FDF75AF8032806D0042820D13A
:10427000308804B2012002901BE0002009E04100D8
:10428000FF225202891809884200294B9952411C89
:1042900088B2FF28F3DD3480FF20FCF781FF002384
:1042A000012252022249FF20FCF7ACFF01200290BC
:1042B00000BF00BF224620A104A802F0A3FD0020F9
:1042C0000090E81B401C0D225043C1B20C2304AAED
:1042D0006620FEF737FBFEF73BFA02980028B1D0C4
:1042E00000BF00BF00BF00BF0398012813D12246C2
:1042F0000DA104A802F086FD01200090E81B401CDF
:104300000D225043C1B20C2304AA6620FEF71AFB0B
:10431000FEF71EFA02E0FEF71BFA31E700BF0BB012
:10432000F0BD00000F2700002534642000000000CD
:1043300014FAFF1F98F0FF1F2534642300000000CB
:1043400070B506460D461446002C08D12FA1304604
:1043500002F058FD2DA1284602F054FD70BD204604
:10436000E10F091849104900611A02D001290AD148
:1043700004E027A1304602F045FD09E025A13046C2
:1043800002F040FD04E024A1304602F03BFD00BFF6
:1043900000BF2046E10F091849104900611A01D1F8
:1043A000611E00E021468CB22046E10F0918491039
:1043B0000B0002F052FD0604090E13181D2217A16E
:1043C000284602F01FFD1DE015A1284602F01AFD47
:1043D00018E014A1284602F015FD13E012A12846AA
:1043E00002F010FD0EE011A1284602F00BFD09E0DD
:1043F0000FA1284602F006FD04E00EA1284602F0B7
:1044000001FD00BF00BF00BFA8E700002D2D2D005B
:10441000D3D22000D7F320003F3F000020353000EA
:10442000203630002037300020383000203930006E
:10443000313030003F3F3F0010B5552003F015FEEE
:10444000AA2003F012FE112003F00FFE10BD0000A1
:10445000F8B500240026002000900425552003F024
:1044600004FEAA2003F001FEFF2003F0FEFD012060
:1044700003F0FBFD284603F0F8FD00BF19E0A000A3
:104480000F490858009068460678304603F0EDFD65
:1044900068464678304603F0E8FD68468678304640
:1044A00003F0E3FD6846C678304603F0DEFD601C8D
:1044B000C4B2AC42E3DB012003F0D7FDF8BD00003D
:1044C00060F9FF1F10B51748408C030002F0C5FCCF
:1044D0000627040B12192027012313A21321002001
:1044E000FEF74DFA1CE0012315A213210020FEF770
:1044F00046FA15E0012318A213210020FEF73FFA27
:104500000EE001231AA213210020FEF738FA07E07B
:1045100001231DA213210020FEF731FA00E000BFA5
:1045200000BF10BD94FBFF1F202020202020202052
:10453000B0B820D2BB202020202020202020000046
:104540002020202020202020B0B820B6FE202020CF
:10455000202020202020000020202020202020209B
:10456000B0B820C8FD2020202020202020200000DE
:104570002020202020202020B0B820CBC4202020C4
:10458000202020202020000020202020202020206B
:10459000B0B820CEE52020202020202020200000C0
:1045A0001248134988800120487023200870112088
:1045B000000510494862104840780007000F0E4976
:1045C000487094200D4908701A200B49087000BFEC
:1045D00009480079102108400028F9D100BF064899
:1045E00000790C2108400028F9D1704703E8000049
:1045F0000020054000800440004006400050064076
:10460000F3B581B00646B00049490C58002E04D0DD
:10461000012E22D0022E62D140E04648C06880219F
:1046200088434449C8600846406901210905084398
:10463000404948614048C078082108433E49C87055
:104640000846C078042108433B49C8700846C07832
:10465000202108433849C87000BF3648006901214D
:104660000903884333490861084640690121490527
:104670000843304948613148C078082108432F4930
:10468000C8700846C078042108432C49C870084601
:10469000C078202108432949C87021E025480069D5
:1046A00001214903884323490861084640690121E3
:1046B000890508431F4948612148C07808210843FB
:1046C0001F49C8700846C078042108431C49C870B7
:1046D0000846C078202108431949C87000E000BF8F
:1046E00000BFE0780C218843E0700020A0701548DE
:1046F0000299FBF703FD471D0A213846FBF7FEFC34
:1047000085B21148854200DD054620784009400108
:1047100020702078E904C90E0843207065700020DD
:10472000A070A0716071E0780C210843E070FEBDBC
:104730008CBA00000080044000A0064000B0064093
:1047400000C0064040787D01FF1F000030B50246E2
:104750000B4690000B4D2C58002108E02079802555
:104760002840002801D0E37104E0481CC1B206488B
:104770008142F3DB00BF0448814201DB012030BDF0
:104780000020FCE78CBA0000BBFB000030B589B00C
:10479000FDF798FE012321A200210846FEF7EFF85D
:1047A00000BFFCF7BBFD032802D0042803D100BFE3
:1047B000002009B030BD1F480068FBF709FE044621
:1047C00022460B461CA101A802F01CFB012301AAF2
:1047D0000C210020FEF7D3F81B4803881B480288F1
:1047E0001BA101A802F00EFB012301AA1A2100203F
:1047F000FEF7C5F81B480023C35E1B480022825EFB
:104800001AA101A802F0FEFA012301AA2721002023
:10481000FEF7B5F8FDF79CFFC3E7000020203C2021
:1048200020202020D7D42020BCEC202020202020B5
:104830002020000068F0FF1FB8A9D1F6BDC73A25B7
:104840002D332E32660000008AF0FF1F88F0FF1F14
:104850004144D7F320203A252D346420D3D23A2581
:104860002D3464009AF0FF1F98F0FF1FD7AACBD910
:10487000D7F33A252D346420D3D23A252D34640061
:10488000F0B5CDB001250026012400270A204C9068
:10489000FDF718FEFF222D32774901A8FBF758FCDF
:1048A000012301AA00210846FEF769F81E20604393
:1048B00001A9421801230D210020FEF760F8601CB9
:1048C0001E21484301A9421801231A210020FEF7A6
:1048D00056F8A01C1E21484301A942180123272194
:1048E0000020FEF74CF8E01C1E21484301A94218A5
:1048F000012334210020FEF742F800BF2E46274650
:10490000FCF70CFD012806D002280DD0032817D093
:10491000042828D111E0681EC5B2012D01DA092052
:1049200000E0284605461EE0681CC5B2092D01DDE1
:10493000012000E02846054615E000204DB0F0BDFE
:10494000012D06D0022D06D0032D06D0042D08D14E
:1049500005E01F20F2E72020F0E72120EEE7052008
:10496000ECE70020EAE700BFA54201DA284600E0B4
:1049700020460446E81EA04200DD00E02046C4B206
:10498000AE421FD001200C23202219460090184669
:10499000FDF704FF01200C23202219210090184666
:1049A000FDF7FCFE01200C23202226210090184652
:1049B000FDF7F4FE01200C2320223221009018463E
:1049C000FDF7ECFEA74226D01E20604301A9421845
:1049D00001230D210020FDF7D2FF601C1E2148435A
:1049E00001A9421801231A210020FDF7C8FFA01CCD
:1049F0001E21484301A94218012327210020FDF769
:104A0000BEFFE01C1E21484301A9421801233421A6
:104A10000020FDF7B4FFA54208D101200C2340225D
:104A2000194600901846FDF7B9FE22E0601C854249
:104A300008D101200C234022192100901846FDF7CF
:104A4000ADFE16E0A01C854208D101200C234022B7
:104A5000262100901846FDF7A1FE0AE0E01C8542E1
:104A600007D101200C234022322100901846FDF787
:104A700095FEFDF76DFE41E760B90000F0B58BB023
:104A8000FDF720FD00BFA6480068FBF764FC074661
:104A9000A449FBF717FC0446FBF79AFC05462A4697
:104AA0000B46A1A103A802F0ADF901200C2303AA33
:104AB0001B2100900020FDF745FF9D480068FBF793
:104AC0004AFC9C490290FBF7C0FB07469A49FBF75A
:104AD000F9FB0446FBF77CFC05462A460B4697A1EA
:104AE00003A802F08FF901200C2303AA28210090CB
:104AF0000020FDF727FF8E480068FBF72CFC8D494E
:104B00000090FBF7A2FB8C490190FBF7DBFB0290C6
:104B100083480068FBF71FFC82490190FBF7D2FB3A
:104B200007460299FBF7CEFB0446FBF751FC05460E
:104B30002A460B4683A103A802F064F901200C2346
:104B400003AA352100900020FDF7FCFE01200C2374
:104B50007EA2002100900620FDF7F4FE7C48808CA8
:104B60003030C2B2012300213720FDF795FE78488E
:104B7000808E002804D0012807D002280FD109E038
:104B800074A103A802F03EF909E074A103A802F0A1
:104B900039F904E073A103A802F034F900BF00BFA3
:104BA000012303AA30216220FDF7E9FE6848808CCA
:104BB000052801DB052001E06548808C6449888474
:104BC000FCF7ACFB030002F048F906A6043464705D
:104BD00076A65F48808C401C81B25D488184808CC1
:104BE000052801DB052001E05948808C584988845C
:104BF0000846808C5D490880002009E04100FF22C2
:104C00005202891809884200594B9952411C88B2B6
:104C1000FF28F3DD554801884D488184FF20FCF7CB
:104C2000BFFA0023012252025149FF20FCF7EAFAA1
:104C300071E04748808C002801D1012001E0444800
:104C4000808C434988840846808C401E81B240484D
:104C50008184808C45490880002009E04100FF22C2
:104C60005202891809884200414B9952411C88B26E
:104C7000FF28F3DD3D48018835488184FF20FCF79B
:104C80008FFA0023012252023949FF20FCF7BAFAB9
:104C900041E02F49888CFCF7C9F9002802D0012097
:104CA0000BB0F0BDFCF79EFC35E000202049086009
:104CB0001B490860F4E72648808E401C81B22448D6
:104CC0008186808E022801DD002001E02048808E50
:104CD0001F4988860846808E24490880002009E004
:104CE0004100FF225202891809884200204B995244
:104CF000411C88B2FF28F3DD1C48018814488186D6
:104D0000FF20FCF74DFA0023012252021849FF2030
:104D1000FCF778FA00BF00BFFDF71AFDB3E600000C
:104D2000CCF0FF1F00A0AF4573252D2E326600008A
:104D3000C8F0FF1F0000A04000007A4474252D2E0B
:104D40003266000076252D2E326600003C00000001
:104D500094FBFF1FC6D5CDA83E000000D4A4C8FC1C
:104D60003E000000BEF6C8FC3E00000008F0FF1F39
:104D700014FAFF1FF0B58BB0FDF7A4FB01231EA2B0
:104D800000210846FDF7FBFD00BFFCF7C7FA042829
:104D900002D103200BB0F0BD1D480068FBF718FBE3
:104DA00004460D461B480068FBF712FB06463246D8
:104DB0000B4619A103A80195009402F023F80120E5
:104DC0000C2303AA142100900020FDF7BBFD174817
:104DD0000023C35E16480022825E16A103A802F0DB
:104DE00011F801200C2303AA212100900020FDF7D7
:104DF000A9FDFDF7ADFCC8E7203C20202020CDD345
:104E00002020C2DD2020D2C720202020202000002A
:104E100070F0FF1F68F0FF1F503A25332E326620D6
:104E2000202020593A25332E326600005CF0FF1F07
:104E30005AF0FF1F4720583A202535642020593A60
:104E4000202535642000000038B501240025FDF739
:104E500039FB012389A203210020FDF790FD8D4835
:104E6000408C012801DA052001E08A48408C8949FC
:104E700048840846408C052801DD012001E0854872
:104E8000408C84494884FFF71DFB012382A2232123
:104E90000020FDF774FD012385A233210020FDF7DA
:104EA0006EFD00BF2546FCF739FA030001F0D5FF7F
:104EB0000691040D16295D91601EC4B2012C01DA21
:104EC000042000E02046044684E0601CC4B2042CA8
:104ED00001DD012000E0204604467BE0012C06D0E5
:104EE000022C06D0032C06D0042C08D105E00120AA
:104EF00038BD0220FCE70320FAE70420F8E7002091
:104F0000F6E7022C30D16348408C401E81B26148E4
:104F10004184408C012801DA052001E05D48408C85
:104F20005C4948840846408C67490880002009E0B5
:104F30004100FF225202891809884200634B9952AE
:104F4000411C88B2FF28F3DD5F4801885148418445
:104F5000FF20FCF725F90023012252025B49FF20C4
:104F6000FCF750F9FFF7AEFA34E0022C30D1494893
:104F7000408C401C81B247484184408C052801DDAB
:104F8000012001E04348408C424948840846408C57
:104F90004D490880002009E04100FF225202891893
:104FA00009884200494B9952411C88B2FF28F3DD21
:104FB0004548018837484184FF20FCF7F1F8002379
:104FC000012252024149FF20FCF71CF9FFF77AFA4F
:104FD00000E000BF00BFA5421FD001200C2320220B
:104FE000032100901046FDF7D9FB01200C2320225D
:104FF000132100901046FDF7D1FB01200C23202245
:10500000232100901046FDF7C9FB01200C2320222C
:10501000332100901046FDF7C1FB012C06D0022C75
:105020000DD0032C14D0042C24D11AE001200C2321
:105030004022032100902020FDF7B0FB1AE0012060
:105040000C234022132100902020FDF7A7FB11E044
:1050500001200C234022232100902020FDF79EFBFD
:1050600008E001200C234022332100902020FDF78E
:1050700095FB00BF00BFFDF76BFB13E7202020204E
:1050800020202020B7A220B3B520202020202020DF
:105090002020000094FBFF1F202020202020202023
:1050A000CDE220C9E8202020202020202020000060
:1050B0002020202020202020C9E820D6C320202026
:1050C000202020202020000008F0FF1F14FAFF1FDE
:1050D000F0B5F84B9D4401250021F74868448161F3
:1050E0000126416101612521C160F448408C401EC8
:1050F0002821484384B2FDF7E5F9F148684401F0FE
:1051000069F90123EE4A6A4400210846FDF737FC9D
:105110001E207043EA496944421801230D210020F2
:10512000FDF72DFC701C1E214843E54969444218D7
:1051300001231A210020FDF722FCB01C1E21484348
:10514000DF4969444218012327210020FDF717FC9D
:10515000F01C1E214843DA496944421801233421D6
:105160000020FDF70CFC00BFD34868448561466110
:10517000FCF7D4F8030001F070FE060C040DFB16DA
:105180001B0C681EC5B2012D01DA242000E0284660
:10519000054627E3681CC5B2242D01DD012000E08F
:1051A00028460546F5E70020C34B1C339D44F0BD5F
:1051B000002010E000210AE0C200C24BD218525C6D
:1051C000C300FFAF3837DB195A544A1CD1B2082943
:1051D000F2DB411CC8B28028ECDB0121FFA841634F
:1051E00000210163E4E201203823472217210090C7
:1051F0001E20FDF7CDF9FFA8406B012802D0022840
:105200003AD11CE00123B0A21A212120FDF7B7FBFF
:10521000002019234422194600902120FDF7B8F9F7
:10522000002026234422194600902120FDF7B0F9E2
:105230000023A7A229212120FDF7A1FB1CE00023C8
:10524000A1A21A212120FDF79AFB0123A0A2292166
:105250002120FDF794FB00202823442219460090CA
:105260002120FDF795F900203523442219460090AE
:105270002120FDF78DF900BF00BFFCF74FF80300B8
:1052800001F0EBFD060704080CFD0D070120FFA946
:1052900048638AE20220FFA9486386E200BF00203B
:1052A000099013E000200BE00999C900854A89188C
:1052B0000A5C0999C9000BABCB181A54411CC8B23F
:1052C0000828F1DB0998401CC1B20991099880288F
:1052D000E8DB012700210A9144E2FFA8406B012886
:1052E00047D12F236E220E2100904520FDF750F963
:1052F000012F02D0022F3AD11CE0012376A2112106
:105300004820FDF73CFB002010236B22194600903B
:105310004820FDF73DF900201D236B22194600901F
:105320004820FDF735F900236DA220214820FDF724
:1053300026FB1CE0002368A211214820FDF71FFB7B
:10534000012367A220214820FDF719FB00201F231D
:105350006B22194600904820FDF71AF900202C23F3
:105360006B22194600904820FDF712F900BF3AE180
:1053700039E2FFA8406B0228F9D101203F237A22AD
:10538000014600904520FDF703F94C48408C03008E
:1053900001F063FD066804182C40546852A101A86E
:1053A00001F030FD53A103A8013001F02BFD54A101
:1053B00005A8023001F026FD54A107A8033001F032
:1053C00021FD4FE054A101A801F01CFD49A103A853
:1053D000013001F017FD4AA105A8023001F012FDCD
:1053E0004AA107A8033001F00DFD3BE04AA101A846
:1053F00001F008FD3CA103A8013001F003FD40A12C
:1054000005A8023001F0FEFC40A107A8033001F01E
:10541000F9FC27E040A101A801F0F4FC32A103A8A7
:10542000013001F0EFFC33A105A8023001F0EAFCE5
:1054300036A107A8033001F0E5FC13E036A101A86E
:1054400001F0E0FC28A103A8013001F0DBFC29A158
:1054500005A8023001F0D6FC29A107A8033001F00D
:10546000D1FC00BF00BF002301AA04214820FDF7A2
:1054700086FA002303AA01321321482000E090E1BC
:10548000FDF77DFA002305AA023222214820FDF70C
:1054900076FA002307AA033231214820FDF76FFA7C
:1054A000012F3FD0022F54D0032F6AD0042F4FD1A9
:1054B0007FE0000064F3FFFF800C000094FBFF1FFF
:1054C0003408000060F1FF1F20C7E5BFD5200000B1
:1054D00020B8B4D6C620000020B5B1C7B020000067
:1054E00020CBF9D3D020000020B7BDB0B8B6FE2045
:1054F0000000000020B7BDB0B8C8FD2000000000CB
:1055000020B7BDB0B8CBC4200000000020B7BDB0AC
:10551000B8CEE5200000000020B7BDB0B8D2BB2057
:1055200000000000012301AA04214820FDF727FA0A
:10553000002003237722194600904820FDF728F821
:10554000002010237722194600904820FDF720F80C
:1055500047E0012303AA013213214820FDF70FFA87
:10556000002012237722194600904820FDF710F8FA
:1055700000201F237722194600904820FDF708F8E5
:105580002FE0012305AA023222214820FDF7F7F976
:10559000002021237722194600904820FCF7F8FFCD
:1055A00000202E237722194600904820FCF7F0FFB8
:1055B00017E0012307AA033231214820FDF7DFF964
:1055C000002030237722194600904820FCF7E0FFA6
:1055D00000203D237722194600904820FCF7D8FF91
:1055E00000BF00BF00BFFBF799FE030001F035FCD0
:1055F00006B704132522B6B7FFA8406B012801D1D6
:10560000012707E0781EC7B2012F01DA012000E070
:1056100038460746A3E0FFA8406B012801D10227C6
:1056200007E0781CC7B2042F01DD042000E03846F3
:10563000074694E001200A9091E0F948408CB84276
:1056400001DD099702E0781CC1B20991FFA8406B07
:105650000A214843C019162850D006DC0B2809D06F
:105660000C2826D0152876D147E0172847D01828CF
:1056700071D145E0002009E04100FF225202891863
:1056800009884200E74B9952411C88B2FF28F3DD9C
:105690000021681E00194000E24A1152FF20FBF76A
:1056A0007FFD002301225202DE49FF20FBF7AAFD05
:1056B00051E0002009E04100FF22520289180988C8
:1056C0004200D84B9952411C88B2FF28F3DD0020DC
:1056D00006E0002122185200D24B9952411CC8B258
:1056E0002828F6DBFF20FBF75BFD00230122520296
:1056F000CC49FF20FBF786FD2DE000BF00BF00BFB7
:10570000002009E04100FF22520289180988420066
:10571000C44B9952411C88B2FF28F3DD00200DE0F4
:105720000999491E2822514309184900BD4A515A76
:1057300022185200BB4B9952411CC8B22828EFDBFB
:10574000FF20FBF72DFD002301225202B549FF2067
:10575000FBF758FD00BF00BF022025E500BF00BFDA
:10576000FCF7F6FF0A98012800D0B6E50020099062
:1057700013E000200BE00999C9000BAA89180A5C04
:105780000999C900A84BCB181A54411CC8B2082863
:10579000F1DB0998401CC1B2099109988028E8DB27
:1057A00003E00120FFA9086300BF00BFFCF7D0FFA2
:1057B000FFA8006B012800D015E5002010E00021B3
:1057C0000AE0C200FFAB3833D218525CC300964FD8
:1057D000DB195A544A1CD1B20829F2DB411CC8B269
:1057E0008028ECDBA8E12B0001F037FB251C141D01
:1057F00027313B454F59636E78828C96A0AAB4BE80
:10580000C8D3DEF8F6F5F4F3F2F1F0EFEEEDECEBE1
:10581000EAE91C006000834942180123314628460A
:10582000FEF79AFC86E1601C40007E494218012385
:1058300031462846FEF790FC7CE1A01C40007949E7
:105840004218012331462846FEF786FC72E1E01C2F
:10585000400074494218012331462846FEF77CFC7B
:1058600068E1201D40006F49421801233146284657
:10587000FEF772FC5EE1601D40006A494218012398
:1058800031462846FEF768FC54E1A01D40006549FA
:105890004218012331462846FEF75EFC4AE1E01D2E
:1058A000400060494218012331462846FEF754FC67
:1058B00040E12046083040005A4942180123314651
:1058C0002846FEF749FC35E120460930400055499D
:1058D000421831462846FEF793FB2BE120460A305A
:1058E00040005049421831462846FEF789FB21E125
:1058F00020460B3040004B49421831462846FEF7FF
:105900007FFB17E120460C304000464942183146E3
:105910002846FEF775FB0DE120460D304000414959
:10592000421831462846FEF76BFB03E120460E3055
:1059300040003C49421831462846FEF761FBF9E039
:1059400020460F3040003749421831462846FEF7BE
:1059500057FBEFE0204610304000324942183146F4
:105960002846FEF74DFBE5E02046113040002D496A
:10597000421831462846FEF743FBDBE02046143050
:10598000400028494218012331462846FEF7E4FB2F
:10599000D0E020461530400022494218012331460C
:1059A0002846FEF7D9FBC5E02046163040001D49C9
:1059B0004218012331462846FEF7CEFBBAE0AEE09E
:1059C000A2E096E08AE07EE072E066E05AE04EE017
:1059D00042E036E02AE017E00BE0FFE72046173010
:1059E000400010494218012331462846FEF7B4FB17
:1059F000A0E02046183040000A49421801233146F1
:105A00002846FEF7A9FB95E02046193040000549DD
:105A10004218012331462846FEF79EFB8AE000002B
:105A200094FBFF1F14FAFF1F60F1FF1F20461A307E
:105A3000400092494218012331462846FEF78CFB6C
:105A400078E020461B3040008C4942180123314643
:105A50002846FEF781FB6DE020461C304000874958
:105A60004218012331462846FEF776FB62E02046C5
:105A70001D30410081480A18012331462846FEF7AF
:105A80006BFB57E020461E3040007C494218012342
:105A900031462846FEF760FB4CE020461F304000B0
:105AA00076494218012331462846FEF755FB41E06E
:105AB00020462030400071494218012331462846D3
:105AC000FEF74AFB36E02046213040006B49421881
:105AD000012331462846FEF73FFB2BE020462230CB
